:100000000C944C020C9469020C9469020C946902E1
:100010000C9469020C9469020C9469020C946902B4
:100020000C9469020C9469020C9412240C94E6243A
:100030000C94411F0C9469020C9469020C9469029F
:100040000C9469020C9469020C9469020C94690284
:100050000C9469020C94C81F0C9469020C946902F8
:100060000C9469020C9469020C9469020C94690264
:100070000C9469020C9469020C9469020C94690254
:100080000C9469020C9469020C9469020C94690244
:100090000C9469020C9469020C9469020C94690234
:1000A0000C9469020C9469020C9469022E001E00E3
:1000B0001F00200021002200000023002400250052
:1000C000260027002D00350014001A000800150036
:1000D000170000001C0018000C0012001300310073
:1000E000292104211624072809220B2F00000A2F9A
:1000F0000D220E280F2433213400E1001D001B00C7
:100100000157025705002C08110010003600370077
:1001100038001E7C2900E000E200E30028412B2883
:100120002C052A222C425000510052004F0044005E
:100130003A003B003C003D003E0000003F00400014
:10014000410042004300450000001E021F02200241
:100150002102220200002E003500330233002E025D
:1001600000000100E000E200E300E10023020000E3
:10017000250226022F0230002D000000010022027D
:10018000230231003102240201003502270230022D
:100190002F002D02010001000100010001000100FB
:1001A00001002C0901000100010001000100010013
:1001B0000000000000000000000000000000AC0093
:1001C000AA00A900AB00AE00007C44003A003B004E
:1001D0003C003D003E0000003F0040004100420066
:1001E000430045000100E000E200E300E100000FF1
:1001F00000005000510052004F00000000000100BC
:1002000000002F0830082F0A300A2C0950084E0031
:100210004B004F0800000000010001000100010038
:1002200001000100010001000100010001000100C6
:1002300001000000000000000000000000000000BD
:10024000AC00AA00A900AB00AE00010001002078BC
:1002500021780100D9000100000001000100010027
:10026000010001000100010027782378D300D100AC
:10027000D2000000CF00CE00CD00D0000000007CF6
:100280000100257829780100DA0001000100DB0077
:10029000DA00D900DC0000000100010001000100CB
:1002A0000100010001000100010001000100010046
:1002B0000100010000000000000000002A2B2800BF
:1002C0000000000000000000000000000000002905
:1002D000000000002C1E3420212224342627252E45
:1002E000362D3738271E1F2021222324252633337D
:1002F000362E37381F0405060708090A0B0C0D0EA9
:100300000F101112131415161718191A1B1C1D2F74
:100310003130232D350405060708090A0B0C0D0E94
:100320000F101112131415161718191A1B1C1D2F54
:100330003130354C000000000000000000000000DB
:1003400000000000000000000000000000000000AD
:1003500000000000000000007E0F00D4FFFFFFC778
:1003600000000078120341007400720065007500FF
:1003700073003600320000000E03500072006F0060
:1003800066006500740000000403090409023B00D4
:10039000020100A0FA090400000103010100092183
:1003A000110100012244000705810308000109042E
:1003B00001000103000000092111010001227B005E
:1003C00007058203200001120100020000000872EC
:1003D00050626001000102000105010902A10185CE
:1003E000020901A100050919012908150025019537
:1003F00008750181020501093009311581257F95B4
:10040000027508810609381581257F9501750881D7
:1004100006050C0A38021581257F950175088106AD
:10042000C0C005010980A101850319012AB7001583
:100430000126B700950175108100C0050C0901A1C6
:1004400001850419012AA002150126A00295017553
:10045000108100C005010906A101050719E029E77F
:100460001500250195087501810295017508810126
:100470000507190029FF150026FF0095067508815C
:10048000000508190129051500250195057501913B
:1004900002950175039101C011241FBECFEFDAE070
:1004A000DEBFCDBF11E0A0E0B1E0E6E4FFE402C0B2
:1004B00005900D92A83DB107D9F722E0A8EDB1E073
:1004C00001C01D92A83FB207E1F70E9408130C94E7
:1004D0005A270C94000023E042E061E00E94BE092C
:1004E00008958430B8F46530A8F44D3098F450E0A5
:1004F0009DE0699F400D511D1124FA0191E4899FEF
:10050000E00DF11D1124EE0FFF1FE455FF4F859103
:100510009491089581E090E008950E9471020895F9
:100520009C013A9521153F4150F5FC01EE27F170F1
:10053000BC0166277270AC01442754709C012227CD
:10054000387094FF0EC080E1EF2B09F480E0672B38
:1005500009F08062452B09F08064232B89F08068C4
:10056000089581E0EF2B09F480E0672B09F08260A9
:10057000452B09F08460232B19F08860089580E0F2
:100580000895CF93DF93EB010E949002FE0109953D
:10059000DF91CF910895CF93DF93EC01805E9109B5
:1005A000089720F06EEE77E0209711F46EEA75E080
:1005B000CE010E94C1028C2F0E94A504DF91CF9131
:1005C0000895CF93DF93EC010E943305CE01805E46
:1005D0009109089720F065EF77E0209711F465EB1B
:1005E00075E0CE010E94C102DF91CF9108950F9373
:1005F0001F93CF93DF938C01EB010E94CB022097D6
:1006000041F4C8010E94E102DF91CF911F910F9147
:1006100008958FE99FE00197F1F700C0000021974E
:10062000EECF70E060E08933910511F460E570E091
:100630000E94F702089581E008950E941B03089527
:1006400081E008950E941B0308950E9422030895EB
:1006500008950E9428030895A6E0B0E0E2E3F3E0E5
:100660000C94B62649835A839E833091DF01898199
:100670009A8131111AC03E81332399F0222389F0E7
:100680000E945E09182F682F89819A810E943A0979
:1006900069817A81812F0E9487102696E3E00C946D
:1006A000D2260E944C09182FF3CF0E945E0969815F
:1006B0007A81F1CFFC01262F4081518162817381C3
:1006C000848195810E942C030895CF93DF93EC01E0
:1006D00061E00E945A03BE010E941D03DF91CF9189
:1006E0000895CF93DF93EC0160E00E945A03BE01AE
:1006F0000E942903DF91CF91089581E008950E941F
:100700007D030895CF93C82F0E9412088C2F0E945A
:100710007F032FEF84E39CE0215080409040E1F77D
:1007200000C00000CF91089581E00E9482030E94E2
:10073000EC1F089580E00E9482030E94FD1F08952F
:100740000F931F93CF93DF938C0161E00E945A03B4
:10075000EC01B8010E943D1D882329F061E0C80129
:100760000E945A03EC01B801CE010E9425038111B9
:1007700006C080E0DF91CF911F910F910895B801DD
:10078000CE010E94CD168823A1F3B801CE010E94AC
:10079000651D882371F3B801CE010E9428138823B8
:1007A00041F3B801CE010E94F515882311F3B80179
:1007B000CE010E948F1C8823E1F2B801CE010E9475
:1007C00006188823B1F2B801CE010E94DC178823F5
:1007D00081F2F8018581882361F0C330FCE7DF07EF
:1007E000E9F058F4C115ECE7DE07A9F0C130DC47A9
:1007F000B9F0C8010E942003BDCFCB358CE7D807E4
:10080000A9F0CC35ECE7DE0771F0CA35DC4789F793
:100810000E94B00DEECF0E949403ABCF0E94B80DA2
:100820000E949A03A6CF0E94A60DE3CF0E94B40DAA
:10083000E0CF0E941D1F0E94400408950E944404BE
:100840000E94221F0895089581E008950895CF938E
:10085000DF93D82F0E942404C82F882319F08D2FEE
:100860000E9426048C2FDF91CF9108950895CF9395
:10087000C82F0E9423048C2F0E942704CF91089533
:1008800080E00E94370408950E94F01D0E94370402
:100890000895CF930E94F01DC82F8091DA018C1724
:1008A00079F0C093DA010E94AD1F6093DB01709371
:1008B000DC018093DD019093DE018C2F0E943704D0
:1008C000CF910895ADE0B0E0E8E6F4E00C94B726EF
:1008D000488759876A877B878C879D8791110E94FB
:1008E000D60C1F8286E0FE013896DE01119601903B
:1008F0000D928A95E1F78D8181110DC029813A8190
:100900004B815C816D817E818F810E941A0C2D96B6
:10091000E2E00C94D326CE0101960E94650381117A
:10092000EDCFF5CFFC012481213021F4808191812C
:100930000E9490090895662329F00E9467190E9479
:100940004C1A08950E94D319FACFCF93C82F882349
:10095000C9F08238C9F40E94FD1D81FD13C089E3EE
:100960000E94B31E0E94550D2FEF87EE93E0215099
:1009700080409040E1F700C0000089E30E94BB1E68
:100980000E94550DCF9108958338A1F40E94FD1D5A
:1009900080FDF8CF83E50E94B31E0E94550D2FEF16
:1009A00081EE94E0215080409040E1F700C00000CB
:1009B00083E5E4CF8438A1F40E94FD1D82FDE2CFDF
:1009C00087E40E94B31E0E94550D2FEF81EE94E044
:1009D000215080409040E1F700C0000087E4CECF76
:1009E0008CEF8C0F813A70F48C2F0E94781E882334
:1009F00029F08C2F0E94BB1E0E94550D8C2F0E9447
:100A0000B31EBECF80E28C0F883048F4C77081E0FF
:100A100001C0880FCA95EAF70E94B30CB1CFEBE58D
:100A2000EC0FE33040F4F0E0E657FE4F808190E0B9
:100A30000E94191EA7CFE8E5EC0FEB3150F4F0E06F
:100A4000EE0FFF1FEC5AFE4F808191810E943E1EE7
:100A500099CF83E38C0F833108F094CF61E08C2F22
:100A60000E949B048FCF882309F456C0823879F402
:100A70000E94FD1D81FF50C089E30E94B31E0E94A9
:100A8000550D89E30E94BB1E0E94550D08958338C1
:100A900059F40E94FD1D80FF3FC083E50E94B31EF4
:100AA0000E94550D83E5EECF843859F40E94FD1D58
:100AB00082FF32C087E40E94B31E0E94550D87E476
:100AC000E1CF9CEF980F913AE8F290E2980F9830BE
:100AD00050F4877091E001C0990F8A95EAF7892F49
:100AE0000E94B90CD1CF9BE5980F933028F490E089
:100AF00080E00E94191E089598E5980F9B3128F414
:100B000090E080E00E943E1E089593E3980F933199
:100B100018F460E00E949B0408951F93CF93DF9325
:100B2000182FEB010E94A504209739F4812F0E9411
:100B30003305DF91CF911F9108958FE99FE00197D1
:100B4000F1F700C000002197EFCF70E060E089333B
:100B500011F460E570E00E948D050895882321F06E
:100B60000E94B30C0E94550D0895882321F00E9425
:100B7000B90C0E94550D0895B0E0A0E0E2ECF5E05C
:100B80000C94B0266C01D62FC72FFC01158106816D
:100B900002950F700E94A90CE82E8823F9F0E12E2F
:100BA0001123E1F08C2F807F803461F080E28D0F83
:100BB000883008F18C2F807E803221F4D230D8F03A
:100BC0000023C9F08091CF0282FF15C082E00E940D
:100BD0007A0D0E94A90C91E0E82EE926BC2EB29471
:100BE0009FE0B922FBE0FB15B8F1EB2DF0E0E45AF1
:100BF000F84D0C94A126E12CF1CF0C2F0F70C07F83
:100C000011F00295007F112399F0002359F080E242
:100C10008D0F883010F0D11107C0802F0E94B30CC7
:100C20000E94550D8D2F5AC0802F0E94C90CF8CFFD
:100C30008D2F0E943305002379F080E28D0F8830DC
:100C400010F0D11104C0802F0E94B90C03C0802F76
:100C50000E94CF0C0E94550DEB2DE850FF0B3497EE
:100C600020F40E94F01D0E943704EE2089F00E94BB
:100C7000A50C80FD0DC0F60115820E949F0C0E94FC
:100C80009808C6010E94CB070E949F0C0E94A808EA
:100C9000CDB7DEB7E9E00C94CC262C2F2F70F22EC6
:100CA000C07FC03219F0F29480EFF822DD2341F0CA
:100CB000D130D1F1112309F444C00023F1F0B2CFB7
:100CC0008091CF0282FD15C0112359F0FF2029F039
:100CD0008F2D0E94B30C0E94550D80E00E94A50448
:100CE000BBCF80E00E943305FF2009F4B5CF8F2DE4
:100CF000ABCF112369F0011104C08F2D0E94AE0506
:100D0000ABCF013009F0A8CF8F2D0E94F00CA4CFFB
:100D10000111A2CF8F2D0E94B5058F2D0E94FC0CD2
:100D20008F2D0E94E00C98CF112321F0063008F09F
:100D300093CFE3CF053008F08FCF8F2D0E94B505FC
:100D40008BCF0023D1F3D93349F43FEF87EE93E003
:100D5000315080409040E1F700C000008D2F0E948C
:100D600033057ACF8C2F86958695837069F0813014
:100D700009F072CF8D2F9C2F9370111102C080E06B
:100D800090E00E943E1E68CF8D2F9C2F9370111112
:100D900002C080E090E00E94191E5ECF612F8D2F6F
:100DA0000E949B0459CF8C2F8370A1F5111154CF51
:100DB0004D2F429546954770440F440F2D2F2F70AD
:100DC00030E0042E02C0220F331F0A94E2F790E0B5
:100DD00080E0D4FF09C08FE090E002C0880F991F27
:100DE0004A95E2F780959095C695C695C370822B7B
:100DF000932BC23049F058F4C13019F00E946B08AF
:100E00002BCF0E94620828CF0E94740825CF0E9431
:100E10005F0822CF8695112311F08C2F81708823D3
:100E200009F41ACF4D2F429546954770440F440F51
:100E30002D2F2F7030E0042E02C0220F331F0A9492
:100E4000E2F790E080E0D4FF09C08FE090E002C0BC
:100E5000880F991F4A95E2F780959095C695C6959B
:100E6000C370822B932BC23049F058F4C13019F073
:100E70000E94D308F1CE0E94CA08EECE0E94DC0880
:100E8000EBCE0E948008E8CECF70112329F08C2F82
:100E90000E9498088D2F32CF8D2F0E94B5058C2F80
:100EA0000E94A808D9CED23F41F160F4D03FB9F0FA
:100EB000D13F81F0112309F446C00111B3CE8C2F2C
:100EC0008F711FC0D33F01F1D43FA1F78091CF02B2
:100ED00082FD24C08C2F8F71112311F312C01123B6
:100EE00041F0053008F0B8CE8C2F8F710E94BA08FF
:100EF000B3CE063008F0B0CEF7CF8C2F8F71111122
:100F0000CFCF0E949808A8CE112329F08C2F8F7183
:100F10000E948C08A1CE0E9487089ECE112349F022
:100F2000CF718C2F0E94980863E08C2F0E945C0D7B
:100F300093CE81E00E947A0D023008F48DCE82E0DB
:100F40000E947A0D89CE002359F0D93309F006CFDB
:100F5000EFEFF7EE23E0E150F0402040E1F7FCCE68
:100F60008C2F8F719DCF0F931F93CF93DF93EC0145
:100F7000688179818D810E949B098C010E94E5081E
:100F80000E945E08B801CE010E94BC05DF91CF919E
:100F90001F910F910895CF93DF93EC018C818823EB
:100FA00099F0CE010E94A003811111C00E94A90CEA
:100FB000882351F08D81882339F08091CF0282FF00
:100FC00003C082E00E947A0DDF91CF910895CE0197
:100FD0000E94B307CE010E947103F6CF882321F04F
:100FE0000E94C90C0E94550D0895882321F00E948B
:100FF000CF0C0E94550D089590E080E00E94191ECC
:1010000090E080E00E943E1E0E94D60C0E94550D8A
:101010000E94681A0E944C1A08950E94C31E0E94E2
:10102000FC0708950E94C30C0E940D080895929534
:101030009F70963091F058F4925F9F70923058F400
:10104000803F19F030F4883E30F481E008959A5FD3
:10105000F4CF843FD1F380E00895883EB0F3813F20
:10106000D1F7F3CFFC012481222339F080819181D3
:101070000E9490090E941708089580E00895A6E054
:10108000B0E0E5E4F8E00C94B7262696E2E00C9494
:10109000D326A7E0B0E0EFE4F8E00C94B72627965B
:1010A000E2E00C94D32608950E94530808950E940C
:1010B00054089093070280930602089508950E94B1
:1010C000570808952091060230910702822B932B36
:1010D0000E9457080895209106023091070282234A
:1010E00093230E9457080895209106023091070229
:1010F000822793270E94570808950E946B02089543
:101100000E947D089093050280930402089590E068
:1011100080E00E948008089521E030E0A90102C02B
:10112000440F551F8A95E2F7CA010E94800808956E
:1011300021E030E002C0220F331F8A95E2F7809150
:10114000040290910502822B932B0E94800808953F
:1011500021E030E002C0220F331F8A95E2F720958C
:1011600030958091040290910502822393230E947E
:101170008008089521E030E002C0220F331F8A95D5
:10118000E2F78091040290910502822793270E9442
:10119000800808952091040230910502822B932B40
:1011A0000E94800808952091040230910502822354
:1011B00093230E9480080895209104023091050233
:1011C000822793270E94800808950895262F27706C
:1011D00091E001C0990F2A95EAF723E0769567958B
:1011E0002A95E1F7660F771F660F771FFA01E60F62
:1011F000F71F50E040E0682F70E08191DF01119708
:101200009B01042E02C0369527950A94E2F72170BF
:1012100021952827292328272C934F5F5F4F44309F
:10122000510559F70895A82FA77023E09695879543
:101230002A95E1F7880F991F880F991FFB01E80F86
:10124000F91F50E040E080E0219130E00A2E02C01A
:10125000369527950A94E2F721703327042E01C0B2
:10126000220F0A94EAF7822B4F5F5F4F44305105FB
:1012700059F70895262F953070F48D3060F4682F5B
:1012800070E08DE0989F600D711D112440EE51E0DB
:10129000822F0E94E6080895292F953068F48D303A
:1012A00058F490E060EE71E03DE0239F800D911DC9
:1012B00011240E941309089580E00895B0E0A0E091
:1012C000E4E6F9E00C94B0267C0100910402109150
:1012D00005028091060290910702082B192BCFE09E
:1012E000D0E0CC24C394D12CBC2EC6010C2E02C05D
:1012F000880F991F0A94E2F780239123892B49F4E0
:10130000219790F7B12C8B2DCDB7DEB7E9E00C9487
:10131000CC26B7018C2F0E949310019789F3F3CF4D
:10132000CF93DF93EC010E945E09BE010E949310EF
:10133000DF91CF9108951F93CF93DF93EB019091AD
:10134000DF01992339F0CB010E949009DF91CF9101
:101350001F910895882369F0CB010E945E09182F20
:10136000682FCE010E943A09BE01812F0E9493107E
:10137000EDCFCB010E944C09182FF6CFE1E0F0E051
:10138000DF0102C0AA0FBB1F6A95E2F7BD01DF01B2
:1013900002C0AA0FBB1F4A95E2F7AD01462B572B9F
:1013A00002C0EE0FFF1F2A95E2F79A012823392386
:1013B0002417350719F48E2B9F2B0895E095F0958F
:1013C0008E239F2308951F93CF93DF93C09108022C
:1013D00017E0809109028C1304C0DF91CF911F9117
:1013E0000895D0E01C9FF0011D9FF00D1124E65FD1
:1013F000FD4F2081318142815381648175818681D5
:101400000E9449082196C770E4CF20914202309192
:10141000430240914402509145026091460270910E
:101420004702809148020E9449080895CF93DF93B4
:1014300080914802807F09F04DC080914702882347
:1014400009F448C0E091080250910902C09143029A
:10145000D0914202609144027091450247E05E17CC
:10146000C9F18E2F90E0E49FF0011124E65FFD4F5B
:101470002481222391F1489FF001499FF00D11240E
:10148000DF01A65FBD4F11962C9111972C1325C03B
:101490002C912D1322C015962C91159721111DC04A
:1014A00012962D913C91261B370B2F3A3105A8F44B
:1014B000809148028F70806180934802E05FFD4F09
:1014C00080818F708061808382E492E00E94CB07EC
:1014D0000E94E309DF91CF910895FC013196E770F6
:1014E000BECF482F209108029091090257E029139E
:1014F00002C080E0089530E0529FF001539FF00D4C
:101500001124E65FFD4F8181681306C08081481376
:1015100003C085818111EECF2F5F3F4F2770E7CF4A
:10152000A4E1B0E0E6E9FAE00C94AD268C0186E097
:10153000F801DE011F9601900D928A95E1F7F801FE
:101540008481E58092E4A92E92E0B92E9091460222
:1015500091111FC08823D1F0EE20A9F0C8010E948C
:101560003208F82E882379F087E0F801D501019040
:101570000D928A95E1F7C5010E9492040E94160A15
:101580000E94050A5FC0C8010E94CB07FF24F394A4
:1015900059C0C080D18082809380F0904702209112
:1015A000440230914502A401421B530BFF2009F471
:1015B000F9C04F3A510508F0A7C0882309F442C08A
:1015C0009091430280914802282F207F09F05CC04F
:1015D0009D1116C090914202C91212C0E1104EC076
:1015E0008F708061809348020E94050A82E492E035
:1015F0000E94CB0780914802F8018683F12C22C01B
:10160000E1103CC06D2D8C2D0E94710A6D2D8C2D2A
:101610000E94710AE82E8111F1CFCF86D88A8F857A
:1016200098890E949009292F22952F70243078F4F0
:101630009F702230A8F09923B9F0F8019681907F2D
:1016400099F4FE2C8F2D6496ECE00C94C9262A5F49
:101650002F70223068F0C8010E94CB07EF2CF1CF29
:10166000992311F0882369F3805E883050F3F3CF1B
:10167000803F38F3815F833070F7E3CF8091480279
:10168000816080934802BACF9D1113C090914202AD
:10169000C9120FC0E1100DC08683C8010E94CB079C
:1016A00087E0F801A2E4B2E001900D928A95E1F79B
:1016B00067CFC8010E943208882309F464CFEE2066
:1016C00009F461CF80914802803288F02091420273
:1016D00030914302398728879B868A8690914602FB
:1016E0009C871D868E87CE0108960E94CB0787E0D7
:1016F000F801A2E4B2E001900D928A95E1F70E9410
:10170000160A0E94050A42CF90914802292F207F95
:10171000A1F4682D9A8A898AA6017A899E2D0E9451
:101720003F0882E492E00E94CB0787E0F501119226
:101730008A95E9F70E94050A61CF882309F482CFD0
:10174000809143028D1110C080914202C8120CC0DA
:10175000E1100AC09683C8010E94CB0787E0F5011B
:1017600011928A95E9F76ECFC8010E94320888234A
:1017700009F409CFEE2009F406CF809148028032A7
:1017800008F4B5CF20914202309143023A83298375
:101790009C828B82909146029D831E828F83CE0114
:1017A0000196A3CF4F3A5105B8F5882309F4EECE40
:1017B000FE2CEE2009F4E7CE809143028D111EC06D
:1017C00080914202C8121AC08091480280FD0DC06B
:1017D000982F907F51F08683903F09F45ECF982F29
:1017E000907F905F8F70892B57CF87E0F801A2E43C
:1017F000B2E001900D928A95E1F724CFC8010E94D2
:101800003208811174CF8091480281608093480230
:10181000C8010E94CB0716CF682D9A8A898AA60133
:101820007A899E2D0E943F0887E0F50111928A95E2
:10183000E9F7A6CEAEE0B0E0E0E2FCE00C94B6261C
:10184000288739874A875B876C877D878E87CE019B
:1018500008960E94900A8823B1F06C85662341F0B7
:10186000288539854A855B857D858E850E94490856
:1018700017E0809108029091090289133DC02E96CD
:10188000E3E00C94D22687E0FE013896DE01119643
:1018900001900D928A95E1F78C85882349F3209178
:1018A000090230E0C901019687709927409108022A
:1018B0004817190699F097E0929FD001939FB00DB9
:1018C0001124A65FBD4FFE01319601900D929A95AD
:1018D000E1F7809309020E94E309CACF0E9412082F
:1018E000109209021092080287E0E2E4F2E0DF01C0
:1018F0001D928A95E9F7BCCF819FC0011124865FB4
:101900009D4F0E94900A882309F4B9CFE091080204
:101910001E9FF0011124E65FFD4F2081318142813D
:1019200053816481758186810E94490880910802F3
:1019300090E0019687709927809308029ACF809152
:1019400051028695869586950895809151028770FB
:10195000089590915102977081E009F480E0089514
:1019600080915D02089590915D02892B80935D02C4
:101970000895809590915D02982390935D0208955B
:1019800080935D02089510925D02089580915C023B
:10199000089590915C02892B80935C020895809554
:1019A00090915C02982390935C02089510925C02DF
:1019B000089580915302089508950E94DC0C0895C3
:1019C00090915202292F282331F08095892380930A
:1019D00052020E94DD0C089508950E94EC0C0895B7
:1019E00090915302292F2823281729F0982B9093A0
:1019F00053020E94ED0C089590915302292F282341
:101A000031F080958923809353020E94ED0C089554
:101A10009091CF0292FF08C090915302981721F045
:101A2000809353020E94ED0C089580915302882305
:101A300029F01092530280E00E94ED0C08950F935C
:101A40001F93CF93DF9300913C0110913D01C09112
:101A50005D0280915C02C82B80915302882331F093
:101A6000C82B0E94631E81110E94150DF801C083CE
:101A7000C0913C01D0913D0148E050E069E472E042
:101A8000CE010E94F226892B59F088E0FE01A9E4DC
:101A9000B2E001900D928A95E1F7CE010E94001EFE
:101AA000DF91CF911F910F9108950E941F0D08950E
:101AB00008950E94580D08959091CF0292FF11C091
:101AC00098E0899F90011124622B609351020E943B
:101AD0009808809151028695869586950E94590DA9
:101AE00008950E94980808951092510280E00E9483
:101AF000590D089590915102809589238093510248
:101B0000282F277069F4891759F09091CF0292FF1E
:101B100007C08695869586950E94A8080E94740D38
:101B200008959091CF0292FB222720F9281769F09F
:101B300080FB92F99093CF028091CE029091CF02D8
:101B40000E94D90D82E00E947A0D08958091CF0203
:101B500082FB882780F991E089270E94910D0895E2
:101B600081E00E94910D089580E00E94910D0895FA
:101B70006FEF7FEF90E080E00E944427089590E0AF
:101B800080E00E94102721E0863E9E4F09F020E071
:101B9000822F089582E090E00E940827089583E054
:101BA00090E00E940827089584E090E00E941027AA
:101BB0000895BC0184E090E00E9444270895AB01A1
:101BC000BC018FE090E00E9438270895AB01BC0172
:101BD00083E190E00E943827089560E070E0CB0137
:101BE0000E94E60D089560E070E0CB010E94DF0DD9
:101BF0000E94ED0D0895A8E0B0E0E1E0FEE00C9455
:101C0000B72666EE7EEF90E080E00E94442760E019
:101C100082E090E00E94262781E090E09093070206
:101C20008093060261E083E090E00E94262760E056
:101C300074E184E090E00E94442760E086E090E058
:101C40000E94262760E087E090E00E94262740E07F
:101C500050E0BA0188E090E00E94382760E084E21A
:101C600090E00E94262760E087E190E00E9426270E
:101C700060E08CE090E00E94262760E08DE090E03C
:101C80000E94262719821A821B821C821D821E82B4
:101C90001F82188648E050E068E170E0CE010196AE
:101CA0000E94162740E050E0BA0180E290E00E94D6
:101CB00038270E94F30D2896E2E00C94D3260E9468
:101CC000FB0D0895682F8EE090E00E94262708956E
:101CD000A6E0B0E0EEE6FEE00C94B5260E94A11F5F
:101CE0008C0180915E0290915F028017910781F0D4
:101CF00019821A820E94A11F682F49815A81792F67
:101D000080E090E00E94620410935F0200935E0204
:101D10002696E4E00C94D1260E94AD1F60936E02DB
:101D200070936F02809370029093710260936A02C5
:101D300070936B0280936C0290936D0208950895E6
:101D400008950E949F0E089508950E94A40E08957C
:101D500089E891E10E9415130E94A00E0E94A10E35
:101D6000089581E008950E94B10E08950E94B10E79
:101D70000895089508950E94B90E0E94BA0E08951C
:101D80000E94BF0D811102C00E945F0E0E94CA0D09
:101D9000809372020E94D40D9093CF028093CE0262
:101DA0000E94CF0D90E00E945F0880910402909104
:101DB00005020E947D0808950E94981F0E945412F7
:101DC0000E94C00E0E9436040E9478130E94A50E45
:101DD00008950E94C71D0E94C0150E94C017089553
:101DE000A6E0B0E0E6EFFEE00C94AB260E94B30E56
:101DF00081110CC00E94680E0E94E90E0E948A1A8E
:101E00000E9449042696EEE00C94C7260E946A12AE
:101E100020E6822E22E0922E640110E0F601E1908D
:101E2000F1906F01812F0E9493111F5F153009F40B
:101E30004BC0E816F90691F38091720281FD0E9471
:101E40009C110E94B60E782E10E066246394812FB8
:101E50000E9493117C01F401A190B1904F018A1569
:101E60009B0561F1A826BF2400E0CC24C394D12CAB
:101E7000C5018C219D21892BC1F07720B1F0098308
:101E80001A830E94A11F9C838B836D8221E0C7016E
:101E90008C219D21892B09F420E049815A816B8195
:101EA0007C818D81922F0E9462040F5FCC0CDD1C1F
:101EB0000D30F1F6F4013297F182E0821F5F1530A8
:101EC00031F60E948C0E98CFE816F90609F0B4CFCF
:101ED00091CF1F93CF93DF930E949810EC01C1150F
:101EE00080E5D807F0F5C11580E4D80708F09CC05C
:101EF000C03ED10520F5CD3CD10508F082C0C83ADE
:101F0000D10578F4C53AD10508F073C0C130D105C8
:101F100019F1209709F1C430D105F0F4D0E0C0E008
:101F20001BC0C33CD105D0F7C85AD0E0CC0FDD1F91
:101F3000C357DE4F0990D881C02DD4640DC0C115A0
:101F400080E2D80708F0D1C0C11581E0D80708F0B9
:101F50005AC0C83ED10510F7CE01DF91CF911F9135
:101F60000895C03682E5D80718F5C03482E5D80751
:101F700008F06BC0C03282E5D80708F05FC0C11519
:101F800082E5D80708F497C02C2F2695269580E285
:101F9000289F900111248C2F8370C1E0D0E002C0F3
:101FA000CC0FDD1F8A95E2F7C22BD32BDD68D4CF8F
:101FB000C03A82E5D80760F4C03882E5D80708F453
:101FC00059C0CF71D0E0DC2FCC27C46FD06AC4CF0A
:101FD000C03C82E5D80708F462C0C03E82E5D8075D
:101FE00008F09CCFDC2FCC27CC27DF71C06FD06AE4
:101FF000B3CFC55AD0E0CD53DE4FC881D0E0D06416
:10200000ABCFD065A9CF8D2F0E943A11182FCE01EA
:1020100099270E949810C12FD0E0DC2FCC27CC2725
:10202000DF71C82BD92B98CFCE0199270E94981029
:10203000CC27DF70C82BD92BD06A8ECFCF71D0E0E0
:10204000DC2FCC27C16FD06A87CF2C2F2695269501
:10205000277080E2289F900111248C2F8370C1E0AB
:10206000D0E002C0CC0FDD1F8A95E2F7C22BD32B44
:10207000DC6872CF2C2F26952695277080E2289F4A
:10208000900111248C2F8370C1E0D0E002C0CC0FEE
:10209000DD1F8A95E2F7C22BD32BDA685DCF8C2F38
:1020A0008F710E943A11C82FD0E0DC2FCC27CC27AB
:1020B000DF71D06251CF8C2F8F710E943A1155E0A1
:1020C000D695C7955A95E1F7CF70D0E0DC2FCC2795
:1020D000282F30E084FF05C044E0220F331F4A95CB
:1020E000E1F7C22BD32BD06937CF8D2F8F710E9490
:1020F0003A11182FCE0199270E949810C12FD0E0D5
:10210000DC2FCC27CC27DF71C82BD92BD2CF462F81
:10211000753030F46D3020F4672F0E948D020895E1
:1021200090E080E008950E9487100E94690F089552
:1021300082389105B9F1B0F48133910509F47DC07D
:1021400048F48932910509F46DC08A32910509F489
:102150007BC008958533910509F45FC089339105EB
:1021600009F10895833E9105D9F138F4803E910537
:1021700029F1823E910579F10895863E9105D9F1C4
:10218000873E910509F43EC0843E910541F52091BA
:10219000CF0221FF24C08091CE0284FD19C087EEBA
:1021A00090E008952091CE02237009F05AC020914A
:1021B000CF0223FF14C089E290E008952091CE025F
:1021C00020FD38C03091CF0230FF09C024FF43C04A
:1021D00090E080E008952091CE0222FDF7CF08958F
:1021E0002091CE0222FD3AC03091CF0230FD39C09D
:1021F00024FFF5CFEDCF2091CE0223FFF0CF24FDB9
:10220000E7CFCDCF2091CE0223FD2EC03091CF025B
:1022100031FFEECF84EE90E008952091CE0225FFAD
:10222000DECFC9CF2091CE0225FD21C02091CF0263
:1022300023FFD5CF89E390E0D2CF2091CE0226FFB5
:10224000CECF8AE290E008952091CE0226FFC7CF3C
:1022500081E390E0089583EE90E0089582EE90E0AF
:10226000089580EE90E0089586EE90E0089585E36D
:1022700090E008959091CE0292FF10C041E0282F87
:102280002471243009F040E031E0282F28712830F3
:1022900009F030E0431711F02CE0822793FF10C0C3
:1022A00041E0282F2471243109F040E031E0282F4B
:1022B0002871283109F030E0431711F02CE0822713
:1022C0003091CF0230FF10C051E0282F2171213012
:1022D00009F050E041E0282F2871283009F040E053
:1022E000541711F029E0822731FF10C041E0282F58
:1022F0002171213109F040E031E0282F2871283187
:1023000009F030E0431711F029E0822794FD877E21
:10231000089580E0089508950E948B11089508950E
:102320000E948F110895E82FF0E0EE0FFF1FE65294
:10233000FD4F808191810895089580EA8A95F1F793
:10234000089500C008950E949D110895F894E82F03
:10235000E295EF70F0E031A1282F2F7081E090E03E
:1023600001C0880F2A95EAF7982F9095932391A39F
:1023700092A1892B82A378940895CF93DF93C6EC22
:10238000D1E089918F3F11F00E94A61181E0C33DF9
:10239000D807B9F7C3EDD1E089918F3F11F00E94C2
:1023A000A61181E0C83DD807B9F7DF91CF91089514
:1023B0008F929F92BF92CF92DF92EF92FF920F93F4
:1023C0001F93CF93DF93D82EE92EF62E8A01C62FC6
:1023D000D0E0CA53DE4F28812F3F09F453C0F89450
:1023E000E22FE295EF70F0E031A12F7081E090E0F4
:1023F00001C0880F2A95EAF7932F982B91A392A1F9
:102400008095892382A378940E94A11183ED882E60
:1024100081E0982EED2DFE2DBF01665F7F4FE12CF0
:102420006801C094D094D401BD904D0181919191E7
:10243000AF0142505109BFEFBB1681F12B2D229500
:102440002F7030E0D90190962C9130E0BB2DBF70F9
:1024500002C035952795BA95E2F720FD1FC0802B65
:10246000912BDA018D939C93EE24E394E617F70702
:10247000D1F688818F3F11F00E94A6116E2D8F2D0D
:102480000E94A311DF91CF911F910F91FF90EF90C8
:10249000DF90CF90BF909F908F9008958C219D21C9
:1024A000DA018D939C93E2CF0E94BD118AE0EAEDA0
:1024B000F2E0DF01982F1D929A95E9F7E0EDF2E046
:1024C000DF011D928A95E9F785E00E94BE120E9405
:1024D0008C110895CF92DF92FF920F931F93CF93A9
:1024E000DF93CDB7DEB72A970FB6F894DEBF0FBEE5
:1024F000CDBF8E010F5F1F4F8AE0F80111928A95C0
:10250000E9F7F12CCC24C394D12CA6016F2DC8017E
:102510000E94D811F394CC0CDD1CFDE0FF12F5CF26
:102520004AE050E0B80180ED92E00E94F22621E0FE
:10253000009709F420E0892B41F08AE0F801A0ED32
:10254000B2E001900D928A95E1F745E06AED72E004
:1025500080ED92E00E94BF12182F0E949011812FEF
:102560002A960FB6F894DEBF0FBECDBFDF91CF9194
:102570001F910F91FF90DF90CF9008950895B0E0E4
:10258000A0E0E5ECF2E10C94B1266C017B01042F94
:10259000C22F222379F081E0809375020E94A11F4F
:1025A000909374028093730280E0CDB7DEB7E8E0C9
:1025B0000C94CD26D0917502DD23B1F38091730286
:1025C000909174020E94B91F059770F310E0000FFC
:1025D000111FA801B601C7010E94F226892B31F014
:1025E000A801B601C7010E94FF26CD2F10927502E7
:1025F0008C2FDBCF0E9463210E94DC0E0E94702191
:1026000008950E9475210E94F00E0E948F21089566
:102610000E943A1F0E9449210E94A80E0E94FA12AD
:102620000E9401130E94BB0EFBCF9093D9018093AF
:10263000D8010895FB012581222341F097FF06C0B0
:102640009F77BC0190E080E00E945E1481E00895D5
:102650000F931F93CF93DF93EC018B01FB018581D7
:10266000882389F00E94B00C8272FE01E053FC477F
:10267000E830F10540F4E859F84D0C94A126882380
:1026800069F00E949013B801CE010E941A13DF91E5
:10269000CF911F910F910895882399F30E948F1372
:1026A000F2CF80E00E948113EECF81E0FBCF82E089
:1026B000F9CF83E0F7CF84E0F5CF85E0F3CF9091B9
:1026C000E502923071F48A3050F490E009966AE0A5
:1026D00070E00E948D26875A0E94A50508958650B5
:1026E000FBCF0E94201C089508950E947413089542
:1026F0008CE090E00E9408278093E5020E94751309
:102700000895CF93C82F8093E502682F8CE090E066
:102710000E9426278C2F0E947513CF91089508954B
:1027200008950E94FD1D8093E4029091E50291308E
:1027300029F481FF03C089E30E94A5050E94B00C23
:102740008093E6020E94C30C0E94D60C8091E502A1
:10275000823021F158F48823C1F08130D1F08FE329
:102760009CE90197F1F700C000000895843051F111
:102770008530A9F78BE191E00E94110385E290E09A
:102780000E94110388E290E006C082EE0E94A50438
:10279000E6CF88E193E00E941103E1CF8091E4024B
:1027A00080FD03C083E50E94A50582EE0E94A5047A
:1027B0008FE39CE90197F1F700C0000087E50E94D4
:1027C000A505CDCF86EE0E94A50588E1F8CF8091C2
:1027D000E502823011F148F4882381F0813091F0D4
:1027E0008091E6020E94C00C08958430F9F0853093
:1027F000B9F788E290E00E941103F2CF82EE0E94C6
:102800003305EECF8CE20E94A5058091E40281FFA2
:10281000E7CF89E30E94A505E3CF82EE0E9433054E
:102820008091E40280FDDCCF83E5F4CF88E2F2CF33
:102830008F929F92AF92BF92EF92FF920F931F934E
:10284000CF93DF934B015C01D091E5028CE1E82E40
:10285000F12C07E010E021E0D501C4010E2C04C0EA
:10286000B695A795979587950A94D2F7C82FCF70FC
:10287000222339F0D43051F4CA3040F080E00E9475
:102880005F138C2F0E945F1320E005C0C111F9CFA8
:1028900004301105B4F30150110984E0E81AF1087D
:1028A0000F3F1007C9F6DF91CF911F910F91FF9055
:1028B000EF90BF90AF909F908F900895CF92DF924E
:1028C000EF92FF926B017C01C114D10481E1E80613
:1028D000F104A0F5C114D10481E0E806F10420F070
:1028E0008091E502823051F10E949113C114D1040C
:1028F00081E0E806F10438F18091E502811123C0FE
:1029000081E0E81AF108C701B6012AE0969587959B
:10291000779567952A95D1F778528F4F9F4F0E94F0
:10292000181483E0D822EE24FF24C701B6017452A4
:102930008F4F9F4F0E9418140E94E713FF90EF9053
:10294000DF90CF900895C701B601F4CF80913E018A
:10295000877F80933E010E949F17811103C082E010
:102960000E94CF0C80913E0184FF06C08F7E809331
:102970003E0182E00E94B30C80913E0185FF06C0BB
:102980008F7D80933E0180E20E94B30C0E94550D22
:10299000089580E008958B32910539F040F49C0150
:1029A0002E5131092A30310558F481E008958D32D5
:1029B000910530F089339105C0F384369105A9F370
:1029C0000E94C9140895CF93DF93EC01662319F098
:1029D00082E00E94C90CCE0190528115904308F408
:1029E000DD27CE010E94CB02DF91CF9108959C019B
:1029F00030522115304308F499270E94E1020895CE
:102A0000FC0123E0F695E7952A95E1F7EE71FF27A3
:102A1000EA58FD4F20813181AC014F70552781E08C
:102A200090E002C0880F991F4A95E2F7662329F0CB
:102A3000822B932B91838083089580959095822398
:102A40009323F8CFFC0123E0F695E7952A95E1F76B
:102A5000EE71FF27EA58FD4F8F70992721E030E093
:102A600002C0220F331F8A95E2F7808191812823CB
:102A7000392381E0232B09F480E00895EF92FF923F
:102A80000F931F93CF93DF93EC017B018A01809119
:102A90003E0182FF5DC020919D0230919E022C1765
:102AA0003D0719F0209709F053C090913E019B7F9C
:102AB00090933E0161E091FD10C080919F02909142
:102AC000A002A701481B590B61E080913F01909142
:102AD00040014817590708F460E0617080913E0199
:102AE00060FB81F980933E01C9010E9400150E949C
:102AF000B00C81FF08C080913E01806180933E014F
:102B000082E00E94B90C0E94B00C85FF08C0809141
:102B10003E01806280933E0180E20E94B90C609188
:102B20003E0166956170A80180919D0290919E0280
:102B30000E94E31460913E0166956170A801809146
:102B40009D0290919E020E94F7140E94A6140FC04D
:102B5000CE010E942215A801682FCE010E94F71411
:102B600080919D0290919E02C817D90771F3F0924F
:102B7000A002E0929F02CDB7DEB7E6E00C94CF262C
:102B800080913E0182FF19C00E94A11F20919F02E7
:102B90003091A002AC01421B530B20913F013091B8
:102BA00040014217530748F046E952E0BC018091CA
:102BB0009D0290919E020E943E15089590913E01C3
:102BC000892F8E7F90FF816080933E010E94A61422
:102BD000089580913E018E7F80933E010E94A6144D
:102BE000089580913E0181700895CF92DF92EF9217
:102BF000FF921F93CF93DF93EC017B010E94A11FF3
:102C00006C01F70185818823A9F180913E0182FF43
:102C100007C046E952E0B60190E080E00E943E1510
:102C2000C431FCE7DF0719F1C5312CE7D20751F0B9
:102C3000C3318CE7D80741F480913E0181608093D5
:102C40003E0102C00E94DE15CE01905281159043D4
:102C5000F8F410929E0210929D0211E0812FDF91F4
:102C6000CF911F91FF90EF90DF90CF9008950E9439
:102C7000E915EACF80913E018F7EC13ED10531F04A
:102C8000C53ED105A1F580913E018F7D80933E0127
:102C900080913E0180FFE1CFB701CE010E94CB14AD
:102CA000F7011581882309F459C0112309F450C094
:102CB0000E94B00C182F0E94D90C812B8D7FE9F057
:102CC00010929E0210929D0260E0CE010E940015BB
:102CD000A70160E0CE010E94E3140E94D90C8D7F11
:102CE0000E94080D82E00E947A0D10E0B7CFCE015D
:102CF00090528115904360F6B0CF87E0F701A6E9C6
:102D0000B2E001900D928A95E1F71092990210922B
:102D100098020E94B00C182F0E94D90C812B909120
:102D20003E0181FB91F990933E010E94D90C8D7F69
:102D30000E94080DD0939E02C0939D02D092A002E3
:102D4000C0929F0280913E01846080933E01CACF71
:102D5000A701B601CE010E943E1580CF111179CF97
:102D60007CCF8832910548F48E319105A0F4049708
:102D700050F082E00E94C90C0EC08D329105C9F35B
:102D800020F48A9741F080E008958C34910519F081
:102D90008D329240C1F781E00895B0E0A0E0E3ED0C
:102DA000F6E10C94B226EC017B0183379C4769F471
:102DB000FB011581112319F00E94D21710E0812F19
:102DC000CDB7DEB7E7E00C94CE260E94B00C082FFA
:102DD0000E94D90CD82E0E949F1781112EC0F70196
:102DE0001581111102C011E0EACFC13ED10519F0E1
:102DF000C23AD245F9F48091A302882371F0F70119
:102E0000828193812091A1023091A202821B930BB7
:102E10008F3F9F4710F00E94A31781E08093A30289
:102E2000F7018281938181559F4F9093A2028093F5
:102E3000A102C5CF1092A302C2CF0E949617F7013C
:102E40001581112381F20D290D7909F05EC0C0347E
:102E5000F2E5DF0770F5C11522E5D20708F0AFCF24
:102E6000C11580E4D807D0F4C115E0E2DE0708F010
:102E70003EC0C63ED10509F4A2CF0E94F1158111D2
:102E800053C08FEF0E94CF0CCE010E94B116C82F05
:102E90008823D9F10E94550D1C2F91CFC115F0E563
:102EA000DF0758F7F7018681807F09F49CCFDD2783
:102EB000E4CFC03E22E5D207A0F4C03C82E5D807AB
:102EC00008F07DCFC036E2E5DE07B8F2C03AF2E5A1
:102ED000DF0708F474CFC43B22E5D20709F46FCFB3
:102EE000CCCFCE0187579C47029738F668CFF701C1
:102EF0008681807FE1F68D2F8F71823191F040F4D1
:102F0000C1EED0E0823009F4B8CF0E94B31757CF9A
:102F1000843109F454CFC6EED2E1863109F4ADCF45
:102F2000F4CFC5EED0E0A9CF8DEFACCF0E94A11FAA
:102F300088579C4E9093A5028093A4020895809197
:102F4000A602089508958091A60281110BC00E94E7
:102F5000C30C0E94150D0E94961781E08093A60273
:102F60000E94A21708958091A602882341F082E270
:102F70000E94F5071092A60280E00E94A217089511
:102F80008091A602882369F00E94A11F2091A402CB
:102F90003091A502821B930B8F3F9F4710F40E9434
:102FA000B31708958091A602882319F00E94B317E1
:102FB00008950E94A3170895CF93DF93EB01863104
:102FC0009C4711F50E94B00C9D81992399F08A7A53
:102FD00091E009F490E09093A702811109C089E281
:102FE0000E94B31E0E94550D80E0DF91CF9108959D
:102FF00085E3F6CF8091A702811104C089E20E9487
:10300000BB1EF0CF85E3FBCF81E0EFCFCF93DF9303
:10301000EC01FB018581882309F4D2C09E01305761
:103020002332310508F0B2C00E94D40D9093CF0234
:103030008093CE02FE01E150F047E232F10520F428
:10304000E059F84D0C94A1268091CE0281608093C6
:10305000CE0293C08091CF0288608093CF028DC052
:103060008091CE028260F3CF8091CE028460EFCF58
:103070008091CE028860EBCF8091CF028160EDCF4E
:103080008091CF028260E9CF8091CE028061DFCF54
:103090008091CE028062DBCF8091CE028064D7CF58
:1030A0000E9412088091CE028068D1CF8091CE021A
:1030B0008C60CDCF8091CF028360CFCF8091CE0244
:1030C0008E7FC5CF8091CF02877FC7CF8091CE0200
:1030D0008D7FBDCF8091CE028B7FB9CF8091CE0204
:1030E000877FB5CF8091CF028E7FB7CF8091CF02FF
:1030F0008D7FB3CF8091CE028F7EA9CF8091CE02FB
:103100008F7DA5CF8091CE028F7BA1CF0E94120828
:103110008091CE028F779BCF8091CE02837F97CF15
:103120008091CF028C7F99CF8091CE0282FB99272C
:1031300090F921E0922790FB82F990FB83F987CFE9
:103140008091CF02982F909591708E7F892B90FB64
:1031500081F983CF9091CE02892F8F7B96FF806477
:1031600076CF0E9412089091CE02892F97FB87F9A3
:1031700080586DCF81E00E94620E8091CE029091C6
:10318000CF020E94D90D0E94120880E0DF91CF91FA
:10319000089580E0F0CF9091CE02892F8F7E94FF2A
:1031A000806155CF9091CE02892F8E7F90FF8160F4
:1031B0004ECF9091CF02892F877F93FF88604DCFAC
:1031C00081E0E4CF282F35EB2303C001112497FFC2
:1031D00004C080589109892F089580589F4FFBCFD4
:1031E0008091AE0280FF0DC06091460170E0660FD5
:1031F000771F6038710570F56115710569F1862FCB
:10320000089581FF07C06091460184E0689FB00186
:103210001124EFCF6091460182FD0AC08091AD027A
:103220008823A9F02091450160914601821710F092
:1032300088E0ECCF869FC001112433E0880F991FEE
:103240003A95E1F7622F70E00E948D26D2CF68E0B8
:1032500070E0D5CF8FE7089581E008958091AE02A8
:1032600080FF0CC06091420170E07595679575957F
:1032700067956115710549F1862F089581FF06C094
:103280006091420170E075956795F3CF60914201BE
:1032900082FD0BC09091AC029923A1F06091410195
:1032A00080914201961738F0682F70E06038710500
:1032B00000F38FE70895899FC001112470E00E94F8
:1032C0008D26F4CF61E070E0D7CF81E00895909132
:1032D000B1022091B202922B2091B402922B209144
:1032E000B302922B31F098E09093AD0291E090936D
:1032F000AC028D3C31F40E94F01881958093B202AB
:1033000008958E3C19F40E94F018F8CF8F3C31F4E8
:103310000E94F01881958093B1020895803D19F4C0
:103320000E94F018F8CF893D29F40E942E1980934D
:10333000B30208958A3D21F40E942E198195F7CF9A
:103340008B3D31F40E942E1981958093B40208952B
:103350008C3D19F40E942E19F8CF9FE2980F9830F7
:1033600070F4815D990B21E030E001C0220F8A9555
:10337000EAF78091B002822B8093B00208958D3DD0
:1033800031F48091AE0281608093AE0208958E3D4B
:1033900021F48091AE028260F7CF8F3DB9F7809122
:1033A000AE028460F1CF4091B1028D3C59F480911E
:1033B000B20287FF0DC01092B20241110BC01092F1
:1033C000AD0208C08E3C81F48091B20218169CF3C5
:1033D000442381F08091B3029091B402892B09F0CB
:1033E0005AC01092AC0208958F3C49F447FFF0CFC9
:1033F0001092B1028091B2028111ECCFE0CF803DFA
:1034000019F41416ACF3E4CF9091B302893D29F47A
:103410001916F4F61092B302DBCF8A3D19F497FF28
:10342000D7CFF8CF9091B4028B3D29F497FFD0CF3E
:103430001092B402CDCF8C3D19F41916CCF3C8CF3D
:103440009FE2980F983090F4815D990B21E030E075
:10345000B90102C0660F771F8A95E2F7CB0180950C
:103460009091B00289238093B002B2CF8D3D31F4A8
:103470008091AE028E7F8093AE02AACF8E3D21F462
:103480008091AE028D7FF7CF8F3D09F0A1CF809163
:10349000AE028B7FF0CF08950E94A11F9C019091F6
:1034A000B1028091B202982B21F03093AB022093AD
:1034B000AA029091B3028091B402982B21F030932C
:1034C000A9022093A8028FEA92E00E940B1E0895A1
:1034D00086E0EFEAF2E0DF011D928A95E9F71092AB
:1034E000AD021092AC021092AE020895FC018281EE
:1034F00081110EC0838181110BC08481811108C0AC
:1035000091E08581811101C090E0892F817008953B
:1035100081E0FCCFA6E0B0E0E0E9FAE10C94B62649
:1035200086E0EFEAF2E0DE01119601900D928A95B5
:10353000E1F71092B1021092B2021092B30210920F
:10354000B4028B819C81892B89F08091AA02909191
:10355000AB020E94B91FAC019091AD029923C9F151
:10356000809147018417150608F440C08D819E8123
:10357000892B91F08091A8029091A9020E94B91F15
:10358000AC019091AC02992309F46AC08091430187
:103590008417150608F472C0BE016F5F7F4F8FEA73
:1035A00092E00E94CE1E811105C08FEA92E00E9437
:1035B000761A81110E944C1A86E0FE013196AFEA1C
:1035C000B2E001900D928A95E1F72696E3E00C9423
:1035D000D226209148018AE0289F900111242417C7
:1035E000350720F69F5F9093AD0202C09F3FD1F751
:1035F0001B81112359F00E94F0189FEF11160CF453
:1036000091E0899F802D11248093B1021C811123A8
:1036100059F00E94F0189FEF11160CF491E0899F69
:10362000802D11248093B2028091B102882309F485
:103630009DCF1091B202112309F498CF0E94E21895
:10364000882351F08093B102812F0E94E2188823D1
:1036500029F08093B2028ACF81E0F4CF81E0F9CFE4
:10366000209144018AE0289F9001112424173507F6
:1036700008F092CF9F5F9093AC0202C09F3FD1F7BA
:103680001D81112359F00E942E199FEF11160CF481
:1036900091E0899F802D11248093B3021E81112314
:1036A00059F00E942E199FEF11160CF491E0899F9A
:1036B000802D11248093B4028091B302882309F4F1
:1036C0006BCF1091B402112309F466CF0E94E21867
:1036D000882351F08093B302812F0E94E21888233F
:1036E00029F08093B40258CF81E0F4CF81E0F9CF84
:1036F000B0E0A0E0EEE7FBE10C94B026E82FF0E0AC
:10370000EC54FD4FB490282F26952695269530E051
:10371000F901EC5AFC4F0491877010E0082E02C0AA
:10372000159507950A94E2F701701127F901EC5BF2
:10373000FC4FE490F12C082E02C0F594E7940A9413
:10374000E2F791E0E922FF24F901EC5CFC4FC4911F
:10375000D0E002C0D595C7958A95E2F7C170DD2704
:10376000C62ED12C0115110549F5E114F10431F0F3
:1037700086EE0E94A504C601009771F5B6018B2D57
:103780000E948D05C601009779F5E114F104A1F5B9
:103790000115110531F081EE0E943305C601009735
:1037A000C9F5CD2B31F08CE20E94A505C114D104DE
:1037B000C9F5CDB7DEB7E9E00C94CC2681EE0E94C6
:1037C000A504C601009789F2EFE9FFE03197F1F710
:1037D00000C000000197F6CFEFE9FFE03197F1F765
:1037E00000C000000197C8CFEFE9FFE03197F1F783
:1037F00000C000000197C7CF86EE0E943305C601C6
:10380000009731F2EFE9FFE03197F1F700C00000D7
:103810000197F6CFEFE9FFE03197F1F700C0000024
:103820000197BDCF8FE99FE00197F1F700C000003D
:1038300091E0C91AD108BACF60E00E94781B0895C0
:10384000982F9F709A50963020F0805D0E941C1C2B
:103850000895895AFBCF0F931F93CF93DF93C42F03
:10386000D22FFC0185818823C9F04093B7020E94C2
:10387000A11F9093B6028093B50280E28C0F88302E
:1038800040F4C77081E001C0880FCA95EAF70E9432
:10389000AE05DF91CF911F910F9108951091B7025E
:1038A000141332C08091B5029091B6020E94B91FE4
:1038B0008F3A910548F5C0E2CD0F1D17B9F080E2AF
:1038C000810F883040F4177081E001C0880F1A958D
:1038D000EAF70E94B505C83048F481E09D2F977043
:1038E00001C0880F9A95EAF70E94AE05802F0E94CA
:1038F000A505C83070F6D77081E001C0880FDA9551
:10390000EAF70E94B505C5CF80E28C0F883008F633
:10391000C77081E001C0880FCA95EAF7F2CF0F9314
:10392000DB0188519C4787309105A0F5FC01EE56DC
:10393000F84D0C94A12606E221EE41EE6AE17CE707
:10394000CD010E942B1C80E00F91089507E225EE27
:1039500045EE6BE17CE7F4CF06E221EE40EE68E154
:103960007CE7EECF07E225EE44EE69E17CE7E8CFA5
:1039700006E221EE42EE6CE17CE7E2CF07E225EEC3
:1039800046EE6DE17CE7DCCF08E221E045EE6EE13A
:103990007CE7D6CF15968C91882319F01092B70248
:1039A000D3CF81E0D1CF4115510511F0FA0109952E
:1039B0000895CF93DF93EC014A855B856E857F8503
:1039C0000E94D31C8B810E94CF0C8C810E94B90C69
:1039D0000E94550D86E0FE0111928A95E9F7DF916C
:1039E000CF910895CF93DF93EC018D8181FD11C0BC
:1039F00082608D838B810E94C90C8C810E94B30CE4
:103A00000E94550D488559856E857F85CE010E949F
:103A1000D31C1092BB021092BA028D8180FD03C0AC
:103A2000CE010E94D91CDF91CF910895CF93DF93EF
:103A3000EC018A81823041F4FB01828193810E94F2
:103A4000CB028D8182608D83DF91CF910895FB0140
:103A5000808191810E94CB020895FC018281813096
:103A600031F4FB01808191810E94E102089582304E
:103A7000E9F7FB0182819381F7CFCF93FB01C581E9
:103A8000CC23F1F0E091BA02F091BB023097D9F06B
:103A9000E817F907C1F0FF2724E0EE0FFF1F2A9572
:103AA000E1F7DF01AB5FBE4F2C9124602C93E05017
:103AB000FF4F91838083CF010E94F21C0E94D60C9D
:103AC0008C2FCF910895C0E0FBCF0F931F93CF931E
:103AD000DF938C0197558F3F910509F0C8F5C80118
:103AE000992724E0880F991F2A95E1F7EC01C0502F
:103AF000DF4FFB012581FC01EB5FFE4F808120FB46
:103B000080F98083222351F10E94A11F9093B90272
:103B10008093B8028A818F5F8A830E94B00C8B8366
:103B20000E94C60C9B81892B8B830E94D90C8C83AD
:103B30004E815F816E857F85CE010E94D31C8D8171
:103B400081FF02C010E000E01093BB020093BA02B4
:103B500081E0DF91CF911F910F9108954C855D8594
:103B60006E857F85CE010E94D31C8D8181FFF0CFB1
:103B7000CE010E94D91C8091BA029091BB0280179D
:103B8000910731F71092BB021092BA02E1CF8091F7
:103B9000BA029091BB02892BE9F08091B802909112
:103BA000B9020E94B91F803B9105A0F08091BA0232
:103BB0009091BB02992724E0880F991F2A95E1F77D
:103BC000FC01EB5FFE4F208122FD04C080509F4F1F
:103BD0000E94F21C08959093C1028093C002089540
:103BE000E091C002F091C102309729F00190F0817C
:103BF000E02D0995089580E008950E94F01D089534
:103C0000E091C002F091C102309721F00280F3816F
:103C1000E02D09950895E091C002F091C10230971E
:103C200039F022E0DC012C930680F781E02D099524
:103C30000895A3E0B0E0EFE1FEE10C94B7262091F7
:103C4000BE023091BF0228173907A1F09093BF023E
:103C50008093BE02E091C002F091C102309751F012
:103C600023E029839B838A830084F185E02DCE01A4
:103C7000019609952396E2E00C94D326A3E0B0E0E8
:103C8000E4E4FEE10C94B7262091BC023091BD0221
:103C900028173907A1F09093BD028093BC02E091F0
:103CA000C002F091C102309751F024E029839B8338
:103CB0008A830084F185E02DCE0101960995239633
:103CC000E2E00C94D32640913C0150913D019A01D1
:103CD0002E5F3F4F485F5F4F80E02417350709F4A0
:103CE0000895F90191919F019923B9F38F5FF5CF61
:103CF000882371F020913C0130913D01F901329609
:103D0000285F3F4F9191981729F0E217F307D1F7F9
:103D100080E0089581E008959C01FC0132969FEFB8
:103D200080E04191461751F09F3F19F4411101C0C5
:103D3000982F8F5F8630A9F79F3F09F40895290FC8
:103D4000311D97FD3A95F90162830895FC01329681
:103D500008962191261303C0DF0111971C92E817E2
:103D6000F907B9F70895682F80913C0190913D01C2
:103D70000E948C1E0895682F80913C0190913D0116
:103D80000E94A61E0895E0913C01F0913D013296FB
:103D900086E0DF011D928A95E9F70895DC01FB01B9
:103DA00011969C9111978181981322C012968C9143
:103DB0001297882319F0928189131AC013968C9157
:103DC0001397882319F09381891312C015968C914B
:103DD0001597882319F0958189130AC014969C9130
:103DE000992321F081E02481291303C080E001C0E0
:103DF00081E08170089508950E94FB1E089581114D
:103E000006C081E08093C2020E94FC1E089582E0F9
:103E1000F9CF83E08093C2020E94FC1E08950E94A5
:103E2000FF1E089581E08093C2020E94FC1E089547
:103E30000E94121F0895089508950E941C1F08955E
:103E4000089508950E941B1F0895CF930E94201F7C
:103E50000E946A120E94211FC0E08C2F0E949311C1
:103E6000892B31F4CF5FC530C1F780E0CF91089541
:103E700081E0FCCF85B7806885BF85B7806885BF46
:103E800008951F921FB61F9211248F939F93AF9393
:103E9000BF938091C302811113C08091E70290917A
:103EA000E802A091E902B091EA024196A11DB11D7C
:103EB0008093E7029093E802A093E902B093EA02AC
:103EC000BF91AF919F918F911F901FBE1F9018952A
:103ED0008091EF02843031F10E9419041092C302E4
:103EE00088E190E020E40FB6F894A89580936000F4
:103EF0000FBE2093600083B7817F846083BF83B748
:103F0000816083BF7894889583B78E7F83BF0FB617
:103F1000F894A89580916000886180936000109269
:103F200060000FBE08950E9412080E941E040895AA
:103F300082E084BD93E095BD9AEF97BD80936E00BB
:103F400008952FB7F8948091E7029091E802A0912C
:103F5000E902B091EA022FBF08952FB7F89460915B
:103F6000E7027091E8028091E9029091EA022FBF86
:103F700008959C014FB7F8948091E7029091E80270
:103F8000A091E902B091EA024FBF821B930B089502
:103F900078941F921FB61F9211248F939F93AF9313
:103FA000BF938091E7029091E802A091E902B0915D
:103FB000EA020196A11DB11D8093E7029093E802E9
:103FC000A093E902B093EA02BF91AF919F918F91C4
:103FD0001F901FBE1F90189587E797E790930108E1
:103FE0008093000888E19AE00FB6F894A895809332
:103FF00060000FBE90936000FFCF88E19AE00FB69B
:10400000F894A895809360000FBE90936000FFCF56
:104010008091CC02089508959B01BA019091EF021E
:104020009430E9F48F708093E9009FEF8091E8006D
:10403000915085FD06C085ED8A95F1F7000091113C
:10404000F5CF8091E80085FF0AC050E040E0C9014B
:104050000E9406228091E8008E778093E800089500
:1040600043E050E0BC0182E00E940C20089546E04D
:1040700050E0BC0182E00E940C200895CF93DF93B2
:10408000EC0148E050E0BC0181E00E940C2088E097
:10409000FE01A4ECB2E001900D928A95E1F7DF9168
:1040A000CF9108958091EE02811109C00E9496235C
:1040B0000E94F3238091E20084608093E2000895DF
:1040C0001092EE0208950E94121F08956091EB0273
:1040D00081E0611101C080E00E94091F0895909164
:1040E000EF0281E0943009F080E06091EB020E94E1
:1040F0000F1F089542E061EC81E00E94122342E22A
:1041000061EC82E00E9412239091EF0281E09430F2
:1041100009F080E06091EB020E94FF1E08958091FB
:10412000F102833009F461C030F48130D1F1823082
:1041300009F49EC008958A3009F48AC08B3009F4CE
:104140006FC0893009F050C08091F002813209F0CF
:104150004BC08091F4029091F502029708F044C0A0
:104160008091E800877F8093E8008091E80082FFDB
:1041700037C09091F3008091F200029731F4809162
:10418000F100813011F0863021F48091F1008093AC
:10419000CC028091E8008B778093E8000E94462350
:1041A00023C08091F002813AF9F48091E800877F82
:1041B0008093E8008091F4029091F502892B61F4DC
:1041C00068E084EC92E070E00E9455228091E80063
:1041D0008B778093E800089560E090E080E0F3CF73
:1041E0008091EF028111C1CF08958091F002813A50
:1041F000D9F78091F4029091F502892BA9F780916B
:10420000E800877F8093E8008091E80080FFFCCF82
:10421000809153018093F1008091E8008E77BCCFAC
:104220008091F002813201F78091F4029091F502C1
:10423000892BD1F68091E800877F8093E8000E9467
:1042400046238091F202809353010E941208089540
:104250008091F002813241F68091E800877F80935F
:10426000E8000E9446238091F3028093CD020895D6
:104270008091F002813A09F0B7CF8091E800877F02
:104280008093E8008091E80080FFFCCF8091CD0210
:10429000C1CF84B7877F84BF0FB6F894A89580916B
:1042A0006000886180936000109260000FBE80E81B
:1042B00090E00FB6F89480936100909361000FBE78
:1042C0000E94181F08950E9496230E94F323E2EE95
:1042D000F0E080818460808378940E947226089543
:1042E00089E491E00E94EB1D08958091EF028530F2
:1042F00031F48091EF02853019F00E94931F0895E8
:104300000E94681F8091ED02882399F30E94251F67
:10431000882379F30E94F0210E941208EACF0895C1
:104320009A014091F6025091F7020E949821089557
:10433000492F55274330510519F168F44130510593
:1043400009F444C04230510509F445C090E080E0D2
:1043500050E040E025C04132510549F1423251055B
:10436000A9F784E490E044E554E061157105C1F0DB
:104370008BE790E049ED53E06130710589F0E6CFBD
:1043800099278130910581F0009729F00297F1F685
:10439000E4E6F3E002C0E8E8F3E0849190E0AF01E6
:1043A000F901518340830895E8E7F3E0F6CF89E00F
:1043B00090E04EE953E06115710591F389E090E0DA
:1043C00047EB53E06130710559F3C0CF82E190E0D3
:1043D00047EC53E0E5CF8BE390E04CE853E0E0CFCF
:1043E00080E189BD82E189BD09B400FEFDCF8091E5
:1043F000D8008F7D8093D8008091E0008260809308
:10440000E0008091E00081FDFCCF0895AF92BF9263
:10441000CF92DF92FF920F931F93CF93DF936C01A4
:10442000EB018A010E946523F82E811123C001153A
:10443000110539F0F80180819181C81BD90BC80E94
:10444000D91EB12CA12C2097A9F08091E80085FD00
:1044500022C08091E8008E778093E8000115110555
:10446000A1F0F80180819181A80EB91EB182A082CD
:1044700085E0F82E8F2DDF91CF911F910F91FF9046
:10448000DF90CF90BF90AF9008950E94652388235E
:10449000D1F2F82EEFCFF60181916F018093F100F8
:1044A0002197FFEFAF1ABF0ACECFFC018091F60231
:1044B0009091F70286179707A0F06115710529F40E
:1044C0009091E8009E779093E80090E06115710567
:1044D00051F4911108C08091E80082FF34C080E05F
:1044E0000895BC01F2CF8091EF028823C1F185309D
:1044F000C1F18091E80083FD30C08091E80082FD29
:10450000EACF8091E80080FFE1CF8091F300209115
:10451000F200382F6115710519F02830310558F077
:1045200091E02830310509F090E02091E8002E77E5
:104530002093E800CBCF81918093F1006150710905
:104540002F5F3F4FE7CF8091EF02882341F0853006
:1045500041F08091E80083FFBECF81E0089582E0C2
:10456000089583E00895FC018091F6029091F7028E
:1045700086179707A0F06115710529F48091E8006E
:104580008E778093E80090E06115710551F49111E8
:1045900008C08091E80082FF35C080E00895BC012A
:1045A000F2CF8091EF028823C9F18530C9F1809163
:1045B000E80083FD31C08091E80082FDEACF809160
:1045C000E80080FFE1CF8091F3002091F200382FC6
:1045D0006115710519F02830310558F091E0283047
:1045E000310509F090E08091E8008E778093E80033
:1045F000CBCF84918093F1003196615071092F5F88
:104600003F4FE6CF8091EF02882341F0853041F0A3
:104610008091E80083FFBDCF81E0089582E0089596
:1046200083E00895982F973028F08F708093E900E9
:1046300081E008959093E900242F762F50E0981799
:1046400031F07091EC002091ED005091F00021FDCF
:1046500002C09F5FE8CF3091EB003E7F3093EB00CC
:104660003091ED003D7F3093ED003091EB003160F3
:104670003093EB007093EC002093ED005093F0002A
:104680002091EE0027FDE5CF80E008958091F002B3
:1046900087FF13C08091E80082FF06C08091E80088
:1046A0008B778093E80004C08091EF028111F2CFF4
:1046B00008958091EF028823D9F38091E80080FF6C
:1046C000F8CF8091E8008E77ECCF2091E400309114
:1046D000E50095E6A9012091EC00822F817020FF72
:1046E00006C08091E80080FF06C080E00895209118
:1046F000E80022FD1AC08091EF02882389F08530FE
:1047000089F08091EB0085FD0FC02091E40030918D
:10471000E50042175307F9F29150E1F684E008955D
:1047200082E0089583E0089581E008950E940524C1
:104730000E940D24E0EEF0E0808181608083E8ED4E
:10474000F0E080818F77808319BCA7EDB0E08C9179
:104750008E7F8C9380818F7E80831092EE020895ED
:104760000F931F93CF93DF930E9405240E940D2483
:10477000C8EDD0E088818F778883888180688883BE
:1047800088818F7D888319BC1092EF021092EB0212
:104790001092ED021092EC0200EE10E0F801808120
:1047A0008B7F808388818160888342E060E080E045
:1047B0000E941223E1EEF0E080818E7F8083E2EEA2
:1047C000F0E0808181608083808188608083F8014F
:1047D00080818E7F8083888180618883DF91CF9103
:1047E0001F910F910895E8EDF0E080818F7E808326
:1047F000E7EDF0E080818160808384E082BF81E02A
:104800008093EE020E94B0230895E8EDF0E08081ED
:104810008E7F80831092E20008951092DA00109249
:10482000E10008951F920F920FB60F9211242F935B
:104830003F934F935F936F937F938F939F93AF9328
:10484000BF93EF93FF938091E10082FF0BC08091B3
:10485000E20082FF07C08091E1008B7F8093E1003E
:104860000E9471268091DA0080FF19C08091D800E3
:1048700080FF15C08091DA008E7F8093DA008091EE
:10488000D90080FF96C080E189BD82E189BD09B46D
:1048900000FEFDCF81E08093EF020E9452208091C4
:1048A000E10080FF19C08091E20080FF15C0809177
:1048B000E2008E7F8093E2008091E200806180932D
:1048C000E2008091D80080628093D80019BC85E016
:1048D0008093EF020E9466208091E10084FF2BC04C
:1048E0008091E20084FF27C080E189BD82E189BD1B
:1048F00089B5982F917080FFFBCF8091D8008F7D74
:104900008093D8008091E1008F7E8093E1008091B8
:10491000E2008F7E8093E2008091E20081608093CC
:10492000E2008091EB02882309F449C084E080937F
:10493000EF020E946F208091E10083FF29C08091E7
:10494000E20083FF25C08091E100877F8093E10032
:1049500082E08093EF021092EB028091E1008E7F63
:104960008093E1008091E2008E7F8093E20080914D
:10497000E20080618093E20042E060E080E00E941B
:1049800012238091F00088608093F0000E946320E1
:10499000FF91EF91BF91AF919F918F917F916F9117
:1049A0005F914F913F912F910F900FBE0F901F90ED
:1049B000189519BC1092EF020E94602070CF809170
:1049C000E30087FD93E09093EF02B3CF1F920F9225
:1049D0000FB60F9211242F933F934F935F936F93D2
:1049E0007F938F939F93AF93BF93CF93DF93EF9377
:1049F000FF93D091E900DF708091EC00C82FC17067
:104A000080FDC0E81092E9008091F000877F8093DC
:104A1000F00078940E942A251092E9008091F0001D
:104A200088608093F000CD2BCF70C093E900FF9198
:104A3000EF91DF91CF91BF91AF919F918F917F9136
:104A40006F915F914F913F912F910F900FBE0F90FB
:104A50001F901895AAE2B0E0E0E3F5E20C94B626C8
:104A600080EF92E02091F100FC012193CF01F2E070
:104A7000883F9F07B9F70E948F208091E80083FF4D
:104A80001EC18091F0029091F1029A3008F017C196
:104A9000E92FF0E0E756F84D0C94A126803899F004
:104AA000823809F00CC18091F4028F70873008F0D1
:104AB00006C18093E9008091EB0085FB882780F98F
:104AC0001092E90006C08091EC029091ED029111E4
:104AD00082609091E800977F9093E8008093F100C6
:104AE0001092F1008091E8008E77E5C0882309F4E8
:104AF000D3C0823009F0E3C08091F2028111D6C0A8
:104B00008091F4028F702FEF280F263008F0D7C065
:104B10008093E9002091EB0020FFC8C0933031F46E
:104B20008091EB0080628093EB00C0C09091EB001D
:104B300090619093EB0021E030E001C0220F8A9554
:104B4000EAF72093EA001092EA008091EB00886077
:104B5000EACF8111B4C01091F2021F778091E30077
:104B60008078812B8093E3008091E800877F809399
:104B7000E8000E9446238091E80080FFFCCF8091EE
:104B8000E30080688093E30082E0111183E080936A
:104B9000EF0295C08058823008F091C08091F202F7
:104BA0009091F3028C3D23E09207A1F583E08A8384
:104BB0008AE289834FB7F894DE01139620E03EE045
:104BC00051E2E32FF0E050935700E49120FF03C03F
:104BD000E295EF703F5FEF708E2F90E0EA30C0F00B
:104BE000C7968D939D932F5F243159F74FBF8091C6
:104BF000E800877F8093E8006AE270E0CE010196CA
:104C00000E9455228091E8008B778093E80057C07E
:104C1000C096E7CF6091F4027091F502AE014F5F4C
:104C20005F4F0E949021BC01892B09F448C09091EC
:104C3000E800977F9093E80089819A810E94B322CF
:104C4000E1CF8038E1F58091E800877F8093E8002C
:104C50008091EB028093F10045CF811130C090919B
:104C6000F202923060F58091E800877F8093E8003F
:104C70009093EB020E9446238091EB02882311F06F
:104C800084E005C08091E30087FDFACF81E0809346
:104C9000EF020E947A2013C08091F202813079F4F1
:104CA00081E0933009F080E08093ED021092E900FA
:104CB0008091E800877F8093E8000E9446238091DE
:104CC000E80083FF0AC08091E800877F8093E800B6
:104CD0008091EB0080628093EB00AA96E3E00C9455
:104CE000D2260895CF938091EF028823A1F0C0913E
:104CF000E900CF709091EC00892F817090FD80E8E1
:104D0000C82B1092E9008091E80083FD0E942A25BB
:104D1000CF70C093E900CF91089597FB072E16F44A
:104D2000009407D077FD09D00E94DE2607FC05D04D
:104D30003EF4909581959F4F0895709561957F4FB2
:104D40000895EE0FFF1F0590F491E02D09942F9226
:104D50003F924F925F926F927F928F929F92AF920B
:104D6000BF92CF92DF92EF92FF920F931F93CF9358
:104D7000DF93CDB7DEB7CA1BDB0B0FB6F894DEBFEF
:104D80000FBECDBF09942A88398848885F846E8415
:104D90007D848C849B84AA84B984C884DF80EE805F
:104DA000FD800C811B81AA81B981CE0FD11D0FB668
:104DB000F894DEBF0FBECDBFED010895AA1BBB1B4B
:104DC00051E107C0AA1FBB1FA617B70710F0A61B0B
:104DD000B70B881F991F5A95A9F780959095BC012C
:104DE000CD010895FB01DC0104C08D910190801973
:104DF00021F441505040C8F7881B990B0895FB01DE
:104E0000DC0102C001900D9241505040D8F7089546
:104E1000F999FECF92BD81BDF89A992780B5089582
:104E2000A8E1B0E042E050E00C944C27DC01A40F74
:104E3000B51F4150504048F0CB01840F951F2E9173
:104E40000E94272741505040D0F70895262FF99906
:104E5000FECF92BD81BDF89A019700B4021639F0D9
:104E60001FBA20BD0FB6F894FA9AF99A0FBE0895AA
:104E70000396272F0E9427270E942627252F0E946E
:104E80002727242F0C9427270196272F0E942727B6
:104E90000C942627DC01CB01FC01F999FECF06C05A
:104EA000F2BDE1BDF89A319600B40D9241505040E8
:104EB000B8F70895F894FFCFFD05FD054D064D06A2
:104EC000B206CE062C062C06D3064407530753071A
:104ED0003F134C1351135513571359135B135D13A1
:104EE0005E18D2186618301834186A1838186E18F8
:104EF0007A184418CB1848187E184C188218AA182B
:104F000050188618B11856188C1894183C18721836
:104F1000401876185A189018A018BA18C9182A18E4
:104F20006218D918AC1CB21C9B1CA61CB81CBE1C59
:104F3000C41C4E2576255F2676255F26A925CA2521
:064F40005F2621262D264C
:104F4600000000000000161D271D2D1D0000380161
:104F5600000000000000161D271D2D1D0000340155
:104F6600000000000000161D271D2D1D0000300149
:104F760019001908060006081B001B0854020196B2
:104F860000280850011E0A140108203E200B203775
:104F960020302001E200E900EA00B500B600B700C3
:104FA600CD008301CC008A019201940121022302E3
:104FB60024022502260227022A02B300B4006F004B
:104FC60070009F01CB019F02A002818283E200E96B
:104FD60000EA00B500B600B700CD008301CC008A18
:104FE60001920194012102230224022502260227AE
:104FF600022A02B300B4006F0070009F01CB019F2C
:1050060002A002818283F4F5F6F731333236353465
:08501600C697669293919094F5
:00000001FF
