:100000000C94BA020C94782F0C94F2020C94F20225
:100010000C94F2020C94F2020C94F2020C94F20290
:100020000C94F2020C94F2020C945C290C941829A2
:100030000C94592A0C94F2020C94F2020C94F202E1
:100040000C94F2020C94F2020C94F2020C94F20260
:100050000C94F2020C94352A0C94F2020C94F202E5
:100060000C94F2020C94F2020C94F2020C94F20240
:100070000C94F2020C94F2020C94F2020C94F20230
:100080000C94F2020C94F2020C94F2020C94F20220
:100090000C94F2020C94F2020C94F2020C94F20210
:1000A0000C94F2020C94F2020C94F2020000000094
:1000B0000000000000000000000000000000000040
:1000C0000000000000000000000000000000000030
:1000D0007E0F00D4FFFFFFC7000000780000000083
:1000E000000000002A2B2800000000000000000093
:1000F0000000000000000029000000002C1E342039
:10010000212224342627252E362D3738271E1F205E
:100110002122232425263333362E37381F040506A3
:100120000708090A0B0C0D0E0F10111213141516E7
:100130001718191A1B1C1D2F3130232D35040506E5
:100140000708090A0B0C0D0E0F10111213141516C7
:100150001718191A1B1C1D2F3130354C167C1E0028
:100160001F002000210022002B0014001A000800AC
:1001700015001700292104001600070009000A00D5
:10018000E1001D001B000600190005000000000032
:10019000E3002152280050082A00270026002500ED
:1001A000240023004C00130012000C0018001C0057
:1001B000340033000F000E000D000B001E7C3800D1
:1001C000370036001000110000000000E600225247
:1001D0002C004F0835021E021F02200221022202BB
:1001E0002A004C002F0A300A2F083008E100E000F6
:1001F000E200E30052004B0050084F084E00500050
:1002000051004F0000000000010001004C002602D8
:100210002A0027022602250224022302300026009B
:10022000250024002F003501330023002200210087
:100230002E00AF52350020001F001E0031000100CB
:10024000000000002700417E4C00270235001E0000
:100250001F002000210022002F0224022502260276
:100260003002010033022102220223022E02010089
:1002700035021E021F0220023102010000000000B0
:100280002702417E010026022A00270026002500C1
:10029000240023002A004C0030082F08300A2F0ABF
:1002A000E100E000E200E300CD00D100DA00D90077
:1002B000D200D000CE00CF000000000001000100FD
:1002C0000100270244003A003B003C003D003E0094
:1002D0002078217827782578237829783A003B0000
:1002E0003C003D003E003F00400041004200430012
:1002F0004400450000000000010001000100010071
:10030000450043004200410040003F00007C0100E6
:100310000100010001000100E100E000E200E30053
:1003200001000100AE00A900AA00AB00AC00010072
:1003300000000000010001000100010000010101B6
:100340000101010101010202020202020202020392
:100350000303030303030304040404040404050562
:100360000505050606060606070707070708080825
:1003700008090909090A0A0A0B0B0B0C0C0C0D0DD4
:100380000D0E0E0E0F0F0F1010111111121213136C
:100390001414151516161717181819191A1A1B1BE5
:1003A0001C1D1D1E1E1F2020212222232424252641
:1003B00026272829292A2B2C2D2D2E2F3031323279
:1003C000333435363738393A3B3C3D3E3F40414285
:1003D000434445464748494A4C4D4E4F505153546B
:1003E000555658595A5B5D5E5F616264656668691F
:1003F0006B6C6D6F7072737577787A7B7D7E80829F
:10040000838587888A8C8E8F91939596989A9C9EE7
:10041000A0A2A3A5A7A9ABADAFB1B3B5B7BABCBEF7
:10042000C0C2C4C6C9CBCDCFD1D4D6D8DBDDDFE2C4
:10043000E4E7E9EBEEF0F3F5F8FAFDFF0501090258
:10044000A10185020901A10005091901290815006A
:1004500025019508750181020501093009311581D1
:10046000257F95027508810609381581257F95013C
:1004700075088106050C0A38021581257F950175DE
:10048000088106C0C005010980A101850319012A60
:10049000B700150126B700950175108100C0050C45
:1004A0000901A101850419012AA002150126A00253
:1004B000950175108100C005010906A10105071904
:1004C000E029E71500250195087501810295017560
:1004D0000881010507190029FF150026FF00950670
:1004E0007508810005081901290595057501910216
:1004F000950175039101C009023B00020100A0FAB9
:100500000904000001030101000921110100012279
:1005100040000705810308000109040100010300F0
:100520000000092111010001227B00070582032040
:100530000001120100020000000810CB56642006E2
:10054000010200011A0349007200690073002000D3
:100550005200650076002E00200036006200000088
:100560000E034B0065006500620069006F0000002B
:100570000403090411241FBECFEFDAE0DEBFCDBFB4
:1005800004B603FE18C080912B0590912C05A09114
:100590002D05B0912E058730904BA740B04B59F4F4
:1005A00010922B0510922C0510922D0510922E05FD
:1005B000E0E0F8E3099512E0A0E0B1E0E6E3F4E65C
:1005C00002C005900D92AA3BB107D9F725E0AAEB2E
:1005D000B2E001C01D92AB32B207E1F70E94802A5F
:1005E0000C94A2310C94000090912505937061F059
:1005F00081110BC094609093250510924F0180915A
:1006000024058160809324050895833210F0986852
:10061000F2CF880F880F982BEECF9091250593701D
:1006200071F08093260560932705493708F048E765
:1006300040932805809124058160809324050895C6
:10064000E8EDF0E080818E7F80831092E2001092CE
:10065000DA001092E100A0EEB0E08C9181608C9302
:1006600080818F77808319BCA7EDB0E08C918E7F5D
:100670008C9380818F7E80831092DD040895209179
:10068000E4003091E50095E6A9012091EC00822F6D
:10069000817020FF06C08091E80080FF06C080E0E6
:1006A00008952091E80022FD1AC08091EA04882371
:1006B00089F0853089F08091EB0085FD0FC0209195
:1006C000E4003091E50042175307F9F29150E1F64A
:1006D00084E0089582E0089583E0089581E008951C
:1006E0008091EC0487FF13C08091E80082FF06C070
:1006F0008091E8008B778093E80004C08091EA0441
:100700008111F2CF08958091EA048823D9F3809172
:10071000E80080FFF8CF8091E8008E77ECCF982F2B
:100720009093E900242F762F50E0891731F07091D3
:10073000EC002091ED005091F00021FD07C09F5F7B
:10074000973071F78093E90081E008953091EB00D4
:100750003E7F3093EB003091ED003D7F3093ED0014
:100760003091EB0031603093EB007093EC002093FC
:10077000ED005093F0002091EE0027FDE0CF80E0E7
:100780000895B0E0A0E0E7ECF3E00C949E30C8EDF3
:10079000D0E088818F7E8883E7EDF0E08081816002
:1007A000808384E082BF81E08093DD0488818E7F36
:1007B000888302EE10E0F80110821092DA0081EED8
:1007C000C82ED12CF601108288818F77888388818A
:1007D0008068888388818F7D888319BC1092EA04A1
:1007E0001092EB041092E9041092E80490EEE92EC6
:1007F000F12CF70180818B7F8083888181608883E1
:1008000042E060E080E00E948F03F60180818E7FED
:100810008083F8018081816080838081886080830B
:10082000F70180818E7F8083888180618883CDB746
:10083000DEB7E8E00C94BA30FC018091F2049091AC
:10084000F30486179707A0F06115710529F49091BC
:10085000E8009E779093E80090E06115710551F4EF
:10086000911108C08091E80082FF34C080E00895B3
:10087000BC01F2CF8091EA048823C1F18530C1F137
:100880008091E80083FD30C08091E80082FDEACFCE
:100890008091E80080FFE1CF8091F3002091F20089
:1008A000382F6115710519F02830310558F091E0A5
:1008B0002830310509F090E02091E8002E77209350
:1008C000E800CBCF81918093F100615071092F5FD7
:1008D0003F4FE7CF8091EA04882341F0853041F013
:1008E0008091E80083FFBECF81E0089582E0089503
:1008F00083E008958091DF0408959C014FB7F89438
:100900008091D9049091DA04A091DB04B091DC04C9
:100910004FBF821B930B08952FB7F8946091D904B1
:100920007091DA048091DB049091DC042FBF08956C
:100930002FB7F8948091D9049091DA04A091DB0448
:10094000B091DC042FBF08959C01FC0132969FEF0B
:1009500080E04191461751F09F3F19F4411101C0C9
:10096000982F8F5F8630A9F79F3F09F40895290FCC
:10097000311D97FD3A95F90162830895A3E0B0E037
:10098000E4ECF4E00C94A4302091D6043091D70428
:1009900028173907A1F09093D7048093D604E091EB
:1009A000D404F091D504309751F024E029839B833F
:1009B0008A830680F781E02DCE0101960995239662
:1009C000E2E00C94C030A3E0B0E0E9EEF4E00C9477
:1009D000A4302091D2043091D30428173907A1F014
:1009E0009093D3048093D204E091D404F091D50481
:1009F000309751F023E029839B838A830680F78117
:100A0000E02DCE01019609952396E2E00C94C030CA
:100A1000FC01680F791F8FEF91E32191822728E075
:100A200030E087FF09C0880F892721503109C9F7B5
:100A3000E617F70791F70895880FF7CFFA018111AC
:100A400001C0FB0109950895E5E2F5E0248130E15C
:100A5000231B08F420E02483809124058160809387
:100A600024050895E5E2F5E0248130E1230F08F440
:100A70002FEF2483809124058160809324050895BD
:100A8000E5E2F5E0438120E1421B08F440E081818A
:100A9000628190E00E940D030895E5E2F5E0438154
:100AA00020E1420F08F44FEF8181628190E00E94C3
:100AB0000D030895E5E2F5E0628120E1621B08F490
:100AC00060E08181438190E00E940D030895E5E29A
:100AD000F5E0628120E1620F08F46FEF81814381CC
:100AE00090E00E940D030895E5E2F5E081814381E5
:100AF00062818850990B0E940D030895E5E2F5E0AC
:100B0000818190E04381628108960E940D030895DF
:100B10008091250586958695815009F482E20E9490
:100B2000F402089580912505869586958F5F83321E
:100B300008F081E00E94F4020895809347018091BB
:100B400025058370809346010E94511483E08093B1
:100B50004F010895EF92FF920F939701201B3109E7
:100B60002F3F310519F010F02FEF30E02095382F8E
:100B7000320F08F43FEF832F0F91FF90EF9008950D
:100B8000EF92FF920F939701201B31092F3F310500
:100B900019F010F02FEF30E0322F3095482F430F2F
:100BA00008F44FEF842F620F0F91FF90EF9008959C
:100BB000EF92FF920F93972F093438F4B701601B1F
:100BC00071096F3F710519F010F06FEF70E0485F29
:100BD0005F4F4131510540F0A901485F5F4F4131FE
:100BE000510510F06FEF70E06095482F460F08F444
:100BF0004FEF842F37FF02C02D5F3F4F359527956C
:100C00003595279560912605620F792F0F91FF90FA
:100C1000EF900895EF92FF920F931F930E0D1F2DEB
:100C2000111DF90137FF03C0F195E195F10924E0A9
:100C3000EE0FFF1F2A95E1F7EF3FF10519F014F0D1
:100C4000EFEFF0E09A0157FF03C03195219531098C
:100C500094E0220F331F9A95E1F72E173F070CF40B
:100C6000F901E00FF11FEF3FF10519F010F0EFEF80
:100C7000F0E0E095282F3E2F230F08F42FEF822F6E
:100C80001F910F91FF90EF900895EF92FF920F93B5
:100C9000970195E0099F200D311D11242F3F31054B
:100CA00019F010F02FEF30E02095382F320F08F4B4
:100CB0003FEF832F0F91FF90EF90089522E8241BC0
:100CC00008F420E0620F08954095282F429F412D9F
:100CD0001124842F08950F931F9310E0F801EE0F55
:100CE000FF1FE351FE4F9081905797FD9195000FA4
:100CF000111FF801EF54FE4F05AD0052110B2003F8
:100D0000F001219FF00D112408E310E0091B1109E7
:100D100097FD139540039001419F300D1124E20F80
:100D2000F31F9F01220F331F2E0F3F1F37FF02C0FB
:100D300021583F4F220F232F221F330B620F1F9189
:100D40000F9108950F931F93522F10E0F801EE0FAB
:100D5000FF1FEF54FE4FA5ADA052BB0B9D015203E8
:100D6000F001539FF00D1124000F111FD801A35162
:100D7000BE4F0C910057110B40039001419F300D65
:100D800011242E0F3F1F37FF02C0215C3F4F96E01A
:100D9000359527959A95E1F7620F1F910F91089568
:100DA0000F931F93522F10E0F801EE0FFF1FEF5427
:100DB000FE4FA5ADA052BB0B9D015203F001539F06
:100DC000F00D1124000F111FD801A351BE4F0C913B
:100DD0000057110B40039001419F300D11242E0F3D
:100DE0003F1F37FF02C021583F4F220F232F221FE2
:100DF000330B620F1F910F910895EF920F93972F6E
:100E000023E0029FB0011124759567956E0D792F2F
:100E10000F91EF900895322F50E0FA01EE0FFF1F6F
:100E2000EF54FE4F95AD905297FD9195440F551F8D
:100E3000FA01E351FE4F2081231B330B290F311D93
:100E400097FD3A95620F0895E42FF0E0EE0FFF1F33
:100E5000EF54FE4F65AD621B0895E42FF0E0EE0FF6
:100E6000FF1FE351FE4F6081621B0895622F0895BA
:100E7000E42FF0E0EE0FFF1FE351FE4F408134EE10
:100E8000439F412D1124E82FF0E050E0445E5F4F76
:100E9000DA01A21BB1099D01B7FF03C0319521956D
:100EA000310993E0220F331F9A95E1F7AF01421BFE
:100EB000530B9A0157FD20E0582F259F212D112417
:100EC000822F0895E42FF0E0EE0FFF1FE351FE4F55
:100ED000408134EE439F412D1124E72FF0E050E094
:100EE000445E5F4FDA01A21BB1099D01B7FF03C049
:100EF00031952195310993E0220F331F9A95E1F73F
:100F0000AF01421B530B9A0157FD20E0279F212D73
:100F10001124722F08950E94F8090895FF920F93EB
:100F20001F93CF93DF93182F062FF42ED0E0C0E04D
:100F30002F2D402F612FCE010E948B072196C434A4
:100F4000D105B1F7CDB7DEB7E5E00C94BD30FC01BB
:100F50009B01009729F480E077FF2BC080E808957B
:100F6000AC0197FF04C044275527481B590BB90112
:100F7000640F751F37FD10C0241B350BC901A5E098
:100F8000880F991FAA95E1F70E94DF3080E2861B47
:100F9000F7FF0FC081950895CB0165E0880F991F79
:100FA0006A95E1F7BA01621B730B0E94DF3080E69D
:100FB000EECF0895EF920F93CF93DF93D72FC82FE3
:100FC000C9010E19BA010E94A707602F681B7D2F67
:100FD0008C2FDF91CF910F91EF9008950F93CF93C6
:100FE000DF93D72FC82FC901BA010E94A707682F26
:100FF000600F7D2F8C2FDF91CF910F910895EF928D
:101000000F931F93CF93DF93D62FC72F182FC901AC
:101010000E19010FBA010E94A707081B202F219F5C
:10102000212D1124822F6D2F7C2FDF91CF911F91C5
:101030000F91EF900895EF920F931F93CF93DF934B
:10104000D62F172FC82FC9010E19070FBA010E94FA
:10105000A707702F781B719F712D11246D2F8C2F76
:10106000DF91CF911F910F91EF9008950F931F93F0
:10107000CF93DF93D62FC72F182FC901212F201B05
:10108000022FBA010E94A707982F990F990F891B69
:10109000800F282F219F212D1124822F6D2F7C2F2F
:1010A000DF91CF911F910F9108950F931F93CF93CD
:1010B000DF93D62F172FC82FC901272F201B022FF0
:1010C000BA010E94A707982F990F990F782F791BC3
:1010D000700F719F712D11246D2F8C2FDF91CF9187
:1010E0001F910F910895E82F86FDE0952E2F2F7008
:1010F00086FD2F5FE695E695E695E670F0E0E7550C
:10110000FE4F9181929F902D212D112492959F70D9
:101110002295207F922B2081920F87FD919580E868
:10112000890F0895AC018230910508F408959FEF6E
:10113000413E8EE1580740F49A0195E03695279597
:101140009A95E1F798E0920F61E0E62FE90FFF270B
:10115000FF1F9F0135952795822F229FF001239F26
:10116000F00DF00D11244E175F0738F49FEF920F2A
:10117000961758F78FEF860F08952F3FE9F361E038
:10118000620FF6CF0F93CF93DF93D72FC82F47FD72
:10119000419588E390E0841B910947FD9395889FD2
:1011A000B001899F700D700D1124229FC001239FF3
:1011B000900D900D1124860F971F0E949208982F72
:1011C000990F890F682F600F7D2F8C2FDF91CF91A2
:1011D0000F91089530E020E0869F212D969F200DED
:1011E000311D1124C9010895AF92BF92CF92DF92B1
:1011F000FF920F931F93CF93DF93362F472FE82F44
:10120000F0E0E45CFC4F71110FC0E4918E2F2E2FA3
:101210006E2F722FDF91CF911F910F91FF90DF9072
:10122000CF90BF90AF900895C72FD0E02491F22EB9
:10123000022F10E056E0659FC0011124EFEFF0E0AF
:10124000BF010E94CB30832F90E0880F991F35E5B6
:10125000369FD001379FB00D11248A1B9B0B982F0E
:10126000990F980F6F01CC1ADD0AC09ED001C19E64
:10127000B00DD09EB00D11248B2F499FA0011124D9
:10128000452F55276F01C41AD50AC09EA001C19EE3
:10129000500DD09E500D11245F01A91AB108AC9ECB
:1012A0006001AD9ED00CBC9ED00C1124CD2CDD2451
:1012B000EC19FD09E09FE001E19FD00DF09FD00DFA
:1012C0001124ED2F62307105A1F050F46115710504
:1012D00009F49ECF6130710581F0EB2F852F98CFF7
:1012E0006430710569F080F06630710509F490CFC3
:1012F000F4CFE22F2B2F8D2F8BCFE22F252F88CFEE
:10130000EB2F822F2D2F84CF2B2F8F2DE52F80CFEA
:101310000E9498049C019091AE038091AF03982B9A
:1013200021F03093AB032093AA039091B0038091F6
:10133000B103982B21F03093A9032093A803E091E7
:10134000D404F091D504309749F082E08093AC0347
:101350000480F581E02D8CEA93E009950895809151
:10136000A70380FD16C081FD16C082FD16C08091C6
:10137000A6038823A1F0883280F428E0829FC00170
:10138000112468E270E00E94DF30862F672B39F06D
:10139000089582E0089584E0089588E0089581E04A
:1013A00008958091A70380FD14C081FD14C082FDC3
:1013B00016C08091A503882381F08E3180F420E54A
:1013C000829FC00111246EE170E00E94DF30862F01
:1013D000089584E1089588E2089588E0089580E5FD
:1013E000089580E0089589B185FB882780F90895E4
:1013F000FF920F931F93CF93DF93EC01F62E042FF0
:10140000122F0E94F30981110FC0C232D1057CF066
:10141000A297FE01EE0FFF1FEC0FFD1FE052FC4FE5
:10142000F1820083128303C0C232D10594F3CDB799
:10143000DEB7E5E00C94BD30CF93C82F0E94F309CE
:10144000882329F081E0C23228F080E003C081E0E7
:10145000C434D8F7CF910895A8E0B0E0E2E3FAE011
:101460000C949430282E7C836B8320914C018EE069
:10147000289F802D11248D83825F8983853410F00D
:1014800034E439830E94F309882329F08981833267
:1014900010F092E299830E94F309811105C0ED8159
:1014A000E23210F4F2E2FD832091F8042A839D8158
:1014B000892F90E098878F83880F991FFC01EF5444
:1014C000FE4F6F01822D90E09C012F5F3F4F3E83C6
:1014D0002D8389819F81981730F00E941C0A2896DD
:1014E000E2E10C94B030EF81F885EB58FD4F80813C
:1014F00090914D018923F9F0309026054090270501
:101500008D819E8188509B4F3C01522C10E0FA81C6
:101510005F16D8F020912805129F112D1124632DFC
:10152000742D812F0E94F408462F282F672F8F815A
:1015300098850E948B072F8138852F5F3F4F388712
:101540002F8332E0C30ED11CC4CFF30181913F0140
:10155000F601A4ACA81ABB0885ACF3018781881AF0
:101560009908AA9C9001AB9C300D300D1124889CE9
:10157000C001899C900D900D1124820F931F0E9431
:101580009208082F6091290521E0620F08F46FEF9F
:10159000F301EE0FFF1FE85FF440858996890E94F2
:1015A000EA087C019401A501632D742D812FEB8144
:1015B000FC810995362E472E5394182FA8CFB0E002
:1015C000A0E0E5EEFAE00C949E307C01C0914C0165
:1015D0008EE0C89FC02D11241EE01C0F153408F0AA
:1015E00014E40E94F309882319F0133208F012E280
:1015F0000E94F309811103C0C23208F4C2E22091B3
:10160000290531E0230F08F42FEF30E050E040E0EF
:101610006FEF7FEF80E090E00E9415316901D0E02C
:1016200001E02C2FC11740F0812F0E941C0ACDB77A
:10163000DEB7E8E00C94BA30FE01EB58FD4F808134
:1016400090914D01892309F14091F8044150042EF5
:10165000000C550B47FF1BC0C60160912905600FA8
:1016600008F46FEF0E94EA08AC01609126057091C2
:10167000270580912805F70109950E94F408462F57
:10168000282F672FCE010E948B072196CACFFA011F
:10169000E850FB4F818982130AC0FA01EE0FFF1F49
:1016A000E850FB4F818D928D8C159D05B0F2415015
:1016B0005109D0CFB0E0A0E0E0E6FBE00C949C3014
:1016C0006C01C0914C018EE0C89FC02D11241EE01A
:1016D0001C0F153408F014E40E94F309882319F054
:1016E000133208F012E20E94F309811103C0C232E2
:1016F00008F4C2E260912905669566958091F4042C
:101700009091F5040E94EA08F82E80E48F0D0E9463
:10171000730890E8B92EB80E8F2D0E94730820E848
:10172000A22EA80ED0E0C11740F0812F0E941C0A03
:10173000CDB7DEB7EAE00C94B830FE01EB58FD4FB0
:10174000808190914D018923A1F0609126057091CF
:10175000270580912805EF2C0C2F2A2D4B2DF60103
:1017600009950E94F408462F282F672FCE010E946A
:101770008B072196D8CFB0E0A0E0E1ECFBE00C9421
:1017800098305C01C0914C018EE0C89FC02D11249F
:101790001EE01C0F153408F014E40E94F30988239E
:1017A00019F0133208F012E20E94F309811103C00C
:1017B000C23208F4C2E26091290566958091F40472
:1017C0009091F5040E94EA08F82ED0E0CE01880F2F
:1017D000991F9C012F543E4F6901C11740F0812F82
:1017E0000E941C0ACDB7DEB7EEE00C94B430FE01C7
:1017F000EB58FD4F808190914D01892379F1F601DD
:1018000084AD282F2057330B490185ADE82FE052D6
:10181000FF0B3F01889C9001899C300D300D1124F5
:10182000EE9FC001EF9F900D900D1124820F931F2A
:101830000E949208082F60912605709127058091DB
:101840002805EF2C9301A401F50109950E94F408E5
:10185000462F282F672FCE010E948B07F2E0CF0E74
:10186000D11C2196BACFB0E0A0E0E9E3FCE00C94F3
:101870009D306C01C0914C018EE0C89FC02D112499
:101880001EE01C0F153408F014E40E94F3098823AD
:1018900019F0133208F012E20E94F309811103C01B
:1018A000C23208F4C2E26091290566958091F40481
:1018B0009091F5040E94EA08B82ED0E0CE01880F7E
:1018C000991F9C012F543E4F7901C11740F0812F81
:1018D0000E941C0ACDB7DEB7E9E00C94B930FE01D6
:1018E000EB58FD4F808190914D018923C1F0F701A4
:1018F00025AD2052330B44AD4057550B6091260562
:1019000070912705809128050B2DF60109950E94FD
:10191000F408462F282F672FCE010E948B07F2E094
:10192000EF0EF11C2196D1CFEF92FF920F931F93F0
:10193000CF93DF937C01C0914C018EE0C89FC02DF6
:1019400011241EE01C0F153408F014E40E94F30962
:10195000882319F0133208F012E20E94F309811172
:1019600003C0C23208F4C2E260912905669566950B
:1019700021E0620F08F46FEF8091F4049091F50478
:101980000E94EA08082FD0E0C11740F0812F0E9482
:101990001C0ACDB7DEB7E6E00C94BC30FE01EB5874
:1019A000FD4F808190914D01892391F06091260532
:1019B0007091270580912805202F4C2FF70109955C
:1019C0000E94F408462F282F672FCE010E948B0714
:1019D0002196DACFB0E0A0E0E0EFFCE00C949C3080
:1019E000182F80914701811323C090912505937092
:1019F0002091460130E081E09217130609F480E05F
:101A0000817080934E0180912A0590914D01981725
:101A100039F080934D0140E060E080E00E948E0745
:101A2000133288F4E12FF0E0EC55FE4C0C94343185
:101A300081E0E6CF80914E01882389F140E060E0AB
:101A400080E00E948E0780E02AC0C0914C018EE0A9
:101A5000C89FC02D11240EE00C0F053408F004E4DB
:101A60000E94F309882319F0033208F002E20E9471
:101A7000F309811103C0C23208F4C2E26091260565
:101A800070912705809128050E94F408F62EE72E14
:101A9000D82ED0E0C017D8F0802F0E941C0A909159
:101AA0004C019F5F90934C0181110CC082E08093A8
:101AB0004F0180914E01811105C0111103C083E0D7
:101AC00080934F01CDB7DEB7EAE00C94B830FE0149
:101AD000EB58FD4F808190914D01892331F02D2DE0
:101AE0004F2D6E2DCE010E948B072196D3CFC09132
:101AF0004C018EE0C89FC02D11240EE00C0F053460
:101B000008F004E40E94F309882319F0033208F076
:101B100002E20E94F309811103C0C23208F4C2E25A
:101B2000E0902705F0902805D09126056D2F7E2D99
:101B30008F2D0E94F408D62EC72EB82E609129054D
:101B40006D0F7E2D8F2D0E94F408F62EE72EA82E05
:101B5000D0E0C01708F0A0CFFE01EB58FD4F9081F8
:101B600080914D01892359F02A2D4F2D6E2D90FD26
:101B700003C02B2D4D2D6C2DCE010E948B0721967D
:101B8000E8CFC0914C018EE0C89FC02D11240EE01B
:101B90000C0F053408F004E40E94F309882319F0BF
:101BA000033208F002E20E94F309811103C0C2323D
:101BB00008F4C2E2E0902705D0902805209129057D
:101BC00050E4F52E3F2D329F312D1124F32ED0E01D
:101BD000C01708F061CFFE01EB58FD4F8081909156
:101BE0004D018923B9F0FE01EE0FFF1FEF54FE4FA8
:101BF00085AD82958F70609126058F9D600D1124B3
:101C00007E2D8D2D0E94F408462F282F672FCE01A0
:101C10000E948B072196DCCFC0914C018EE0C89FBB
:101C2000C02D11240EE00C0F053408F004E40E94CE
:101C3000F309882319F0033208F002E20E94F30945
:101C4000811103C0C23208F4C2E2E0902705D090AF
:101C500028052091290530E4F32E3F2D329F312DA8
:101C60001124F32ED0E0C01708F016CFFE01EB5878
:101C7000FD4F808190914D018923D9F0FE01EE0F37
:101C8000FF1FEF54FE4F64ADF69EB001112495E0A6
:101C9000759567959A95E1F780912605680F7E2DD9
:101CA0008D2D0E94F408462F282F672FCE010E9409
:101CB0008B072196D8CFC0914C018EE0C89FC02DD4
:101CC00011240EE00C0F053408F004E40E94F3091F
:101CD000882319F0033208F002E20E94F30981110F
:101CE00003C0C23208F4C2E2F0902605D091270565
:101CF000E090280560912905669566956695809126
:101D0000F4049091F5040E94EA080E947308805838
:101D100087FD8195880F282F3E2D239F212D11248B
:101D2000822F6F2D7D2F0E94F408F62EE72ED82EDD
:101D3000D0E0C01708F0B0CEFE01EB58FD4F808117
:101D400090914D01892331F02D2D4F2D6E2DCE0117
:101D50000E948B072196EDCF82E697E00E94940CBB
:101D60009ECE88E397E0FACF85E598E00E94330C99
:101D700096CE86E398E0FACF8BE198E00E94BB0B09
:101D80008ECE8FEF97E0FACF86E397E0E7CF8DE234
:101D900097E0E4CF84E297E0E1CF8BE097E0DECFFD
:101DA0008DEF96E0EBCF82EC98E0E0CF8EEE97E0FF
:101DB000DDCF8AED97E0E2CF80ED96E00E945A0BEE
:101DC0006ECE82EA96E0FACF8BE696E0F7CF84E615
:101DD00096E00E94DF0A63CE8EE596E0FACF80910E
:101DE000F80421E0382F321B08F430E0832F65E43B
:101DF00076E00E942C0A53CE65E476E080E0F9CFCD
:101E00008091F80421E0382F321B08F430E0832F52
:101E10006AE076E0EECF6AE076E0F0CF8091F804F9
:101E200021E0382F321B08F430E0832F68ED75E095
:101E3000E0CF68ED75E0E2CF8091F80421E0382F23
:101E4000321B08F430E0832F60EC75E0D2CF60ECF9
:101E500075E0D4CF8091F80421E0382F321B08F4CC
:101E600030E0832F6AEA75E0C4CF6AEA75E0C6CF36
:101E7000F894E82FE295EF70F0E031A1282F2F7051
:101E800081E090E001C0880F2A95EAF7982F90959D
:101E9000932391A392A1892B82A378940895909182
:101EA0007F0392FF06C0282F28712830F9F4877F1E
:101EB000846093FF06C0282F28712831F1F4877EB3
:101EC00084612091800320FF06C0382F387138309C
:101ED000D9F4877F816021FF06C0282F287128311F
:101EE000D1F4877E816194FD877E0895282F247127
:101EF0002430F9F68B7F8860DCCF282F24712431C1
:101F000001F78B7E8861DDCF382F3171313019F7C1
:101F10008E7F8860E0CF282F2171213121F78E7EBE
:101F20008861E1CF82389105B9F1B0F48133910530
:101F300009F47DC048F48932910509F46DC08A32F4
:101F4000910509F47BC008958533910509F45FC0BC
:101F50008933910509F10895833E9105D9F138F44B
:101F6000803E910529F1823E910579F10895863EE2
:101F70009105D9F1873E910509F43EC0843E910553
:101F800041F52091800321FF24C080917F0384FDCF
:101F900019C087EE90E0089520917F03237009F027
:101FA0005AC02091800323FF14C089E290E0089575
:101FB00020917F0320FD38C03091800330FF09C09D
:101FC00024FF43C090E080E0089520917F0322FD2C
:101FD000F7CF089520917F0322FD3AC0309180030E
:101FE00030FD39C024FFF5CFEDCF20917F0323FFD3
:101FF000F0CF24FDE7CFCDCF20917F0323FD2EC06E
:102000003091800331FFEECF84EE90E0089520916F
:102010007F0325FFDECFC9CF20917F0325FD21C09F
:102020002091800323FFD5CF89E390E0D2CF209188
:102030007F0326FFCECF8AE290E0089520917F03B0
:1020400026FFC7CF81E390E0089583EE90E00895E6
:1020500082EE90E0089580EE90E0089586EE90E0A4
:10206000089585E390E00895972F7A30B8F46630AC
:10207000A8F48430B0F470E026E0929F600D711DEA
:102080001124FB019CE3899FE00DF11D1124EE0F4B
:10209000FF1FE45AFE4F85919491089580E090E0EF
:1020A000089581E0FCCF1F93CF93DF930E94920F9E
:1020B000EC01C11580E5D807F0F5C11580E4D8071B
:1020C00008F09CC0C03ED10520F5CD3CD10508F0FC
:1020D00082C0C83AD10578F4C53AD10508F073C07A
:1020E000C130D10519F1209709F1C430D105F0F4C0
:1020F000D0E0C0E01BC0C33CD105D0F7C85AD0E047
:10210000CC0FDD1FCF59DE4F0990D881C02DD4648C
:102110000DC0C11580E2D80708F0D1C0C11581E01B
:10212000D80708F05AC0C83ED10510F7CE01DF919C
:10213000CF911F910895C03682E5D80718F5C034B5
:1021400082E5D80708F06BC0C03282E5D80708F0F6
:102150005FC0C11582E5D80708F497C02C2F2695DB
:10216000269580E2289F900111248C2F8370C1E076
:10217000D0E002C0CC0FDD1F8A95E2F7C22BD32B33
:10218000DD68D4CFC03A82E5D80760F4C03882E574
:10219000D80708F459C0CF71D0E0DC2FCC27C46F2A
:1021A000D06AC4CFC03C82E5D80708F462C0C03E04
:1021B00082E5D80708F09CCFDC2FCC27CC27DF7135
:1021C000C06FD06AB3CFC55AD0E0C25ADE4FC881C3
:1021D000D0E0D064ABCFD065A9CF8D2F0E944F0F38
:1021E000182FCE0199270E94920FC12FD0E0DC2F2B
:1021F000CC27CC27DF71C82BD92B98CFCE019927BC
:102200000E94920FCC27DF70C82BD92BD06A8ECFBB
:10221000CF71D0E0DC2FCC27C16FD06A87CF2C2FB5
:1022200026952695277080E2289F900111248C2FF7
:102230008370C1E0D0E002C0CC0FDD1F8A95E2F7C9
:10224000C22BD32BDC6872CF2C2F269526952770B6
:1022500080E2289F900111248C2F8370C1E0D0E090
:1022600002C0CC0FDD1F8A95E2F7C22BD32BDA68B0
:102270005DCF8C2F8F710E944F0FC82FD0E0DC2FC5
:10228000CC27CC27DF71D06251CF8C2F8F710E9469
:102290004F0F55E0D695C7955A95E1F7CF70D0E02E
:1022A000DC2FCC27282F30E084FF05C044E0220F2C
:1022B000331F4A95E1F7C22BD32BD06937CF8D2F2F
:1022C0008F710E944F0F182FCE0199270E94920FF5
:1022D000C12FD0E0DC2FCC27CC27DF71C82BD92B26
:1022E000D2CF0E948C04089580912F038111109207
:1022F0002F0308959091800392FF05C090912F03C2
:10230000981380932F03089580959091AC0498239F
:102310009093AC040895209125039091F40256E027
:10232000291302C080E0089530E0529FF001539FCE
:10233000F00D1124EB50FD4F7181761306C07081B2
:10234000781303C07281741304C02F5F3F4F27704E
:10235000E7CF81E00895809125039091F4029813CE
:1023600001C008958F5F8770FACFB0E0A0E0EBEB7B
:10237000F1E10C949D307C0100917D0310917E036E
:102380008091300390913103082B192BCFE0D0E0DE
:10239000CC24C394D12CBC2EC6010C2E02C0880FB5
:1023A000991F0A94E2F780239123892B49F42197FE
:1023B00090F7B12C8B2DCDB7DEB7E9E00C94B93096
:1023C000B7018C2F0E9434100E945310019779F3AB
:1023D000F1CFCF93DF93EC010E94B511BE010E94B3
:1023E00034100E945310DF91CF9108959A3078F500
:1023F000863068F5E82FF0E086E0989FE00DF11D4B
:1024000011249E2F977083E0F695E7958A95E1F762
:10241000EE0FFF1FEE0FFF1FE253FD4F50E040E0B5
:1024200080E0219130E0092E02C0369527950A946C
:10243000E2F721703327042E01C0220F0A94EAF735
:10244000822B4F5F5F4F4430510559F7089580E06C
:1024500008959A3098F5863088F5E82FF0E086E008
:10246000989FE00DF11D11248E2F877041E001C06F
:10247000440F8A95EAF783E0F695E7958A95E1F7A8
:10248000EE0FFF1FEE0FFF1FE253FD4F30E020E085
:1024900070E05191DF011197CB01022E02C0969599
:1024A00087950A94E2F78170819585278423852793
:1024B0008C932F5F3F4F2430310559F70895982FA3
:1024C00040917D0350917E034115510529F481E02F
:1024D000992371F080E00CC021E030E002C0220FAF
:1024E000331F8A95E2F72423352381E0232B91F3D0
:1024F000089590937E0380937D03089521E030E05A
:1025000002C0220F331F8A95E2F720953095809103
:102510007D0390917E03822393230E947912089574
:10252000909126038095892380932603282F277076
:1025300091F4282F082E000C330B9217130659F034
:102540009091800392FF07C08595859585950E949F
:102550007E1210922603089521E030E002C0220F7F
:10256000331F8A95E2F780917D0390917E03822B41
:10257000932B0E9479120895909331038093300336
:102580000895FC0183819481892B29F080819181B8
:1025900089238F3F51F480E00895843FE1F717C00D
:1025A000883EA8F0813FB9F712C0808191810E94D6
:1025B000E91192959F70963099F358F4925F9F704D
:1025C000923048F7803F19F040F7883E20F781E0CD
:1025D00008959A5FF4CF662309F45DC08D3C41F401
:1025E0000E94D10981958093AF030E9488090895C4
:1025F0008E3C19F40E94D109F6CF8F3C31F40E9431
:10260000D10981958093AE03F0CF803D19F40E94EB
:10261000D109F8CF893D29F40E94AF098093B00316
:10262000E4CF8A3D21F40E94AF098195F7CF8B3D1D
:1026300031F40E94AF0981958093B103D6CF8C3DD0
:1026400019F40E94AF09F8CF9FE2980F983070F408
:10265000815D990B21E030E001C0220F8A95EAF7F5
:102660008091AD03822B8093AD03BFCF8D3D31F4BC
:102670008091A70381608093A703B7CF8E3D21F49B
:102680008091A7038260F7CF8F3D09F0AECF809194
:10269000A7038460F0CF4091AE038D3C59F4809144
:1026A000AF0387FF0DC01092AF0341110BC0109212
:1026B000A50308C08E3C81F48091AF0318169CF3EB
:1026C000442381F08091B0039091B103892B09F0EC
:1026D0008CCF1092A60389CF8F3C49F447FFF0CFEF
:1026E0001092AE038091AF038111ECCFE0CF803D1B
:1026F00019F41416ACF3E4CF9091B003893D29F49A
:102700001916F4F61092B003DBCF8A3D19F497FF47
:10271000D7CFF8CF9091B1038B3D29F497FFD0CF5D
:102720001092B103CDCF8C3D19F41916CCF3C8CF5C
:102730009FE2980F983090F4815D990B21E030E092
:10274000B90102C0660F771F8A95E2F7CB01809529
:102750009091AD0389238093AD03B2CF8D3D31F4C9
:102760008091A7038E7F8093A703AACF8E3D21F48B
:102770008091A7038D7FF7CF8F3D09F0A1CF809186
:10278000A7038B7FF0CF9C013A9521153F4150F56F
:10279000FC01EE27F170BC0166277270AC01442782
:1027A00054709C012227387094FF0EC080E1EF2BFB
:1027B00009F480E0672B09F08062452B09F0806402
:1027C000232B89F08068089581E0EF2B09F480E0E5
:1027D000672B09F08260452B09F08460232B19F0E8
:1027E0008860089580E008950F931F93CF93DF933F
:1027F0008B01EA019091EA04943061F58093E9003D
:102800008FEF9091E800815095FD06C095ED9A9567
:10281000F1F700008111F5CF8091E80085FF1AC023
:102820000E943F03811111C08091E80085FD06C020
:102830008091E8008E778093E800F2CFF8018191D3
:102840008F018093F100219779F78091E8008E77CE
:102850008093E800DF91CF911F910F91089543E09D
:1028600050E0BC0182E00E94F413089546E050E07D
:10287000BC0182E00E94F4130895CF93DF93EC0132
:1028800048E050E0BC0181E00E94F41388E0FE01C2
:10289000A0EEB4E001900D928A95E1F7DF91CF911F
:1028A00008956E9A3EB13F7B2EB120644FB7F894E5
:1028B00080EE93E0FC015191CF0168E02EB9000059
:1028C00000C057FF3EB9550F000000C000C000C057
:1028D0003EB900C06A9591F7F4E08C3A9F0751F732
:1028E0004FBF8FE594E00197F1F700C00000089515
:1028F000B0E0A0E0EEE7F4E10C949C307C015B01D9
:102900006A0180916A0301E010E08A3010F40AE065
:1029100010E0C1E0D0E0B501C701F60109958111D1
:1029200004C021960C171D072CF4CDB7DEB7EAE0E2
:102930000C94B830CC9F9001CD9F300D300D1124F8
:1029400090E080E045E34A95F1F700000196821798
:102950009307C1F7E0CF80914103811110C08091AE
:10296000D80080618093D8008AE18A95F1F700C091
:102970008091D90080FF0AC081E08093410381E00B
:1029800090914103913009F080E0089582E08093B6
:1029900041030E9420031092EA04F1CF0E94AB147D
:1029A000882359F0E091D404F091D504309729F0B0
:1029B0000190F081E02D0995089580E008950F932E
:1029C0001F930E94AB14882329F00E948C041F914E
:1029D0000F9108950E948C0400916B0310916C0379
:1029E00020916D0330916E03600F711F821F931F42
:1029F000EECFCF92DF92EF92FF926B017C010E94AB
:102A0000AB148823A1F02FB7F8946091D90470918A
:102A1000DA048091DB049091DC042FBF6C197D09EE
:102A20008E099F09FF90EF90DF90CF9008950E944C
:102A3000DF14F4CF4F925F926F927F928F929F92AA
:102A4000AF92BF92CF92DF92EF92FF926091DB0341
:102A50007091DC038091DD039091DE030E94F914F4
:102A60006B017C010E94DF144B015C018092DB034F
:102A70009092DC03A092DD03B092DE03A091B2033A
:102A8000E2EBF3E08A2F90E04FEF5FEF60E070E061
:102A90004C195D096E097F09A91328C08093B20300
:102AA0008091DF03811135C090912505892F8370B6
:102AB00019F0892F8695869590914F01913009F4F0
:102AC00041C0992341F1923009F43FC0933009F499
:102AD0003FC0FF90EF90DF90CF90BF90AF909F905E
:102AE0008F907F906F905F904F900895218D328DE1
:102AF0002901712C612C441555056605770520F4D4
:102B000081509F5F3296C8CF2C0D3D1D328F218F93
:102B1000F8CF80E0D1CF10924C018092F4049092D3
:102B2000F504A092F604B092F70489E2E2EBF3E038
:102B3000A8EFB4E001900D928A95E1F781E08093CF
:102B40004F01C7CF0E94EA0CC4CF0E949D05C1CFA0
:102B500080912405882351F046E050E06CE170E05C
:102B600085E295E00E945831109224056091F404AA
:102B70007091F5048091F6049091F7040E94F91485
:102B8000603171058105910508F4A3CF10924F01C2
:102B9000A0CFE5E2F5E085E380838091500190913C
:102BA0005101A091520181839283A3838FE7848393
:102BB0008FEF858346E050E06CE170E0CF010E942A
:102BC00058311092240508958091AC049091AD0481
:102BD000892B8093BC0290912F03992391F0892B2C
:102BE0008093BC0220E08EEB92E0FC013191CF019A
:102BF00031112F5FF2E0843C9F07B9F721110E9449
:102C0000741148E050E067E273E08CEB92E00E94C0
:102C10008C31892BA9F088E0ECEBF2E0A7E2B3E07D
:102C200001900D928A95E1F7E091D404F091D504DA
:102C3000309731F00280F381E02D8CEB92E0099522
:102C4000089580914A01877F80934A019091AD0455
:102C50009D7F9093AD0484FF08C08F7E80934A01CE
:102C60008091AC0482608093AC0480914A0185FF1E
:102C700008C08F7D80934A018091AC04806280936C
:102C8000AC040E94E4150895882341F0809590914A
:102C9000AD0489238093AD040E94E4150895882330
:102CA00039F09091AD04982B9093AD040E94E415F7
:102CB0000895882321F00E9484110E94E41508954C
:102CC000882339F09091AC04982B9093AC040E9427
:102CD000E41508958823D1F19CEF980F913A78F488
:102CE000EEEBF2E09191891303C0DF0111971C9282
:102CF00092E0E43CF907B1F70E94E415089590E2F0
:102D0000980F983050F4877091E001C0990F8A9520
:102D1000EAF7892F0E948411EFCF9BE5980F93303B
:102D200028F490E080E00E94E304089598E5980F6D
:102D30009B3128F490E080E00E94BE04089593E364
:102D4000980F933118F460E00E94EB120895CF932E
:102D5000DF93EC010E946A16CE010E94C3139E010C
:102D6000205E31092830310510F0CD2B29F40E9466
:102D70005916DF91CF9108950E944416FACFCF9350
:102D8000C82F8823B1F08CEF8C0F813A00F5EEEB61
:102D9000F2E084EC92E0DF012D91C21761F08A1716
:102DA0009B07D1F76C2F8CEB92E00E94A4040E9449
:102DB000E415CF9108952191C21303C0DF0111974B
:102DC0001C928E179F07B9F70E94E415EBCF80E2A3
:102DD0008C0F883068F4C77021E030E001C0220F0A
:102DE000CA95EAF78091AC04822B8093AC04DFCFC4
:102DF000EBE5EC0FE33040F4F0E0E25AFE4F808167
:102E000090E00E94E304D5CFE8E5EC0FEB3150F4FD
:102E1000F0E0EE0FFF1FEF59FE4F808191810E947D
:102E2000BE04C7CF83E38C0F833118F661E08C2F8B
:102E30000E94EB12BECF1F93CF93DF93182FEB01AD
:102E40000E94BF16209739F4812F0E946A16DF91E5
:102E5000CF911F9108958FE99FE00197F1F700C08E
:102E600000002197EFCF70E060E0893311F460E556
:102E700070E00E941B1708950F931F93CF93DF9369
:102E8000C62FD42F022FFC0182818823A9F06093E2
:102E900023050E9498049093220580932105C77012
:102EA00081E001C0880FCA95EAF70E946016DF91A1
:102EB000CF911F910F91089580912305681332C01F
:102EC00080912105909122050E947D04883C910506
:102ED00048F510E21D0FCD17B9F080E28C0F883055
:102EE00040F4C77081E001C0880FCA95EAF70E94DC
:102EF0005916183048F481E09D2F977001C0880F53
:102F00009A95EAF70E946016802F0E9433171830B6
:102F100070F6D77081E001C0880FDA95EAF70E9459
:102F20005916C5CFC77081E001C0880FCA95EAF76E
:102F3000F6CFCF93DF93EC010E94C3139E01205E76
:102F400031092830310510F0209741F40E946016B5
:102F50008C2F0E94BF16DF91CF9108950E944F16CB
:102F6000F7CFB0E0A0E0E7EBF7E10C949F308C01E5
:102F7000EB0180914A0182FF86C0E090D004F0907E
:102F8000D104E016F10621F00115110509F07BC00E
:102F900080914A018B7F80934A0181FD6DC08091B1
:102FA000CE049091CF04AE01481B590B81E02091D3
:102FB0004801309149014217530708F480E08170BD
:102FC000D82E80914A01D0FA81F980934A01870175
:102FD0001127F80184E0F695E7958A95E1F7EE0F61
:102FE000FF1FE255FB4F20813181A7014F7055270C
:102FF00081E090E002C0880F991F4A95E2F7DD203A
:10300000E9F1822B932B918380838091AC0481FF23
:1030100008C080914A01806180934A0182E00E9449
:1030200084118091AC0485FF08C080914A018062C0
:1030300080934A0180E20E948411DD2029F0809172
:10304000AD0482608093AD04C70190528115904316
:1030500008F47801C7010E9499178091D0049091DB
:10306000D1049C0130522115304308F499270E9465
:10307000A7160E94211617C081E0A1CF80959095D8
:1030800082239323C0CFC801905281159043A0F4AE
:10309000C80199270E94A7168091D0049091D1046D
:1030A0000817190731F3D093CF04C093CE04CDB7DE
:1030B000DEB7E7E00C94BB30C801ECCF0F931F9351
:1030C000CF93DF938C01EB010E949917209741F475
:1030D000C8010E94A716DF91CF911F910F9108950B
:1030E0008FE99FE00197F1F700C000002197EECF34
:1030F000CF93C62F80E00E945F12882361F18091F8
:103100003B03CC23A9F0811106C081E080933B03EF
:1031100083EE0E94BF160E94980490933A03809316
:10312000390370E060E08BE290E00E945E1820C0FE
:10313000811106C081E080933B0383EE0E94BF169D
:103140000E94980490933A038093390370E060E002
:103150008BE292E0EACF83E00E945F12882359F06D
:103160006AE070E089EAC11101C08AEA0E941B1777
:1031700080E0CF91089581E00E945F12882339F0AA
:103180008EE4C11101C08BE40E943317F1CF82E0BD
:103190000E945F12882361F380913B03CC2339F0B6
:1031A0008111B9CF81E080933B0380EEB2CF8111D2
:1031B000C7CF81E080933B0380EEC0CFAFE0B0E0AB
:1031C000E4EEF8E10C9499308E010F5F1F4F8AE016
:1031D000D8011D928A95E9F788E3C82E81E0D82EA0
:1031E000F12CE12CAA24A394B12C28E3822E21E017
:1031F000922EF60181916F018F3F09F442C0F8943D
:10320000E82FE295EF70F0E021A18F70A50102C0D8
:10321000440F551F8A95E2F7CA01922F982B91A36C
:1032200092A18095892382A3789400C0E2E3F1E023
:10323000712C31E021912F3F09F46BC0A22FA29590
:10324000AF70B0E090968C9190E02F7002C0959591
:1032500087952A95E2F780FD5CC0832F782A330F8B
:103260008E169F0639F7F601319780818F3F11F056
:103270000E94380F50EA5A95F1F7F801EE0DFF1D44
:1032800070828FEFE81AF80A95E0E916F10409F068
:10329000B0CF4AE050E0B80181E793E00E948C3162
:1032A000009741F02AE0F801A1E7B3E001900D9208
:1032B0002A95E1F700917C03892B69F181E08093E5
:1032C00036030E94980490933503809334038091D1
:1032D0003403909135030E947D04059700F110E0BE
:1032E0000F571C4F45E050E061E773E0C8010E94B2
:1032F0008C31D12C892B51F085E0E1E7F3E0D80146
:1033000001900D928A95E1F7DD24D3941092360353
:1033100007C080E0A3CF809136038111D8CFD12C94
:103320000E94AB14C82EE0917C03DE011B967D0148
:10333000882309F491C085E01D928A95E9F70E2F44
:1033400010E00F571C4F80916A038A3008F051C07B
:103350004FE35FE1B701C8010E947814882309F4A4
:103360006AC046EE5EE1B701C8010E947814882366
:1033700009F461C04BEE5DE1B701C8010E94781409
:10338000882309F458C049E85DE1B701C8010E94EB
:103390007814882309F44FC010926A0380917B034C
:1033A00090E045E050E0B7018F579C4F0E948C3170
:1033B00021E020934003892B89F5C12C80913B03A8
:1033C000882389F08091390390913A030E947D040B
:1033D0008F3E924040F083EE0E946A1680EE0E947B
:1033E0006A1610923B038C2D8D292F96EDE00C94DC
:1033F000B53080913703909138030E947D04843F5B
:10340000914008F0A5CF809140038823B1F285E078
:10341000F70111928A95E9F710924003A0917B037E
:10342000B0E0AF57BC4F85E0FE013B9601900D9296
:103430008A95E1F7C3CF80916A038F3F31F08F5FA8
:1034400080936A038A3008F4A9CF0E94980490936D
:10345000380380933703D7CFF0E0EF57FC4F85E078
:10346000A4E5B3E001900D928A95E1F765E070E084
:1034700084E593E00E940805809353034091A103E3
:1034800050E06091A00370E064567C4FC7010E9439
:1034900099318B8580935A0361E070E0C7010E94E7
:1034A00008058093590380905B0390905C03A09083
:1034B0005D03B0905E0380913C0390913D03A09129
:1034C0003E03B0913F0388169906AA06BB06D1F0C9
:1034D00080923C0390923D03A0923E03B0923F0342
:1034E0000E94AB1481110EC00E948C04861A970AA8
:1034F000A80AB90A80926B0390926C03A0926D03A4
:10350000B0926E0386E0EFE5F3E0A5E2B5E001904E
:103510000D928A95E1F710916503112349F080918E
:10352000DF03811105C00E94EA0C80E00E949D0526
:103530001093DF0358CFCF931092AC04C6E0EEEBAC
:10354000F2E0DF018C2F1D928A95E9F790E080E090
:103550000E94E30490E080E00E94BE041092AD045B
:103560000E94E415ECEAF3E0DF011D92CA95E9F749
:103570001092A5031092A6031092A7030E94880937
:10358000CF910895AAE2B0E0E8ECFAE10C94A33000
:103590008CEE94E02091F100FC012193CF01F4E046
:1035A000843F9F07B9F78091ED04833009F470C020
:1035B000B8F4813009F447C0823009F4B1C0809179
:1035C000E80083FF7EC28091EC049091ED049A3074
:1035D00008F077C2E92FF0E0E953FE4C0C94343147
:1035E0008A3009F48CC08B3009F46FC0893039F708
:1035F0008091EC04813219F78091F0049091F104EC
:103600000297E8F68091E800877F8093E800809138
:10361000E80082FF38C09091F3008091F200029799
:1036200031F48091F100813011F0863021F48091E5
:10363000F1008093DF048091E8008B778093E800AD
:103640000E947003BCCF8091EC04813A09F0B7CF9F
:103650008091E800877F8093E8008091F00490914A
:10366000F104892B61F468E080EE94E070E00E9440
:103670001C048091E8008B778093E800A0CF60E085
:1036800090E080E0F3CF8091EA048111C0CF97CF22
:103690008091EC04813A09F092CF8091F0049091EE
:1036A000F104892B09F08BCF8091E800877F80930C
:1036B000E8008091E80080FFFCCF80914B0180936F
:1036C000F1008091E8008E77B9CF8091EC048132CF
:1036D00009F075CF8091F0049091F104892B09F0E5
:1036E0006ECF8091E800877F8093E8000E9470038E
:1036F0008091EE0480934B010E949B1A60CF8091D1
:10370000EC04813209F05BCF8091E800877F8093E1
:10371000E8000E9470038091EF048093DE044FCF95
:103720008091EC04813A09F04ACF8091E800877FCC
:103730008093E8008091E80080FFFCCF8091DE0458
:10374000BECF803899F0823809F0BBC18091F00477
:103750008F70873008F0B5C18093E9008091EB004D
:1037600085FB882780F91092E90006C08091E80463
:103770009091E904911182609091E800977F909375
:10378000E8008093F1001092F1008091E8008E77BC
:1037900094C1882309F482C1823009F092C18091DA
:1037A000EE04811185C18091F0048F702FEF280FF6
:1037B000263008F086C18093E9002091EB0020FFBD
:1037C00077C1933031F48091EB0080628093EB00FD
:1037D0006FC19091EB0090619093EB0021E030E09D
:1037E00001C0220F8A95EAF72093EA001092EA00BE
:1037F0008091EB008860EACF811163C11091EE04E3
:103800001F778091E3008078812B8093E300809183
:10381000E800877F8093E8000E9470038091E800B1
:1038200080FFFCCF8091E30080688093E30082E01A
:10383000111183E08093EA0444C18058823008F07B
:1038400040C18091EE049091EF048C3D23E09207FB
:10385000A1F583E08A838AE289834FB7F894DE0179
:10386000139620E03EE051E2E32FF0E05093570042
:10387000E49120FF03C0E295EF703F5FEF708E2F61
:1038800090E0EA30C0F0C7968D939D932F5F24316E
:1038900059F74FBF8091E800877F8093E8006AE284
:1038A00070E0CE0101960E941C048091E8008B77A5
:1038B0008093E80006C1C096E7CF4091F004509194
:1038C000F104292F33272330310509F444C078F55A
:1038D0002130310509F46FC08BE390E0E7EFF4E0AD
:1038E0002230310509F0EDC02091E800277F2093B8
:1038F000E8002091F2043091F3048217930708F452
:103900009C0140E02115310509F064C0411162C0FD
:103910008091E80082FDC9CF8091EA04882329F2D2
:10392000853019F28091E80083FFF2CFBECF2132BB
:103930003105A9F12232310509F0C3C04115510505
:1039400009F443C04130510509F0BBC08BE790E05A
:10395000ECE3F4E0C9CF992781309105C1F00097DD
:1039600059F0029709F0ADC0E4E4F5E0E4918E2F40
:1039700090E0E4E4F5E007C0E0E7F5E0E4918E2FA5
:1039800090E0E0E7F5E0009709F49BC0ADCFE0E6FA
:10399000F5E0E4918E2F90E0E0E6F5E0F4CF4115FC
:1039A000510571F04130510509F08BC089E090E07C
:1039B000E2E2F5E099CF82E190E0E2E3F5E094CF36
:1039C00089E090E0E9E0F5E08FCF80E490E0E7EB7C
:1039D000F4E08ACF8091EA04882309F466CF853029
:1039E00009F463CF8091E80083FD5FCF8091E80008
:1039F00082FD8ECF8091E80080FF84CF9091F3000C
:103A00008091F2002115310519F08830910550F0B0
:103A100041E0089709F040E08091E8008E778093BC
:103A2000E80070CF44914093F10031962150310964
:103A30000196E8CF803809F044C08091E800877F84
:103A40008093E8008091EB048093F1009ECE811179
:103A500038C01091EE041230A0F58091E800877F05
:103A60008093E8001093EB040E947003112311F07F
:103A700084E005C08091E30087FDFACF81E0809368
:103A8000EA0442E061EC81E00E948F0342E261ECD3
:103A900082E00E948F038091EA0413C08091EE04BB
:103AA000813079F481E0933009F080E08093E9047B
:103AB0001092E9008091E800877F8093E8000E94DF
:103AC00070038091E80083FF0AC08091E800877F3F
:103AD0008093E8008091EB0080628093EB00AA96CF
:103AE000E3E00C94BF300E949B1A2FEF84E39CE02C
:103AF000215080409040E1F700C0000088E19CE048
:103B00000FB6F894A895809360000FBE9093600064
:103B1000FFCFA7E0B0E0EFE8FDE10C94A23086E033
:103B2000E5E2F5E0DE01119601900D928A95E1F74C
:103B30008091DF038F8347E050E06FE573E0CE01B3
:103B400001960E948C3100916603109167032091C9
:103B5000680330916903EFB7F8944091D90450910C
:103B6000DA046091DB047091DC04EFBF401B510B61
:103B7000620B730B443651056105710518F411E0B1
:103B8000892B21F180912B0190912C018D5A9C4F12
:103B900040912A0150E04830510510F047E050E0D4
:103BA000BE016F5F7F4F0E94993185E090E00E94D7
:103BB0001E30182F882351F00E948C0460936603F6
:103BC000709367038093680390936903812F27960E
:103BD000E4E00C94BE30A4E0B0E0E1EFFDE10C9431
:103BE000A33040914F035091500360915103709165
:103BF00052032FB7F8948091D9049091DA04A091E0
:103C0000DB04B091DC042FBF841B950BA60BB70B14
:103C100011E084369105A105B10570F10E94DF1411
:103C20006E5F7F4F8F4F9F4F69837A838B839C8317
:103C300080912301909124018D5A9C4F4091220143
:103C400050E04530510510F044E050E0BE016F5F98
:103C50007F4F0E94993184E090E00E941E30182F1F
:103C6000882351F00E948C0460934F03709350039B
:103C70008093510390935203812F2496E3E00C9498
:103C8000BF304F925F927F928F929F92AF92BF927E
:103C9000CF92DF92EF92FF920F931F93CF93DF9318
:103CA0000F92CDB7DEB7C62E4A015901482E880FB4
:103CB0005508C2010E941E30782E882309F480C066
:103CC000C20133E0880F991F3A95E1F7FC01EE5FDE
:103CD000FE4F438150E04115510511F041E050E0A5
:103CE0008E5F9E4FFC01648175816D5A7C4FCE01C1
:103CF00001960E949931F401408151816281738162
:103D00002FB7F8948091D9049091DA04A091DB0444
:103D1000B091DC042FBF841B950BA60BB70B843628
:103D20009105A105B10540F4B701C8010E9408053D
:103D30009981891709F444C00C2C000CDD08C601D8
:103D40000E941E30782E811113C0712C872D0F9088
:103D5000DF91CF911F910F91FF90EF90DF90CF9067
:103D6000BF90AF909F908F907F905F904F900895FD
:103D7000C60123E0880F991F2A95E1F7FC01EE5F49
:103D8000FE4F438150E0E416F50608F4A7018E5F6C
:103D90009E4FFC01648175816D5A7C4FC5010E9464
:103DA0009931B701C8010E94080599818913CDCFC7
:103DB0000E948C04F4016083718382839383C6CF55
:103DC000A701B801C5010E949931C0CFA1E0B0E0C0
:103DD000ECEEFEE10C949D30EE24E394F12C0AE528
:103DE00013E09E012F5F3F4F4BE453E063E082E01E
:103DF0000E94411EC82E882339F100E080E01DC0DA
:103E0000D0907003D00E2D2D30E0A90144565C4FA8
:103E10007A01E1E0F0E0EC0FFD1FE00FF11D1081F1
:103E2000FA019081191BB12E1B149CF0912F17FDE4
:103E300090E0191B111118C00F5F90916F030917C3
:103E4000F8F281110E9471118C2D2196E9E00C94F9
:103E5000B930BA94F70180818F5F808360E08D2D47
:103E60000E9478188C2DE0CF1F5FF7018081815070
:103E7000808361E08D2D0E9478188C2DDBCFA5E02A
:103E8000B0E0E5E4FFE10C949E306B0185E0E82EA4
:103E9000F12C04E513E09E012F5F3F4F47E453E010
:103EA00061E080E00E94411E882349F095E0FE0118
:103EB0003196A2E4B3E001900D929A95E1F795E076
:103EC000E2E4F3E0D60101900D929A95E1F7259690
:103ED000E8E00C94BA309091800392FB222720F9FD
:103EE000281779F080FB92F99093800360917F030B
:103EF0007091800384E090E00E94863182E00E940D
:103F00009012089567EE7EEF90E080E00E94863187
:103F100060E082E090E00E94683160E083E090E041
:103F20000E946831109231031092300360E074E116
:103F300084E090E00E94863160E086E090E00E949C
:103F400068316FEF87E090E00E94683140E050E018
:103F5000BA0188E090E00E947A3160E08DE090E064
:103F60000E94683140E050E0BA0188E190E00E9490
:103F70007A3160E087E190E00E94683140E050E0F3
:103F8000BA018CE190E00E947A3170E060E080E25A
:103F900090E00E94863140E050E0BA0188E190E074
:103FA0000E947A3140E050E0BA018FE090E00E9438
:103FB0007A3140E050E0BA0183E190E00E947A312A
:103FC0000895A5E0B0E0E7EEFFE10C9494303C01E9
:103FD000FC0183819481892B31F080819181892337
:103FE0008F3F09F04AC62596E2E10C94B0300E945A
:103FF000B511182F682F89819A810E942912698131
:104000007A81812F0E9434108C0181349E4761F1A6
:104010000E9498042C01F301828181117AC0809161
:104020004A018F7E013E110539F0053E110509F068
:10403000C3C180914A018F7D80934A0180914A01DA
:1040400080FF8BC0F30182810B32110509F4D1C1CD
:1040500008F0C4C19801245031092432310508F414
:10406000C8C1811176C079C081E00E945F12F3015E
:104070001281882381F1112351F00E9498049093BA
:10408000C5028093C40283E00E94AC1212C083E098
:104090000E947E128091C4029091C5020E947D040C
:1040A000883C910530F470E060E08DE290E00E9481
:1040B0005E1880912603877009F495CFF301828101
:1040C000882309F490CF8091800382FF8CCF82E017
:1040D0000E94901288CF82E00E945F12882399F09C
:1040E0001111CBCF83E00E947E128091C402909187
:1040F000C5020E947D04883C9105D8F670E060E01E
:104100008DE292E0D4CF83E01111BECF0E947E12E7
:10411000D0CF80914A0182FF07C046E953E0B20147
:1041200090E080E00E94B1170231FCE71F0709F41C
:104130004DC0F0F400313CE7130709F441C00131F0
:104140008CE7180799F1C80190528115904308F047
:1041500075CF1092D1041092D004F801E851FC47B9
:10416000E730F10508F0C5C1EF52FE4C0C94343134
:1041700004319CE71907B1F078F090914A01892F3A
:104180008E7F90FF81600531FCE71F07E1F6809389
:104190004A010E942116D7CF80914A018160809305
:1041A0004A01D1CF80914A018E7FF1CF80914801A1
:1041B0009091490105969093490180934801C3CF9E
:1041C00080914801909149010597F5CF8090480171
:1041D0009090490180910001909101018816990603
:1041E000F9F48091CC028032D9F4E6ECF2E07F0160
:1041F00081918032E1F36AE0262EF70120812223AB
:1042000009F4A1CF213009F082C0918182819130DF
:1042100009F041C0F2E0EF0EF11C0E94331742C0DA
:10422000909201018092000180E28093CC02B12C37
:10423000A12C1092CB0276ECC72E72E0D72EE1ECC7
:104240002E2EE2E03E2E7601C501B4012AE030E0D8
:1042500040E050E00E94F330605D603319F4CE140A
:10426000DF0431F081149104A104B10409F460E287
:10427000F7016483C501B4012AE030E040E050E07A
:104280000E94F33049015A01F1E0EF1AF1082E14AF
:104290003F04D1F6AACF923049F422E0E20EF11C9D
:1042A0000E94BF163FEFE31AF30AA7CF933031F411
:1042B00032E0E30EF11C0E946A16F4CF943021F034
:1042C0008FEFE81AF80AEECF92E0E90EF11C30E029
:1042D00020E0A7014F5F5F4F8053990B8A30910513
:1042E00050F021503109F0F28FE99FE00197F1F78A
:1042F00000C00000F6CF229EB001239E700D112455
:104300009C01260F371FF70181817A01E2CFE22F4E
:10431000F0E0E452FF4F3490822F86958695869583
:1043200090E0FC01E453FF4FA4902770B12C022EC3
:1043300002C0B594A7940A94E2F7E1E0AE22BB2450
:10434000FC01E454FF4F8490912C022E02C09594FE
:1043500087940A94E2F7F1E08F229924FC01E45556
:10436000FF4FC490D12C02C0D594C7942A95E2F790
:1043700021E0C222DD24A114B10419F081EE0E94D3
:10438000BF168114910419F086EE0E94BF16832D8A
:104390000E9433178114910419F086EE0E946A1668
:1043A000A114B10419F081EE0E946A16C114D1045F
:1043B00009F478CF8CE231CFC80190528115904337
:1043C00008F03CCE80914A0182FFC7CE46E953E017
:1043D000B20190E080E00E94B117BFCE0D3211050E
:1043E00008F43FCE0933110520F00436110509F019
:1043F00038CE882309F459C080912F039091AC04E2
:10440000982B292F2D7F61F11092D1041092D004A6
:10441000F80144E0F695E7954A95E1F7EE0FFF1FA6
:10442000E255FB4F98012F70332781E090E002C0E6
:10443000880F991F2A95E2F7809590952081318108
:104440008223932391838083C8010E9499178091CE
:104450002F038D7F0E947A1182E00E94901229CE54
:1044600026E0F301A6E9B3E001900D922A95E1F769
:104470001092980310929A031092990320914A0186
:1044800091FB21F920934A018D7F0E947A111093AC
:10449000D1040093D0045092CF044092CE04809176
:1044A0004A01846080934A01D7CFA301B201C801B9
:1044B0000E94B117FECD26E241EE61EEC3010E94DB
:1044C0003C17F7CD27E245EE65EEF8CF26E241EE48
:1044D00060EEF4CF27E245EE64EEF0CF26E241EE47
:1044E00062EEECCF27E245EE66EEE8CF28E241E04F
:1044F000EBCFF3018281882309F4E6C310922305F0
:10450000C8019057839708F0C9C384E090E00E94E7
:1045100052319093800380937F03F801E150F0477C
:10452000E232F10520F4E852FE4C0C9434318091D3
:104530007F03816080937F0395C0809180038860B2
:10454000809380038FC080917F038260F3CF80913E
:104550007F038460EFCF80917F038860EBCF8091F1
:1045600080038160EDCF809180038260E9CF8091EC
:104570007F038061DFCF80917F038062DBCF8091FA
:104580007F038064D7CF0E949B1A80917F0380684D
:10459000D1CF80917F038C60CDCF809180038360E9
:1045A000CFCF80917F038E7FC5CF80918003877F9F
:1045B000C7CF80917F038D7FBDCF80917F038B7F9D
:1045C000B9CF80917F03877FB5CF809180038E7FA5
:1045D000B7CF809180038D7FB3CF80917F038F7E93
:1045E000A9CF80917F038F7DA5CF80917F038F7BA3
:1045F000A1CF0E949B1A80917F038F779BCF8091E0
:104600007F03837F97CF809180038C7F99CF8091A8
:104610007F0382FB992790F921E0922790FB82F992
:1046200090FB83F987CF80918003982F90959170AC
:104630008E7F892B90FB81F983CF90917F03892F07
:104640008F7B96FF806476CF0E949B1A90917F03A8
:10465000892F97FB87F980586DCF61E08EE090E05D
:104660000E94683160917F037091800384E090E044
:104670000E9486310E949B1A1CCD60E0EFCF909182
:104680007F03892F8F7E94FF806154CF90917F03A9
:10469000892F8E7F90FF81604DCF90918003892F6D
:1046A000877F93FF88604CCF85E317C380912505F2
:1046B00091E089278093250510924F018091240570
:1046C000816080932405F5CC48E855E062E975E007
:1046D0000E941E05EECC42E955E068E875E0F8CF8F
:1046E00044E755E06EE775E0F3CF4EE755E064E749
:1046F00075E0EECF4AE555E067E675E0E9CF47E6BD
:1047000055E06AE575E0E4CF40E455E06DE475E01E
:10471000DFCF4DE455E060E475E0DACF44E255E0E8
:1047200062E375E0D5CF42E355E064E275E0D0CFB7
:1047300081E00E94F402BDCC85E0FBCF8DE0F9CF93
:1047400082E1F7CF0E949B1AFFEF24E33CE0F15097
:1047500020403040E1F700C0000081E08093E0009D
:1047600080E28093D8001092C9008FE19EE4019707
:10477000F1F700C0000087E090EBDC0180932B058F
:1047800090932C05A0932D05B0932E0588E19CE015
:104790000FB6F894A895809360000FBE90936000C8
:1047A000FFCF6FEF7FEF90E080E00E9486310E94A4
:1047B000731D8091800382FB882780F991E089270F
:1047C0000E946B1FF301828100811181882309F40B
:1047D00049C0C8010E94B511F82E682FC8010E9477
:1047E0002912B8018F2D0E9434100E9453108C01A1
:1047F000A82EF301F280D580D2943FE0D32280919D
:1048000026038770F1F0CF2CFF20E1F0812F807F0D
:10481000803451F080E2800F883098F0D11004C0CD
:10482000812F807E803269F08091800382FF09C0F1
:1048300082E00E949012809126038770CC24C3945A
:104840008111C12CB12EB2942FE0B222FBE0FB15F6
:1048500008F474C0EB2DF0E0E650FE4C0C943431BB
:1048600080E0AECFC8010E94F611F82EBACF212FFA
:104870002F70E22E107F19F0E29490EFE922FF20D2
:10488000B9F0EE2069F080E2800F883010F0A110BE
:1048900009C08091AC04E82AE092AC040E94E415BF
:1048A000802F4AC08091AD04E82AE092AD04F6CF93
:1048B000802F0E946A16EE2009F440C0005E083086
:1048C00010F0A11004C08E2D0E94841106C0E09447
:1048D0008091AD04E822E092AD040E94E4152EC060
:1048E000312F3F70E32E107F103219F0E29480EFE9
:1048F000E822AA2089F081E0A81609F476C0FF20FA
:1049000009F480C0DD2009F476C0F301858180FFC1
:10491000C7CF8F7085836FC08091800382FD43C0B5
:10492000FF20D9F1EE2039F08091AC04E82AE09222
:10493000AC040E94E41580E00E94BF16EB2DE85005
:10494000FF0B349710F40E94CE14CC20A9F0809174
:10495000260380FD11C0F30112828595859585950A
:104960000E94AC12C3010E94E11F8091260385952D
:10497000859585950E947E1285E0F301DE011196F2
:1049800001900D928A95E1F709811A81C8010E9470
:10499000F611B8010E94341026CB80E00E946A16FE
:1049A000EE2061F290CFFF2071F080912F038E29CD
:1049B000D11003C00E946016C1CF91E0D912FACF86
:1049C0000E947A11BBCFD11006C00E9474118E2DA7
:1049D0000E945916B3CFE1E0DE1609F4AFCF8E2D59
:1049E0000E9459160E947411A9CFFF2031F0F5E002
:1049F000FD1508F4A3CF8E2DDDCF24E02D1508F48E
:104A00009DCFE5CFDD2019F3F9E3AF122FC12FEFD2
:104A100037EE83E0215030408040E1F700C00000D5
:104A200025C1812F86958695837061F0813009F0CC
:104A300085CFC8019370F11002C080E090E00E9421
:104A4000BE047CCFC8019370F11002C080E090E0FA
:104A50000E94E30473CF6F2D802F0E94EB126ECF64
:104A6000812F837009F03FC0F11068CF402F42952D
:104A700046954770440F440F802F8F7090E0042EAE
:104A800002C0880F991F0A94E2F730E020E004FF8B
:104A900009C02FE030E002C0220F331F4A95E2F731
:104AA00020953095169516951370123099F078F47C
:104AB0004091300350913103113039F0822B932B08
:104AC000842395230E94BC1239CF842B952B822BF3
:104AD000932BF8CF822B932B20913003309131030D
:104AE00082279327EFCF8695FF2011F0812F8170C9
:104AF000882309F423CF402F429546954770440FF1
:104B0000440F802F8F7090E0042E02C0880F991FF1
:104B10000A94E2F730E020E004FF09C02FE030E023
:104B200002C0220F331F4A95E2F720953095169563
:104B300016951370123099F078F440917D035091DE
:104B40007E03113039F0822B932B842395230E940E
:104B50007912F4CE842B952B822B932BF8CF822BBA
:104B6000932B20917D0330917E0382279327EFCFF3
:104B70001F70FF2029F0812F0E94AC12802F1ACFC6
:104B8000802F0E945916812F0E947E12D7CE802F2F
:104B900092EFA91699F19A1570F0E0EFAE16D1F0E8
:104BA000F1EFAF1691F0FF2009F45BC0D11078CE81
:104BB000812F8F7127C023EFA21639F134EFA31292
:104BC000F2CF8091800382FD2EC0812F8F71FF2054
:104BD000D9F218C0FF2069F084E08D1508F4AECE3C
:104BE0001F7181E090E002C0880F991F1A95E2F7CB
:104BF000B8CF95E09D1508F4A1CEF2CF812F8F712B
:104C0000F110C2CF0E94AC1299CE90E080E0FF205C
:104C100009F49DCF1F7181E090E002C0880F991FB9
:104C20001A95E2F794CFFF2089F01F71812F0E941F
:104C3000AC128091800382FF07C0E8E01E9FC00194
:104C40001124836080932603812FDCCF81E00E94B2
:104C50009012F1E0FD1508F071CE82E00E949012F2
:104C60006DCEDD2039F0893309F4D1CE802F0E943A
:104C70006A1664CE812F8F7187CF85E0DE01119691
:104C800001900D928A95E1F7F301228189819A8141
:104C90002111ADC90E94F611182FB1C90631FCE7E8
:104CA0001F0749F58091AC048A7A91E009F490E0FD
:104CB0009093CD0269E2811165E38CEB92E00E9452
:104CC000A4040E94E415F5C906312CE7120799F5F2
:104CD0008091CD028111E8CC89E2EEEBF2E024EC88
:104CE00032E09191891303C0DF0111971C922E17B6
:104CF0003F07B9F7E6CF03303CE7130709F451CD7E
:104D000050F401159CE7190709F41CCD01301C472C
:104D100009F44DCD57CD0B35FCE71F0709F4A0CDA5
:104D20000C352CE7120709F444CD0A351C4709F06D
:104D300049CD81E045CD8091AC048272F801E0520A
:104D4000F847E531F10508F03DCDEA5FFD4C0C94E4
:104D500034311F93CF93DF938091F302807F09F06A
:104D60004BC08091F002882309F446C0809125034E
:104D7000C091F4024091EE025091EF026091F10275
:104D80007091F202D42FD52316E0C817A9F190E054
:104D900061157105A9F1DF3F99F1189FF001199F85
:104DA000F00D1124DF01AB50BD4F11962C911197DE
:104DB000251326C02C91241323C012962C911297F0
:104DC00021111EC013962D913C91261B370B283CB8
:104DD0003105B0F48091F3028F7080618093F3020B
:104DE000E650FD4F80818F70806180838EEE92E06F
:104DF0000E94E11F0E94AB11DF91CF911F91089596
:104E000001968770C2CFA1E1B0E0E9E0F7E20C942F
:104E10009A308C0185E0F801DE011D9601900D921B
:104E20008A95E1F7F801E2808EEE882E82E0982ED6
:104E30004091F1025091F2024115510509F430C13F
:104E40009091EE022091EF02892F82238F3F09F487
:104E500027C1D080C180A380B480F090F002B5015A
:104E6000641B750BFF2009F4E7C08091F302382F13
:104E7000307F683C710508F0ABC0311178C0FE2C62
:104E80002C1114C09D1112C0E11010C08F708061F0
:104E90008093F302C4010E94E11F8091F302F801A4
:104EA00085838F2D6196ECE00C94B630A114B1048B
:104EB000C9F18D2D8C218F3FA9F181E08E2580FFD6
:104EC00005C04E2D6C2D8D2D0E948B11A114B104A7
:104ED00059F18D2D8C218F3F39F181E08E25F82FEE
:104EE000F170BF2E80FF39C04E2D6C2D8D2D0E948C
:104EF0008B11A82E811131C0DD86CE868D859E85D1
:104F00000E94E911292F22952F70243078F49F7088
:104F10002230A8F09923B9F0F8019581907F99F497
:104F2000FA2CBFCF80E0CBCF80E0D9CF2A5F2F70A3
:104F3000223068F0C8010E94E11FAB2CF1CF992309
:104F400011F0882369F3805E883050F3F3CF803FFF
:104F500038F3815F833070F7E3CFEE2009F4A1CFFF
:104F60008091F30281608093F302F12C9ACF2C118F
:104F700005C09D1103C0EE2009F477C0C8010E944E
:104F8000C112882309F1EE20F9F08091F3028032FA
:104F900070F02091EE023091EF0238872F8319864E
:104FA000BB86AA868C87CE0107960E94E11F86E009
:104FB000F801AEEEB2E001900D928A95E1F70E9401
:104FC000A926FF24F3946DCFC8010E94E11FF9CFF9
:104FD00031110AC08EEE92E00E94E11F86E0F401DA
:104FE00011928A95E9F7C1CF2C110EC09D110CC00A
:104FF000E1100AC08583C8010E94E11F86E0F40128
:1050000011928A95E9F74DCFC8010E94C1128823F9
:10501000D9F2EE20C9F28091F302803240F2209161
:10502000EE023091EF023A8329831B82BD82AC826B
:105030008E83CE010196B9CF683C7105F8F6FE2C3F
:10504000EE2011F22C111EC09D111CC08091F302A4
:1050500080FD0FC0982F907F61F08583903F31F0E5
:10506000982F907F905F8F70892B8583C8010E9455
:10507000E11F86E0F801AEEEB2E001900D928A9554
:10508000E1F70FCFC8010E94C112811190CF80912A
:10509000F30281608093F302C8010E94E11F01CFF7
:1050A000EE2009F491CFC8010E94C112F82E882386
:1050B00009F48ACF86E0F801AEEEB2E001900D92DD
:1050C0008A95E1F78091EE029091EF020E94E9113A
:1050D0000E94A926E6CEA7E1B0E0E1E7F8E20C9451
:1050E000A3304B8B5C8B6D8B7E8B8F8B6111109201
:1050F000AD041A8A198A85E0FE017396DE011D96B9
:1051000001900D928A95E1F786E0FE013D96DE0161
:10511000179601900D928A95E1F7CE0107960E94AD
:105120000327882359F016E0809125039091F4021B
:10513000891343C06796E3E00C94BF3086E0FE011C
:105140003796DE01119601900D928A95E1F78A85D6
:105150009B85892B41F38F81988589238F3F19F394
:105160002091F40230E0C90101968770992740919F
:1051700025034817190671F40E949B1A1092F40235
:105180001092250386E0EEEEF2E0DF011D928A9593
:10519000E9F7C9CF96E0929FD001939FB00D1124FB
:1051A000AB50BD4FFE01319601900D929A95E1F7FB
:1051B0008093F4020E94AB11B6CF819FC0011124ED
:1051C0008B509D4F0E940327882309F4B3CF809111
:1051D000250390E001968770992780932503A4CF3B
:1051E000A5E0B0E0E6EFF8E20C94A2300E9498044B
:1051F0008C01809132039091330380179107A1F0C5
:105200008FEF89838A831B820E9498048160782FA4
:105210009D838C8349815A816B818D810E946B288B
:1052200010933303009332032596E4E00C94BE30D0
:105230001F920F920FB60F9211242F933F934F930B
:105240005F936F937F938F939F93AF93BF93CF930E
:10525000DF93EF93FF93D091E900DF708091EC0032
:10526000C82FC17080FDC0E81092E9008091F00065
:10527000877F8093F00078940E94C21A1092E90010
:105280008091F00088608093F000CD2BCF70C093A8
:10529000E900FF91EF91DF91CF91BF91AF919F9185
:1052A0008F917F916F915F914F913F912F910F90CF
:1052B0000FBE0F901F9018951F920F920FB60F926E
:1052C00011242F933F934F935F936F937F938F930B
:1052D0009F93AF93BF93EF93FF938091E10082FF81
:1052E00009C08091E20082FF05C08091E1008B7FC0
:1052F0008093E1008091DA0080FF24C08091D80083
:1053000080FF20C08091DA008E7F8093DA00809148
:10531000D90080FF9DC080E189BD82E189BD09B4CB
:1053200000FEFDCF81E08093EA048091DD048111CD
:1053300009C00E9420030E94C1038091E2008460A2
:105340008093E2008091E10080FF17C08091E2002D
:1053500080FF13C08091E2008E7F8093E2008091F5
:10536000E20080618093E2008091D80080628093A7
:10537000D80019BC85E08093EA048091E10084FFA5
:105380002BC08091E20084FF27C080E189BD82E1CB
:1053900089BD89B5982F917080FFFBCF8091D8008F
:1053A0008F7D8093D8008091E1008F7E8093E10013
:1053B0008091E2008F7E8093E2008091E200816024
:1053C0008093E2008091EB04882309F447C084E0D5
:1053D0008093EA048091EA048091E10083FF27C072
:1053E0008091E20083FF23C08091E100877F80935A
:1053F000E10082E08093EA041092EB048091E100E6
:105400008E7F8093E1008091E2008E7F8093E200A6
:105410008091E20080618093E20042E060E080E001
:105420000E948F038091F00088608093F000FF91CC
:10543000EF91BF91AF919F918F917F916F915F910C
:105440004F913F912F910F900FBE0F901F90189585
:1054500019BC1092EA041092DD0474CF8091E3002D
:1054600087FD93E09093EA04B5CF78941F921FB61E
:105470001F9211248F939F93AF93BF938091D90470
:105480009091DA04A091DB04B091DC040196A11D97
:10549000B11D8093D9049093DA04A093DB04B093F8
:1054A000DC04BF91AF919F918F911F901FBE1F9001
:1054B00018951F921FB61F9211248F939F93AF933D
:1054C000BF938091D804811113C08091D904909129
:1054D000DA04A091DB04B091DC044196A11DB11D5A
:1054E0008093D9049093DA04A093DB04B093DC0496
:1054F000BF91AF919F918F911F901FBE1F901895E4
:10550000CDB7DEB72F970FB6F894DEBF0FBECDBF75
:1055100085B7806885BF85B7806885BF84B7877F7A
:1055200084BF0FB6F894A89580916000886180933D
:105530006000109260000FBE80E890E00FB6F89413
:1055400080936100909361000FBE81EF99E090938A
:10555000BB028093BA020E9420030E94C103809183
:10556000E20084608093E20078948091EA048823CA
:10557000A1F01091E9001F709091EC00892F8170CB
:1055800090FD80E8182B1092E9008091E80083FDDF
:105590000E94C21A1F701093E90082E084BD93E05C
:1055A00095BD9AEF97BD80936E0010926B03109299
:1055B0006C0310926D0310926E0355985D988FE8FE
:1055C00091E00197F1F700C000000E94F309809379
:1055D0003D010E94AB1481110E94322F90913D0138
:1055E00081E098279093A003A82FA91BA093700394
:1055F00090913D018093A10390913D0180936F03B1
:1056000023982B9A22982A9AEFE8F1E03197F1F744
:1056100000C000002091A10342EA53E0FA018E2F5E
:10562000841B821708F4BDC180913D0181112CC0FB
:1056300085E0E3E5F1E0DE01179601900D928A9591
:10564000E1F78F81809338018885809339018985BE
:1056500080933A018A8580933B018B8580933C013E
:1056600086E0E8E5F1E0DE01119601900D928A9561
:10567000E1F7FE013196A2E3B1E0CE010796219158
:105680002D93E817F907D9F780913D0195E0811135
:1056900090E090937C0385E0891B80937B0308E373
:1056A00011E08DE3E82E81E0F82ED8018D918D0177
:1056B0008F3F11F00E94380FE016F106B1F702E3B8
:1056C00011E0F80181918F018F3F11F00E94380F96
:1056D000F1E008331F07A9F78AE0E1E8F3E0DF0112
:1056E000282F1D922A95E9F7E1E7F3E0DF011D92EB
:1056F0008A95E9F790E080E00E945231873E9E4F04
:1057000011F00E94821F82E090E00E944A31809353
:105710008B0384E090E00E94523190938003809349
:105720007F0383E090E00E944A3190E00E94BC1227
:105730001092F8048FEF9FEF90931205809311055C
:105740009093140580931305909316058093150587
:10575000909318058093170590931A058093190567
:1057600090931C0580931B0590931E0580931D0547
:105770009093200580931F051092B2039093CC0361
:105780008093CB039093CE038093CD039093D0036B
:105790008093CF039093D2038093D1039093D4034B
:1057A0008093D3039093D6038093D5039093D8032B
:1057B0008093D7039093DA038093D90390E080E03D
:1057C0000E945231873E9E4F21F00E94821F0E940C
:1057D000C91581E08093240546E050E06CE170E05B
:1057E00085E295E00E943A311092240580912505CA
:1057F0008C7F11F40E94C9150E94AB14811102C064
:105800000E94352F8EE391E09093D5048093D404C9
:105810008091EA04853089F400E4F02EEE24E394CC
:1058200000E112E18091EA04853009F4C6C00E94CB
:105830009B1A0E94CE141092DF030E94DE181CE80F
:10584000212E13E0312EA1E8B3E0BD87AC87F10132
:1058500091918D9123E0E639F20709F4F5C098178C
:10586000B9F30E94AB148F87B1EB8B2EB1E09B2E66
:10587000E12CAC85BD85DD90BD87AC87F1016190E1
:105880001F016D1409F483C06D242401C12C7724F9
:105890007394862D872109F46FC0FD2CF720FF85B6
:1058A000FF2399F0CF82E88681E0F11001C080E00B
:1058B00089870E9498048160782F9B878A874F810F
:1058C000588569858B850E946B28FF2041F0D201A5
:1058D0008C91F12C8F3F19F08E87FF24F3940F2DBC
:1058E00010E08091B203800F912F911D09976CF108
:1058F000E8E0AE2EB12CA01AB10AB8016D547C4F6D
:10590000A50183EB93E00E949931B80165547C4F67
:10591000A5018BEB93E00E949931A501440F551F1F
:10592000B801660F771F65537C4F8BEC93E00E94A4
:105930009931B8016D537C4FA50183EC93E00E942F
:10594000993188E08F198093B2038091B20390E07F
:10595000EE85AE2FB0E09D01220F331F23513E4F45
:10596000AA0FBB1FBD0162517E4F41E0480F9F153A
:1059700008F478C18093B203C394770CEFEF4E1A0A
:105980005E0AF6E0CF1285CFF1013197D082E39421
:1059900026E0820E911C4AE0E4126BCF0E948C0438
:1059A00057C083B183FB882780F91A9904C090E01F
:1059B000892B819334CE92E0FBCF8091EA0484302E
:1059C00009F430C00E941A158091DF03811105C0CF
:1059D0000E94EA0C80E00E949D05E092DF03109295
:1059E000D80448E150E00FB6F894A89540936000C1
:1059F0000FBEF092600083B7817F846083BF83B75E
:105A0000816083BF7894889583B78E7F83BF0FB6FC
:105A1000F894A8958091600088618093600010924E
:105A200060000FBE8091E904882309F4FBCE0E9438
:105A3000DE18E1E8F3E0819181119CC18BE893E0ED
:105A40008E179F07C1F7EECE98130BCF0E94F02858
:105A50000E94AB148823E9F080914A0182FF19C0AB
:105A60000E9498042091CE043091CF04AC01421BD7
:105A7000530B20914801309149014217530748F0D8
:105A800046E953E0BC018091D0049091D1040E947A
:105A9000B1170E941A15E12CD12C8091A103E816B0
:105AA00008F4F6C0D1100E94711186E0ECEAF3E030
:105AB000DE01119601900D928A95E1F71092AE03E6
:105AC0001092AF031092B0031092B1038B819C81AE
:105AD000892B09F44AC08091AA039091AB030E94DC
