:100000000C94BC020C94EB310C94F4020C94F402AA
:100010000C94F4020C94F4020C94F4020C94F40288
:100020000C94F4020C94F4020C94AC2A0C94682AFC
:100030000C94A92B0C94F4020C94F4020C94F4028A
:100040000C94F4020C94F4020C94F4020C94F40258
:100050000C94F4020C94852B0C94F4020C94F4028E
:100060000C94F4020C94F4020C94F4020C94F40238
:100070000C94F4020C94F4020C94F4020C94F40228
:100080000C94F4020C94F4020C94F4020C94F40218
:100090000C94F4020C94F4020C94F4020C94F40208
:1000A0000C94F4020C94F4020C94F402000000008E
:1000B0000000000000000000000000000000000040
:1000C0000000000000000000000000000000000030
:1000D0007E0F00D4FFFFFFC7000000780000000083
:1000E000000000002A2B2800000000000000000093
:1000F0000000000000000029000000002C1E342039
:10010000212224342627252E362D3738271E1F205E
:100110002122232425263333362E37381F040506A3
:100120000708090A0B0C0D0E0F10111213141516E7
:100130001718191A1B1C1D2F3130232D35040506E5
:100140000708090A0B0C0D0E0F10111213141516C7
:100150001718191A1B1C1D2F3130354C2E001E008C
:100160001F002000210022002B2F14001A0008007D
:1001700015001700292104211624072809220A2F17
:10018000E1001D001B400640194005000000000072
:10019000E00028412B282C082D00270026002500F0
:1001A000240023002A00130012000C0018001C0079
:1001B000340033210F240E280D220B2F1E7C380013
:1001C000370036001000110000000000E6002C424D
:1001D0002A22AE0044003A003B003C003D003E00B5
:1001E00001001E021F0220022102220201002E2114
:1001F0002D242F283022010001002E022D022F0273
:1002000030020100000000000100010001002C0983
:10021000450043004200410040003F00010027022A
:100220002602250224022302010030222F28312435
:1002300035210100010030022F0231023502737CAA
:1002400000000000010001004C22A8002078217865
:100250002778237825782978010035002D002E0095
:10026000310000000100E000E200E300E100000FC7
:10027000010000002F0830082F0A300A000000009B
:100280000100010001002C09007CAE00AB00A900B8
:10029000AA00AC00010035022D022E02310200003E
:1002A000010000004F00520051005000010000000A
:1002B0004D004B004E004A0000000000010001000C
:1002C0000100010044003A003B003C003D003E00BC
:1002D0000100000000000000D90000000100000043
:1002E0000000D300D100D200010000000000000097
:1002F00000000000000000000100010001000100FA
:10030000450043004200410040003F000100000062
:100310000000000000000000007C0000D000CD00C4
:10032000CE00CF0001000000DC00D900DA00DB00C5
:1003300000000000010001000100010000010101B6
:100340000101010101010202020202020202020392
:100350000303030303030304040404040404050562
:100360000505050606060606070707070708080825
:1003700008090909090A0A0A0B0B0B0C0C0C0D0DD4
:100380000D0E0E0E0F0F0F1010111111121213136C
:100390001414151516161717181819191A1A1B1BE5
:1003A0001C1D1D1E1E1F2020212222232424252641
:1003B00026272829292A2B2C2D2D2E2F3031323279
:1003C000333435363738393A3B3C3D3E3F40414285
:1003D000434445464748494A4C4D4E4F505153546B
:1003E000555658595A5B5D5E5F616264656668691F
:1003F0006B6C6D6F7072737577787A7B7D7E80829F
:10040000838587888A8C8E8F91939596989A9C9EE7
:10041000A0A2A3A5A7A9ABADAFB1B3B5B7BABCBEF7
:10042000C0C2C4C6C9CBCDCFD1D4D6D8DBDDDFE2C4
:10043000E4E7E9EBEEF0F3F5F8FAFDFF0501090258
:10044000A10185020901A10005091901290815006A
:1004500025019508750181020501093009311581D1
:10046000257F95027508810609381581257F95013C
:1004700075088106050C0A38021581257F950175DE
:10048000088106C0C005010980A101850319012A60
:10049000B700150126B700950175108100C0050C45
:1004A0000901A101850419012AA002150126A00253
:1004B000950175108100C005010906A10105071904
:1004C000E029E71500250195087501810295017560
:1004D0000881010507190029FF150026FF00950670
:1004E00075088100050819012905150025019505E4
:1004F00075019102950175039101C009023B00024B
:100500000100A0FA09040000010301010009211102
:1005100001000122440007058103080001090401CC
:10052000000103000000092111010001227B0007E6
:10053000058203200001120100020000000810CB18
:1005400056642006010200011A0349007200690086
:10055000730020005200650076002E002000360057
:10056000620000000E034B00650065006200690038
:100570006F0000000403090411241FBECFEFDAE06E
:10058000DEBFCDBF04B603FE18C0809199059091DF
:100590009A05A0919B05B0919C058730904BA74090
:1005A000B04B59F41092990510929A0510929B0540
:1005B00010929C05E0E0F8E3099525E0A8ECB2E094
:1005C00001C01D92A939B207E1F712E0A0E0B1E045
:1005D000ECE1FAE602C005900D92A83CB107D9F70C
:1005E0000E94D02B0C9493340C94000090919105B0
:1005F000937061F081110BC09460909391051092FB
:100600005D01809190058160809390050895853209
:1006100010F09069F2CF880F880F982BEECF482FFB
:1006200020915F059091260557E0291302C080E0D4
:10063000089530E0529FF001539FF00D1124E95DC1
:10064000FA4F8181681306C08081481303C08581F9
:100650008111EECF2F5F3F4F2770E7CF909191052B
:10066000937071F08093920560939305413A08F07E
:1006700040EA4093940580919005816080939005B5
:100680000895E8EDF0E080818E7F80831092E20093
:100690001092DA001092E100A0EEB0E08C9181603F
:1006A0008C9380818F77808319BCA7EDB0E08C910B
:1006B0008E7F8C9380818F7E808310920F050895AA
:1006C0002091E4003091E50095E6A9012091EC002D
:1006D000822F817020FF06C08091E80080FF06C055
:1006E00080E008952091E80022FD1AC080911C0549
:1006F000882389F0853089F08091EB0085FD0FC05B
:100700002091E4003091E50042175307F9F291502F
:10071000E1F684E0089582E0089583E0089581E0A1
:10072000089580911E0587FF13C08091E80082FF25
:1007300006C08091E8008B778093E80004C0809128
:100740001C058111F2CF089580911C058823D9F3EF
:100750008091E80080FFF8CF8091E8008E77ECCFA1
:10076000982F9093E900242F762F50E0891731F0CD
:100770007091EC002091ED005091F00021FD07C038
:100780009F5F973071F78093E90081E00895309181
:10079000EB003E7F3093EB003091ED003D7F3093D6
:1007A000ED003091EB0031603093EB007093EC0082
:1007B0002093ED005093F0002091EE0027FDE0CF54
:1007C00080E00895B0E0A0E0E8EEF3E00C9411338F
:1007D000C8EDD0E088818F7E8883E7EDF0E08081EE
:1007E0008160808384E082BF81E080930F058881EF
:1007F0008E7F888302EE10E0F80110821092DA00FA
:1008000081EEC82ED12CF601108288818F778883E3
:1008100088818068888388818F7D888319BC109245
:100820001C0510921D0510921B0510921A0590EEE2
:10083000E92EF12CF70180818B7F80838881816094
:10084000888342E060E080E00E94B003F60180818E
:100850008E7F8083F80180818160808380818860C1
:100860008083F70180818E7F808388818061888387
:10087000CDB7DEB7E8E00C942D33FC018091240560
:100880009091250586179707A0F06115710529F449
:100890009091E8009E779093E80090E061157105D3
:1008A00051F4911108C08091E80082FF34C080E0CB
:1008B0000895BC01F2CF80911C058823C1F18530D9
:1008C000C1F18091E80083FD30C08091E80082FD95
:1008D000EACF8091E80080FFE1CF8091F300209182
:1008E000F200382F6115710519F02830310558F0E4
:1008F00091E02830310509F090E02091E8002E7752
:100900002093E800CBCF81918093F1006150710971
:100910002F5F3F4FE7CF80911C05882341F0853042
:1009200041F08091E80083FFBECF81E0089582E02E
:10093000089583E0089508958091110508959C011C
:100940004FB7F89480910B0590910C05A0910D057F
:10095000B0910E054FBF821B930B08952FB7F894EB
:1009600060910B0570910C0580910D0590910E051D
:100970002FBF08952FB7F89480910B0590910C0527
:10098000A0910D05B0910E052FBF08959C01FC01AB
:1009900032969FEF80E04191461751F09F3F19F446
:1009A000411101C0982F8F5F8630A9F79F3F09F44E
:1009B0000895290F311D97FD3A95F9016283089535
:1009C000A3E0B0E0E6EEF4E00C94173320910805C4
:1009D0003091090528173907A1F0909309058093F4
:1009E0000805E0910605F0910705309751F024E0E5
:1009F00029839B838A830084F185E02DCE010196B3
:100A000009952396E2E00C943333A3E0B0E0EBE0E9
:100A1000F5E00C9417332091040530910505281753
:100A20003907A1F09093050580930405E091060530
:100A3000F0910705309751F023E029839B838A8347
:100A40000084F185E02DCE01019609952396E2E020
:100A50000C94333380910205882359F0E091060508
:100A6000F0910705309729F00190F081E02D09956C
:100A7000089580E008950E94BA049C019091FE04BC
:100A80008091FF04982B21F03093FB042093FA040B
:100A90009091000580910105982B21F03093F90485
:100AA0002093F804E0910605F0910705309749F08E
:100AB00082E08093FC040680F781E02D8CEF94E0C7
:100AC000099508958091F70480FD16C081FD16C038
:100AD00082FD16C08091F6048823A1F0883280F44C
:100AE00028E0829FC001112468E270E00E94523326
:100AF000862F672B39F0089582E0089584E00895E9
:100B000088E0089581E008958091F70480FD14C085
:100B100081FD14C082FD16C08091F504882381F008
:100B20008E3180F420E5829FC00111246EE170E0D7
:100B30000E945233862F089584E1089588E2089533
:100B400088E0089580E50895282F35EB2303C00140
:100B5000112497FF04C080589109892F0895805867
:100B60009F4FFBCFFC01680F791F8FEF91E321911D
:100B7000822728E030E087FF09C0880F89272150AD
:100B80003109C9F7E617F70791F70895880FF7CFEE
:100B900023E3611122E383B190E02F7002C09595A9
:100BA00087952A95E2F78170089523E3611122E386
:100BB00034B12F7081E090E001C0880F2A95EAF7E8
:100BC000982F9095932394B995B1892B85B9089561
:100BD0009091C604E92FF0E02091C7042150330B17
:100BE00023703327E217F307A9F0E853FB4F282FB0
:100BF0002F7780818078822B60FB87F980839F5FCD
:100C000093709093C6048091C4048F5F8093C40452
:100C100081E0089580E00895FA01811101C0FB018F
:100C20000995089530910305311123C08232910551
:100C30001CF18297FC01EE0FFF1FDF01A80FB91F07
:100C4000AA50BC4F11963C911197361307C03C91A6
:100C5000341304C012963C91321771F031E0309396
:100C6000F503E80FF91FEA50FC4F618340832283AC
:100C700003C082329105F4F208951092F5030895AD
:100C8000E1E9F5E0248130E1231B08F420E024832E
:100C9000809190058160809390050895E1E9F5E0E9
:100CA000248130E1230F08F42FEF248380919005F5
:100CB0008160809390050895E1E9F5E0438120E1AA
:100CC000421B08F440E08181628190E00E942E0383
:100CD0000895E1E9F5E0438120E1420F08F44FEF88
:100CE0008181628190E00E942E030895E1E9F5E0A0
:100CF000628120E1621B08F460E08181438190E021
:100D00000E942E030895E1E9F5E0628120E1620F7F
:100D100008F46FEF8181438190E00E942E030895D3
:100D2000E1E9F5E08181438162818850990B0E945D
:100D30002E030895E1E9F5E0818190E0438162812D
:100D400008960E942E0308958091910586958695B8
:100D5000815009F484E20E94F60208958091910581
:100D6000869586958F5F853208F081E00E94F602B5
:100D700008959EE0899F802D1124980F953408F0E6
:100D800094E420910305222321F0933228F092E28B
:100D90000895823208F482E208958093550180918B
:100DA00091058370809354010E94A21283E0809386
:100DB0005D010895EF92FF920F939701201B310977
:100DC0002F3F310519F010F02FEF30E02095382F2C
:100DD000320F08F43FEF832F0F91FF90EF900895AB
:100DE000EF92FF920F939701201B31092F3F31059E
:100DF00019F010F02FEF30E0322F3095482F430FCD
:100E000008F44FEF842F620F0F91FF90EF90089539
:100E1000EF92FF920F93972F093438F4B701601BBC
:100E200071096F3F710519F010F06FEF70E0485FC6
:100E30005F4F4131510540F0A901485F5F4F41319B
:100E4000510510F06FEF70E06095482F460F08F4E1
:100E50004FEF842F37FF02C02D5F3F4F3595279509
:100E60003595279560919205620F792F0F91FF902C
:100E7000EF900895EF92FF920F931F930E0D1F2D89
:100E8000111DF90137FF03C0F195E195F10924E047
:100E9000EE0FFF1F2A95E1F7EF3FF10519F014F06F
:100EA000EFEFF0E09A0157FF03C03195219531092A
:100EB00094E0220F331F9A95E1F72E173F070CF4A9
:100EC000F901E00FF11FEF3FF10519F010F0EFEF1E
:100ED000F0E0E095282F3E2F230F08F42FEF822F0C
:100EE0001F910F91FF90EF900895EF92FF920F9353
:100EF000970195E0099F200D311D11242F3F3105E9
:100F000019F010F02FEF30E02095382F320F08F451
:100F10003FEF832F0F91FF90EF900895409520E4CD
:100F2000429F412D1124640F08954095282F429F20
:100F3000412D1124842F08950F931F9310E0F80181
:100F4000EE0FFF1FE550FE4F9081905797FD919552
:100F5000000F111FF801E154FE4F05AD0052110BB7
:100F60002003F001219FF00D112408E310E0091B7C
:100F7000110997FD139540039001419F300D1124F5
:100F8000E20FF31F9F01220F331F2E0F3F1F37FF6A
:100F900002C021583F4F220F232F221F330B620F15
:100FA0001F910F9108950F931F93522F10E0F80196
:100FB000EE0FFF1FE154FE4FA5ADA052BB0B9D01EC
:100FC0005203F001539FF00D1124000F111FD8019F
:100FD000A550BE4F0C910057110B40039001419F4B
:100FE000300D11242E0F3F1F37FF02C0215C3F4FF1
:100FF00096E0359527959A95E1F7620F1F910F912D
:1010000008950F931F93522F10E0F801EE0FFF1F6A
:10101000E154FE4FA5ADA052BB0B9D015203F00160
:10102000539FF00D1124000F111FD801A550BE4F82
:101030000C910057110B40039001419F300D11247A
:101040002E0F3F1F37FF02C021583F4F220F232F83
:10105000221F330B620F1F910F910895EF920F9390
:10106000972F23E0029FB0011124759567956E0DAF
:10107000792F0F91EF900895322F50E0FA01EE0F83
:10108000FF1FE154FE4F95AD905297FD9195440F8F
:10109000551FFA01E550FE4F2081231B330B290F0A
:1010A000311D97FD3A95620F0895E42FF0E0EE0FA1
:1010B000FF1FE154FE4F65AD621B0895E42FF0E081
:1010C000EE0FFF1FE550FE4F6081621B0895622FF7
:1010D0000895E42FF0E0EE0FFF1FE550FE4F408132
:1010E00034EE439F412D1124E82FF0E050E0445EA0
:1010F0005F4FDA01A21BB1099D01B7FF03C0319513
:101100002195310993E0220F331F9A95E1F7AF0142
:10111000421B530B9A0157FD20E0582F259F212D8C
:101120001124822F0895E42FF0E0EE0FFF1FE55009
:10113000FE4F408134EE439F412D1124E72FF0E014
:1011400050E0445E5F4FDA01A21BB1099D01B7FF79
:1011500003C031952195310993E0220F331F9A95F1
:10116000E1F7AF01421B530B9A0157FD20E0279F87
:10117000212D1124722F08950E9412060895FF92C6
:101180000F931F93CF93DF93182F062FF42ED0E0E9
:10119000C0E02F2D402F612FCE010E94BC08219668
:1011A000C434D105B1F7CDB7DEB7E5E00C943033E8
:1011B000FC019B01009729F480E077FF2BC080E8B9
:1011C0000895AC0197FF04C044275527481B590BCD
:1011D000B901640F751F37FD10C0241B350BC90101
:1011E000A5E0880F991FAA95E1F70E94523380E28B
:1011F000861BF7FF0FC081950895CB0165E0880F2E
:10120000991F6A95E1F7BA01621B730B0E94523372
:1012100080E6EECF0895EF920F93CF93DF93D72F11
:10122000C82FC9010E19BA010E94D808602F681B87
:101230007D2F8C2FDF91CF910F91EF9008950F9319
:10124000CF93DF93D72FC82FC901BA010E94D808C6
:10125000682F600F7D2F8C2FDF91CF910F91089514
:10126000EF920F931F93CF93DF93D62FC72F182F93
:10127000C9010E19010FBA010E94D808081B202FBE
:10128000219F212D1124822F6D2F7C2FDF91CF9153
:101290001F910F91EF900895EF920F931F93CF93AB
:1012A000DF93D62F172FC82FC9010E19070FBA01C8
:1012B0000E94D808702F781B719F712D11246D2FFB
:1012C0008C2FDF91CF911F910F91EF9008950F9385
:1012D0001F93CF93DF93D62FC72F182FC901212F2C
:1012E000201B022FBA010E94D808982F990F990F3E
:1012F000891B800F282F219F212D1124822F6D2FD4
:101300007C2FDF91CF911F910F9108950F931F9321
:10131000CF93DF93D62F172FC82FC901272F201B5C
:10132000022FBA010E94D808982F990F990F782F91
:10133000791B700F719F712D11246D2F8C2FDF91F0
:10134000CF911F910F910895E82F86FDE0952E2FE4
:101350002F7086FD2F5FE695E695E695E670F0E046
:10136000E954FE4F9181929F902D212D1124929549
:101370009F702295207F922B2081920F87FD91955F
:1013800080E8890F0895AC018230910508F4089532
:101390009FEF413E8EE1580740F49A0195E0369563
:1013A00027959A95E1F798E0920F61E0E62FE90F13
:1013B000FF27FF1F9F0135952795822F229FF00160
:1013C000239FF00DF00D11244E175F0738F49FEFA7
:1013D000920F961758F78FEF860F08952F3FE9F376
:1013E00061E0620FF6CF0F93CF93DF93D72FC82F13
:1013F00047FD419588E390E0841B910947FD939553
:10140000889FB001899F700D700D1124229FC0012B
:10141000239F900D900D1124860F971F0E94C309E2
:10142000982F990F890F682F600F7D2F8C2FDF91D8
:10143000CF910F91089530E020E0869F212D969F57
:10144000200D311D1124C9010895982F80910305A5
:10145000882329F081E0923228F080E003C081E007
:101460009434D8F70895AF92BF92CF92DF92FF9253
:101470000F931F93CF93DF93362F472FE82FF0E082
:10148000E45CFC4F71110FC0E4918E2F2E2F6E2F54
:10149000722FDF91CF911F910F91FF90DF90CF902E
:1014A000BF90AF900895C72FD0E02491F22E022F65
:1014B00010E056E0659FC0011124EFEFF0E0BF019E
:1014C0000E943E33832F90E0880F991F35E5369FA9
:1014D000D001379FB00D11248A1B9B0B982F990FB9
:1014E000980F6F01CC1ADD0AC09ED001C19EB00DCD
:1014F000D09EB00D11248B2F499FA0011124452FA0
:1015000055276F01C41AD50AC09EA001C19E500D77
:10151000D09E500D11245F01A91AB108AC9E600144
:10152000AD9ED00CBC9ED00C1124CD2CDD24EC192A
:10153000FD09E09FE001E19FD00DF09FD00D112447
:10154000ED2F62307105A1F050F46115710509F4B9
:101550009ECF6130710581F0EB2F852F98CF6430DD
:10156000710569F080F06630710509F490CFF4CF11
:10157000E22F2B2F8D2F8BCFE22F252F88CFEB2F14
:10158000822F2D2F84CF2B2F8F2DE52F80CF2F92C1
:101590003F925F926F927F928F929F92AF92BF9293
:1015A000CF92DF92EF92FF920F931F93CF93DF932F
:1015B000CDB7DEB729970FB6F894DEBF0FBECDBF0B
:1015C00089837D836C8380915A010E94B9069A8336
:1015D000209164052B83E82FF0E0F987E887CF019D
:1015E000880F991F9C0121543E4F69013981832F37
:1015F00090E0FC013196FF83EE838A8198859817ED
:10160000D0F00E94250A29960FB6F894DEBF0FBECF
:10161000CDBFDF91CF911F910F91FF90EF90DF90A1
:10162000CF90BF90AF909F908F907F906F905F9082
:101630003F902F900895E885F985ED57FD4F808103
:1016400090915B018923F1F02090920530909305F1
:101650002E813F812C593A4F3901598010E0FB818E
:101660005F16D0F020919405129F112D1124B10125
:10167000812F0E94330A462F282F672F888599854E
:101680000E94BC08288539852F5F3F4F39872887FE
:1016900032E0C30ED11CB1CFF30181913F01F601BD
:1016A000A4ACA81ABB0885ACF3018781881A9908F5
:1016B000AA9C9001AB9C300D300D1124889CC00178
:1016C000899C900D900D1124820F931F0E94C309D5
:1016D000082F6091950521E0620F08F46FEFF30188
:1016E000EE0FFF1FE456F540858996890E941B0A7C
:1016F0007C019401A501B101812FEC81FD81099547
:101700001B015394182FABCFB0E0A0E0EAE8FBE058
:101710000C9412338C0180915A010E94B906C82F93
:10172000D92E2091950531E0230F08F42FEF30E0FA
:1017300050E040E06FEF7FEF80E090E00E943034B7
:101740007901D0E02C2FCD1540F08D2D0E94250A77
:10175000CDB7DEB7E7E00C942E33FE01ED57FD4F19
:10176000808190915B01892311F140916405415082
:10177000042E000C550B47FF1CC0C7016091950556
:1017800021E0620F08F46FEF0E941B0AAC01609128
:1017900092057091930580919405F80109950E9436
:1017A000330A462F282F672FCE010E94BC082196AE
:1017B000C9CFFA01EC59FA4F818982130AC0FA01A4
:1017C000EE0FFF1FEC59FA4F818D928D8E159F05FC
:1017D000A8F241505109CFCFB0E0A0E0E2EFFBE02A
:1017E0000C940F336C0180915A010E94B906C82FE6
:1017F000F92E6091950566956695809160059091AA
:1018000061050E941B0A182F80E4810F0E94A40921
:1018100090E8B92EB80E812F0E94A40920E8A22ECC
:10182000A80ED0E0CF1540F08F2D0E94250ACDB72D
:10183000DEB7EAE00C942B33FE01ED57FD4F8081BB
:1018400090915B018923A1F06091920570919305BD
:1018500080919405E12E0C2F2A2D4B2DF601099530
:101860000E94330A462F282F672FCE010E94BC0802
:101870002196D8CFB0E0A0E0E0E4FCE00C940B337C
:101880003C0180915A010E94B906C82F192F60911E
:101890009505669580916005909161050E941B0AEF
:1018A000F82ED0E0CE01880F991F9C0121543E4FA5
:1018B0006901C11740F0812F0E94250ACDB7DEB71C
:1018C000EEE00C942733FE01ED57FD4F808190919F
:1018D0005B01892379F1F60184AD282F2057330B62
:1018E000590185ADE82FE052FF0B4F01AA9C9001F2
:1018F000AB9C300D300D1124EE9FC001EF9F900D79
:10190000900D1124820F931F0E94C309082F60912C
:1019100092057091930580919405EF2C9401A50197
:10192000F30109950E94330A462F282F672FCE0115
:101930000E94BC08F2E0CF0ED11C2196BACFB0E0D5
:10194000A0E0E5EAFCE00C9410336C0180915A01B0
:101950000E94B906C82F192F609195056695809150
:101960006005909161050E941B0AB82ED0E0CE015F
:10197000880F991F9C0121543E4F7901C11740F0F7
:10198000812F0E94250ACDB7DEB7E9E00C942C33F5
:10199000FE01ED57FD4F808190915B018923C1F0DD
:1019A000F70125AD2052330B44AD4057550B6091E4
:1019B000920570919305809194050B2DF601099580
:1019C0000E94330A462F282F672FCE010E94BC08A1
:1019D000F2E0EF0EF11C2196D1CFEF92FF920F9320
:1019E0001F93CF93DF937C0180915A010E94B90627
:1019F000C82F192F609195056695669521E0620FB5
:101A000008F46FEF80916005909161050E941B0AB8
:101A1000082FD0E0C11740F0812F0E94250ACDB7D2
:101A2000DEB7E6E00C942F33FE01ED57FD4F8081C9
:101A300090915B01892391F06091920570919305DB
:101A400080919405202F4C2FF70109950E94330AAD
:101A5000462F282F672FCE010E94BC082196DACF8F
:101A600080E0089581E0809384030895F894E82F3E
:101A7000E295EF70F0E031A1282F2F7081E090E027
:101A800001C0880F2A95EAF7982F9095932391A388
:101A900092A1892B82A3789408950F931F9380912C
:101AA0000205882329F00E94AE041F910F9108952A
:101AB0000E94AE0400914E0310914F0320915003F9
:101AC00030915103600F711F821F931FEECFCF9291
:101AD000DF92EF92FF926B017C01809102058823D7
:101AE000A1F02FB7F89460910B0570910C058091CF
:101AF0000D0590910E052FBF6C197D098E099F0968
:101B0000FF90EF90DF90CF9008950E944D0DF4CF9D
:101B10009091600392FF10C041E0282F247124307F
:101B200009F040E031E0282F2871283009F030E03A
:101B3000431711F02CE0822793FF10C041E0282FBB
:101B40002471243109F040E031E0282F2871283138
:101B500009F030E0431711F02CE082273091610347
:101B600030FF10C051E0282F2171213009F050E0E2
:101B700041E0282F2871283009F040E0541711F077
:101B800029E0822731FF10C041E0282F2171213147
:101B900009F040E031E0282F2871283109F030E0C9
:101BA000431711F029E0822794FD877E089582383B
:101BB0009105B9F1B0F48133910509F47DC048F481
:101BC0008932910509F46DC08A32910509F47BC010
:101BD00008958533910509F45FC08933910509F1B2
:101BE0000895833E9105D9F138F4803E910529F19D
:101BF000823E910579F10895863E9105D9F1873E9F
:101C0000910509F43EC0843E910541F520916103A0
:101C100021FF24C08091600384FD19C087EE90E00D
:101C2000089520916003237009F05AC02091610348
:101C300023FF14C089E290E008952091600320FD05
:101C400038C03091610330FF09C024FF43C090E0E9
:101C500080E008952091600322FDF7CF0895209140
:101C6000600322FD3AC03091610330FD39C024FF8A
:101C7000F5CFEDCF2091600323FFF0CF24FDE7CF18
:101C8000CDCF2091600323FD2EC03091610331FF41
:101C9000EECF84EE90E008952091600325FFDECF23
:101CA000C9CF2091600325FD21C02091610323FF4E
:101CB000D5CF89E390E0D2CF2091600326FFCECF2D
:101CC0008AE290E008952091600326FFC7CF81E368
:101CD00090E0089583EE90E0089582EE90E00895FC
:101CE00080EE90E0089586EE90E0089585E390E020
:101CF0000895972F7A30B8F46630A8F48430B0F4A1
:101D000070E026E0929F600D711D1124FB019CE3A1
:101D1000899FE00DF11D1124EE0FFF1FE45AFE4FC5
:101D200085919491089580E090E0089581E0FCCF42
:101D30001F93CF93DF930E94D70DEC01C11580E56F
:101D4000D807F0F5C11580E4D80708F09CC0C03E64
:101D5000D10520F5CD3CD10508F082C0C83AD105A7
:101D600078F4C53AD10508F073C0C130D10519F136
:101D7000209709F1C430D105F0F4D0E0C0E01BC0D9
:101D8000C33CD105D0F7C85AD0E0CC0FDD1FC159F4
:101D9000DE4F0990D881C02DD4640DC0C11580E2FA
:101DA000D80708F0D1C0C11581E0D80708F05AC0A3
:101DB000C83ED10510F7CE01DF91CF911F91089554
:101DC000C03682E5D80718F5C03482E5D80708F098
:101DD0006BC0C03282E5D80708F05FC0C11582E54C
:101DE000D80708F497C02C2F2695269580E2289FC7
:101DF000900111248C2F8370C1E0D0E002C0CC0F81
:101E0000DD1F8A95E2F7C22BD32BDD68D4CFC03A11
:101E100082E5D80760F4C03882E5D80708F459C0D5
:101E2000CF71D0E0DC2FCC27C46FD06AC4CFC03CC8
:101E300082E5D80708F462C0C03E82E5D80708F002
:101E40009CCFDC2FCC27CC27DF71C06FD06AB3CFFB
:101E5000C55AD0E0C459DE4FC881D0E0D064ABCFC2
:101E6000D065A9CF8D2F0E94880D182FCE019927FC
:101E70000E94D70DC12FD0E0DC2FCC27CC27DF71FB
:101E8000C82BD92B98CFCE0199270E94D70DCC27EC
:101E9000DF70C82BD92BD06A8ECFCF71D0E0DC2F6A
:101EA000CC27C16FD06A87CF2C2F26952695277017
:101EB00080E2289F900111248C2F8370C1E0D0E034
:101EC00002C0CC0FDD1F8A95E2F7C22BD32BDC6852
:101ED00072CF2C2F26952695277080E2289F90019F
:101EE00011248C2F8370C1E0D0E002C0CC0FDD1F25
:101EF0008A95E2F7C22BD32BDA685DCF8C2F8F71D6
:101F00000E94880DC82FD0E0DC2FCC27CC27DF71B2
:101F1000D06251CF8C2F8F710E94880D55E0D695DD
:101F2000C7955A95E1F7CF70D0E0DC2FCC27282F4A
:101F300030E084FF05C044E0220F331F4A95E1F7EB
:101F4000C22BD32BD06937CF8D2F8F710E94880D74
:101F5000182FCE0199270E94D70DC12FD0E0DC2F7A
:101F6000CC27CC27DF71C82BD92BD2CF80910E0381
:101F7000811110920E0308958091F40481110FC015
:101F80001092F1040E94B60F0E94BA0488579C4E2A
:101F90009093F3048093F20481E08093F404089515
:101FA0009091610392FF05C090910E039813809366
:101FB0000E03089580959091CC0498239093CC04BF
:101FC000089580959091F10498239093F1040895D9
:101FD00080915F0590912605981301C008958F5F49
:101FE0008770FACFB0E0A0E0E8EFFFE00C94103388
:101FF0007C010091C2041091C30480915E03909112
:102000005F03082B192BCFE0D0E0CC24C394D12C54
:10201000BC2EC6010C2E02C0880F991F0A94E2F74D
:1020200080239123892B49F4219790F7B12C8B2D94
:10203000CDB7DEB7E9E00C942C33B7018C2F0E94AA
:10204000790E0E94980E019779F3F1CFCF93DF9329
:10205000EC010E94F20FBE010E94790E0E94980EC0
:10206000DF91CF9108959A3078F5863068F5E82FA2
:10207000F0E086E0989FE00DF11D11249E2F9770EF
:1020800083E0F695E7958A95E1F7EE0FFF1FEE0FD7
:10209000FF1FE252FD4F50E040E080E0219130E030
:1020A000092E02C0369527950A94E2F7217033274E
:1020B000042E01C0220F0A94EAF7822B4F5F5F4F74
:1020C0004430510559F7089580E008959A3098F505
:1020D000863088F5E82FF0E086E0989FE00DF11D4E
:1020E00011248E2F877041E001C0440F8A95EAF7D2
:1020F00083E0F695E7958A95E1F7EE0FFF1FEE0F67
:10210000FF1FE252FD4F30E020E070E05191DF010F
:102110001197CB01022E02C0969587950A94E2F79B
:10212000817081958527842385278C932F5F3F4F6E
:102130002430310559F708959C0126703327263045
:10214000310531F488609093C3048093C2040895EC
:10215000877FF9CF21E030E002C0220F331F8A953C
:10216000E2F7209530958091C2049091C3048223B8
:1021700093230E949C1008959091050380958923D4
:1021800080930503282F277069F4891759F09091DF
:10219000610392FF07C08695869586950E94AA10D6
:1021A00010920503089521E030E002C0220F331F92
:1021B0008A95E2F78091C2049091C304822B932BFD
:1021C0000E949C10089590935F0380935E0308958E
:1021D000FC0124812223C1F0808191810E9426107C
:1021E00092959F70963091F058F4925F9F70923064
:1021F00058F4803F19F030F4883E30F481E00895BF
:102200009A5FF4CF843FD1F380E00895883EB0F325
:10221000813FD1F7F3CF4091FE04909100052091CA
:102220000105662309F469C0942B922B2091FF04C9
:10223000922B31F098E09093F50491E09093F6049E
:102240008D3C41F40E94840581958093FF040E9497
:102250003B0508958E3C19F40E948405F6CF8F3C0F
:1022600031F40E94840581958093FE04F0CF803D77
:1022700019F40E948405F8CF893D29F40E94620573
:1022800080930005E4CF8A3D21F40E946205819588
:10229000F7CF8B3D31F40E94620581958093010553
:1022A000D6CF8C3D19F40E946205F8CF9FE2980FBB
:1022B000983070F4815D990B21E030E001C0220F6D
:1022C0008A95EAF78091FD04822B8093FD04BFCFAD
:1022D0008D3D31F48091F70481608093F704B7CF8E
:1022E0008E3D21F48091F7048260F7CF8F3D09F095
:1022F000AECF8091F7048460F0CF8D3C59F480918B
:10230000FF0487FF0DC01092FF0441110BC0109213
:10231000F50408C08E3C81F48091FF0418169CF3EC
:10232000442381F08091000590910105892B09F0EB
:102330008ECF1092F6048BCF8F3C49F447FFF0CF3D
:102340001092FE048091FF048111ECCFE0CF803D1C
:1023500019F41416ACF3E4CF893D29F4191604F7E7
:1023600010920005DDCF8A3D19F497FFD9CFF8CF41
:102370008B3D29F427FFD4CF10920105D1CF8C3D9E
:1023800019F41216CCF3CCCF9FE2980F983090F44A
:10239000815D990B21E030E0B90102C0660F771F23
:1023A0008A95E2F7CB0180959091FD048923809373
:1023B000FD04B6CF8D3D31F48091F7048E7F80937C
:1023C000F704AECF8E3D21F48091F7048D7FF7CFD7
:1023D0008F3D09F0A5CF8091F7048B7FF0CFA6E069
:1023E000B0E0E5EFF1E10C94163349835A8349815B
:1023F0005A819923A1F0222391F0CA010E94F20F81
:10240000182F682F89819A810E94661069817A81CC
:10241000812F0E94790E2696E3E00C943233CA0194
:102420000E943310182FF2CF9C013A9521153F419D
:1024300050F5FC01EE27F170BC0166277270AC010B
:10244000442754709C012227387094FF0EC080E10D
:10245000EF2B09F480E0672B09F08062452B09F02F
:102460008064232B89F08068089581E0EF2B09F4C4
:1024700080E0672B09F08260452B09F08460232BF4
:1024800019F08860089580E008950F931F93CF930B
:10249000DF938B01EA0190911C05943061F58093E4
:1024A000E9008FEF9091E800815095FD06C095ED11
:1024B0009A95F1F700008111F5CF8091E80085FF32
:1024C0001AC00E946003811111C08091E80085FD4F
:1024D00006C08091E8008E778093E800F2CFF80183
:1024E00081918F018093F100219779F78091E80025
:1024F0008E778093E800DF91CF911F910F9108951F
:1025000043E050E0BC0182E00E944512089546E09D
:1025100050E0BC0182E00E9445120895CF93DF9302
:10252000EC0148E050E0BC0181E00E94451288E0E7
:10253000FE01A2E1B5E001900D928A95E1F7DF91ED
:10254000CF9108958091F503882341F16E9A3EB1B1
:102550003F7B2EB120644FB7F89486EF93E0FC01E7
:102560005191CF0168E02EB9000000C057FF3EB97D
:10257000550F000000C000C000C03EB900C06A9501
:1025800091F7F4E0823C9F0751F74FBF8FE594E04D
:102590000197F1F700C000001092F5030895B0E034
:1025A000A0E0E5EDF2E10C940F337C015B016A01E0
:1025B00080914D0301E010E08A3010F40AE010E051
:1025C000C1E0D0E0B501C701F6010995811104C051
:1025D00021960C171D072CF4CDB7DEB7EAE00C945A
:1025E0002B33CC9F9001CD9F300D300D112490E006
:1025F00080E045E34A95F1F70000019682179307C2
:10260000C1F7E0CFB0E0A0E0E8E0F3E10C940A33DA
:10261000D82F809155018D1323C09091910593700F
:102620002091540130E081E09217130609F480E014
:10263000817080935C018091960590915B01981761
:1026400039F080935B0140E060E080E00E94BF08C9
:10265000D53260F4ED2FF0E0EB56FB4C0C94663372
:1026600081E0E6CF80915C01811102C080E051C021
:1026700040E060E080E00E94BF08F8CF80915A01FE
:102680000E94B906082FC92F609192057091930599
:10269000809194050E94330AF62EE72ED82E10E082
:1026A0000C1710F08C2F33C0F801ED57FD4F8081CF
:1026B00090915B01892331F02D2D4F2D6E2DC80196
:1026C0000E94BC080F5F1F4FEBCF80915A010E9400
:1026D000B906082FF92EE090930510919405C0914A
:1026E00092056C2F7E2D812F0E94330AD62EC72E85
:1026F000B82E609195056C0F7E2D812F0E94330AB4
:10270000C62FE72EA82E10E00F15D8F08F2D0E94AF
:10271000250A90915A019F5F90935A0181110CC034
:1027200082E080935D0180915C01811105C0D1112F
:1027300003C083E080935D01CDB7DEB7EFE00C947A
:102740002633F801ED57FD4F908180915B0189237D
:1027500059F02A2D4C2F6E2D90FD03C02B2D4D2DA1
:102760006C2DC8010E94BC080F5F1F4FCDCF809118
:102770005A010E94B906F92EE0909305D090940575
:1027800020919505C0E43C2F329F312D1124C32F99
:10279000082F10E00F1508F0B9CFF801ED57FD4FE5
:1027A000808190915B018923B9F0F801EE0FFF1F42
:1027B000E154FE4F85AD82958F70609192058C9F9C
:1027C000600D11247E2D8D2D0E94330A462F282F57
:1027D000672FC8010E94BC080F5F1F4FDBCF80919D
:1027E0005A010E94B906F92EE0909305D090940505
:1027F00020919505C0E44C2F429F412D1124C42FF8
:10280000082F10E00F1508F081CFF801ED57FD4FAC
:10281000808190915B018923D9F0F801EE0FFF1FB1
:10282000E154FE4F64ADC69FB001112455E075958B
:1028300067955A95E1F780919205680F7E2D8D2D51
:102840000E94330A462F282F672FC8010E94BC0818
:102850000F5F1F4FD7CF80915A010E94B906082FF2
:10286000C92FF090920510919305E0909405609126
:1028700095056695669566958091600590916105D0
:102880000E941B0A0E94A409805887FD8195880F29
:10289000282F3E2D239F212D1124822F6F2D712F44
:1028A0000E94330AF62EE72ED82E10E00C1708F0FF
:1028B000F9CEF801ED57FD4F808190915B0189239E
:1028C00031F02D2D4F2D6E2DC8010E94BC080F5FD9
:1028D0001F4FECCF83E998E00E94ED0C1ACF89E6F8
:1028E00098E0FACF86E899E00E949F0C12CF87E625
:1028F00099E0FACF8CE499E00E943A0C0ACF80E389
:1029000099E0FACF87E698E0E7CF8EE598E0E4CF4C
:1029100085E598E0E1CF8CE398E0DECF8EE298E0A9
:10292000EBCF83EF99E0E0CF8FE199E0DDCF8BE053
:1029300099E0E2CF81E098E00E94EC0BEACE83EDD3
:1029400097E0FACF8CE997E0F7CF80915A010E9487
:10295000B906782EA92E80915C01882361F040E0B1
:1029600060E080E00E94BF08EBE8F3E08CE3DF0169
:102970001D928A95E9F780915A01811115C08091C5
:102980008703909188030E949F0421E0893191057B
:1029900008F420E020938603499730F00E94BA049F
:1029A0009093880380938703C12CB12CD12C96E09F
:1029B000892E25E5622E3AEA932E5524539405C0BC
:1029C000FDE0FB1508F457C0D12C2D2D30E08C9C78
:1029D00080011124F801E154FE4FE20FF31FE08063
:1029E000E71408F440C0EA1408F03DC0B394F12C99
:1029F000F701ED57FD4F808190915B01892309F428
:102A000032C005571C4F020F131FF801C0813C2F25
:102A1000262D321B08F430E070919305292D4C2FA0
:102A2000240F08F42FEF40919405822F880F820F16
:102A30008E5F282F249F212D1124822F692D631B47
:102A40000E94330A462F282F672FC7010E94BC0817
:102A500080918603882339F02C2F352D231B08F411
:102A600020E0D8012C93D394B6E0DB12AECFC39410
:102A7000EAE0CE12A5CF8A2D4ACEC091940523E07C
:102A8000C29F800111241695079516950795502E23
:102A9000AC2EB12C8FEF90E0B5010E945233762E10
:102AA00080915C01882371F040E060E080E00E944A
:102AB000BF08EBE8F3E08CE3DF011D928A95E9F7AC
:102AC00010928A03809189038F5F80938903F12C90
:102AD000E12CA01AB10A6701612CC70185579C4FF0
:102AE0004C0180918A03862909F045C00E94B833C1
:102AF000853595400CF03FC0F401C083F601E154E8
:102B0000FE4FE081EF3FD1F0D601A557BC4F2C918D
:102B1000F0E0521608F040C030E0201B310B209F3F
:102B2000C001219F900D309F900D1124B5010E948E
:102B30003E33262F4C2FCF010E94BC086394F6E051
:102B4000CF0ED11C2AE06212CCCF3FEFE31AF30A7A
:102B500046E0E416F10409F0BECF809189037812B3
:102B600002C01092890380918A038F5F8D31F0F447
:102B700080938A037BCDF601E557FC4F8081882343
:102B800009F4BCCF8C1708F0B9CF90918903791262
:102B9000B5CF81508083B2CFC29FC0011124B8014C
:102BA0000E943E33462F20E060E0C5CF10928A039A
:102BB0002BEB33E089E09FEF9C0FABE8B3E0F9012A
:102BC000893041F4D6964C91D697C41303C0D6965B
:102BD0009C93D69740814C1710F09083C683119632
:102BE000319643E0A139B40759F781502650310995
:102BF0008111E3CF3BCD85E997E00E94840B89CD1D
:102C00008EE897E0FACF8091640521E0382F321BDF
:102C100008F430E0832F65E777E00E94C70A79CD9A
:102C200065E777E080E0F9CF8091640521E0482FE7
:102C3000421B08F440E0842F6AE377E0EECF6AE3BA
:102C400077E0F0CF8091640521E0382F321B08F443
:102C500030E0832F68E077E0E0CF68E077E0E2CF14
:102C60008091640521E0482F421B08F440E0842F46
:102C700060EF76E0D2CF60EF76E0D4CF809164054C
:102C800021E0382F321B08F430E0832F6AED76E024
:102C9000C4CF6AED76E0C6CF4F925F926F927F927B
:102CA0008F929F92AF92BF92CF92DF92EF92FF925C
:102CB000CF936091F0037091F1038091F2039091B2
:102CC000F3030E94670D6B017C010E944D0D4B01C7
:102CD0005C018092F0039092F103A092F203B09213
:102CE000F303A091C703E7ECF3E08A2F90E04FEFE6
:102CF0005FEF60E070E04C195D096E097F09A91370
:102D00002AC08093C7038091F403C0E0811108C0FA
:102D100080919105C82FC37019F0C82FC695C6952C
:102D200080915D01813009F440C0882339F18230FF
:102D300009F446C0833009F447C0CF91FF90EF906B
:102D4000DF90CF90BF90AF909F908F907F906F90CB
:102D50005F904F900895218D328D2901712C612C47
:102D6000441555056605770520F481509F5F32961E
:102D7000C6CF2C0D3D1D328F218FF8CF10925A01F6
:102D80008092600590926105A0926205B092630501
:102D900089E2E7ECF3E0A4E6B5E001900D928A95B4
:102DA000E1F781E080935D01C8CF8C2F0E94021370
:102DB000CC2319F280915A0181500E94B906BDCFEF
:102DC0008C2F0E94CD06B9CF80919005882351F0B9
:102DD00048E050E068E170E081E995E00E94FC3352
:102DE0001092900560916005709161058091620577
:102DF000909163050E94670D603171058105910511
:102E000008F49BCF10925D0198CF9091610392FBE3
:102E1000222720F9281779F080FB92F9909361031B
:102E2000609160037091610384E090E00E942A3415
:102E300082E00E94BC100895AFE0B0E0E2E2F7E16A
:102E40000C940C338E010F5F1F4F8AE0F801119232
:102E50008A95E9F784E4C82E81E0D82EF12CE12C84
:102E6000AA24A394B12C24E4822E21E0922EF60110
:102E700081916F018F3F09F442C0F894E82FE295E9
:102E8000EF70F0E021A18F70A50102C0440F551F23
:102E90008A95E2F7CA01922F982B91A392A180956F
:102EA000892382A3789400C0EEE3F1E0712C31E035
:102EB00021912F3F09F49EC0A22FA295AF70B0E0E0
:102EC00090968C9190E02F7002C0959587952A95E9
:102ED000E2F780FD8FC0832F782A330F8E169F066E
:102EE00039F7F601319780818F3F11F00E94360D3E
:102EF00050EA5A95F1F7F801EE0DFF1D70828FEF41
:102F0000E81AF80AE5E0EE16F10409F0B0CF4AE05D
:102F100050E0B80182E593E00E94C833009741F089
:102F20002AE0F801A2E5B3E001900D922A95E1F7BD
:102F300000915D0310E00E591C4F892B09F45CC011
:102F400081E0809313030E94BA049093120380934C
:102F50001103D12CC0900205CC2009F4A4C07E013D
:102F6000FBE0EF0EF11C85E0F70111928A95E9F77D
:102F700080914D038A3008F063C040E75FE1B701FC
:102F8000C8010E94CF12882309F47CC043E25FE1AC
:102F9000B701C8010E94CF12882309F473C048E228
:102FA0005EE1B701C8010E94CF12882309F46AC00C
:102FB00046EC5DE1B701C8010E94CF12882309F4F5
:102FC00061C010924D0380915C0390E045E050E0B9
:102FD000B7018E599C4F0E94C83321E020931A03F9
:102FE000892B09F042C0C12C8C2D8D292F96EDE044
:102FF0000C94283380E070CFD0901303DD2009F4C7
:10300000A8CF80911103909112030E949F0405970D
:1030100008F49FCF45E050E062E573E0C8010E94EC
:10302000C833892B59F085E0E2E5F3E0D80101903F
:103030000D928A95E1F7109213038CCFD12CFBCF20
:1030400080911403909115030E949F04843F914046
:1030500008F093CF80911A03882329F285E0F701C5
:1030600011928A95E9F710921A03A0915C03B0E0DF
:10307000AE59BC4F85E0FE013B9601900D928A95BA
:10308000E1F7B2CF80914D038F3F31F08F5F809396
:103090004D038A3008F497CF0E94BA049093150329
:1030A00080931403D7CF85E0F801AEE2B3E001903E
:1030B0000D928A95E1F765E070E08EE293E00E9460
:1030C000B20580932D0388E0E4ECF4E0A4E3B3E0E0
:1030D00001900D928A95E1F768E070E084E393E057
:1030E0000E94B2058093330380903C0390903D038F
:1030F000A0903E03B0903F03809116039091170378
:10310000A0911803B091190388169906AA06BB0668
:10311000B1F08092160390921703A0921803B09218
:1031200019030E94AE04861A970AA80AB90A809267
:103130004E0390924F03A0925003B092510388E047
:10314000E0E4F3E0A1E9B5E001900D928A95E1F7A2
:1031500010914803112349F08091F403811105C0B7
:103160000E94021380E00E94CD061093F4033CCF2E
:10317000CF93C091F1048091CC04C82B80910E03B1
:10318000882381F0C82B20E08CEC92E0FC01319187
:10319000CF0131112F5FF2E0823D9F07B9F7211176
:1031A0000E94B60FC093CA0248E050E066E073E0A8
:1031B0008AEC92E00E94C833892BA9F088E0EAECFF
:1031C000F2E0A6E0B3E001900D928A95E1F7E0917C
:1031D0000605F0910705309731F00280F381E02D6C
:1031E0008AEC92E00995CF910895CF931092F10463
:1031F000C6E0ECECF2E0DF018C2F1D928A95E9F736
:1032000090E080E00E94050590E080E00E94E004EC
:103210001092CC040E94B818ECEFF4E0DF011D928C
:10322000CA95E9F71092F5041092F6041092F7048B
:103230000E943B05CF910895AAE2B0E0E2E2F9E1F5
:103240000C9416338EE195E02091F100FC0121935E
:10325000CF01F5E086329F07B9F780911F058330D3
:1032600009F470C0B8F4813009F447C0823009F421
:10327000B1C08091E80083FF7EC280911E059091CD
:103280001F059A3008F077C2E92FF0E0E654FB4CB6
:103290000C9466338A3009F48CC08B3009F46FC00B
:1032A000893039F780911E05813219F78091220506
:1032B000909123050297E8F68091E800877F80933C
:1032C000E8008091E80082FF38C09091F30080917F
:1032D000F200029731F48091F100813011F08630D4
:1032E00021F48091F100809311058091E8008B77A3
:1032F0008093E8000E949103BCCF80911E05813A23
:1033000009F0B7CF8091E800877F8093E800809133
:10331000220590912305892B61F468E082E195E014
:1033200070E00E943D048091E8008B778093E80074
:10333000A0CF60E090E080E0F3CF80911C05811188
:10334000C0CF97CF80911E05813A09F092CF80912E
:10335000220590912305892B09F08BCF8091E800FD
:10336000877F8093E8008091E80080FFFCCF809108
:1033700059018093F1008091E8008E77B9CF809158
:103380001E05813209F075CF8091220590912305A9
:10339000892B09F06ECF8091E800877F8093E80049
:1033A0000E94910380912005809359010E94F51895
:1033B00060CF80911E05813209F05BCF8091E800DB
:1033C000877F8093E8000E9491038091210580937C
:1033D00010054FCF80911E05813A09F04ACF8091A8
:1033E000E800877F8093E8008091E80080FFFCCFB1
:1033F00080911005BECF803899F0823809F0BBC1AA
:10340000809122058F70873008F0B5C18093E90064
:103410008091EB0085FB882780F91092E90006C0B7
:1034200080911A0590911B05911182609091E8009E
:10343000977F9093E8008093F1001092F1008091C3
:10344000E8008E7794C1882309F482C1823009F0A4
:1034500092C180912005811185C1809122058F70D4
:103460002FEF280F263008F086C18093E9002091C5
:10347000EB0020FF77C1933031F48091EB00806244
:103480008093EB006FC19091EB0090619093EB0003
:1034900021E030E001C0220F8A95EAF72093EA008C
:1034A0001092EA008091EB008860EACF811163C13D
:1034B000109120051F778091E3008078812B809305
:1034C000E3008091E800877F8093E8000E949103E9
:1034D0008091E80080FFFCCF8091E30080688093BA
:1034E000E30082E0111183E080931C0544C1805801
:1034F000823008F040C180912005909121058C3DDB
:1035000023E09207A1F583E08A838AE289834FB79B
:10351000F894DE01139620E03EE051E2E32FF0E064
:1035200050935700E49120FF03C0E295EF703F5F96
:10353000EF708E2F90E0EA30C0F0C7968D939D9388
:103540002F5F243159F74FBF8091E800877F809328
:10355000E8006AE270E0CE0101960E943D0480918D
:10356000E8008B778093E80006C1C096E7CF4091D2
:10357000220550912305292F33272330310509F4E3
:1035800044C078F52130310509F46FC08BE390E039
:10359000EBEFF4E02230310509F0EDC02091E800B6
:1035A000277F2093E800209124053091250582177C
:1035B000930708F49C0140E02115310509F064C02F
:1035C000411162C08091E80082FDC9CF80911C0545
:1035D000882329F2853019F28091E80083FFF2CF29
:1035E000BECF21323105A9F12232310509F0C3C025
:1035F0004115510509F443C04130510509F0BBC0E4
:103600008BE790E0ECE3F4E0C9CF99278130910596
:10361000C1F0009759F0029709F0ADC0E8E4F5E079
:10362000E4918E2F90E0E8E4F5E007C0E4E7F5E0F0
:10363000E4918E2F90E0E4E7F5E0009709F49BC059
:10364000ADCFE4E6F5E0E4918E2F90E0E4E6F5E01E
:10365000F4CF4115510571F04130510509F08BC08F
:1036600089E090E0E6E2F5E099CF82E190E0E6E3E0
:10367000F5E094CF89E090E0EDE0F5E08FCF84E4D1
:1036800090E0E7EBF4E08ACF80911C05882309F4F1
:1036900066CF853009F463CF8091E80083FD5FCF6A
:1036A0008091E80082FD8ECF8091E80080FF84CF7A
:1036B0009091F3008091F2002115310519F08830C6
:1036C000910550F041E0089709F040E08091E80052
:1036D0008E778093E80070CF44914093F10031964B
:1036E000215031090196E8CF803809F044C080911B
:1036F000E800877F8093E80080911D058093F100AA
:103700009ECE811138C0109120051230A0F5809115
:10371000E800877F8093E80010931D050E949103C5
:10372000112311F084E005C08091E30087FDFACFFA
:1037300081E080931C0542E061EC81E00E94B003CF
:1037400042E261EC82E00E94B00380911C0513C04C
:1037500080912005813079F481E0933009F080E098
:1037600080931B051092E9008091E800877F809389
:10377000E8000E9491038091E80083FF0AC08091D5
:10378000E800877F8093E8008091EB00806280935F
:10379000EB00AA96E3E00C9432330E94F5182FEF69
:1037A00084E39CE0215080409040E1F700C000009D
:1037B00088E19CE00FB6F894A895809360000FBE56
:1037C00090936000FFCF80915801877F80935801CC
:1037D0008091F404811103C082E00E94DA0F80918D
:1037E000580184FF08C08F7E809358018091F104B6
:1037F00082608093F1048091580185FF08C08F7D1D
:10380000809358018091F10480628093F1040E94BA
:10381000B8180895882321F00E94DA0F0E94B81882
:1038200008958091F404882329F082E20E940A1C02
:103830001092F4040895882339F09091CC04982BC9
:103840009093CC040E94B8180895882321F00E9418
:10385000E10F0E94B8180895882339F09091F1047F
:10386000982B9093F1040E94B81808958823D1F101
:103870009CEF980F913A78F4ECECF2E09191891377
:1038800003C0DF0111971C9292E0E23DF907B1F706
:103890000E94B818089590E2980F983050F48770FD
:1038A00091E001C0990F8A95EAF7892F0E94E10FF4
:1038B000EFCF9BE5980F933028F490E080E00E94D2
:1038C0000505089598E5980F9B3128F490E080E075
:1038D0000E94E004089593E3980F933118F460E098
:1038E0000E940B110895CF93DF93EC010E94361CC8
:1038F000CE010E9414129E01205E3109283031054C
:1039000010F0CD2B29F40E94251CDF91CF91089552
:103910000E940A1CFACFCF93C82F8823B1F08CEFF6
:103920008C0F813A00F5ECECF2E082ED92E0DF01E1
:103930002D91C21761F08A179B07D1F76C2F8AEC83
:1039400092E00E94C6040E94B818CF910895219178
:10395000C21303C0DF0111971C928E179F07B9F79E
:103960000E94B818EBCF80E28C0F883068F4C770E3
:1039700021E030E001C0220FCA95EAF78091F104FE
:10398000822B8093F104DFCFEBE5EC0FE33040F4C2
:10399000F0E0E459FE4F808190E00E940505D5CF0C
:1039A000E8E5EC0FEB3150F4F0E0EE0FFF1FE159CA
:1039B000FE4F808191810E94E004C7CF83E38C0F8A
:1039C000833118F661E08C2F0E940B11BECFCF938C
:1039D000DF93EC010E9414129E01205E3109283011
:1039E000310510F0209741F40E942C1C8C2F0E946E
:1039F0008B1CDF91CF9108950E941B1CF7CFB0E084
:103A0000A0E0E5E0FDE10C9412338C01EB01809124
:103A1000580182FF86C0E090EF04F090F004E016B9
:103A2000F10621F00115110509F07BC080915801C4
:103A30008B7F8093580181FD6DC08091ED04909142
:103A4000EE04AE01481B590B81E0209156013091E4
:103A500057014217530708F480E08170D82E8091F7
:103A60005801D0FA81F98093580187011127F80194
:103A700084E0F695E7958A95E1F7EE0FFF1FE35393
:103A8000FB4F20813181A7014F70552781E090E0E5
:103A900002C0880F991F4A95E2F7DD20E9F1822BD9
:103AA000932B918380838091F10481FF08C08091E2
:103AB000580180618093580182E00E94E10F80915B
:103AC000F10485FF08C080915801806280935801FD
:103AD00080E20E94E10FDD2029F08091CC04826019
:103AE0008093CC04C70190528115904308F478016B
:103AF000C7010E94E71C8091EF049091F0049C01A3
:103B000030522115304308F499270E94731C0E94FB
:103B1000E31B17C081E0A1CF80959095822393236A
:103B2000C0CFC801905281159043A0F4C8019927D5
:103B30000E94731C8091EF049091F00408171907FC
:103B400031F3D093EE04C093ED04CDB7DEB7E7E0D8
:103B50000C942E33C801ECCF0F931F93CF93DF93B8
:103B60008C01EB010E94E71C209741F4C8010E94E0
:103B7000731CDF91CF911F910F9108958FE99FE002
:103B80000197F1F700C000002197EECFA9E0B0E067
:103B9000ECECFDE10C94153388E0E1E9F5E0DE01A1
:103BA000119601900D928A95E1F78091F40389872F
:103BB00049E050E060E473E0CE0101960E94C83312
:103BC0000091490310914A0320914B0330914C031B
:103BD000EFB7F89440910B0550910C0560910D05DD
:103BE00070910E05EFBF401B510B620B730B4436F7
:103BF00051056105710518F411E0892B21F18091BF
:103C0000370190913801835D9C4F4091360150E01F
:103C10004A30510510F049E050E0BE016F5F7F4F20
:103C20000E94D53386E090E00E949132182F8823BD
:103C300051F00E94AE046093490370934A0380934D
:103C40004B0390934C03812F2996E4E00C9431337D
:103C5000A4E0B0E0EEE2FEE10C94163340912903BB
:103C600050912A0360912B0370912C032FB7F89485
:103C700080910B0590910C05A0910D05B0910E055A
:103C80002FBF841B950BA60BB70B11E08436910553
:103C9000A105B10570F10E944D0D6E5F7F4F8F4FF2
:103CA0009F4F69837A838B839C8380912F019091AE
:103CB0003001835D9C4F40912E0150E0453051050D
:103CC00010F044E050E0BE016F5F7F4F0E94D5339B
:103CD00085E090E00E949132182F882351F00E94D5
:103CE000AE046093290370932A0380932B0390936F
:103CF0002C03812F2496E3E00C9432334F925F9291
:103D00007F928F929F92AF92BF92CF92DF92EF926B
:103D1000FF920F931F93CF93DF930F92CDB7DEB730
:103D2000C62E4A015901482E880F5508C2010E942B
:103D30009132782E882309F480C0C20133E0880FC5
:103D4000991F3A95E1F7FC01EA5FFE4F438150E08D
:103D50004115510511F041E050E08A5F9E4FFC0192
:103D600064817581635D7C4FCE0101960E94D533DD
:103D7000F40140815181628173812FB7F894809161
:103D80000B0590910C05A0910D05B0910E052FBF6C
:103D9000841B950BA60BB70B84369105A105B105C5
:103DA00040F4B701C8010E94B2059981891709F44E
:103DB00044C00C2C000CDD08C6010E949132782E04
:103DC000811113C0712C872D0F90DF91CF911F911E
:103DD0000F91FF90EF90DF90CF90BF90AF909F90AA
:103DE0008F907F905F904F900895C60123E0880FD9
:103DF000991F2A95E1F7FC01EA5FFE4F438150E0ED
:103E0000E416F50608F4A7018A5F9E4FFC01648161
:103E10007581635D7C4FC5010E94D533B701C80130
:103E20000E94B20599818913CDCF0E94AE04F4019E
:103E30006083718382839383C6CFA701B801C501D4
:103E40000E94D533C0CFA8E0B0E0E9E2FFE10C94D6
:103E5000133388E0E82EF12C04E313E09E012F5F7A
:103E60003F4F45E253E063E082E00E947E1E082F50
:103E7000882389F19091330380912403981759F195
:103E800010E090913703809136038917F1F0E92F04
:103E9000F0E0EF5CFC4F878187FB662760F99F5F4E
:103EA000937090933703909135039F5F9093350300
:103EB0008F770E94E805182F8111E3CF84E090E00E
:103EC0000E949132012F082302C01111F7CF809177
:103ED000330380932403802F2896E6E00C942F333D
:103EE000A5E0B0E0E6E7FFE10C9411336B0185E05B
:103EF000E82EF12C0EE213E09E012F5F3F4F40E2CF
:103F000053E061E080E00E947E1E882349F095E046
:103F1000FE013196ABE1B3E001900D929A95E1F785
:103F200095E0EBE1F3E0D60101900D929A95E1F76F
:103F30002596E8E00C942D331F93CF93DF93182F31
:103F4000EB010E948B1C209739F4812F0E94361CB4
:103F5000DF91CF911F9108958FE99FE00197F1F7CD
:103F600000C000002197EFCF70E060E0893311F4CA
:103F700060E570E00E949C1F08950F931F93CF93FC
:103F8000DF93C62FD42F022FFC0185818823A9F04F
:103F900060938F050E94BA0490938E0580938D05DF
:103FA000C77081E001C0880FCA95EAF70E942C1CF7
:103FB000DF91CF911F910F91089580918F05681324
:103FC00032C080918D0590918E050E949F048F3A9A
:103FD000910548F510E21D0FCD17B9F080E28C0F66
:103FE000883040F4C77081E001C0880FCA95EAF7B5
:103FF0000E94251C183048F481E09D2F977001C065
:10400000880F9A95EAF70E942C1C802F0E94B41FFB
:10401000183070F6D77081E001C0880FDA95EAF7A2
:104020000E94251CC5CFC77081E001C0880FCA95CA
:10403000EAF7F6CF80E09091C7042091C6042917D3
:10404000B9F1E92FF0E0E853FB4F808187FB882727
:1040500080F99F5F93709093C7049091C5049F5F10
:104060009093C5042091C2043091C30421153105F9
:1040700011F020FF0BC065E070E0882329F089EA89
:104080000E949C1F81E0D7CF8AEAFACF21FF08C0A7
:10409000882321F08BEA0E94B41FF4CF8CEAFBCF77
:1040A00023FFF0CF882311F08AEDF5CF89EDF3CF10
:1040B0000895B0E0A0E0EFE5F0E20C9407338C0146
:1040C000FC018481882309F4A1C021E04081518151
:1040D0006281738195810E94EF11EC018931F0E4D6
:1040E0009F0709F4A6C08B3120E4920709F470C041
:1040F0008630904409F48FC0C3378CE7D80709F4A1
:10410000A6C08091F4048111B3C0F8018581882391
:1041100031F1C13ED10529F0C23AF2E5DF0709F0DD
:10412000A4C08091D402882371F0F8018281938128
:104130002091D2023091D302821B930B8F3F9F4775
:1041400010F00E94BC0F81E08093D402F8018281BC
:10415000938181559F4F9093D3028093D2020E9406
:10416000BA043C01F8018581882309F461C2809179
:10417000580182FF07C047E753E0B30190E080E0B9
:104180000E94FF1CC231FCE7DF0709F44DC108F0B3
:104190001CC1C0313CE7D30709F440C1C1318CE7F1
:1041A000D80709F431C1CE0190528115904308F02F
:1041B0004DC21092F0041092EF04FE01E851FC474A
:1041C000E730F10508F0E2C2EC53FB4C0C94663387
:1041D000F8018681807F09F094CF8581882309F4D6
:1041E00090CF70E060E08BE198E00E94AC1D809180
:1041F0000503877059F0F8018581882339F0809193
:10420000610382FF03C082E00E94BC10CDB7DEB71D
:10421000E2E10C942333F8018681807F09F071CFAD
:104220008581882309F46DCF70E060E086E098E036
:10423000DCCFF8018681807F09F063CF85818823F8
:1042400009F45FCF70E060E089E198E0CECFF8013B
:104250008581882361F28091F404882319F00E94FB
:10426000111CC5CF0E94BC0FC2CF1092D40277CFD1
:10427000E090F104F0900E030E94BA0488579C4E1F
:104280009093F3048093F204F8018581882309F464
:1042900066CF8F2D8E298D7909F069C0C034F2E583
:1042A000DF07D0F5C11522E5D20708F058CFC115B8
:1042B00030E4D30758F4C11580E2D80708F04BC0AA
:1042C000C63ED10509F44BCF7E010BC0C11590E568
:1042D000D907D0F7F8018681807F09F440CF7E01AD
:1042E000FF248091580180FD57C08FEF0E94DA0FA4
:1042F000F8E2EF16F10408F051C02EE1E216F104E5
:1043000008F056C034E0E316F10488F18091CC0443
:1043100082608093CC044CC0C03EE2E5DE07A0F48E
:10432000C03CF2E5DF0708F01ACFC03622E5D2071D
:1043300058F2C03A32E5D30708F411CFC43B82E506
:10434000D80709F40CCFC0CFCE0187579C470297FE
:1043500008F0BACF04CFF8018681807F09F0BFCF83
:104360008D2F8F71823181F028F4823089F00E9484
:10437000111CF5CE843109F4F2CE8631C1F7F6EE88
:10438000EF2EF2E1FF2EADCFB5EEEB2EF12CA9CF43
:10439000A1EEEA2EF12CA5CF8DEFA8CF8DE2E81685
:1043A000F10409F4B3CF38F4EAE2EE16F104F9F6B9
:1043B0000E94B818D4CEFCE4EF16F104C9F32DE244
:1043C000E21622E0F206A1F3D2CFC4319CE7D9076E
:1043D000B9F080F090915801892F8E7F90FF816015
:1043E000C531FCE7DF0709F0DECE809358010E945B
:1043F000E31BD9CE80915801816080935801D3CEC0
:10440000809158018E7FF1CF809156019091570194
:1044100005969093570180935601C5CE8091560121
:10442000909157010597F5CF8090560190905701D4
:1044300080910401909105018816990629F58091D3
:10444000DB02803209F5E5EDF2E07F0181918032F7
:10445000E1F36AE0462EF7012081222309F4A3CE7E
:10446000213009F08CC08181813009F047C067019B
:10447000F2E0CF0ED11CF70182810E94B41F7601B9
:104480009FEFE91AF90AE7CF9092050180920401A3
:1044900080E28093DB02B12CA12C1092DA0275ED40
:1044A000C72E72E0D72E7601EAE02E2E312C412C59
:1044B000512CC501B401A20191010E946234605DDA
:1044C000603319F4CE14DF0431F081149104A10497
:1044D000B10409F460E2F7016483C501B401A201EB
:1044E00091010E94623449015A01F1E0EF1AF1088A
:1044F00020ED32E02E153F05E1F6A5CF823049F4DC
:104500006701F2E0CF0ED11CF70182810E948B1C63
:10451000B6CF833049F46701F2E0CF0ED11CF7012A
:1045200082810E94361CABCF843021F0FFEFEF1A5E
:10453000FF0AA6CF2281C70102967C0190E080E0AD
:10454000A7014F5F5F4F2053330B2A30310558F0DE
:10455000009709F495CFEFE9FFE03197F1F700C03C
:1045600000000197F5CF489EB001499E700D1124BF
:10457000C901860F971FF70121817A01E1CFE22F50
:10458000F0E0E452FF4F5490822F869586958695F1
:1045900090E0FC01E453FF4FA4902770B12C022E51
:1045A00002C0B594A7940A94E2F7F1E0AF22BB24CD
:1045B000FC01E454FF4F8490912C022E02C095948C
:1045C00087940A94E2F731E083229924FC01E455B0
:1045D000FF4FC490D12C02C0D594C7942A95E2F71E
:1045E00081E0C822DD24A114B10419F081EE0E94FB
:1045F0008B1C8114910419F086EE0E948B1C70E0D4
:1046000060E0852D0E949C1F8114910419F086EEB4
:104610000E94361CA114B10419F081EE0E94361CD0
:10462000C114D10409F42CCF8CE20E94B41F28CF0E
:10463000809158018F7EC13ED10531F0C53ED10534
:10464000C1F4809158018F7D809358018091580169
:1046500080FFB3CDF8018581CB32D105C9F078F464
:104660009E012E5131092A30310590F08111A1CDE2
:10467000A4CDCE0190528115904340F79ECDCD320E
:10468000D105A0F3C933D10518F0C436D10571F7AF
:10469000882309F457C080910E039091F104982B60
:1046A000292F2D7F61F11092F0041092EF04FE018A
:1046B00044E0F695E7954A95E1F7EE0FFF1FE353C7
:1046C000FB4F9E012F70332781E090E002C0880FDE
:1046D000991F2A95E2F78095909520813181822358
:1046E000932391838083CE010E94E71C80910E0367
:1046F0008D7F0E94D00F82E00E94BC1078CD27E011
:10470000F801A7E7B3E001900D922A95E1F7109226
:104710007A03109279032091580191FB21F920939B
:1047200058018D7F0E94D00FD093F004C093EF0406
:104730007092EE046092ED04809158018460809341
:104740005801D9CFA801B301CE010E94FF1C4FCD63
:1047500026E241EE61EEC8010E94BD1F48CD27E26E
:1047600045EE65EEF8CF26E241EE60EEF4CF27E2AB
:1047700045EE64EEF0CF26E241EE62EEECCF27E2AA
:1047800045EE66EEE8CF28E241E0EBCFF801858107
:10479000882309F418C410928F05CE01905783978F
:1047A00008F0FAC384E090E00E94F633909361032E
:1047B00080936003FE01E150F047E232F10520F4FE
:1047C000E553FB4C0C9466338091600381608093C9
:1047D000600395C0809161038860809361038FC0FE
:1047E000809160038260F3CF809160038460EFCF9B
:1047F000809160038860EBCF809161038160EDCF91
:10480000809161038260E9CF809160038061DFCF96
:10481000809160038062DBCF809160038064D7CF9A
:104820000E94F518809160038068D1CF8091600369
:104830008C60CDCF809161038360CFCF8091600386
:104840008E7FC5CF80916103877FC7CF8091600342
:104850008D7FBDCF809160038B7FB9CF8091600346
:10486000877FB5CF809161038E7FB7CF8091610341
:104870008D7FB3CF809160038F7EA9CF809160033D
:104880008F7DA5CF809160038F7BA1CF0E94F5180B
:10489000809160038F779BCF80916003837F97CF58
:1048A000809161038C7F99CF8091600382FB99276F
:1048B00090F921E0922790FB82F990FB83F987CF52
:1048C00080916103982F909591708E7F892B90FB3A
:1048D00081F983CF90916003892F8F7B96FF80644D
:1048E00076CF0E94F51890916003892F97FB87F986
:1048F00080586DCF61E08EE090E00E940C346091B2
:1049000060037091610384E090E00E942A340E9469
:10491000F5186DCC60E0EFCF90916003892F8F7E0A
:1049200094FF806154CF90916003892F8E7F90FF18
:1049300081604DCF90916103892F877F93FF8860BD
:104940004CCF8091DC0281110FC089E2ECECF2E0E7
:1049500022ED32E09191891303C0DF0111971C927F
:104960002E173F07B9F72CC385E3F0CF809191054F
:1049700091E089278093910510925D0180919005C7
:1049800081608093900533CC44EA56E06EEA76E08D
:104990000E940C062CCC4EEA56E064EA76E0F8CF92
:1049A00040E956E06AE976E0F3CF4AE956E060E98B
:1049B00076E0EECF46E756E063E876E0E9CF43E8FD
:1049C00056E066E776E0E4CF4CE556E069E676E04F
:1049D000DFCF49E656E06CE576E0DACF40E456E01A
:1049E0006EE476E0D5CF4EE456E060E476E0D0CFDA
:1049F00081E00E94F602FBCB85E0FBCF8DE0F9CF92
:104A000082E1F7CFC330FCE7DF0709F49CC008F070
:104A10005BC0C1153CE7D30709F466C0C130DC4771
:104A200009F497C0F8018581C081D181882309F4F8
:104A30009EC0CE010E94F20FF82E682FCE010E9478
:104A40006610BE018F2D0E94790E0E94980ED82FFD
:104A5000C92FA82EF801C580B680B2943FE0B322DA
:104A600080910503877009F1EC2CCC20F9F0892F97
:104A7000807F803469F080E28D0F8830B0F0892F1C
:104A8000807E803229F4F1E0FD1778F4BB2069F0D4
:104A90008091610382FF09C082E00E94BC10809176
:104AA00005038770EE24E3948111E12CDC2ED2946F
:104AB0002FE0D2222BE02D1508F4BAC0ED2DF0E046
:104AC000E351FB4C0C946633CB359CE7D90709F4D2
:104AD0004CC0CC35ECE7DE0709F43DC0CA35DC47F5
:104AE00009F0A0CF81E03EC00E94F5182FEF34E31B
:104AF0008CE0215030408040E1F700C0000081E0B0
:104B00008093E00080E28093D8001092C900EFE12A
:104B1000FEE43197F1F700C0000087E090EBDC0184
:104B20008093990590939A05A0939B05B0939C055B
:104B300088E19CE00FB6F894A895809360000FBEC2
:104B400090936000FFCF6FEF7FEF90E080E00E94D6
:104B50002A340E94CD1B8091610382FB882780F953
:104B600091E089270E9405175DCF80E0FBCFCE0141
:104B70000E943310F82E65CF3C2F3F70F32EC07F7C
:104B800019F0F29490EFF922CC20B9F0FF2069F0EF
:104B900080E28D0F883010F0A11009C08091F104DF
:104BA000F82AF092F1040E94B8188D2F3FC080912E
:104BB000CC04F82AF092CC04F6CF8D2F0E94361C3C
:104BC000FF20B1F1D05E8F2DD83010F0A11003C0BE
:104BD0000E94E10F02C00E94DA0F0E94B81828C09C
:104BE0008C2F8F70F82EC07FC03219F0F29480EFB6
:104BF000F822AA2059F091E0A91609F47AC0CC2035
:104C000009F486C0BB2009F448C0CFCF809161036E
:104C100082FD3FC0CC20B1F1FF2039F08091F1043A
:104C2000F82AF092F1040E94B81880E00E948B1CD0
:104C30002D2D2850330B2430310510F40E942A0505
:104C4000EE20A9F08091050380FD11C0F8011582C6
:104C50008695869586950E94D310C8010E9459209A
:104C6000809105038695869586950E94AA1020E07E
:104C7000F8014081518162817381848195810E9414
:104C8000EF11C4CA80E00E94361CFF2089F28F2DEC
:104C90009FCFCC20A1F0B11004C08F2D0E942C1CFE
:104CA000C7CFE1E0BE12C4CF80910E039F2D9823A1
:104CB000F91609F4BDCFF82AF0920E03B9CFB1105E
:104CC000B7CF8F2D0E94251C90910E038F2D892325
:104CD00029F08F2D8095892380930E038091DD022A
:104CE0009F2D982309F4A4CFF094F822F092DD02CE
:104CF0009FCFCC2029F0F5E0FB1508F499CFCDCF5C
:104D000024E02B1508F494CF8F2D0E94251C90CF02
:104D1000BB20D1F339E3A31209C08FEF97EEE3E094
:104D200081509040E040E1F700C000008D2F0E94CC
:104D3000361C7ECF8C2F86958695837069F08130E6
:104D400009F076CF8D2F9C2F9370C11002C080E0A8
:104D500090E00E94E0046CCF8D2F9C2F9370C110C7
:104D600002C080E090E00E94050562CF6C2D8D2F7F
:104D70000E940B115DCF8C2F837009F03FC0C110D2
:104D800057CF4D2F429546954770440F440F2D2F16
:104D90002F7030E0042E02C0220F331F0A94E2F776
:104DA00090E080E0D4FF09C08FE090E002C0880F5F
:104DB000991F4A95E2F780959095C695C695C37060
:104DC000C23099F078F440915E0350915F03C13096
:104DD00039F0822B932B842395230E94E31028CF54
:104DE000242B352B822B932BF8CF822B932B2091C6
:104DF0005E0330915F0382279327EFCF8695CC2007
:104E000011F08C2F8170882309F412CF4D2F429519
:104E100046954770440F440F2D2F2F7030E0042E1D
:104E200002C0220F331F0A94E2F790E080E0D4FF23
:104E300009C08FE090E002C0880F991F4A95E2F701
:104E400080959095C695C695C370C23099F078F458
:104E50004091C2045091C304C13039F0822B932B8E
:104E6000842395230E949C10E3CE242B352B822B88
:104E7000932BF8CF822B932B2091C2043091C30443
:104E800082279327EFCFCF70CC2029F08C2F0E9460
:104E9000D3108D2F03CF8D2F0E94251C8C2F0E94A5
:104EA000AA10C6CE8D2FF2EFAF1699F1FA1570F059
:104EB00020EFA216D1F031EFA31691F0CC2009F427
:104EC0005BC0B11072CE8C2F8F7127C093EFA916E3
:104ED00039F1E4EFAE12F2CF8091610382FD2EC072
:104EE0008C2F8F71CC20D9F218C0CC2069F0F4E05F
:104EF000FB1508F49DCECF7181E090E002C0880FD1
:104F0000991FCA95E2F7B8CF25E02B1508F490CE8B
:104F1000F2CF8C2F8F71C110C2CF0E94D31088CED8
:104F200090E080E0CC2009F49DCFCF7181E090E04B
:104F300002C0880F991FCA95E2F794CFCC2089F060
:104F4000CF718C2F0E94D3108091610382FF07C024
:104F500038E0C39FC00111248360809305038C2F28
:104F6000DCCF81E00E94BC1081E08B1508F060CEA0
:104F700082E00E94BC105CCEBB2059F0893309F05E
:104F8000D5CE9FEFE7EEF3E09150E040F040E1F73F
:104F9000CBCE8C2F8F7183CFC631FCE7DF0709F0B2
:104FA00031CD8091F1048A7A91E009F490E09093F8
:104FB000DC0269E2811165E38AEC92E00E94C6049A
:104FC0000E94B81814C9C6312CE7D20709F4B9CC2D
:104FD0008091F1048272FE01E052F847E531F1055B
:104FE00008F020CDE750FB4C0C946633CF93DF9351
:104FF00080910403807F09F04DC0809103038823D2
:1050000009F448C0E0915F0550912605C091FF0268
:10501000D091FE02609100037091010347E05E179A
:10502000C9F18E2F90E0E49FF0011124E95DFA4F61
:105030002481222391F1489FF001499FF00D112412
:10504000DF01A95DBA4F11962C9111972C1325C041
:105050002C912D1322C015962C91159721111DC04E
:1050600012962D913C91261B370B2F3A3105A8F44F
:10507000809104038F70806180930403E35DFA4F95
:1050800080818F70806180838EEF92E00E94592032
:105090000E94E80FDF91CF910895FC013196E770EF
:1050A000BECFA4E1B0E0E7E5F8E20C940D338C014B
:1050B00086E0F801DE011F9601900D928A95E1F7D6
:1050C000F8018481E5809EEFA92E92E0B92E90919F
:1050D0000203911128C0882319F1EE20F1F0C801D4
:1050E0000E94E810F82E8823C1F087E0F801D5016E
:1050F00001900D928A95E1F780910203813031F49D
:105100008091FE029091FF020E9426100E94F627D5
:105110008F2D6496ECE00C942933C8010E9459202D
:10512000FF24F394F5CFD080C18082809380F090EB
:1051300003032091000330910103A401421B530B90
:10514000FF2009F4D9C04F3A510508F092C08823D6
:10515000F9F29091FF0280910403282F207F09F03B
:1051600056C0C91214C09091FE02D91210C0E110AD
:1051700048C08F708061809304038EEF92E00E949C
:10518000592080910403F8018683F12CC1CFE110EE
:1051900038C06C2D8D2D0E940F036C2D8D2D0E941B
:1051A0000F03E82E8111F1CFDF86C88A8F85988999
:1051B0000E942610292F22952F70243058F49F70BA
:1051C000223088F0992399F0F8019681907F79F444
:1051D000FE2C9ECF2A5F2F70223068F0C8010E94FB
:1051E0005920EF2CF5CF992311F0882389F3805EA5
:1051F000883070F3F3CF803F58F3815F833070F7CE
:10520000E7CF80910403816080930403BECFC9126D
:1052100007C09091FE02D91203C0EE2009F48DC0A0
:10522000C8010E94E810882309F477CFEE2009F422
:1052300074CF80910403803288F02091FE02309177
:10524000FF02398728879B868A86909102039C8774
:105250001D868E87CE0108960E94592087E0F801AE
:10526000AEEFB2E001900D928A95E1F70E94F62729
:1052700057CF90910403292F207F51F48EEF92E0B5
:105280000E94592087E0F50111928A95E9F77DCFB8
:10529000882309F43DCF8091FF028C1110C08091CA
:1052A000FE02D8120CC0E1100AC09683C8010E9409
:1052B000592087E0F50111928A95E9F729CFC801B5
:1052C0000E94E810882309F428CFEE2009F425CFA6
:1052D00080910403803210F22091FE023091FF028F
:1052E0003A8329839C828B82909102039D831E8244
:1052F0008F83CE010196B0CF4F3A5105D0F6882367
:1053000009F40ECFFE2CEE2009F407CF8091FF02A6
:105310008C1120C08091FE02D8121CC08091040321
:1053200080FD0FC0982F907F61F08683903F31F011
:10533000982F907F905F8F70892B8683C8010E9481
:10534000592087E0F801AEEFB2E001900D928A9506
:10535000E1F7DECEC8010E94E81081117FCF809175
:105360000403816080930403C8010E945920D0CEB9
:10537000ABE1B0E0EEEBF9E20C9415334E8B5F8BB2
:10538000688F798F8A8F9B8F192F91111092CC047F
:105390001D8A86E0FE017696DE011F9601900D9231
:1053A0008A95E1F70A8D002341F021E04F85588965
:1053B00069897A89C8010E94EF110B8B1C8B87E0E9
:1053C000FE013F96DE01189601900D928A95E1F755
:1053D000CE0108960E94512881110CC087E0FE0181
:1053E0003896DE01119601900D928A95E1F78C8531
:1053F00081110BC017E080915F05909126058913FC
:1054000031C06B96E4E00C9431332091260530E0F6
:10541000C90101968770992740915F0548171906C1
:1054200099F097E0929FD001939FB00D1124A95D50
:10543000BA4FFE01319601900D929A95E1F7809353
:1054400026050E94E80FD6CF0E94F5181092260577
:1054500010925F0587E0EEEFF2E0DF011D928A9582
:10546000E9F7C8CF819FC0011124895D9A4F0E943E
:105470005128882331F280915F0590E00196877072
:10548000992780935F05B7CFA6E0B0E0EAE4FAE29F
:105490000C9415330E94BA048C0180910F039091F3
:1054A00010038017910781F019821A820E94BA04B2
:1054B000682F49815A81792F80E090E00E94B829B5
:1054C0001093100300930F032696E4E00C943133FD
:1054D0001F920F920FB60F9211242F933F934F9369
:1054E0005F936F937F938F939F93AF93BF93CF936C
:1054F000DF93EF93FF93D091E900DF708091EC0090
:10550000C82FC17080FDC0E81092E9008091F000C2
:10551000877F8093F00078940E941C191092E90014
:105520008091F00088608093F000CD2BCF70C09305
:10553000E900FF91EF91DF91CF91BF91AF919F91E2
:105540008F917F916F915F914F913F912F910F902C
:105550000FBE0F901F9018951F920F920FB60F92CB
:1055600011242F933F934F935F936F937F938F9368
:105570009F93AF93BF93EF93FF938091E10082FFDE
:1055800009C08091E20082FF05C08091E1008B7F1D
:105590008093E1008091DA0080FF24C08091D800E0
:1055A00080FF20C08091DA008E7F8093DA008091A6
:1055B000D90080FF9DC080E189BD82E189BD09B429
:1055C00000FEFDCF81E080931C0580910F058111C5
:1055D00009C00E9441030E94E2038091E2008460BE
:1055E0008093E2008091E10080FF17C08091E2008B
:1055F00080FF13C08091E2008E7F8093E200809153
:10560000E20080618093E2008091D8008062809304
:10561000D80019BC85E080931C058091E10084FFCF
:105620002BC08091E20084FF27C080E189BD82E128
:1056300089BD89B5982F917080FFFBCF8091D800EC
:105640008F7D8093D8008091E1008F7E8093E10070
:105650008091E2008F7E8093E2008091E200816081
:105660008093E20080911D05882309F447C084E0FF
:1056700080931C0580911C058091E10083FF27C069
:105680008091E20083FF23C08091E100877F8093B7
:10569000E10082E080931C0510921D058091E100DD
:1056A0008E7F8093E1008091E2008E7F8093E20004
:1056B0008091E20080618093E20042E060E080E05F
:1056C0000E94B0038091F00088608093F000FF9109
:1056D000EF91BF91AF919F918F917F916F915F916A
:1056E0004F913F912F910F900FBE0F901F901895E3
:1056F00019BC10921C0510920F0574CF8091E30025
:1057000087FD93E090931C05B5CF78941F921FB648
:105710001F9211248F939F93AF93BF9380910B059A
:1057200090910C05A0910D05B0910E050196A11D5B
:10573000B11D80930B0590930C05A0930D05B093BC
:105740000E05BF91AF919F918F911F901FBE1F902B
:1057500018951F921FB61F9211248F939F93AF939A
:10576000BF9380910A05811113C080910B05909120
:105770000C05A0910D05B0910E054196A11DB11D1E
:1057800080930B0590930C05A0930D05B0930E0527
:10579000BF91AF919F918F911F901FBE1F90189541
:1057A000CDB7DEB769970FB6F894DEBF0FBECDBF99
:1057B00085B7806885BF85B7806885BF84B7877FD8
:1057C00084BF0FB6F894A89580916000886180939B
:1057D0006000109260000FBE80E890E00FB6F89471
:1057E00080936100909361000FBE80E39DE09093F1
:1057F000C9028093C8020E9441030E94E203809183
:10580000E20084608093E200789480911C058823F4
:10581000A1F01091E9001F709091EC00892F817028
:1058200090FD80E8182B1092E9008091E80083FD3C
:105830000E941C191F701093E90082E084BD93E060
:1058400095BD9AEF97BD80936E0010924E03109213
:105850004F0310925003109251038091D800806141
:105860008093D8002AE12A95F1F700C08091D900F1
:10587000182F117080FD04C00E94410310921C0576
:105880001093020555985D988FE891E00197F1F724
:1058900000C0000089B185FB882780F9809303054B
:1058A000809349018091020581110E94A531E4ECA9
:1058B000F4E088E0DF011D928A95E9F780914901C3
:1058C00091E089278093800380914901909383031D
:1058D0008091490160E080E00E94D50561E080E0B0
:1058E0000E94D505EFE8F1E03197F1F700C0000024
:1058F00010E080918303181708F41FC280914901BA
:1059000081112CC085E0EEE5F1E0DE0119960190F1
:105910000D928A95E1F78985809344018A85809369
:1059200045018B85809346018C85809347018D8549
:105930008093480186E0E3E6F1E0DE0111960190F4
:105940000D928A95E1F7FE013196AEE3B1E0CE010A
:10595000079621912D93E817F907D9F7809149010E
:1059600095E0811190E090935D0385E0891B809321
:105970005C0304E411E099E4E92E91E0F92ED801EA
:105980008D918D018F3F11F00E94360DE016F106CA
:10599000B1F70EE311E084E4E82E81E0F82EF8017F
:1059A00081918F018F3F11F00E94360DE016F106B4
:1059B000B1F78AE0E2E6F3E0DF01282F1D922A9595
:1059C000E9F7E2E5F3E0DF011D928A95E9F790E05F
:1059D00080E00E94F633863E9E4F09F466C066EE74
:1059E0007EEF90E080E00E942A3460E082E090E068
:1059F0000E940C3481E090E090935F0380935E03FB
:105A000061E083E090E00E940C3460E074E184E0A7
:105A100090E00E942A3460E086E090E00E940C341E
:105A200060E087E090E00E940C3440E050E0BA0172
:105A300088E090E00E941E3460E084E290E00E94E2
:105A40000C3460E087E190E00E940C3460E08CE070
:105A500090E00E940C3460E08DE090E00E940C34F5
:105A600019821A821B821C821D821E821F82188646
:105A700048E050E068E170E0CE0101960E94FC33FE
:105A800040E050E0BA0180E290E00E941E3440E025
:105A900050E0BA018FE090E00E941E3440E050E0F8
:105AA000BA0183E190E00E941E3482E090E00E94FF
:105AB000EE3380936C0384E090E00E94F633909381
:105AC00061038093600383E090E00E94EE3390E0F6
:105AD0000E94E3100E943D06109264058FEF9FEF35
