:100000000C9462020C94732D0C949A020C949A0234
:100010000C949A020C949A020C949A020C949A02F0
:100020000C949A020C949A020C945C270C94182756
:100030000C9459280C949A020C949A020C949A02EB
:100040000C949A020C949A020C949A020C949A02C0
:100050000C949A020C9435280C949A020C949A02EF
:100060000C949A020C949A020C949A020C949A02A0
:100070000C949A020C949A020C949A020C949A0290
:100080000C949A020C949A020C949A020C949A0280
:100090000C949A020C949A020C949A020C949A0270
:1000A0000C949A020C949A020C949A02167C1E00EC
:1000B0001F002000210022002B0014001A0008005D
:1000C00015001700E00004001600070009000A00F0
:1000D000E1001D001B0006001900050000000000E3
:1000E000E300417E1E7C4A002A00270026002500EE
:1000F000240023002A00130012000C0018001C002A
:10010000340033000F000E000D000B001E7C380081
:10011000370036001000110000000000E600427EAB
:100120002C00A80035021E021F022002210222021A
:100130000100DA00CD00D900000000000100CF006E
:10014000CE00D0005200000001000100010050006C
:1001500051004F00000000000100010001002602D4
:100160004C00270226022502240223024C002E0006
:100170002D00D200D100D300010000004F0052003A
:1001800051005000010000004D004B004E004A009D
:1001900000000000010001002800AE0045003A0008
:1001A0003B003C003D003E0035001E001F002000CB
:1001B0002100220001003A003B003C003D003E00CF
:1001C00001004000410042004300440000000000E4
:1001D0000100010001002F024400430042004100E1
:1001E00040003F00310027002600250024002300A6
:1001F000310230002F002E002D003F0001003002A0
:100200002F022E022D024500000000000100010017
:100210002A000000010001000100010001000100AE
:1002200044003A003B003C003D003E00000000005E
:100230000000D300D100D2002078217827782378DD
:10024000257829780000000001000100010000006D
:100250000100010001000100010001004500430010
:100260004200410040003F00007CAB00D000CD00C8
:10027000CE00CF000100AE00DC00D900DA00DB00C8
:100280000000000001000100010000000001010168
:100290000101010101010202020202020202020343
:1002A0000303030303030304040404040404050513
:1002B00005050506060606060707070707080808D6
:1002C00008090909090A0A0A0B0B0B0C0C0C0D0D85
:1002D0000D0E0E0E0F0F0F1010111111121213131D
:1002E0001414151516161717181819191A1A1B1B96
:1002F0001C1D1D1E1E1F20202122222324242526F2
:1003000026272829292A2B2C2D2D2E2F3031323229
:10031000333435363738393A3B3C3D3E3F40414235
:10032000434445464748494A4C4D4E4F505153541B
:10033000555658595A5B5D5E5F61626465666869CF
:100340006B6C6D6F7072737577787A7B7D7E80824F
:10035000838587888A8C8E8F91939596989A9C9E98
:10036000A0A2A3A5A7A9ABADAFB1B3B5B7BABCBEA8
:10037000C0C2C4C6C9CBCDCFD1D4D6D8DBDDDFE275
:10038000E4E7E9EBEEF0F3F5F8FAFDFF0501090209
:10039000A10185020901A10005091901290815001B
:1003A0002501950875018102050109300931158182
:1003B000257F95027508810609381581257F9501ED
:1003C00075088106050C0A38021581257F9501758F
:1003D000088106C0C005010980A101850319012A11
:1003E000B700150126B700950175108100C0050CF6
:1003F0000901A101850419012AA002150126A00204
:10040000950175108100C005010906A101050719B4
:10041000E029E71500250195087501810295017510
:100420000881010507190029FF150026FF00950620
:1004300075088100050819012905950575019102C6
:10044000950175039101C009023B00020100A0FA69
:10045000090400000103010100092111010001222A
:1004600040000705810308000109040100010300A1
:100470000000092111010001227B000705820320F1
:100480000001120100020000000810CB5664200693
:10049000010200011A034900720069007300200084
:1004A0005200650076002E00200036006200000039
:1004B0000E034B0065006500620069006F000000DC
:1004C0000403090411241FBECFEFDAE0DEBFCDBF65
:1004D00004B603FE18C080911B0590911C05A091E5
:1004E0001D05B0911E058730904BA740B04B59F4C5
:1004F00010921B0510921C0510921D0510921E05EE
:10050000E0E0F8E3099512E0A0E0B1E0ECE2F0E60B
:1005100002C005900D92A63BB107D9F725E0A6EBE6
:10052000B2E001C01D92AB31B207E1F70E94802812
:100530000C949D2F0C94000090911305937061F022
:1005400081110BC094609093130510924B01809120
:1005500012058160809312050895833210F0986827
:10056000F2CF880F880F982BEECF909113059370E0
:1005700071F08093140560931505493708F048E73A
:1005800040931605809112058160809312050895AD
:10059000E8EDF0E080818E7F80831092E20010927F
:1005A000DA001092E100A0EEB0E08C9181608C93B3
:1005B00080818F77808319BCA7EDB0E08C918E7F0E
:1005C0008C9380818F7E80831092CB04089520913C
:1005D000E4003091E50095E6A9012091EC00822F1E
:1005E000817020FF06C08091E80080FF06C080E097
:1005F00008952091E80022FD1AC08091D804882334
:1006000089F0853089F08091EB0085FD0FC0209145
:10061000E4003091E50042175307F9F29150E1F6FA
:1006200084E0089582E0089583E0089581E00895CC
:100630008091DA0487FF13C08091E80082FF06C032
:100640008091E8008B778093E80004C08091D80403
:100650008111F2CF08958091D8048823D9F3809135
:10066000E80080FFF8CF8091E8008E77ECCF982FDC
:100670009093E900242F762F50E0891731F0709184
:10068000EC002091ED005091F00021FD07C09F5F2C
:10069000973071F78093E90081E008953091EB0085
:1006A0003E7F3093EB003091ED003D7F3093ED00C5
:1006B0003091EB0031603093EB007093EC002093AD
:1006C000ED005093F0002091EE0027FDE0CF80E098
:1006D0000895B0E0A0E0EFE6F3E00C94992EC8EDA9
:1006E000D0E088818F7E8883E7EDF0E080818160B3
:1006F000808384E082BF81E08093CB0488818E7FF9
:10070000888302EE10E0F80110821092DA0081EE88
:10071000C82ED12CF601108288818F77888388813A
:100720008068888388818F7D888319BC1092D80463
:100730001092D9041092D7041092D60490EEE92EAC
:10074000F12CF70180818B7F808388818160888391
:1007500042E060E080E00E943703F60180818E7FF6
:100760008083F801808181608083808188608083BC
:10077000F70180818E7F8083888180618883CDB7F7
:10078000DEB7E8E00C94B52EFC018091E004909176
:10079000E10486179707A0F06115710529F490917F
:1007A000E8009E779093E80090E06115710551F4A0
:1007B000911108C08091E80082FF34C080E0089564
:1007C000BC01F2CF8091D8048823C1F18530C1F1FA
:1007D0008091E80083FD30C08091E80082FDEACF7F
:1007E0008091E80080FFE1CF8091F3002091F2003A
:1007F000382F6115710519F02830310558F091E056
:100800002830310509F090E02091E8002E77209300
:10081000E800CBCF81918093F100615071092F5F87
:100820003F4FE7CF8091D804882341F0853041F0D5
:100830008091E80083FFBECF81E0089582E00895B3
:1008400083E008958091CD0408959C014FB7F894FA
:100850008091C7049091C804A091C904B091CA04C2
:100860004FBF821B930B08952FB7F8946091C70474
:100870007091C8048091C9049091CA042FBF089553
:100880002FB7F8948091C7049091C804A091C9042F
:10089000B091CA042FBF08959C01FC0132969FEFCE
:1008A00080E04191461751F09F3F19F4411101C07A
:1008B000982F8F5F8630A9F79F3F09F40895290F7D
:1008C000311D97FD3A95F90162830895A3E0B0E0E8
:1008D000ECE6F4E00C949F2E2091C4043091C50402
:1008E00028173907A1F09093C5048093C404E091C0
:1008F000C204F091C304309751F024E029839B8314
:100900008A830680F781E02DCE0101960995239612
:10091000E2E00C94BB2EA3E0B0E0E1E9F4E00C943B
:100920009F2E2091C0043091C10428173907A1F0EF
:100930009093C1048093C004E091C204F091C30479
:10094000309751F023E029839B838A830680F781C7
:10095000E02DCE01019609952396E2E00C94BB2E82
:10096000FC01680F791F8FEF91E32191822728E026
:1009700030E087FF09C0880F892721503109C9F766
:10098000E617F70791F70895880FF7CFFA0181115D
:1009900001C0FB0109950895E3E1F5E0248130E110
:1009A000231B08F420E0248380911205816080934A
:1009B00012050895E3E1F5E0248130E1230F08F406
:1009C0002FEF248380911205816080931205089592
:1009D000E3E1F5E0438120E1421B08F440E081813E
:1009E000628190E00E94B5020895E3E1F5E0438161
:1009F00020E1420F08F44FEF8181628190E00E9474
:100A0000B5020895E3E1F5E0628120E1621B08F49C
:100A100060E08181438190E00E94B5020895E3E1A6
:100A2000F5E0628120E1620F08F46FEF818143817C
:100A300090E00E94B5020895E3E1F5E081814381F1
:100A400062818850990B0E94B5020895E3E1F5E0B8
:100A5000818190E04381628108960E94B5020895E9
:100A60008091130586958695815009F482E20E9453
:100A70009C02089580911305869586958F5F833239
:100A800008F081E00E949C020895809345018091C6
:100A900013058370809344010E94EF1383E08093D9
:100AA0004B010895EF92FF920F939701201B31099C
:100AB0002F3F310519F010F02FEF30E02095382F3F
:100AC000320F08F43FEF832F0F91FF90EF900895BE
:100AD000EF92FF920F939701201B31092F3F3105B1
:100AE00019F010F02FEF30E0322F3095482F430FE0
:100AF00008F44FEF842F620F0F91FF90EF9008954D
:100B0000EF92FF920F93972F093438F4B701601BCF
:100B100071096F3F710519F010F06FEF70E0485FD9
:100B20005F4F4131510540F0A901485F5F4F4131AE
:100B3000510510F06FEF70E06095482F460F08F4F4
:100B40004FEF842F37FF02C02D5F3F4F359527951C
:100B50003595279560911405620F792F0F91FF90BD
:100B6000EF900895EF92FF920F931F930E0D1F2D9C
:100B7000111DF90137FF03C0F195E195F10924E05A
:100B8000EE0FFF1F2A95E1F7EF3FF10519F014F082
:100B9000EFEFF0E09A0157FF03C03195219531093D
:100BA00094E0220F331F9A95E1F72E173F070CF4BC
:100BB000F901E00FF11FEF3FF10519F010F0EFEF31
:100BC000F0E0E095282F3E2F230F08F42FEF822F1F
:100BD0001F910F91FF90EF900895EF92FF920F9366
:100BE000970195E0099F200D311D11242F3F3105FC
:100BF00019F010F02FEF30E02095382F320F08F465
:100C00003FEF832F0F91FF90EF90089522E8241B70
:100C100008F420E0620F08954095282F429F412D4F
:100C20001124842F08950F931F9310E0F801EE0F05
:100C3000FF1FE751FE4F9081905797FD9195000F50
:100C4000111FF801E355FE4F05AD0052110B2003B3
:100C5000F001219FF00D112408E310E0091B110998
:100C600097FD139540039001419F300D1124E20F31
:100C7000F31F9F01220F331F2E0F3F1F37FF02C0AC
:100C800021583F4F220F232F221F330B620F1F913A
:100C90000F9108950F931F93522F10E0F801EE0F5C
:100CA000FF1FE355FE4FA5ADA052BB0B9D015203A4
:100CB000F001539FF00D1124000F111FD801A7510F
:100CC000BE4F0C910057110B40039001419F300D16
:100CD00011242E0F3F1F37FF02C0215C3F4F96E0CB
:100CE000359527959A95E1F7620F1F910F91089519
:100CF0000F931F93522F10E0F801EE0FFF1FE355E3
:100D0000FE4FA5ADA052BB0B9D015203F001539FB6
:100D1000F00D1124000F111FD801A751BE4F0C91E7
:100D20000057110B40039001419F300D11242E0FED
:100D30003F1F37FF02C021583F4F220F232F221F92
:100D4000330B620F1F910F910895EF920F93972F1E
:100D500023E0029FB0011124759567956E0D792FE0
:100D60000F91EF900895322F50E0FA01EE0FFF1F20
:100D7000E355FE4F95AD905297FD9195440F551F49
:100D8000FA01E751FE4F2081231B330B290F311D40
:100D900097FD3A95620F0895E42FF0E0EE0FFF1FE4
:100DA000E355FE4F65AD621B0895E42FF0E0EE0FB2
:100DB000FF1FE751FE4F6081621B0895622F089567
:100DC000E42FF0E0EE0FFF1FE751FE4F408134EEBD
:100DD000439F412D1124E82FF0E050E0445E5F4F27
:100DE000DA01A21BB1099D01B7FF03C0319521951E
:100DF000310993E0220F331F9A95E1F7AF01421BAF
:100E0000530B9A0157FD20E0582F259F212D1124C7
:100E1000822F0895E42FF0E0EE0FFF1FE751FE4F01
:100E2000408134EE439F412D1124E72FF0E050E044
:100E3000445E5F4FDA01A21BB1099D01B7FF03C0F9
:100E400031952195310993E0220F331F9A95E1F7EF
:100E5000AF01421B530B9A0157FD20E0279F212D24
:100E60001124722F08950E94A0090895FF920F93F4
:100E70001F93CF93DF93182F062FF42ED0E0C0E0FE
:100E80002F2D402F612FCE010E9433072196C434AD
:100E9000D105B1F7CDB7DEB7E5E00C94B82EFC0173
:100EA0009B01009729F480E077FF2BC080E808952C
:100EB000AC0197FF04C044275527481B590BB901C3
:100EC000640F751F37FD10C0241B350BC901A5E049
:100ED000880F991FAA95E1F70E94DA2E80E2861BFF
:100EE000F7FF0FC081950895CB0165E0880F991F2A
:100EF0006A95E1F7BA01621B730B0E94DA2E80E655
:100F0000EECF0895EF920F93CF93DF93D72FC82F93
:100F1000C9010E19BA010E944F07602F681B7D2F6F
:100F20008C2FDF91CF910F91EF9008950F93CF9376
:100F3000DF93D72FC82FC901BA010E944F07682F2E
:100F4000600F7D2F8C2FDF91CF910F910895EF923D
:100F50000F931F93CF93DF93D62FC72F182FC9015D
:100F60000E19010FBA010E944F07081B202F219F65
:100F7000212D1124822F6D2F7C2FDF91CF911F9176
:100F80000F91EF900895EF920F931F93CF93DF93FC
:100F9000D62F172FC82FC9010E19070FBA010E94AB
:100FA0004F07702F781B719F712D11246D2F8C2F7F
:100FB000DF91CF911F910F91EF9008950F931F93A1
:100FC000CF93DF93D62FC72F182FC901212F201BB6
:100FD000022FBA010E944F07982F990F990F891B72
:100FE000800F282F219F212D1124822F6D2F7C2FE0
:100FF000DF91CF911F910F9108950F931F93CF937E
:10100000DF93D62F172FC82FC901272F201B022FA0
:10101000BA010E944F07982F990F990F782F791BCB
:10102000700F719F712D11246D2F8C2FDF91CF9137
:101030001F910F910895E82F86FDE0952E2F2F70B8
:1010400086FD2F5FE695E695E695E670F0E0EB55B8
:10105000FE4F9181929F902D212D112492959F708A
:101060002295207F922B2081920F87FD919580E819
:10107000890F0895AC018230910508F408959FEF1F
:10108000413E8EE1580740F49A0195E03695279548
:101090009A95E1F798E0920F61E0E62FE90FFF27BC
:1010A000FF1F9F0135952795822F229FF001239FD7
:1010B000F00DF00D11244E175F0738F49FEF920FDB
:1010C000961758F78FEF860F08952F3FE9F361E0E9
:1010D000620FF6CF0F93CF93DF93D72FC82F47FD23
:1010E000419588E390E0841B910947FD9395889F83
:1010F000B001899F700D700D1124229FC001239FA4
:10110000900D900D1124860F971F0E943A08982F7A
:10111000990F890F682F600F7D2F8C2FDF91CF9152
:101120000F91089530E020E0869F212D969F200D9D
:10113000311D1124C9010895AF92BF92CF92DF9261
:10114000FF920F931F93CF93DF93362F472FE82FF4
:10115000F0E0E457FD4F71110FC0E4918E2F2E2F58
:101160006E2F722FDF91CF911F910F91FF90DF9023
:10117000CF90BF90AF900895C72FD0E02491F22E6A
:10118000022F10E056E0659FC0011124EFEFF0E060
:10119000BF010E94C62E832F90E0880F991F35E56E
:1011A000369FD001379FB00D11248A1B9B0B982FBF
:1011B000990F980F6F01CC1ADD0AC09ED001C19E15
:1011C000B00DD09EB00D11248B2F499FA00111248A
:1011D000452F55276F01C41AD50AC09EA001C19E94
:1011E000500DD09E500D11245F01A91AB108AC9E7C
:1011F0006001AD9ED00CBC9ED00C1124CD2CDD2402
:10120000EC19FD09E09FE001E19FD00DF09FD00DAA
:101210001124ED2F62307105A1F050F461157105B4
:1012200009F49ECF6130710581F0EB2F852F98CFA7
:101230006430710569F080F06630710509F490CF73
:10124000F4CFE22F2B2F8D2F8BCFE22F252F88CF9E
:10125000EB2F822F2D2F84CF2B2F8F2DE52F80CF9B
:101260000E9440049C0190919C0380919D03982BC7
:1012700021F0309399032093980390919E038091DD
:101280009F03982B21F03093970320939603E091CE
:10129000C204F091C304309749F082E080939A032E
:1012A0000480F581E02D8AE993E009950895809105
:1012B000950380FD16C081FD16C082FD16C0809189
:1012C00094038823A1F0883280F428E0829FC00133
:1012D000112468E270E00E94DA2E862F672B39F025
:1012E000089582E0089584E0089588E0089581E0FB
:1012F00008958091950380FD14C081FD14C082FD86
:1013000016C080919303882381F08E3180F420E50C
:10131000829FC00111246EE170E00E94DA2E862FB8
:10132000089584E1089588E2089588E0089580E5AD
:10133000089580E0089589B185FB882780F9089594
:10134000FF920F931F93CF93DF93EC01F62E042FA0
:10135000122F0E949B0981110FC0C232D1057CF06F
:10136000A297FE01EE0FFF1FEC0FFD1FE253FC4F93
:10137000F1820083128303C0C232D10594F3CDB74A
:10138000DEB7E5E00C94B82ECF93C82F0E949B09DE
:10139000882329F081E0C23228F080E003C081E098
:1013A000C434D8F7CF910895A8E0B0E0EAEDF9E0B1
:1013B0000C948F2E282E7C836B83209148018EE025
:1013C000289F802D11248D83825F8983853410F0BE
:1013D00034E439830E949B09882329F08981833270
:1013E00010F092E299830E949B09811105C0ED8162
:1013F000E23210F4F2E2FD832091E6042A839D811B
:10140000892F90E098878F83880F991FFC01E355FF
:10141000FE4F6F01822D90E09C012F5F3F4F3E8376
:101420002D8389819F81981730F00E94C4092896E6
:10143000E2E10C94AB2EEF81F885EF58FD4F8081EF
:10144000909149018923F9F03090140540901505D9
:101450008D819E818A519B4F3C01522C10E0FA8174
:101460005F16D8F020911605129F112D1124632DBF
:10147000742D812F0E949C08462F282F672F8F8163
:1014800098850E9433072F8138852F5F3F4F38871B
:101490002F8332E0C30ED11CC4CFF30181913F01F1
:1014A000F601A4ACA81ABB0885ACF3018781881AA1
:1014B0009908AA9C9001AB9C300D300D1124889C9A
:1014C000C001899C900D900D1124820F931F0E94E2
:1014D0003A08082F6091170521E0620F08F46FEFBA
:1014E000F301EE0FFF1FE65EF440858996890E94A6
:1014F00092087C019401A501632D742D812FEB814D
:10150000FC810995362E472E5394182FA8CFB0E0B2
:10151000A0E0EDE8FAE00C94992E7C01C09148011E
:101520008EE0C89FC02D11241EE01C0F153408F05A
:1015300014E40E949B09882319F0133208F012E288
:101540000E949B09811103C0C23208F4C2E22091BB
:10155000170531E0230F08F42FEF30E050E040E0B2
:101560006FEF7FEF80E090E00E94EE2E6901D0E007
:1015700001E02C2FC11740F0812F0E94C409CDB784
:10158000DEB7E8E00C94B52EFE01EF58FD4F8081E8
:1015900090914901892309F14091E6044150042EBC
:1015A000000C550B47FF1BC0C60160911705600F6B
:1015B00008F46FEF0E949208AC01609114057091DD
:1015C000150580911605F70109950E949C08462F84
:1015D000282F672FCE010E9433072196CACFFA0128
:1015E000EA51FB4F818982130AC0FA01EE0FFF1FF7
:1015F000EA51FB4F818D928D8C159D05B0F24150C3
:101600005109D0CFB0E0A0E0E8E0FBE00C94972EC9
:101610006C01C09148018EE0C89FC02D11241EE0CE
:101620001C0F153408F014E40E949B09882319F05C
:10163000133208F012E20E949B09811103C0C232EA
:1016400008F4C2E260911705669566958091E20400
:101650009091E3040E949208F82E80E48F0D0E947E
:101660001B0890E8B92EB80E8F2D0E941B0820E8A9
:10167000A22EA80ED0E0C11740F0812F0E94C4090D
:10168000CDB7DEB7EAE00C94B32EFE01EF58FD4F64
:101690008081909149018923A1F060911405709196
:1016A000150580911605EF2C0C2F2A2D4B2DF601D8
:1016B00009950E949C08462F282F672FCE010E9473
:1016C00033072196D8CFB0E0A0E0E9E6FBE00C9428
:1016D000932E5C01C09148018EE0C89FC02D11245B
:1016E0001EE01C0F153408F014E40E949B098823A7
:1016F00019F0133208F012E20E949B09811103C015
:10170000C23208F4C2E26091170566958091E20446
:101710009091E3040E949208F82ED0E0CE01880F49
:10172000991F9C0123553E4F6901C11740F0812F3D
:101730000E94C409CDB7DEB7EEE00C94AF2EFE01D7
:10174000EF58FD4F808190914901892379F1F6018D
:1017500084AD282F2057330B490185ADE82FE05287
:10176000FF0B3F01889C9001899C300D300D1124A6
:10177000EE9FC001EF9F900D900D1124820F931FDB
:101780000E943A08082F6091140570911505809108
:101790001605EF2C9301A401F50109950E949C0800
:1017A000462F282F672FCE010E943307F2E0CF0E7D
:1017B000D11C2196BACFB0E0A0E0E1EEFBE00C94A2
:1017C000982E6C01C09148018EE0C89FC02D112455
:1017D0001EE01C0F153408F014E40E949B098823B6
:1017E00019F0133208F012E20E949B09811103C024
:1017F000C23208F4C2E26091170566958091E20456
:101800009091E3040E949208B82ED0E0CE01880F98
:10181000991F9C0123553E4F7901C11740F0812F3C
:101820000E94C409CDB7DEB7E9E00C94B42EFE01E6
:10183000EF58FD4F8081909149018923C1F0F70154
:1018400025AD2052330B44AD4057550B6091140524
:1018500070911505809116050B2DF60109950E94D2
:101860009C08462F282F672FCE010E943307F2E0F5
:10187000EF0EF11C2196D1CFEF92FF920F931F93A1
:10188000CF93DF937C01C09148018EE0C89FC02DAB
:1018900011241EE01C0F153408F014E40E949B096B
:1018A000882319F0133208F012E20E949B0981117B
:1018B00003C0C23208F4C2E26091170566956695CE
:1018C00021E0620F08F46FEF8091E2049091E3044D
:1018D0000E949208082FD0E0C11740F0812F0E948B
:1018E000C409CDB7DEB7E6E00C94B72EFE01EF5881
:1018F000FD4F808190914901892391F060911405F9
:101900007091150580911605202F4C2FF701099530
:101910000E949C08462F282F672FCE010E94330774
:101920002196DACFB0E0A0E0E8E9FCE00C94972E35
:10193000182F80914501811323C090911305937056
:101940002091440130E081E09217130609F480E011
:10195000817080934A0180911805909149019817F0
:1019600039F08093490140E060E080E00E94360752
:10197000133288F4E12FF0E0E156F04D0C940D2F76
:1019800081E0E6CF80914A01882389F140E060E060
:1019900080E00E94360780E02AC0C09148018EE0B6
:1019A000C89FC02D11240EE00C0F053408F004E48C
:1019B0000E949B09882319F0033208F002E20E947A
:1019C0009B09811103C0C23208F4C2E26091140580
:1019D00070911505809116050E949C08F62EE72E41
:1019E000D82ED0E0C017D8F0802F0E94C409909163
:1019F00048019F5F9093480181110CC082E0809361
:101A00004B0180914A01811105C0111103C083E08F
:101A100080934B01CDB7DEB7EAE00C94B32EFE0104
:101A2000EF58FD4F808190914901892331F02D2D90
:101A30004F2D6E2DCE010E9433072196D3CFC0913A
:101A400048018EE0C89FC02D11240EE00C0F053414
:101A500008F004E40E949B09882319F0033208F07F
:101A600002E20E949B09811103C0C23208F4C2E263
:101A7000E0901505F0901605D09114056D2F7E2D80
:101A80008F2D0E949C08D62EC72EB82E6091170568
:101A90006D0F7E2D8F2D0E949C08F62EE72EA82E0E
:101AA000D0E0C01708F0A0CFFE01EF58FD4F9081A5
:101AB00080914901892359F02A2D4F2D6E2D90FDDB
:101AC00003C02B2D4D2D6C2DCE010E943307219686
:101AD000E8CFC09148018EE0C89FC02D11240EE0D0
:101AE0000C0F053408F004E40E949B09882319F0C8
:101AF000033208F002E20E949B09811103C0C23246
:101B000008F4C2E2E0901505D09016052091170563
:101B100050E4F52E3F2D329F312D1124F32ED0E0CD
:101B2000C01708F061CFFE01EF58FD4F8081909102
:101B300049018923B9F0FE01EE0FFF1FE355FE4F67
:101B400085AD82958F70609114058F9D600D112475
:101B50007E2D8D2D0E949C08462F282F672FCE01A9
:101B60000E9433072196DCCFC09148018EE0C89FC8
:101B7000C02D11240EE00C0F053408F004E40E947F
:101B80009B09882319F0033208F002E20E949B09A6
:101B9000811103C0C23208F4C2E2E0901505D09072
:101BA00016052091170530E4F32E3F2D329F312D7D
:101BB0001124F32ED0E0C01708F016CFFE01EF5825
:101BC000FD4F8081909149018923D9F0FE01EE0FEC
:101BD000FF1FE355FE4F64ADF69EB001112495E062
:101BE000759567959A95E1F780911405680F7E2D9C
:101BF0008D2D0E949C08462F282F672FCE010E9412
:101C000033072196D8CFC09148018EE0C89FC02DE0
:101C100011240EE00C0F053408F004E40E949B0927
:101C2000882319F0033208F002E20E949B09811117
:101C300003C0C23208F4C2E2F0901405D091150539
:101C4000E0901605609117056695669566958091FA
:101C5000E2049091E3040E9492080E941B088058BD
:101C600087FD8195880F282F3E2D239F212D11243C
:101C7000822F6F2D7D2F0E949C08F62EE72ED82EE6
:101C8000D0E0C01708F0B0CEFE01EF58FD4F8081C4
:101C900090914901892331F02D2D4F2D6E2DCE01CC
:101CA0000E9433072196EDCF8AE097E00E943C0C1A
:101CB0009ECE80EE96E0FACF8DEF97E00E94DB0B90
:101CC00096CE8EED97E0FACF83EC97E00E94630BFF
:101CD0008ECE87EA97E0FACF8EED96E0E7CF85EDDE
:101CE00096E0E4CF8CEC96E0E1CF83EB96E0DECF9C
:101CF00085EA96E0EBCF8AE698E0E0CF86E997E0C8
:101D0000DDCF82E897E0E2CF88E796E00E94020B01
:101D10006ECE8AE496E0FACF83E196E0F7CF8CE0CE
:101D200096E00E94870A63CE86E096E0FACF809123
:101D3000E60421E0382F321B08F430E0832F6DEEEB
:101D400075E00E94D40953CE6DEE75E080E0F9CFC6
:101D50008091E60421E0382F321B08F430E0832F15
:101D600062EB75E0EECF62EB75E0F0CF8091E604B8
:101D700021E0382F321B08F430E0832F60E875E053
:101D8000E0CF60E875E0E2CF8091E60421E0382FF3
:101D9000321B08F430E0832F68E675E0D2CF68E6A6
:101DA00075E0D4CF8091E60421E0382F321B08F48F
:101DB00030E0832F62E575E0C4CF62E575E0C6CF01
:101DC000F894E82FE295EF70F0E031A1282F2F7002
:101DD00081E090E001C0880F2A95EAF7982F90954E
:101DE000932391A392A1892B82A378940895909133
:101DF0006D0392FF06C0282F28712830F9F4877FE1
:101E0000846093FF06C0282F28712831F1F4877E63
:101E1000846120916E0320FF06C0382F387138305E
:101E2000D9F4877F816021FF06C0282F28712831CF
:101E3000D1F4877E816194FD877E0895282F2471D7
:101E40002430F9F68B7F8860DCCF282F2471243171
:101E500001F78B7E8861DDCF382F3171313019F772
:101E60008E7F8860E0CF282F2171213121F78E7E6F
:101E70008861E1CF82389105B9F1B0F481339105E1
:101E800009F47DC048F48932910509F46DC08A32A5
:101E9000910509F47BC008958533910509F45FC06D
:101EA0008933910509F10895833E9105D9F138F4FC
:101EB000803E910529F1823E910579F10895863E93
:101EC0009105D9F1873E910509F43EC0843E910504
:101ED00041F520916E0321FF24C080916D0384FDA4
:101EE00019C087EE90E0089520916D03237009F0EA
:101EF0005AC020916E0323FF14C089E290E0089538
:101F000020916D0320FD38C030916E0330FF09C071
:101F100024FF43C090E080E0089520916D0322FDEE
:101F2000F7CF089520916D0322FD3AC030916E03E2
:101F300030FD39C024FFF5CFEDCF20916D0323FF95
:101F4000F0CF24FDE7CFCDCF20916D0323FD2EC030
:101F500030916E0331FFEECF84EE90E00895209132
:101F60006D0325FFDECFC9CF20916D0325FD21C074
:101F700020916E0323FFD5CF89E390E0D2CF20914B
:101F80006D0326FFCECF8AE290E0089520916D0385
:101F900026FFC7CF81E390E0089583EE90E0089597
:101FA00082EE90E0089580EE90E0089586EE90E055
:101FB000089585E390E00895972F7A30B8F466305D
:101FC000A8F48430B0F470E026E0929F600D711D9B
:101FD0001124FB019CE3899FE00DF11D1124EE0FFC
:101FE000FF1FE455FF4F85919491089580E090E0A4
:101FF000089581E0FCCF1F93CF93DF930E943A0FA7
:10200000EC01C11580E5D807F0F5C11580E4D807CB
:1020100008F09CC0C03ED10520F5CD3CD10508F0AC
:1020200082C0C83AD10578F4C53AD10508F073C02A
:10203000C130D10519F1209709F1C430D105F0F470
:10204000D0E0C0E01BC0C33CD105D0F7C85AD0E0F7
:10205000CC0FDD1FC35ADE4F0990D881C02DD46448
:102060000DC0C11580E2D80708F0D1C0C11581E0CC
:10207000D80708F05AC0C83ED10510F7CE01DF914D
:10208000CF911F910895C03682E5D80718F5C03466
:1020900082E5D80708F06BC0C03282E5D80708F0A7
:1020A0005FC0C11582E5D80708F497C02C2F26958C
:1020B000269580E2289F900111248C2F8370C1E027
:1020C000D0E002C0CC0FDD1F8A95E2F7C22BD32BE4
:1020D000DD68D4CFC03A82E5D80760F4C03882E525
:1020E000D80708F459C0CF71D0E0DC2FCC27C46FDB
:1020F000D06AC4CFC03C82E5D80708F462C0C03EB5
:1021000082E5D80708F09CCFDC2FCC27CC27DF71E5
:10211000C06FD06AB3CFC55AD0E0C65ADE4FC8816F
:10212000D0E0D064ABCFD065A9CF8D2F0E94F70E41
:10213000182FCE0199270E943A0FC12FD0E0DC2F33
:10214000CC27CC27DF71C82BD92B98CFCE0199276C
:102150000E943A0FCC27DF70C82BD92BD06A8ECFC4
:10216000CF71D0E0DC2FCC27C16FD06A87CF2C2F66
:1021700026952695277080E2289F900111248C2FA8
:102180008370C1E0D0E002C0CC0FDD1F8A95E2F77A
:10219000C22BD32BDC6872CF2C2F26952695277067
:1021A00080E2289F900111248C2F8370C1E0D0E041
:1021B00002C0CC0FDD1F8A95E2F7C22BD32BDA6861
:1021C0005DCF8C2F8F710E94F70EC82FD0E0DC2FCF
:1021D000CC27CC27DF71D06251CF8C2F8F710E941A
:1021E000F70E55E0D695C7955A95E1F7CF70D0E038
:1021F000DC2FCC27282F30E084FF05C044E0220FDD
:10220000331F4A95E1F7C22BD32BD06937CF8D2FDF
:102210008F710E94F70E182FCE0199270E943A0F56
:10222000C12FD0E0DC2FCC27CC27DF71C82BD92BD6
:10223000D2CF0E943404089580912203811110921C
:102240002203089590916E0392FF05C0909122039E
:102250009813809322030895809590919A0498236F
:1022600090939A040895209118039091E70256E004
:10227000291302C080E0089530E0529FF001539F7F
:10228000F00D1124E851FD4F7181761306C0708165
:10229000781303C07281741304C02F5F3F4F2770FF
:1022A000E7CF81E00895809118039091E702981399
:1022B00001C008958F5F8770FACFB0E0A0E0E3E639
:1022C000F1E10C94982E7C010091190510911A05EA
:1022D0008091230390912403082B192BCFE0D0E0A9
:1022E000CC24C394D12CBC2EC6010C2E02C0880F66
:1022F000991F0A94E2F780239123892B49F42197AF
:1023000090F7B12C8B2DCDB7DEB7E9E00C94B42E4D
:10231000B7018C2F0E94DC0F0E94FB0F019779F30D
:10232000F1CFCF93DF93EC010E945D11BE010E94BB
:10233000DC0F0E94FB0FDF91CF9108959A3078F562
:10234000863068F5E82FF0E086E0989FE00DF11DFB
:1023500011249E2F977083E0F695E7958A95E1F713
:10236000EE0FFF1FEE0FFF1FEF53FD4F50E040E059
:1023700080E0219130E0092E02C0369527950A941D
:10238000E2F721703327042E01C0220F0A94EAF7E6
:10239000822B4F5F5F4F4430510559F7089580E01D
:1023A00008959A3098F5863088F5E82FF0E086E0B9
:1023B000989FE00DF11D11248E2F877041E001C020
:1023C000440F8A95EAF783E0F695E7958A95E1F759
:1023D000EE0FFF1FEE0FFF1FEF53FD4F30E020E029
:1023E00070E05191DF011197CB01022E02C096954A
:1023F00087950A94E2F78170819585278423852744
:102400008C932F5F3F4F2430310559F708959093F7
:102410001A058093190508958091190590911A0560
:102420009C01267033272630310521F488600E94F4
:1024300007120895877FFBCF21E030E002C0220F12
:10244000331F8A95E2F72095309580911905909178
:102450001A05822393230E9407120895909119036D
:102460008095892380931903282F277091F4282FB2
:10247000082E000C330B9217130659F090916E033F
:1024800092FF07C08595859585950E941C12109234
:102490001903089521E030E002C0220F331F8A950E
:1024A000E2F78091190590911A05822B932B0E94D7
:1024B0000712089590932403809323030895FC0149
:1024C00083819481892B29F08081918189238F3F99
:1024D00051F480E00895843FE1F717C0883EA8F0EA
:1024E000813FB9F712C0808191810E94911192952C
:1024F0009F70963099F358F4925F9F70923048F72E
:10250000803F19F040F7883E20F781E008959A5FF8
:10251000F4CF662309F45DC08D3C41F40E94790933
:10252000819580939D030E94300908958E3C19F493
:102530000E947909F6CF8F3C31F40E947909819588
:1025400080939C03F0CF803D19F40E947909F8CF65
:10255000893D29F40E94570980939E03E4CF8A3D68
:1025600021F40E9457098195F7CF8B3D31F40E94E9
:102570005709819580939F03D6CF8C3D19F40E9413
:102580005709F8CF9FE2980F983070F4815D990B4E
:1025900021E030E001C0220F8A95EAF780919B0389
:1025A000822B80939B03BFCF8D3D31F480919503A7
:1025B000816080939503B7CF8E3D21F48091950380
:1025C0008260F7CF8F3D09F0AECF80919503846094
:1025D000F0CF40919C038D3C59F480919D0387FF7F
:1025E0000DC010929D0341110BC01092930308C0BF
:1025F0008E3C81F480919D0318169CF3442381F056
:1026000080919E0390919F03892B09F08CCF1092AB
:10261000940389CF8F3C49F447FFF0CF10929C037D
:1026200080919D038111ECCFE0CF803D19F4141609
:10263000ACF3E4CF90919E03893D29F41916F4F68A
:1026400010929E03DBCF8A3D19F497FFD7CFF8CFC6
:1026500090919F038B3D29F497FFD0CF10929F0359
:10266000CDCF8C3D19F41916CCF3C8CF9FE2980F4B
:10267000983090F4815D990B21E030E0B90102C0FF
:10268000660F771F8A95E2F7CB01809590919B03A7
:10269000892380939B03B2CF8D3D31F480919503C4
:1026A0008E7F80939503AACF8E3D21F48091950370
:1026B0008D7FF7CF8F3D09F0A1CF809195038B7F60
:1026C000F0CF9C013A9521153F4150F5FC01EE27D2
:1026D000F170BC0166277270AC01442754709C01F4
:1026E0002227387094FF0EC080E1EF2B09F480E0C0
:1026F000672B09F08062452B09F08064232B89F059
:102700008068089581E0EF2B09F480E0672B09F0E1
:102710008260452B09F08460232B19F088600895AE
:1027200080E008950F931F93CF93DF938B01EA010D
:102730009091D804943061F58093E9008FEF9091E7
:10274000E800815095FD06C095ED9A95F1F70000DF
:102750008111F5CF8091E80085FF1AC00E94E70241
:10276000811111C08091E80085FD06C08091E800CC
:102770008E778093E800F2CFF80181918F018093EA
:10278000F100219779F78091E8008E778093E80037
:10279000DF91CF911F910F91089543E050E0BC016C
:1027A00082E00E949213089546E050E0BC0182E06E
:1027B0000E9492130895CF93DF93EC0148E050E01C
:1027C000BC0181E00E94921388E0FE01AEECB4E00F
:1027D00001900D928A95E1F7DF91CF9108956E9A5D
:1027E0003EB13F7B2EB120644FB7F8948EEC93E05E
:1027F000FC015191CF0168E02EB9000000C057FFE5
:102800003EB9550F000000C000C000C03EB900C076
:102810006A9591F7F4E08A399F0751F74FBF8FE52A
:1028200094E00197F1F700C000000895B0E0A0E047
:10283000ECE1F4E10C94972E7C015B016A0180913C
:102840005A0301E010E08A3010F40AE010E0C1E021
:10285000D0E0B501C701F6010995811104C02196A8
:102860000C171D072CF4CDB7DEB7EAE00C94B32E9D
:10287000CC9F9001CD9F300D300D112490E080E071
:1028800045E34A95F1F70000019682179307C1F7D7
:10289000E0CF80913103811110C08091D800806118
:1028A0008093D8008AE18A95F1F700C08091D90021
:1028B00080FF0AC081E08093310381E09091310371
:1028C000913009F080E0089582E0809331030E9406
:1028D000C8021092D804F1CF0E944914882359F0FD
:1028E000E091C204F091C304309729F00190F08187
:1028F000E02D0995089580E008950F931F930E949D
:102900004914882329F00E9434041F910F910895DF
:102910000E94340400915B0310915C0320915D03DD
:1029200030915E03600F711F821F931FEECFCF9215
:10293000DF92EF92FF926B017C010E944914882381
:10294000A1F02FB7F8946091C7047091C8048091EA
:10295000C9049091CA042FBF6C197D098E099F0983
:10296000FF90EF90DF90CF9008950E947D14F4CFF8
:102970004F925F926F927F928F929F92AF92BF928F
:10298000CF92DF92EF92FF926091C9037091CA03D8
:102990008091CB039091CC030E9497146B017C0132
:1029A0000E947D144B015C018092C9039092CA037E
:1029B000A092CB03B092CC03A091A003E0EAF3E095
:1029C0008A2F90E04FEF5FEF60E070E04C195D09F7
:1029D0006E097F09A91328C08093A0038091CD03BD
:1029E000811135C090911305892F837019F0892FBB
:1029F0008695869590914B01913009F441C09923B9
:102A000041F1923009F43FC0933009F43FC0FF9088
:102A1000EF90DF90CF90BF90AF909F908F907F907E
:102A20006F905F904F900895218D328D2901712C08
:102A3000612C441555056605770520F481509F5F8C
:102A40003296C8CF2C0D3D1D328F218FF8CF80E0FC
:102A5000D1CF109248018092E2049092E304A092B8
:102A6000E404B092E50489E2E0EAF3E0A6EEB4E023
:102A700001900D928A95E1F781E080934B01C7CFD9
:102A80000E94920CC4CF0E944505C1CF80911205CF
:102A9000882351F046E050E06CE170E083E195E07E
:102AA0000E94532F109212056091E2047091E3048A
:102AB0008091E4049091E5040E94971460317105BF
:102AC0008105910508F4A3CF10924B01A0CFE3E15B
:102AD000F5E085E3808380914C0190914D01A091B8
:102AE0004E0181839283A3838FE784838FEF858355
:102AF00046E050E06CE170E0CF010E94532F10924D
:102B00001205089580919A0490919B04892B8093DB
:102B1000B80290912203992391F0892B8093B802F7
:102B200020E08AEB92E0FC013191CF0131112F5F5F
:102B3000F2E0803C9F07B9F721110E941C1148E088
:102B400050E06AE173E088EB92E00E94872F892BC6
:102B5000A9F088E0E8EBF2E0AAE1B3E001900D9281
:102B60008A95E1F7E091C204F091C304309731F007
:102B70000280F381E02D88EB92E009950895809121
:102B80004601877F8093460190919B049D7F90939F
:102B90009B0484FF08C08F7E8093460180919A0435
:102BA000826080939A048091460185FF08C08F7DE2
:102BB0008093460180919A04806280939A040E94D7
:102BC00082150895882341F0809590919B04892374
:102BD00080939B040E9482150895882339F0909178
:102BE0009B04982B90939B040E9482150895882340
:102BF00021F00E942C110E9482150895882339F03B
:102C000090919A04982B90939A040E9482150895AB
:102C10008823D1F19CEF980F913A78F4EAEBF2E037
:102C20009191891303C0DF0111971C9292E0E03C5F
:102C3000F907B1F70E948215089590E2980F983035
:102C400050F4877091E001C0990F8A95EAF7892FB7
:102C50000E942C11EFCF9BE5980F933028F490E061
:102C600080E00E948B04089598E5980F9B3128F42A
:102C700090E080E00E946604089593E3980F9331FA
:102C800018F460E00E9489120895CF93DF93EC015D
:102C90000E940816CE010E9461139E01205E310938
:102CA0002830310510F0CD2B29F40E94F715DF9163
:102CB000CF9108950E94E215FACFCF93C82F8823B1
:102CC000B1F08CEF8C0F813A00F5EAEBF2E080EC8A
:102CD00092E0DF012D91C21761F08A179B07D1F7AF
:102CE0006C2F88EB92E00E944C040E948215CF91D9
:102CF00008952191C21303C0DF0111971C928E1712
:102D00009F07B9F70E948215EBCF80E28C0F8830C5
:102D100068F4C77021E030E001C0220FCA95EAF7DD
:102D200080919A04822B80939A04DFCFEBE5EC0F1D
:102D3000E33040F4F0E0E65AFE4F808190E00E94DC
:102D40008B04D5CFE8E5EC0FEB3150F4F0E0EE0F5B
:102D5000FF1FE35AFE4F808191810E946604C7CF16
:102D600083E38C0F833118F661E08C2F0E94891267
:102D7000BECF1F93CF93DF93182FEB010E945D16F8
:102D8000209739F4812F0E940816DF91CF911F916F
:102D900008958FE99FE00197F1F700C000002197A7
:102DA000EFCF70E060E00E94B91608950F931F9373
:102DB000CF93DF93C62FD42F022FFC01828188236B
:102DC000A9F0609311050E94400490931005809330
:102DD0000F05C77081E001C0880FCA95EAF70E940D
:102DE000FE15DF91CF911F910F91089580911105EC
:102DF000681332C080910F05909110050E94250440
:102E00008F3A910548F510E21D0FCD17B9F080E219
:102E10008C0F883040F4C77081E001C0880FCA95DC
:102E2000EAF70E94F715183048F481E09D2F97705B
:102E300001C0880F9A95EAF70E94FE15802F0E9424
:102E4000D116183070F6D77081E001C0880FDA957E
:102E5000EAF70E94F715C5CFC77081E001C0880F5F
:102E6000CA95EAF7F6CF8091190590911A05009757
:102E700011F080FF0DC0662339F065E070E089EA4B
:102E80000E94B91680E0089565E070E08AEAF8CF04
:102E900081FFF8CF8BEA611101C08CEA0E94D11644
:102EA000F1CFCF93DF93EC010E9461139E01205E6E
:102EB00031092830310510F0209741F40E94FE15A9
:102EC0008C2F0E945D16DF91CF9108950E94ED1521
:102ED000F7CFB0E0A0E0EFE6F7E10C949A2E8C017A
:102EE000EB018091460182FF82C0E090BE04F09029
:102EF000BF04E016F10621F00115110509F077C0B5
:102F0000809146018B7F8093460181FD69C080914D
:102F1000BC049091BD049E01281B390B81E0263929
:102F2000310508F480E08170D82E80914601D0FAF6
:102F300081F98093460187011127F80184E0F69515
:102F4000E7958A95E1F7EE0FFF1FE456FB4F2081CE
:102F50003181A7014F70552781E090E002C0880FB2
:102F6000991F4A95E2F7DD20E9F1822B932B91839B
:102F7000808380919A0481FF08C08091460180611E
:102F80008093460182E00E942C1180919A0485FF73
:102F900008C08091460180628093460180E20E94D1
:102FA0002C11DD2029F080919B04826080939B048A
:102FB000C70190528115904308F47801C7010E941F
:102FC00051178091BE049091BF049C01305221158D
:102FD000304308F499270E9445160E94BF1517C078
:102FE00081E0A1CF8095909582239323C0CFC80123
:102FF000905281159043A0F4C80199270E9445166C
:103000008091BE049091BF040817190731F3D09343
:10301000BD04C093BC04CDB7DEB7E7E00C94B62E78
:10302000C801ECCFAFE0B0E0E8E1F8E10C94942EF9
:103030008E010F5F1F4F8AE0D8011D928A95E9F734
:1030400086E3C82E81E0D82EF12CE12CAA24A3948B
:10305000B12C26E3822E21E0922EF60181916F01A0
:103060008F3F09F442C0F894E82FE295EF70F0E04A
:1030700021A18F70A50102C0440F551F8A95E2F768
:10308000CA01922F982B91A392A18095892382A3A4
:10309000789400C0E0E3F1E0712C31E021912F3F02
:1030A00009F46BC0A22FA295AF70B0E090968C91FE
:1030B00090E02F7002C0959587952A95E2F780FDE4
:1030C0005CC0832F782A330F8E169F0639F7F601DE
:1030D000319780818F3F11F00E94E00E50EA5A959F
:1030E000F1F7F801EE0DFF1D70828FEFE81AF80A74
:1030F00095E0E916F10409F0B0CF4AE050E0B801DC
:1031000081E693E00E94872F009741F02AE0F801C2
:10311000A1E6B3E001900D922A95E1F700916C03CE
:10312000892B69F181E0809329030E9440049093E8
:1031300028038093270380912703909128030E94FE
:103140002504059700F110E001591C4F45E050E0BF
:1031500061E673E0C8010E94872FD12C892B51F0C2
:1031600085E0E1E6F3E0D80101900D928A95E1F760
:10317000DD24D3941092290307C080E0A3CF80916F
:1031800029038111D8CFD12C0E944914C82EE09177
:103190006C03DE011B967D01882309F47AC085E06B
:1031A0001D928A95E9F70E2F10E001591C4F80916E
:1031B0005A038A30D8F54CE55EE1B701C8010E9498
:1031C0001614882309F454C043E05EE1B701C80136
:1031D0000E941614882309F44BC048E05DE1B70152
:1031E000C8010E941614882309F442C046EA5CE133
:1031F000B701C8010E9416148823D1F110925A0316
:1032000080916B0390E045E050E0B70181599C4FFD
:103210000E94872F21E020933003892BE1F4C12CF9
:103220008C2D8D292F96EDE00C94B02E80912A03E1
:1032300090912B030E942504843F914008F0BBCF5E
:1032400080913003882359F385E0F70111928A9524
:10325000E9F710923003A0916B03B0E0A159BC4F85
:1032600085E0FE013B9601900D928A95E1F7D8CF5B
:1032700080915A038F3F31F08F5F80935A038A30D9
:1032800008F4BECF0E94400490932B0380932A033E
:10329000D7CFF0E0E159FC4F85E0A4E4B3E0019022
:1032A0000D928A95E1F765E070E084E493E00E9476
:1032B000B0048093430340918F0350E060918E03EC
:1032C00070E066577C4FC7010E94942F8B858093D6
:1032D0004A0361E070E0C7010E94B0048093490393
:1032E00080904B0390904C03A0904D03B0904E0300
:1032F00080912C0390912D03A0912E03B0912F0368
:1033000088169906AA06BB06D1F080922C039092EB
:103310002D03A0922E03B0922F030E944914811115
:103320000EC00E943404861A970AA80AB90A80922D
:103330005B0390925C03A0925D03B0925E0386E013
:10334000EFE4F3E0A3E1B5E001900D928A95E1F797
:1033500010915503112349F08091CD03811105C0CF
:103360000E94920C80E00E9445051093CD0358CF37
:10337000CF9310929A04C6E0EAEBF2E0DF018C2FC3
:103380001D928A95E9F790E080E00E948B0490E01E
:1033900080E00E94660410929B040E948215EAE974
:1033A000F3E0DF011D92CA95E9F7109293031092A2
:1033B0009403109295030E943009CF910895AAE2D8
:1033C000B0E0E5EEF9E10C949E2E8AED94E02091B8
:1033D000F100FC012193CF01F4E0823E9F07B9F791
:1033E0008091DB04833009F470C0B8F4813009F4B3
:1033F00047C0823009F4B1C08091E80083FF7EC2EB
:103400008091DA049091DB049A3008F077C2E92FBA
:10341000F0E0EE53F04D0C940D2F8A3009F48CC07F
:103420008B3009F46FC0893039F78091DA0481322A
:1034300019F78091DE049091DF040297E8F68091FD
:10344000E800877F8093E8008091E80082FF38C021
:103450009091F3008091F200029731F48091F10095
:10346000813011F0863021F48091F1008093CD04F9
:103470008091E8008B778093E8000E941803BCCF0E
:103480008091DA04813A09F0B7CF8091E800877F14
:103490008093E8008091DE049091DF04892B61F431
:1034A00068E08EEC94E070E00E94C4038091E80034
:1034B0008B778093E800A0CF60E090E080E0F3CFCE
:1034C0008091D8048111C0CF97CF8091DA04813ADE
:1034D00009F092CF8091DE049091DF04892B09F0EE
:1034E0008BCF8091E800877F8093E8008091E8008F
:1034F00080FFFCCF809147018093F1008091E8002C
:103500008E77B9CF8091DA04813209F075CF80913E
:10351000DE049091DF04892B09F06ECF8091E800E2
:10352000877F8093E8000E9418038091DC048093D9
:1035300047010E94B81960CF8091DA04813209F006
:103540005BCF8091E800877F8093E8000E9418039A
:103550008091DD048093CC044FCF8091DA04813ACE
:1035600009F04ACF8091E800877F8093E80080913E
:10357000E80080FFFCCF8091CC04BECF803899F06A
:10358000823809F0BBC18091DE048F70873008F06B
:10359000B5C18093E9008091EB0085FB882780F915
:1035A0001092E90006C08091D6049091D704911141
:1035B00082609091E800977F9093E8008093F100FB
:1035C0001092F1008091E8008E7794C1882309F46D
:1035D00082C1823009F092C18091DC04811185C1E1
:1035E0008091DE048F702FEF280F263008F086C1FF
:1035F0008093E9002091EB0020FF77C1933031F4F4
:103600008091EB0080628093EB006FC19091EB00A2
:1036100090619093EB0021E030E001C0220F8A9589
:10362000EAF72093EA001092EA008091EB008860AC
:10363000EACF811163C11091DC041F778091E30010
:103640008078812B8093E3008091E800877F8093CE
:10365000E8000E9418038091E80080FFFCCF809171
:10366000E30080688093E30082E0111183E080939F
:10367000D80444C18058823008F040C18091DC04F5
:103680009091DD048C3D23E09207A1F583E08A83CD
:103690008AE289834FB7F894DE01139620E03EE07A
:1036A00051E2E32FF0E050935700E49120FF03C074
:1036B000E295EF703F5FEF708E2F90E0EA30C0F040
:1036C000C7968D939D932F5F243159F74FBF8091FB
:1036D000E800877F8093E8006AE270E0CE010196FF
:1036E0000E94C4038091E8008B778093E80006C1B4
:1036F000C096E7CF4091DE045091DF04292F332795
:103700002330310509F444C078F52130310509F43E
:103710006FC08BE390E0E7E4F4E02230310509F07C
:10372000EDC02091E800277F2093E8002091E0047D
:103730003091E1048217930708F49C0140E02115C1
:10374000310509F064C0411162C08091E80082FD3A
:10375000C9CF8091D804882329F2853019F280914D
:10376000E80083FFF2CFBECF21323105A9F122322A
:10377000310509F0C3C04115510509F443C041307A
:10378000510509F0BBC08BE790E0ECE8F3E0C9CF4E
:10379000992781309105C1F0009759F0029709F0FF
:1037A000ADC0E4E9F4E0E4918E2F90E0E4E9F4E0C8
:1037B00007C0E0ECF4E0E4918E2F90E0E0ECF4E060
:1037C000009709F49BC0ADCFE0EBF4E0E4918E2FBD
:1037D00090E0E0EBF4E0F4CF4115510571F0413099
:1037E000510509F08BC089E090E0E2E7F4E099CF61
:1037F00082E190E0E2E8F4E094CF89E090E0E9E54E
:10380000F4E08FCF80E490E0E7E0F4E08ACF8091AD
:10381000D804882309F466CF853009F463CF8091FA
:10382000E80083FD5FCF8091E80082FD8ECF80911C
:10383000E80080FF84CF9091F3008091F200211581
:10384000310519F08830910550F041E0089709F0F2
:1038500040E08091E8008E778093E80070CF44913B
:103860004093F1003196215031090196E8CF80381C
:1038700009F044C08091E800877F8093E800809140
:10388000D9048093F1009ECE811138C01091DC04E0
:103890001230A0F58091E800877F8093E8001093B4
:1038A000D9040E941803112311F084E005C080910F
:1038B000E30087FDFACF81E08093D80442E061EC19
:1038C00081E00E94370342E261EC82E00E9437030C
:1038D0008091D80413C08091DC04813079F481E0B8
:1038E000933009F080E08093D7041092E900809132
:1038F000E800877F8093E8000E9418038091E80029
:1039000083FF0AC08091E800877F8093E800809160
:10391000EB0080628093EB00AA96E3E00C94BA2E51
:103920000E94B8192FEF84E39CE021508040904022
:10393000E1F700C0000088E19CE00FB6F894A8957C
:10394000809360000FBE90936000FFCFA7E0B0E0CF
:10395000ECEAFCE10C949D2E86E0E3E1F5E0DE016B
:10396000119601900D928A95E1F78091CD038F8396
:1039700047E050E06FE473E0CE0101960E94872F8C
:103980000091560310915703209158033091590329
:10399000EFB7F8944091C7045091C8046091C904EE
:1039A0007091CA04EFBF401B510B620B730B44367E
:1039B00051056105710518F411E0892B21F1809101
:1039C000290190912A018D5B9C4F4091280150E084
:1039D0004830510510F047E050E0BE016F5F7F4F67
:1039E0000E94942F85E090E00E94192E182F8823C2
:1039F00051F00E94340460935603709357038093F0
:103A0000580390935903812F2796E4E00C94B92E24
:103A1000A4E0B0E0EEE0FDE10C949E2E40913F0367
:103A20005091400360914103709142032FB7F89485
:103A30008091C7049091C804A091C904B091CA04B0
:103A40002FBF841B950BA60BB70B11E08436910595
:103A5000A105B10570F10E947D146E5F7F4F8F4FFD
:103A60009F4F69837A838B839C83809121019091FE
:103A700022018D5B9C4F4091200150E04530510563
:103A800010F044E050E0BE016F5F7F4F0E94942F22
:103A900084E090E00E94192E182F882351F00E9494
:103AA000340460933F0370934003809341039093E9
:103AB0004203812F2496E3E00C94BA2E4F925F923A
:103AC0007F928F929F92AF92BF92CF92DF92EF92AE
:103AD000FF920F931F93CF93DF930F92CDB7DEB773
:103AE000C62E4A015901482E880F5508C2010E946E
:103AF000192E782E882309F480C0C20133E0880F84
:103B0000991F3A95E1F7FC01E050FF4F438150E0E7
:103B10004115510511F041E050E080509F4FFC01EC
:103B2000648175816D5B7C4FCE0101960E94942F5C
:103B3000F40140815181628173812FB7F8948091A3
:103B4000C7049091C804A091C904B091CA042FBFC2
:103B5000841B950BA60BB70B84369105A105B10507
:103B600040F4B701C8010E94B0049981891709F493
:103B700044C00C2C000CDD08C6010E94192E782EC2
:103B8000811113C0712C872D0F90DF91CF911F9160
:103B90000F91FF90EF90DF90CF90BF90AF909F90EC
:103BA0008F907F905F904F900895C60123E0880F1B
:103BB000991F2A95E1F7FC01E050FF4F438150E047
:103BC000E416F50608F4A70180509F4FFC016481BC
:103BD00075816D5B7C4FC5010E94942FB701C801B0
:103BE0000E94B00499818913CDCF0E943404F4015E
:103BF0006083718382839383C6CFA701B801C50117
:103C00000E94942FC0CFA1E0B0E0E9E0FEE10C9467
:103C1000982EEE24E394F12C0AE413E09E012F5F2A
:103C20003F4F4BE353E063E082E00E945E1DC82EED
:103C3000882339F100E080E01DC0D0906003D00EF1
:103C40002D2D30E0A90146575C4F7A01E1E0F0E00C
:103C5000EC0FFD1FE00FF11D1081FA019081191B7F
:103C6000B12E1B149CF0912F17FD90E0191B111120
:103C700018C00F5F90915F030917F8F281110E943D
:103C800019118C2D2196E9E00C94B42EBA94F70109
:103C900080818F5F808360E08D2D0E9433178C2D93
:103CA000E0CF1F5FF70180818150808361E08D2D1F
:103CB0000E9433178C2DDBCFA5E0B0E0E2E6FEE1F9
:103CC0000C94992E6B0185E0E82EF12C04E413E0AE
:103CD0009E012F5F3F4F47E353E061E080E00E9489
:103CE0005E1D882349F095E0FE013196A2E3B3E022
:103CF00001900D929A95E1F795E0E2E3F3E0D601A9
:103D000001900D929A95E1F72596E8E00C94B52E76
:103D100090916E0392FB222720F9281779F080FBFF
:103D200092F990936E0360916D0370916E0384E03D
:103D300090E00E94812F82E00E942E12089567EE8B
:103D40007EEF90E080E00E94812F60E082E090E0D2
:103D50000E94632F60E083E090E00E94632F109246
:103D600024031092230360E074E184E090E00E9459
:103D7000812F60E086E090E00E94632F6FEF87E084
:103D800090E00E94632F40E050E0BA0188E090E0AC
:103D90000E94752F60E08DE090E00E94632F40E06C
:103DA00050E0BA0188E190E00E94752F60E087E161
:103DB00090E00E94632F40E050E0BA018CE190E077
:103DC0000E94752F70E060E080E290E00E94812FF9
:103DD00040E050E0BA0188E190E00E94752F40E099
:103DE00050E0BA018FE090E00E94752F40E050E073
:103DF000BA0183E190E00E94752F0895A5E0B0E03C
:103E0000E4E0FFE10C94952E7C01FC018381948118
:103E1000892B31F08081918189238F3F09F02DC555
:103E20002596ECE00C94B12E0E945D11182F682F9E
:103E300089819A810E94D11169817A81812F0E94A2
:103E4000DC0F8C018134FEE79F0709F465C0A8F5FB
:103E500080349E4709F441C00E9440046C01F70180
:103E60008281811173C0809146018F7E013E1105D0
:103E700039F0053E110509F0BEC0809146018F7DE5
:103E8000809346018091460180FFBBC0F70182818B
:103E90000B32110509F4CAC008F0BDC098012E51BB
:103EA00031092A30310508F4C1C0882309F4A9C0BA
:103EB0001092BF041092BE04A4C002348EE718070B
:103EC000C9F103349EE7190739F6F7018281882387
:103ED000C9F183E00E944A120DC0F7018281882354
:103EE00049F061E083E090E00E94632F81E090E080
:103EF0000E945A1280911903877009F491CFF7013B
:103F00008281882309F48CCF80916E0382FF88CF51
:103F100082E00E942E1284CFF7018281882331F043
:103F200081E00E944A120E940C12E4CF81E00E94BC
:103F30001C12F9CFF7018281882311F082E0F1CFC2
:103F400082E0F5CF83E00E941C12D4CF809146011D
:103F500082FF07C044E853E0B60190E080E00E9491
:103F600069170431FCE71F0709F441C005312CE74C
:103F7000120791F103313CE7130729F480914601C0
:103F8000816080934601C80190528115904308F0EA
:103F900079CF1092BF041092BE04F701828188236A
:103FA00009F492C410921105C8019057839708F044
:103FB00075C484E090E00E944D2F90936E0380932F
:103FC0006D03F801E150F047E232F10508F0AEC0B0
:103FD000E453F04D0C940D2F90914601892F8E7F64
:103FE00090FF8160809346010E94BF15CCCF8091E5
:103FF00046018E7FF7CFC80190528115904308F09B
:1040000041CFF801E851FC47E730F10530F6E251C5
:10401000F04D0C940D2F0D32110508F446CF0933E5
:10402000110520F00436110509F03FCF882309F46B
:1040300059C08091220390919A04982B292F2D7FAB
:1040400061F11092BF041092BE04F80144E0F695AD
:10405000E7954A95E1F7EE0FFF1FE456FB4F9801F5
:104060002F70332781E090E002C0880F991F2A95B6
:10407000E2F780959095208131818223932391836B
:104080008083C8010E945117809122038D7F0E9476
:10409000221182E00E942E122DCF26E0F701A4E823
:1040A000B3E001900D922A95E1F7109286031092E9
:1040B0008803109287032091460191FB21F92093F8
:1040C00046018D7F0E9422111093BF040093BE040D
:1040D000D092BD04C092BC0480914601846080935C
:1040E0004601D7CFA701B601C8010E94691702CFC8
:1040F00026E241EE61EEC7010E94D616FBCE27E212
:1041000045EE65EEF8CF26E241EE60EEF4CF27E211
:1041100045EE64EEF0CF26E241EE62EEECCF27E210
:1041200045EE66EEE8CF28E241E0EBCF80916D03EB
:10413000816080936D0395C080916E038860809349
:104140006E038FC080916D038260F3CF80916D0309
:104150008460EFCF80916D038860EBCF80916E0318
:104160008160EDCF80916E038260E9CF80916D0315
:104170008061DFCF80916D038062DBCF80916D0322
:104180008064D7CF0E94B81980916D038068D1CF29
:1041900080916D038C60CDCF80916E038360CFCF13
:1041A00080916D038E7FC5CF80916E03877FC7CFCF
:1041B00080916D038D7FBDCF80916D038B7FB9CFD3
:1041C00080916D03877FB5CF80916E038E7FB7CFCF
:1041D00080916E038D7FB3CF80916D038F7EA9CFC9
:1041E00080916D038F7DA5CF80916D038F7BA1CFD3
:1041F0000E94B81980916D038F779BCF80916D03DA
:10420000837F97CF80916E038C7F99CF80916D03D0
:1042100082FB992790F921E0922790FB82F990FB8D
:1042200083F987CF80916E03982F909591708E7F40
:10423000892B90FB81F983CF90916D03892F8F7B20
:1042400096FF806476CF0E94B81990916D03892FF4
:1042500097FB87F980586DCF61E08EE090E00E9477
:10426000632F60916D0370916E0384E090E00E9473
:10427000812F0E94B8193ECE60E0EFCF90916D0380
:10428000892F8F7E94FF806154CF90916D03892F89
:104290008E7F90FF81604DCF90916E03892F877F35
:1042A00093FF88604CCF85E318C38091130591E09C
:1042B00089278093130510924B018091120581602C
:1042C0008093120517CE40E355E06AE375E00E9443
:1042D000C60410CE4AE355E060E375E0F8CF4CE148
:1042E00055E066E275E0F3CF46E255E06CE175E03B
:1042F000EECF42E055E06FE075E0E9CF4FE055E0EA
:1043000062E075E0E4CF48EE54E065EF74E0DFCFA3
:1043100045EF54E068EE74E0DACF4CEC54E06AED1F
:1043200074E0D5CF4AED54E06CEC74E0D0CF81E07E
:104330000E949C02DFCD85E0FBCF8DE0F9CF82E1CA
:10434000F7CF0E94B819FFEF24E33CE0F150204082
:104350003040E1F700C0000081E08093E00080E29F
:104360008093D8001092C9008FE19EE40197F1F785
:1043700000C0000087E090EBDC0180931B05909368
:104380001C05A0931D05B0931E0588E19CE00FB6A7
:10439000F894A895809360000FBE90936000FFCFC3
:1043A0006FEF7FEF90E080E00E94812F0E94901CD1
:1043B00080916E0382FB882780F991E089270E9413
:1043C000881EF701828100811181882309F449C088
:1043D000C8010E945D11D82E682FC8010E94D1111A
:1043E000B8018D2D0E94DC0F0E94FB0F8C01882EDE
:1043F000F701D280B580B2943FE0B32280911903D7
:104400008770F1F0AD2CDD20E1F0812F807F8034CA
:1044100051F080E2800F883098F0B11004C0812FF5
:10442000807E803269F080916E0382FF09C082E055
:104430000E942E12809119038770AA24A3948111DF
:10444000A12C912E92942FE09222FBE0F91508F412
:104450006DC0E92DF0E0EB50F04D0C940D2F80E095
:10446000AECFC8010E949E11D82EBACF212F2F7037
:10447000C22E107F19F0C29490EFC922DD20B9F04E
:10448000CC2069F080E2800F883010F0811009C0E4
:1044900080919A04C82AC0929A040E948215802FA3
:1044A00043C080919B04C82AC0929B04F6CF802F02
:1044B0000E940816CC20D1F1005E083010F0811067
:1044C00004C08C2D0E942C1106C0C09480919B04C6
:1044D000C822C0929B040E94821528C0312F3F70D1
:1044E000C32E107F103219F0C29480EFC8228820AA
:1044F00059F081E0881609F471C0DD2009F47BC011
:10450000BB2009F471C0CBCF80916E0382FD44C003
:10451000DD20E1F1CC2039F080919A04C82AC092C4
:104520009A040E94821580E00E945D16292D285071
:10453000330B2430310510F40E946C14AA20A9F02A
:104540008091190380FD11C0F70112828595859530
:1045500085950E944A12C7010E94FE1E8091190390
:104560008595859585950E941C1285E0F701DE01F1
:10457000119601900D928A95E1F709811A81C8017F
:104580000E949E11B8010E94DC0F4ACC80E00E947C
:104590000816CC2059F295CFDD2071F080912203CE
:1045A0008C29B11003C00E94FE15C0CF91E0B91252
:1045B000FACF0E942211BACFB11006C00E941C117E
:1045C0008C2D0E94F715B2CFE1E0BE1609F4AECFF4
:1045D0008C2D0E94F7150E941C11A8CFDD2031F010
:1045E000F5E0FB1508F4A2CF8C2DDDCF24E02B15D0
:1045F00008F49CCFE5CFBB2019F339E3831209C03F
:104600008FEF97EEE3E081509040E040E1F700C08B
:104610000000802F0E94081689CF812F86958695ED
:10462000837061F0813009F081CFC8019370D1109F
:1046300002C080E090E00E94660478CFC8019370C9
:10464000D11002C080E090E00E948B046FCF6D2DEE
:10465000802F0E9489126ACF812F837009F03FC09A
:10466000D11064CF402F429546954770440F440FB8
:10467000802F8F7090E0042E02C0880F991F0A943B
:10468000E2F730E020E004FF09C02FE030E002C094
:10469000220F331F4A95E2F720953095169516950F
:1046A0001370123099F078F4409123035091240351
:1046B000113039F0822B932B842395230E945A12B8
:1046C00035CF842B952B822B932BF8CF822B932BDA
:1046D000209123033091240382279327EFCF8695DF
:1046E000DD2011F0812F8170882309F41FCF402F26
:1046F000429546954770440F440F802F8F7090E08D
:10470000042E02C0880F991F0A94E2F730E020E0DF
:1047100004FF09C02FE030E002C0220F331F4A958A
:10472000E2F720953095169516951370123099F092
:1047300078F44091190550911A05113039F0822B07
:10474000932B842395230E940712F0CE842B952B64
:10475000822B932BF8CF822B932B2091190530912C
:104760001A0582279327EFCF1F70DD2029F0812FB4
:104770000E944A12802F17CF802F0E94F715812F99
:104780000E941C12D3CE802FF2EF8F1699F1F815EC
:1047900070F020EF8216D1F031EF831691F0DD201A
:1047A00009F45BC0B1107BCE812F8F7127C093EFCE
:1047B000891639F1E4EF8E12F2CF80916E0382FDFB
:1047C0002EC0812F8F71DD20D9F218C0DD2069F055
:1047D000F4E0FB1508F4AACE1F7181E090E002C05E
:1047E000880F991F1A95E2F7B8CF25E02B1508F42A
:1047F0009DCEF2CF812F8F71D110C2CF0E944A126D
:1048000095CE90E080E0DD2009F49DCF1F7181E01E
:1048100090E002C0880F991F1A95E2F794CFDD202F
:1048200089F01F71812F0E944A1280916E0382FFCE
:1048300007C038E0139FC0011124836080931903DF
:10484000812FDCCF81E00E942E1281E08B1508F0D1
:104850006DCE82E00E942E1269CEBB2059F08933C2
:1048600009F0D7CE9FEFE7EEF3E09150E040F04043
:10487000E1F7CDCE812F8F7183CF85E0DE011196D8
:1048800001900D928A95E1F7F701228189819A8141
:104890002111CACA0E949E11182FCECA0631FCE708
:1048A0001F0749F580919A048A7A91E009F490E013
:1048B0009093C00269E2811165E388EB92E00E9467
:1048C0004C040E94821516CB06312CE7120799F58D
:1048D0008091C0028111E7CC89E2EAEBF2E020ECA2
:1048E00032E09191891303C0DF0111971C922E17BA
:1048F0003F07B9F7E6CF03303CE7130709F450CD83
:1049000050F401159CE7190709F41BCD01301C4731
:1049100009F44CCD56CD0B35FCE71F0709F49FCDAC
:104920000C352CE7120709F443CD0A351C4709F072
:1049300048CD81E044CD80919A048272F801E05222
:10494000F847E531F10508F03CCDEF5FFF4C0C94E2
:104950000D2F1F93CF93DF938091E602807F09F0A4
:104960004BC08091E302882309F446C0809118036C
:10497000C091E7024091E1025091E2026091E402AD
:104980007091E502D42FD52316E0C817A9F190E065
:1049900061157105A9F1DF3F99F1189FF001199F89
:1049A000F00D1124DF01A851BD4F11962C911197E4
:1049B000251326C02C91241323C012962C911297F4
:1049C00021111EC013962D913C91261B370B2F3AB7
:1049D0003105B0F48091E6028F7080618093E60229
:1049E000E351FD4F80818F708061808381EE92E082
:1049F0000E94FE1E0E945311DF91CF911F910895D6
:104A000001968770C2CFA1E1B0E0E9E0F5E20C9435
:104A1000952E8C0185E0F801DE011D9601900D9226
:104A20008A95E1F7F801E28081EE882E82E0982EE7
:104A30004091E4025091E5024115510509F430C15D
:104A40009091E1022091E202892F82238F3F09F4A5
:104A500027C1D080C180A380B480F090E302B5016B
:104A6000641B750BFF2009F4E7C08091E602382F24
:104A7000307F6F3A710508F0ABC0311178C0FE2C61
:104A80002C1114C09D1112C0E11010C08F708061F4
:104A90008093E602C4010E94FE1E8091E602F801A6
:104AA00085838F2D6196ECE00C94B12EA114B10496
:104AB000C9F18D2D8C218F3FA9F181E08E2580FFDA
:104AC00005C04E2D6C2D8D2D0E943311A114B10403
:104AD00059F18D2D8C218F3F39F181E08E25F82FF2
:104AE000F170BF2E80FF39C04E2D6C2D8D2D0E9490
:104AF0003311A82E811131C0DD86CE868D859E852D
:104B00000E949111292F22952F70243078F49F70E4
:104B10002230A8F09923B9F0F8019581907F99F49B
:104B2000FA2CBFCF80E0CBCF80E0D9CF2A5F2F70A7
:104B3000223068F0C8010E94FE1EAB2CF1CF9923F1
:104B400011F0882369F3805E883050F3F3CF803F03
:104B500038F3815F833070F7E3CFEE2009F4A1CF03
:104B60008091E60281608093E602F12C9ACF2C11AD
:104B700005C09D1103C0EE2009F477C0C8010E9452
:104B80005F12882309F1EE20F9F08091E60280326D
:104B900070F02091E1023091E20238872F8319866C
:104BA000BB86AA868C87CE0107960E94FE1E86E0F1
:104BB000F801A1EEB2E001900D928A95E1F70E9412
:104BC000A924FF24F3946DCFC8010E94FE1EF9CFE3
:104BD00031110AC081EE92E00E94FE1E86E0F401CF
:104BE00011928A95E9F7C1CF2C110EC09D110CC00E
:104BF000E1100AC08583C8010E94FE1E86E0F40110
:104C000011928A95E9F74DCFC8010E945F1288235F
:104C1000D9F2EE20C9F28091E602803240F2209172
:104C2000E1023091E2023A8329831B82BD82AC8289
:104C30008E83CE010196B9CF6F3A7105F8F6FE2C3E
:104C4000EE2011F22C111EC09D111CC08091E602B5
:104C500080FD0FC0982F907F61F08583903F31F0E9
:104C6000982F907F905F8F70892B8583C8010E9459
:104C7000FE1E86E0F801A1EEB2E001900D928A9549
:104C8000E1F70FCFC8010E945F12811190CF809190
:104C9000E60281608093E602C8010E94FE1E01CFF9
:104CA000EE2009F491CFC8010E945F12F82E8823EC
:104CB00009F48ACF86E0F801A1EEB2E001900D92EE
:104CC0008A95E1F78091E1029091E2020E949111B0
:104CD0000E94A924E6CEA7E1B0E0E1E7F6E20C9459
:104CE0009E2E4B8B5C8B6D8B7E8B8F8B611110920C
:104CF0009B041A8A198A85E0FE017396DE011D96CF
:104D000001900D928A95E1F786E0FE013D96DE0165
:104D1000179601900D928A95E1F7CE0107960E94B1
:104D20000325882359F016E0809118039091E7023B
:104D3000891343C06796E3E00C94BA2E86E0FE0127
:104D40003796DE01119601900D928A95E1F78A85DA
:104D50009B85892B41F38F81988589238F3F19F398
:104D60002091E70230E0C9010196877099274091B0
:104D700018034817190671F40E94B8191092E70237
:104D80001092180386E0E1EEF2E0DF011D928A95B1
:104D9000E9F7C9CF96E0929FD001939FB00D1124FF
:104DA000A851BD4FFE01319601900D929A95E1F701
:104DB0008093E7020E945311B6CF819FC001112456
:104DC00088519D4F0E940325882309F4B3CF809119
:104DD000180390E001968770992780931803A4CF59
:104DE000A5E0B0E0E6EFF6E20C949D2E0E944004B0
:104DF0008C01809125039091260380179107A1F0E3
:104E00008FEF89838A831B820E9440048160782F00
:104E10009D838C8349815A816B818D810E946B2691
:104E200010932603009325032596E4E00C94B92EF5
:104E30001F920F920FB60F9211242F933F934F930F
:104E40005F936F937F938F939F93AF93BF93CF9312
:104E5000DF93EF93FF93D091E900DF708091EC0036
:104E6000C82FC17080FDC0E81092E9008091F00069
:104E7000877F8093F00078940E94DF191092E900F8
:104E80008091F00088608093F000CD2BCF70C093AC
:104E9000E900FF91EF91DF91CF91BF91AF919F9189
:104EA0008F917F916F915F914F913F912F910F90D3
:104EB0000FBE0F901F9018951F920F920FB60F9272
:104EC00011242F933F934F935F936F937F938F930F
:104ED0009F93AF93BF93EF93FF938091E10082FF85
:104EE00009C08091E20082FF05C08091E1008B7FC4
:104EF0008093E1008091DA0080FF24C08091D80087
:104F000080FF20C08091DA008E7F8093DA0080914C
:104F1000D90080FF9DC080E189BD82E189BD09B4CF
:104F200000FEFDCF81E08093D8048091CB048111F5
:104F300009C00E94C8020E9469038091E200846057
:104F40008093E2008091E10080FF17C08091E20031
:104F500080FF13C08091E2008E7F8093E2008091F9
:104F6000E20080618093E2008091D80080628093AB
:104F7000D80019BC85E08093D8048091E10084FFBB
:104F80002BC08091E20084FF27C080E189BD82E1CF
:104F900089BD89B5982F917080FFFBCF8091D80093
:104FA0008F7D8093D8008091E1008F7E8093E10017
:104FB0008091E2008F7E8093E2008091E200816028
:104FC0008093E2008091D904882309F447C084E0EB
:104FD0008093D8048091D8048091E10083FF27C09A
:104FE0008091E20083FF23C08091E100877F80935E
:104FF000E10082E08093D8041092D9048091E1000E
:105000008E7F8093E1008091E2008E7F8093E200AA
:105010008091E20080618093E20042E060E080E005
:105020000E9437038091F00088608093F000FF9128
:10503000EF91BF91AF919F918F917F916F915F9110
:105040004F913F912F910F900FBE0F901F90189589
:1050500019BC1092D8041092CB0474CF8091E30055
:1050600087FD93E09093D804B5CF78941F921FB634
:105070001F9211248F939F93AF93BF938091C70486
:105080009091C804A091C904B091CA040196A11DD1
:10509000B11D8093C7049093C804A093C904B09332
:1050A000CA04BF91AF919F918F911F901FBE1F9017
:1050B00018951F921FB61F9211248F939F93AF9341
:1050C000BF938091C604811113C08091C704909151
:1050D000C804A091C904B091CA044196A11DB11D94
:1050E0008093C7049093C804A093C904B093CA04E2
:1050F000BF91AF919F918F911F901FBE1F901895E8
:10510000CDB7DEB72F970FB6F894DEBF0FBECDBF79
:1051100085B7806885BF85B7806885BF84B7877F7E
:1051200084BF0FB6F894A895809160008861809341
:105130006000109260000FBE80E890E00FB6F89417
:1051400080936100909361000FBE89E999E090938C
:10515000B7028093B6020E94C8020E946903809140
:10516000E20084608093E20078948091D8048823E0
:10517000A1F01091E9001F709091EC00892F8170CF
:1051800090FD80E8182B1092E9008091E80083FDE3
:105190000E94DF191F701093E90082E084BD93E044
:1051A00095BD9AEF97BD80936E0010925B031092AD
:1051B0005C0310925D0310925E0355985D988FE832
:1051C00091E00197F1F700C000000E949B098093D5
:1051D0003B010E94491481110E942D2D90913B01A9
:1051E00081E0982790938E03A82FA91BA0936003BA
:1051F00090913B0180938F0390913B0180935F03DB
:1052000023982B9A22982A9AEFE8F1E03197F1F748
:1052100000C0000020918F0340E953E0FA018E2F77
:10522000841B821708F4BDC180913B0181112CC001
:1052300085E0EFE4F1E0DE01179601900D928A958A
:10524000E1F78F81809336018885809337018985C6
:10525000809338018A85809339018B8580933A0148
:1052600086E0E4E5F1E0DE01119601900D928A9569
:10527000E1F7FE013196A0E3B1E0CE01079621915E
:105280002D93E817F907D9F780913B0195E081113B
:1052900090E090936C0385E0891B80936B0306E399
:1052A00011E08BE3E82E81E0F82ED8018D918D017D
:1052B0008F3F11F00E94E00EE016F106B1F700E317
:1052C00011E0F80181918F018F3F11F00E94E00EF3
:1052D000F1E006331F07A9F78AE0EFE6F3E0DF010C
:1052E000282F1D922A95E9F7E1E6F3E0DF011D92F0
:1052F0008A95E9F790E080E00E944D2F873E9E4F0F
:1053000011F00E949F1E82E090E00E94452F809342
:10531000790384E090E00E944D2F90936E03809378
:105320006D0383E090E00E94452F90E00E945A12A6
:105330001092E6048FEF9FEF909300058093FF0497
:1053400090930205809301059093040580930305D3
:1053500090930605809305059093080580930705B3
:1053600090930A058093090590930C0580930B0593
:1053700090930E0580930D051092A0039093BA03AD
:105380008093B9039093BC038093BB039093BE03B7
:105390008093BD039093C0038093BF039093C20397
:1053A0008093C1039093C4038093C3039093C60377
:1053B0008093C5039093C8038093C70390E080E077
:1053C0000E944D2F873E9E4F21F00E949F1E0E94FB
:1053D000671581E08093120546E050E06CE170E0D3
:1053E00083E195E00E94352F1092120580911305FC
:1053F0008C7F11F40E9467150E944914811102C02C
:105400000E94302D8CE391E09093C3048093C204FA
:105410008091D804853089F400E4F02EEE24E394E2
:1054200000E112E18091D804853009F4C6C00E94E1
:10543000B8190E946C141092CD030E9412181AE73A
:10544000212E13E0312EAFE6B3E0BD87AC87F1012A
:1054500091918D9123E0E438F20709F4F5C0981793
:10546000B9F30E9449148F87BDEA8B2EB1E09B2EC1
:10547000E12CAC85BD85DD90BD87AC87F1016190E5
:105480001F016D1409F483C06D242401C12C7724FD
:105490007394862D872109F46FC0FD2CF720FF85BA
:1054A000FF2399F0CF82E88681E0F11001C080E00F
:1054B00089870E9440048160782F9B878A874F816B
:1054C000588569858B850E946B26FF2041F0D201AB
:1054D0008C91F12C8F3F19F08E87FF24F3940F2DC0
:1054E00010E08091A003800F912F911D09976CF11E
:1054F000E8E0AE2EB12CA01AB10AB8016F557C4F6E
:10550000A50181EA93E00E94942FB80167557C4F72
:10551000A50189EA93E00E94942FA501440F551F2D
:10552000B801660F771F67547C4F89EB93E00E94A8
:10553000942FB8016F547C4FA50181EB93E00E943A
:10554000942F88E08F198093A0038091A00390E0AE
:10555000EE85AE2FB0E09D01220F331F27513E4F45
:10556000AA0FBB1FBD0166517E4F41E0480F9F153A
:1055700008F474C18093A003C394770CEFEF4E1A24
:105580005E0AF6E0CF1285CFF1013197D082E39425
:1055900026E0820E911C4AE0E4126BCF0E94340494
:1055A00057C083B183FB882780F91A9904C090E023
:1055B000892B819334CE92E0FBCF8091D804843044
:1055C00009F430C00E94B8148091CD03811105C048
:1055D0000E94920C80E00E944505E092CD0310925B
:1055E000C60448E150E00FB6F894A89540936000D7
:1055F0000FBEF092600083B7817F846083BF83B762
:10560000816083BF7894889583B78E7F83BF0FB600
:10561000F894A89580916000886180936000109252
:1056200060000FBE8091D704882309F4FBCE0E944E
:105630001218EFE6F3E08191811197C189E793E0B9
:105640008E179F07C1F7EECE98130BCF0E94F0265E
:105650000E9449148823C9F08091460182FF15C039
:105660000E9440042091BC043091BD04DC01A21BC7
:10567000B30BA639B10548F044E853E0BC01809172
:10568000BE049091BF040E9469170E94B814E12CD7
:10569000D12C80918F03E81608F4F6C0D1100E9437
:1056A000191186E0EAE9F3E0DE01119601900D920E
:1056B0008A95E1F710929C0310929D0310929E032D
:1056C00010929F038B819C81892B09F44AC08091A1
:1056D0009803909199030E9425049C019091930353
:1056E000992309F45DC125313105D8F19F3F19F0A7
:1056F0009F5F909393031B81112359F00E947909B6
:105700009FEF11160CF491E0899F802D1124809356
:105710009C031C81112359F00E9479099FEF1116F7
:105720000CF491E0899F802D112480939D0330918A
:105730009C033323B1F020919D03222391F045EB8C
:105740003403C0011124992309F4FFC090939C03F2
:1057500055EB250390011124332309F4FAC030934B
:105760009D038D819E81892B09F44AC08091960307
:10577000909197030E9425049C0190919403992392
:1057800009F409C121353105D8F19F3F19F09F5F18
:10579000909394031D81112359F00E9457099FEFA4
:1057A00011160CF491E0899F802D112480939E03A3
:1057B0001E81112359F00E9457099FEF11160CF416
:1057C00091E0899F802D112480939F0330919E0347
:1057D0003323B1F020919F03222391F045EB340352
:1057E000C0011124992309F4B8C090939E0355EB8E
:1057F000250390011124332309F4B3C030939F0390
:1058000046E050E0BE016F5F7F4F8AE993E00E945F
:10581000872F892B61F480919C0390919D03892BA4
:1058200090919E03892B90919F03892B11F00E94E8
:10583000300986E0FE013196AAE9B3E001900D92AD
:105840008A95E1F70E946C1490919203891709F4EC
:10585000DFCD809392030E943404DACD90E0FC0106
:10586000E056FC4FD9015C915183DB015C9151877B
:10587000BE85B18B880F991FFC01E056FC4F128E3C
:10588000118E91E0842F71CE0E2D10E0E3B1E3FB79
:10589000EE27E0F91A9951C080E08E2BD801A0576D
:1058A000BC4FEC919E2F9370891709F444C0EE0F02
:1058B000EE0FE82BEC93F0908E03FE0CEF70F0E00F
:1058C000EB56FE4F04571C4F8081F8019081890FE1
:1058D0008083C12C843084F0EF2DF0E0E657FC4F3C
:1058E00080818F5F80830E944914C82E882339F1FC
:1058F00060E08F2D0E943317D8018C918D3F84F486
:10590000EF2DF0E0E657FC4F8081815080830E94AC
:105910004914C82E8823B1F061E08F2D0E943317FF
:10592000F8018081082E000C990B64E070E00E9461
:10593000DA2E8083DC28E394ACCE82E0AECFCC2498
:10594000C394DACFCC24C394EBCF81E080939C0343
:10595000FFCE81E080939D0304CF81E080939E037E
:1059600046CF81E080939F034BCF09BD19BD09B499
:1059700000FEFDCF8091D8008F7D8093D80080916C
:10598000E00082608093E0008091E00081FDFCCF28
:105990000E94B81947CD2B30310508F0F8CE30CF32
:1059A0002B30310508F0A4CEDCCE8EE1489B02C03E
:1059B0008150E1F7489BFECF0895589880E28A9580
:1059C000F1F7589A0895FC013BE03A95F1F798E019
:1059D00020E080E031E040E14A95F1F7880F489BF4
:1059E00002C08160232742E04A95F1F7000040E1C0
:1059F0004A95F1F7915079F790E19A95F1F799B1BD
:105A000032E03A95F1F7000040E14A95F1F79170E4
:105A100092272081920F90830895A1E0B0E0E3E106
:105A2000FDE20C949B2E19828C017C01E60EF11C88
:105A30000E151F0541F481E09981911180E02196B6
:105A4000E6E00C94B72E0E94D52CCE0101960E9460
:105A5000E32CF80181938F01EBCF509A589A089567
:105A60005098589AE89AE9E6F0E080818C7F80832C
:105A700008956150770B91E001C0990F6A95EAF79C
:105A800020E031E0911108C0222391F0589A80E281
:105A90008A95F1F758980895492F482339F0589A74
:105AA000232740E24A95F1F79695ECCF5898F9CF25
:105AB0005898EDCFFF920F931F93CF93DF93EC0194
:105AC0008C01060F111DC017D10729F4CDB7DEB721
:105AD000E5E00C94B82EF9900E94DD2C68E08F2D43
