:100000000C9462020C94452D0C949A020C949A0262
:100010000C949A020C949A020C949A020C949A02F0
:100020000C949A020C949A020C942A270C94E626BB
:100030000C9427280C949A020C949A020C949A021D
:100040000C949A020C949A020C949A020C949A02C0
:100050000C949A020C9403280C949A020C949A0221
:100060000C949A020C949A020C949A020C949A02A0
:100070000C949A020C949A020C949A020C949A0290
:100080000C949A020C949A020C949A020C949A0280
:100090000C949A020C949A020C949A020C949A0270
:1000A0000C949A020C949A020C949A0235001E0049
:1000B0001F002000210022002B0014001A0008005D
:1000C00015001700292104001600070009000A0086
:1000D000E1001D001B0006001900050000000000E3
:1000E000E3002A412C002C082D00270026002500C3
:1000F000240023003100130012000C0018001C0023
:10010000340033000F000E000D000B001E7C380081
:10011000370036001000110000000000E6002B42FE
:100120001E7CA80035021E021F02200221022202AC
:100130000100DA00CD00D900000000000100CF006E
:10014000CE00D0005200000001000100010050006C
:1001500051004F00000000000100010001002602D4
:100160004C002702260225022402230231022E001F
:100170002D00D200D100D300010000004F0052003A
:1001800051005000010000004D004B004E004A009D
:1001900000000000010001000100AE0045003A002F
:1001A0003B003C003D003E0035001E001F002000CB
:1001B0002100220001003A003B003C003D003E00CF
:1001C00001004000410042004300440000000000E4
:1001D0000100010001002F024400430042004100E1
:1001E00040003F00310027002600250024002300A6
:1001F000310230002F002E002D003F0001003002A0
:100200002F022E022D024500000000000100010017
:1002100001000000010001000100010001000100D7
:1002200044003A003B003C003D003E00000000005E
:100230000000D300D100D2002078217827782378DD
:10024000257829780000000001000100010000006D
:100250000100010001000100010001004500430010
:100260004200410040003F00007CAB00D000CD00C8
:10027000CE00CF000100AE00DC00D900DA00DB00C8
:100280000000000001000100010000000001010168
:100290000101010101010202020202020202020343
:1002A0000303030303030304040404040404050513
:1002B00005050506060606060707070707080808D6
:1002C00008090909090A0A0A0B0B0B0C0C0C0D0D85
:1002D0000D0E0E0E0F0F0F1010111111121213131D
:1002E0001414151516161717181819191A1A1B1B96
:1002F0001C1D1D1E1E1F20202122222324242526F2
:1003000026272829292A2B2C2D2D2E2F3031323229
:10031000333435363738393A3B3C3D3E3F40414235
:10032000434445464748494A4C4D4E4F505153541B
:10033000555658595A5B5D5E5F61626465666869CF
:100340006B6C6D6F7072737577787A7B7D7E80824F
:10035000838587888A8C8E8F91939596989A9C9E98
:10036000A0A2A3A5A7A9ABADAFB1B3B5B7BABCBEA8
:10037000C0C2C4C6C9CBCDCFD1D4D6D8DBDDDFE275
:10038000E4E7E9EBEEF0F3F5F8FAFDFF0501090209
:10039000A10185020901A10005091901290815001B
:1003A0002501950875018102050109300931158182
:1003B000257F95027508810609381581257F9501ED
:1003C00075088106050C0A38021581257F9501758F
:1003D000088106C0C005010980A101850319012A11
:1003E000B700150126B700950175108100C0050CF6
:1003F0000901A101850419012AA002150126A00204
:10040000950175108100C005010906A101050719B4
:10041000E029E71500250195087501810295017510
:100420000881010507190029FF150026FF00950620
:1004300075088100050819012905950575019102C6
:10044000950175039101C009023B00020100A0FA69
:10045000090400000103010100092111010001222A
:1004600040000705810308000109040100010300A1
:100470000000092111010001227B000705820320F1
:100480000001120100020000000810CB5664200693
:10049000010200011A034900720069007300200084
:1004A0005200650076002E00200036006200000039
:1004B0000E034B0065006500620069006F000000DC
:1004C0000403090411241FBECFEFDAE0DEBFCDBF65
:1004D00004B603FE18C080912A0590912B05A091C7
:1004E0002C05B0912D058730904BA740B04B59F4A7
:1004F00010922A0510922B0510922C0510922D05B2
:10050000E0E0F8E3099512E0A0E0B1E0E0EDFFE5FE
:1005100002C005900D92A63BB107D9F725E0A6EBE6
:10052000B2E001C01D92AA32B207E1F70E944E2844
:100530000C946F2F0C94000090912205937061F041
:1005400081110BC094609093220510924B01809111
:1005500021058160809321050895833210F0986809
:10056000F2CF880F880F982BEECF482F2091F00400
:100570009091B70457E0291302C080E0089530E05D
:10058000529FF001539FF00D1124E854FB4F8181DD
:10059000681306C08081481303C085818111EECFA6
:1005A0002F5F3F4F2770E7CF90912205937071F036
:1005B0008093230560932405413A08F040EA409374
:1005C0002505809121058160809321050895E8ED3E
:1005D000F0E080818E7F80831092E2001092DA003A
:1005E0001092E100A0EEB0E08C9181608C9380814C
:1005F0008F77808319BCA7EDB0E08C918E7F8C93B0
:1006000080818F7E80831092A00408952091E40061
:100610003091E50095E6A9012091EC00822F8170D0
:1006200020FF06C08091E80080FF06C080E00895AA
:100630002091E80022FD1AC08091AD04882389F042
:10064000853089F08091EB0085FD0FC02091E4009A
:100650003091E50042175307F9F29150E1F684E03A
:10066000089582E0089583E0089581E008958091DF
:10067000AF0487FF13C08091E80082FF06C080911D
:10068000E8008B778093E80004C08091AD0481116D
:10069000F2CF08958091AD048823D9F38091E800CA
:1006A00080FFF8CF8091E8008E77ECCF982F909361
:1006B000E900242F762F50E0891731F07091EC007B
:1006C0002091ED005091F00021FD07C09F5F973011
:1006D00071F78093E90081E008953091EB003E7F4F
:1006E0003093EB003091ED003D7F3093ED00309181
:1006F000EB0031603093EB007093EC002093ED0041
:100700005093F0002091EE0027FDE0CF80E00895A7
:10071000B0E0A0E0EEE8F3E00C946B2EC8EDD0E082
:1007200088818F7E8883E7EDF0E08081816080831F
:1007300084E082BF81E08093A00488818E7F8883DB
:1007400002EE10E0F80110821092DA0081EEC82E5D
:10075000D12CF601108288818F7788838881806808
:10076000888388818F7D888319BC1092AD04109294
:10077000AE041092AC041092AB0490EEE92EF12C72
:10078000F70180818B7F808388818160888342E04C
:1007900060E080E00E945603F60180818E7F8083B6
:1007A000F801808181608083808188608083F70187
:1007B00080818E7F8083888180618883CDB7DEB71A
:1007C000E8E00C94872EFC018091B5049091B6046A
:1007D00086179707A0F06115710529F49091E8003C
:1007E0009E779093E80090E06115710551F49111A6
:1007F00008C08091E80082FF34C080E00895BC0109
:10080000F2CF8091AD048823C1F18530C1F1809190
:10081000E80083FD30C08091E80082FDEACF80913E
:10082000E80080FFE1CF8091F3002091F200382FA3
:100830006115710519F02830310558F091E0283024
:10084000310509F090E02091E8002E772093E80030
:10085000CBCF81918093F100615071092F5F3F4FA1
:10086000E7CF8091AD04882341F0853041F080913D
:10087000E80083FFBECF81E0089582E0089583E021
:1008800008958091A20408959C014FB7F894809137
:100890009C0490919D04A0919E04B0919F044FBF31
:1008A000821B930B08952FB7F89460919C0470916C
:1008B0009D0480919E0490919F042FBF08952FB7AF
:1008C000F89480919C0490919D04A0919E04B09115
:1008D0009F042FBF08959C01FC0132969FEF80E09A
:1008E0004191461751F09F3F19F4411101C0982FD3
:1008F0008F5F8630A9F79F3F09F40895290F311DB6
:1009000097FD3A95F90162830895A3E0B0E0EBE822
:10091000F4E00C94712E2091990430919A042817D8
:100920003907A1F090939A0480939904E091970479
:10093000F0919804309751F024E029839B838A83B7
:100940000680F781E02DCE01019609952396E2E01D
:100950000C948D2EA3E0B0E0E0EBF4E00C94712E4B
:10096000209195043091960428173907A1F09093AF
:10097000960480939504E0919704F0919804309741
:1009800051F023E029839B838A830680F781E02D41
:10099000CE01019609952396E2E00C948D2EFC0180
:1009A000680F791F8FEF91E32191822728E030E0D3
:1009B00087FF09C0880F892721503109C9F7E61739
:1009C000F70791F70895880FF7CFFA01811101C059
:1009D000FB0109950895E2E2F5E0248130E1231B53
:1009E00008F420E024838091210581608093210513
:1009F0000895E2E2F5E0248130E1230F08F42FEFBF
:100A00002483809121058160809321050895E2E28D
:100A1000F5E0438120E1421B08F440E081816281DE
:100A200090E00E94D4020895E2E2F5E0438120E1E3
:100A3000420F08F44FEF8181628190E00E94D4025E
:100A40000895E2E2F5E0628120E1621B08F460E0D3
:100A50008181438190E00E94D4020895E2E2F5E0B2
:100A6000628120E1620F08F46FEF8181438190E0A1
:100A70000E94D4020895E2E2F5E08181438162811F
:100A80008850990B0E94D4020895E2E2F5E081813A
:100A900090E04381628108960E94D402089580917B
:100AA000220586958695815009F482E20E949C0277
:100AB000089580912205869586958F5F833208F090
:100AC00081E00E949C020895809345018091220557
:100AD0008370809344010E94F71383E080934B015D
:100AE0000895EF92FF920F939701201B31092F3F3A
:100AF000310519F010F02FEF30E02095382F320F2C
:100B000008F43FEF832F0F91FF90EF900895EF923D
:100B1000FF920F939701201B31092F3F310519F0E8
:100B200010F02FEF30E0322F3095482F430F08F4AC
:100B30004FEF842F620F0F91FF90EF900895EF9287
:100B4000FF920F93972F093438F4B701601B710996
:100B50006F3F710519F010F06FEF70E0485F5F4F65
:100B60004131510540F0A901485F5F4F41315105C6
:100B700010F06FEF70E06095482F460F08F44FEFCC
:100B8000842F37FF02C02D5F3F4F35952795359550
:100B9000279560912305620F792F0F91FF90EF90B9
:100BA0000895EF92FF920F931F930E0D1F2D111DAD
:100BB000F90137FF03C0F195E195F10924E0EE0F4B
:100BC000FF1F2A95E1F7EF3FF10519F014F0EFEF61
:100BD000F0E09A0157FF03C031952195310994E067
:100BE000220F331F9A95E1F72E173F070CF4F901F6
:100BF000E00FF11FEF3FF10519F010F0EFEFF0E01B
:100C0000E095282F3E2F230F08F42FEF822F1F91FE
:100C10000F91FF90EF900895EF92FF920F9397013D
:100C200095E0099F200D311D11242F3F310519F04A
:100C300010F02FEF30E02095382F320F08F43FEFFF
:100C4000832F0F91FF90EF90089522E8241B08F462
:100C500020E0620F08954095282F429F412D1124D6
:100C6000842F08950F931F9310E0F801EE0FFF1FDC
:100C7000E751FE4F9081905797FD9195000F111FFE
:100C8000F801E355FE4F05AD0052110B2003F001B2
:100C9000219FF00D112408E310E0091B110997FDB5
:100CA000139540039001419F300D1124E20FF31F73
:100CB0009F01220F331F2E0F3F1F37FF02C0215805
:100CC0003F4F220F232F221F330B620F1F910F91D3
:100CD00008950F931F93522F10E0F801EE0FFF1F9E
:100CE000E355FE4FA5ADA052BB0B9D015203F00191
:100CF000539FF00D1124000F111FD801A751BE4FB3
:100D00000C910057110B40039001419F300D1124AD
:100D10002E0F3F1F37FF02C0215C3F4F96E03595F5
:100D200027959A95E1F7620F1F910F9108950F9300
:100D30001F93522F10E0F801EE0FFF1FE355FE4FF7
:100D4000A5ADA052BB0B9D015203F001539FF00DC6
:100D50001124000F111FD801A751BE4F0C9100574D
:100D6000110B40039001419F300D11242E0F3F1FA6
:100D700037FF02C021583F4F220F232F221F330B72
:100D8000620F1F910F910895EF920F93972F23E019
:100D9000029FB0011124759567956E0D792F0F9103
:100DA000EF900895322F50E0FA01EE0FFF1FE35548
:100DB000FE4F95AD905297FD9195440F551FFA0146
:100DC000E751FE4F2081231B330B290F311D97FD67
:100DD0003A95620F0895E42FF0E0EE0FFF1FE35500
:100DE000FE4F65AD621B0895E42FF0E0EE0FFF1F8C
:100DF000E751FE4F6081621B0895622F0895E42F32
:100E0000F0E0EE0FFF1FE751FE4F408134EE439FAD
:100E1000412D1124E82FF0E050E0445E5F4FDA01ED
:100E2000A21BB1099D01B7FF03C03195219531097E
:100E300093E0220F331F9A95E1F7AF01421B530B4A
:100E40009A0157FD20E0582F259F212D1124822F34
:100E50000895E42FF0E0EE0FFF1FE751FE4F4081B1
:100E600034EE439F412D1124E72FF0E050E0445E23
:100E70005F4FDA01A21BB1099D01B7FF03C0319595
:100E80002195310993E0220F331F9A95E1F7AF01C5
:100E9000421B530B9A0157FD20E0279F212D11245F
:100EA000722F08950E94BF090895FF920F931F9318
:100EB000CF93DF93182F062FF42ED0E0C0E02F2D14
:100EC000402F612FCE010E9452072196C434D105D4
:100ED000B1F7CDB7DEB7E5E00C948A2EFC019B019B
:100EE000009729F480E077FF2BC080E80895AC01DB
:100EF00097FF04C044275527481B590BB901640FBD
:100F0000751F37FD10C0241B350BC901A5E0880FE4
:100F1000991FAA95E1F70E94AC2E80E2861BF7FF8D
:100F20000FC081950895CB0165E0880F991F6A95E0
:100F3000E1F7BA01621B730B0E94AC2E80E6EECF84
:100F40000895EF920F93CF93DF93D72FC82FC90146
:100F50000E19BA010E946E07602F681B7D2F8C2F1F
:100F6000DF91CF910F91EF9008950F93CF93DF937F
:100F7000D72FC82FC901BA010E946E07682F600FD2
:100F80007D2F8C2FDF91CF910F910895EF920F93CA
:100F90001F93CF93DF93D62FC72F182FC9010E1998
:100FA000010FBA010E946E07081B202F219F212DDF
:100FB0001124822F6D2F7C2FDF91CF911F910F91E4
:100FC000EF900895EF920F931F93CF93DF93D62F57
:100FD000172FC82FC9010E19070FBA010E946E07FB
:100FE000702F781B719F712D11246D2F8C2FDF9125
:100FF000CF911F910F91EF9008950F931F93CF936F
:10100000DF93D62FC72F182FC901212F201B022FA6
:10101000BA010E946E07982F990F990F891B800FB4
:10102000282F219F212D1124822F6D2F7C2FDF91BE
:10103000CF911F910F9108950F931F93CF93DF933B
:10104000D62F172FC82FC901272F201B022FBA0117
:101050000E946E07982F990F990F782F791B700FA8
:10106000719F712D11246D2F8C2FDF91CF911F91C6
:101070000F910895E82F86FDE0952E2F2F7086FDA5
:101080002F5FE695E695E695E670F0E0EB55FE4FAE
:101090009181929F902D212D112492959F702295E0
:1010A000207F922B2081920F87FD919580E8890FF8
:1010B0000895AC018230910508F408959FEF413EF8
:1010C0008EE1580740F49A0195E0369527959A9558
:1010D000E1F798E0920F61E0E62FE90FFF27FF1F8D
:1010E0009F0135952795822F229FF001239FF00DB8
:1010F000F00D11244E175F0738F49FEF920F9617EB
:1011000058F78FEF860F08952F3FE9F361E0620FE4
:10111000F6CF0F93CF93DF93D72FC82F47FD41957D
:1011200088E390E0841B910947FD9395889FB00167
:10113000899F700D700D1124229FC001239F900D77
:10114000900D1124860F971F0E945908982F990F10
:10115000890F682F600F7D2F8C2FDF91CF910F911A
:10116000089530E020E0869F212D969F200D311DAF
:101170001124C9010895AF92BF92CF92DF92FF92DE
:101180000F931F93CF93DF93362F472FE82FF0E075
:10119000E457FD4F71110FC0E4918E2F2E2F6E2F4B
:1011A000722FDF91CF911F910F91FF90DF90CF9021
:1011B000BF90AF900895C72FD0E02491F22E022F58
:1011C00010E056E0659FC0011124EFEFF0E0BF0191
:1011D0000E94982E832F90E0880F991F35E5369F47
:1011E000D001379FB00D11248A1B9B0B982F990FAC
:1011F000980F6F01CC1ADD0AC09ED001C19EB00DC0
:10120000D09EB00D11248B2F499FA0011124452F92
:1012100055276F01C41AD50AC09EA001C19E500D6A
:10122000D09E500D11245F01A91AB108AC9E600137
:10123000AD9ED00CBC9ED00C1124CD2CDD24EC191D
:10124000FD09E09FE001E19FD00DF09FD00D11243A
:10125000ED2F62307105A1F050F46115710509F4AC
:101260009ECF6130710581F0EB2F852F98CF6430D0
:10127000710569F080F06630710509F490CFF4CF04
:10128000E22F2B2F8D2F8BCFE22F252F88CFEB2F07
:10129000822F2D2F84CF2B2F8F2DE52F80CF0E94D3
:1012A0005F049C019091710380917203982B21F04F
:1012B00030936E0320936D039091730380917403B8
:1012C000982B21F030936C0320936B03E0919704EB
:1012D000F0919804309749F082E080936F03048086
:1012E000F581E02D8FE693E00995089580916A03DA
:1012F00080FD16C081FD16C082FD16C08091690375
:101300008823A1F0883280F428E0829FC001112454
:1013100068E270E00E94AC2E862F672B39F00895AA
:1013200082E0089584E0089588E0089581E00895BA
:1013300080916A0380FD14C081FD14C082FD16C037
:1013400080916803882381F08E3180F420E5829FAC
:10135000C00111246EE170E00E94AC2E862F08952A
:1013600084E1089588E2089588E0089580E508956D
:1013700080E0089589B185FB882780F90895FF9260
:101380000F931F93CF93DF93EC01F62E042F122FB0
:101390000E94BA0981110FC0C232D1057CF0A29718
:1013A000FE01EE0FFF1FEC0FFD1FED55FC4FF1820C
:1013B0000083128303C0C232D10594F3CDB7DEB7E8
:1013C000E5E00C948A2ECF93C82F0E94BA09882397
:1013D00029F081E0C23228F080E003C081E0C4340B
:1013E000D8F7CF910895A8E0B0E0E9EFF9E00C94C8
:1013F000612E282E7C836B83209148018EE0289FEC
:10140000802D11248D83825F8983853410F034E42C
:1014100039830E94BA09882329F08981833210F028
:1014200092E299830E94BA09811105C0ED81E232EE
:1014300010F4F2E2FD832091F5042A839D81892F27
:1014400090E098878F83880F991FFC01E355FE4F2A
:101450006F01822D90E09C012F5F3F4F3E832D83D3
:1014600089819F81981730F00E94E3092896E2E174
:101470000C947D2EEF81F885EF58FD4F808190917F
:1014800049018923F9F030902305409024058D818E
:101490009E818B509B4F3C01522C10E0FA815F16CD
:1014A000D8F020912505129F112D1124632D742D44
:1014B000812F0E94BB08462F282F672F8F81988588
:1014C0000E9452072F8138852F5F3F4F38872F8327
:1014D00032E0C30ED11CC4CFF30181913F01F6016C
:1014E000A4ACA81ABB0885ACF3018781881A9908B7
:1014F000AA9C9001AB9C300D300D1124889CC0013A
:10150000899C900D900D1124820F931F0E94590801
:10151000082F6091260521E0620F08F46FEFF301B8
:10152000EE0FFF1FE55FF440858996890E94B108A0
:101530007C019401A501632D742D812FEB81FC8129
:101540000995362E472E5394182FA8CFB0E0A0E06F
:10155000ECEAFAE00C946B2E7C01C09148018EE01D
:10156000C89FC02D11241EE01C0F153408F014E490
:101570000E94BA09882319F0133208F012E20E947F
:10158000BA09811103C0C23208F4C2E220912605D3
:1015900031E0230F08F42FEF30E050E040E06FEF30
:1015A0007FEF80E090E00E94C02E6901D0E001E072
:1015B0002C2FC11740F0812F0E94E309CDB7DEB771
:1015C000E8E00C94872EFE01EF58FD4F808190914A
:1015D0004901892309F14091F5044150042E000C82
:1015E000550B47FF1BC0C60160912605600F08F42C
:1015F0006FEF0E94B108AC01609123057091240542
:1016000080912505F70109950E94BB08462F282FD8
:10161000672FCE010E9452072196CACFFA01EB50E4
:10162000FB4F818982130AC0FA01EE0FFF1FEB50B6
:10163000FB4F818D928D8C159D05B0F24150510963
:10164000D0CFB0E0A0E0E7E2FBE00C94692E6C01A3
:10165000C09148018EE0C89FC02D11241EE01C0FD0
:10166000153408F014E40E94BA09882319F01332E3
:1016700008F012E20E94BA09811103C0C23208F4D4
:10168000C2E260912605669566958091F10490917D
:10169000F2040E94B108F82E80E48F0D0E943A08EF
:1016A00090E8B92EB80E8F2D0E943A0820E8A22E9D
:1016B000A80ED0E0C11740F0812F0E94E309CDB7FA
:1016C000DEB7EAE00C94852EFE01EF58FD4F8081D5
:1016D000909149018923A1F060912305709124051F
:1016E00080912505EF2C0C2F2A2D4B2DF601099505
:1016F0000E94BB08462F282F672FCE010E94520759
:101700002196D8CFB0E0A0E0E8E8FBE00C94652E8D
:101710005C01C09148018EE0C89FC02D11241EE0DD
:101720001C0F153408F014E40E94BA09882319F03C
:10173000133208F012E20E94BA09811103C0C232CA
:1017400008F4C2E26091260566958091F1049091BB
:10175000F2040E94B108F82ED0E0CE01880F991F44
:101760009C0123553E4F6901C11740F0812F0E9413
:10177000E309CDB7DEB7EEE00C94812EFE01EF5801
:10178000FD4F808190914901892379F1F60184AD63
:10179000282F2057330B490185ADE82FE052FF0B6E
:1017A0003F01889C9001899C300D300D1124EE9FE3
:1017B000C001EF9F900D900D1124820F931F0E9486
:1017C0005908082F60912305709124058091250503
:1017D000EF2C9301A401F50109950E94BB08462F47
:1017E000282F672FCE010E945207F2E0CF0ED11CA6
:1017F0002196BACFB0E0A0E0E0E0FCE00C946A2EC5
:101800006C01C09148018EE0C89FC02D11241EE0DC
:101810001C0F153408F014E40E94BA09882319F04B
:10182000133208F012E20E94BA09811103C0C232D9
:1018300008F4C2E26091260566958091F1049091CA
:10184000F2040E94B108B82ED0E0CE01880F991F93
:101850009C0123553E4F7901C11740F0812F0E9412
:10186000E309CDB7DEB7E9E00C94862EFE01EF5810
:10187000FD4F8081909149018923C1F0F70125AD89
:101880002052330B44AD4057550B609123057091A6
:101890002405809125050B2DF60109950E94BB08B2
:1018A000462F282F672FCE010E945207F2E0EF0E3D
:1018B000F11C2196D1CFEF92FF920F931F93CF93FC
:1018C000DF937C01C09148018EE0C89FC02D112498
:1018D0001EE01C0F153408F014E40E94BA09882396
:1018E00019F0133208F012E20E94BA09811103C004
:1018F000C23208F4C2E2609126056695669521E041
:10190000620F08F46FEF8091F1049091F2040E944D
:10191000B108082FD0E0C11740F0812F0E94E309E1
:10192000CDB7DEB7E6E00C94892EFE01EF58FD4FEF
:10193000808190914901892391F0609123057091F4
:10194000240580912505202F4C2FF70109950E9431
:10195000BB08462F282F672FCE010E9452072196E1
:10196000DACFB0E0A0E0E7EBFCE00C94692E182F92
:1019700080914501811323C090912205937020919D
:10198000440130E081E09217130609F480E0817091
:1019900080934A018091270590914901981739F069
:1019A0008093490140E060E080E00E9455071332D7
:1019B00088F4E12FF0E0EF58F04D0C94DF2E81E039
:1019C000E6CF80914A01882389F140E060E080E021
:1019D0000E94550780E02AC0C09148018EE0C89F50
:1019E000C02D11240EE00C0F053408F004E40E9411
:1019F000BA09882319F0033208F002E20E94BA09FA
:101A0000811103C0C23208F4C2E2609123057091D3
:101A10002405809125050E94BB08F62EE72ED82EBE
:101A2000D0E0C017D8F0802F0E94E30990914801C0
:101A30009F5F9093480181110CC082E080934B011D
:101A400080914A01811105C0111103C083E0809388
:101A50004B01CDB7DEB7EAE00C94852EFE01EF58BE
:101A6000FD4F808190914901892331F02D2D4F2D1B
:101A70006E2DCE010E9452072196D3CFC09148010E
:101A80008EE0C89FC02D11240EE00C0F053408F025
:101A900004E40E94BA09882319F0033208F002E234
:101AA0000E94BA09811103C0C23208F4C2E2E09078
:101AB0002405F0902505D09123056D2F7E2D8F2DC7
:101AC0000E94BB08D62EC72EB82E609126056D0F3A
:101AD0007E2D8F2D0E94BB08F62EE72EA82ED0E07B
:101AE000C01708F0A0CFFE01EF58FD4F9081809104
:101AF0004901892359F02A2D4F2D6E2D90FD03C0E9
:101B00002B2D4D2D6C2DCE010E9452072196E8CF32
:101B1000C09148018EE0C89FC02D11240EE00C0F2B
:101B2000053408F004E40E94BA09882319F003324E
:101B300008F002E20E94BA09811103C0C23208F41F
:101B4000C2E2E0902405D09025052091260550E4BE
:101B5000F52E3F2D329F312D1124F32ED0E0C017EA
:101B600008F061CFFE01EF58FD4F8081909149014F
:101B70008923B9F0FE01EE0FFF1FE355FE4F85AD3F
:101B800082958F70609123058F9D600D11247E2DAD
:101B90008D2D0E94BB08462F282F672FCE010E9453
:101BA00052072196DCCFC09148018EE0C89FC02D1E
:101BB00011240EE00C0F053408F004E40E94BA0969
:101BC000882319F0033208F002E20E94BA09811159
:101BD00003C0C23208F4C2E2E0902405D09025058B
:101BE0002091260530E4F32E3F2D329F312D112414
:101BF000F32ED0E0C01708F016CFFE01EF58FD4FCE
:101C00008081909149018923D9F0FE01EE0FFF1FD9
:101C1000E355FE4F64ADF69EB001112495E0759535
:101C200067959A95E1F780912305680F7E2D8D2D9C
:101C30000E94BB08462F282F672FCE010E94520713
:101C40002196D8CFC09148018EE0C89FC02D1124A5
:101C50000EE00C0F053408F004E40E94BA09882352
:101C600019F0033208F002E20E94BA09811103C0A0
:101C7000C23208F4C2E2F0902305D0912405E0902E
:101C80002505609126056695669566958091F10417
:101C90009091F2040E94B1080E943A08805887FD92
:101CA0008195880F282F3E2D239F212D1124822FCF
:101CB0006F2D7D2F0E94BB08F62EE72ED82ED0E088
:101CC000C01708F0B0CEFE01EF58FD4F8081909113
:101CD0004901892331F02D2D4F2D6E2DCE010E940B
:101CE00052072196EDCF89E297E00E945B0C9ECED1
:101CF0008FEF96E0FACF8CE198E00E94FA0B96CE37
:101D00008DEF97E0FACF82EE97E00E94820B8ECEA5
:101D100086EC97E0FACF8DEF96E0E7CF84EF96E080
:101D2000E4CF8BEE96E0E1CF82ED96E0DECF84EC5F
:101D300096E0EBCF89E898E0E0CF85EB97E0DDCF48
:101D400081EA97E0E2CF87E996E00E94210B6ECE10
:101D500089E696E0FACF82E396E0F7CF8BE296E051
:101D60000E94A60A63CE85E296E0FACF8091F50440
:101D700021E0382F321B08F430E0832F6CE076E04E
:101D80000E94F30953CE6CE076E080E0F9CF8091B9
:101D9000F50421E0382F321B08F430E0832F61ED89
:101DA00075E0EECF61ED75E0F0CF8091F50421E0B4
:101DB000382F321B08F430E0832F6FE975E0E0CF55
:101DC0006FE975E0E2CF8091F50421E0382F321BF6
:101DD00008F430E0832F67E875E0D2CF67E875E05C
:101DE000D4CF8091F50421E0382F321B08F430E085
:101DF000832F61E775E0C4CF61E775E0C6CFF89443
:101E0000E82FE295EF70F0E031A1282F2F7081E0EC
:101E100090E001C0880F2A95EAF7982F90959323B8
:101E200091A392A1892B82A3789408959091410364
:101E300092FF06C0282F28712830F9F4877F84602C
:101E400093FF06C0282F28712831F1F4877E846122
:101E50002091420320FF06C0382F38713830D9F462
:101E6000877F816021FF06C0282F28712831D1F497
:101E7000877E816194FD877E0895282F2471243008
:101E8000F9F68B7F8860DCCF282F2471243101F78D
:101E90008B7E8861DDCF382F3171313019F78E7F1D
:101EA0008860E0CF282F2171213121F78E7E886153
:101EB000E1CF82389105B9F1B0F48133910509F48D
:101EC0007DC048F48932910509F46DC08A329105CC
:101ED00009F47BC008958533910509F45FC0893307
:101EE000910509F10895833E9105D9F138F4803EBA
:101EF000910529F1823E910579F10895863E91057B
:101F0000D9F1873E910509F43EC0843E910541F523
:101F10002091420321FF24C08091410384FD19C018
:101F200087EE90E0089520914103237009F05AC094
:101F30002091420323FF14C089E290E0089520918C
:101F4000410320FD38C03091420330FF09C024FF17
:101F500043C090E080E008952091410322FDF7CF37
:101F600008952091410322FD3AC03091420330FD93
:101F700039C024FFF5CFEDCF2091410323FFF0CFEF
:101F800024FDE7CFCDCF2091410323FD2EC030911A
:101F9000420331FFEECF84EE90E00895209141039B
:101FA00025FFDECFC9CF2091410325FD21C020911F
:101FB000420323FFD5CF89E390E0D2CF20914103A4
:101FC00026FFCECF8AE290E008952091410326FFBC
:101FD000C7CF81E390E0089583EE90E0089582EE0C
:101FE00090E0089580EE90E0089586EE90E00895E8
:101FF00085E390E00895972F7A30B8F46630A8F41E
:102000008430B0F470E026E0929F600D711D1124C1
:10201000FB019CE3899FE00DF11D1124EE0FFF1FD2
:10202000E455FF4F85919491089580E090E00895E4
:1020300081E0FCCF1F93CF93DF930E94590FEC01F7
:10204000C11580E5D807F0F5C11580E4D80708F080
:102050009CC0C03ED10520F5CD3CD10508F082C022
:10206000C83AD10578F4C53AD10508F073C0C1303B
:10207000D10519F1209709F1C430D105F0F4D0E071
:10208000C0E01BC0C33CD105D0F7C85AD0E0CC0F8C
:10209000DD1FC35ADE4F0990D881C02DD4640DC016
:1020A000C11580E2D80708F0D1C0C11581E0D8077A
:1020B00008F05AC0C83ED10510F7CE01DF91CF918C
:1020C0001F910895C03682E5D80718F5C03482E51F
:1020D000D80708F06BC0C03282E5D80708F05FC0AF
:1020E000C11582E5D80708F497C02C2F26952695B0
:1020F00080E2289F900111248C2F8370C1E0D0E0F2
:1021000002C0CC0FDD1F8A95E2F7C22BD32BDD680E
:10211000D4CFC03A82E5D80760F4C03882E5D8074A
:1021200008F459C0CF71D0E0DC2FCC27C46FD06A3F
:10213000C4CFC03C82E5D80708F462C0C03E82E547
:10214000D80708F09CCFDC2FCC27CC27DF71C06FDD
:10215000D06AB3CFC55AD0E0C65ADE4FC881D0E0AE
:10216000D064ABCFD065A9CF8D2F0E94160F182F4A
:10217000CE0199270E94590FC12FD0E0DC2FCC2728
:10218000CC27DF71C82BD92B98CFCE0199270E947D
:10219000590FCC27DF70C82BD92BD06A8ECFCF71C7
:1021A000D0E0DC2FCC27C16FD06A87CF2C2F2695AB
:1021B0002695277080E2289F900111248C2F837030
:1021C000C1E0D0E002C0CC0FDD1F8A95E2F7C22B40
:1021D000D32BDC6872CF2C2F26952695277080E2B2
:1021E000289F900111248C2F8370C1E0D0E002C0A1
:1021F000CC0FDD1F8A95E2F7C22BD32BDA685DCFB7
:102200008C2F8F710E94160FC82FD0E0DC2FCC27A7
:10221000CC27DF71D06251CF8C2F8F710E94160FA7
:1022200055E0D695C7955A95E1F7CF70D0E0DC2FF1
:10223000CC27282F30E084FF05C044E0220F331F55
:102240004A95E1F7C22BD32BD06937CF8D2F8F71F1
:102250000E94160F182FCE0199270E94590FC12FE7
:10226000D0E0DC2FCC27CC27DF71C82BD92BD2CFE5
:102270009091420392FF05C09091F20298138093CF
:10228000F2020895809590916F04982390936F04C3
:1022900008958091F0049091B704981301C00895B7
:1022A0008F5F8770FACFB0E0A0E0E9E5F1E10C9430
:1022B0006A2E7C0100913F03109140038091F3024C
:1022C0009091F402082B192BCFE0D0E0CC24C394DA
:1022D000D12CBC2EC6010C2E02C0880F991F0A9467
:1022E000E2F780239123892B49F4219790F7B12CB1
:1022F0008B2DCDB7DEB7E9E00C94862EB7018C2F7D
:102300000E94FB0F0E941A10019779F3F1CFCF932F
:10231000DF93EC010E945311BE010E94FB0F0E944B
:102320001A10DF91CF9108959A3078F5863068F5CC
:10233000E82FF0E086E0989FE00DF11D11249E2F1C
:10234000977083E0F695E7958A95E1F7EE0FFF1F0A
:10235000EE0FFF1FEE53FD4F50E040E080E0219173
:1023600030E0092E02C0369527950A94E2F72170D5
:102370003327042E01C0220F0A94EAF7822B4F5F05
:102380005F4F4430510559F7089580E008959A3021
:1023900098F5863088F5E82FF0E086E0989FE00D0C
:1023A000F11D11248E2F877041E001C0440F8A95E2
:1023B000EAF783E0F695E7958A95E1F7EE0FFF1FC0
:1023C000EE0FFF1FEE53FD4F30E020E070E0519123
:1023D000DF011197CB01022E02C0969587950A94D2
:1023E000E2F7817081958527842385278C932F5F61
:1023F0003F4F2430310559F708959C01267033274B
:102400002630310531F488609093400380933F0378
:102410000895877FF9CF21E030E002C0220F331FFB
:102420008A95E2F72095309580913F039091400383
:10243000822393230E94FD1108959091E9028095D3
:1024400089238093E902282F277069F4891759F0AE
:102450009091420392FF07C08695869586950E94CB
:102460000B121092E902089521E030E002C0220F21
:10247000331F8A95E2F780913F0390914003822BAE
:10248000932B0E94FD1108959093F4028093F30220
:102490000895FC0124812223C1F0808191810E9452
:1024A000871192959F70963091F058F4925F9F70CB
:1024B000923058F4803F19F030F4883E30F481E0D7
:1024C00008959A5FF4CF843FD1F380E00895883E69
:1024D000B0F3813FD1F7F3CF662309F45DC08D3CA3
:1024E00041F40E9498098195809372030E944F09DC
:1024F00008958E3C19F40E949809F6CF8F3C31F470
:102500000E949809819580937103F0CF803D19F462
:102510000E949809F8CF893D29F40E94760980939A
:102520007303E4CF8A3D21F40E9476098195F7CFA9
:102530008B3D31F40E947609819580937403D6CF48
:102540008C3D19F40E947609F8CF9FE2980F9830DD
:1025500070F4815D990B21E030E001C0220F8A9573
:10256000EAF780917003822B80937003BFCF8D3D7B
:1025700031F480916A03816080936A03B7CF8E3D06
:1025800021F480916A038260F7CF8F3D09F0AECFCE
:1025900080916A038460F0CF409171038D3C59F4BF
:1025A0008091720387FF0DC01092720341110BC01E
:1025B0001092680308C08E3C81F480917203181653
:1025C0009CF3442381F08091730390917403892BD1
:1025D00009F08CCF1092690389CF8F3C49F447FFF3
:1025E000F0CF10927103809172038111ECCFE0CF94
:1025F000803D19F41416ACF3E4CF90917303893D38
:1026000029F41916F4F610927303DBCF8A3D19F4FE
:1026100097FFD7CFF8CF909174038B3D29F497FFA4
:10262000D0CF10927403CDCF8C3D19F41916CCF392
:10263000C8CF9FE2980F983090F4815D990B21E00C
:1026400030E0B90102C0660F771F8A95E2F7CB012F
:10265000809590917003892380937003B2CF8D3D54
:1026600031F480916A038E7F80936A03AACF8E3DF6
:1026700021F480916A038D7FF7CF8F3D09F0A1CFC0
:1026800080916A038B7FF0CFA6E0B0E0EAE4F3E14B
:102690000C94702E49835A8349815A819923A1F061
:1026A000222391F0CA010E945311182F682F8981AB
:1026B0009A810E94C71169817A81812F0E94FB0F44
:1026C0002696E3E00C948C2ECA010E949411182FD8
:1026D000F2CF9C013A9521153F4150F5FC01EE27C0
:1026E000F170BC0166277270AC01442754709C01E4
:1026F0002227387094FF0EC080E1EF2B09F480E0B0
:10270000672B09F08062452B09F08064232B89F048
:102710008068089581E0EF2B09F480E0672B09F0D1
:102720008260452B09F08460232B19F0886008959E
:1027300080E008950F931F93CF93DF938B01EA01FD
:102740009091AD04943061F58093E9008FEF909102
:10275000E800815095FD06C095ED9A95F1F70000CF
:102760008111F5CF8091E80085FF1AC00E94060311
:10277000811111C08091E80085FD06C08091E800BC
:102780008E778093E800F2CFF80181918F018093DA
:10279000F100219779F78091E8008E778093E80027
:1027A000DF91CF911F910F91089543E050E0BC015C
:1027B00082E00E949A13089546E050E0BC0182E056
:1027C0000E949A130895CF93DF93EC0148E050E004
:1027D000BC0181E00E949A1388E0FE01A3EAB4E004
:1027E00001900D928A95E1F7DF91CF9108956E9A4D
:1027F0003EB13F7B2EB120644FB7F89483EA93E05B
:10280000FC015191CF0168E02EB9000000C057FFD4
:102810003EB9550F000000C000C000C03EB900C066
:102820006A9591F7F4E08F369F0751F74FBF8FE518
:1028300094E00197F1F700C000000895B0E0A0E037
:10284000E4E2F4E10C94692E7C015B016A01809161
:102850002C0301E010E08A3010F40AE010E0C1E03F
:10286000D0E0B501C701F6010995811104C0219698
:102870000C171D072CF4CDB7DEB7EAE00C94852EBB
:10288000CC9F9001CD9F300D300D112490E080E061
:1028900045E34A95F1F70000019682179307C1F7C7
:1028A000E0CF80910103811110C08091D800806138
:1028B0008093D8008AE18A95F1F700C08091D90011
:1028C00080FF0AC081E08093010381E090910103C1
:1028D000913009F080E0089582E0809301030E9426
:1028E000E7021092AD04F1CF0E945114882359F0F1
:1028F000E0919704F0919804309729F00190F081CD
:10290000E02D0995089580E008950F931F930E948C
:102910005114882329F00E9453041F910F910895A8
:102920000E94530400912D0310912E0320912F0338
:1029300030913003600F711F821F931FEECFCF9233
:10294000DF92EF92FF926B017C010E945114882369
:10295000A1F02FB7F89460919C0470919D04809130
:102960009E0490919F042FBF6C197D098E099F09C9
:10297000FF90EF90DF90CF9008950E948514F4CFE0
:102980000E94851408954F925F926F927F928F926A
:102990009F92AF92BF92CF92DF92EF92FF92CF932E
:1029A00060919E0370919F038091A0039091A10379
:1029B0000E949F146B017C010E9485144B015C01F5
:1029C00080929E0390929F03A092A003B092A103D5
:1029D000A0917503E5E7F3E08A2F90E04FEF5FEFFA
:1029E00060E070E04C195D096E097F09A9132AC0E7
:1029F000809375038091A203C0E0811108C080918B
:102A00002205C82FC37019F0C82FC695C6958091AE
:102A10004B01813009F440C0882339F1823009F438
:102A200045C0833009F446C0CF91FF90EF90DF900E
:102A3000CF90BF90AF909F908F907F906F905F905E
:102A40004F900895218D328D2901712C612C4415F0
:102A500055056605770520F481509F5F3296C6CFF5
:102A60002C0D3D1D328F218FF8CF1092480180929E
:102A7000F1049092F204A092F304B092F40489E27B
:102A8000E5E7F3E0A5EFB4E001900D928A95E1F758
:102A900081E080934B01C8CF8C2F0E94B10CCC23D6
:102AA00019F20E94BA090E94BA09BECF8C2F0E9467
:102AB0006405BACF80912105882351F048E050E0A9
:102AC00068E170E082E295E00E94252F10922105D6
:102AD0006091F1047091F2048091F3049091F404F8
:102AE0000E949F14603171058105910508F49CCF07
:102AF00010924B0199CFE2E2F5E085E3808380916B
:102B00004C0190914D01A0914E0181839283A3834A
:102B10008FE784838FEF858348E050E068E170E0C1
:102B2000CF010E94252F10922105089580916F04F6
:102B300090917004892B8093B8029091F2029923AE
:102B400091F0892B8093B80220E08AEB92E0FC019F
:102B50003191CF0131112F5FF2E0803C9F07B9F72F
:102B600021111092F20248E050E06AEE72E088EB28
:102B700092E00E94592F892BA9F088E0E8EBF2E05F
:102B8000AAEEB2E001900D928A95E1F7E0919704E8
:102B9000F0919804309731F00280F381E02D88EBBA
:102BA00092E00995089580914601877F80934601C0
:102BB000909170049D7F9093700484FF08C08F7E75
:102BC0008093460180916F04826080936F048091AE
:102BD000460185FF08C08F7D8093460180916F0478
:102BE000806280936F040E9496150895882341F0B7
:102BF0008095909170048923809370040E949615AB
:102C00000895882339F090917004982B9093700464
:102C10000E9496150895882321F00E9442110E9477
:102C200096150895882339F090916F04982B90930E
:102C30006F040E94961508958823D1F19CEF980F98
:102C4000913A78F4EAEBF2E09191891303C0DF0145
:102C500011971C9292E0E03CF907B1F70E9496159B
:102C6000089590E2980F983050F4877091E001C079
:102C7000990F8A95EAF7892F0E944211EFCF9BE5C1
:102C8000980F933028F490E080E00E94AA04089501
:102C900098E5980F9B3128F490E080E00E9485042D
:102CA000089593E3980F933118F460E00E946C123A
:102CB0000895CF93DF93EC010E941C16CE010E9471
:102CC00069139E01205E31092830310510F0CD2BAB
:102CD00029F40E940B16DF91CF9108950E94F615FA
:102CE000FACFCF93C82F8823B1F08CEF8C0F813AA5
:102CF00000F5EAEBF2E080EC92E0DF012D91C217E3
:102D000061F08A179B07D1F76C2F88EB92E00E9445
:102D10006B040E949615CF9108952191C21303C0B0
:102D2000DF0111971C928E179F07B9F70E94961525
:102D3000EBCF80E28C0F883068F4C77021E030E080
:102D400001C0220FCA95EAF780916F04822B80930D
:102D50006F04DFCFEBE5EC0FE33040F4F0E0E65A30
:102D6000FE4F808190E00E94AA04D5CFE8E5EC0FE9
:102D7000EB3150F4F0E0EE0FFF1FE35AFE4F80817D
:102D800091810E948504C7CF83E38C0F833118F6AD
:102D900061E08C2F0E946C12BECF1F93CF93DF9304
:102DA000182FEB010E947116209739F4812F0E9491
:102DB0001C16DF91CF911F9108958FE99FE0019735
:102DC000F1F700C000002197EFCF70E060E00E94B3
:102DD000CD1608950F931F93CF93DF93C62FD42F53
:102DE000022FFC0185818823A9F0609320050E94B1
:102DF0005F0490931F0580931E05C77081E001C09A
:102E0000880FCA95EAF70E941216DF91CF911F91A1
:102E10000F91089580912005681332C080911E059E
:102E200090911F050E9444048F3A910548F510E2E5
:102E30001D0FCD17B9F080E28C0F883040F4C770B9
:102E400081E001C0880FCA95EAF70E940B1618307E
:102E500048F481E09D2F977001C0880F9A95EAF79A
:102E60000E941216802F0E94E516183070F6D77057
:102E700081E001C0880FDA95EAF70E940B16C5CFF2
:102E8000C77081E001C0880FCA95EAF7F6CF80913C
:102E90003F0390914003009711F080FF0DC066231F
:102EA00039F065E070E089EA0E94CD1680E008956F
:102EB00065E070E08AEAF8CF81FFF8CF8BEA611114
:102EC00001C08CEA0E94E516F1CFCF93DF93EC01AD
:102ED0000E9469139E01205E31092830310510F0EF
:102EE000209741F40E9412168C2F0E947116DF91D8
:102EF000CF9108950E940116F7CFB0E0A0E0E3E87B
:102F0000F7E10C946C2E8C01EB018091460182FF5D
:102F100082C0E0909304F0909404E016F10621F052
:102F20000115110509F077C0809146018B7F8093D0
:102F3000460181FD69C080919104909192049E01A7
:102F4000281B390B81E02639310508F480E08170B7
:102F5000D82E80914601D0FA81F9809346018701ED
:102F60001127F80184E0F695E7958A95E1F7EE0FD1
:102F7000FF1FEF58FB4F20813181A7014F7055276C
:102F800081E090E002C0880F991F4A95E2F7DD20AA
:102F9000E9F1822B932B9183808380916F0481FFD1
:102FA00008C08091460180618093460182E00E94C2
:102FB000421180916F0485FF08C0809146018062B4
:102FC0008093460180E20E944211DD2029F0809129
:102FD0007004826080937004C70190528115904301
:102FE00008F47801C7010E946517809193049091BD
:102FF00094049C0130522115304308F499270E9413
:1030000059160E94D31517C081E0A1CF80959095E5
:1030100082239323C0CFC801905281159043A0F41E
:10302000C80199270E9459168091930490919404A5
:103030000817190731F3D0939204C0939104CDB7C8
:10304000DEB7E7E00C94882EC801ECCFAFE0B0E02B
:10305000ECE2F8E10C94662E8E010F5F1F4F8AE0C0
:10306000D8011D928A95E9F786E3C82E81E0D82E13
:10307000F12CE12CAA24A394B12C26E3822E21E08A
:10308000922EF60181916F018F3F09F442C0F894AE
:10309000E82FE295EF70F0E021A18F70A50102C04A
:1030A000440F551F8A95E2F7CA01922F982B91A3DE
:1030B00092A18095892382A3789400C0E0E3F1E097
:1030C000712C31E021912F3F09F46BC0A22FA29502
:1030D000AF70B0E090968C9190E02F7002C0959503
:1030E00087952A95E2F780FD5CC0832F782A330FFD
:1030F0008E169F0639F7F601319780818F3F11F0C8
:103100000E94FF0E50EA5A95F1F7F801EE0DFF1DEF
:1031100070828FEFE81AF80A95E0E916F10409F0D9
:10312000B0CF4AE050E0B80183E393E00E94592F0A
:10313000009741F02AE0F801A3E3B3E001900D927B
:103140002A95E1F700913E03892B69F181E0809394
:10315000F9020E945F049093F8028093F702809135
:10316000F7029091F8020E944404059700F110E0E4
:103170000D5B1C4F45E050E063E373E0C8010E9423
:10318000592FD12C892B51F085E0E3E3F3E0D801EE
:1031900001900D928A95E1F7DD24D3941092F90203
:1031A00007C080E0A3CF8091F9028111D8CFD12C44
:1031B0000E945114C82EE0913E03DE011B967D0152
:1031C000882309F47AC085E01D928A95E9F70E2FCD
:1031D00010E00D5B1C4F80912C038A30D8F540E73E
:1031E0005EE1B701C8010E941E14882309F454C08F
:1031F00047E15EE1B701C8010E941E14882309F46B
:103200004BC04CE15DE1B701C8010E941E14882348
:1032100009F442C04AEB5CE1B701C8010E941E14E8
:103220008823D1F110922C0380913D0390E045E07A
:1032300050E0B7018D5B9C4F0E94592F21E02093F5
:103240000003892BE1F4C12C8C2D8D292F96EDE004
:103250000C94822E8091FA029091FB020E94440409
:10326000843F914008F0BBCF80910003882359F33D
:1032700085E0F70111928A95E9F710920003A09179
:103280003D03B0E0AD5BBC4F85E0FE013B96019095
:103290000D928A95E1F7D8CF80912C038F3F31F0C2
:1032A0008F5F80932C038A3008F4BECF0E945F04A6
:1032B0009093FB028093FA02D7CFF0E0ED5BFC4FD6
:1032C00085E0A4E1B3E001900D928A95E1F765E015
:1032D00070E084E193E00E94CF0480931303409157
:1032E000640350E06091630370E0615A7C4FC70152
:1032F0000E94662F8B8580931A0361E070E0C701FE
:103300000E94CF048093190380901B0390901C03AC
:10331000A0901D03B0901E038091FC029091FD02CD
:10332000A091FE02B091FF0288169906AA06BB067C
:10333000D1F08092FC029092FD02A092FE02B09227
:10334000FF020E94511481110EC00E945304861A7C
:10335000970AA80AB90A80922D0390922E03A09290
:103360002F03B092300388E0EFE1F3E0A2E2B5E092
:1033700001900D928A95E1F710912703112349F0EE
:103380008091A203811105C00E94B10C80E00E94CF
:1033900064051093A20358CFCF9310926F04C6E038
:1033A000EAEBF2E0DF018C2F1D928A95E9F790E0BD
:1033B00080E00E94AA0490E080E00E9485041092C0
:1033C00070040E949615EFE6F3E0DF011D92CA95A6
:1033D000E9F7109268031092690310926A030E9441
:1033E0004F09CF910895AAE2B0E0E9EFF9E10C941A
:1033F000702E8FEA94E02091F100FC012193CF011F
:10340000F4E0873B9F07B9F78091B004833009F45B
:1034100070C0B8F4813009F447C0823009F4B1C0FB
:103420008091E80083FF7EC28091AF049091B00448
:103430009A3008F077C2E92FF0E0EC56F04D0C948A
:10344000DF2E8A3009F48CC08B3009F46FC08930CC
:1034500039F78091AF04813219F78091B3049091CC
:10346000B4040297E8F68091E800877F8093E80033
:103470008091E80082FF38C09091F3008091F200C3
:10348000029731F48091F100813011F0863021F4FF
:103490008091F1008093A2048091E8008B77809363
:1034A000E8000E943703BCCF8091AF04813A09F055
:1034B000B7CF8091E800877F8093E8008091B304C4
:1034C0009091B404892B61F468E083EA94E070E0A1
:1034D0000E94E3038091E8008B778093E800A0CFFF
:1034E00060E090E080E0F3CF8091AD048111C0CF27
:1034F00097CF8091AF04813A09F092CF8091B304C5
:103500009091B404892B09F08BCF8091E800877FDC
:103510008093E8008091E80080FFFCCF8091470114
:103520008093F1008091E8008E77B9CF8091AF044D
:10353000813209F075CF8091B3049091B404892B46
:1035400009F06ECF8091E800877F8093E8000E94A9
:1035500037038091B104809347010E94CC1960CF5A
:103560008091AF04813209F05BCF8091E800877FC2
:103570008093E8000E9437038091B2048093A104F5
:103580004FCF8091AF04813A09F04ACF8091E80093
:10359000877F8093E8008091E80080FFFCCF8091D6
:1035A000A104BECF803899F0823809F0BBC1809168
:1035B000B3048F70873008F0B5C18093E900809123
:1035C000EB0085FB882780F91092E90006C0809106
:1035D000AB049091AC04911182609091E800977FC8
:1035E0009093E8008093F1001092F1008091E80040
:1035F0008E7794C1882309F482C1823009F092C188
:103600008091B104811185C18091B3048F702FEF37
:10361000280F263008F086C18093E9002091EB0046
:1036200020FF77C1933031F48091EB00806280936A
:10363000EB006FC19091EB0090619093EB0021E063
:1036400030E001C0220F8A95EAF72093EA00109239
:10365000EA008091EB008860EACF811163C110918C
:10366000B1041F778091E3008078812B8093E30081
:103670008091E800877F8093E8000E943703809163
:10368000E80080FFFCCF8091E30080688093E30036
:1036900082E0111183E08093AD0444C180588230F0
:1036A00008F040C18091B1049091B2048C3D23E0B8
:1036B0009207A1F583E08A838AE289834FB7F89461
:1036C000DE01139620E03EE051E2E32FF0E050935C
:1036D0005700E49120FF03C0E295EF703F5FEF7069
:1036E0008E2F90E0EA30C0F0C7968D939D932F5FA8
:1036F000243159F74FBF8091E800877F8093E8001D
:103700006AE270E0CE0101960E94E3038091E80036
:103710008B778093E80006C1C096E7CF4091B30451
:103720005091B404292F33272330310509F444C0C4
:1037300078F52130310509F46FC08BE390E0E7E4C0
:10374000F4E02230310509F0EDC02091E800277F38
:103750002093E8002091B5043091B60482179307B6
:1037600008F49C0140E02115310509F064C04111C5
:1037700062C08091E80082FDC9CF8091AD048823AA
:1037800029F2853019F28091E80083FFF2CFBECF95
:1037900021323105A9F12232310509F0C3C04115AA
:1037A000510509F443C04130510509F0BBC08BE716
:1037B00090E0ECE8F3E0C9CF992781309105C1F0A2
:1037C000009759F0029709F0ADC0E4E9F4E0E49104
:1037D0008E2F90E0E4E9F4E007C0E0ECF4E0E4913F
:1037E0008E2F90E0E0ECF4E0009709F49BC0ADCFA1
:1037F000E0EBF4E0E4918E2F90E0E0EBF4E0F4CF26
:103800004115510571F04130510509F08BC089E037
:1038100090E0E2E7F4E099CF82E190E0E2E8F4E0C2
:1038200094CF89E090E0E9E5F4E08FCF80E490E088
:10383000E7E0F4E08ACF8091AD04882309F466CFF5
:10384000853009F463CF8091E80083FD5FCF8091DC
:10385000E80082FD8ECF8091E80080FF84CF9091B8
:10386000F3008091F2002115310519F0883091059F
:1038700050F041E0089709F040E08091E8008E7731
:103880008093E80070CF44914093F100319621502D
:1038900031090196E8CF803809F044C08091E800F2
:1038A000877F8093E8008091AE048093F1009ECEE4
:1038B000811138C01091B1041230A0F58091E80058
:1038C000877F8093E8001093AE040E943703112392
:1038D00011F084E005C08091E30087FDFACF81E01C
:1038E0008093AD0442E061EC81E00E94560342E225
:1038F00061EC82E00E9456038091AD0413C0809178
:10390000B104813079F481E0933009F080E0809354
:10391000AC041092E9008091E800877F8093E80072
:103920000E9437038091E80083FF0AC08091E8007D
:10393000877F8093E8008091EB0080628093EB00AA
:10394000AA96E3E00C948C2E0E94CC192FEF84E30E
:103950009CE0215080409040E1F700C0000088E1E9
:103960009CE00FB6F894A895809360000FBE9093EA
:103970006000FFCFA9E0B0E0E0ECFCE10C946F2E1A
:1039800088E0E2E2F5E0DE01119601900D928A9561
:10399000E1F78091A203898749E050E06FE173E08D
:1039A000CE0101960E94592F0091280310912903FE
:1039B00020912A0330912B03EFB7F89440919C0497
:1039C00050919D0460919E0470919F04EFBF401B35
:1039D000510B620B730B443651056105710518F4E8
:1039E00011E0892B21F18091290190912A018D5EAE
:1039F0009C4F4091280150E04A30510510F049E0B9
:103A000050E0BE016F5F7F4F0E94662F85E090E01F
:103A10000E94EB2D182F882351F00E9453046093CD
:103A200028037093290380932A0390932B03812FFB
:103A30002996E4E00C948B2EA4E0B0E0E2E2FDE1F4
:103A40000C94702E40910F0350911003609111035C
:103A5000709112032FB7F89480919C0490919D046B
:103A6000A0919E04B0919F042FBF841B950BA60BC1
:103A7000B70B11E084369105A105B10570F10E94E4
:103A800085146E5F7F4F8F4F9F4F69837A838B833F
:103A90009C8380912101909122018D5E9C4F4091E9
:103AA000200150E04530510510F044E050E0BE01E7
:103AB0006F5F7F4F0E94662F84E090E00E94EB2DA5
:103AC000182F882351F00E94530460930F037093C2
:103AD00010038093110390931203812F2496E3E047
:103AE0000C948C2E4F925F927F928F929F92AF9206
:103AF000BF92CF92DF92EF92FF920F931F93CF93DB
:103B0000DF930F92CDB7DEB7C62E4A015901482E7A
:103B1000880F5508C2010E94EB2D782E882309F4E6
:103B200080C0C20133E0880F991F3A95E1F7FC018C
:103B3000E050FF4F438150E04115510511F041E045
:103B400050E080509F4FFC01648175816D5E7C4F19
:103B5000CE0101960E94662FF4014081518162815D
:103B600073812FB7F89480919C0490919D04A0914B
:103B70009E04B0919F042FBF841B950BA60BB70B1F
:103B800084369105A105B10540F4B701C8010E9432
:103B9000CF049981891709F444C00C2C000CDD086E
:103BA000C6010E94EB2D782E811113C0712C872D38
:103BB0000F90DF91CF911F910F91FF90EF90DF90C9
:103BC000CF90BF90AF909F908F907F905F904F90DD
:103BD0000895C60123E0880F991F2A95E1F7FC019B
:103BE000E050FF4F438150E0E416F50608F4A701CA
:103BF00080509F4FFC01648175816D5E7C4FC501D3
:103C00000E94662FB701C8010E94CF0499818913D1
:103C1000CDCF0E945304F401608371838283938328
:103C2000C6CFA701B801C5010E94662FC0CFA1E091
:103C3000B0E0EDE1FEE10C946A2EEE24E394F12C69
:103C40000AE113E09E012F5F3F4F4BE053E063E03A
:103C500082E00E94721DC82E882339F100E080E0C6
:103C60001DC0D0903203D00E2D2D30E0A901415A55
:103C70005C4F7A01E1E0F0E0EC0FFD1FE00FF11D79
:103C80001081FA019081191BB12E1B149CF0912F09
:103C900017FD90E0191B111118C00F5F90913103AF
:103CA0000917F8F281110E94C0148C2D2196E9E0C9
:103CB0000C94862EBA94F70180818F5F808360E038
:103CC0008D2D0E9447178C2DE0CF1F5FF70180815B
:103CD0008150808361E08D2D0E9447178C2DDBCFB2
:103CE000A5E0B0E0E6E7FEE10C946B2E6B0185E009
:103CF000E82EF12C04E113E09E012F5F3F4F47E0D7
:103D000053E061E080E00E94721D882349F095E055
:103D1000FE013196A2E0B3E001900D929A95E1F791
:103D200095E0E2E0F3E0D60101900D929A95E1F77B
:103D30002596E8E00C94872EA8E0B0E0E2EAFEE1E8
:103D40000C94712E66EE7EEF90E080E00E94532F7F
:103D500060E082E090E00E94352F60E083E090E038
:103D60000E94352F1092F4021092F30260E074E189
:103D700084E090E00E94532F60E086E090E00E9493
:103D8000352F6FEF87E090E00E94352F40E050E044
:103D9000BA0188E090E00E94472F60E084E290E062
:103DA0000E94352F60E087E190E00E94352F60E0AF
:103DB0008CE090E00E94352F60E08DE090E00E9462
:103DC000352F19821A821B821C821D821E821F823D
:103DD000188648E050E068E170E0CE0101960E944C
:103DE000252F40E050E0BA0180E290E00E94472F8A
:103DF00040E050E0BA018FE090E00E94472F40E0A1
:103E000050E0BA0183E190E00E94472F2896E2E05B
:103E10000C948D2E9091420392FB222720F92817B3
:103E200079F080FB92F99093420360914103709185
:103E3000420384E090E00E94532F82E00E941D1212
:103E40000895B0E0A0E0E7E2FFE10C94692E8C0158
:103E5000FC018481882309F4EFC021E04081518175
:103E60006281738195810E944413EC010E945F047A
:103E70007C01F8018581882309F455C080914601B1
:103E800082FF07C048E553E0B70190E080E00E9460
:103E90007D17C431FCE7DF0709F441C0C5312CE7C9
:103EA000D20791F1C3313CE7D30729F48091460151
:103EB000816080934601CE0190528115904308F0B5
:103EC00040C01092940410929304F80185818823D5
:103ED00009F4D7C410922005CE019057839708F0BB
:103EE000BAC484E090E00E941F2F90934203809315
:103EF0004103FE01E150F047E232F10508F0E4C071
:103F0000E256F04D0C94DF2E90914601892F8E7F62
:103F100090FF8160809346010E94D315CCCF8091A1
:103F200046018E7FF7CF809146018F7EC13ED1053D
:103F300031F0C53ED105E1F4809146018F7D80933B
:103F400046018091460180FF18C0F8018581CB327F
:103F5000D10539F1E8F49E012E5131092A3031059D
:103F600000F1882351F0109294041092930405C03C
:103F7000CE0190528115904320F7FE01E851FC4795
:103F8000E730F10508F0A1CFE054F04D0C94DF2E9E
:103F9000CD32D10530F3C933D10518F0C436D1057F
:103FA00001F7811106C0A801B701CE010E947D175B
:103FB00034C08091F20290916F04982B292F2D7FAD
:103FC00009F43FC01092940410929304FE0144E05F
:103FD000F695E7954A95E1F7EE0FFF1FEF58FB4F77
:103FE0009E012F70332781E090E002C0880F991F57
:103FF0002A95E2F780959095208131818223932341
:1040000091838083CE010E9465178091F2028D7F9B
:104010000E94381182E00E941D128091E90287708F
:1040200059F0F8018581882339F08091420382FF9D
:1040300003C082E00E941D12CDB7DEB7EAE00C9407
:10404000852E27E0F801A8E5B3E001900D922A95AE
:10405000E1F710925D0310925B0310925A032091D6
:10406000460191FB21F9209346018D7F0E94381172
:10407000D0939404C0939304F0929204E09291043C
:1040800080914601846080934601C4CF26E241EED0
:1040900061EEC8010E94EA16C0CF27E245EE65EE48
:1040A000F8CF26E241EE60EEF4CF27E245EE64EE73
:1040B000F0CF26E241EE62EEECCF27E245EE66EE6F
:1040C000E8CF28E241E0EBCF80914103816080930B
:1040D000410395C0809142038860809342038FC062
:1040E000809141038260F3CF809141038460EFCFE0
:1040F000809141038860EBCF809142038160EDCFD6
:10410000809142038260E9CF809141038061DFCFDB
:10411000809141038062DBCF809141038064D7CFDF
:104120000E94CC19809141038068D1CF80914103D6
:104130008C60CDCF809142038360CFCF80914103CB
:104140008E7FC5CF80914203877FC7CF8091410387
:104150008D7FBDCF809141038B7FB9CF809141038B
:10416000877FB5CF809142038E7FB7CF8091420386
:104170008D7FB3CF809141038F7EA9CF8091410382
:104180008F7DA5CF809141038F7BA1CF0E94CC1959
:10419000809141038F779BCF80914103837F97CF9D
:1041A000809142038C7F99CF8091410382FB9927B4
:1041B00090F921E0922790FB82F990FB83F987CF59
:1041C00080914203982F909591708E7F892B90FB60
:1041D00081F983CF90914103892F8F7B96FF806473
:1041E00076CF0E94CC1990914103892F97FB87F9D4
:1041F00080586DCF61E08EE090E00E94352F609195
:1042000041037091420384E090E00E94532F0E948A
:10421000CC1903CF60E0EFCF90914103892F8F7EBF
:1042200094FF806154CF90914103892F8E7F90FF3E
:1042300081604DCF90914203892F877F93FF8860E3
:104240004CCF8091C00281110FC089E2EAEBF2E00D
:1042500020EC32E09191891303C0DF0111971C9289
:104260002E173F07B9F70AC385E3F0CF80912205E7
:1042700091E089278093220510924B0180912105BE
:10428000816080932105C9CE4FE455E069E575E072
:104290000E94E504C2CE49E555E06FE475E0F8CF31
:1042A0004BE355E065E475E0F3CF45E455E06BE39F
:1042B00075E0EECF41E255E06EE275E0E9CF4EE207
:1042C00055E061E275E0E4CF47E055E064E175E078
:1042D000DFCF44E155E067E075E0DACF4BEE54E024
:1042E00069EF74E0D5CF49EF54E06BEE74E0D0CFC6
:1042F00081E00E949C0291CE85E0FBCF8DE0F9CF5A
:1043000082E1F7CF0E94CC19FFEF24E33CE0F150AB
:1043100020403040E1F700C0000081E08093E000E1
:1043200080E28093D8001092C9008FE19EE401974B
:10433000F1F700C0000087E090EBDC0180932A05D4
:1043400090932B05A0932C05B0932D0588E19CE05C
:104350000FB6F894A895809360000FBE909360000C
:10436000FFCF6FEF7FEF90E080E00E94532F0E941D
:10437000A41C8091420382FB882780F991E0892761
:104380000E940A1FF8018581C081D181882309F428
:104390004AC0CE010E945311F82E682FCE010E9410
:1043A000C711BE018F2D0E94FB0F0E941A10D82F3B
:1043B000C92FA82EF801C580B680B2943FE0B32281
:1043C0008091E9028770F1F0EC2CCC20E1F0892F8C
:1043D000807F803451F080E28D0F883098F0B110EA
:1043E00004C0892F807E803269F08091420382FF71
:1043F00009C082E00E941D128091E9028770EE24BC
:10440000E3948111E12CDC2ED2942FE0D222FBE048
:10441000FD1508F46DC0ED2DF0E0E953F04D0C945E
:10442000DF2E80E0ADCFCE010E949411F82EB9CFDF
:104430002C2F2F70F22EC07F19F0F29490EFF922FA
:10444000CC20B9F0FF2069F080E28D0F883010F0A9
:10445000A11009C080916F04F82AF0926F040E94A5
:1044600096158D2F43C080917004F82AF092700445
:10447000F6CF8D2F0E941C16FF20D1F1D05ED830D0
:1044800010F0A11004C08F2D0E94421106C0F094BC
:1044900080917004F822F09270040E94961528C052
:1044A0003C2F3F70F32EC07FC03219F0F29480EFA2
:1044B000F822AA2059F081E0A81609F479C0CC208E
:1044C00009F485C0BB2009F447C0CBCF80914203DB
:1044D00082FD3EC0CC20B1F1FF2039F080916F0405
:1044E000F82AF0926F040E94961580E00E947116DF
:1044F0002D2D2850330B2430310510F40E947414F4
:10450000EE20A9F08091E90280FD11C0F80115822A
:104510008695869586950E943412C8010E94211FB7
:104520008091E9028695869586950E940B1220E07F
:10453000F8014081518162817381848195810E945B
:1045400044137ACD80E00E941C16FF2089F29BCF95
:10455000CC20A1F0B11004C08F2D0E941216C8CF3C
:1045600091E0B912C5CF8091F2029F2D9823F916E0
:1045700009F4BECFF82AF092F202BACFB110B8CF48
:104580008F2D0E940B169091F2028F2D892329F016
:104590008F2D809589238093F2028091C1029F2DF7
:1045A000982309F4A5CFF094F822F092C102A0CF8D
:1045B000CC2029F0E5E0EB1508F49ACFCDCFF4E05C
:1045C000FB1508F495CF8F2D0E940B1691CFBB20C1
:1045D000D1F329E3A21209C03FEF87EE93E03150F7
:1045E00080409040E1F700C000008D2F0E941C1613
:1045F0007FCF8C2F86958695837069F0813009F086
:1046000077CF8D2F9C2F9370C11002C080E090E077
:104610000E9485046DCF8D2F9C2F9370C11002C016
:1046200080E090E00E94AA0463CF6C2D8D2F0E9441
:104630006C125ECF8C2F837009F03FC0C11058CF31
:104640004D2F429546954770440F440F2D2F2F70E4
:1046500030E0042E02C0220F331F0A94E2F790E0EC
:1046600080E0D4FF09C08FE090E002C0880F991F5E
:104670004A95E2F780959095C695C695C370C2306D
:1046800099F078F44091F3025091F402C13039F07E
:10469000822B932B842395230E94441229CF242B11
:1046A000352B822B932BF8CF822B932B2091F30267
:1046B0003091F40282279327EFCF8695CC2011F01A
:1046C0008C2F8170882309F413CF4D2F4295469586
:1046D0004770440F440F2D2F2F7030E0042E02C07E
:1046E000220F331F0A94E2F790E080E0D4FF09C064
:1046F0008FE090E002C0880F991F4A95E2F78095FD
:104700009095C695C695C370C23099F078F44091E3
:104710003F0350914003C13039F0822B932B842307
:1047200095230E94FD11E4CE242B352B822B932B55
:10473000F8CF822B932B20913F03309140038227A7
:104740009327EFCFCF70CC2029F08C2F0E9434120A
:104750008D2F03CF8D2F0E940B168C2F0E940B12D2
:10476000C7CE8D2FE2EFAE1699F1EA1570F0F0EF9B
:10477000AF16D1F021EFA21691F0CC2009F45BC066
:10478000B1106FCE8C2F8F7127C033EFA31639F184
:1047900094EFA912F2CF8091420382FD2EC08C2F9C
:1047A0008F71CC20D9F218C0CC2069F0E4E0EB1571
:1047B00008F49ECECF7181E090E002C0880F991F6F
:1047C000CA95E2F7B8CFF5E0FB1508F491CEF2CF29
:1047D0008C2F8F71C110C2CF0E94341289CE90E00D
:1047E00080E0CC2009F49DCFCF7181E090E002C041
:1047F000880F991FCA95E2F794CFCC2089F0CF712A
:104800008C2F0E9434128091420382FF07C028E05F
:10481000C29FC001112483608093E9028C2FDCCFFA
:1048200081E00E941D1231E03B1508F061CE82E06C
:104830000E941D125DCEBB2059F0893309F0D5CE00
:104840008FEF97EEE3E081509040E040E1F7CBCE70
:104850008C2F8F7183CFC631FCE7DF0729F580915C
:104860006F048A7A91E009F490E09093C00269E2C3
:10487000811165E388EB92E00E946B040E9496151B
:10488000CCCBC6312CE7D20709F4DBCC80916F0486
:104890008272FE01E052F847E531F10508F072CD71
:1048A000ED52F04D0C94DF2EC3303CE7D30709F4F2
:1048B00058CD50F4C1159CE7D90709F423CDC13078
:1048C000DC4709F454CD5ECDCB35FCE7DF0709F4B6
:1048D000A8CDCC352CE7D20709F44BCDCA35DC473F
:1048E00009F050CD81E04CCDCF93DF938091E80269
:1048F000807F09F04DC08091E702882309F448C009
:10490000E091F0045091B704C091E302D091E2022B
:104910006091E4027091E50247E05E17C9F18E2FC5
:1049200090E0E49FF0011124E854FB4F24812223FE
:1049300091F1489FF001499FF00D1124DF01A85427
:10494000BB4F11962C9111972C1325C02C912D1330
:1049500022C015962C91159721111DC012962D91EC
:104960003C91261B370B2F3A3105A8F48091E802C1
:104970008F7080618093E802E254FB4F80818F70DA
:104980008061808382EE92E00E94211F0E94491183
:10499000DF91CF910895FC013196E770BECFA4E17D
:1049A000B0E0E5EDF4E20C94672E8C0186E0F801AE
:1049B000DE011F9601900D928A95E1F7F80184813E
:1049C000E58092EEA92E92E0B92E9091E602911127
:1049D00028C0882319F1EE20F1F0C8010E94491285
:1049E000F82E8823C1F087E0F801D50101900D92DF
:1049F0008A95E1F78091E602813031F48091E202FC
:104A00009091E3020E9487110E9474248F2D649676
:104A1000ECE00C94832EC8010E94211FFF24F39424
:104A2000F5CFD080C18082809380F090E702209102
:104A3000E4023091E502A401421B530BFF2009F46C
:104A4000D9C04F3A510508F092C08823F9F29091ED
:104A5000E3028091E802282F207F09F056C0C91296
:104A600014C09091E202D91210C0E11048C08F70BA
:104A700080618093E80282EE92E00E94211F809183
:104A8000E802F8018683F12CC1CFE11038C06C2D0B
:104A90008D2D0E94B5026C2D8D2D0E94B502E82E41
:104AA0008111F1CFDF86C88A8F8598890E9487118E
:104AB000292F22952F70243058F49F70223088F0CF
:104AC000992399F0F8019681907F79F4FE2C9ECF7E
:104AD0002A5F2F70223068F0C8010E94211FEF2C3E
:104AE000F5CF992311F0882389F3805E883070F325
:104AF000F3CF803F58F3815F833070F7E7CF809129
:104B0000E80281608093E802BECFC91207C090918D
:104B1000E202D91203C0EE2009F48DC0C8010E9440
:104B20004912882309F477CFEE2009F474CF8091DD
:104B3000E802803288F02091E2023091E302398766
:104B400028879B868A869091E6029C871D868E87A1
:104B5000CE0108960E94211F87E0F801A2EEB2E084
:104B600001900D928A95E1F70E94742457CF90919D
:104B7000E802292F207F51F482EE92E00E94211F4B
:104B800087E0F50111928A95E9F77DCF882309F432
:104B90003DCF8091E3028C1110C08091E202D812C7
:104BA0000CC0E1100AC09683C8010E94211F87E053
:104BB000F50111928A95E9F729CFC8010E9449129F
:104BC000882309F428CFEE2009F425CF8091E8024C
:104BD000803210F22091E2023091E3023A8329837D
:104BE0009C828B829091E6029D831E828F83CE01F0
:104BF0000196B0CF4F3A5105D0F6882309F40ECF75
:104C0000FE2CEE2009F407CF8091E3028C1120C026
:104C10008091E202D8121CC08091E80280FD0FC092
:104C2000982F907F61F08683903F31F0982F907F8E
:104C3000905F8F70892B8683C8010E94211F87E0B7
:104C4000F801A2EEB2E001900D928A95E1F7DECE76
:104C5000C8010E94491281117FCF8091E8028160D2
:104C60008093E802C8010E94211FD0CEABE1B0E0E2
:104C7000ECE3F6E20C946F2E4E8B5F8B688F798F8E
:104C80008A8F9B8F192F9111109270041D8A86E0D4
:104C9000FE017696DE011F9601900D928A95E1F74E
:104CA0000A8D002341F021E04F85588969897A896E
:104CB000C8010E9444130B8B1C8B87E0FE013F96BA
:104CC000DE01189601900D928A95E1F7CE010896C3
:104CD0000E94CF2481110CC087E0FE013896DE01CE
:104CE000119601900D928A95E1F78C8581110BC088
:104CF00017E08091F0049091B704891331C06B964E
:104D0000E4E00C948B2E2091B70430E0C9010196A9
:104D1000877099274091F0044817190699F097E099
:104D2000929FD001939FB00D1124A854BB4FFE0158
:104D3000319601900D929A95E1F78093B7040E9405
:104D40004911D6CF0E94CC191092B7041092F004EA
:104D500087E0E2EEF2E0DF011D928A95E9F7C8CF25
:104D6000819FC001112488549B4F0E94CF24882327
:104D700031F28091F00490E001968770992780933A
:104D8000F004B7CFA6E0B0E0E8ECF6E20C946F2EAA
:104D90000E945F048C018091F5029091F6028017C9
:104DA000910781F019821A820E945F04682F49815D
:104DB0005A81792F80E090E00E9436261093F60207
:104DC0000093F5022696E4E00C948B2E1F920F922E
:104DD0000FB60F9211242F933F934F935F936F93CE
:104DE0007F938F939F93AF93BF93CF93DF93EF9373
:104DF000FF93D091E900DF708091EC00C82FC17063
:104E000080FDC0E81092E9008091F000877F8093D8
:104E1000F00078940E94F3191092E9008091F0005C
:104E200088608093F000CD2BCF70C093E900FF9194
:104E3000EF91DF91CF91BF91AF919F918F917F9132
:104E40006F915F914F913F912F910F900FBE0F90F7
:104E50001F9018951F920F920FB60F9211242F9347
:104E60003F934F935F936F937F938F939F93AF93F2
:104E7000BF93EF93FF938091E10082FF09C080917F
:104E8000E20082FF05C08091E1008B7F8093E1000A
:104E90008091DA0080FF24C08091D80080FF20C07C
:104EA0008091DA008E7F8093DA008091D90080FFB4
:104EB0009DC080E189BD82E189BD09B400FEFDCFBE
:104EC00081E08093AD048091A004811109C00E940B
:104ED000E7020E9488038091E20084608093E200F0
:104EE0008091E10080FF17C08091E20080FF13C035
:104EF0008091E2008E7F8093E2008091E2008061E9
:104F00008093E2008091D80080628093D80019BC21
:104F100085E08093AD048091E10084FF2BC08091F7
:104F2000E20084FF27C080E189BD82E189BD89B5A7
:104F3000982F917080FFFBCF8091D8008F7D809358
:104F4000D8008091E1008F7E8093E1008091E200A3
:104F50008F7E8093E2008091E20081608093E20086
:104F60008091AE04882309F447C084E08093AD04A7
:104F70008091AD048091E10083FF27C08091E20021
:104F800083FF23C08091E100877F8093E10082E06E
:104F90008093AD041092AE048091E1008E7F8093E7
:104FA000E1008091E2008E7F8093E2008091E20038
:104FB00080618093E20042E060E080E00E9456035E
:104FC0008091F00088608093F000FF91EF91BF9195
:104FD000AF919F918F917F916F915F914F913F9191
:104FE0002F910F900FBE0F901F90189519BC109223
:104FF000AD041092A00474CF8091E30087FD93E08C
:105000009093AD04B5CF78941F921FB61F921124D0
:105010008F939F93AF93BF9380919C0490919D0435
:10502000A0919E04B0919F040196A11DB11D809393
:105030009C0490939D04A0939E04B0939F04BF9101
:10504000AF919F918F911F901FBE1F9018951F9237
:105050001FB61F9211248F939F93AF93BF9380919C
:105060009B04811113C080919C0490919D04A09198
:105070009E04B0919F044196A11DB11D80939C0494
:1050800090939D04A0939E04B0939F04BF91AF9111
:105090009F918F911F901FBE1F901895CDB7DEB7BF
:1050A00060970FB6F894DEBF0FBECDBF85B780689E
:1050B00085BF85B7806885BF84B7877F84BF0FB6FB
:1050C000F894A895809160008861809360001092A8
:1050D00060000FBE80E890E00FB6F8948093610006
:1050E000909361000FBE88EB99E09093B702809394
:1050F000B6020E94E7020E9488038091E200846069
:105100008093E20078948091AD048823A1F01091FF
:10511000E9001F709091EC00892F817090FD80E86C
:10512000182B1092E9008091E80083FD0E94F3198A
:105130001F701093E90082E084BD93E095BD9AEF63
:1051400097BD80936E0010922D0310922E03109243
:105150002F031092300355985D988FE891E00197E6
:10516000F1F700C000000E94BA0980933B010E9441
:10517000511481110E94FF2C90913B0181E09827EE
:1051800090936303A82FA91BA093320390913B0136
:105190008093640390913B018093310323982B9A71
:1051A00022982A9AEFE8F1E03197F1F700C0000069
:1051B0002091640345E653E0FA018E2F841B821789
:1051C00008F4C1C180913B0181112CC085E0EFE45E
:1051D000F1E0DE01179601900D928A95E1F78F813B
:1051E00080933601888580933701898580933801C3
:1051F0008A85809339018B8580933A0186E0E4E5C6
:10520000F1E0DE01119601900D928A95E1F7FE0121
:105210003196A0E3B1E0CE01079621912D93E817D6
:10522000F907D9F780913B0195E0811190E09093C7
:105230003E0385E0891B80933D0306E311E09BE379
:10524000E92E91E0F92ED8018D918D018F3F11F05B
:105250000E94FF0EE016F106B1F700E311E086E3CD
:10526000E82E81E0F82EF80181918F018F3F11F037
:105270000E94FF0EE016F106B1F78AE0E3E4F3E0E6
:10528000DF01282F1D922A95E9F7E3E3F3E0DF0120
:105290001D928A95E9F790E080E00E941F2F863EDC
:1052A0009E4F11F00E949C1E82E090E00E94172FFA
:1052B00080934D0384E090E00E941F2F909342035F
:1052C0008093410383E090E00E94172F90E00E94BA
:1052D00044121092F5048FEF9FEF90930F05809387
:1052E0000E059093110580931005909313058093FC
:1052F00012059093150580931405909317058093DC
:105300001605909319058093180590931B058093BB
:105310001A0590931D0580931C05109275039093B8
:105320008F0380938E0390939103809390039093C7
:1053300093038093920390939503809394039093A7
:105340009703809396039093990380939803909387
:105350009B0380939A0390939D0380939C0390E01A
:1053600080E00E941F2F863E9E4F21F00E949C1ECF
:105370000E947B1581E08093210548E050E068E1C0
:1053800070E082E295E00E94072F10922105809143
:1053900022058C7F11F40E947B150E94511481110B
:1053A00002C00E94022D8CE391E0909398048093B8
:1053B00097048091AD04853089F400E4F02EEE244A
:1053C000E39400E112E18091AD04853009F4C7C097
:1053D0000E94CC190E9474141092A2030E942618F5
:1053E0001EE4212E13E0312EA3E4B3E0BF87AE8785
:1053F000F10191918D9123E0E835F20709F4F6C0AF
:105400009817B9F30E945114888BBDEA8B2EB1E036
:105410009B2EE12CAE85BF85DD90BF87AE87F10165
:1054200061901F016D1409F484C06D242401C12C06
:1054300077247394862D872109F470C0FD2CF72002
:10544000F889FF23A1F0CF82E8860E945F049A8743
:10545000898721E02B8791E0F11001C090E09C87C3
:105460004F81588569857A858B850E943626FF2075
:1054700041F0D2018C91F12C8F3F19F08D87FF24E0
:10548000F3940F2D10E080917503800F912F911DE3
:1054900009976CF1E8E0AE2EB12CA01AB10AB80160
:1054A0006A587C4FA50186E793E00E94662FB801F9
:1054B00062587C4FA5018EE793E00E94662FA501FC
:1054C000440F551FB801660F771F62577C4F8EE857
:1054D00093E00E94662FB8016A577C4FA50186E8C9
:1054E00093E00E94662F88E08F1980937503809166
:1054F000750390E0ED85AE2FB0E09D01220F331FC4
:1055000027513E4FAA0FBB1FBD0166517E4F41E0A0
:10551000480F9F1508F474C180937503C394770CEA
:10552000EFEF4E1A5E0AF6E0CF1284CFF101319709
:10553000D082E39426E0820E911C4AE0E4126ACF06
:105540000E94851457C083B183FB882780F91A997C
:1055500004C090E0892B819330CE92E0FBCF809104
:10556000AD04843009F430C00E94C3148091A203BA
:10557000811105C00E94B10C80E00E946405E09298
:10558000A20310929B0448E150E00FB6F894A8954E
:10559000409360000FBEF092600083B7817F84600B
:1055A00083BF83B7816083BF7894889583B78E7FEC
:1055B00083BF0FB6F894A8958091600088618093AE
:1055C0006000109260000FBE8091AC04882309F443
:1055D000FACE0E942618E3E4F3E08191811197C18D
:1055E0008DE493E08E179F07C1F7EDCE98130ACF95
:1055F0000E94C2260E9451148823C9F0809146015E
:1056000082FF15C00E945F042091910430919204A2
:10561000DC01A21BB30BA639B10548F048E553E005
:10562000BC0180919304909194040E947D170E9484
:10563000C314E12CD12C80916403E81608F4F6C061
:10564000D1100E94C01486E0EFE6F3E0DE0111966F
:1056500001900D928A95E1F71092710310927203F6
:1056600010927303109274038B819C81892B09F42F
:105670004AC080916D0390916E030E9444049C0186
:1056800090916803992309F45DC125313105D8F162
:105690009F3F19F09F5F909368031B81112359F07E
:1056A0000E9498099FEF11160CF491E0899F802DBC
:1056B0001124809371031C81112359F00E949809D1
:1056C0009FEF11160CF491E0899F802D1124809397
:1056D0007203309171033323B1F0209172032223BE
:1056E00091F045EB3403C0011124992309F4FFC064
:1056F0009093710355EB250390011124332309F492
:10570000FAC0309372038D819E81892B09F44AC0BF
:1057100080916B0390916C030E9444049C019091D2
:105720006903992309F409C121353105D8F19F3F57
:1057300019F09F5F909369031D81112359F00E9416
:1057400076099FEF11160CF491E0899F802D1124AA
:10575000809373031E81112359F00E9476099FEFF5
:1057600011160CF491E0899F802D1124809374030D
:10577000309173033323B1F020917403222391F00D
:1057800045EB3403C0011124992309F4B8C0909368
:10579000730355EB250390011124332309F4B3C09F
:1057A0003093740346E050E0BE016F5F7F4F8FE699
:1057B00093E00E94592F892B61F48091710390919D
:1057C0007203892B90917303892B90917403892B19
:1057D00011F00E944F0986E0FE013196AFE6B3E07A
:1057E00001900D928A95E1F70E94741490916703DD
:1057F000891709F4DECD809367030E945304D9CD45
:1058000090E0FC01EB58FC4FD9015C915183DB0126
:105810005C915187BD85B18B880F991FFC01EB58B6
:10582000FC4F128E118E91E0842F71CE0E2D10E060
:10583000E3B1E3FBEE27E0F91A9951C080E08E2B2B
:10584000D801AB59BC4FEC919E2F9370891709F486
:1058500044C0EE0FEE0FE82BEC93F0906303FE0CC8
:10586000EF70F0E0EB56FE4F0F591C4F8081F801AE
:105870009081890F8083C12C843084F0EF2DF0E07B
:10588000E15AFC4F80818F5F80830E945114C82EA3
:10589000882339F160E08F2D0E944717D8018C9141
:1058A0008D3F84F4EF2DF0E0E15AFC4F8081815070
:1058B00080830E945114C82E8823B1F061E08F2D9F
:1058C0000E944717F8018081082E000C990B64E0B4
:1058D00070E00E94AC2E8083DC28E394ACCE82E0A2
:1058E000AECFCC24C394DACFCC24C394EBCF81E0E9
:1058F00080937103FFCE81E08093720304CF81E037
:105900008093730346CF81E0809374034BCF09BD2E
:1059100019BD09B400FEFDCF8091D8008F7D809322
:10592000D8008091E00082608093E0008091E000E8
:1059300081FDFCCF0E94CC1946CD2B30310508F0FB
:10594000F8CE30CF2B30310508F0A4CEDCCE8EE17E
:10595000489B02C08150E1F7489BFECF08955898BC
:1059600080E28A95F1F7589A0895FC013BE03A9558
:10597000F1F798E020E080E031E040E14A95F1F76E
:10598000880F489B02C08160232742E04A95F1F7C7
:10599000000040E14A95F1F7915079F790E19A952E
:1059A000F1F799B132E03A95F1F7000040E14A95FC
:1059B000F1F7917092272081920F90830895A1E0D2
:1059C000B0E0E5EEFCE20C946D2E19828C017C01B6
:1059D000E60EF11C0E151F0541F481E0998191112D
:1059E00080E02196E6E00C94892E0E94A72CCE013F
:1059F00001960E94B52CF80181938F01EBCF509A4C
:105A0000589A08955098589AE89AE9E6F0E080810B
:105A10008C7F808308956150770B91E001C0990FCE
:105A20006A95EAF720E031E0911108C0222391F055
:105A3000589A80E28A95F1F758980895492F48239B
:105A400039F0589A232740E24A95F1F79695ECCF22
:105A50005898F9CF5898EDCFFF920F931F93CF939B
:105A6000DF93EC018C01060F111DC017D10729F43B
:105A7000CDB7DEB7E5E00C948A2EF9900E94AF2CEA
:105A800068E08F2D0E940B2DF0CF1F920F920FB662
:105A90000F9211240F931F932F933F934F935F9374
:105AA0006F937F938F939F93AF93BF93EF93FF93E6
:105AB000CF93DF930F92CDB7DEB719820E94A72C48
:105AC000CE0101960E94B52C082F069506950695E5
:105AD000282F22952570902F9570290F922F937063
