:100000000C9464020C94692F0C949C020C949C0236
:100010000C949C020C949C020C949C020C949C02E8
:100020000C949C020C949C020C94CB280C94872872
:100030000C94C8290C949C020C949C020C949C0275
:100040000C949C020C949C020C949C020C949C02B8
:100050000C949C020C94A4290C949C020C949C0279
:100060000C949C020C949C020C949C020C949C0298
:100070000C949C020C949C020C949C020C949C0288
:100080000C949C020C949C020C949C020C949C0278
:100090000C949C020C949C020C949C020C949C0268
:1000A0000C949C020C949C020C949C0235001E0043
:1000B0001F002000210022002B2F14001A0008002E
:1000C00015001700292104211624072809220A00F7
:1000D000E1001D001B0006001900050000000000E3
:1000E000E30028412B212C083100270026002500A1
:1000F000240023002A00130012000C0018001C002A
:10010000340033210F240E280D220B001E7C3800F2
:10011000370036001000110000000000E6002C42FD
:100120002A22AE0045003A003B003C003D003E0064
:1001300035021E021F022002210222020100E000FD
:10014000E200E300E1002D0201002F0230022F0047
:1001500030002E02000000000100010001002C0907
:10016000440043004200410040003F004C00270291
:100170002602250224022302000000004F00520044
:1001800051005000010000004D004B004E004A009D
:1001900000000000010001000100A80045003A0035
:1001A0003B003C003D003E0035001E001F002000CB
:1001B0002100220001002F0230022D022E02310206
:1001C0000100300030002D002E0031000000000042
:1001D0000100010001002C094400430042004100DD
:1001E00040003F004C00270026002500240023008B
:1001F0002900E000E200E300E1002D000100AE0074
:10020000A900AA00AB002E000000000001000100C0
:100210000100010044003A003B003C003D003E006C
:1002200044003A003B003C003D003E0001002078C5
:100230000000D300D100D200010021782778237874
:10024000257829780000000001000100010001006C
:10025000450043004200410040003F00450043008C
:100260004200410040003F00007C0000D000CD0073
:10027000CE00CF0001000000DC00D900DA00DB0076
:100280000000000001000100010001000001010167
:100290000101010101010202020202020202020343
:1002A0000303030303030304040404040404050513
:1002B00005050506060606060707070707080808D6
:1002C00008090909090A0A0A0B0B0B0C0C0C0D0D85
:1002D0000D0E0E0E0F0F0F1010111111121213131D
:1002E0001414151516161717181819191A1A1B1B96
:1002F0001C1D1D1E1E1F20202122222324242526F2
:1003000026272829292A2B2C2D2D2E2F3031323229
:10031000333435363738393A3B3C3D3E3F40414235
:10032000434445464748494A4C4D4E4F505153541B
:10033000555658595A5B5D5E5F61626465666869CF
:100340006B6C6D6F7072737577787A7B7D7E80824F
:10035000838587888A8C8E8F91939596989A9C9E98
:10036000A0A2A3A5A7A9ABADAFB1B3B5B7BABCBEA8
:10037000C0C2C4C6C9CBCDCFD1D4D6D8DBDDDFE275
:10038000E4E7E9EBEEF0F3F5F8FAFDFF0501090209
:10039000A10185020901A10005091901290815001B
:1003A0002501950875018102050109300931158182
:1003B000257F95027508810609381581257F9501ED
:1003C00075088106050C0A38021581257F9501758F
:1003D000088106C0C005010980A101850319012A11
:1003E000B700150126B700950175108100C0050CF6
:1003F0000901A101850419012AA002150126A00204
:10040000950175108100C005010906A101050719B4
:10041000E029E71500250195087501810295017510
:100420000881010507190029FF150026FF00950620
:100430007508810005081901290515002501950594
:1004400075019102950175039101C009023B0002FB
:100450000100A0FA090400000103010100092111B3
:10046000010001224400070581030800010904017D
:10047000000103000000092111010001227B000797
:10048000058203200001120100020000000810CBC9
:1004900056642006010200011A0349007200690037
:1004A000730020005200650076002E002000360008
:1004B000620000000E034B006500650062006900E9
:1004C0006F0000000403090411241FBECFEFDAE01F
:1004D000DEBFCDBF04B603FE18C0809170059091B9
:1004E0007105A0917205B09173058730904BA740BC
:1004F000B04B59F41092700510927105109272056C
:1005000010927305E0E0F8E3099525E0AAEBB2E06C
:1005100001C01D92A037B207E1F712E0A0E0B1E000
:10052000E8E1F5E602C005900D92AA3BB107D9F7C4
:100530000E94EF290C9411320C94000090916805F0
:10054000937061F081110BC09460909368051092D4
:100550004F0180916705816080936705089585321A
:1005600010F09069F2CF880F880F982BEECF482FAC
:10057000209136059091FD0457E0291302C080E0D8
:10058000089530E0529FF001539FF00D1124E25086
:10059000FB4F8181681306C08081481303C08581A9
:1005A0008111EECF2F5F3F4F2770E7CF9091680505
:1005B000937071F08093690560936A05413A08F081
:1005C00040EA40936B0580916705816080936705E1
:1005D0000895E8EDF0E080818E7F80831092E20044
:1005E0001092DA001092E100A0EEB0E08C918160F0
:1005F0008C9380818F77808319BCA7EDB0E08C91BC
:100600008E7F8C9380818F7E80831092E604089584
:100610002091E4003091E50095E6A9012091EC00DD
:10062000822F817020FF06C08091E80080FF06C005
:1006300080E008952091E80022FD1AC08091F30423
:10064000882389F0853089F08091EB0085FD0FC00B
:100650002091E4003091E50042175307F9F29150E0
:10066000E1F684E0089582E0089583E0089581E052
:1006700008958091F50487FF13C08091E80082FF00
:1006800006C08091E8008B778093E80004C08091D9
:10069000F3048111F2CF08958091F3048823D9F3F4
:1006A0008091E80080FFF8CF8091E8008E77ECCF52
:1006B000982F9093E900242F762F50E0891731F07E
:1006C0007091EC002091ED005091F00021FD07C0E9
:1006D0009F5F973071F78093E90081E00895309132
:1006E000EB003E7F3093EB003091ED003D7F309387
:1006F000ED003091EB0031603093EB007093EC0033
:100700002093ED005093F0002091EE0027FDE0CF04
:1007100080E00895B0E0A0E0E0E9F3E00C948F30D1
:10072000C8EDD0E088818F7E8883E7EDF0E080819E
:100730008160808384E082BF81E08093E6048881C9
:100740008E7F888302EE10E0F80110821092DA00AA
:1007500081EEC82ED12CF601108288818F77888394
:1007600088818068888388818F7D888319BC1092F6
:10077000F3041092F4041092F2041092F10490EE3B
:10078000E92EF12CF70180818B7F80838881816045
:10079000888342E060E080E00E945803F601808197
:1007A0008E7F8083F8018081816080838081886072
:1007B0008083F70180818E7F808388818061888338
:1007C000CDB7DEB7E8E00C94AB30FC018091FB04C0
:1007D0009091FC0486179707A0F06115710529F424
:1007E0009091E8009E779093E80090E06115710584
:1007F00051F4911108C08091E80082FF34C080E07C
:100800000895BC01F2CF8091F3048823C1F18530B3
:10081000C1F18091E80083FD30C08091E80082FD45
:10082000EACF8091E80080FFE1CF8091F300209132
:10083000F200382F6115710519F02830310558F094
:1008400091E02830310509F090E02091E8002E7702
:100850002093E800CBCF81918093F1006150710922
:100860002F5F3F4FE7CF8091F304882341F085301D
:1008700041F08091E80083FFBECF81E0089582E0DF
:10088000089583E008958091E80408959C014FB78E
:10089000F8948091E2049091E304A091E404B09173
:1008A000E5044FBF821B930B08952FB7F894609116
:1008B000E2047091E3048091E4049091E5042FBF79
:1008C00008952FB7F8948091E2049091E304A091E9
:1008D000E404B091E5042FBF08959C01FC01329619
:1008E0009FEF80E04191461751F09F3F19F441116D
:1008F00001C0982F8F5F8630A9F79F3F09F40895B4
:10090000290F311D97FD3A95F90162830895A3E0FF
:10091000B0E0EDE8F4E00C9495302091DF043091E4
:10092000E00428173907A1F09093E0048093DF04D6
:10093000E091DD04F091DE04309751F024E029834A
:100940009B838A830680F781E02DCE01019609956D
:100950002396E2E00C94B130A3E0B0E0E2EBF4E0E7
:100960000C9495302091DB043091DC042817390772
:10097000A1F09093DC048093DB04E091DD04F0911E
:10098000DE04309751F023E029839B838A8306801D
:10099000F781E02DCE01019609952396E2E00C94B3
:1009A000B130FC01680F791F8FEF91E3219182270D
:1009B00028E030E087FF09C0880F892721503109DE
:1009C000C9F7E617F70791F70895880FF7CFFA01EF
:1009D000811101C0FB01099508951092E803089563
:1009E000E8E6F5E0248130E1231B08F420E02483CD
:1009F000809167058160809367050895E8E6F5E0DA
:100A0000248130E1230F08F42FEF248380916705C0
:100A10008160809367050895E8E6F5E0438120E171
:100A2000421B08F440E08181628190E00E94D6027E
:100A30000895E8E6F5E0438120E1420F08F44FEF26
:100A40008181628190E00E94D6020895E8E6F5E097
:100A5000628120E1621B08F460E08181438190E0C3
:100A60000E94D6020895E8E6F5E0628120E1620F77
:100A700008F46FEF8181438190E00E94D6020895CF
:100A8000E8E6F5E08181438162818850990B0E94FC
:100A9000D6020895E8E6F5E0818190E04381628125
:100AA00008960E94D60208958091680586958695DD
:100AB000815009F484E20E949E02089580916805A5
:100AC000869586958F5F853208F081E00E949E02B0
:100AD000089580934901809168058370809348014F
:100AE0000E94DC1183E080934F010895EF92FF9202
:100AF0000F939701201B31092F3F310519F010F09A
:100B00002FEF30E02095382F320F08F43FEF832F7E
:100B10000F91FF90EF900895EF92FF920F9397013E
:100B2000201B31092F3F310519F010F02FEF30E075
:100B3000322F3095482F430F08F44FEF842F620F68
:100B40000F91FF90EF900895EF92FF920F93972FE0
:100B5000093438F4B701601B71096F3F710519F052
:100B600010F06FEF70E0485F5F4F4131510540F08A
:100B7000A901485F5F4F4131510510F06FEF70E000
:100B80006095482F460F08F44FEF842F37FF02C0BF
:100B90002D5F3F4F359527953595279560916905D0
:100BA000620F792F0F91FF90EF900895EF92FF92CF
:100BB0000F931F930E0D1F2D111DF90137FF03C059
:100BC000F195E195F10924E0EE0FFF1F2A95E1F779
:100BD000EF3FF10519F014F0EFEFF0E09A0157FF45
:100BE00003C031952195310994E0220F331F9A9566
:100BF000E1F72E173F070CF4F901E00FF11FEF3F6B
:100C0000F10519F010F0EFEFF0E0E095282F3E2FFE
:100C1000230F08F42FEF822F1F910F91FF90EF9079
:100C20000895EF92FF920F93970195E0099F200D91
:100C3000311D11242F3F310519F010F02FEF30E056
:100C40002095382F320F08F43FEF832F0F91FF903C
:100C5000EF90089522E8241B08F420E0620F089525
:100C60004095282F429F412D1124842F08950F93E2
:100C70001F9310E0F801EE0FFF1FE351FE4F90812C
:100C8000905797FD9195000F111FF801EF54FE4FFB
:100C900005AD0052110B2003F001219FF00D11242E
:100CA00008E310E0091B110997FD1395400390011B
:100CB000419F300D1124E20FF31F9F01220F331FBC
:100CC0002E0F3F1F37FF02C021583F4F220F232F07
:100CD000221F330B620F1F910F9108950F931F93E3
:100CE000522F10E0F801EE0FFF1FEF54FE4FA5AD9D
:100CF000A052BB0B9D015203F001539FF00D112434
:100D0000000F111FD801A351BE4F0C910057110BBA
:100D100040039001419F300D11242E0F3F1F37FFDC
:100D200002C0215C3F4F96E0359527959A95E1F7F3
:100D3000620F1F910F9108950F931F93522F10E090
:100D4000F801EE0FFF1FEF54FE4FA5ADA052BB0BF5
:100D50009D015203F001539FF00D1124000F111F4C
:100D6000D801A351BE4F0C910057110B40039001C5
:100D7000419F300D11242E0F3F1F37FF02C0215815
:100D80003F4F220F232F221F330B620F1F910F9112
:100D90000895EF920F93972F23E0029FB001112443
:100DA000759567956E0D792F0F91EF900895322FFD
:100DB00050E0FA01EE0FFF1FEF54FE4F95AD905239
:100DC00097FD9195440F551FFA01E351FE4F208185
:100DD000231B330B290F311D97FD3A95620F0895A0
:100DE000E42FF0E0EE0FFF1FEF54FE4F65AD621BE6
:100DF0000895E42FF0E0EE0FFF1FE351FE4F6081F6
:100E0000621B0895622F0895E42FF0E0EE0FFF1F9C
:100E1000E351FE4F408134EE439F412D1124E82FD2
:100E2000F0E050E0445E5F4FDA01A21BB1099D0182
:100E3000B7FF03C031952195310993E0220F331F8D
:100E40009A95E1F7AF01421B530B9A0157FD20E041
:100E5000582F259F212D1124822F0895E42FF0E093
:100E6000EE0FFF1FE351FE4F408134EE439F412DB3
:100E70001124E72FF0E050E0445E5F4FDA01A21B3F
:100E8000B1099D01B7FF03C031952195310993E068
:100E9000220F331F9A95E1F7AF01421B530B9A01C2
:100EA00057FD20E0279F212D1124722F08950E94C5
:100EB000D2090895FF920F931F93CF93DF93182FBA
:100EC000062FF42ED0E0C0E02F2D402F612FCE0151
:100ED0000E9457072196C434D105B1F7CDB7DEB7CC
:100EE000E5E00C94AE30FC019B01009729F480E012
:100EF00077FF2BC080E80895AC0197FF04C044271A
:100F00005527481B590BB901640F751F37FD10C0D9
:100F1000241B350BC901A5E0880F991FAA95E1F79D
:100F20000E94D03080E2861BF7FF0FC081950895A4
:100F3000CB0165E0880F991F6A95E1F7BA01621B42
:100F4000730B0E94D03080E6EECF0895EF920F939E
:100F5000CF93DF93D72FC82FC9010E19BA010E9472
:100F60007307602F681B7D2F8C2FDF91CF910F911E
:100F7000EF9008950F93CF93DF93D72FC82FC90118
:100F8000BA010E947307682F600F7D2F8C2FDF91AD
:100F9000CF910F910895EF920F931F93CF93DF930B
:100FA000D62FC72F182FC9010E19010FBA010E94A1
:100FB0007307081B202F219F212D1124822F6D2FB5
:100FC0007C2FDF91CF911F910F91EF900895EF92B9
:100FD0000F931F93CF93DF93D62F172FC82FC901DD
:100FE0000E19070FBA010E947307702F781B719FAB
:100FF000712D11246D2F8C2FDF91CF911F910F91A7
:10100000EF9008950F931F93CF93DF93D62FC72FA1
:10101000182FC901212F201B022FBA010E9473072C
:10102000982F990F990F891B800F282F219F212D11
:101030001124822F6D2F7C2FDF91CF911F910F9163
:1010400008950F931F93CF93DF93D62F172FC82F99
:10105000C901272F201B022FBA010E947307982F66
:10106000990F990F782F791B700F719F712D112493
:101070006D2F8C2FDF91CF911F910F910895E82F45
:1010800086FDE0952E2F2F7086FD2F5FE695E69565
:10109000E695E670F0E0E755FE4F9181929F902D26
:1010A000212D112492959F702295207F922B2081D3
:1010B000920F87FD919580E8890F0895AC018230E9
:1010C000910508F408959FEF413E8EE1580740F4E2
:1010D0009A0195E0369527959A95E1F798E0920F59
:1010E00061E0E62FE90FFF27FF1F9F013595279548
:1010F000822F229FF001239FF00DF00D11244E1737
:101100005F0738F49FEF920F961758F78FEF860F0F
:1011100008952F3FE9F361E0620FF6CF0F93CF936D
:10112000DF93D72FC82F47FD419588E390E0841BBC
:10113000910947FD9395889FB001899F700D700DAF
:101140001124229FC001239F900D900D1124860F22
:10115000971F0E945E08982F990F890F682F600FC4
:101160007D2F8C2FDF91CF910F91089530E020E0FB
:10117000869F212D969F200D311D1124C9010895B0
:10118000AF92BF92CF92DF92FF920F931F93CF93B4
:10119000DF93362F472FE82FF0E0E457FD4F711112
:1011A0000FC0E4918E2F2E2F6E2F722FDF91CF91D3
:1011B0001F910F91FF90DF90CF90BF90AF90089557
:1011C000C72FD0E02491F22E022F10E056E0659F49
:1011D000C0011124EFEFF0E0BF010E94BC30832F6B
:1011E00090E0880F991F35E5369FD001379FB00DED
:1011F00011248A1B9B0B982F990F980F6F01CC1A03
:10120000DD0AC09ED001C19EB00DD09EB00D11244C
:101210008B2F499FA0011124452F55276F01C41A18
:10122000D50AC09EA001C19E500DD09E500D112424
:101230005F01A91AB108AC9E6001AD9ED00CBC9EA6
:10124000D00C1124CD2CDD24EC19FD09E09FE00128
:10125000E19FD00DF09FD00D1124ED2F623071056C
:10126000A1F050F46115710509F49ECF613071054C
:1012700081F0EB2F852F98CF6430710569F080F0F5
:101280006630710509F490CFF4CFE22F2B2F8D2F0C
:101290008BCFE22F252F88CFEB2F822F2D2F84CFBE
:1012A0002B2F8F2DE52F80CF0E9461049C01909100
:1012B000750380917603982B21F03093720320936D
:1012C00071039091770380917803982B21F03093EC
:1012D000700320936F03E091DD04F091DE043097FA
:1012E00049F082E0809373030480F581E02D83E769
:1012F00093E00995089580916E0380FD16C081FDED
:1013000016C082FD16C080916D038823A1F088323B
:1013100080F428E0829FC001112468E270E00E94FE
:10132000D030862F672B39F0089582E0089584E04D
:10133000089588E0089581E0089580916E0380FD0E
:1013400014C081FD14C082FD16C080916C038823F7
:1013500081F08E3180F420E5829FC00111246EE17E
:1013600070E00E94D030862F089584E1089588E2CD
:10137000089588E0089580E50895282F35EB23032C
:10138000C001112497FF04C080589109892F089546
:1013900080589F4FFBCF80E0089589B185FB882757
:1013A00080F90895FF920F931F93CF93DF93EC0181
:1013B000F62E042F122F0E94CD09811123C0C232B4
:1013C000D1051CF1A297FE01EE0FFF1FDF01AC0F4C
:1013D000BD1FA751BC4F11968C9111978F1107C05B
:1013E0008C91801304C012968C91811771F081E06A
:1013F0008093E803EC0FFD1FE751FC4FF18200835F
:10140000128303C0C232D105F4F2CDB7DEB7E5E0F6
:101410000C94AE30CF93C82F0E94CD09882329F0B9
:1014200081E0C23228F080E003C081E0C434D8F704
:10143000CF910895A8E0B0E0E0E2FAE00C948530A6
:10144000282E7C836B8320914C018EE0289F802D79
:1014500011248D83825F8983853410F034E43983CD
:101460000E94CD09882329F08981833210F092E20D
:1014700099830E94CD09811105C0ED81E23210F4FB
:10148000F2E2FD8320913B052A839D81892F90E024
:1014900098878F83880F991FFC01EF54FE4F6F01CF
:1014A000822D90E09C012F5F3F4F3E832D838981E9
:1014B0009F81981730F00E940A0A2896E2E10C9466
:1014C000A130EF81F885EB58FD4F808190914D015F
:1014D0008923F9F03090690540906A058D819E81DD
:1014E000855C9A4F3C01522C10E0FA815F16D8F0CF
:1014F00020916B05129F112D1124632D742D812FC6
:101500000E94C008462F282F672F8F8198850E9440
:1015100057072F8138852F5F3F4F38872F8332E061
:10152000C30ED11CC4CFF30181913F01F601A4ACDD
:10153000A81ABB0885ACF3018781881A9908AA9C70
:101540009001AB9C300D300D1124889CC001899C0A
:10155000900D900D1124820F931F0E945E08082F9A
:1015600060916C0521E0620F08F46FEFF301EE0F5C
:10157000FF1FEB53F540858996890E94B6087C01D0
:101580009401A501632D742D812FEB81FC810995B8
:10159000362E472E5394182FA8CFB0E0A0E0E3EDED
:1015A000FAE00C948F307C01C0914C018EE0C89F12
:1015B000C02D11241EE01C0F153408F014E40E9405
:1015C000CD09882319F0133208F012E20E94CD09E8
:1015D000811103C0C23208F4C2E220916C0531E0EF
:1015E000230F08F42FEF30E050E040E06FEF7FEF83
:1015F00080E090E00E94AE316901D0E001E02C2F44
:10160000C11740F0812F0E940A0ACDB7DEB7E8E08B
:101610000C94AB30FE01EB58FD4F808190914D0151
:10162000892309F140913B054150042E000C550BD4
:1016300047FF1BC0C60160916C05600F08F46FEF97
:101640000E94B608AC016091690570916A058091AD
:101650006B05F70109950E94C008462F282F672FB8
:10166000CE010E9457072196CACFFA01E55CFA4FD6
:10167000818982130AC0FA01EE0FFF1FE55CFA4F61
:10168000818D928D8C159D05B0F241505109D0CFBE
:10169000B0E0A0E0EEE4FBE00C948D306C01C09172
:1016A0004C018EE0C89FC02D11241EE01C0F153484
:1016B00008F014E40E94CD09882319F0133208F0D1
:1016C00012E20E94CD09811103C0C23208F4C2E2C5
:1016D00060916C0566956695809137059091380507
:1016E0000E94B608F82E80E48F0D0E943F0890E813
:1016F000B92EB80E8F2D0E943F0820E8A22EA80E0A
:10170000D0E0C11740F0812F0E940A0ACDB7DEB7A2
:10171000EAE00C94A930FE01EB58FD4F80819091D6
:101720004D018923A1F06091690570916A0580914E
:101730006B05EF2C0C2F2A2D4B2DF60109950E94DD
:10174000C008462F282F672FCE010E9457072196E9
:10175000D8CFB0E0A0E0EFEAFBE00C9489305C0168
:10176000C0914C018EE0C89FC02D11241EE01C0FBB
:10177000153408F014E40E94CD09882319F01332BF
:1017800008F012E20E94CD09811103C0C23208F4B0
:10179000C2E260916C05669580913705909138059D
:1017A0000E94B608F82ED0E0CE01880F991F9C0148
:1017B0002F543E4F6901C11740F0812F0E940A0A41
:1017C000CDB7DEB7EEE00C94A530FE01EB58FD4F2F
:1017D000808190914D01892379F1F60184AD282F04
:1017E0002057330B490185ADE82FE052FF0B3F0135
:1017F000889C9001899C300D300D1124EE9FC00112
:10180000EF9F900D900D1124820F931F0E945E0890
:10181000082F6091690570916A0580916B05EF2C26
:101820009301A401F50109950E94C008462F282FB5
:10183000672FCE010E945707F2E0CF0ED11C2196F0
:10184000BACFB0E0A0E0E7E2FCE00C948E306C018F
:10185000C0914C018EE0C89FC02D11241EE01C0FCA
:10186000153408F014E40E94CD09882319F01332CE
:1018700008F012E20E94CD09811103C0C23208F4BF
:10188000C2E260916C0566958091370590913805AC
:101890000E94B608B82ED0E0CE01880F991F9C0197
:1018A0002F543E4F7901C11740F0812F0E940A0A40
:1018B000CDB7DEB7E9E00C94AA30FE01EB58FD4F3E
:1018C000808190914D018923C1F0F70125AD20520F
:1018D000330B44AD4057550B6091690570916A0513
:1018E00080916B050B2DF60109950E94C008462FCB
:1018F000282F672FCE010E945707F2E0EF0EF11C50
:101900002196D1CFEF92FF920F931F93CF93DF9346
:101910007C01C0914C018EE0C89FC02D11241EE0B7
:101920001C0F153408F014E40E94CD09882319F027
:10193000133208F012E20E94CD09811103C0C232B5
:1019400008F4C2E260916C056695669521E0620F2D
:1019500008F46FEF80913705909138050E94B60822
:10196000082FD0E0C11740F0812F0E940A0ACDB79E
:10197000DEB7E6E00C94AD30FE01EB58FD4F808100
:1019800090914D01892391F06091690570916A05EC
:1019900080916B05202F4C2FF70109950E94C008FC
:1019A000462F282F672FCE010E9457072196DACFA6
:1019B000F894E82FE295EF70F0E031A1282F2F7016
:1019C00081E090E001C0880F2A95EAF7982F909562
:1019D000932391A392A1892B82A378940895909147
:1019E000450392FF10C041E0282F2471243009F0F4
:1019F00040E031E0282F2871283009F030E043170B
:101A000011F02CE0822793FF10C041E0282F2471B1
:101A1000243109F040E031E0282F2871283109F005
:101A200030E0431711F02CE082273091460330FF5D
:101A300010C051E0282F2171213009F050E041E021
:101A4000282F2871283009F040E0541711F029E0C0
:101A5000822731FF10C041E0282F2171213109F088
:101A600040E031E0282F2871283109F030E0431799
:101A700011F029E0822794FD877E08958238910530
:101A8000B9F1B0F48133910509F47DC048F489328D
:101A9000910509F46DC08A32910509F47BC008955F
:101AA0008533910509F45FC08933910509F10895E3
:101AB000833E9105D9F138F4803E910529F1823EAB
:101AC000910579F10895863E9105D9F1873E9105FA
:101AD00009F43EC0843E910541F52091460321FF63
:101AE00024C08091450384FD19C087EE90E00895DD
:101AF00020914503237009F05AC02091460323FF2B
:101B000014C089E290E008952091450320FD38C07B
:101B10003091460330FF09C024FF43C090E080E0CD
:101B200008952091450322FDF7CF089520914503A4
:101B300022FD3AC03091460330FD39C024FFF5CF75
:101B4000EDCF2091450323FFF0CF24FDE7CFCDCF8C
:101B50002091450323FD2EC03091460331FFEECF87
:101B600084EE90E008952091450325FFDECFC9CF94
:101B70002091450325FD21C02091460323FFD5CFA9
:101B800089E390E0D2CF2091450326FFCECF8AE2B1
:101B900090E008952091450326FFC7CF81E390E0B0
:101BA000089583EE90E0089582EE90E0089580EE2F
:101BB00090E0089586EE90E0089585E390E0089522
:101BC000972F7A30B8F46630A8F48430B0F470E01F
:101BD00026E0929F600D711D1124FB019CE3899FFB
:101BE000E00DF11D1124EE0FFF1FE455FF4F85910D
:101BF0009491089580E090E0089581E0FCCF1F93D8
:101C0000CF93DF930E943E0DEC01C11580E5D8070C
:101C1000F0F5C11580E4D80708F09CC0C03ED1059E
:101C200020F5CD3CD10508F082C0C83AD10578F442
:101C3000C53AD10508F073C0C130D10519F120971C
:101C400009F1C430D105F0F4D0E0C0E01BC0C33CC2
:101C5000D105D0F7C85AD0E0CC0FDD1FCF59DE4FE9
:101C60000990D881C02DD4640DC0C11580E2D80779
:101C700008F0D1C0C11581E0D80708F05AC0C83EAD
:101C8000D10510F7CE01DF91CF911F910895C03695
:101C900082E5D80718F5C03482E5D80708F06BC094
:101CA000C03282E5D80708F05FC0C11582E5D807C9
:101CB00008F497C02C2F2695269580E2289F900146
:101CC00011248C2F8370C1E0D0E002C0CC0FDD1F47
:101CD0008A95E2F7C22BD32BDD68D4CFC03A82E5D8
:101CE000D80760F4C03882E5D80708F459C0CF712E
:101CF000D0E0DC2FCC27C46FD06AC4CFC03C82E5D3
:101D0000D80708F462C0C03E82E5D80708F09CCF2F
:101D1000DC2FCC27CC27DF71C06FD06AB3CFC55A78
:101D2000D0E0C25ADE4FC881D0E0D064ABCFD065DE
:101D3000A9CF8D2F0E94EF0C182FCE0199270E945A
:101D40003E0DC12FD0E0DC2FCC27CC27DF71C82B74
:101D5000D92B98CFCE0199270E943E0DCC27DF705A
:101D6000C82BD92BD06A8ECFCF71D0E0DC2FCC27F7
:101D7000C16FD06A87CF2C2F26952695277080E2D9
:101D8000289F900111248C2F8370C1E0D0E002C005
:101D9000CC0FDD1F8A95E2F7C22BD32BDC6872CF04
:101DA0002C2F26952695277080E2289F90011124DC
:101DB0008C2F8370C1E0D0E002C0CC0FDD1F8A956C
:101DC000E2F7C22BD32BDA685DCF8C2F8F710E9484
:101DD000EF0CC82FD0E0DC2FCC27CC27DF71D062EE
:101DE00051CF8C2F8F710E94EF0C55E0D695C7957F
:101DF0005A95E1F7CF70D0E0DC2FCC27282F30E0C8
:101E000084FF05C044E0220F331F4A95E1F7C22B3F
:101E1000D32BD06937CF8D2F8F710E94EF0C182FE5
:101E2000CE0199270E943E0DC12FD0E0DC2FCC2798
:101E3000CC27DF71C82BD92BD2CF9091460392FFCC
:101E400005C09091F60298138093F602089580954C
:101E50009091B50498239093B50408958091360528
:101E60009091FD04981301C008958F5F8770FACF99
:101E7000B0E0A0E0EEE3FFE00C948E307C01009136
:101E80004303109144038091F7029091F802082BCC
:101E9000192BCFE0D0E0CC24C394D12CBC2EC601AA
:101EA0000C2E02C0880F991F0A94E2F78023912319
:101EB000892B49F4219790F7B12C8B2DCDB7DEB744
:101EC000E9E00C94AA30B7018C2F0E94E00D0E942B
:101ED000FF0D019779F3F1CFCF93DF93EC010E94CF
:101EE000380FBE010E94E00D0E94FF0DDF91CF91DF
:101EF00008959A3078F5863068F5E82FF0E086E0AE
:101F0000989FE00DF11D11249E2F977083E0F695A8
:101F1000E7958A95E1F7EE0FFF1FEE0FFF1FEA53DB
:101F2000FD4F50E040E080E0219130E0092E02C0FA
:101F3000369527950A94E2F721703327042E01C0C5
:101F4000220F0A94EAF7822B4F5F5F4F443051050E
:101F500059F7089580E008959A3098F5863088F50D
:101F6000E82FF0E086E0989FE00DF11D11248E2F00
:101F7000877041E001C0440F8A95EAF783E0F69547
:101F8000E7958A95E1F7EE0FFF1FEE0FFF1FEA536B
:101F9000FD4F30E020E070E05191DF011197CB015F
:101FA000022E02C0969587950A94E2F7817081957A
:101FB0008527842385278C932F5F3F4F243031055D
:101FC00059F708959C01267033272630310531F4E6
:101FD000886090934403809343030895877FF9CFEB
:101FE00021E030E002C0220F331F8A95E2F72095EE
:101FF00030958091430390914403822393230E9460
:10200000E20F08959091ED02809589238093ED026F
:10201000282F277069F4891759F09091460392FF91
:1020200007C08695869586950E94F00F1092ED0266
:10203000089521E030E002C0220F331F8A95E2F7B5
:102040008091430390914403822B932B0E94E20FD3
:1020500008959093F8028093F7020895FC0124817B
:102060002223C1F0808191810E946C0F92959F7014
:10207000963091F058F4925F9F70923058F4803F00
:1020800019F030F4883E30F481E008959A5FF4CF7F
:10209000843FD1F380E00895883EB0F3813FD1F7CB
:1020A000F3CF662309F45DC08D3C41F40E949D0985
:1020B0008195809376030E94540908958E3C19F40B
:1020C0000E949D09F6CF8F3C31F40E949D098195B5
:1020D00080937503F0CF803D19F40E949D09F8CFDD
:1020E000893D29F40E947B0980937703E4CF8A3DE0
:1020F00021F40E947B098195F7CF8B3D31F40E943A
:102100007B09819580937803D6CF8C3D19F40E948A
:102110007B09F8CF9FE2980F983070F4815D990B9E
:1021200021E030E001C0220F8A95EAF78091740324
:10213000822B80937403BFCF8D3D31F480916E0369
:10214000816080936E03B7CF8E3D21F480916E0342
:102150008260F7CF8F3D09F0AECF80916E0384602F
:10216000F0CF409175038D3C59F48091760387FF41
:102170000DC01092760341110BC010926C0308C081
:102180008E3C81F48091760318169CF3442381F0F1
:102190008091770390917803892B09F08CCF10926E
:1021A0006D0389CF8F3C49F447FFF0CF1092750340
:1021B000809176038111ECCFE0CF803D19F41416A5
:1021C000ACF3E4CF90917703893D29F41916F4F626
:1021D00010927703DBCF8A3D19F497FFD7CFF8CF62
:1021E000909178038B3D29F497FFD0CF109278031C
:1021F000CDCF8C3D19F41916CCF3C8CF9FE2980FC0
:10220000983090F4815D990B21E030E0B90102C073
:10221000660F771F8A95E2F7CB0180959091740342
:10222000892380937403B2CF8D3D31F480916E0386
:102230008E7F80936E03AACF8E3D21F480916E0332
:102240008D7FF7CF8F3D09F0A1CF80916E038B7FFB
:10225000F0CFA6E0B0E0EFE2F1E10C9494304983D6
:102260005A8349815A819923A1F0222391F0CA010E
:102270000E94380F182F682F89819A810E94AC0F15
:1022800069817A81812F0E94E00D2696E3E00C940B
:10229000B030CA010E94790F182FF2CF9C013A95F5
:1022A00021153F4150F5FC01EE27F170BC01662776
:1022B0007270AC01442754709C012227387094FF3F
:1022C0000EC080E1EF2B09F480E0672B09F08062FB
:1022D000452B09F08064232B89F08068089581E004
:1022E000EF2B09F480E0672B09F08260452B09F0A1
:1022F0008460232B19F08860089580E008950F937F
:102300001F93CF93DF938B01EA019091F3049430F4
:1023100061F58093E9008FEF9091E800815095FD81
:1023200006C095ED9A95F1F700008111F5CF8091E7
:10233000E80085FF1AC00E940803811111C0809136
:10234000E80085FD06C08091E8008E778093E80064
:10235000F2CFF80181918F018093F100219779F7F5
:102360008091E8008E778093E800DF91CF911F91F4
:102370000F91089543E050E0BC0182E00E947F117C
:10238000089546E050E0BC0182E00E947F1108956C
:10239000CF93DF93EC0148E050E0BC0181E00E9464
:1023A0007F1188E0FE01A9EEB4E001900D928A95BC
:1023B000E1F7DF91CF9108958091E803882341F1FF
:1023C0006E9A3EB13F7B2EB120644FB7F89489EEF0
:1023D00093E0FC015191CF0168E02EB9000000C0EC
:1023E00057FF3EB9550F000000C000C000C03EB905
:1023F00000C06A9591F7F4E0853B9F0751F74FBF06
:102400008FE594E00197F1F700C000001092E80317
:102410000895B0E0A0E0EFE0F2E10C948D307C0193
:102420005B016A018091300301E010E08A3010F412
:102430000AE010E0C1E0D0E0B501C701F60109955E
:10244000811104C021960C171D072CF4CDB7DEB7FF
:10245000EAE00C94A930CC9F9001CD9F300D300D57
:10246000112490E080E045E34A95F1F700000196E1
:1024700082179307C1F7E0CF80910503811110C047
:102480008091D80080618093D8008AE18A95F1F725
:1024900000C08091D90080FF0AC081E080930503CD
:1024A00081E090910503913009F080E0089582E089
:1024B000809305030E94E9021092F304F1CF0E9479
:1024C0003C12882359F0E091DD04F091DE0430974E
:1024D00029F00190F081E02D0995089580E008959C
:1024E0000F931F930E943C12882329F00E945504E9
:1024F0001F910F9108950E9455040091310310918E
:1025000032032091330330913403600F711F821F17
:10251000931FEECFCF92DF92EF92FF926B017C017F
:102520000E943C128823A1F02FB7F8946091E20436
:102530007091E3048091E4049091E5042FBF6C193D
:102540007D098E099F09FF90EF90DF90CF9008954D
:102550000E947012F4CF0E9470120895E8E6F5E030
:1025600085E380838091500190915101A0915201A7
:1025700081839283A3838FE784838FEF858348E0F1
:1025800050E068E170E0CF010E947A311092670557
:102590000895B0E0A0E0EFECF2E10C948830F82E62
:1025A000809149018F1124C090916805937020910A
:1025B000480130E081E09217130609F480E0817051
:1025C00080934E0180916D0590914D01981739F0DF
:1025D00080934D0140E060E080E00E945A0724E2D1
:1025E0002F1560F0EF2DF0E0ED5EFD4C0C94E43023
:1025F00081E0E5CF80914E01811102C080E074C17D
:1026000040E060E080E00E945A07F8CFC0914C01A2
:102610008EE0C89FC02D11241EE01C0F153408F059
:1026200014E40E94CD09882319F0133208F012E255
:102630000E94CD09811103C0C23208F4C2E2609148
:10264000690570916A0580916B050E94C008062F8C
:10265000E72ED82ED0E0C11720F0812F0E940A0A61
:1026600043C1FE01EB58FD4F808190914D018923BC
:1026700031F02D2D402F6E2DCE010E94570721964F
:10268000EACFC0914C018EE0C89FC02D11241EE0FE
:102690001C0F153408F014E40E94CD09882319F0AA
:1026A000133208F012E20E94CD09811103C0C23238
:1026B00008F4C2E2E0906A0500916B05D0916905CB
:1026C0006D2F7E2D802F0E94C008D62EC72EB82ECB
:1026D00060916C056D0F7E2D802F0E94C008062F23
:1026E000E72EA82ED0E0C11708F0B7CFFE01EB58B7
:1026F000FD4F908180914D01892359F02A2D402F63
:102700006E2D90FD03C02B2D4D2D6C2DCE010E9402
:1027100057072196E8CFC0914C018EE0C89FC02D8D
:1027200011241EE01C0F153408F014E40E94CD099A
:10273000882319F0133208F012E20E94CD098111AA
:1027400003C0C23208F4C2E2E0906A05D0906B0583
:1027500020916C0500E4029F012D1124D0E0C117E7
:1027600008F07BCFFE01EB58FD4F808190914D0129
:102770008923B9F0FE01EE0FFF1FEF54FE4F85AD28
:1027800082958F7060916905809F600D11247E2D68
:102790008D2D0E94C008462F282F672FCE010E9442
:1027A00057072196DCCFC0914C018EE0C89FC02D09
:1027B00011241EE01C0F153408F014E40E94CD090A
:1027C000882319F0133208F012E20E94CD0981111A
:1027D00003C0C23208F4C2E2E0906A05D0906B05F3
:1027E00020916C0500E4029F012D1124D0E0C11757
:1027F00008F033CFFE01EB58FD4F808190914D01E1
:102800008923D9F0FE01EE0FFF1FEF54FE4F64AD98
:10281000069FB0011124E5E075956795EA95E1F70B
:1028200080916905680F7E2D8D2D0E94C008462F6E
:10283000282F672FCE010E9457072196D8CFC0912D
:102840004C018EE0C89FC02D11241EE01C0F1534D2
:1028500008F014E40E94CD09882319F0133208F01F
:1028600012E20E94CD09811103C0C23208F4C2E213
:1028700000916905D0916A05E0906B0560916C0547
:1028800066956695669580913705909138050E940A
:10289000B6080E943F08805887FD8195880F282F31
:1028A0003E2D239F212D1124822F602F7D2F0E94EA
:1028B000C008062FE72ED82ED0E0C11708F0CDCEE5
:1028C000FE01EB58FD4F808190914D01892331F03D
:1028D0002D2D402F6E2DCE010E9457072196EDCF52
:1028E0008EE297E00E94820C90914C019F5F909342
:1028F0004C0181110CC082E080934F0180914E0108
:10290000811105C0F11003C083E080934F01CDB762
:10291000DEB7EFE00C94A43084E097E0E3CF81E2EF
:1029200098E00E94210CE0CF82E098E0FACF87EE99
:1029300097E00E94A90BD8CF8BEC97E0FACF82E00A
:1029400097E0D0CF89EF96E0CDCF80EF96E0CACF69
:1029500087ED96E0C7CF89EC96E0EBCF8EE898E064
:10296000E0CF8AEB97E0DDCF86EA97E0E2CF8CE913
:1029700096E00E94480BB8CF8EE696E0FACF87E348
:1029800096E0F7CFE0904C018EE0E89EE02C112419
:102990000EE00E0D053408F004E40E94CD098823F2
:1029A00019F0033208F002E20E94CD09811105C03E
:1029B00082E2E81610F442E2E42E80914E01882370
:1029C00061F040E060E080E00E945A07EEE7F3E04B
:1029D0008CE3DF011D928A95E9F780914C0181110A
:1029E00015C080917A0390917B030E94460421E0F8
:1029F0008931910508F420E020937903499730F05C
:102A00000E94610490937B0380937A03A12C912C04
:102A1000B12C96E0792E25E5622E3AEA832E5524D4
:102A2000539405C09DE0991508F453C0B12C2B2D8B
:102A300030E07A9CE0011124FE01EF54FE4FE20FDA
:102A4000F31FC080CE1408F43CC0C01608F039C093
:102A50009394D12CF601EB58FD4F808190914D015C
:102A6000892309F42EC0C258DC4FC20FD31F18812E
:102A7000312F262D321B08F430E070916A05282D85
:102A8000210F08F42FEF40916B05822F880F820FE2
:102A90008E5F282F249F212D1124822F682D631BE8
:102AA0000E94C008462F282F672FC6010E94570793
:102AB00080917903882329F0352D131B08F410E049
:102AC0001883B39446E0B412B2CFA3948AE0A8125C
:102AD000A9CF802FC3CDE0906B05A3E0EA9EE00173
:102AE0001124D695C795D695C7955C2EAE2CB12CE2
:102AF0008FEF90E0B5010E94D030762E80914E018C
:102B0000882371F040E060E080E00E945A07EEE721
:102B1000F3E08CE3DF011D928A95E9F710927D03C3
:102B200080917C038F5F80937C0310E000E0AC1AFF
:102B3000BD0A6801612CC80182589C4F4C018091EC
:102B40007D03862909F040C00E94363185359540C5
:102B5000DCF5F401E082F601EF54FE4FE081EF3F37
:102B6000C9F0D601A258BC4F2C91F0E05216E0F506
:102B700030E02C1B3D0B2C9FC0012D9F900D3C9FE6
:102B8000900D1124B5010E94BC30262F4E2DCF018F
:102B90000E9457076394F6E0CF0ED11C2AE0621220
:102BA000CECF0F5F1F4F0630110519F680917C03C1
:102BB000781202C010927C0380917D038F5F8D316B
:102BC000E8F480937D031ACDF601E258FC4F808132
:102BD000882309F28E1508F0BECF90917C037912FC
:102BE000BACF81508083B7CFE29EC0011124BE01CD
:102BF0000E94BC30462F20E060E0C9CF10927D03D8
:102C00002EEA33E089E09FEF9E0DAEE7B3E0F901D5
:102C1000893041F4D6964C91D697E41203C0D696EB
:102C20009C93D69740814E1510F09083E6821196C2
:102C3000319643E0A438B40759F781502650310942
:102C40008111E3CFDBCC80E396E00E94CD0A4CCE2D
:102C50008AE296E0FACF80913B0521E0382F321BC3
:102C600008F430E0832F61E176E00E941A0A3CCE3E
:102C700061E176E080E0F9CF80913B0521E0482FCB
:102C8000421B08F440E0842F66ED75E0EECF66ED60
:102C900075E0F0CF80913B0521E0382F321B08F41E
:102CA00030E0832F64EA75E0E0CF64EA75E0E2CFBC
:102CB00080913B0521E0482F421B08F440E0842F1F
:102CC0006CE875E0D2CF6CE875E0D4CF80913B051D
:102CD00021E0382F321B08F430E0832F66E775E0DF
:102CE000C4CF66E775E0C6CF4F925F926F927F9236
:102CF0008F929F92AF92BF92CF92DF92EF92FF920C
:102D0000CF936091E3037091E4038091E503909188
:102D1000E6030E948A126B017C010E9470124B0133
:102D20005C018092E3039092E403A092E503B092E9
:102D3000E603A091BA03EAEBF3E08A2F90E04FEFAD
:102D40005FEF60E070E04C195D096E097F09A9131F
:102D50002AC08093BA038091E703C0E0811108C0C4
:102D600080916805C82FC37019F0C82FC695C69505
:102D700080914F01813009F440C0882339F18230BD
:102D800009F445C0833009F446C0CF91FF90EF901D
:102D9000DF90CF90BF90AF909F908F907F906F907B
:102DA0005F904F900895218D328D2901712C612CF7
:102DB000441555056605770520F481509F5F3296CE
:102DC000C6CF2C0D3D1D328F218FF8CF10924C01B4
:102DD0008092370590923805A0923905B0923A0555
:102DE00089E2EAEBF3E0ABE3B5E001900D928A955E
:102DF000E1F781E080934F01C8CF8C2F0E94C91268
:102E0000CC2319F20E94CD090E94CD09BECF8C2F90
:102E10000E946905BACF80916705882351F048E088
:102E200050E068E170E088E695E00E947A31109207
:102E3000670560913705709138058091390590914B
:102E40003A050E948A12603171058105910508F4E6
:102E50009CCF10924F0199CFAFE0B0E0E2E3F7E1F1
:102E60000C948A308E010F5F1F4F8AE0D8011D92AB
:102E70008A95E9F78AE3C82E81E0D82EF12CE12C5F
:102E8000AA24A394B12C2AE3822E21E0922EF601EB
:102E900081916F018F3F09F442C0F894E82FE295C9
:102EA000EF70F0E021A18F70A50102C0440F551F03
:102EB0008A95E2F7CA01922F982B91A392A180954F
:102EC000892382A3789400C0E4E3F1E0712C31E01F
:102ED00021912F3F09F46BC0A22FA295AF70B0E0F3
:102EE00090968C9190E02F7002C0959587952A95C9
:102EF000E2F780FD5CC0832F782A330F8E169F0681
:102F000039F7F601319780818F3F11F00E94D80C7C
:102F100050EA5A95F1F7F801EE0DFF1D70828FEF20
:102F2000E81AF80A95E0E916F10409F0B0CF4AE092
:102F300050E0B80187E393E00E944631009741F0EA
:102F40002AE0F801A7E3B3E001900D922A95E1F79A
:102F500000914203892B69F181E08093FD020E9478
:102F600061049093FC028093FB028091FB0290919C
:102F7000FC020E944604059700F110E0095B1C4F1B
:102F800045E050E067E373E0C8010E944631D12C70
:102F9000892B51F085E0E7E3F3E0D80101900D9231
:102FA0008A95E1F7DD24D3941092FD0207C080E0FA
:102FB000A3CF8091FD028111D8CFD12C0E943C1269
:102FC000C82EE0914203DE011B967D01882309F49F
:102FD0007AC085E01D928A95E9F70E2F10E0095B13
:102FE0001C4F809130038A30D8F541E150E2B7019F
:102FF000C8010E940912882309F454C048EB5FE11C
:10300000B701C8010E940912882309F44BC04DEB97
:103010005EE1B701C8010E940912882309F442C089
:103020004BE55EE1B701C8010E9409128823D1F186
:10303000109230038091410390E045E050E0B701E9
:10304000895B9C4F0E94463121E020930403892B29
:10305000E1F4C12C8C2D8D292F96EDE00C94A63037
:103060008091FE029091FF020E944604843F9140AD
:1030700008F0BBCF80910403882359F385E0F70162
:1030800011928A95E9F710920403A0914103B0E0F0
:10309000A95BBC4F85E0FE013B9601900D928A959D
:1030A000E1F7D8CF809130038F3F31F08F5F80936D
:1030B00030038A3008F4BECF0E9461049093FF026F
:1030C0008093FE02D7CFF0E0E95BFC4F85E0A8E1FA
:1030D000B3E001900D928A95E1F765E070E088E138
:1030E00093E00E94D104809317034091680350E05D
:1030F0006091670370E06D597C4FC7010E945331A6
:103100008B8580931E0361E070E0C7010E94D104AB
:1031100080931D0380901F0390902003A0902103B3
:10312000B09022038091000390910103A0910203CB
:10313000B091030388169906AA06BB06D1F08092C7
:10314000000390920103A0920203B09203030E9435
:103150003C1281110EC00E945504861A970AA80AD3
:10316000B90A8092310390923203A0923303B09255
:10317000340388E0E3E2F3E0A8E6B5E001900D92C5
:103180008A95E1F710912B03112349F08091E70311
:10319000811105C00E94C91280E00E946905109348
:1031A000E70358CF8091B5049091B604892B8093A2
:1031B000BC029091F602992391F0892B8093BC0276
:1031C00020E08EEB92E0FC013191CF0131112F5FB5
:1031D000F2E0843C9F07B9F721111092F60248E013
:1031E00050E06EEE72E08CEB92E00E944631892B4B
:1031F000A9F088E0ECEBF2E0AEEEB2E001900D92C7
:103200008A95E1F7E091DD04F091DE04309731F02A
:103210000280F381E02D8CEB92E009950895809176
:103220004A01877F80934A019091B6049D7F9093D5
:10323000B60484FF08C08F7E80934A018091B50454
:1032400082608093B50480914A0185FF08C08F7D1C
:1032500080934A018091B50480628093B5040E94F6
:10326000D2180895CF931092B504C6E0EEEBF2E0C9
:10327000DF018C2F1D928A95E9F790E080E00E9493
:10328000AC0490E080E00E9487041092B6040E9493
:10329000D218E3E7F3E0DF011D92CA95E9F7109237
:1032A0006C0310926D0310926E030E945409CF912B
:1032B0000895AAE2B0E0EFE5F9E10C94943085EFCF
:1032C00094E02091F100FC012193CF01F4E08D3FC7
:1032D0009F07B9F78091F604833009F470C0B8F401
:1032E000813009F447C0823009F4B1C08091E80010
:1032F00083FF7EC28091F5049091F6049A3008F025
:1033000077C2E92FF0E0E85CFD4C0C94E4308A30A1
:1033100009F48CC08B3009F46FC0893039F7809183
:10332000F504813219F78091F9049091FA0402971B
:10333000E8F68091E800877F8093E8008091E800BC
:1033400082FF38C09091F3008091F200029731F42F
:103350008091F100813011F0863021F48091F100EC
:103360008093E8048091E8008B778093E8000E94C6
:103370003903BCCF8091F504813A09F0B7CF809131
:10338000E800877F8093E8008091F9049091FA0427
:10339000892B61F468E089EE94E070E00E94E50317
:1033A0008091E8008B778093E800A0CF60E090E008
:1033B00080E0F3CF8091F3048111C0CF97CF80914B
:1033C000F504813A09F092CF8091F9049091FA04C2
:1033D000892B09F08BCF8091E800877F8093E800EC
:1033E0008091E80080FFFCCF80914B018093F10039
:1033F0008091E8008E77B9CF8091F504813209F091
:1034000075CF8091F9049091FA04892B09F06ECF61
:103410008091E800877F8093E8000E9439038091C3
:10342000F70480934B010E94321960CF8091F5041C
:10343000813209F05BCF8091E800877F8093E800BC
:103440000E9439038091F8048093E7044FCF809164
:10345000F504813A09F04ACF8091E800877F809394
:10346000E8008091E80080FFFCCF8091E704BECFA8
:10347000803899F0823809F0BBC18091F9048F70CF
:10348000873008F0B5C18093E9008091EB0085FB9F
:10349000882780F91092E90006C08091F10490918C
:1034A000F204911182609091E800977F9093E80078
:1034B0008093F1001092F1008091E8008E7794C122
:1034C000882309F482C1823009F092C18091F70407
:1034D000811185C18091F9048F702FEF280F26305C
:1034E00008F086C18093E9002091EB0020FF77C1AE
:1034F000933031F48091EB0080628093EB006FC1D8
:103500009091EB0090619093EB0021E030E001C0DE
:10351000220F8A95EAF72093EA001092EA00809140
:10352000EB008860EACF811163C11091F7041F7727
:103530008091E3008078812B8093E3008091E80004
:10354000877F8093E8000E9439038091E80080FF24
:10355000FCCF8091E30080688093E30082E011114A
:1035600083E08093F30444C18058823008F040C166
:103570008091F7049091F8048C3D23E09207A1F527
:1035800083E08A838AE289834FB7F894DE01139639
:1035900020E03EE051E2E32FF0E050935700E49149
:1035A00020FF03C0E295EF703F5FEF708E2F90E039
:1035B000EA30C0F0C7968D939D932F5F243159F761
:1035C0004FBF8091E800877F8093E8006AE270E057
:1035D000CE0101960E94E5038091E8008B778093ED
:1035E000E80006C1C096E7CF4091F9045091FA0473
:1035F000292F33272330310509F444C078F52130D1
:10360000310509F46FC08BE390E0EBE4F4E0223085
:10361000310509F0EDC02091E800277F2093E800F4
:103620002091FB043091FC048217930708F49C015D
:1036300040E02115310509F064C0411162C080915C
:10364000E80082FDC9CF8091F304882329F28530F8
:1036500019F28091E80083FFF2CFBECF213231050D
:10366000A9F12232310509F0C3C04115510509F411
:1036700043C04130510509F0BBC08BE790E0ECE856
:10368000F3E0C9CF992781309105C1F0009759F037
:10369000029709F0ADC0E8E9F4E0E4918E2F90E0E4
:1036A000E8E9F4E007C0E4ECF4E0E4918E2F90E068
:1036B000E4ECF4E0009709F49BC0ADCFE4EBF4E058
:1036C000E4918E2F90E0E4EBF4E0F4CF4115510546
:1036D00071F04130510509F08BC089E090E0E6E7D8
:1036E000F4E099CF82E190E0E6E8F4E094CF89E05D
:1036F00090E0EDE5F4E08FCF84E490E0E7E0F4E0E3
:103700008ACF8091F304882309F466CF853009F4C9
:1037100063CF8091E80083FD5FCF8091E80082FD58
:103720008ECF8091E80080FF84CF9091F30080914C
:10373000F2002115310519F08830910550F041E073
:10374000089709F040E08091E8008E778093E800C8
:1037500070CF44914093F100319621503109019688
:10376000E8CF803809F044C08091E800877F8093DB
:10377000E8008091F4048093F1009ECE811138C05E
:103780001091F7041230A0F58091E800877F8093B4
:10379000E8001093F4040E943903112311F084E02F
:1037A00005C08091E30087FDFACF81E08093F304A8
:1037B00042E061EC81E00E94580342E261EC82E069
:1037C0000E9458038091F30413C08091F704813064
:1037D00079F481E0933009F080E08093F204109254
:1037E000E9008091E800877F8093E8000E94390318
:1037F0008091E80083FF0AC08091E800877F809372
:10380000E8008091EB0080628093EB00AA96E3E0F1
:103810000C94B0300E9432192FEF84E39CE02150C9
:1038200080409040E1F700C0000088E19CE00FB6C6
:10383000F894A895809360000FBE90936000FFCF2E
:10384000882341F080959091B60489238093B60433
:103850000E94D2180895882339F09091B604982BCD
:103860009093B6040E94D2180895882321F00E94F4
:10387000270F0E94D2180895882339F09091B5043B
:10388000982B9093B5040E94D21808958823D1F103
:103890009CEF980F913A78F4EEEBF2E09191891356
:1038A00003C0DF0111971C9292E0E43CF907B1F7E5
:1038B0000E94D218089590E2980F983050F48770C3
:1038C00091E001C0990F8A95EAF7892F0E94270F8E
:1038D000EFCF9BE5980F933028F490E080E00E94B2
:1038E000AC04089598E5980F9B3128F490E080E0AF
:1038F0000E948704089593E3980F933118F460E0D1
:103900000E9451100895CF93DF93EC010E94461C52
:10391000CE010E944E119E01205E310928303105F2
:1039200010F0CD2B29F40E94351CDF91CF91089522
:103930000E94201CFACFCF93C82F8823B1F08CEFC0
:103940008C0F813A00F5EEEBF2E084EC92E0DF01BF
:103950002D91C21761F08A179B07D1F76C2F8CEB62
:1039600092E00E946D040E94D218CF910895219197
:10397000C21303C0DF0111971C928E179F07B9F77E
:103980000E94D218EBCF80E28C0F883068F4C770A9
:1039900021E030E001C0220FCA95EAF78091B5041A
:1039A000822B8093B504DFCFEBE5EC0FE33040F4DE
:1039B000F0E0E25AFE4F808190E00E94AC04D5CF47
:1039C000E8E5EC0FEB3150F4F0E0EE0FFF1FEF599C
:1039D000FE4F808191810E948704C7CF83E38C0FC3
:1039E000833118F661E08C2F0E945110BECF1F93D7
:1039F000CF93DF93182FEB010E949B1C209739F483
:103A0000812F0E94461CDF91CF911F9108958FE96D
:103A10009FE00197F1F700C000002197EFCF70E021
:103A200060E0893311F460E570E00E94F71C0895AE
:103A30000F931F93CF93DF93C62FD42F022FFC0138
:103A400085818823A9F0609366050E9461049093A4
:103A5000650580936405C77081E001C0880FCA9531
:103A6000EAF70E943C1CDF91CF911F910F910895BE
:103A700080916605681332C0809164059091650558
:103A80000E9446048F3A910548F510E21D0FCD17AC
:103A9000B9F080E28C0F883040F4C77081E001C03B
:103AA000880FCA95EAF70E94351C183048F481E067
:103AB0009D2F977001C0880F9A95EAF70E943C1CD1
:103AC000802F0E940F1D183070F6D77081E001C062
:103AD000880FDA95EAF70E94351CC5CFC77081E0E0
:103AE00001C0880FCA95EAF7F6CF80914303909101
:103AF0004403009711F080FF0DC0662339F065E0A4
:103B000070E089EA0E94F71C80E0089565E070E0AB
:103B10008AEAF8CF81FF07C08BEA611101C08CEA05
:103B20000E940F1DF1CF83FFEFCF8AED6111F8CF17
:103B300089EDF6CFCF93DF93EC010E944E119E01E9
:103B4000205E31092830310510F0209741F40E94A1
:103B50003C1C8C2F0E949B1CDF91CF9108950E94EA
:103B60002B1CF7CFB0E0A0E0E8EBFDE10C94903027
:103B70008C01EB0180914A0182FF82C0E090D90460
:103B8000F090DA04E016F10621F00115110509F0B4
:103B900077C080914A018B7F80934A0181FD69C083
:103BA0008091D7049091D8049E01281B390B81E0A5
:103BB0002639310508F480E08170D82E80914A01C1
:103BC000D0FA81F980934A0187011127F80184E036
:103BD000F695E7958A95E1F7EE0FFF1FE954FB4F45
:103BE00020813181A7014F70552781E090E002C00C
:103BF000880F991F4A95E2F7DD20E9F1822B932B7C
:103C0000918380838091B50481FF08C080914A012F
:103C1000806180934A0182E00E94270F8091B50461
:103C200085FF08C080914A01806280934A0180E24A
:103C30000E94270FDD2029F08091B60482608093D6
:103C4000B604C70190528115904308F47801C7016A
:103C50000E949A1D8091D9049091DA049C013052FF
:103C60002115304308F499270E94831C0E940F19E4
:103C700017C081E0A1CF8095909582239323C0CF78
:103C8000C801905281159043A0F4C80199270E9461
:103C9000831C8091D9049091DA040817190731F335
:103CA000D093D804C093D704CDB7DEB7E7E00C9427
:103CB000AC30C801ECCFA9E0B0E0E1E6FEE10C9445
:103CC000933088E0E8E6F5E0DE01119601900D9270
:103CD0008A95E1F78091E703898749E050E063E244
:103CE00073E0CE0101960E94463100912C031091A1
:103CF0002D0320912E0330912F03EFB7F8944091BC
:103D0000E2045091E3046091E4047091E504EFBF94
:103D1000401B510B620B730B443651056105710555
:103D200018F411E0892B21F180912D0190912E0141
:103D3000895E9C4F40912C0150E04A30510510F0B3
:103D400049E050E0BE016F5F7F4F0E94533185E034
:103D500090E00E940F30182F882351F00E945504E4
:103D600060932C0370932D0380932E0390932F0365
:103D7000812F2996E4E00C94AF30A4E0B0E0E3ECAE
:103D8000FEE10C9494304091130350911403609120
:103D90001503709116032FB7F8948091E204909167
:103DA000E304A091E404B091E5042FBF841B950BBC
:103DB000A60BB70B11E084369105A105B10570F192
:103DC0000E9470126E5F7F4F8F4F9F4F69837A837F
:103DD0008B839C838091250190912601895E9C4F65
:103DE0004091240150E04530510510F044E050E08E
:103DF000BE016F5F7F4F0E94533184E090E00E94CC
:103E00000F30182F882351F00E945504609313033C
:103E1000709314038093150390931603812F2496B7
:103E2000E3E00C94B0304F925F927F928F929F921A
:103E3000AF92BF92CF92DF92EF92FF920F931F93B8
:103E4000CF93DF930F92CDB7DEB7C62E4A0159014B
:103E5000482E880F5508C2010E940F30782E882303
:103E600009F480C0C20133E0880F991F3A95E1F749
:103E7000FC01EC5FFE4F438150E04115510511F00C
:103E800041E050E08C5F9E4FFC0164817581695E6A
:103E90007C4FCE0101960E945331F4014081518143
:103EA000628173812FB7F8948091E2049091E304CA
:103EB000A091E404B091E5042FBF841B950BA60BE1
:103EC000B70B84369105A105B10540F4B701C801CF
:103ED0000E94D1049981891709F444C00C2C000C6C
:103EE000DD08C6010E940F30782E811113C0712C9D
:103EF000872D0F90DF91CF911F910F91FF90EF9041
:103F0000DF90CF90BF90AF909F908F907F905F9009
:103F10004F900895C60123E0880F991F2A95E1F775
:103F2000FC01EC5FFE4F438150E0E416F50608F417
:103F3000A7018C5F9E4FFC0164817581695E7C4F97
:103F4000C5010E945331B701C8010E94D104998173
:103F50008913CDCF0E945504F4016083718382835D
:103F60009383C6CFA701B801C5010E945331C0CFCA
:103F7000A1E0B0E0EEEBFFE10C948E30EE24E39490
:103F8000F12C0EE113E09E012F5F3F4F4FE053E015
:103F900063E082E00E94131FC82E882339F100E0FD
:103FA00080E01DC0D0903603D00E2D2D30E0A90149
:103FB0004D595C4F7A01E1E0F0E0EC0FFD1FE00F9E
:103FC000F11D1081FA019081191BB12E1B149CF078
:103FD000912F17FD90E0191B111118C00F5F9091E0
:103FE00035030917F8F281110E94AB128C2D21962E
:103FF000E9E00C94AA30BA94F70180818F5F808346
:1040000060E08D2D0E94751D8C2DE0CF1F5FF701A4
:1040100080818150808361E08D2D0E94751D8C2DE3
:10402000DBCFA5E0B0E0E7E1F0E20C948F306B016C
:1040300085E0E82EF12C08E113E09E012F5F3F4F51
:104040004BE053E061E080E00E94131F882349F0B9
:1040500095E0FE013196A6E0B3E001900D929A95AD
:10406000E1F795E0E6E0F3E0D60101900D929A9534
:10407000E1F72596E8E00C94AB30A8E0B0E0E3E48B
:10408000F0E20C94953066EE7EEF90E080E00E94C6
:10409000A83160E082E090E00E948A3160E083E035
:1040A00090E00E948A311092F8021092F70260E0CC
:1040B00074E184E090E00E94A83160E086E090E046
:1040C0000E948A316FEF87E090E00E948A3140E0E1
:1040D00050E0BA0188E090E00E949C3160E084E208
:1040E00090E00E948A3160E087E190E00E948A318E
:1040F00060E08CE090E00E948A3160E08DE090E02A
:104100000E948A3119821A821B821C821D821E82A1
:104110001F82188648E050E068E170E0CE01019609
:104120000E947A3140E050E0BA0180E290E00E94C3
:104130009C3140E050E0BA018FE090E00E949C3159
:1041400040E050E0BA0183E190E00E949C31289663
:10415000E2E00C94B1309091460392FB222720F9C3
:10416000281779F080FB92F99093460360914503FC
:104170007091460384E090E00E94A83182E00E94A2
:1041800002100895B0E0A0E0E8ECF0E20C948D306D
:104190008C01FC018481882309F4EFC021E0408177
:1041A00051816281738195810E942911EC010E94E5
:1041B00061047C01F8018581882309F455C0809150
:1041C0004A0182FF07C04CE553E0B70190E080E070
:1041D0000E94B21DC431FCE7DF0709F441C0C531BC
:1041E0002CE7D20791F1C3313CE7D30729F4809142
:1041F0004A01816080934A01CE019052811590431B
:1042000008F040C01092DA041092D904F8018581B8
:10421000882309F4D7C410926605CE01905783977E
:1042200008F0BAC484E090E00E9474319093460391
:1042300080934503FE01E150F047E232F10508F0BA
:10424000E4C0EE5BFD4C0C94E43090914A01892F60
:104250008E7F90FF816080934A010E940F19CCCF1E
:1042600080914A018E7FF7CF80914A018F7EC13EB7
:10427000D10531F0C53ED105E1F480914A018F7D31
:1042800080934A0180914A0180FF18C0F80185811E
:10429000CB32D10539F1E8F49E012E5131092A3093
:1042A000310500F1882351F01092DA041092D904FC
:1042B00005C0CE0190528115904320F7FE01E851D0
:1042C000FC47E730F10508F0A1CFEC59FD4C0C9408
:1042D000E430CD32D10530F3C933D10518F0C436FE
:1042E000D10501F7811106C0A801B701CE010E94D6
:1042F000B21D34C08091F6029091B504982B292FFD
:104300002D7F09F43FC01092DA041092D904FE0107
:1043100044E0F695E7954A95E1F7EE0FFF1FE95463
:10432000FB4F9E012F70332781E090E002C0880F81
:10433000991F2A95E2F780959095208131818223FB
:10434000932391838083CE010E949A1D8091F6026F
:104350008D7F0E941D0F82E00E9402108091ED026D
:10436000877059F0F8018581882339F080914603E0
:1043700082FF03C082E00E940210CDB7DEB7EAE000
:104380000C94A93027E0F801ACE5B3E001900D9260
:104390002A95E1F71092610310925F0310925E0379
:1043A00020914A0191FB21F920934A018D7F0E94BF
:1043B0001D0FD093DA04C093D904F092D804E09290
:1043C000D70480914A01846080934A01C4CF26E2D9
:1043D00041EE61EEC8010E94181DC0CF27E245EEF4
:1043E00065EEF8CF26E241EE60EEF4CF27E245EE2F
:1043F00064EEF0CF26E241EE62EEECCF27E245EE2E
:1044000066EEE8CF28E241E0EBCF80914503816082
:104410008093450395C0809146038860809346034E
:104420008FC0809145038260F3CF80914503846003
:10443000EFCF809145038860EBCF80914603816088
:10444000EDCF809146038260E9CF80914503806182
:10445000DFCF809145038062DBCF8091450380648C
:10446000D7CF0E943219809145038068D1CF8091C7
:1044700045038C60CDCF809146038360CFCF809180
:1044800045038E7FC5CF80914603877FC7CF80913C
:1044900045038D7FBDCF809145038B7FB9CF809140
:1044A0004503877FB5CF809146038E7FB7CF80913C
:1044B00046038D7FB3CF809145038F7EA9CF809136
:1044C00045038F7DA5CF809145038F7BA1CF0E94AF
:1044D0003219809145038F779BCF80914503837F6D
:1044E00097CF809146038C7F99CF8091450382FBC3
:1044F000992790F921E0922790FB82F990FB83F9AC
:1045000087CF80914603982F909591708E7F892B4D
:1045100090FB81F983CF90914503892F8F7B96FF84
:10452000806476CF0E94321990914503892F97FBC2
:1045300087F980586DCF61E08EE090E00E948A316B
:10454000609145037091460384E090E00E94A83199
:104550000E94321903CF60E0EFCF90914503892F7D
:104560008F7E94FF806154CF90914503892F8E7F79
:1045700090FF81604DCF90914603892F877F93FFF5
:1045800088604CCF8091C40281110FC089E2EEEBAC
:10459000F2E024EC32E09191891303C0DF0111971E
:1045A0001C922E173F07B9F70AC385E3F0CF80911D
:1045B000680591E089278093680510924F018091EA
:1045C0006705816080936705C9CE44E555E06EE5D7
:1045D00075E00E94E704C2CE4EE555E064E575E063
:1045E000F8CF40E455E06AE475E0F3CF4AE455E0E3
:1045F00060E475E0EECF46E255E063E375E0E9CFB5
:1046000043E355E066E275E0E4CF4CE055E069E154
:1046100075E0DFCF49E155E06CE075E0DACF40EFBF
:1046200054E06EEF74E0D5CF4EEF54E060EF74E0ED
:10463000D0CF81E00E949E0291CE85E0FBCF8DE03D
:10464000F9CF82E1F7CF0E943219FFEF24E33CE07B
:10465000F15020403040E1F700C0000081E080933D
:10466000E00080E28093D8001092C9008FE19EE4C0
:104670000197F1F700C0000087E090EBDC01809328
:10468000700590937105A0937205B093730588E14E
:104690009CE00FB6F894A895809360000FBE9093AD
:1046A0006000FFCF6FEF7FEF90E080E00E94A831C5
:1046B0000E940A1C8091460382FB882780F991E0C2
:1046C00089270E94AB20F8018581C081D181882390
:1046D00009F44AC0CE010E94380FF82E682FCE018F
:1046E0000E94AC0FBE018F2D0E94E00D0E94FF0DB5
:1046F000D82FC92FA82EF801C580B680B2943FE00C
:10470000B3228091ED028770F1F0EC2CCC20E1F027
:10471000892F807F803451F080E28D0F883098F0AF
:10472000B11004C0892F807E803269F080914603E9
:1047300082FF09C082E00E9402108091ED02877022
:10474000EE24E3948111E12CDC2ED2942FE0D222CE
:10475000FBE0FD1508F46DC0ED2DF0E0E559FD4CD2
:104760000C94E43080E0ADCFCE010E94790FF82E9A
:10477000B9CF2C2F2F70F22EC07F19F0F29490EF4A
:10478000F922CC20B9F0FF2069F080E28D0F88304B
:1047900010F0A11009C08091B504F82AF092B50478
:1047A0000E94D2188D2F43C08091B604F82AF0924F
:1047B000B604F6CF8D2F0E94461CFF20D1F1D05EAB
:1047C000D83010F0A11004C08F2D0E94270F06C012
:1047D000F0948091B604F822F092B6040E94D218A8
:1047E00028C03C2F3F70F32EC07FC03219F0F294E6
:1047F00080EFF822AA2059F081E0A81609F479C0C8
:10480000CC2009F485C0BB2009F447C0CBCF8091F0
:10481000460382FD3EC0CC20B1F1FF2039F08091EB
:10482000B504F82AF092B5040E94D21880E00E94E4
:104830009B1C2D2D2850330B2430310510F40E9481
:104840005F12EE20A9F08091ED0280FD11C0F80109
:1048500015828695869586950E941910C8010E943A
:10486000C2208091ED028695869586950E94F00F74
:1048700020E0F801408151816281738184819581BA
:104880000E9429117ACD80E00E94461CFF2089F207
:104890009BCFCC20A1F0B11004C08F2D0E943C1CF6
:1048A000C8CF91E0B912C5CF8091F6029F2D982311
:1048B000F91609F4BECFF82AF092F602BACFB11079
:1048C000B8CF8F2D0E94351C9091F6028F2D892331
:1048D00029F08F2D809589238093F6028091C5025F
:1048E0009F2D982309F4A5CFF094F822F092C502E9
:1048F000A0CFCC2029F0E5E0EB1508F49ACFCDCF7E
:10490000F4E0FB1508F495CF8F2D0E94351C91CF54
:10491000BB20D1F329E3A21209C03FEF87EE93E059
:10492000315080409040E1F700C000008D2F0E9480
:10493000461C7FCF8C2F86958695837069F08130D9
:1049400009F077CF8D2F9C2F9370C11002C080E0AB
:1049500090E00E9487046DCF8D2F9C2F9370C11023
:1049600002C080E090E00E94AC0463CF6C2D8D2FDC
:104970000E9451105ECF8C2F837009F03FC0C11090
:1049800058CF4D2F429546954770440F440F2D2F19
:104990002F7030E0042E02C0220F331F0A94E2F77A
:1049A00090E080E0D4FF09C08FE090E002C0880F63
:1049B000991F4A95E2F780959095C695C695C37064
:1049C000C23099F078F44091F7025091F802C1306A
:1049D00039F0822B932B842395230E94291029CF11
:1049E000242B352B822B932BF8CF822B932B2091CA
:1049F000F7023091F80282279327EFCF8695CC20DB
:104A000011F08C2F8170882309F413CF4D2F42951C
:104A100046954770440F440F2D2F2F7030E0042E21
:104A200002C0220F331F0A94E2F790E080E0D4FF27
:104A300009C08FE090E002C0880F991F4A95E2F705
:104A400080959095C695C695C370C23099F078F45C
:104A50004091430350914403C13039F0822B932B92
:104A6000842395230E94E20FE4CE242B352B822B46
:104A7000932BF8CF822B932B209143033091440347
:104A800082279327EFCFCF70CC2029F08C2F0E9464
:104A900019108D2F03CF8D2F0E94351C8C2F0E9453
:104AA000F00FC7CE8D2FE2EFAE1699F1EA1570F038
:104AB000F0EFAF16D1F021EFA21691F0CC2009F45F
:104AC0005BC0B1106FCE8C2F8F7127C033EFA31650
:104AD00039F194EFA912F2CF8091460382FD2EC0E6
:104AE0008C2F8F71CC20D9F218C0CC2069F0E4E073
:104AF000EB1508F49ECECF7181E090E002C0880FE4
:104B0000991FCA95E2F7B8CFF5E0FB1508F491CEEE
:104B1000F2CF8C2F8F71C110C2CF0E94191089CE95
:104B200090E080E0CC2009F49DCFCF7181E090E04F
:104B300002C0880F991FCA95E2F794CFCC2089F064
:104B4000CF718C2F0E9419108091460382FF07C0FD
:104B500028E0C29FC001112483608093ED028C2F56
:104B6000DCCF81E00E94021031E03B1508F061CEFD
:104B700082E00E9402105DCEBB2059F0893309F01B
:104B8000D5CE8FEF97EEE3E081509040E040E1F723
:104B9000CBCE8C2F8F7183CFC631FCE7DF0729F591
:104BA0008091B5048A7A91E009F490E09093C40270
:104BB00069E2811165E38CEB92E00E946D040E9432
:104BC000D218CCCBC6312CE7D20709F4DBCC8091CC
:104BD000B5048272FE01E052F847E531F10508F0B4
:104BE00072CDE958FD4C0C94E430C3303CE7D30758
:104BF00009F458CD50F4C1159CE7D90709F423CD29
:104C0000C130DC4709F454CD5ECDCB35FCE7DF077E
:104C100009F4A8CDCC352CE7D20709F44BCDCA3521
:104C2000DC4709F050CD81E04CCDCF93DF938091EC
:104C3000EC02807F09F04DC08091EB02882309F4DB
:104C400048C0E09136055091FD04C091E702D09133
:104C5000E6026091E8027091E90247E05E17C9F14F
:104C60008E2F90E0E49FF0011124E250FB4F24814D
:104C7000222391F1489FF001499FF00D1124DF019B
:104C8000A250BB4F11962C9111972C1325C02C913B
:104C90002D1322C015962C91159721111DC0129627
:104CA0002D913C91261B370B2F3A3105A8F48091AA
:104CB000EC028F7080618093EC02EC5FFA4F808190
:104CC0008F708061808386EE92E00E94C2200E94F5
:104CD0002E0FDF91CF910895FC013196E770BECF82
:104CE000A4E1B0E0E6E7F6E20C948B308C0186E0BC
:104CF000F801DE011F9601900D928A95E1F7F80107
:104D00008481E58096EEA92E92E0B92E9091EA0278
:104D1000911128C0882319F1EE20F1F0C8010E94FA
:104D20002E10F82E8823C1F087E0F801D5010190FC
:104D30000D928A95E1F78091EA02813031F48091F9
:104D4000E6029091E7020E946C0F0E9415268F2DBB
:104D50006496ECE00C94A730C8010E94C220FF24A6
:104D6000F394F5CFD080C18082809380F090EB02E5
:104D70002091E8023091E902A401421B530BFF206D
:104D800009F4D9C04F3A510508F092C08823F9F2CE
:104D90009091E7028091EC02282F207F09F056C005
:104DA000C91214C09091E602D91210C0E11048C097
:104DB0008F7080618093EC0286EE92E00E94C220A8
:104DC0008091EC02F8018683F12CC1CFE11038C04C
:104DD0006C2D8D2D0E94B7026C2D8D2D0E94B70277
:104DE000E82E8111F1CFDF86C88A8F8598890E94CD
:104DF0006C0F292F22952F70243058F49F70223089
:104E000088F0992399F0F8019681907F79F4FE2C2F
:104E10009ECF2A5F2F70223068F0C8010E94C22006
:104E2000EF2CF5CF992311F0882389F3805E883029
:104E300070F3F3CF803F58F3815F833070F7E7CF93
:104E40008091EC0281608093EC02BECFC91207C052
:104E50009091E602D91203C0EE2009F48DC0C8017A
:104E60000E942E10882309F477CFEE2009F474CF26
:104E70008091EC02803288F02091E6023091E702C6
:104E8000398728879B868A869091EA029C871D86AF
:104E90008E87CE0108960E94C22087E0F801A6EE18
:104EA000B2E001900D928A95E1F70E94152657CF46
:104EB0009091EC02292F207F51F486EE92E00E941F
:104EC000C22087E0F50111928A95E9F77DCF88230A
:104ED00009F43DCF8091E7028C1110C08091E60269
:104EE000D8120CC0E1100AC09683C8010E94C220EB
:104EF00087E0F50111928A95E9F729CFC8010E9450
:104F00002E10882309F428CFEE2009F425CF8091B4
:104F1000EC02803210F22091E6023091E7023A83EF
:104F200029839C828B829091EA029D831E828F83CB
:104F3000CE010196B0CF4F3A5105D0F6882309F43F
:104F40000ECFFE2CEE2009F407CF8091E7028C11E2
:104F500020C08091E602D8121CC08091EC0280FD36
:104F60000FC0982F907F61F08683903F31F0982F8B
:104F7000907F905F8F70892B8683C8010E94C2202A
:104F800087E0F801A6EEB2E001900D928A95E1F774
:104F9000DECEC8010E942E1081117FCF8091EC02DD
:104FA00081608093EC02C8010E94C220D0CEABE1A8
:104FB000B0E0EDEDF7E20C9493304E8B5F8B688F91
:104FC000798F8A8F9B8F192F91111092B6041D8AA9
:104FD00086E0FE017696DE011F9601900D928A957D
:104FE000E1F70A8D002341F021E04F855889698956
:104FF0007A89C8010E9429110B8B1C8B87E0FE0166
:105000003F96DE01189601900D928A95E1F7CE0148
:1050100008960E94702681110CC087E0FE01389628
:10502000DE01119601900D928A95E1F78C85811130
:105030000BC017E0809136059091FD04891331C0B3
:105040006B96E4E00C94AF302091FD0430E0C90190
:10505000019687709927409136054817190699F0EF
:1050600097E0929FD001939FB00D1124A250BB4FA7
:10507000FE01319601900D929A95E1F78093FD041F
:105080000E942E0FD6CF0E9432191092FD0410926A
:10509000360587E0E6EEF2E0DF011D928A95E9F73A
:1050A000C8CF819FC001112482509B4F0E9470265F
:1050B000882331F28091360590E001968770992718
:1050C00080933605B7CFA6E0B0E0E9E6F8E20C94AD
:1050D00093300E9461048C018091F9029091FA0250
:1050E0008017910781F019821A820E946104682F4B
:1050F00049815A81792F80E090E00E94D727109350
:10510000FA020093F9022696E4E00C94AF301F9265
:105110000F920FB60F9211242F933F934F935F93EB
:105120006F937F938F939F93AF93BF93CF93DF93AF
:10513000EF93FF93D091E900DF708091EC00C82FCE
:10514000C17080FDC0E81092E9008091F000877F77
:105150008093F00078940E9459191092E900809190
:10516000F00088608093F000CD2BCF70C093E900F1
:10517000FF91EF91DF91CF91BF91AF919F918F916F
:105180007F916F915F914F913F912F910F900FBE43
:105190000F901F9018951F920F920FB60F92112427
:1051A0002F933F934F935F936F937F938F939F932F
:1051B000AF93BF93EF93FF938091E10082FF09C00B
:1051C0008091E20082FF05C08091E1008B7F809397
:1051D000E1008091DA0080FF24C08091D80080FF38
:1051E00020C08091DA008E7F8093DA008091D90010
:1051F00080FF9DC080E189BD82E189BD09B400FEC8
:10520000FDCF81E08093F3048091E604811109C011
:105210000E94E9020E948A038091E20084608093E8
:10522000E2008091E10080FF17C08091E20080FFE2
:1052300013C08091E2008E7F8093E2008091E200B3
:1052400080618093E2008091D80080628093D800D2
:1052500019BC85E08093F3048091E10084FF2BC0AA
:105260008091E20084FF27C080E189BD82E189BD91
:1052700089B5982F917080FFFBCF8091D8008F7DEA
:105280008093D8008091E1008F7E8093E10080912F
:10529000E2008F7E8093E2008091E2008160809343
:1052A000E2008091F404882309F447C084E08093ED
:1052B000F3048091F3048091E10083FF27C0809183
:1052C000E20083FF23C08091E100877F8093E100AB
:1052D00082E08093F3041092F4048091E1008E7FC9
:1052E0008093E1008091E2008E7F8093E2008091C4
:1052F000E20080618093E20042E060E080E00E9492
:1053000058038091F00088608093F000FF91EF9146
:10531000BF91AF919F918F917F916F915F914F91CD
:105320003F912F910F900FBE0F901F90189519BCB1
:105330001092F3041092E60474CF8091E30087FD8D
:1053400093E09093F304B5CF78941F921FB61F9209
:1053500011248F939F93AF93BF938091E204909118
:10536000E304A091E404B091E5040196A11DB11DF0
:105370008093E2049093E304A093E404B093E504E3
:10538000BF91AF919F918F911F901FBE1F90189555
:105390001F921FB61F9211248F939F93AF93BF93B9
:1053A0008091E104811113C08091E2049091E304A3
:1053B000A091E404B091E5044196A11DB11D809334
:1053C000E2049093E304A093E404B093E504BF9156
:1053D000AF919F918F911F901FBE1F901895CDB7D1
:1053E000DEB767970FB6F894DEBF0FBECDBF85B7A7
:1053F000806885BF85B7806885BF84B7877F84BF95
:105400000FB6F894A8958091600088618093600041
:10541000109260000FBE80E890E00FB6F894809381
:105420006100909361000FBE8BEC99E09093BB02FA
:105430008093BA020E94E9020E948A038091E200EE
:1054400084608093E20078948091F3048823A1F033
:105450001091E9001F709091EC00892F817090FDF0
:1054600080E8182B1092E9008091E80083FD0E94EB
:1054700059191F701093E90082E084BD93E095BD37
:105480009AEF97BD80936E00109231031092320311
:10549000109233031092340355985D988FE891E091
:1054A0000197F1F700C000000E94CD0980933F01F1
:1054B0000E943C1281110E94232F90913F0181E0B4
:1054C000982790936703A82FA91BA0933603909168
:1054D0003F018093680390913F01809335032398A7
:1054E0002B9A22982A9AEFE8F1E03197F1F700C061
:1054F00000002091680349E653E0FA018E2F841BD7
:10550000821708F4A5C180913F0181112CC085E06C
:10551000E3E5F1E0DE01179601900D928A95E1F73F
:105520008F8180933A01888580933B0189858093A0
:105530003C018A8580933D018B8580933E0186E006
:10554000E8E5F1E0DE01119601900D928A95E1F710
:10555000FE013196A4E3B1E0CE01079621912D938F
:105560008E179F07D9F780913F0195E0811190E058
:105570009093420385E0891B809341030AE311E085
:105580008FE3E82E81E0F82ED8018D918D018F3FB9
:1055900011F00E94D80CE016F106B1F704E311E017
:1055A000F80181918F018F3F11F00E94D80CF1E03A
:1055B0000A331F07A9F78AE0E7E4F3E0DF01282FA9
:1055C0001D922A95E9F7E7E3F3E0DF011D928A9542
:1055D000E9F790E080E00E947431863E9E4F11F022
:1055E0000E943D2082E090E00E946C318093510344
:1055F00084E090E00E9474319093460380934503C9
:1056000083E090E00E946C3190E00E9429100E949B
:10561000ED0410923B058FEF9FEF9093550580931B
:1056200054059093570580935605909359058093A0
:10563000580590935B0580935A0590935D05809380
:105640005C0590935F0580935E0590936105809360
:10565000600590936305809362051092BA0390935E
:10566000D4038093D3039093D6038093D503909370
:10567000D8038093D7039093DA038093D903909350
:10568000DC038093DB039093DE038093DD03909330
:10569000E0038093DF039093E2038093E10390E0C3
:1056A00080E00E947431863E9E4F21F00E943D2092
:1056B0000E94AE1281E08093670548E050E068E107
:1056C00070E088E695E00E945C3110926705809159
:1056D00068058C7F11F40E94AE120E943C12811169
:1056E00002C00E94262F80E491E09093DE04809314
:1056F000DD048091F304853089F410E4F12EEE246A
:10570000E39400E112E18091F304853009F4ACC028
:105710000E9432190E945F121092E7030E942C1718
:1057200082E593E09E878D87A7E4B3E0B88BAF87CF
:105730002CE533E0FC0191918D912E173F0709F480
:10574000DAC09817C1F30E943C12682E512C412CEC
:10575000F12CEF85F889B190F88BEF87AD85BE8588
:105760008D91BE87AD878B1509F441C28B258B8B3C
:105770006201E12CAA24A3948B898A2109F42BC20B
:105780002B2C2A206620A1F0EF82F8860E9461046B
:105790009A878987B1E0BB8791E0211001C090E032
:1057A0009C874F81588569857A858B850E94D7278C
:1057B000222039F0F601EF54FE4F80818F3F09F02F
:1057C000A6C1312C032D10E08091BA03800F912FD8
:1057D000911D09976CF1F8E08F2E912C801A910A97
:1057E000B80165547C4FA4018BEB93E00E945331C8
:1057F000B8016D537C4FA40183EC93E00E945331B8
:10580000A401440F551FB801660F771F6D527C4FDE
:1058100083ED93E00E945331B80165537C4FA4019E
:105820008BEC93E00E94533188E083198093BA0394
:105830008091BA0390E0A72DB0E09D01220F331FA5
:1058400023513E4FAA0FBB1FBD0162517E4F77C14E
:1058500083B183FB882780F91A9904C090E0892BD3
:1058600081934CCE92E0FBCF8091F304843009F415
:1058700030C00E9474168091E703811105C00E9418
:10588000C91280E00E946905E092E7031092E104EA
:1058900028E130E00FB6F894A895209360000FBE81
:1058A000F092600083B7817F846083BF83B781609B
:1058B00083BF7894889583B78E7F83BF0FB6F894A3
:1058C000A8958091600088618093600010926000CC
:1058D0000FBE8091F204882309F415CF0E942C1783
:1058E000E7E4F3E08191811131C241E553E04E17C5
:1058F0005F07C1F708CF981326CF0E9463280E9444
:105900003C128823C9F080914A0182FF15C00E9491
:1059100061042091D7043091D804AC01421B530B91
:105920004639510548F04CE553E0BC018091D9045B
:105930009091DA040E94B21D0E947416E12CD12CC1
:1059400080916803E81608F497C1D1100E94AB1249
:1059500086E0E3E7F3E0DE01119601900D928A956F
:10596000E1F7D090740300917503F0907603E09016
:1059700077031091780310927503109276031092BA
:10598000770310927803802F8F2909F445C0809106
:105990007103909172030E9446049C0190916C03E4
:1059A000992309F4F3C125313105B0F19F3F19F076
:1059B0009F5F90936C03002359F00E949D099FEF15
:1059C00010160CF491E0899F802D112480937503AB
:1059D000FF2059F00E949D0991E01F140CF09FEFE9
:1059E000899F802D112480937603809175038823ED
:1059F00099F0C0907603CC2079F00E94BD098823ED
:105A000009F49CC1809375038C2D0E94BD098823E5
:105A100009F496C180937603812F8E2909F445C03D
:105A200080916F03909170030E9446049C019091B5
:105A30006D03992309F4A5C121353105B0F19F3FCC
:105A400019F09F5F90936D03EE2059F00E947B093F
:105A50009FEF1E140CF491E0899F802D11248093F8
:105A60007703112359F00E947B0991E011160CF085
:105A70009FEF899F802D1124809378038091770375
:105A8000882399F0E0907803EE2079F00E94BD0918
:105A9000882309F457C1809377038E2D0E94BD0996
:105AA000882309F451C18093780380917403D8123C
:105AB00017C080917503882311F0081311C020913D
:105AC0007603222311F02F110BC0909178039923B4
:105AD00011F0191305C030917703332309F44CC139
