:100000000C94BA020C9449310C94F2020C94F20252
:100010000C94F2020C94F2020C94F2020C94F20290
:100020000C94F2020C94F2020C94A42A0C94602A10
:100030000C94A12B0C94F2020C94F2020C94F20298
:100040000C94F2020C94F2020C94F2020C94F20260
:100050000C94F2020C947D2B0C94F2020C94F2029C
:100060000C94F2020C94F2020C94F2020C94F20240
:100070000C94F2020C94F2020C94F2020C94F20230
:100080000C94F2020C94F2020C94F2020C94F20220
:100090000C94F2020C94F2020C94F2020C94F20210
:1000A0000C94F2020C94F2020C94F2020000000094
:1000B0000000000000000000000000000000000040
:1000C0000000000000000000000000000000000030
:1000D0007E0F00D4FFFFFFC7000000780000000083
:1000E000000000002A2B2800000000000000000093
:1000F0000000000000000029000000002C1E342039
:10010000212224342627252E362D3738271E1F205E
:100110002122232425263333362E37381F040506A3
:100120000708090A0B0C0D0E0F10111213141516E7
:100130001718191A1B1C1D2F3130232D35040506E5
:100140000708090A0B0C0D0E0F10111213141516C7
:100150001718191A1B1C1D2F3130354C165C1E0048
:100160001F002000210022002B0014001A000800AC
:1001700015001700E00004001600070009000A003F
:10018000E1001D001B000600190005000000000032
:10019000E300B35D280050082A0027002600250050
:1001A000240023004C00130012000C0018001C0057
:1001B000340033000F000E000D000B00DA5C380035
:1001C000370036001000110000000000E600B45DAA
:1001D0002C004F0835001E001F00200021002200C7
:1001E00035021E021F022002210222024C000100E1
:1001F00050004F0052002F00010001004B004E0044
:1002000051002F0200000000010001004C002602F6
:100210004C00270026002500240023002A00270286
:100220002602250224022302310230022F022E026E
:100230002D02300001004F085008300A2F0A30020A
:1002400000000000010001004C00270235021E02E0
:100250001F0220022102220235001E001F00200082
:10026000210022004C003A003B003C003D003E00D3
:100270000100400041004200430044000000000033
:1002800001000100010026024C002702260225027F
:10029000240223022A002700260025002400230030
:1002A000310030002F002E002D003F0001004E00D5
:1002B0004B0030082F08450000000000010001003D
:1002C0000100270245003A003B003C003D003E0093
:1002D000CA5CC85CC65CCC5CC45CC35C0100FD004D
:1002E000FE00FF00F100F200CB5CC95CC75CCD5C96
:1002F000C55CF300000000000100010001000100E6
:10030000440043004200410040003F00005C010007
:1003100030082F08300A2F0A01000100F000ED001C
:10032000EE00EF0001000100FC00F900FA00FB0004
:1003300000000000010001000100010000010101B6
:100340000101010101010202020202020202020392
:100350000303030303030304040404040404050562
:100360000505050606060606070707070708080825
:1003700008090909090A0A0A0B0B0B0C0C0C0D0DD4
:100380000D0E0E0E0F0F0F1010111111121213136C
:100390001414151516161717181819191A1A1B1BE5
:1003A0001C1D1D1E1E1F2020212222232424252641
:1003B00026272829292A2B2C2D2D2E2F3031323279
:1003C000333435363738393A3B3C3D3E3F40414285
:1003D000434445464748494A4C4D4E4F505153546B
:1003E000555658595A5B5D5E5F616264656668691F
:1003F0006B6C6D6F7072737577787A7B7D7E80829F
:10040000838587888A8C8E8F91939596989A9C9EE7
:10041000A0A2A3A5A7A9ABADAFB1B3B5B7BABCBEF7
:10042000C0C2C4C6C9CBCDCFD1D4D6D8DBDDDFE2C4
:10043000E4E7E9EBEEF0F3F5F8FAFDFF0501090258
:10044000A10185020901A10005091901290815006A
:1004500025019508750181020501093009311581D1
:10046000257F95027508810609381581257F95013C
:1004700075088106050C0A38021581257F950175DE
:10048000088106C0C005010980A101850319012A60
:10049000B700150126B700950175108100C0050C45
:1004A0000901A101850419012AA002150126A00253
:1004B000950175108100C005010906A10105071904
:1004C000E029E71500250195087501810295017560
:1004D0000881010507190029FF150026FF00950670
:1004E0007508810005081901290595057501910216
:1004F000950175039101C009023B00020100A0FAB9
:100500000904000001030101000921110100012279
:1005100040000705810308000109040100010300F0
:100520000000092111010001227B00070582032040
:100530000001120100020000000810CB56642006E2
:10054000010200011A0349007200690073002000D3
:100550005200650076002E00200036006200000088
:100560000E034B0065006500620069006F0000002B
:100570000403090411241FBECFEFDAE0DEBFCDBFB4
:1005800004B603FE18C08091280590912905A0911A
:100590002A05B0912B058730904BA740B04B59F4FA
:1005A000109228051092290510922A0510922B0509
:1005B000E0E0F8E3099512E0A0E0B1E0EAE9FCE64A
:1005C00002C005900D92AA3BB107D9F725E0AAEB2E
:1005D000B2E001C01D92A832B207E1F70E94C82B19
:1005E0000C9412360C94000090912005937061F0E9
:1005F00081110BC09460909320051092530180915B
:100600001F05816080931F050895833210F098685C
:10061000F2CF880F880F982BEECF90912005937022
:1006200071F08093210560932205493708F048E76F
:100630004093230580911F05816080931F050895D5
:10064000E8EDF0E080818E7F80831092E2001092CE
:10065000DA001092E100A0EEB0E08C9181608C9302
:1006600080818F77808319BCA7EDB0E08C918E7F5D
:100670008C9380818F7E80831092D804089520917E
:10068000E4003091E50095E6A9012091EC00822F6D
:10069000817020FF06C08091E80080FF06C080E0E6
:1006A00008952091E80022FD1AC08091E504882376
:1006B00089F0853089F08091EB0085FD0FC0209195
:1006C000E4003091E50042175307F9F29150E1F64A
:1006D00084E0089582E0089583E0089581E008951C
:1006E000EF92FF920F931F93CF937C018B010E9497
:1006F0003F03C82F811117C08091E80085FD0BC012
:100700008091E8008E778093E8000E943F03882361
:1007100099F3C82F08C0F70181917F018093F10000
:100720000150110949F78C2FCF911F910F91FF9024
:10073000EF9008958091E70487FF13C08091E8004F
:1007400082FF06C08091E8008B778093E80004C0A8
:100750008091E5048111F2CF08958091E50488230A
:10076000D9F38091E80080FFF8CF8091E8008E7780
:10077000ECCF982F9093E900242F762F50E0891723
:1007800031F07091EC002091ED005091F00021FDCE
:1007900007C09F5F973071F78093E90081E008956B
:1007A0003091EB003E7F3093EB003091ED003D7FC8
:1007B0003093ED003091EB0031603093EB0070939B
:1007C000EC002093ED005093F0002091EE0027FD07
:1007D000E0CF80E00895B0E0A0E0E1EFF3E00C941A
:1007E0006F32C8EDD0E088818F7E8883E7EDF0E03E
:1007F00080818160808384E082BF81E08093D8041F
:1008000088818E7F888302EE10E0F80110821092BA
:10081000DA0081EEC82ED12CF601108288818F7704
:10082000888388818068888388818F7D888319BCCC
:100830001092E5041092E6041092E4041092E3048E
:1008400090EEE92EF12CF70180818B7F80838881E7
:100850008160888342E060E080E00E94B903F60195
:1008600080818E7F8083F801808181608083808198
:1008700088608083F70180818E7F8083888180619A
:100880008883CDB7DEB7E8E00C948B32FC01809111
:10089000ED049091EE0486179707A0F0611571059D
:1008A00029F49091E8009E779093E80090E061151C
:1008B000710551F4911108C08091E80082FF34C0A5
:1008C00080E00895BC01F2CF8091E5048823C1F156
:1008D0008530C1F18091E80083FD30C08091E8004F
:1008E00082FDEACF8091E80080FFE1CF8091F300A4
:1008F0002091F200382F6115710519F0283031056B
:1009000058F091E02830310509F090E02091E8009E
:100910002E772093E800CBCF81918093F100615036
:1009200071092F5F3F4FE7CF8091E504882341F0A5
:10093000853041F08091E80083FFBECF81E00895CB
:1009400082E0089583E0089508958091DA0408957F
:100950009C014FB7F8948091D1049091D204A0915A
:10096000D304B091D4044FBF821B930B08952FB7CB
:10097000F8946091D1047091D2048091D304909145
:10098000D4042FBF08952FB7F8948091D10490918B
:10099000D204A091D304B091D4042FBF08959C0138
:1009A000FC0132969FEF80E04191461751F09F3F46
:1009B00019F4411101C0982F8F5F8630A9F79F3F2E
:1009C00009F40895290F311D97FD3A95F9016283C5
:1009D00008952091CE043091CF042817390771F083
:1009E0009093CF048093CE04E091CC04F091CD0499
:1009F000309721F00084F185E02D0995089520912C
:100A0000CA043091CB042817390771F09093CB04B6
:100A10008093CA04E091CC04F091CD04309721F08A
:100A20000680F781E02D09950895FC01680F791F74
:100A30008FEF91E32191822728E030E087FF09C002
:100A4000880F892721503109C9F7E617F70791F771
:100A50000895880FF7CFFA01811101C0FB010995B4
:100A60000895E0E2F5E0248130E1231B08F420E062
:100A7000248380911F05816080931F050895E0E223
:100A8000F5E0248130E1230F08F42FEF24838091D7
:100A90001F05816080931F050895E0E2F5E0438122
:100AA00020E1421B08F440E08181628190E00E94D5
:100AB0000D030895E0E2F5E0438120E1420F08F4E0
:100AC0004FEF8181628190E00E940D030895E0E282
:100AD000F5E0628120E1621B08F460E081814381DE
:100AE00090E00E940D030895E0E2F5E0628120E1CC
:100AF000620F08F46FEF8181438190E00E940D0343
:100B00000895E0E2F5E08181438162818850990B8C
:100B10000E940D030895E0E2F5E0818190E04381B9
:100B2000628108960E940D030895809120058695A4
:100B30008695815009F482E20E94F4020895809122
:100B40002005869586958F5F833208F081E00E94AC
:100B5000F402089580934B01809120058370809367
:100B60004A010E94CD1383E0809353010895EF92D0
:100B7000FF920F939701201B31092F3F310519F088
:100B800010F02FEF30E02095382F320F08F43FEFB0
:100B9000832F0F91FF90EF900895EF92FF920F93A4
:100BA0009701201B31092F3F310519F010F02FEF6D
:100BB00030E0322F3095482F430F08F44FEF842F49
:100BC000620F0F91FF90EF900895EF92FF920F93B5
:100BD000972F093438F4B701601B71096F3F710515
:100BE00019F010F06FEF70E0485F5F4F4131510531
:100BF00040F0A901485F5F4F4131510510F06FEFA0
:100C000070E06095482F460F08F44FEF842F37FFB0
:100C100002C02D5F3F4F35952795359527956091FB
:100C20002105620F792F0F91FF90EF900895EF92B9
:100C3000FF920F931F930E0D1F2D111DF90137FF0A
:100C400003C0F195E195F10924E0EE0FFF1F2A950D
:100C5000E1F7EF3FF10519F014F0EFEFF0E09A0142
:100C600057FF03C031952195310994E0220F331FBE
:100C70009A95E1F72E173F070CF4F901E00FF11FE9
:100C8000EF3FF10519F010F0EFEFF0E0E095282FBD
:100C90003E2F230F08F42FEF822F1F910F91FF900B
:100CA000EF900895EF92FF920F93970195E0099FBF
:100CB000200D311D11242F3F310519F010F02FEFB9
:100CC00030E02095382F320F08F43FEF832F0F913B
:100CD000FF90EF90089522E8241B08F420E0620FB3
:100CE00008954095282F429F412D1124842F089567
:100CF0000F931F9310E0F801EE0FFF1FE251FE4F1C
:100D00009081905797FD9195000F111FF801EE54B7
:100D1000FE4F05AD0052110B2003F001219FF00D95
:100D2000112408E310E0091B110997FD13954003F6
:100D30009001419F300D1124E20FF31F9F01220FFC
:100D4000331F2E0F3F1F37FF02C021583F4F220F86
:100D5000232F221F330B620F1F910F9108950F93C2
:100D60001F93522F10E0F801EE0FFF1FEE54FE4FBD
:100D7000A5ADA052BB0B9D015203F001539FF00D96
:100D80001124000F111FD801A251BE4F0C91005722
:100D9000110B40039001419F300D11242E0F3F1F76
:100DA00037FF02C0215C3F4F96E0359527959A9515
:100DB000E1F7620F1F910F9108950F931F93522F28
:100DC00010E0F801EE0FFF1FEE54FE4FA5ADA0524C
:100DD000BB0B9D015203F001539FF00D1124000F36
:100DE000111FD801A251BE4F0C910057110B4003A7
:100DF0009001419F300D11242E0F3F1F37FF02C07D
:100E000021583F4F220F232F221F330B620F1F91B8
:100E10000F910895EF920F93972F23E0029FB00157
:100E20001124759567956E0D792F0F91EF900895A8
:100E3000322F50E0FA01EE0FFF1FEE54FE4F95AD3A
:100E4000905297FD9195440F551FFA01E251FE4FC4
:100E50002081231B330B290F311D97FD3A95620F1B
:100E60000895E42FF0E0EE0FFF1FEE54FE4F65AD46
:100E7000621B0895E42FF0E0EE0FFF1FE251FE4FDA
:100E80006081621B0895622F0895E42FF0E0EE0F59
:100E9000FF1FE251FE4F408134EE439F412D11244C
:100EA000E82FF0E050E0445E5F4FDA01A21BB10989
:100EB0009D01B7FF03C031952195310993E0220FC1
:100EC000331F9A95E1F7AF01421B530B9A0157FD6F
:100ED00020E0582F259F212D1124822F0895E42FE3
:100EE000F0E0EE0FFF1FE251FE4F408134EE439FD2
:100EF000412D1124E72FF0E050E0445E5F4FDA010E
:100F0000A21BB1099D01B7FF03C03195219531099D
:100F100093E0220F331F9A95E1F7AF01421B530B69
:100F20009A0157FD20E0279F212D1124722F08954B
:100F30000E94D80A0895FF920F931F93CF93DF93D7
:100F4000182F062FF42ED0E0C0E02F2D402F612F58
:100F5000CE010E9498072196C434D105B1F7CDB7D0
:100F6000DEB7E5E00C948E32FC019B01009729F47A
:100F700080E077FF2BC080E80895AC0197FF04C0A4
:100F800044275527481B590BB901640F751F37FDBE
:100F900010C0241B350BC901A5E0880F991FAA9525
:100FA000E1F70E94B03280E2861BF7FF0FC0819507
:100FB0000895CB0165E0880F991F6A95E1F7BA01A2
:100FC000621B730B0E94B03280E6EECF0895EF9261
:100FD0000F93CF93DF93D72FC82FC9010E19BA01F2
:100FE0000E94B407602F681B7D2F8C2FDF91CF915B
:100FF0000F91EF9008950F93CF93DF93D72FC82FC2
:10100000C901BA010E94B407682F600F7D2F8C2F91
:10101000DF91CF910F910895EF920F931F93CF938C
:10102000DF93D62FC72F182FC9010E19010FBA0150
:101030000E94B407081B202F219F212D1124822FED
:101040006D2F7C2FDF91CF911F910F91EF9008951D
:10105000EF920F931F93CF93DF93D62F172FC82FA5
:10106000C9010E19070FBA010E94B407702F781B2F
:10107000719F712D11246D2F8C2FDF91CF911F91B6
:101080000F91EF9008950F931F93CF93DF93D62F77
:10109000C72F182FC901212F201B022FBA010E9430
:1010A000B407982F990F990F891B800F282F219F24
:1010B000212D1124822F6D2F7C2FDF91CF911F9135
:1010C0000F9108950F931F93CF93DF93D62F172F70
:1010D000C82FC901272F201B022FBA010E94B40775
:1010E000982F990F990F782F791B700F719F712D81
:1010F00011246D2F8C2FDF91CF911F910F910895A7
:10110000E82F86FDE0952E2F2F7086FD2F5FE69548
:10111000E695E695E670F0E0E655FE4F9181929FE8
:10112000902D212D112492959F702295207F922B36
:101130002081920F87FD919580E8890F0895AC0179
:101140008230910508F408959FEF413E8EE15807E3
:1011500040F49A0195E0369527959A95E1F798E045
:10116000920F61E0E62FE90FFF27FF1F9F013595E2
:101170002795822F229FF001239FF00DF00D11245F
:101180004E175F0738F49FEF920F961758F78FEFBF
:10119000860F08952F3FE9F361E0620FF6CF0F93BA
:1011A000CF93DF93D72FC82F47FD419588E390E079
:1011B000841B910947FD9395889FB001899F700D0D
:1011C000700D1124229FC001239F900D900D1124BA
:1011D000860F971F0E949F08982F990F890F682FDD
:1011E000600F7D2F8C2FDF91CF910F91089530E00C
:1011F00020E0869F212D969F200D311D1124C901CD
:101200000895AF92BF92CF92DF92FF920F931F93F8
:10121000CF93DF93362F472FE82FF0E0E45CFC4FAD
:1012200071110FC0E4918E2F2E2F6E2F722FDF9130
:10123000CF911F910F91FF90DF90CF90BF90AF9013
:101240000895C72FD0E02491F22E022F10E056E02F
:10125000659FC0011124EFEFF0E0BF010E949C32B6
:10126000832F90E0880F991F35E5369FD001379F77
:10127000B00D11248A1B9B0B982F990F980F6F01AB
:10128000CC1ADD0AC09ED001C19EB00DD09EB00D1B
:1012900011248B2F499FA0011124452F55276F0141
:1012A000C41AD50AC09EA001C19E500DD09E500DFB
:1012B00011245F01A91AB108AC9E6001AD9ED00C4B
:1012C000BC9ED00C1124CD2CDD24EC19FD09E09F2F
:1012D000E001E19FD00DF09FD00D1124ED2F623081
:1012E0007105A1F050F46115710509F49ECF6130CC
:1012F000710581F0EB2F852F98CF6430710569F06F
:1013000080F06630710509F490CFF4CFE22F2B2FD7
:101310008D2F8BCFE22F252F88CFEB2F822F2D2FD4
:1013200084CF2B2F8F2DE52F80CF0E94C3049C01EB
:101330009091A5038091A603982B21F03093A203EE
:101340002093A1039091A7038091A803982B21F0EB
:101350003093A00320939F03E091CC04F091CD043F
:10136000309749F082E08093A3030480F581E02D5B
:1013700083EA93E0099508954091A5038D3E59F4C1
:101380008091A60387FF0DC01092A60341110BC0E8
:1013900010929D0308C08E3E81F48091A60318161A
:1013A0009CF3442381F08091A7039091A803892B9B
:1013B00009F05AC010929C0308958F3E49F447FFEC
:1013C000F0CF1092A5038091A6038111ECCFE0CF5E
:1013D000803F19F41416ACF3E4CF9091A703893F32
:1013E00029F41916F4F61092A703DBCF8A3F19F4FB
:1013F00097FFD7CFF8CF9091A8038B3F29F497FFA1
:10140000D0CF1092A803CDCF8C3F19F41916CCF38E
:10141000C8CF9FE0980F983090F4815F990B21E03E
:1014200030E0B90102C0660F771F8A95E2F7CB0161
:1014300080959091A40389238093A403B2CF8D3F1C
:1014400031F480919E038E7F80939E03AACF8E3FBE
:1014500021F480919E038D7FF7CF8F3F09F0A1CFBC
:1014600080919E038B7FF0CF089580919E0380FD35
:1014700016C081FD16C082FD16C080919C03882392
:10148000A1F0883280F428E0829FC001112468E234
:1014900070E00E94B032862F672B39F0089582E009
:1014A000089584E0089588E0089581E0089580918A
:1014B0009E0380FD14C081FD14C082FD16C0809182
:1014C0009D03882381F08E3180F420E5829FC00146
:1014D00011246EE170E00E94B032862F089584E1FD
:1014E000089588E2089588E0089580E508958D3E86
:1014F00031F40E94570A81958093A60308958E3E89
:1015000019F40E94570AF8CF8F3E31F40E94570A0F
:1015100081958093A5030895803F19F40E94570A8E
:10152000F8CF893F29F40E94350A8093A7030895D4
:101530008A3F21F40E94350A8195F7CF8B3F31F421
:101540000E94350A81958093A80308958C3F19F471
:101550000E94350AF8CF9FE0980F983070F4815FB1
:10156000990B21E030E001C0220F8A95EAF78091C3
:10157000A403822B8093A40308958D3F31F48091BE
:101580009E03816080939E0308958E3F21F4809195
:101590009E038260F7CF8F3FB9F780919E038460EE
:1015A000F1CF80E0089589B185FB882780F90895FF
:1015B000FF920F931F93CF93DF93EC01F62E042F2E
:1015C000122F0E94D30A81110FC0C232D1057CF0C4
:1015D000A297FE01EE0FFF1FEC0FFD1FE952FC4F1B
:1015E000F1820083128303C0C232D10594F3CDB7D8
:1015F000DEB7E5E00C948E32CF93C82F0E94D30A59
:10160000882329F081E0C23228F080E003C081E025
:10161000C434D8F7CF910895A8E0B0E0E2E1FBE050
:101620000C946532282E7C836B83209150018EE0D0
:10163000289F802D11248D83825F8983853410F04B
:1016400034E439830E94D30A882329F089818332C4
:1016500010F092E299830E94D30A811105C0ED81B6
:10166000E23210F4F2E2FD832091F3042A839D819B
:10167000892F90E098878F83880F991FFC01EE5483
:10168000FE4F6F01822D90E09C012F5F3F4F3E8304
:101690002D8389819F81981730F00E94FC0A28963B
:1016A000E2E10C948132EF81F885EA58FD4F8081A8
:1016B000909151018923F9F0309021054090220545
:1016C0008D819E818D509B4F3C01522C10E0FA8100
:1016D0005F16D8F020912305129F112D1124632D40
:1016E000742D812F0E940109462F282F672F8F818B
:1016F00098850E9498072F8138852F5F3F4F388744
:101700002F8332E0C30ED11CC4CFF30181913F017E
:10171000F601A4ACA81ABB0885ACF3018781881A2E
:101720009908AA9C9001AB9C300D300D1124889C27
:10173000C001899C900D900D1124820F931F0E946F
:101740009F08082F6091240521E0620F08F46FEFD5
:10175000F301EE0FFF1FE35FF440858996890E9435
:10176000F7087C019401A501632D742D812FEB8175
:10177000FC810995362E472E5394182FA8CFB0E040
:10178000A0E0E5ECFBE00C946F327C01C0915001CD
:101790008EE0C89FC02D11241EE01C0F153408F0E8
:1017A00014E40E94D30A882319F0133208F012E2DD
:1017B0000E94D30A811103C0C23208F4C2E2209110
:1017C000240531E0230F08F42FEF30E050E040E033
:1017D0006FEF7FEF80E090E00E94C4326901D0E0BB
:1017E00001E02C2FC11740F0812F0E94FC0ACDB7D9
:1017F000DEB7E8E00C948B32FE01EA58FD4F8081A1
:1018000090915101892309F14091F3044150042E34
:10181000000C550B47FF1BC0C60160912405600FEB
:1018200008F46FEF0E94F708AC01609121057091F8
:10183000220580912305F70109950E940109462F91
:10184000282F672FCE010E9498072196CACFFA0150
:10185000ED50FB4F818982130AC0FA01EE0FFF1F82
:10186000ED50FB4F818D928D8C159D05B0F241504E
:101870005109D0CFB0E0A0E0E0E4FCE00C946D3280
:101880006C01C09150018EE0C89FC02D11241EE054
:101890001C0F153408F014E40E94D30A882319F0B1
:1018A000133208F012E20E94D30A811103C0C2323F
:1018B00008F4C2E260912405669566958091EF0474
:1018C0009091F0040E94F708F82E80E48F0D0E949A
:1018D000800890E8B92EB80E8F2D0E94800820E86D
:1018E000A22EA80ED0E0C11740F0812F0E94FC0A62
:1018F000CDB7DEB7EAE00C948932FE01EA58FD4F1D
:101900008081909151018923A1F06091210570910E
:10191000220580912305EF2C0C2F2A2D4B2DF6014B
:1019200009950E940109462F282F672FCE010E949A
:1019300098072196D8CFB0E0A0E0E1EAFCE00C9453
:1019400069325C01C09150018EE0C89FC02D112406
:101950001EE01C0F153408F014E40E94D30A8823FB
:1019600019F0133208F012E20E94D30A811103C069
:10197000C23208F4C2E26091240566958091EF04BA
:101980009091F0040E94F708F82ED0E0CE01880F65
:10199000991F9C012E543E4F6901C11740F0812FC1
:1019A0000E94FC0ACDB7DEB7EEE00C948532FE0152
:1019B000EA58FD4F808190915101892379F1F60118
:1019C00084AD282F2057330B490185ADE82FE05215
:1019D000FF0B3F01889C9001899C300D300D112434
:1019E000EE9FC001EF9F900D900D1124820F931F69
:1019F0000E949F08082F6091210570912205809117
:101A00002305EF2C9301A401F50109950E9401091A
:101A1000462F282F672FCE010E949807F2E0CF0EA5
:101A2000D11C2196BACFB0E0A0E0E9E1FDE00C9432
:101A30006E326C01C09150018EE0C89FC02D112400
:101A40001EE01C0F153408F014E40E94D30A88230A
:101A500019F0133208F012E20E94D30A811103C078
:101A6000C23208F4C2E26091240566958091EF04C9
:101A70009091F0040E94F708B82ED0E0CE01880FB4
:101A8000991F9C012E543E4F7901C11740F0812FC0
:101A90000E94FC0ACDB7DEB7E9E00C948A32FE0161
:101AA000EA58FD4F8081909151018923C1F0F701DF
:101AB00025AD2052330B44AD4057550B60912105A5
:101AC00070912205809123050B2DF60109950E9446
:101AD0000109462F282F672FCE010E949807F2E0B8
:101AE000EF0EF11C2196D1CFEF92FF920F931F932F
:101AF000CF93DF937C01C09150018EE0C89FC02D31
:101B000011241EE01C0F153408F014E40E94D30ABF
:101B1000882319F0133208F012E20E94D30A8111CF
:101B200003C0C23208F4C2E260912405669566954E
:101B300021E0620F08F46FEF8091EF049091F004C0
:101B40000E94F708082FD0E0C11740F0812F0E94B3
:101B5000FC0ACDB7DEB7E6E00C948D32FE01EA5800
:101B6000FD4F808190915101892391F06091210571
:101B70007091220580912305202F4C2FF7010995A4
:101B80000E940109462F282F672FCE010E94980737
:101B90002196DACFB0E0A0E0E0EDFDE00C946D32EC
:101BA000182F80914B01811323C0909120059370D1
:101BB00020914A0130E081E09217130609F480E099
:101BC0008170809352018091250590915101981761
:101BD00039F08093510140E060E080E00E949B0773
:101BE000133288F4E12FF0E0EC5EF94C0C94E33210
:101BF00081E0E6CF80915201882389F140E060E0E6
:101C000080E00E949B0780E02AC0C09150018EE0D6
:101C1000C89FC02D11240EE00C0F053408F004E419
:101C20000E94D30A882319F0033208F002E20E94CE
:101C3000D30A811103C0C23208F4C2E260912105C7
:101C400070912205809123050E940109F62EE72E4E
:101C5000D82ED0E0C017D8F0802F0E94FC0A9091B7
:101C600050019F5F9093500181110CC082E08093DE
:101C7000530180915201811105C0111103C083E00D
:101C800080935301CDB7DEB7EAE00C948932FE01B0
:101C9000EA58FD4F808190915101892331F02D2D1B
:101CA0004F2D6E2DCE010E9498072196D3CFC09163
:101CB00050018EE0C89FC02D11240EE00C0F05349A
:101CC00008F004E40E94D30A882319F0033208F0D4
:101CD00002E20E94D30A811103C0C23208F4C2E2B8
:101CE000E0902205F0902305D09121056D2F7E2DE7
:101CF0008F2D0E940109D62EC72EB82E6091240583
:101D00006D0F7E2D8F2D0E940109F62EE72EA82E35
:101D1000D0E0C01708F0A0CFFE01EA58FD4F908137
:101D200080915101892359F02A2D4F2D6E2D90FD60
:101D300003C02B2D4D2D6C2DCE010E9498072196AE
:101D4000E8CFC09150018EE0C89FC02D11240EE055
:101D50000C0F053408F004E40E94D30A882319F01C
:101D6000033208F002E20E94D30A811103C0C2329A
:101D700008F4C2E2E0902205D090230520912405CA
:101D800050E4F52E3F2D329F312D1124F32ED0E05B
:101D9000C01708F061CFFE01EA58FD4F8081909195
:101DA00051018923B9F0FE01EE0FFF1FEE54FE4FE3
:101DB00085AD82958F70609121058F9D600D1124F6
:101DC0007E2D8D2D0E940109462F282F672FCE01D1
:101DD0000E9498072196DCCFC09150018EE0C89FE9
:101DE000C02D11240EE00C0F053408F004E40E940D
:101DF000D30A882319F0033208F002E20E94D30AC2
:101E0000811103C0C23208F4C2E2E0902205D090F2
:101E100023052091240530E4F32E3F2D329F312DF0
:101E20001124F32ED0E0C01708F016CFFE01EA58B7
:101E3000FD4F8081909151018923D9F0FE01EE0F71
:101E4000FF1FEE54FE4F64ADF69EB001112495E0E5
:101E5000759567959A95E1F780912105680F7E2D1C
:101E60008D2D0E940109462F282F672FCE010E9439
:101E700098072196D8CFC09150018EE0C89FC02D01
:101E800011240EE00C0F053408F004E40E94D30A7C
:101E9000882319F0033208F002E20E94D30A81116C
:101EA00003C0C23208F4C2E2F0902105D0912205AD
:101EB000E09023056091240566956695669580916E
:101EC000EF049091F0040E94F7080E948008805867
:101ED00087FD8195880F282F3E2D239F212D1124CA
:101EE000822F6F2D7D2F0E940109F62EE72ED82E0E
:101EF000D0E0C01708F0B0CEFE01EA58FD4F808157
:101F000090915101892331F02D2D4F2D6E2DCE0151
:101F10000E9498072196EDCF8FE697E00E94740DFE
:101F20009ECE85E497E0FACF82E698E00E94130DFA
:101F300096CE83E498E0FACF88E298E00E949B0C6A
:101F40008ECE8CE098E0FACF83E497E0E7CF8AE387
:101F500097E0E4CF81E397E0E1CF88E197E0DECF3F
:101F60008AE097E0EBCF8FEC98E0E0CF8BEF97E043
:101F7000DDCF87EE97E0E2CF8DED96E00E943A0C40
:101F80006ECE8FEA96E0FACF88E796E0F7CF81E74A
:101F900096E00E94BF0B63CE8BE696E0FACF80916D
:101FA000F30421E0382F321B08F430E0832F62E580
:101FB00076E00E940C0B53CE62E576E080E0F9CF2C
:101FC0008091F30421E0382F321B08F430E0832F96
:101FD00067E176E0EECF67E176E0F0CF8091F30441
:101FE00021E0382F321B08F430E0832F65EE75E0D6
:101FF000E0CF65EE75E0E2CF8091F30421E0382F69
:10200000321B08F430E0832F6DEC75E0D2CF6DEC1D
:1020100075E0D4CF8091F30421E0382F321B08F40F
:1020200030E0832F67EB75E0C4CF67EB75E0C6CF78
:10203000F894E82FE295EF70F0E031A1282F2F708F
:1020400081E090E001C0880F2A95EAF7982F9095DB
:10205000932391A392A1892B82A3789408959091C0
:10206000700392FF06C0282F28712830F9F4877F6B
:10207000846093FF06C0282F28712831F1F4877EF1
:1020800084612091710320FF06C0382F38713830E9
:10209000D9F4877F816021FF06C0282F287128315D
:1020A000D1F4877E816194FD877E0895282F247165
:1020B0002430F9F68B7F8860DCCF282F24712431FF
:1020C00001F78B7E8861DDCF382F3171313019F700
:1020D0008E7F8860E0CF282F2171213121F78E7EFD
:1020E0008861E1CF972F7A30A8F4663098F470E0D9
:1020F00026E0929F600D711D1124FB019CE3899FD6
:10210000E00DF11D1124EE0FFF1FE45AFE4F8591E3
:102110009491089580E090E00895CF93DF93EC01CF
:1021200082389105B1F108F040C08133910509F47E
:102130009DC048F58932910509F48DC08A9709F44C
:102140009CC0C11521E5D20708F0C3C0C11530E518
:10215000D30708F01EC1C83ED10508F0A3C0C03E99
:10216000D10588F5C83AD10508F08EC0C53AD10529
:1021700008F007C1C130D10531F1209721F1C430F9
:10218000D10508F545C08533910509F45FC0C997AD
:10219000C1F680917003837009F043C1809171038F
:1021A00083FF11C0C9E2D0E00EC0833E910599F1D2
:1021B00070F4803E910501F1823E910511F6809107
:1021C000700382FD21C0CE01DF91CF910895863E3C
:1021D000910561F1873E910571F1843E910509F009
:1021E000B0CF8091710381FFEECF80917003C7EE75
:1021F000D0E084FD0DC0E7CF8091700380FD33C037
:102200009091710390FFDFCFC3EED0E084FFDBCF6E
:10221000D0E0C0E0D8CF8091700382FDFFC09091E4
:10222000710390FDFEC084FFCECFF2CF809170038A
:1022300083FDDDCFC8CF8091700383FDF5C0909101
:10224000710391FFF0CFC4EED0E0BDCF8091700359
:1022500085FFB9CFA7CF8091700385FDE8C080913D
:10226000710383FFB0CFC9E3D0E0ADCF809170039D
:1022700086FFA9CFCAE2D0E0A6CF8091700386FF87
:10228000A2CFC1E3D0E09FCFCF3BD10508F6C85A1B
:10229000D0E0CC0FDD1FC659DE4F0990D881C02D8C
:1022A000D46491CFC11540E2D40758F4C11581E040
:1022B000D80708F088CFCD3ED10508F4A9CFD06566
:1022C00082CFC11520E4D20708F4A2CFDF70D06A14
:1022D0007ACFC11535E5D30718F5C11544E5D40704
:1022E00008F084C0C11583E5D80708F06BC0C1159C
:1022F00022E5D20708F461C0CE018370992721E05E
:1023000030E002C0220F331F8A95E2F7C695C695CA
:1023100080E2C89FE0011124C22BD32BDC6853CF8D
:10232000C11539E5D307A8F4C11548E5D40708F06D
:1023300062C0C11586E5D80708F06ACF8C2F0E94CD
:102340002F10C82FD0E0DC2FCC27CC27DF71D06234
:102350003ACFC1152AE5D20708F452C0CE019056F3
:102360008115904208F054CF8D2F8F710E942F104D
:1023700090E0982F882788279F719C012C2BE901DA
:10238000E6CFC55AD0E0C959DE4FC881D0E0D0644D
:102390001ACFCE018370992721E030E002C0220FCE
:1023A000331F8A95E2F7C695C69540E2C49FE001C7
:1023B0001124C22BD32BDD6806CFDC2FCC27C16FB5
:1023C000D06A01CFCE018370992721E030E002C0AE
:1023D000220F331F8A95E2F7C695C69540E2C49F47
:1023E000E0011124C22BD32BDA68EDCEDC2FCC27F1
:1023F000C46FD06AE8CEDC2FCC27C06FD06AE3CEA2
:102400008C2F8F700E942F1034E0D695C7953A9587
:10241000E1F7CF709C2FEC01D069D5CEC2EED0E0B1
:10242000D2CEC0EED0E0CFCEC6EED0E0CCCEC5E36B
:10243000D0E0C9CE0E94B70408958091260381118F
:102440001092260308959091710392FF05C0909118
:102450002603981380932603089580959091A404F1
:1024600098239093A404089580959091A3049823B1
:102470009093A304089580911C039091EB0298130C
:1024800001C008958F5F8770FACFB0E0A0E0EBE461
:10249000F2E10C946E327C01009126051091270523
:1024A0008091270390912803082B192BCFE0D0E0CF
:1024B000CC24C394D12CBC2EC6010C2E02C0880F94
:1024C000991F0A94E2F780239123892B49F42197DD
:1024D00090F7B12C8B2DCDB7DEB7E9E00C948A32A2
:1024E000B7018C2F0E9472100E948D10019779F312
:1024F000F1CFCF93DF93EC010E944512BE010E9401
:1025000072100E948D10DF91CF9108959A3078F566
:10251000863068F5E82FF0E086E0989FE00DF11D29
:1025200011249E2F977083E0F695E7958A95E1F741
:10253000EE0FFF1FEE0FFF1FEB53FD4F50E040E08B
:1025400080E0219130E0092E02C0369527950A944B
:10255000E2F721703327042E01C0220F0A94EAF714
:10256000822B4F5F5F4F4430510559F7089580E04B
:1025700008959A3098F5863088F5E82FF0E086E0E7
:10258000989FE00DF11D11248E2F877041E001C04E
:10259000440F8A95EAF783E0F695E7958A95E1F787
:1025A000EE0FFF1FEE0FFF1FEB53FD4F30E020E05B
:1025B00070E05191DF011197CB01022E02C0969578
:1025C00087950A94E2F78170819585278423852772
:1025D0008C932F5F3F4F2430310559F70895FC014C
:1025E00083819481892B29F08081918189238F3F78
:1025F00051F480E00895843FE1F717C0883EA8F0C9
:10260000813FB9F712C0808191810E947912929521
:102610009F70963099F358F4925F9F70923048F70C
:10262000803F19F040F7883E20F781E008959A5FD7
:10263000F4CF9C013A9521153F4150F5FC01EE275E
:10264000F170BC0166277270AC01442754709C0184
:102650002227387094FF0EC080E1EF2B09F480E050
:10266000672B09F08062452B09F08064232B89F0E9
:102670008068089581E0EF2B09F480E0672B09F072
:102680008260452B09F08460232B19F0886008953F
:1026900080E008958093D5047093D7046093D604A6
:1026A0008091E504843001F582E08093E9008FEFAA
:1026B0009091E800815095FD06C095ED9A95F1F74F
:1026C00000008111F5CF8091E80085FF0DC050E03A
:1026D00040E063E070E085ED94E00E94700380913B
:1026E000E8008E778093E8000895BC0184E00E94A2
:1026F0004A130895BC0183E00E944A1308959C0187
:1027000082E08093E9009FEF8091E800915085FD81
:1027100006C085ED8A95F1F700009111F5CF809103
:10272000E80085FF0CC050E040E066E070E0C901C1
:102730000E9470038091E8008E778093E8000895EE
:10274000CF93DF93EC0181E08093E9008FEF9091CC
:10275000E800815095FD06C095ED9A95F1F70000CF
:102760008111F5CF8091E80085FF14C050E040E072
:1027700068E070E0CE010E9470038091E8008E77DF
:102780008093E80088E0FE01ABEDB4E001900D928B
:102790008A95E1F7DF91CF9108956E9A3EB13F7B24
:1027A0002EB120644FB7F89487ED93E0FC0151916E
:1027B000CF0168E02EB9000000C057FF3EB9550FA9
:1027C000000000C000C000C03EB900C06A9591F78B
:1027D000F4E0833A9F0751F74FBF8FE594E00197EC
:1027E000F1F700C000000895B0E0A0E0EAEFF3E1E7
:1027F0000C946D327C015B016A0180915F0301E002
:1028000010E08A3010F40AE010E0C1E0D0E0B50139
:10281000C701F6010995811104C021960C171D0707
:102820002CF4CDB7DEB7EAE00C948932CC9F90014E
:10283000CD9F300D300D112490E080E045E34A95A6
:10284000F1F70000019682179307C1F7E0CF80915E
:102850003603811110C08091D80080618093D80028
:102860008AE18A95F1F700C08091D90080FF0AC003
:1028700081E08093360381E090913603913009F036
:1028800080E0089582E0809336030E942003109236
:10289000E504F1CF0E942714882359F0E091CC047D
:1028A000F091CD04309729F00190F081E02D099549
:1028B000089580E008950F931F930E9427148823A2
:1028C00029F00E94B7041F910F9108950E94B70448
:1028D00000916003109161032091620330916303C2
:1028E000600F711F821F931FEECFCF92DF92EF9286
:1028F000FF926B017C010E9427148823A1F02FB75F
:10290000F8946091D1047091D2048091D304909195
:10291000D4042FBF6C197D098E099F09FF90EF9099
:10292000DF90CF9008950E945B14F4CF4F925F9296
:102930006F927F928F929F92AF92BF92CF92DF92CF
:10294000EF92FF926091D2037091D3038091D403F0
:102950009091D5030E9475146B017C010E945B1459
:102960004B015C018092D2039092D303A092D403D6
:10297000B092D503A091A903E9EAF3E08A2F90E091
:102980004FEF5FEF60E070E04C195D096E097F0961
:10299000A91328C08093A9038091D603811135C063
:1029A00090912005892F837019F0892F869586953F
:1029B00090915301913009F441C0992341F1923033
:1029C00009F43FC0933009F43FC0FF90EF90DF90CF
:1029D000CF90BF90AF909F908F907F906F905F90BF
:1029E0004F900895218D328D2901712C612C441551
:1029F00055056605770520F481509F5F3296C8CF54
:102A00002C0D3D1D328F218FF8CF80E0D1CF109259
:102A100050018092EF049092F004A092F104B092E1
:102A2000F20489E2E9EAF3E0A3EFB4E001900D9249
:102A30008A95E1F781E080935301C7CF0E94CA0DC8
:102A4000C4CF0E94AA05C1CF80911F05882351F0F1
:102A500046E050E06CE170E080E295E00E942933AE
:102A600010921F056091EF047091F0048091F104C1
:102A70009091F2040E9475146031710581059105F1
:102A800008F4A3CF10925301A0CFE0E2F5E085E374
:102A900080838091540190915501A09156018183CA
:102AA0009283A3838FE784838FEF858346E050E092
:102AB0006CE170E0CF010E94293310921F05089548
:102AC0008091A3049091A404892B8093BC029091DF
:102AD0002603992391F0892B8093BC0220E08EEB92
:102AE00092E0FC013191CF0131112F5FF2E0843C83
:102AF0009F07B9F721110E941D1248E050E06EE1D6
:102B000073E08CEB92E00E945D33892BA9F088E0A2
:102B1000ECEBF2E0AEE1B3E001900D928A95E1F7C3
:102B2000E091CC04F091CD04309731F00280F38134
:102B3000E02D8CEB92E00995089580914E01877FFE
:102B400080934E018091C904811103C082E00E94EC
:102B50002D1280914E0184FF08C08F7E80934E011C
:102B60008091A30482608093A30480914E0185FF2D
:102B700008C08F7D80934E018091A3048062809372
:102B8000A3040E946015089590E080E00E94FF0475
:102B900090E080E00E94E9041092A4040E94601575
:102BA00086E0E3EAF3E0DF011D928A95E9F71092EF
:102BB0009D0310929C0310929E030E949509089514
:102BC00090932705809326050E94C415089580914F
:102BD0002605909127059C01267033272630310564
:102BE00021F488600E94E0150895877FFBCF21E0E3
:102BF00030E002C0220F331F8A95E2F7209530950E
:102C00008091260590912705822393230E94E01549
:102C1000089590911D038095892380931D03282F8B
:102C2000277091F4282F082E000C330B92171306EF
:102C300059F09091710392FF07C085958595859510
:102C40000E94F71510921D03089521E030E002C0A4
:102C5000220F331F8A95E2F7809126059091270570
:102C6000822B932B0E94E015089590932803809364
:102C700027030E94C4150895882321F00E942D1275
:102C80000E94601508958091C904882329F082E28A
:102C90000E943C161092C9040895882339F090913F
:102CA000A404982B9093A4040E946015089588238F
:102CB00021F00E9434120E9460150895882339F093
:102CC0009091A304982B9093A3040E9460150895FB
:102CD0008823C9F19CEF980F913A78F4EEEBF2E07B
:102CE0009191891303C0DF0111971C9292E0E43C9B
:102CF000F907B1F70E946015089590E2980F983097
:102D000050F4877091E001C0990F8A95EAF7892FF6
:102D10000E943412EFCF9BE5980F933028F490E097
:102D200080E00E94FF04089598E5980F973128F4F9
:102D300090E080E00E94E90408958D3E20F00E941A
:102D4000BC090E9495090895CF93DF93EC010E947E
:102D50006816CE010E9419139E01205E31092830A9
:102D6000310510F0CD2B29F40E945716DF91CF9139
:102D700008950E943C16FACFCF93C82F8823B1F054
:102D80008CEF8C0F813A00F5EEEBF2E084EC92E0F0
:102D9000DF012D91C21761F08A179B07D1F76C2FC5
:102DA0008CEB92E00E94CF040E946015CF910895B1
:102DB0002191C21303C0DF0111971C928E179F0748
:102DC000B9F70E946015EBCF80E28C0F883068F471
:102DD000C77021E030E001C0220FCA95EAF7809168
:102DE000A304822B8093A304DFCFEBE5EC0FE33049
:102DF00040F4F0E0E959FE4F808190E00E94FF042A
:102E0000D5CFE8E5EC0FE73150F4F0E0EE0FFF1F0F
:102E1000E659FE4F808191810E94E904C7CFCD3EE3
:102E200028F28C2F0E94770A0E949509BFCF1F932A
:102E3000CF93DF93182FEB010E94BC16209739F433
:102E4000812F0E946816DF91CF911F9108958FE91D
:102E50009FE00197F1F700C000002197EFCF70E0ED
:102E600060E0893311F460E570E00E94171708955F
:102E70000F931F93CF93DF93C62FD42F022FFC0104
:102E800082818823A9F060931E050E94C304909359
:102E90001D0580931C05C77081E001C0880FCA958D
:102EA000EAF70E945E16DF91CF911F910F9108956E
:102EB00080911E05681332C080911C0590911D05FC
:102EC0000E94A804883C910548F510E21D0FCD171B
:102ED000B9F080E28C0F883040F4C77081E001C007
:102EE000880FCA95EAF70E945716183048F481E017
:102EF0009D2F977001C0880F9A95EAF70E945E1681
:102F0000802F0E942F17183070F6D77081E001C013
:102F1000880FDA95EAF70E945716C5CFC77081E08F
:102F200001C0880FCA95EAF7F6CFCF93DF93EC0183
:102F30000E9419139E01205E31092830310510F0DE
:102F4000209741F40E945E168C2F0E94BC16DF91E0
:102F5000CF9108950E944D16F7CFB0E0A0E0E3EBCB
:102F6000F7E10C947032EC018B0180914E0182FFED
:102F700090C0E090C704F090C804EC16FD0619F06C
:102F8000209709F086C080914E018B7F80934E017F
:102F900081FD78C08091C5049091C604A801481BAA
:102FA000590B81E020914C0130914D01421753079C
:102FB00008F480E08170D82E80914E01D0FA81F91A
:102FC00080934E01E701DD27FE0184E0F695E79549
:102FD0008A95E1F7EE0FFF1FEB55FB4F2081318102
:102FE000A7014F70552781E090E002C0880F991F1C
:102FF0004A95E2F7DD2009F447C0822B932B918399
:1030000080838091A30481FF08C080914E0180617C
:1030100080934E0182E00E9434128091A30485FFC8
:1030200008C080914E01806280934E0180E20E9430
:103030003412DD2029F08091A40482608093A404DE
:10304000C7019056811520E2920728F0905E811505
:10305000904108F0E701CE010E9495178091C704C6
:103060009091C8049C013056211540E2340720F0AD
:10307000305E2115304108F499270E94A4160E9461
:103080009D151DC081E096CF809590958223932356
:10309000B6CFCE0199279E013056211540E2340764
:1030A00028F0305E2115304108F0CE010E94A416B0
:1030B0008091C7049091C804C817D90701F31093F1
:1030C000C6040093C504CDB7DEB7E7E00C948C329C
:1030D0000F931F93CF93DF938C01EB010E94951701
:1030E000209741F4C8010E94A416DF91CF911F914F
:1030F0000F9108958FE99FE00197F1F700C000005C
:103100002197EECF8091260590912705009711F029
:1031100080FF2CC0809130036623A9F0811106C086
:1031200081E08093300383EE0E94BC160E94C304AA
:1031300090932F0380932E0370E060E08BE290E089
:103140000E9468181CC0811106C081E08093300382
:1031500083EE0E94BC160E94C30490932F038093B9
:103160002E0370E060E08BE292E0EACF83FF0DC0B7
:10317000662339F06AE070E089EA0E94171780E060
:1031800008956AE070E08AEAF8CF81FF07C08EE414
:10319000611101C08BE40E942F17F1CF82FFEFCFA6
:1031A00080913003662339F08111C0CF81E0809394
:1031B000300380EEB9CF8111CECF81E08093300310
:1031C00080EEC7CFCF9384E090E00E941B33C82FDE
:1031D00082E290E00E941B33982F8C2FCF910895AC
:1031E000AFE0B0E0E6EFF8E10C946A328E010F5FD9
:1031F0001F4F8AE0D8011D928A95E9F786E3C82E11
:1032000081E0D82EF12CE12CAA24A394B12C26E342
:10321000822E21E0922EF60181916F018F3F09F4F9
:1032200042C0F894E82FE295EF70F0E021A18F7092
:10323000A50102C0440F551F8A95E2F7CA01922FDB
:10324000982B91A392A18095892382A3789400C0A2
:10325000E0E3F1E0712C31E021912F3F09F46BC0E4
:10326000A22FA295AF70B0E090968C9190E02F7055
:1032700002C0959587952A95E2F780FD5CC0832F63
:10328000782A330F8E169F0639F7F6013197808121
:103290008F3F11F00E94181050EA5A95F1F7F8018B
:1032A000EE0DFF1D70828FEFE81AF80A95E0E9161F
:1032B000F10409F0B0CF4AE050E0B80184E693E0B1
:1032C0000E945D33009741F02AE0F801A4E6B3E0E4
:1032D00001900D922A95E1F700916F03892B69F116
:1032E00081E080932B030E94C30490932A03809370
:1032F00029038091290390912A030E94A80405972D
:1033000000F110E00A581C4F45E050E064E673E01D
:10331000C8010E945D33D12C892B51F085E0E4E691
:10332000F3E0D80101900D928A95E1F7DD24D39462
:1033300010922B0307C080E0A3CF80912B03811153
:10334000D8CFD12C0E942714C82EE0916F03DE0144
:103350001B967D01882309F491C085E01D928A9512
:10336000E9F70E2F10E00A581C4F80915F038A3056
:1033700008F051C046E35FE1B701C8010E94F413B1
:10338000882309F46AC04DED5EE1B701C8010E94CF
:10339000F413882309F461C042EE5DE1B701C8016E
:1033A0000E94F413882309F458C040E85DE1B70196
:1033B000C8010E94F413882309F44FC010925F03E0
:1033C00080916E0390E045E050E0B7018A589C4F31
:1033D0000E945D3321E020933503892B89F5C12CB0
:1033E00080913003882389F080912E0390912F03E0
:1033F0000E94A8048F3E924040F083EE0E9468161F
:1034000080EE0E946816109230038C2D8D292F9625
:10341000EDE00C94863280912C0390912D030E9454
:10342000A804843F914008F0A5CF809135038823FC
:10343000B1F285E0F70111928A95E9F71092350310
:10344000A0916E03B0E0AA58BC4F85E0FE013B9608
:1034500001900D928A95E1F7C3CF80915F038F3F72
:1034600031F08F5F80935F038A3008F4A9CF0E9408
:10347000C30490932D0380932C03D7CFF0E0EA5838
:10348000FC4F85E0A9E4B3E001900D928A95E1F745
:1034900065E070E089E493E00E941505809348039D
:1034A0004091980350E06091970370E06D567C4F17
:1034B000C7010E946A338B8580934F0361E070E0FF
:1034C000C7010E94150580934E0380905003909091
:1034D0005103A0905203B090530380913103909117
:1034E0003203A0913303B091340388169906AA06DB
:1034F000BB06D1F08092310390923203A092330345
:10350000B09234030E94271481110EC00E94B704A8
:10351000861A970AA80AB90A8092600390926103FA
:10352000A0926203B092630386E0E4E5F3E0A0E2D8
:10353000B5E001900D928A95E1F710915A0311239D
:1035400049F08091D603811105C00E94CA0D80E028
:103550000E94AA051093D60358CF1092A304EEEB55
:10356000F2E086E0DF011D928A95E9F70E94C4151A
:103570000895AAE2B0E0EFEBFAE10C94743287EE22
:1035800094E02091F100FC012193CF01F4E08F3E03
:103590009F07B9F78091E804833009F470C0B8F44C
:1035A000813009F447C0823009F4B1C08091E8004D
:1035B00083FF7EC28091E7049091E8049A3008F07E
:1035C00077C2E92FF0E0E95CF94C0C94E3328A30E1
:1035D00009F48CC08B3009F46FC0893039F78091C1
:1035E000E704813219F78091EB049091EC04029783
:1035F000E8F68091E800877F8093E8008091E800FA
:1036000082FF38C09091F3008091F200029731F46C
:103610008091F100813011F0863021F48091F10029
:103620008093DA048091E8008B778093E8000E9411
:103630009A03BCCF8091E704813A09F0B7CF80911B
:10364000E800877F8093E8008091EB049091EC0480
:10365000892B61F468E08BED94E070E00E944604F1
:103660008091E8008B778093E800A0CF60E090E045
:1036700080E0F3CF8091E5048111C0CF97CF809196
:10368000E704813A09F092CF8091EB049091EC0429
:10369000892B09F08BCF8091E800877F8093E80029
:1036A0008091E80080FFFCCF80914F018093F10072
:1036B0008091E8008E77B9CF8091E704813209F0DC
:1036C00075CF8091EB049091EC04892B09F06ECFBB
:1036D0008091E800877F8093E8000E949A038091A0
:1036E000E90480934F010E94AD1A60CF8091E704F6
:1036F000813209F05BCF8091E800877F8093E800FA
:103700000E949A038091EA048093D9044FCF80915C
:10371000E704813A09F04ACF8091E800877F8093DF
:10372000E8008091E80080FFFCCF8091D904BECFF3
:10373000803899F0823809F0BBC18091EB048F701A
:10374000873008F0B5C18093E9008091EB0085FBDC
:10375000882780F91092E90006C08091E3049091D7
:10376000E404911182609091E800977F9093E800C3
:103770008093F1001092F1008091E8008E7794C15F
:10378000882309F482C1823009F092C18091E90452
:10379000811185C18091EB048F702FEF280F2630A7
:1037A00008F086C18093E9002091EB0020FF77C1EB
:1037B000933031F48091EB0080628093EB006FC115
:1037C0009091EB0090619093EB0021E030E001C01C
:1037D000220F8A95EAF72093EA001092EA0080917E
:1037E000EB008860EACF811163C11091E9041F7773
:1037F0008091E3008078812B8093E3008091E80042
:10380000877F8093E8000E949A038091E80080FF00
:10381000FCCF8091E30080688093E30082E0111187
:1038200083E08093E50444C18058823008F040C1B1
:103830008091E9049091EA048C3D23E09207A1F580
:1038400083E08A838AE289834FB7F894DE01139676
:1038500020E03EE051E2E32FF0E050935700E49186
:1038600020FF03C0E295EF703F5FEF708E2F90E076
:10387000EA30C0F0C7968D939D932F5F243159F79E
:103880004FBF8091E800877F8093E8006AE270E094
:10389000CE0101960E9446048091E8008B778093C8
:1038A000E80006C1C096E7CF4091EB045091EC04CC
:1038B000292F33272330310509F444C078F521300E
:1038C000310509F46FC08BE390E0E7EFF4E02230BC
:1038D000310509F0EDC02091E800277F2093E80032
:1038E0002091ED043091EE048217930708F49C01B7
:1038F00040E02115310509F064C0411162C080919A
:10390000E80082FDC9CF8091E504882329F2853043
:1039100019F28091E80083FFF2CFBECF213231054A
:10392000A9F12232310509F0C3C04115510509F44E
:1039300043C04130510509F0BBC08BE790E0ECE398
:10394000F4E0C9CF992781309105C1F0009759F073
:10395000029709F0ADC0E4E4F5E0E4918E2F90E029
:10396000E4E4F5E007C0E0E7F5E0E4918E2F90E0B5
:10397000E0E7F5E0009709F49BC0ADCFE0E6F5E0A5
:10398000E4918E2F90E0E0E6F5E0F4CF411551058B
:1039900071F04130510509F08BC089E090E0E2E21E
:1039A000F5E099CF82E190E0E2E3F5E094CF89E0A1
:1039B00090E0E9E0F5E08FCF80E490E0E7EBF4E021
:1039C0008ACF8091E504882309F466CF853009F415
:1039D00063CF8091E80083FD5FCF8091E80082FD96
:1039E0008ECF8091E80080FF84CF9091F30080918A
:1039F000F2002115310519F08830910550F041E0B1
:103A0000089709F040E08091E8008E778093E80005
:103A100070CF44914093F1003196215031090196C5
:103A2000E8CF803809F044C08091E800877F809318
:103A3000E8008091E6048093F1009ECE811138C0A9
:103A40001091E9041230A0F58091E800877F8093FF
:103A5000E8001093E6040E949A03112311F084E019
:103A600005C08091E30087FDFACF81E08093E504F3
:103A700042E061EC81E00E94B90342E261EC82E045
:103A80000E94B9038091E50413C08091E90481305C
:103A900079F481E0933009F080E08093E40410929F
:103AA000E9008091E800877F8093E8000E949A03F4
:103AB0008091E80083FF0AC08091E800877F8093AF
:103AC000E8008091EB0080628093EB00AA96E3E02F
:103AD0000C9490320E94AD1A2FEF84E39CE02150A9
:103AE00080409040E1F700C0000088E19CE00FB604
:103AF000F894A895809360000FBE90936000FFCF6C
:103B0000A7E0B0E0E6E8FDE10C94733286E0E0E285
:103B1000F5E0DE01119601900D928A95E1F7809112
:103B2000D6038F8347E050E064E573E0CE01019651
:103B30000E945D3300915B0310915C0320915D0353
:103B400030915E03EFB7F8944091D1045091D204C4
:103B50006091D3047091D404EFBF401B510B620BF2
:103B6000730B443651056105710518F411E0892B7A
:103B700021F18091290190912A01885B9C4F40910D
:103B8000280150E04830510510F047E050E0BE01F8
:103B90006F5F7F4F0E946A3385E090E00E94EF31B3
:103BA000182F882351F00E94B70460935B03709331
:103BB0005C0380935D0390935E03812F2796E4E07E
:103BC0000C948F32A4E0B0E0E8EEFDE10C94743286
:103BD000409144035091450360914603709147031F
:103BE0002FB7F8948091D1049091D204A091D3047E
:103BF000B091D4042FBF841B950BA60BB70B11E01B
:103C000084369105A105B10570F10E945B146E5FC9
:103C10007F4F8F4F9F4F69837A838B839C838091E3
:103C2000210190912201885B9C4F4091200150E03E
:103C30004530510510F044E050E0BE016F5F7F4F0A
:103C40000E946A3384E090E00E94EF31182F8823AD
:103C500051F00E94B704609344037093450380932E
:103C6000460390934703812F2496E3E00C9490320F
:103C70004F925F927F928F929F92AF92BF92CF921C
:103C8000DF92EF92FF920F931F93CF93DF930F92E8
:103C9000CDB7DEB7C62E4A015901482E880F550808
:103CA000C2010E94EF31782E882309F480C0C2013E
:103CB00033E0880F991F3A95E1F7FC01E050FF4F80
:103CC000438150E04115510511F041E050E0805032
:103CD0009F4FFC0164817581685B7C4FCE0101962A
:103CE0000E946A33F40140815181628173812FB750
:103CF000F8948091D1049091D204A091D304B09112
:103D0000D4042FBF841B950BA60BB70B84369105EB
:103D1000A105B10540F4B701C8010E9415059981BC
:103D2000891709F444C00C2C000CDD08C6010E9460
:103D3000EF31782E811113C0712C872D0F90DF91F8
:103D4000CF911F910F91FF90EF90DF90CF90BF9098
:103D5000AF909F908F907F905F904F900895C60195
:103D600023E0880F991F2A95E1F7FC01E050FF4FEF
:103D7000438150E0E416F50608F4A70180509F4FF8
:103D8000FC0164817581685B7C4FC5010E946A33C8
:103D9000B701C8010E94150599818913CDCF0E94F2
:103DA000B704F4016083718382839383C6CFA70134
:103DB000B801C5010E946A33C0CFA1E0B0E0E3EED4
:103DC000FEE10C946E32EE24E394F12C0FE413E048
:103DD0009E012F5F3F4F40E453E063E082E00E948A
:103DE000381EC82E882339F100E080E01DC0D09035
:103DF0007303D00E2D2D30E0A9014D565C4F7A0192
:103E0000E1E0F0E0EC0FFD1FE00FF11D1081FA0181
:103E10009081191BB12E1B149CF0912F17FD90E07F
:103E2000191B111118C00F5F909172030917F8F256
:103E300081110E941A128C2D2196E9E00C948A328D
:103E4000BA94F70180818F5F808360E08D2D0E949E
:103E500082188C2DE0CF1F5FF70180818150808315
:103E600061E08D2D0E9482188C2DDBCFA5E0B0E0A3
:103E7000ECE3FFE10C946F326B0185E0E82EF12C4E
:103E800009E413E09E012F5F3F4F4CE353E061E0F4
:103E900080E00E94381E882349F095E0FE013196AB
:103EA000A7E3B3E001900D929A95E1F795E0E7E37F
:103EB000F3E0D60101900D929A95E1F72596E8E09E
:103EC0000C948B3268EE7EEF90E080E00E945733D6
:103ED00060E082E090E00E94393360E083E090E0AF
:103EE0000E943933109228031092270360E084E087
:103EF00090E00E94393364E082E290E00E9439331E
:103F000060E085E090E00E94393360E086E090E078
:103F10000E9439336FEF87E090E00E94393340E030
:103F200050E0BA0188E090E00E944B3360E08DE001
:103F300090E00E94393340E050E0BA0188E190E01F
:103F40000E944B3360E087E190E00E94393340E00B
:103F500050E0BA018CE190E00E944B3370E060E0E9
:103F600080E290E00E94573340E050E0BA0188E1DF
:103F700090E00E944B3340E050E0BA018FE090E0C7
:103F80000E944B3340E050E0BA0183E190E00E9490
:103F90004B330895CF93C0917103C2FB992790F9D9
:103FA000981791F080FBC2F9C09371036091700380
:103FB00084E090E00E9439336C2F82E290E00E940E
:103FC000393382E00E940916CF910895A9E0B0E04C
:103FD000ECEEFFE10C9465327C01FC01838194815D
:103FE000892B31F08081918189238F3F09F079C736
:103FF0002996E2E10C9481320E944512182F682F15
:1040000089819A810E94B91269817A81812F0E94E7
:1040100072108C01833BFDE59F0709F444C0A0F4B6
:10402000823B9D4509F10D3AEDE51E0709F065C09B
:10403000F7018281882329F18091C904882309F43A
:104040004CC00E9443161DC0043B8DE51807C9F102
:10405000053B9DE5190739F7F70182818823C9F1EE
:1040600083E00E9425160DC0F7018281882349F064
:1040700061E083E090E00E94393381E090E00E94AB
:10408000351680911D03877009F4B2CFF701828144
:10409000882309F4ADCF8091710382FFA9CF82E01C
:1040A0000E940916A5CFF7018281882331F081E0B3
:1040B0000E9425160E94E715E4CF81E00E94F715C3
:1040C000F9CFF7018281882311F082E0F1CF82E0FD
:1040D000F5CF83E00E94F715D4CF1092A3040E947D
:1040E0001D120E94C30488579C4E909392038093A4
:1040F000910381E08093C904C4CF8091C9048823CF
:1041000081F1C090A304D09026030E94C304885775
:104110009C4E9093920380939103F70182818823B0
:1041200001F18D2D8C298D7909F08BC00115F5E5F4
:104130001F0708F066C0011523E5120790F401156A
:1041400030E5130750F4011580E4180708F086C025
:10415000063E110531F0680188C0011592E5190786
:10416000D0F70E94C3044C01F7018281882309F42F
:10417000A1C180914E0182FF07C04BE853E0B4011A
:1041800090E080E00E94AD170931FCE51F0709F4BB
:10419000D5C008F0A4C007313CE5130709F4BEC040
:1041A00008318CE5180709F4C3C0C8019056811581
:1041B000E0E29E0728F0905E8115904108F088C1EA
:1041C0001092C8041092C704043FFCE51F0709F4CD
:1041D00073C208F011C2093D3CE5130709F468C237
:1041E0000A3D8CE5180709F477C2083D9CE51907DC
:1041F00009F00EC226E241EE61EEC7010E943817B7
:1042000040CF0115E9E51E0758F40115F8E51F0731
:1042100008F0A7CF043125E5120709F09CCFA1CF04
:10422000C80190568115904208F095CFF70185811D
:10423000807FC9F4812F8F71823181F128F482301F
:1042400089F10E9443168DCF843109F48ACF8631DB
:10425000C1F766EEC62E62E1D62E07C0F701858152
:10426000807F09F47ECF6801DD2480914E0180FDBE
:104270001DC08FEF0E942D12F8E2CF16D104C0F4BA
:104280002EE1C216D104F0F434E0C316D104C8F212
:104290008091A40482608093A40414C0E5EECE2E25
:1042A000D12CE3CF71EEC72ED12CDFCF8DEFE2CF33
:1042B0008DE2C816D10461F340F4EAE2CE16D104CF
:1042C00009F0BFCF0E9460154CCFFCE4CF16D1049B
:1042D000C9F32DE2C21622E0D206A1F3B2CF0B3110
:1042E0009CE51907A9F068F080914E018E7F0C3192
:1042F000FCE51F0709F059CF80934E010E949D15E0
:1043000054CF90914E01892F8E7F90FF8160F4CF22
:1043100080914E01816080934E0147CF80914C0186
:1043200090914D01059690934D0180934C013DCFA6
:1043300080914C0190914D010597F5CF80914D01F1
:104340008F9380914C018F9382E691E09F938F939E
:104350001F9288E08F937F926F920E9473330FB603
:10436000F894DEBF0FBECDBF6301F601208122238A
:1043700009F41BCF213009F047C09181828191302F
:1043800031F4F2E0CF0ED11C0E942F1707C09230FB
:1043900049F422E0C20ED11C0E94BC163FEFC31AA2
:1043A000D30AE3CF933031F432E0C30ED11C0E9424
:1043B0006816F4CF943021F08FEFC81AD80AEECFE8
:1043C00092E0C90ED11C30E020E0A6014F5F5F4FA4
:1043D0008053990B8A30910550F021503109F0F249
:1043E0008FE99FE00197F1F700C00000F6CFEAE007
:1043F000E29FB001E39F700D11249C01260F371F2F
:10440000F60181816A01E1CFE22FF0E0E452FF4F33
:1044100034913987822F86958695869590E0FC01A8
:10442000E453FF4F24902770312C022E02C03594A4
:1044300027940A94E2F7E1E02E223324FC01E454AD
:10444000FF4F4490512C022E02C0559447940A9479
:10445000E2F7F1E04F225524FC01E455FF4FA49010
:10446000B12C02C0B594A7942A95E2F721E0A222CC
:10447000BB242114310419F081EE0E94BC164114B2
:10448000510419F086EE0E94BC1689850E942F17F0
:104490004114510419F086EE0E946816211431046B
:1044A00019F081EE0E946816A114B10409F476CFC8
:1044B0008CE26ACF80914E018F7E013E110531F072
:1044C000053E1105C1F480914E018F7D80934E0110
:1044D00080914E0180FF78CEF70182810B32110569
:1044E00049F1F8F49801245031092432310510F1D2
:1044F000811166CE69CEC8019056811520E29207DF
:1045000020F0905E8115904118F780914E0182FF56
:104510005BCE4BE853E0B40190E080E00E94AD1721
:1045200053CE0D32110520F30933110518F004366E
:104530001105F1F6882309F459C080912603909162
:10454000A304982B292F2D7F61F11092C80410929B
:10455000C704F80144E0F695E7954A95E1F7EE0FB8
:10456000FF1FEB55FB4F98012F70332781E090E040
:1045700002C0880F991F2A95E2F7809590952081B7
:1045800031818223932391838083C8010E949517F0
:10459000809126038D7F0E94231282E00E940916DB
:1045A00070CD26E0F701ABE8B3E001900D922A95BB
:1045B000E1F710928D0310928F0310928E032091D9
:1045C0004E0191FB21F920934E018D7F0E94231211
:1045D0001093C8040093C7049092C6048092C50447
:1045E00080914E01846080934E01D7CFA701B40122
:1045F000C8010E94AD1745CD063FECE51E0709F442
:1046000063C008F45DC0073F2CE5120709F460C0E1
:10461000F7018281882309F478C410921E050430C2
:10462000FDE51F0708F05BC00B3F2CE5120730F4D7
:10463000C80182509C45449708F05CC00E94E21873
:1046400090937103809370030231ECE51E0709F427
:104650005CC108F0A8C009302CE5120709F433C189
:1046600008F072C005308CE5180709F41CC108F089
:104670005EC00330ECE51E0709F40DC108F00FC160
:1046800080917003816002302CE5120709F488C024
:10469000609170031091710384E090E00E943933BF
:1046A000612F82E290E00E9439330E94AD1AE9CC7A
:1046B00027E245EE65EEA1CD26E241EE60EE9DCD0E
:1046C00027E245EE64EE99CD26E241EE62EE95CD0D
:1046D00027E245EE66EE91CD28E241E0EBCF063AC7
:1046E0003DE5130709F4AACFE0F402369DE519076A
:1046F00009F4A4CF06318CE5180709F01DC4809198
:10470000A3048A7A91E009F490E09093C40269E2EC
:10471000811165E38CEB92E00E94CF040E9460154A
:10472000B0CCC8018E5A9D45039720F787CF809162
:104730007003806207303CE5130791F108F4BFC0B5
:104740008091700380642CC00D309CE5190709F43A
:10475000C4C090F4809170038E7F0B30FCE51F077E
:10476000F9F0809170038C600C302CE51207C0F0DA
:10477000809170038D7F14C00F303CE5130709F45E
:10478000BCC008F4AEC000319CE5190709F4B9C0FB
:10479000809170038F7B0131ECE51E0709F078CF23
:1047A0008093700375CF0115FDE51F0709F4B7C0AD
:1047B000A8F50B3F3CE5130709F479C0C0F40431B8
:1047C0009CE5190709F4B9C008F4A5C00531FCE55A
:1047D0001F0709F05DCF8091700382FB992790F944
:1047E00021E0922790FB82F990FB83F9D9CF0D3F0E
:1047F0002CE5120709F479C008F45DC00E3F8CE582
:10480000180709F476C08091710383600F3F9CE51F
:10481000190709F03DCF809371033ACF0236EDE5D9
:104820001E0709F495C090F402302DE5120709F433
:104830008DC008F478C060E003308DE5180709F0FA
:1048400027CF8EE090E00E94393322CF0E3A9DE5CB
:104850001907E9F060F490917003892F8E7F90FF23
:104860008160063AFDE51F0709F49ACF11CF0F3A90
:104870002DE5120771F1003B3DE5130709F008CF64
:1048800090917103892F877F93FF8860C4CF8091B7
:1048900071038860C0CF80917003826081CF809166
:1048A000700384607DCF80917003886079CF8091A0
:1048B00071038160B0CF809171038260ACCF809131
:1048C000700380616DCF0E94AD1A80917003806883
:1048D00067CF80917103877F9ECF809170038B7F1C
:1048E0005FCF80917003877F5BCF809171038E7F54
:1048F00092CF809171038D7F8ECF809170038F7ED8
:104900004FCF809170038F7D4BCF0E94AD1A809165
:1049100070038F7745CF80917003837F41CF809163
:1049200071038C7F78CF80917103982F909591704F
:104930008E7F892B90FB81F96ECF0E94AD1A9091EA
:104940007003892F97FB87F980582ACF61E079CFD0
:1049500090917003892F8F7E94FF806121CF85E332
:10496000DDC245E955E06FE975E00E942B0589CB72
:104970004FE955E065E975E0F8CF41E855E06BE8AF
:1049800075E0F3CF4BE855E061E875E0EECF47E620
:1049900055E064E775E0E9CF44E755E067E675E088
:1049A000E4CF4AE555E06DE475E0DFCF41E355E043
:1049B0006FE375E0DACF4FE355E061E375E0D5CF03
:1049C00081E00E94F4025DCB8DE0FBCF0E94AD1A26
:1049D0009FEFE4E3FCE09150E040F040E1F700C0DD
:1049E000000081E08093E00080E28093D800109284
:1049F000C9008FE19EE40197F1F700C0000087E055
:104A000090EBDC018093280590932905A0932A055B
:104A1000B0932B0588E19CE00FB6F894A89580939D
:104A200060000FBE90936000FFCF8091710382FB06
:104A3000882780F991E089270E94CA1FF7018281A7
:104A400000811181882309F445C0C8010E944512E4
:104A5000D82E682FC8010E94B912B8018D2D0E946E
:104A600072100E948D108C01882EF701D280C580B3
:104A7000C2943FE0C32280911D038770C1F0AD2C2A
:104A8000DD20B1F0812F807F803421F080E2800F23
:104A9000883068F08091710382FF09C082E00E9433
:104AA000091680911D038770AA24A3948111A12C5B
:104AB000912E92942FE09222FBE0F91508F471C038
:104AC000E92DF0E0EF5BF94C0C94E33281E0B4CFD8
:104AD00080E0B2CFC8010E948612D82EBECF212F0F
:104AE0002F70C22E107F19F0C29490EFC922DD20E2
:104AF000B9F0CC2069F080E2800F883010F081108E
:104B000009C08091A304C82AC092A3040E94601522
:104B1000802F45C08091A404C82AC092A404F6CF77
:104B2000802F0E946816CC20E1F1005E8C2D0830A9
:104B300010F0811003C00E94341202C00E942D1296
:104B40000E9460152EC0312F3F70B32E107F10329F
:104B500019F0B29480EFB822882089F081E088169D
:104B600009F471C0DD2009F47BC0CC2009F471C0C8
:104B7000F701858180FFCCCF8F7085836AC08091DB
:104B8000710382FD43C0DD20D1F1BB2039F080915B
:104B9000A304B82AB092A3040E94601580E00E948A
:104BA000BC16E92DE850FF0B349710F40E944A140C
:104BB000AA20A9F080911D0380FD11C0F701128287
:104BC0008595859585950E942516C7010E94E61F4B
:104BD00080911D038595859585950E94F71585E043
:104BE000F701D30101900D928A95E1F709811A81AD
:104BF000C8010E948612B8010E947210F9C980E0B3
:104C00000E946816BB2069F28B2D95CFDD2071F0D4
:104C1000809126038B29C11003C00E945E16C1CF6C
:104C200091E0C912FACF0E942312BBCFC11006C077
:104C30000E941D128B2D0E945716B3CFE1E0CE16B5
:104C400009F4AFCFF5CFDD2031F0F5E0FC1508F425
:104C5000A8CF8B2DE2CF24E02C1508F4A2CFEACF09
:104C6000CC2041F3F9E38F1235C12FEF37EE83E00B
:104C7000215030408040E1F700C000002BC1812F5F
:104C800086958695837061F0813009F08ACFC801DE
:104C90009370D11002C090E080E00E94E90481CFBF
:104CA000C8019370D11002C090E080E00E94FF0420
:104CB00078CF802FDD2029F00E94770A0E94950985
:104CC00070CF0E94BC09FACF812F837009F03FC0DA
:104CD000D11067CF402F429546954770440F440F3F
:104CE000802F8F7090E0042E02C0880F991F0A94C5
:104CF000E2F730E020E004FF09C02FE030E002C01E
:104D0000220F331F4A95E2F7209530951695169598
:104D10001370123099F078F44091270350912803D2
:104D2000113039F0822B932B842395230E94351662
:104D300038CF842B952B822B932BF8CF822B932B60
:104D4000209127033091280382279327EFCF869560
:104D5000DD2011F0812F8170882309F422CF402FAC
:104D6000429546954770440F440F802F8F7090E016
:104D7000042E02C0880F991F0A94E2F730E020E069
:104D800004FF09C02FE030E002C0220F331F4A9514
:104D9000E2F720953095169516951370123099F01C
:104DA00078F44091260550912705113039F0822B77
:104DB000932B842395230E94E015F3CE842B952B0F
:104DC000822B932BF8CF822B932B209126053091A9
:104DD000270582279327EFCF1F70DD2029F0812F31
:104DE0000E942516802F19CF802F0E945716812FE1
:104DF0000E94F715D6CE802F92EF891699F198155B
:104E000070F0E0EF8E16D1F0F1EF8F1691F0DD200B
:104E100009F45BC0C1107CCE812F8F7127C023EFB6
:104E2000821639F134EF8312F2CF8091710382FD43
:104E30002EC0812F8F71DD20D9F218C0DD2069F0DE
:104E400084E08C1508F4ADCE1F7181E090E002C0C3
:104E5000880F991F1A95E2F7B8CF95E09C1508F4D2
:104E6000A0CEF2CF812F8F71D110C2CF0E94251614
:104E700098CE90E080E0DD2009F49DCF1F7181E0A5
:104E800090E002C0880F991F1A95E2F794CFDD20B9
:104E900089F01F71812F0E9425168091710382FF76
:104EA00007C0E8E01E9FC0011124836080931D03AA
:104EB000812FDCCF81E00E940916F1E0FC1508F09B
:104EC00070CE82E00E9409166CCECC2039F0893376
:104ED00009F4CBCE802F0E94681663CE812F8F718C
:104EE00087CF85E09E012F5F3F4F3901D9010190A7
:104EF0000D928A95E1F7F701228189819A8121112A
:104F00007BC80E948612182F7FC80631FCE51F0758
:104F100089F58091C402811122CD89E2EEEBF2E0A5
:104F200024EC32E09191891303C0DF0111971C92A8
:104F30002E173F07B9F7F2CB0B352DE5120709F411
:104F4000C5CD68F401158CE5180709F43FCD0F3D78
:104F50001C4509F073CD0E94621F0E946A1D0D3529
:104F6000EDE51E0709F461CD08F4B2CD083A1D4500
:104F7000A1F364CD8091A30482720B3C3CE513073E
:104F800009F40FCDB0F5063CECE51E0709F4F5CCAD
:104F9000D0F4043C2CE5120709F4E3CC08F0E8CC8B
:104FA000033C8CE5180709F049CD8091200591E07C
:104FB0008927809320051092530180911F058160FD
:104FC00080931F055EC8083C9CE5190709F4DFCCF7
:104FD00008F4D8CC093CFCE51F0709F4DDCC4DE40E
:104FE00055E06AE575E00A3C2CE5120709F4BDCCF2
:104FF00025CD003D3CE5130709F4E6CC98F40D3CC3
:10500000ECE51E0709F4D7CC08F4D0CC0E3C2CE517
:10501000120709F4D5CC85E00F3C3CE5130709F4F1
:10502000D0CC0CCD073D8CE5180740F482E1023D61
:105030009CE5190708F4C5CC0C9441200E35EDE52C
:105040001E0711F40C944120F9CC1F93CF93DF93EA
:105050008091EA02807F09F049C08091E7028823AD
:1050600009F444C080911C03D091EB026091E502E9
:105070007091E602A091E802B091E902C62FC72321
:1050800016E0D81799F190E0109711F0CF3F19F47E
:1050900001968770F6CF189F9001199F300D11244B
:1050A000F901E451FD4F41814713F2CF408146138E
:1050B000EFCF42814111ECCF438154814A1B5B0BFE
:1050C000483C510528F78091EA028F7080618093F7
:1050D000EA02F901EF50FD4F80818F70806180837B
:1050E00085EE92E00E94E61F0E943B12DF91CF9175
:1050F0001F910895A1E1B0E0E0E8F8E20C946D3270
:105100008C0185E0F801DE011D9601900D928A95D3
:10511000E1F7F801E28085EEA82E82E0B82E6091DA
:10512000E8027091E9026115710509F426C19091B8
:10513000E5024091E602892F84238F3F09F41DC1C7
:1051400020813181C380D480F090E702F601E61B14
:10515000F70BFF2009F4DCC08091EA02582F507F42
:10516000E83CF10508F09FC051116BC0FE2C4313C1
:1051700014C0921312C0E11010C08F708061809330
:10518000EA02C5010E94E61F8091EA02F8018583C8
:105190008F2D6196EAE00C948932C114D10429F074
:1051A000822F83238F3F09F003C180E0F82FF17035
:1051B000DF2E80FF3CC080911C034091EB0256E043
:1051C000841315C02D873E878D859E850E94791298
:1051D000292F22952F702230F0F0243018F59F707F
:1051E000F1F0F8019581907FD1F4D12C1EC090E0B0
:1051F000589FF001599FF00D1124E451FD4F61813A
:10520000361306C06081261303C06281E6120FC008
:1052100001968770D5CF9F7011F0882331F3805E9F
:10522000883018F3C8010E94E61FFD2CB1CFEE2094
:1052300009F4AECF8091EA0281608093EA02F12CFA
:10524000A7CF431306C0921304C0F801EE2009F45F
:1052500079C0C8010E94EF12882309F1EE20F9F00D
:105260008091EA02803270F02091E5023091E602EE
:1052700038872F831986DB86CA868C87CE010796EE
:105280000E94E61F86E0F801A5EEB2E001900D92C3
:105290008A95E1F70E942528FF24F39479CFC8016D
:1052A0000E94E61FF9CF51110AC085EE92E00E94DC
:1052B000E61F86E0F50111928A95E9F7C0CF431306
:1052C0000FC092130DC0E1100BC0F8018583C80117
:1052D0000E94E61F86E0F50111928A95E9F758CF02
:1052E000C8010E94EF128823D1F2EE20C1F2809112
:1052F000EA02803238F22091E5023091E6023A83E8
:1053000029831B82DD82CC828E83CE010196B8CFA9
:10531000E83CF105F8F6FE2CEE2009F243131FC01D
:1053200092131DC08091EA0280FD10C0982F907FDB
:1053300069F0F8018583903F31F0982F907F905F5E
:105340008F70892B8583C8010E94E61F86E0F801D3
:10535000A5EEB2E001900D928A95E1F719CFC80150
:105360000E94EF1281118ECF8091EA0281608093BA
:10537000EA02C8010E94E61F0BCFEE2009F48FCF8E
:10538000C8010E94EF12F82E882309F488CF86E026
:10539000F801A5EEB2E001900D928A95E1F78091B7
:1053A000E5029091E6020E9479120E942528F0CE33
:1053B00081E08E25FBCEA7E1B0E0E1EEF9E20C94AE
:1053C00074324B8B5C8B6D8B7E8B8F8B611110924B
:1053D000A4041A8A198A85E0FE017396DE011D96DF
:1053E00001900D928A95E1F786E0FE013D96DE017F
:1053F000179601900D928A95E1F7CE0107960E94CB
:105400007A28882359F016E080911C039091EB02D2
:10541000891343C06796E3E00C94903286E0FE0166
:105420003796DE01119601900D928A95E1F78A85F3
:105430009B85892B41F38F81988589238F3F19F3B1
:105440002091EB0230E0C9010196877099274091C5
:105450001C034817190671F40E94AD1A1092EB0252
:1054600010921C0386E0E5EEF2E0DF011D928A95C2
:10547000E9F7C9CF96E0929FD001939FB00D112418
:10548000A451BD4FFE01319601900D929A95E1F71E
:105490008093EB020E943B12B6CF819FC001112482
:1054A00084519D4F0E947A28882309F4B3CF8091BC
:1054B0001C0390E001968770992780931C03A4CF6A
:1054C0001F920F920FB60F9211242F933F934F9379
:1054D0005F936F937F938F939F93AF93BF93CF937C
:1054E000DF93EF93FF93D091E900DF708091EC00A0
:1054F000C82FC17080FDC0E81092E9008091F000D3
:10550000877F8093F00078940E94B91A1092E90086
:105510008091F00088608093F000CD2BCF70C09315
:10552000E900FF91EF91DF91CF91BF91AF919F91F2
:105530008F917F916F915F914F913F912F910F903C
:105540000FBE0F901F9018951F920F920FB60F92DB
:1055500011242F933F934F935F936F937F938F9378
:105560009F93AF93BF93EF93FF938091E10082FFEE
:1055700009C08091E20082FF05C08091E1008B7F2D
:105580008093E1008091DA0080FF24C08091D800F0
:1055900080FF20C08091DA008E7F8093DA008091B6
:1055A000D90080FF9DC080E189BD82E189BD09B439
:1055B00000FEFDCF81E08093E5048091D804811145
:1055C00009C00E9420030E94EB038091E2008460E6
:1055D0008093E2008091E10080FF17C08091E2009B
:1055E00080FF13C08091E2008E7F8093E200809163
:1055F000E20080618093E2008091D8008062809315
:10560000D80019BC85E08093E5048091E10084FF17
:105610002BC08091E20084FF27C080E189BD82E138
:1056200089BD89B5982F917080FFFBCF8091D800FC
:105630008F7D8093D8008091E1008F7E8093E10080
:105640008091E2008F7E8093E2008091E200816091
:105650008093E2008091E604882309F447C084E047
:105660008093E5048091E5048091E10083FF27C0E9
:105670008091E20083FF23C08091E100877F8093C7
:10568000E10082E08093E5041092E6048091E1005D
:105690008E7F8093E1008091E2008E7F8093E20014
:1056A0008091E20080618093E20042E060E080E06F
:1056B0000E94B9038091F00088608093F000FF9110
:1056C000EF91BF91AF919F918F917F916F915F917A
:1056D0004F913F912F910F900FBE0F901F901895F3
:1056E00019BC1092E5041092D80474CF8091E300A5
:1056F00087FD93E09093E504B5CF78941F921FB691
:105700001F9211248F939F93AF93BF938091D104E5
:105710009091D204A091D304B091D4040196A11D1C
:10572000B11D8093D1049093D204A093D304B0937D
:10573000D404BF91AF919F918F911F901FBE1F9076
:1057400018951F921FB61F9211248F939F93AF93AA
:10575000BF938091D004811113C08091D1049091A6
:10576000D204A091D304B091D4044196A11DB11DDF
:105770008093D1049093D204A093D304B093D40423
:10578000BF91AF919F918F911F901FBE1F90189551
:10579000CDB7DEB764970FB6F894DEBF0FBECDBFAE
:1057A00085B7806885BF85B7806885BF84B7877FE8
:1057B00084BF0FB6F894A8958091600088618093AB
:1057C0006000109260000FBE80E890E00FB6F89481
:1057D00080936100909361000FBE81ED9AE09093F9
:1057E000BB028093BA020E9420030E94EB038091C7
:1057F000E20084608093E20078948091E50488233D
:10580000A1F01091E9001F709091EC00892F817038
:1058100090FD80E8182B1092E9008091E80083FD4C
:105820000E94B91A1F701093E90082E084BD93E0D2
:1058300095BD9AEF97BD80936E0010926003109211
:105840006103109262031092630355985D988FE88C
:1058500091E00197F1F700C000000E94D30A809305
:105860003B010E94271481110E94033180913B016A
:1058700081112CC085E0E7E5F1E0DE01179601908B
:105880000D928A95E1F78F81809336018885809308
:1058900037018985809338018A85809339018B850A
:1058A00080933A0186E0ECE5F1E0DE01119601908B
:1058B0000D928A95E1F7FE013196A0E3B1E0CE01A9
:1058C000079621912D93E817F907D9F780913B01AD
:1058D00095E0811190E090936F0385E0891B8093A0
:1058E0006E0306E311E0D8018D918D018F3F11F019
:1058F0000E941810B1E00B331B07A9F700E311E079
:1059000086E3E82E81E0F82EF80181918F018F3F28
:1059100011F00E941810E016F106B1F78AE0E6E7F0
:10592000F3E0DF01282F1D922A95E9F7E4E6F3E082
:10593000DF011D928A95E9F790E080E00E94233311
:10594000883E9E4F11F00E94621F82E090E00E940C
:105950001B33809380030E94E2189093710380931D
:10596000700383E090E00E941B3390E00E943516A4
:105970001092F3048FEF9FEF90930D0580930C0529
:1059800090930F0580930E05909311058093100559
:105990009093130580931205909315058093140539
:1059A0009093170580931605909319058093180519
:1059B00090931B0580931A051092A9039093C3033B
:1059C0008093C2039093C5038093C4039093C7034D
:1059D0008093C6039093C9038093C8039093CB032D
:1059E0008093CA039093CD038093CC039093CF030D
:1059F0008093CE039093D1038093D00390E080E016
:105A00000E942333883E9E4F21F00E94621F0E9415
:105A1000451546E050E06CE170E080E295E00E94C0
:105A20000B3310921F05809120058C7F11F40E948A
:105A3000451590913B0181E0982790939703F82FAB
:105A4000F91BF093730390913B018093980390911D
:105A50003B018093720380913B01811106C083E377
:105A60008093490182E38093480120914901E22F0C
:105A7000E295EF70F0E061A12F7081E090E0AC0161
:105A800001C0440F2A95EAF7342F3095362331A30D
:105A900022A1242B22A320914801E22FE295EF704E
:105AA000F0E031A12F7001C0880F2A95EAF7982FF6
:105AB0009095932391A392A1892B82A38FE891E0E3
:105AC0000197F1F700C000001091980369E973E0B5
:105AD00049E451E088E4E82E81E0F82EFB0128C07B
