:100000000C94BC020C94DB300C94F4020C94F402BB
:100010000C94F4020C94F4020C94F4020C94F40288
:100020000C94F4020C94F4020C94392A0C94F529E3
:100030000C94362B0C94F4020C94F4020C94F402FD
:100040000C94F4020C94F4020C94F4020C94F40258
:100050000C94F4020C94122B0C94F4020C94F40201
:100060000C94F4020C94F4020C94F4020C94F40238
:100070000C94F4020C94F4020C94F4020C94F40228
:100080000C94F4020C94F4020C94F4020C94F40218
:100090000C94F4020C94F4020C94F4020C94F40208
:1000A0000C94F4020C94F4020C94F402000000008E
:1000B0000000000000000000000000000000000040
:1000C0000000000000000000000000000000000030
:1000D0007E0F00D4FFFFFFC7000000780000000083
:1000E000000000002A2B2800000000000000000093
:1000F0000000000000000029000000002C1E342039
:10010000212224342627252E362D3738271E1F205E
:100110002122232425263333362E37381F040506A3
:100120000708090A0B0C0D0E0F10111213141516E7
:100130001718191A1B1C1D2F3130232D35040506E5
:100140000708090A0B0C0D0E0F10111213141516C7
:100150001718191A1B1C1D2F3130354C35001E0085
:100160001F002000210022002B2F14001A0008007D
:1001700015001700292104211624072809220A0046
:10018000E1001D001B000600190005000000000032
:10019000E30028412B212C083100270026002500F0
:1001A000240023002A00130012000C0018001C0079
:1001B000340033210F240E280D220B001E7C380042
:1001C000370036001000110000000000E6002C424D
:1001D0002A22AE0045003A003B003C003D003E00B4
:1001E00035021E021F022002210222020100E0004D
:1001F000E200E300E1002D0201002F0230022F0097
:1002000030002E02000000000100010001002C0956
:10021000440043004200410040003F004C002702E0
:100220002602250224022302000000004F00520093
:1002300051005000010000004D004B004E004A00EC
:1002400000000000010001000100A80045003A0084
:100250003B003C003D003E0035001E001F0020001A
:100260002100220001002F0230022D022E02310255
:1002700001002F0030002D002E0031000000000092
:100280000100010001002C0944004300420041002C
:1002900040003F004C0027002600250024002300DA
:1002A0002900E000E200E300E1002D000100AE00C3
:1002B000A900AA00AB002E00000000000100010010
:1002C0000100010044003A003B003C003D003E00BC
:1002D00044003A003B003C003D003E000100207815
:1002E0000000D300D100D2000100217827782378C4
:1002F00025782978000000000100010001000100BC
:10030000450043004200410040003F0045004300DB
:100310004200410040003F00007C0000D000CD00C2
:10032000CE00CF0001000000DC00D900DA00DB00C5
:1003300000000000010001000100010000010101B6
:100340000101010101010202020202020202020392
:100350000303030303030304040404040404050562
:100360000505050606060606070707070708080825
:1003700008090909090A0A0A0B0B0B0C0C0C0D0DD4
:100380000D0E0E0E0F0F0F1010111111121213136C
:100390001414151516161717181819191A1A1B1BE5
:1003A0001C1D1D1E1E1F2020212222232424252641
:1003B00026272829292A2B2C2D2D2E2F3031323279
:1003C000333435363738393A3B3C3D3E3F40414285
:1003D000434445464748494A4C4D4E4F505153546B
:1003E000555658595A5B5D5E5F616264656668691F
:1003F0006B6C6D6F7072737577787A7B7D7E80829F
:10040000838587888A8C8E8F91939596989A9C9EE7
:10041000A0A2A3A5A7A9ABADAFB1B3B5B7BABCBEF7
:10042000C0C2C4C6C9CBCDCFD1D4D6D8DBDDDFE2C4
:10043000E4E7E9EBEEF0F3F5F8FAFDFF0501090258
:10044000A10185020901A10005091901290815006A
:1004500025019508750181020501093009311581D1
:10046000257F95027508810609381581257F95013C
:1004700075088106050C0A38021581257F950175DE
:10048000088106C0C005010980A101850319012A60
:10049000B700150126B700950175108100C0050C45
:1004A0000901A101850419012AA002150126A00253
:1004B000950175108100C005010906A10105071904
:1004C000E029E71500250195087501810295017560
:1004D0000881010507190029FF150026FF00950670
:1004E00075088100050819012905150025019505E4
:1004F00075019102950175039101C009023B00024B
:100500000100A0FA09040000010301010009211102
:1005100001000122440007058103080001090401CC
:10052000000103000000092111010001227B0007E6
:10053000058203200001120100020000000810CB18
:1005400056642006010200011A0349007200690086
:10055000730020005200650076002E002000360057
:10056000620000000E034B00650065006200690038
:100570006F0000000403090411241FBECFEFDAE06E
:10058000DEBFCDBF04B603FE18C080917B059091FD
:100590007C05A0917D05B0917E058730904BA740EA
:1005A000B04B59F410927B0510927C0510927D059A
:1005B00010927E05E0E0F8E3099525E0AEEBB2E0AD
:1005C00001C01D92AB37B207E1F712E0A0E0B1E045
:1005D000ECEFF7E602C005900D92AE3BB107D9F7FC
:1005E0000E945D2B0C9483330C9400009091730552
:1005F000937061F081110BC0946090937305109219
:10060000530180917205816080937205089585324F
:1006100010F09069F2CF880F880F982BEECF482FFB
:10062000209141059091080557E0291302C080E010
:10063000089530E0529FF001539FF00D1124E75FC1
:10064000FA4F8181681306C08081481303C08581F9
:100650008111EECF2F5F3F4F2770E7CF9091730549
:10066000937071F08093740560937505413A08F0BA
:1006700040EA40937605809172058160809372050F
:100680000895E8EDF0E080818E7F80831092E20093
:100690001092DA001092E100A0EEB0E08C9181603F
:1006A0008C9380818F77808319BCA7EDB0E08C910B
:1006B0008E7F8C9380818F7E80831092F1040895C9
:1006C0002091E4003091E50095E6A9012091EC002D
:1006D000822F817020FF06C08091E80080FF06C055
:1006E00080E008952091E80022FD1AC08091FE0468
:1006F000882389F0853089F08091EB0085FD0FC05B
:100700002091E4003091E50042175307F9F291502F
:10071000E1F684E0089582E0089583E0089581E0A1
:1007200008958091000587FF13C08091E80082FF43
:1007300006C08091E8008B778093E80004C0809128
:10074000FE048111F2CF08958091FE048823D9F32D
:100750008091E80080FFF8CF8091E8008E77ECCFA1
:10076000982F9093E900242F762F50E0891731F0CD
:100770007091EC002091ED005091F00021FD07C038
:100780009F5F973071F78093E90081E00895309181
:10079000EB003E7F3093EB003091ED003D7F3093D6
:1007A000ED003091EB0031603093EB007093EC0082
:1007B0002093ED005093F0002091EE0027FDE0CF54
:1007C00080E00895B0E0A0E0E8EEF3E00C940132A0
:1007D000C8EDD0E088818F7E8883E7EDF0E08081EE
:1007E0008160808384E082BF81E08093F10488810E
:1007F0008E7F888302EE10E0F80110821092DA00FA
:1008000081EEC82ED12CF601108288818F778883E3
:1008100088818068888388818F7D888319BC109245
:10082000FE041092FF041092FD041092FC0490EE5E
:10083000E92EF12CF70180818B7F80838881816094
:10084000888342E060E080E00E94B003F60180818E
:100850008E7F8083F80180818160808380818860C1
:100860008083F70180818E7F808388818061888387
:10087000CDB7DEB7E8E00C941D32FC01809106058F
:100880009091070586179707A0F06115710529F467
:100890009091E8009E779093E80090E061157105D3
:1008A00051F4911108C08091E80082FF34C080E0CB
:1008B0000895BC01F2CF8091FE048823C1F18530F8
:1008C000C1F18091E80083FD30C08091E80082FD95
:1008D000EACF8091E80080FFE1CF8091F300209182
:1008E000F200382F6115710519F02830310558F0E4
:1008F00091E02830310509F090E02091E8002E7752
:100900002093E800CBCF81918093F1006150710971
:100910002F5F3F4FE7CF8091FE04882341F0853061
:1009200041F08091E80083FFBECF81E0089582E02E
:10093000089583E008958091F30408959C014FB7D2
:10094000F8948091ED049091EE04A091EF04B091A1
:10095000F0044FBF821B930B08952FB7F89460915A
:10096000ED047091EE048091EF049091F0042FBF9C
:1009700008952FB7F8948091ED049091EE04A09122
:10098000EF04B091F0042FBF08959C01FC01329652
:100990009FEF80E04191461751F09F3F19F44111BC
:1009A00001C0982F8F5F8630A9F79F3F09F4089503
:1009B000290F311D97FD3A95F90162830895A3E04F
:1009C000B0E0E5EEF4E00C9407322091EA043091B7
:1009D000EB0428173907A1F09093EB048093EA0405
:1009E000E091E804F091E904309751F024E0298384
:1009F0009B838A830680F781E02DCE0101960995BD
:100A00002396E2E00C942332A3E0B0E0EAE0F5E0C4
:100A10000C9407322091E6043091E7042817390737
:100A2000A1F09093E7048093E604E091E804F0914C
:100A3000E904309751F023E029839B838A83068061
:100A4000F781E02DCE01019609952396E2E00C9402
:100A50002332FC01680F791F8FEF91E321918227E8
:100A600028E030E087FF09C0880F8927215031092D
:100A7000C9F7E617F70791F70895880FF7CFFA013E
:100A8000811101C0FB01099508951092F3030895A7
:100A9000E3E7F5E0248130E1231B08F420E0248320
:100AA000809172058160809372050895E3E7F5E017
:100AB000248130E1230F08F42FEF24838091720505
:100AC0008160809372050895E3E7F5E0438120E1BA
:100AD000421B08F440E08181628190E00E942E0375
:100AE0000895E3E7F5E0438120E1420F08F44FEF7A
:100AF0008181628190E00E942E030895E3E7F5E092
:100B0000628120E1621B08F460E08181438190E012
:100B10000E942E030895E3E7F5E0628120E1620F71
:100B200008F46FEF8181438190E00E942E030895C5
:100B3000E3E7F5E08181438162818850990B0E944F
:100B40002E030895E3E7F5E0818190E0438162811F
:100B500008960E942E0308958091730586958695C8
:100B6000815009F484E20E94F60208958091730591
:100B7000869586958F5F853208F081E00E94F602A7
:100B8000089580934B0180917305837080934A018F
:100B90000E94341283E0809353010895EF92FF92F4
:100BA0000F939701201B31092F3F310519F010F0E9
:100BB0002FEF30E02095382F320F08F43FEF832FCE
:100BC0000F91FF90EF900895EF92FF920F9397018E
:100BD000201B31092F3F310519F010F02FEF30E0C5
:100BE000322F3095482F430F08F44FEF842F620FB8
:100BF0000F91FF90EF900895EF92FF920F93972F30
:100C0000093438F4B701601B71096F3F710519F0A1
:100C100010F06FEF70E0485F5F4F4131510540F0D9
:100C2000A901485F5F4F4131510510F06FEF70E04F
:100C30006095482F460F08F44FEF842F37FF02C00E
:100C40002D5F3F4F35952795359527956091740514
:100C5000620F792F0F91FF90EF900895EF92FF921E
:100C60000F931F930E0D1F2D111DF90137FF03C0A8
:100C7000F195E195F10924E0EE0FFF1F2A95E1F7C8
:100C8000EF3FF10519F014F0EFEFF0E09A0157FF94
:100C900003C031952195310994E0220F331F9A95B5
:100CA000E1F72E173F070CF4F901E00FF11FEF3FBA
:100CB000F10519F010F0EFEFF0E0E095282F3E2F4E
:100CC000230F08F42FEF822F1F910F91FF90EF90C9
:100CD0000895EF92FF920F93970195E0099F200DE1
:100CE000311D11242F3F310519F010F02FEF30E0A6
:100CF0002095382F320F08F43FEF832F0F91FF908C
:100D0000EF90089522E8241B08F420E0620F089574
:100D10004095282F429F412D1124842F08950F9331
:100D20001F9310E0F801EE0FFF1FEF50FE4F908170
:100D3000905797FD9195000F111FF801EB54FE4F4E
:100D400005AD0052110B2003F001219FF00D11247D
:100D500008E310E0091B110997FD1395400390016A
:100D6000419F300D1124E20FF31F9F01220F331F0B
:100D70002E0F3F1F37FF02C021583F4F220F232F56
:100D8000221F330B620F1F910F9108950F931F9332
:100D9000522F10E0F801EE0FFF1FEB54FE4FA5ADF0
:100DA000A052BB0B9D015203F001539FF00D112483
:100DB000000F111FD801AF50BE4F0C910057110BFF
:100DC00040039001419F300D11242E0F3F1F37FF2C
:100DD00002C0215C3F4F96E0359527959A95E1F743
:100DE000620F1F910F9108950F931F93522F10E0E0
:100DF000F801EE0FFF1FEB54FE4FA5ADA052BB0B49
:100E00009D015203F001539FF00D1124000F111F9B
:100E1000D801AF50BE4F0C910057110B4003900109
:100E2000419F300D11242E0F3F1F37FF02C0215864
:100E30003F4F220F232F221F330B620F1F910F9161
:100E40000895EF920F93972F23E0029FB001112492
:100E5000759567956E0D792F0F91EF900895322F4C
:100E600050E0FA01EE0FFF1FEB54FE4F95AD90528C
:100E700097FD9195440F551FFA01EF50FE4F2081C9
:100E8000231B330B290F311D97FD3A95620F0895EF
:100E9000E42FF0E0EE0FFF1FEB54FE4F65AD621B39
:100EA0000895E42FF0E0EE0FFF1FEF50FE4F60813A
:100EB000621B0895622F0895E42FF0E0EE0FFF1FEC
:100EC000EF50FE4F408134EE439F412D1124E82F17
:100ED000F0E050E0445E5F4FDA01A21BB1099D01D2
:100EE000B7FF03C031952195310993E0220F331FDD
:100EF0009A95E1F7AF01421B530B9A0157FD20E091
:100F0000582F259F212D1124822F0895E42FF0E0E2
:100F1000EE0FFF1FEF50FE4F408134EE439F412DF7
:100F20001124E72FF0E050E0445E5F4FDA01A21B8E
:100F3000B1099D01B7FF03C031952195310993E0B7
:100F4000220F331F9A95E1F7AF01421B530B9A0111
:100F500057FD20E0279F212D1124722F08950E9414
:100F60002A0A0895FF920F931F93CF93DF93182FB0
:100F7000062FF42ED0E0C0E02F2D402F612FCE01A0
:100F80000E94AF072196C434D105B1F7CDB7DEB7C3
:100F9000E5E00C942032FC019B01009729F480E0ED
:100FA00077FF2BC080E80895AC0197FF04C0442769
:100FB0005527481B590BB901640F751F37FD10C029
:100FC000241B350BC901A5E0880F991FAA95E1F7ED
:100FD0000E94423280E2861BF7FF0FC08195089580
:100FE000CB0165E0880F991F6A95E1F7BA01621B92
:100FF000730B0E94423280E6EECF0895EF920F937A
:10100000CF93DF93D72FC82FC9010E19BA010E94C1
:10101000CB07602F681B7D2F8C2FDF91CF910F9115
:10102000EF9008950F93CF93DF93D72FC82FC90167
:10103000BA010E94CB07682F600F7D2F8C2FDF91A4
:10104000CF910F910895EF920F931F93CF93DF935A
:10105000D62FC72F182FC9010E19010FBA010E94F0
:10106000CB07081B202F219F212D1124822F6D2FAC
:101070007C2FDF91CF911F910F91EF900895EF9208
:101080000F931F93CF93DF93D62F172FC82FC9012C
:101090000E19070FBA010E94CB07702F781B719FA2
:1010A000712D11246D2F8C2FDF91CF911F910F91F6
:1010B000EF9008950F931F93CF93DF93D62FC72FF1
:1010C000182FC901212F201B022FBA010E94CB0724
:1010D000982F990F990F891B800F282F219F212D61
:1010E0001124822F6D2F7C2FDF91CF911F910F91B3
:1010F00008950F931F93CF93DF93D62F172FC82FE9
:10110000C901272F201B022FBA010E94CB07982F5D
:10111000990F990F782F791B700F719F712D1124E2
:101120006D2F8C2FDF91CF911F910F910895E82F94
:1011300086FDE0952E2F2F7086FD2F5FE695E695B4
:10114000E695E670F0E0E355FE4F9181929F902D79
:10115000212D112492959F702295207F922B208122
:10116000920F87FD919580E8890F0895AC01823038
:10117000910508F408959FEF413E8EE1580740F431
:101180009A0195E0369527959A95E1F798E0920FA8
:1011900061E0E62FE90FFF27FF1F9F013595279597
:1011A000822F229FF001239FF00DF00D11244E1786
:1011B0005F0738F49FEF920F961758F78FEF860F5F
:1011C00008952F3FE9F361E0620FF6CF0F93CF93BD
:1011D000DF93D72FC82F47FD419588E390E0841B0C
:1011E000910947FD9395889FB001899F700D700DFF
:1011F0001124229FC001239F900D900D1124860F72
:10120000971F0E94B608982F990F890F682F600FBB
:101210007D2F8C2FDF91CF910F91089530E020E04A
:10122000869F212D969F200D311D1124C9010895FF
:10123000AF92BF92CF92DF92FF920F931F93CF9303
:10124000DF93362F472FE82FF0E0E45CFC4F71115D
:101250000FC0E4918E2F2E2F6E2F722FDF91CF9122
:101260001F910F91FF90DF90CF90BF90AF900895A6
:10127000C72FD0E02491F22E022F10E056E0659F98
:10128000C0011124EFEFF0E0BF010E942E32832F46
:1012900090E0880F991F35E5369FD001379FB00D3C
:1012A00011248A1B9B0B982F990F980F6F01CC1A52
:1012B000DD0AC09ED001C19EB00DD09EB00D11249C
:1012C0008B2F499FA0011124452F55276F01C41A68
:1012D000D50AC09EA001C19E500DD09E500D112474
:1012E0005F01A91AB108AC9E6001AD9ED00CBC9EF6
:1012F000D00C1124CD2CDD24EC19FD09E09FE00178
:10130000E19FD00DF09FD00D1124ED2F62307105BB
:10131000A1F050F46115710509F49ECF613071059B
:1013200081F0EB2F852F98CF6430710569F080F044
:101330006630710509F490CFF4CFE22F2B2F8D2F5B
:101340008BCFE22F252F88CFEB2F822F2D2F84CF0D
:101350002B2F8F2DE52F80CF0E94B9049C019091F7
:10136000800380918103982B21F030937D0320939B
:101370007C039091820380918303982B21F030931A
:101380007B0320937A03E091E804F091E90430971D
:1013900049F082E080937E030480F581E02D8EE7A2
:1013A00093E0099508958091790380FD16C081FD31
:1013B00016C082FD16C0809178038823A1F0883280
:1013C00080F428E0829FC001112468E270E00E944E
:1013D0004232862F672B39F0089582E0089584E029
:1013E000089588E0089581E008958091790380FD53
:1013F00014C081FD14C082FD16C08091770388233C
:1014000081F08E3180F420E5829FC00111246EE1CD
:1014100070E00E944232862F089584E1089588E2A8
:10142000089588E0089580E50895282F35EB23037B
:10143000C001112497FF04C080589109892F089595
:1014400080589F4FFBCF80E0089589B185FB8827A6
:1014500080F90895FF920F931F93CF93DF93EC01D0
:10146000F62E042F122F0E94250A811123C0C232AA
:10147000D1051CF1A297FE01EE0FFF1FDF01AC0F9B
:10148000BD1FAC50BC4F11968C9111978F1107C0A6
:101490008C91801304C012968C91811771F081E0B9
:1014A0008093F303EC0FFD1FEC50FC4FF18200839F
:1014B000128303C0C232D105F4F2CDB7DEB7E5E046
:1014C0000C942032CF93C82F0E94250A882329F03C
:1014D00081E0C23228F080E003C081E0C434D8F754
:1014E000CF910895A8E0B0E0E8E7FAE00C94F73176
:1014F000282E7C836B83209150018EE0289F802DC5
:1015000011248D83825F8983853410F034E439831C
:101510000E94250A882329F08981833210F092E203
:1015200099830E94250A811105C0ED81E23210F4F1
:10153000F2E2FD83209146052A839D81892F90E068
:1015400098878F83880F991FFC01EB54FE4F6F0122
:10155000822D90E09C012F5F3F4F3E832D83898138
:101560009F81981730F00E94620A2896E2E10C945D
:101570001332EF81F885E758FD4F8081909151013A
:101580008923F9F030907405409075058D819E8116
:101590008A5B9A4F3C01522C10E0FA815F16D8F01A
:1015A00020917605129F112D1124632D742D812F0A
:1015B0000E941809462F282F672F8F8198850E9437
:1015C000AF072F8138852F5F3F4F38872F8332E059
:1015D000C30ED11CC4CFF30181913F01F601A4AC2D
:1015E000A81ABB0885ACF3018781881A9908AA9CC0
:1015F0009001AB9C300D300D1124889CC001899C5A
:10160000900D900D1124820F931F0E94B608082F91
:101610006091770521E0620F08F46FEFF301EE0FA0
:10162000FF1FE654F540858996890E940E097C01CA
:101630009401A501632D742D812FEB81FC81099507
:10164000362E472E5394182FA8CFB0E0A0E0EBE23F
:10165000FBE00C9401327C01C09150018EE0C89FE8
:10166000C02D11241EE01C0F153408F014E40E9454
:10167000250A882319F0133208F012E20E94250A85
:10168000811103C0C23208F4C2E22091770531E033
:10169000230F08F42FEF30E050E040E06FEF7FEFD2
:1016A00080E090E00E9420336901D0E001E02C2F1F
:1016B000C11740F0812F0E94620ACDB7DEB7E8E083
:1016C0000C941D32FE01E758FD4F8081909151012D
:1016D000892309F1409146054150042E000C550B19
:1016E00047FF1BC0C60160917705600F08F46FEFDC
:1016F0000E940E09AC01609174057091750580918E
:101700007605F70109950E941809462F282F672FA3
:10171000CE010E94AF072196CACFFA01EA5BFA4FC9
:10172000818982130AC0FA01EE0FFF1FEA5BFA4FAC
:10173000818D928D8C159D05B0F241505109D0CF0D
:10174000B0E0A0E0E6EAFBE00C94FF316C01C09150
:1017500050018EE0C89FC02D11241EE01C0F1534CF
:1017600008F014E40E94250A882319F0133208F0C7
:1017700012E20E94250A811103C0C23208F4C2E2BB
:101780006091770566956695809142059091430535
:101790000E940E09F82E80E48F0D0E94970890E8B1
:1017A000B92EB80E8F2D0E94970820E8A22EA80E01
:1017B000D0E0C11740F0812F0E94620ACDB7DEB79A
:1017C000EAE00C941B32FE01E758FD4F80819091B6
:1017D00051018923A1F06091740570917505809184
:1017E0007605EF2C0C2F2A2D4B2DF60109950E9422
:1017F0001809462F282F672FCE010E94AF07219688
:10180000D8CFB0E0A0E0E7E0FCE00C94FB315C0155
:10181000C09150018EE0C89FC02D11241EE01C0F06
:10182000153408F014E40E94250A882319F01332B5
:1018300008F012E20E94250A811103C0C23208F4A6
:10184000C2E26091770566958091420590914305CB
:101850000E940E09F82ED0E0CE01880F991F9C013E
:101860002B543E4F6901C11740F0812F0E94620A3C
:10187000CDB7DEB7EEE00C941732FE01E758FD4F0E
:10188000808190915101892379F1F60184AD282F4F
:101890002057330B490185ADE82FE052FF0B3F0184
:1018A000889C9001899C300D300D1124EE9FC00161
:1018B000EF9F900D900D1124820F931F0E94B60888
:1018C000082F609174057091750580917605EF2C55
:1018D0009301A401F50109950E941809462F282FAC
:1018E000672FCE010E94AF07F2E0CF0ED11C2196E8
:1018F000BACFB0E0A0E0EFE7FCE00C9400326C015E
:10190000C09150018EE0C89FC02D11241EE01C0F15
:10191000153408F014E40E94250A882319F01332C4
:1019200008F012E20E94250A811103C0C23208F4B5
:10193000C2E26091770566958091420590914305DA
:101940000E940E09B82ED0E0CE01880F991F9C018D
:101950002B543E4F7901C11740F0812F0E94620A3B
:10196000CDB7DEB7E9E00C941C32FE01E758FD4F1D
:101970008081909151018923C1F0F70125AD20525A
:10198000330B44AD4057550B60917405709175054C
:10199000809176050B2DF60109950E941809462FB6
:1019A000282F672FCE010E94AF07F2E0EF0EF11C47
:1019B0002196D1CFEF92FF920F931F93CF93DF9396
:1019C0007C01C09150018EE0C89FC02D11241EE003
:1019D0001C0F153408F014E40E94250A882319F01E
:1019E000133208F012E20E94250A811103C0C232AC
:1019F00008F4C2E2609177056695669521E0620F72
:101A000008F46FEF80914205909143050E940E0902
:101A1000082FD0E0C11740F0812F0E94620ACDB795
:101A2000DEB7E6E00C941F32FE01E758FD4F8081DF
:101A300090915101892391F0609174057091750521
:101A400080917605202F4C2FF70109950E941809E7
:101A5000462F282F672FCE010E94AF072196DACF9D
:101A6000F894E82FE295EF70F0E031A1282F2F7065
:101A700081E090E001C0880F2A95EAF7982F9095B1
:101A8000932391A392A1892B82A378940895909196
:101A9000500392FF10C041E0282F2471243009F038
:101AA00040E031E0282F2871283009F030E043175A
:101AB00011F02CE0822793FF10C041E0282F247101
:101AC000243109F040E031E0282F2871283109F055
:101AD00030E0431711F02CE082273091510330FFA2
:101AE00010C051E0282F2171213009F050E041E071
:101AF000282F2871283009F040E0541711F029E010
:101B0000822731FF10C041E0282F2171213109F0D7
:101B100040E031E0282F2871283109F030E04317E8
:101B200011F029E0822794FD877E0895823891057F
:101B3000B9F1B0F48133910509F47DC048F48932DC
:101B4000910509F46DC08A32910509F47BC00895AE
:101B50008533910509F45FC08933910509F1089532
:101B6000833E9105D9F138F4803E910529F1823EFA
:101B7000910579F10895863E9105D9F1873E910549
:101B800009F43EC0843E910541F52091510321FFA7
:101B900024C08091500384FD19C087EE90E0089521
:101BA00020915003237009F05AC02091510323FF64
:101BB00014C089E290E008952091500320FD38C0C0
:101BC0003091510330FF09C024FF43C090E080E012
:101BD00008952091500322FDF7CF089520915003DE
:101BE00022FD3AC03091510330FD39C024FFF5CFBA
:101BF000EDCF2091500323FFF0CF24FDE7CFCDCFD1
:101C00002091500323FD2EC03091510331FFEECFC0
:101C100084EE90E008952091500325FFDECFC9CFD8
:101C20002091500325FD21C02091510323FFD5CFE2
:101C300089E390E0D2CF2091500326FFCECF8AE2F5
:101C400090E008952091500326FFC7CF81E390E0F4
:101C5000089583EE90E0089582EE90E0089580EE7E
:101C600090E0089586EE90E0089585E390E0089571
:101C7000972F7A30B8F46630A8F48430B0F470E06E
:101C800026E0929F600D711D1124FB019CE3899F4A
:101C9000E00DF11D1124EE0FFF1FE45AFE4F859158
:101CA0009491089580E090E0089581E0FCCF1F9327
:101CB000CF93DF930E94960DEC01C11580E5D80704
:101CC000F0F5C11580E4D80708F09CC0C03ED105EE
:101CD00020F5CD3CD10508F082C0C83AD10578F492
:101CE000C53AD10508F073C0C130D10519F120976C
:101CF00009F1C430D105F0F4D0E0C0E01BC0C33C12
:101D0000D105D0F7C85AD0E0CC0FDD1FCB59DE4F3C
:101D10000990D881C02DD4640DC0C11580E2D807C8
:101D200008F0D1C0C11581E0D80708F05AC0C83EFC
:101D3000D10510F7CE01DF91CF911F910895C036E4
:101D400082E5D80718F5C03482E5D80708F06BC0E3
:101D5000C03282E5D80708F05FC0C11582E5D80718
:101D600008F497C02C2F2695269580E2289F900195
:101D700011248C2F8370C1E0D0E002C0CC0FDD1F96
:101D80008A95E2F7C22BD32BDD68D4CFC03A82E527
:101D9000D80760F4C03882E5D80708F459C0CF717D
:101DA000D0E0DC2FCC27C46FD06AC4CFC03C82E522
:101DB000D80708F462C0C03E82E5D80708F09CCF7F
:101DC000DC2FCC27CC27DF71C06FD06AB3CFC55AC8
:101DD000D0E0CE59DE4FC881D0E0D064ABCFD06523
:101DE000A9CF8D2F0E94470D182FCE0199270E9451
:101DF000960DC12FD0E0DC2FCC27CC27DF71C82B6C
:101E0000D92B98CFCE0199270E94960DCC27DF7051
:101E1000C82BD92BD06A8ECFCF71D0E0DC2FCC2746
:101E2000C16FD06A87CF2C2F26952695277080E228
:101E3000289F900111248C2F8370C1E0D0E002C054
:101E4000CC0FDD1F8A95E2F7C22BD32BDC6872CF53
:101E50002C2F26952695277080E2289F900111242B
:101E60008C2F8370C1E0D0E002C0CC0FDD1F8A95BB
:101E7000E2F7C22BD32BDA685DCF8C2F8F710E94D3
:101E8000470DC82FD0E0DC2FCC27CC27DF71D062E4
:101E900051CF8C2F8F710E94470D55E0D695C79575
:101EA0005A95E1F7CF70D0E0DC2FCC27282F30E017
:101EB00084FF05C044E0220F331F4A95E1F7C22B8F
:101EC000D32BD06937CF8D2F8F710E94470D182FDC
:101ED000CE0199270E94960DC12FD0E0DC2FCC2790
:101EE000CC27DF71C82BD92BD2CF9091510392FF11
:101EF00005C0909101039813809301030895809584
:101F00009091C00498239093C00408958091410556
:101F100090910805981301C008958F5F8770FACFDC
:101F2000B0E0A0E0E6E9FFE00C9400327C01009113
:101F30004E0310914F038091020390910303082BED
:101F4000192BCFE0D0E0CC24C394D12CBC2EC601F9
:101F50000C2E02C0880F991F0A94E2F78023912368
:101F6000892B49F4219790F7B12C8B2DCDB7DEB793
:101F7000E9E00C941C32B7018C2F0E94380E0E94AD
:101F8000570E019779F3F1CFCF93DF93EC010E94C5
:101F9000900FBE010E94380E0E94570EDF91CF9124
:101FA00008959A3078F5863068F5E82FF0E086E0FD
:101FB000989FE00DF11D11249E2F977083E0F695F8
:101FC000E7958A95E1F7EE0FFF1FEE0FFF1FEF5227
:101FD000FD4F50E040E080E0219130E0092E02C04A
:101FE000369527950A94E2F721703327042E01C015
:101FF000220F0A94EAF7822B4F5F5F4F443051055E
:1020000059F7089580E008959A3098F5863088F55C
:10201000E82FF0E086E0989FE00DF11D11248E2F4F
:10202000877041E001C0440F8A95EAF783E0F69596
:10203000E7958A95E1F7EE0FFF1FEE0FFF1FEF52B6
:10204000FD4F30E020E070E05191DF011197CB01AE
:10205000022E02C0969587950A94E2F781708195C9
:102060008527842385278C932F5F3F4F24303105AC
:1020700059F708959C01267033272630310531F435
:10208000886090934F0380934E030895877FF9CF24
:1020900021E030E002C0220F331F8A95E2F720953D
:1020A000309580914E0390914F03822393230E9499
:1020B0003A1008959091F802809589238093F80250
:1020C000282F277069F4891759F09091510392FFD6
:1020D00007C08695869586950E9448101092F80252
:1020E000089521E030E002C0220F331F8A95E2F705
:1020F00080914E0390914F03822B932B0E943A10B4
:10210000089590930303809302030895FC012481B2
:102110002223C1F0808191810E94C40F92959F700B
:10212000963091F058F4925F9F70923058F4803F4F
:1021300019F030F4883E30F481E008959A5FF4CFCE
:10214000843FD1F380E00895883EB0F3813FD1F71A
:10215000F3CF662309F45DC08D3C41F40E94F5097C
:102160008195809381030E94AC0908958E3C19F4F7
:102170000E94F509F6CF8F3C31F40E94F509819554
:1021800080938003F0CF803D19F40E94F509F8CFC9
:10219000893D29F40E94D30980938203E4CF8A3DCC
:1021A00021F40E94D3098195F7CF8B3D31F40E9431
:1021B000D309819580938303D6CF8C3D19F40E9477
:1021C000D309F8CF9FE2980F983070F4815D990B96
:1021D00021E030E001C0220F8A95EAF780917F0369
:1021E000822B80937F03BFCF8D3D31F480917903A3
:1021F000816080937903B7CF8E3D21F4809179037C
:102200008260F7CF8F3D09F0AECF80917903846073
:10221000F0CF409180038D3C59F48091810387FF7A
:102220000DC01092810341110BC01092770308C0BA
:102230008E3C81F48091810318169CF3442381F035
:102240008091820390918303892B09F08CCF1092A7
:10225000780389CF8F3C49F447FFF0CF1092800379
:10226000809181038111ECCFE0CF803D19F41416E9
:10227000ACF3E4CF90918203893D29F41916F4F66A
:1022800010928203DBCF8A3D19F497FFD7CFF8CFA6
:10229000909183038B3D29F497FFD0CF1092830355
:1022A000CDCF8C3D19F41916CCF3C8CF9FE2980F0F
:1022B000983090F4815D990B21E030E0B90102C0C3
:1022C000660F771F8A95E2F7CB01809590917F0387
:1022D000892380937F03B2CF8D3D31F480917903C0
:1022E0008E7F80937903AACF8E3D21F4809179036C
:1022F0008D7FF7CF8F3D09F0A1CF809179038B7F40
:10230000F0CFA6E0B0E0E7E8F1E10C9406324983B3
:102310005A8349815A819923A1F0222391F0CA015D
:102320000E94900F182F682F89819A810E940410B3
:1023300069817A81812F0E94380E2696E3E00C9401
:102340002232CA010E94D10F182FF2CF9C013A9578
:1023500021153F4150F5FC01EE27F170BC016627C5
:102360007270AC01442754709C012227387094FF8E
:102370000EC080E1EF2B09F480E0672B09F080624A
:10238000452B09F08064232B89F08068089581E053
:10239000EF2B09F480E0672B09F08260452B09F0F0
:1023A0008460232B19F08860089580E008950F93CE
:1023B0001F93CF93DF938B01EA019091FE04943039
:1023C00061F58093E9008FEF9091E800815095FDD1
:1023D00006C095ED9A95F1F700008111F5CF809137
:1023E000E80085FF1AC00E946003811111C080912E
:1023F000E80085FD06C08091E8008E778093E800B4
:10240000F2CFF80181918F018093F100219779F744
:102410008091E8008E778093E800DF91CF911F9143
:102420000F91089543E050E0BC0182E00E94D71173
:10243000089546E050E0BC0182E00E94D711089563
:10244000CF93DF93EC0148E050E0BC0181E00E94B3
:10245000D71188E0FE01A4EFB4E001900D928A95B7
:10246000E1F7DF91CF9108958091F303882341F143
:102470006E9A3EB13F7B2EB120644FB7F89484EF43
:1024800093E0FC015191CF0168E02EB9000000C03B
:1024900057FF3EB9550F000000C000C000C03EB954
:1024A00000C06A9591F7F4E0803C9F0751F74FBF59
:1024B0008FE594E00197F1F700C000001092F3035C
:1024C0000895B0E0A0E0E7E6F2E10C94FF317C0172
:1024D0005B016A0180913B0301E010E08A3010F457
:1024E0000AE010E0C1E0D0E0B501C701F6010995AE
:1024F000811104C021960C171D072CF4CDB7DEB74F
:10250000EAE00C941B32CC9F9001CD9F300D300D32
:10251000112490E080E045E34A95F1F70000019630
:1025200082179307C1F7E0CF80911003811110C08B
:102530008091D80080618093D8008AE18A95F1F774
:1025400000C08091D90080FF0AC081E08093100311
:1025500081E090911003913009F080E0089582E0CD
:10256000809310030E9441031092FE04F1CF0E9459
:102570009412882359F0E091E804F091E90430972F
:1025800029F00190F081E02D0995089580E00895EB
:102590000F931F930E949412882329F00E94AD0488
:1025A0001F910F9108950E94AD0400913C0310917A
:1025B0003D0320913E0330913F03600F711F821F46
:1025C000931FEECFCF92DF92EF92FF926B017C01CF
:1025D0000E9494128823A1F02FB7F8946091ED0423
:1025E0007091EE048091EF049091F0042FBF6C196C
:1025F0007D098E099F09FF90EF90DF90CF9008959D
:102600000E94C812F4CF0E94C8120895E3E7F5E0D3
:1026100085E380838091540190915501A0915601EA
:1026200081839283A3838FE784838FEF858348E040
:1026300050E068E170E0CF010E94EC321092720528
:102640000895B0E0A0E0E7E2F3E10C94FA31F82E4F
:1026500080914B018F1124C090917305937020914C
:102660004A0130E081E09217130609F480E081709E
:10267000809352018091780590915101981739F01B
:102680008093510140E060E080E00E94B20724E2C4
:102690002F1560F0EF2DF0E0EB57FC4C0C94563208
:1026A00081E0E5CF80915201811102C080E074C1C8
:1026B00040E060E080E00E94B207F8CFC091500196
:1026C0008EE0C89FC02D11241EE01C0F153408F0A9
:1026D00014E40E94250A882319F0133208F012E24C
:1026E0000E94250A811103C0C23208F4C2E260913F
:1026F000740570917505809176050E941809062F62
:10270000E72ED82ED0E0C11720F0812F0E94620A58
:1027100043C1FE01E758FD4F80819091510189230B
:1027200031F02D2D402F6E2DCE010E94AF07219646
:10273000EACFC09150018EE0C89FC02D11241EE049
:102740001C0F153408F014E40E94250A882319F0A0
:10275000133208F012E20E94250A811103C0C2322E
:1027600008F4C2E2E090750500917605D0917405F9
:102770006D2F7E2D802F0E941809D62EC72EB82EC1
:10278000609177056D0F7E2D802F0E941809062F0E
:10279000E72EA82ED0E0C11708F0B7CFFE01E7580A
:1027A000FD4F908180915101892359F02A2D402FAE
:1027B0006E2D90FD03C02B2D4D2D6C2DCE010E9452
:1027C000AF072196E8CFC09150018EE0C89FC02D81
:1027D00011241EE01C0F153408F014E40E94250A91
:1027E000882319F0133208F012E20E94250A8111A1
:1027F00003C0C23208F4C2E2E0907505D0907605BD
:102800002091770500E4029F012D1124D0E0C1172B
:1028100008F07BCFFE01E758FD4F80819091510178
:102820008923B9F0FE01EE0FFF1FEB54FE4F85AD7B
:1028300082958F7060917405809F600D11247E2DAC
:102840008D2D0E941809462F282F672FCE010E9438
:10285000AF072196DCCFC09150018EE0C89FC02DFC
:1028600011241EE01C0F153408F014E40E94250A00
:10287000882319F0133208F012E20E94250A811110
:1028800003C0C23208F4C2E2E0907505D09076052C
:102890002091770500E4029F012D1124D0E0C1179B
:1028A00008F033CFFE01E758FD4F80819091510130
:1028B0008923D9F0FE01EE0FFF1FEB54FE4F64ADEC
:1028C000069FB0011124E5E075956795EA95E1F75B
:1028D00080917405680F7E2D8D2D0E941809462F5A
:1028E000282F672FCE010E94AF072196D8CFC09125
:1028F00050018EE0C89FC02D11241EE01C0F15341E
:1029000008F014E40E94250A882319F0133208F015
:1029100012E20E94250A811103C0C23208F4C2E209
:1029200000917405D0917505E0907605609177056A
:1029300066956695669580914205909143050E9443
:102940000E090E949708805887FD8195880F282FCF
:102950003E2D239F212D1124822F602F7D2F0E9439
:102960001809062FE72ED82ED0E0C11708F0CDCEDB
:10297000FE01E758FD4F808190915101892331F08C
:102980002D2D402F6E2DCE010E94AF072196EDCF49
:1029900086E897E00E94DA0C909150019F5F909337
:1029A000500181110CC082E080935301809152014B
:1029B000811105C0F11003C083E080935301CDB7AE
:1029C000DEB7EFE00C9416328CE597E0E3CF89E7B1
:1029D00098E00E94790CE0CF8AE598E0FACF8FE387
:1029E00098E00E94010CD8CF83E298E0FACF8AE504
:1029F00097E0D0CF81E597E0CDCF88E497E0CACFCC
:102A00008FE297E0C7CF81E297E0EBCF86EE98E0C8
:102A1000E0CF82E198E0DDCF8EEF97E0E2CF84EF68
:102A200096E00E94A00BB8CF86EC96E0FACF8FE834
:102A300096E0F7CFE09050018EE0E89EE02C112464
:102A40000EE00E0D053408F004E40E94250A8823E8
:102A500019F0033208F002E20E94250A811105C034
:102A600082E2E81610F442E2E42E809152018823BB
:102A700061F040E060E080E00E94B207E9E8F3E046
:102A80008CE3DF011D928A95E9F780915001811155
:102A900015C080918503909186030E949E0421E0D9
:102AA0008931910508F420E020938403499730F0A0
:102AB0000E94B9049093860380938503A12C912CE6
:102AC000B12C96E0792E25E5622E3AEA832E552424
:102AD000539405C09DE0991508F453C0B12C2B2DDB
:102AE00030E07A9CE0011124FE01EB54FE4FE20F2E
:102AF000F31FC080CE1408F43CC0C01608F039C0E3
:102B00009394D12CF601E758FD4F808190915101AB
:102B1000892309F42EC0C757DC4FC20FD31F188179
:102B2000312F262D321B08F430E070917505282DC9
:102B3000210F08F42FEF40917605822F880F820F26
:102B40008E5F282F249F212D1124822F682D631B37
:102B50000E941809462F282F672FC6010E94AF0731
:102B600080918403882329F0352D131B08F410E08D
:102B70001883B39446E0B412B2CFA3948AE0A812AB
:102B8000A9CF802FC3CDE0907605A3E0EA9EE001B7
:102B90001124D695C795D695C7955C2EAE2CB12C31
:102BA0008FEF90E0B5010E944232762E8091520163
:102BB000882371F040E060E080E00E94B207E9E81D
:102BC000F3E08CE3DF011D928A95E9F71092880308
:102BD000809187038F5F8093870310E000E0AC1A39
:102BE000BD0A6801612CC80187579C4F4C01809138
:102BF0008803862909F040C00E94A8328535954097
:102C0000DCF5F401E082F601EB54FE4FE081EF3F8A
:102C1000C9F0D601A757BC4F2C91F0E05216E0F551
:102C200030E02C1B3D0B2C9FC0012D9F900D3C9F35
:102C3000900D1124B5010E942E32262F4E2DCF016A
:102C40000E94AF076394F6E0CF0ED11C2AE0621217
:102C5000CECF0F5F1F4F0630110519F68091870305
:102C6000781202C010928703809188038F5F8D31A4
:102C7000E8F4809388031ACDF601E757FC4F808172
:102C8000882309F28E1508F0BECF90918703791240
:102C9000BACF81508083B7CFE29EC0011124BE011C
:102CA0000E942E32462F20E060E0C9CF10928803A8
:102CB00029EB33E089E09FEF9E0DA9E8B3E0F9012D
:102CC000893041F4D6964C91D697E41203C0D6963B
:102CD0009C93D69740814E1510F09083E682119612
:102CE000319643E0AF38B40759F781502650310987
:102CF0008111E3CFDBCC88E896E00E94250B4CCE17
:102D000082E896E0FACF8091460521E0382F321B09
:102D100008F430E0832F69E676E00E94720A3CCE28
:102D200069E676E080E0F9CF8091460521E0482F02
:102D3000421B08F440E0842F6EE276E0EECF6EE2B4
:102D400076E0F0CF8091460521E0382F321B08F461
:102D500030E0832F6CEF75E0E0CF6CEF75E0E2CFF1
:102D60008091460521E0482F421B08F440E0842F63
:102D700064EE75E0D2CF64EE75E0D4CF8091460565
:102D800021E0382F321B08F430E0832F6EEC75E021
:102D9000C4CF6EEC75E0C6CF4F925F926F927F9278
:102DA0008F929F92AF92BF92CF92DF92EF92FF925B
:102DB000CF936091EE037091EF038091F0039091B7
:102DC000F1030E94E2126B017C010E94C8124B01C8
:102DD0005C018092EE039092EF03A092F003B09218
:102DE000F103A091C503E5ECF3E08A2F90E04FEFEB
:102DF0005FEF60E070E04C195D096E097F09A9136F
:102E00002AC08093C5038091F203C0E0811108C0FD
:102E100080917305C82FC37019F0C82FC695C69549
:102E200080915301813009F440C0882339F1823008
:102E300009F445C0833009F446C0CF91FF90EF906C
:102E4000DF90CF90BF90AF909F908F907F906F90CA
:102E50005F904F900895218D328D2901712C612C46
:102E6000441555056605770520F481509F5F32961D
:102E7000C6CF2C0D3D1D328F218FF8CF10925001FF
:102E80008092420590924305A0924405B092450578
:102E900089E2E5ECF3E0A6E4B5E001900D928A95B5
:102EA000E1F781E080935301C8CF8C2F0E9421135A
:102EB000CC2319F20E94250A0E94250ABECF8C2F2E
:102EC0000E94C105BACF80917205882351F048E075
:102ED00050E068E170E083E795E00E94EC321092E8
:102EE000720560914205709143058091440590916F
:102EF00045050E94E212603171058105910508F4D3
:102F00009CCF1092530199CFAFE0B0E0EAE8F7E12F
:102F10000C94FC318E010F5F1F4F8AE0D8011D9287
:102F20008A95E9F78CE3C82E81E0D82EF12CE12CAC
:102F3000AA24A394B12C2CE3822E21E0922EF60138
:102F400081916F018F3F09F442C0F894E82FE29518
:102F5000EF70F0E021A18F70A50102C0440F551F52
:102F60008A95E2F7CA01922F982B91A392A180959E
:102F7000892382A3789400C0E6E3F1E0712C31E06C
:102F800021912F3F09F46BC0A22FA295AF70B0E042
:102F900090968C9190E02F7002C0959587952A9518
:102FA000E2F780FD5CC0832F782A330F8E169F06D0
:102FB00039F7F601319780818F3F11F00E94300D73
:102FC00050EA5A95F1F7F801EE0DFF1D70828FEF70
:102FD000E81AF80A95E0E916F10409F0B0CF4AE0E2
:102FE00050E0B80182E493E00E94B832009741F0CB
:102FF0002AE0F801A2E4B3E001900D922A95E1F7EE
:1030000000914D03892B69F181E0809308030E94B0
:10301000B90490930703809306038091060390916F
:1030200007030E949E04059700F110E00E5A1C4F02
:1030300045E050E062E473E0C8010E94B832D12C50
:10304000892B51F085E0E2E4F3E0D80101900D9284
:103050008A95E1F7DD24D3941092080307C080E03D
:10306000A3CF809108038111D8CFD12C0E94941254
:10307000C82EE0914D03DE011B967D01882309F4E3
:103080007AC085E01D928A95E9F70E2F10E00E5A5E
:103090001C4F80913B038A30D8F54DE650E2B701D2
:1030A000C8010E946112882309F454C044E150E22F
:1030B000B701C8010E946112882309F44BC049E19D
:1030C0005FE1B701C8010E946112882309F442C080
:1030D00047EB5EE1B701C8010E9461128823D1F17C
:1030E00010923B0380914C0390E045E050E0B70123
:1030F0008E5A9C4F0E94B83221E020930F03892BF7
:10310000E1F4C12C8C2D8D292F96EDE00C94183212
:103110008091090390910A030E949E04843F91408C
:1031200008F0BBCF80910F03882359F385E0F701A6
:1031300011928A95E9F710920F03A0914C03B0E029
:10314000AE5ABC4F85E0FE013B9601900D928A95E8
:10315000E1F7D8CF80913B038F3F31F08F5F8093B1
:103160003B038A3008F4BECF0E94B90490930A034F
:1031700080930903D7CFF0E0EE5AFC4F85E0A3E23D
:10318000B3E001900D928A95E1F765E070E083E28B
:1031900093E00E942905809322034091730350E03D
:1031A0006091720370E062597C4FC7010E94C53282
:1031B0008B858093290361E070E0C7010E94290597
:1031C0008093280380902A0390902B03A0902C03D7
:1031D000B0902D0380910B0390910C03A0910D03EF
:1031E000B0910E0388169906AA06BB06D1F080920C
:1031F0000B0390920C03A0920D03B0920E030E9459
:10320000941281110EC00E94AD04861A970AA80A72
:10321000B90A80923C0390923D03A0923E03B09283
:103220003F0388E0EEE2F3E0A3E7B5E001900D9202
:103230008A95E1F710913603112349F08091F2034A
:10324000811105C00E94211380E00E94C1051093E6
:10325000F20358CF8091C0049091C104892B8093D0
:10326000C00290910103992391F0892B8093C002B1
:1032700020E082EC92E0FC013191CF0131112F5F0F
:10328000F2E0883C9F07B9F721111092010348E052
:1032900050E069EF72E080EC92E00E94B832892B36
:1032A000A9F088E0E0ECF2E0A9EFB2E001900D9225
:1032B0008A95E1F7E091E804F091E904309731F064
:1032C0000280F381E02D80EC92E0099508958091D1
:1032D0004E01877F80934E019091C1049D7F909312
:1032E000C10484FF08C08F7E80934E018091C0048A
:1032F00082608093C00480914E0185FF08C08F7D5D
:1033000080934E018091C00480628093C0040E942B
:103310002A190895CF931092C004C6E0E2ECF2E0BF
:10332000DF018C2F1D928A95E9F790E080E00E94E2
:10333000040590E080E00E94DF041092C1040E9426
:103340002A19EEE7F3E0DF011D92CA95E9F7109222
:10335000770310927803109279030E94AC09CF9101
:103360000895AAE2B0E0E7EBF9E10C94063280E0C0
:1033700095E02091F100FC012193CF01F5E0883028
:103380009F07B9F780910105833009F470C0B8F444
:10339000813009F447C0823009F4B1C08091E8005F
:1033A00083FF7EC280910005909101059A3008F05C
:1033B00077C2E92FF0E0E655FC4C0C9456328A3087
:1033C00009F48CC08B3009F46FC0893039F78091D3
:1033D0000005813219F78091040590910505029747
:1033E000E8F68091E800877F8093E8008091E8000C
:1033F00082FF38C09091F3008091F200029731F47F
:103400008091F100813011F0863021F48091F1003B
:103410008093F3048091E8008B778093E8000E940A
:103420009103BCCF80910005813A09F0B7CF80911C
:10343000E800877F8093E80080910405909105055E
:10344000892B61F468E084EF94E070E00E943D0411
:103450008091E8008B778093E800A0CF60E090E057
:1034600080E0F3CF8091FE048111C0CF97CF80918F
:103470000005813A09F092CF8091040590910505ED
:10348000892B09F08BCF8091E800877F8093E8003B
:103490008091E80080FFFCCF80914F018093F10084
:1034A0008091E8008E77B9CF80910005813209F0D4
:1034B00075CF8091040590910505892B09F06ECF99
:1034C0008091E800877F8093E8000E9491038091BB
:1034D000020580934F010E948A1960CF80910005F8
:1034E000813209F05BCF8091E800877F8093E8000C
:1034F0000E949103809103058093F2044FCF809145
:103500000005813A09F04ACF8091E800877F8093D7
:10351000E8008091E80080FFFCCF8091F204BECFEC
:10352000803899F0823809F0BBC1809104058F7012
:10353000873008F0B5C18093E9008091EB0085FBEE
:10354000882780F91092E90006C08091FC049091D0
:10355000FD04911182609091E800977F9093E800BC
:103560008093F1001092F1008091E8008E7794C171
:10357000882309F482C1823009F092C1809102054A
:10358000811185C1809104058F702FEF280F26309F
:1035900008F086C18093E9002091EB0020FF77C1FD
:1035A000933031F48091EB0080628093EB006FC127
:1035B0009091EB0090619093EB0021E030E001C02E
:1035C000220F8A95EAF72093EA001092EA00809190
:1035D000EB008860EACF811163C1109102051F776B
:1035E0008091E3008078812B8093E3008091E80054
:1035F000877F8093E8000E9491038091E80080FF1C
:10360000FCCF8091E30080688093E30082E0111199
:1036100083E08093FE0444C18058823008F040C1AA
:1036200080910205909103058C3D23E09207A1F55E
:1036300083E08A838AE289834FB7F894DE01139688
:1036400020E03EE051E2E32FF0E050935700E49198
:1036500020FF03C0E295EF703F5FEF708E2F90E088
:10366000EA30C0F0C7968D939D932F5F243159F7B0
:103670004FBF8091E800877F8093E8006AE270E0A6
:10368000CE0101960E943D048091E8008B778093E3
:10369000E80006C1C096E7CF4091040550910505AA
:1036A000292F33272330310509F444C078F5213020
:1036B000310509F46FC08BE390E0EBEFF4E02230CA
:1036C000310509F0EDC02091E800277F2093E80044
:1036D00020910605309107058217930708F49C0195
:1036E00040E02115310509F064C0411162C08091AC
:1036F000E80082FDC9CF8091FE04882329F285303D
:1037000019F28091E80083FFF2CFBECF213231055C
:10371000A9F12232310509F0C3C04115510509F460
:1037200043C04130510509F0BBC08BE790E0ECE3AA
:10373000F4E0C9CF992781309105C1F0009759F085
:10374000029709F0ADC0E8E4F5E0E4918E2F90E037
:10375000E8E4F5E007C0E4E7F5E0E4918E2F90E0BF
:10376000E4E7F5E0009709F49BC0ADCFE4E6F5E0AF
:10377000E4918E2F90E0E4E6F5E0F4CF4115510599
:1037800071F04130510509F08BC089E090E0E6E22C
:10379000F5E099CF82E190E0E6E3F5E094CF89E0AF
:1037A00090E0EDE0F5E08FCF84E490E0E7EBF4E02B
:1037B0008ACF8091FE04882309F466CF853009F40E
:1037C00063CF8091E80083FD5FCF8091E80082FDA8
:1037D0008ECF8091E80080FF84CF9091F30080919C
:1037E000F2002115310519F08830910550F041E0C3
:1037F000089709F040E08091E8008E778093E80018
:1038000070CF44914093F1003196215031090196D7
:10381000E8CF803809F044C08091E800877F80932A
:10382000E8008091FF048093F1009ECE811138C0A2
:10383000109102051230A0F58091E800877F8093F7
:10384000E8001093FF040E949103112311F084E01B
:1038500005C08091E30087FDFACF81E08093FE04EC
:1038600042E061EC81E00E94B00342E261EC82E060
:103870000E94B0038091FE0413C080910205813044
:1038800079F481E0933009F080E08093FD04109298
:10389000E9008091E800877F8093E8000E9491030F
:1038A0008091E80083FF0AC08091E800877F8093C1
:1038B000E8008091EB0080628093EB00AA96E3E041
:1038C0000C9422320E948A192FEF84E39CE021504D
:1038D00080409040E1F700C0000088E19CE00FB616
:1038E000F894A895809360000FBE90936000FFCF7E
:1038F000882341F080959091C10489238093C1046D
:103900000E942A190895882339F09091C104982BB8
:103910009093C1040E942A190895882321F00E94DF
:103920007F0F0E942A190895882339F09091C004CE
:10393000982B9093C0040E942A1908958823D1F1EE
:103940009CEF980F913A78F4E2ECF2E091918913B0
:1039500003C0DF0111971C9292E0E83CF907B1F730
:103960000E942A19089590E2980F983050F48770B9
:1039700091E001C0990F8A95EAF7892F0E947F0F85
:10398000EFCF9BE5980F933028F490E080E00E9401
:103990000405089598E5980F9B3128F490E080E0A5
:1039A0000E94DF04089593E3980F933118F460E0C8
:1039B0000E94A9100895CF93DF93EC010E949E1CF2
:1039C000CE010E94A6119E01205E310928303105EA
:1039D00010F0CD2B29F40E948D1CDF91CF9108951A
:1039E0000E94781CFACFCF93C82F8823B1F08CEFB8
:1039F0008C0F813A00F5E2ECF2E088EC92E0DF0116
:103A00002D91C21761F08A179B07D1F76C2F80ECBC
:103A100092E00E94C5040E942A19CF910895219135
:103A2000C21303C0DF0111971C928E179F07B9F7CD
:103A30000E942A19EBCF80E28C0F883068F4C7709F
:103A400021E030E001C0220FCA95EAF78091C0045E
:103A5000822B8093C004DFCFEBE5EC0FE33040F422
:103A6000F0E0EE59FE4F808190E00E940405D5CF32
:103A7000E8E5EC0FEB3150F4F0E0EE0FFF1FEB59EF
:103A8000FE4F808191810E94DF04C7CF83E38C0FBA
:103A9000833118F661E08C2F0E94A910BECF1F93CE
:103AA000CF93DF93182FEB010E94F31C209739F47A
:103AB000812F0E949E1CDF91CF911F9108958FE965
:103AC0009FE00197F1F700C000002197EFCF70E071
:103AD00060E0893311F460E570E00E944F1D0895A5
:103AE0000F931F93CF93DF93C62FD42F022FFC0188
:103AF00085818823A9F0609371050E94B904909391
:103B0000700580936F05C77081E001C0880FCA956A
:103B1000EAF70E94941CDF91CF911F910F910895B5
:103B200080917105681332C080916F059091700586
:103B30000E949E048F3A910548F510E21D0FCD17A3
:103B4000B9F080E28C0F883040F4C77081E001C08A
:103B5000880FCA95EAF70E948D1C183048F481E05E
:103B60009D2F977001C0880F9A95EAF70E94941CC8
:103B7000802F0E94671D183070F6D77081E001C059
:103B8000880FDA95EAF70E948D1CC5CFC77081E0D7
:103B900001C0880FCA95EAF7F6CF80914E03909145
:103BA0004F03009711F080FF0DC0662339F065E0E8
:103BB00070E089EA0E944F1D80E0089565E070E0A2
:103BC0008AEAF8CF81FF07C08BEA611101C08CEA55
:103BD0000E94671DF1CF83FFEFCF8AED6111F8CF0F
:103BE00089EDF6CFCF93DF93EC010E94A6119E01E1
:103BF000205E31092830310510F0209741F40E94F1
:103C0000941C8C2F0E94F31CDF91CF9108950E9489
:103C1000831CF7CFB0E0A0E0E0E1FEE10C940232BB
:103C20008C01EB0180914E0182FF86C0E090E4049C
:103C3000F090E504E016F10621F00115110509F0F8
:103C40007BC080914E018B7F80934E0181FD6DC0C2
:103C50008091E2049091E304AE01481B590B81E08E
:103C600020914C0130914D014217530708F480E038
:103C70008170D82E80914E01D0FA81F980934E0147
:103C800087011127F80184E0F695E7958A95E1F719
:103C9000EE0FFF1FEE53FB4F20813181A7014F70C4
:103CA000552781E090E002C0880F991F4A95E2F7FE
:103CB000DD20E9F1822B932B918380838091C004D6
:103CC00081FF08C080914E01806180934E0182E0A7
:103CD0000E947F0F8091C00485FF08C080914E0133
:103CE000806280934E0180E20E947F0FDD2029F0E8
:103CF0008091C10482608093C104C70190528115F4
:103D0000904308F47801C7010E94F21D8091E404F9
:103D10009091E5049C0130522115304308F4992715
:103D20000E94DB1C0E94671917C081E0A1CF80951B
:103D3000909582239323C0CFC80190528115904360
:103D4000A0F4C80199270E94DB1C8091E4049091A3
:103D5000E5040817190731F3D093E304C093E20494
:103D6000CDB7DEB7E7E00C941E32C801ECCFA9E076
:103D7000B0E0EDEBFEE10C94053288E0E3E7F5E01E
:103D8000DE01119601900D928A95E1F78091F20380
:103D9000898749E050E06EE273E0CE0101960E940F
:103DA000B8320091370310913803209139033091D4
:103DB0003A03EFB7F8944091ED045091EE0460910E
:103DC000EF047091F004EFBF401B510B620B730BBB
:103DD000443651056105710518F411E0892B21F174
:103DE00080912F01909130018E5D9C4F40912E016A
:103DF00050E04A30510510F049E050E0BE016F5FDD
:103E00007F4F0E94C53285E090E00E948131182FDB
:103E1000882351F00E94AD046093370370933803F8
:103E20008093390390933A03812F2996E4E00C9410
:103E30002132A4E0B0E0EFE1FFE10C9406324091C2
:103E40001E0350911F0360912003709121032FB72F
:103E5000F8948091ED049091EE04A091EF04B0915C
:103E6000F0042FBF841B950BA60BB70B11E0843613
:103E70009105A105B10570F10E94C8126E5F7F4FD8
:103E80008F4F9F4F69837A838B839C838091270117
:103E9000909128018E5D9C4F4091260150E0453065
:103EA000510510F044E050E0BE016F5F7F4F0E946B
:103EB000C53284E090E00E948131182F882351F0B0
:103EC0000E94AD0460931E0370931F038093200330
:103ED00090932103812F2496E3E00C9422324F9299
:103EE0005F927F928F929F92AF92BF92CF92DF921A
:103EF000EF92FF920F931F93CF93DF930F92CDB763
:103F0000DEB7C62E4A015901482E880F5508C20156
:103F10000E948131782E882309F480C0C20133E0E9
:103F2000880F991F3A95E1F7FC01EA5FFE4F438144
:103F300050E04115510511F041E050E08A5F9E4F7D
:103F4000FC01648175816E5D7C4FCE0101960E94FB
:103F5000C532F40140815181628173812FB7F89499
:103F60008091ED049091EE04A091EF04B091F004E3
:103F70002FBF841B950BA60BB70B84369105A105AB
:103F8000B10540F4B701C8010E942905998189173C
:103F900009F444C00C2C000CDD08C6010E948131DC
:103FA000782E811113C0712C872D0F90DF91CF9146
:103FB0001F910F91FF90EF90DF90CF90BF90AF9047
:103FC0009F908F907F905F904F900895C60123E05F
:103FD000880F991F2A95E1F7FC01EA5FFE4F4381A4
:103FE00050E0E416F50608F4A7018A5F9E4FFC0135
:103FF000648175816E5D7C4FC5010E94C532B70139
:10400000C8010E94290599818913CDCF0E94AD0472
:10401000F4016083718382839383C6CFA701B801C3
:10402000C5010E94C532C0CFA1E0B0E0EAE1F0E2F4
:104030000C940032EE24E394F12C09E213E09E018B
:104040002F5F3F4F4AE153E063E082E00E946F1F21
:10405000C82E882339F100E080E01DC0D0904103D4
:10406000D00E2D2D30E0A90142595C4F7A01E1E0DC
:10407000F0E0EC0FFD1FE00FF11D1081FA019081BF
:10408000191BB12E1B149CF0912F17FD90E0191BEA
:10409000111118C00F5F909140030917F8F28111B8
:1040A0000E9403138C2D2196E9E00C941C32BA94E3
:1040B000F70180818F5F808360E08D2D0E94CD1D90
:1040C0008C2DE0CF1F5FF70180818150808361E0FC
:1040D0008D2D0E94CD1D8C2DDBCFA5E0B0E0E3E758
:1040E000F0E20C9401326B0185E0E82EF12C03E242
:1040F00013E09E012F5F3F4F46E153E061E080E017
:104100000E946F1F882349F095E0FE013196A1E1DE
:10411000B3E001900D929A95E1F795E0E1E1F3E0CB
:10412000D60101900D929A95E1F72596E8E00C945E
:104130001D32A8E0B0E0EFE9F0E20C94073266EE41
:104140007EEF90E080E00E941A3360E082E090E031
:104150000E94FC3260E083E090E00E94FC3210920A
:1041600003031092020360E074E184E090E00E9497
:104170001A3360E086E090E00E94FC326FEF87E047
:1041800090E00E94FC3240E050E0BA0188E090E00C
:104190000E940E3360E084E290E00E94FC3260E016
:1041A00087E190E00E94FC3260E08CE090E00E94A9
:1041B000FC3260E08DE090E00E94FC3219821A82AD
:1041C0001B821C821D821E821F82188648E050E0DE
:1041D00068E170E0CE0101960E94EC3240E050E0D0
:1041E000BA0180E290E00E940E3340E050E0BA0154
:1041F0008FE090E00E940E3340E050E0BA0183E18E
:1042000090E00E940E332896E2E00C9423329091C5
:10421000510392FB222720F9281779F080FB92F9AD
:1042200090935103609150037091510384E090E0AA
:104230000E941A3382E00E945A100895B0E0A0E074
:10424000E4E2F1E20C94F7318C01FC0184818823D3
:1042500009F401C221E0408151816281738195811D
:104260000E948111EC010E94B9043C01F801858192
:10427000882309F467C180914E0182FF07C047E699
:1042800053E0B30190E080E00E940A1EC231FCE7D7
:10429000DF0709F462C098F5C0313CE7D30709F4A1
:1042A00056C0C1318CE7D80709F447C0CE019052FF
:1042B0008115904308F054C11092E5041092E40473
:1042C000F8018581882309F4EBC510927105CE01B0
:1042D0009057839708F0CEC584E090E00E94E632C4
:1042E0009093510380935003FE01E150F047E23276
:1042F000F10508F0F8C1EC54FC4C0C945632C43172
:104300009CE7D907B1F078F090914E01892F8E7F0C
:1043100090FF8160C531FCE7DF0741F680934E01D5
:104320000E946719C3CF80914E01816080934E0136
:10433000BDCF80914E018E7FF1CF80914C01909145
:104340004D01059690934D0180934C01AFCF809124
:104350004C0190914D010597F5CF80904C019090C4
:104360004D01809104019091050188169906F9F498
:104370008091CE028032D9F4E8ECF2E07F018191A5
:104380008032E1F36AE0462EF7012081222309F40E
:104390008DCF213009F081C091818281913009F067
:1043A00040C0F2E0EF0EF11C0E94671D41C09092E8
:1043B00005018092040180E28093CE02B12CA12CF1
:1043C0001092CD0278ECC72E72E0D72E7601EAE08B
:1043D0002E2E312C412C512CC501B401A20191018A
:1043E0000E945233605D603319F4CE14DF0431F063
:1043F00081149104A104B10409F460E2F70164831B
:10440000C501B401A20191010E94523349015A0130
:10441000F1E0EF1AF10823EC32E02E153F05E1F64A
:10442000ABCF923049F422E0E20EF11C0E94F31C63
:104430003FEFE31AF30AA8CF933031F432E0E30EF2
:10444000F11C0E949E1CF4CF943021F08FEFE81AEB
:10445000F80AEECF92E0E90EF11C30E020E0A7016F
:104460004F5F5F4F8053990B8A30910550F0215078
:104470003109F0F28FE99FE00197F1F700C00000E9
:10448000F6CF429EB001439E700D11249C01260F71
:10449000371FF70181817A01E2CFE22FF0E0E45289
:1044A000FF4F5490822F86958695869590E0FC016B
:1044B000E453FF4FA4902770B12C022E02C0B59494
:1044C000A7940A94E2F7E1E0AE22BB24FC01E45495
:1044D000FF4F8490912C022E02C0959487940A94E9
:1044E000E2F7F1E08F229924FC01E455FF4FC490DC
:1044F000D12C02C0D594C7942A95E2F721E0C222BC
:10450000DD24A114B10419F081EE0E94F31C811482
:10451000910419F086EE0E94F31C852D0E94671D00
:104520008114910419F086EE0E949E1CA114B1041E
:1045300019F081EE0E949E1CC114D10409F478CFB9
:104540008CE232CF80914E018F7EC13ED10531F099
:10455000C53ED105E1F480914E018F7D80934E01DF
:1045600080914E0180FF18C0F8018581CB32D105C2
:1045700039F1E8F49E012E5131092A30310500F15C
:10458000882351F01092E5041092E40405C0CE0196
:1045900090528115904320F7FE01E851FC47E73027
:1045A000F10508F08DCEEA52FC4C0C945632CD3217
:1045B000D10530F3C933D10518F0C436D10501F760
:1045C000811106C0A801B301CE010E940A1E34C0A9
:1045D000809101039091C004982B292F2D7F09F41D
:1045E0003FC01092E5041092E404FE0144E0F69509
:1045F000E7954A95E1F7EE0FFF1FEE53FB4F9E0143
:104600002F70332781E090E002C0880F991F2A9510
:10461000E2F78095909520813181822393239183C5
:104620008083CE010E94F21D809101038D7F0E9444
:10463000750F82E00E945A108091F802877059F03D
:10464000F8018581882339F08091510382FF03C0EE
:1046500082E00E945A10CDB7DEB7E2E10C9413322B
:1046600027E0F801A7E6B3E001900D922A95E1F763
:1046700010926C0310926A031092690320914E010C
:1046800091FB21F920934E018D7F0E94750FD093ED
:10469000E504C093E4047092E3046092E204809124
:1046A0004E01846080934E01C4CF26E241EE61EE5C
:1046B000C8010E94701DC0CF27E245EE65EEF8CF1D
:1046C00026E241EE60EEF4CF27E245EE64EEF0CF55
:1046D00026E241EE62EEECCF27E245EE66EEE8CF51
:1046E00028E241E0EBCF809150038160809350033A
:1046F00095C0809151038860809351038FC0809151
:1047000050038260F3CF809150038460EFCF80919B
:1047100050038860EBCF809151038160EDCF809191
:1047200051038260E9CF809150038061DFCF809197
:1047300050038062DBCF809150038064D7CF0E940A
:104740008A19809150038068D1CF809150038C608A
:10475000CDCF809151038360CFCF809150038E7F66
:10476000C5CF80915103877FC7CF809150038D7F44
:10477000BDCF809150038B7FB9CF80915003877F4D
:10478000B5CF809151038E7FB7CF809151038D7F3C
:10479000B3CF809150038F7EA9CF809150038F7D3E
:1047A000A5CF809150038F7BA1CF0E948A19809161
:1047B00050038F779BCF80915003837F97CF809159
:1047C00051038C7F99CF8091500382FB992790F9F8
:1047D00021E0922790FB82F990FB83F987CF8091AB
:1047E0005103982F909591708E7F892B90FB81F9C2
:1047F00083CF90915003892F8F7B96FF806476CF73
:104800000E948A1990915003892F97FB87F980584D
:104810006DCF61E08EE090E00E94FC326091500329
:104820007091510384E090E00E941A330E948A192B
:1048300003CF60E0EFCF90915003892F8F7E94FFDC
:10484000806154CF90915003892F8E7F90FF8160BB
:104850004DCF90915103892F877F93FF88604CCF74
:104860008091CF0281110FC089E2E2ECF2E028ECE6
:1048700032E09191891303C0DF0111971C922E172A
:104880003F07B9F70AC385E3F0CF8091730591E044
:10489000892780937305109253018091720581607E
:1048A00080937205C9CE4CEA55E066EB75E00E9434
:1048B0003F05C2CE46EB55E06CEA75E0F8CF48E91B
:1048C00055E062EA75E0F3CF42EA55E068E975E049
:1048D000EECF4EE755E06BE875E0E9CF4BE855E0E9
:1048E0006EE775E0E4CF44E655E061E775E0DFCFC1
:1048F00041E755E064E675E0DACF48E455E066E567
:1049000075E0D5CF46E555E068E475E0D0CF81E0AD
:104910000E94F60291CE85E0FBCF8DE0F9CF82E1D7
:10492000F7CF0E948A19FFEF24E33CE0F1502040CA
:104930003040E1F700C0000081E08093E00080E2B9
:104940008093D8001092C9008FE19EE40197F1F79F
:1049500000C0000087E090EBDC0180937B05909322
:104960007C05A0937D05B0937E0588E19CE00FB6A1
:10497000F894A895809360000FBE90936000FFCFDD
:104980006FEF7FEF90E080E00E941A330E94621C7C
:104990008091510382FB882780F991E089270E944A
:1049A0000721F8018581C081D181882309F44AC09B
:1049B000CE010E94900FF82E682FCE010E940410A5
:1049C000BE018F2D0E94380E0E94570ED82FC92F7E
:1049D000A82EF801C580B680B2943FE0B322809142
:1049E000F8028770F1F0EC2CCC20E1F0892F807F69
:1049F000803451F080E28D0F883098F0B11004C0FF
:104A0000892F807E803269F08091510382FF09C036
:104A100082E00E945A108091F8028770EE24E3949D
:104A20008111E12CDC2ED2942FE0D222FBE0FD1587
:104A300008F46DC0ED2DF0E0E352FC4C0C945632BE
:104A400080E0ADCFCE010E94D10FF82EB9CF2C2F30
:104A50002F70F22EC07F19F0F29490EFF922CC2043
:104A6000B9F0FF2069F080E28D0F883010F0A110BE
:104A700009C08091C004F82AF092C0040E942A194B
:104A80008D2F43C08091C104F82AF092C104F6CF63
:104A90008D2F0E949E1CFF20D1F1D05ED83010F0E7
:104AA000A11004C08F2D0E947F0F06C0F09480914A
:104AB000C104F822F092C1040E942A1928C03C2F98
:104AC0003F70F32EC07FC03219F0F29480EFF822CD
:104AD000AA2059F081E0A81609F479C0CC2009F485
:104AE00085C0BB2009F447C0CBCF8091510382FD24
:104AF0003EC0CC20B1F1FF2039F08091C004F82AEB
:104B0000F092C0040E942A1980E00E94F31C2D2D0F
:104B10002850330B2430310510F40E94B712EE20D8
:104B2000A9F08091F80280FD11C0F80115828695E8
:104B3000869586950E947110C8010E941E21809161
:104B4000F8028695869586950E94481020E0F80127
:104B50004081518162817381848195810E9481119C
:104B60007ACD80E00E949E1CFF2089F29BCFCC2052
:104B7000A1F0B11004C08F2D0E94941CC8CF91E009
:104B8000B912C5CF809101039F2D9823F91609F41E
:104B9000BECFF82AF0920103BACFB110B8CF8F2D53
:104BA0000E948D1C909101038F2D892329F08F2D58
:104BB00080958923809301038091D0029F2D9823B3
:104BC00009F4A5CFF094F822F092D002A0CFCC2027
:104BD00029F0E5E0EB1508F49ACFCDCFF4E0FB1512
:104BE00008F495CF8F2D0E948D1C91CFBB20D1F35F
:104BF00029E3A21209C03FEF87EE93E031508040D5
:104C00009040E1F700C000008D2F0E949E1C7FCFD6
:104C10008C2F86958695837069F0813009F077CF67
:104C20008D2F9C2F9370C11002C080E090E00E94F5
:104C3000DF046DCF8D2F9C2F9370C11002C080E0D8
:104C400090E00E94040563CF6C2D8D2F0E94A91067
:104C50005ECF8C2F837009F03FC0C11058CF4D2F0D
:104C6000429546954770440F440F2D2F2F7030E02A
:104C7000042E02C0220F331F0A94E2F790E080E076
:104C8000D4FF09C08FE090E002C0880F991F4A95B9
:104C9000E2F780959095C695C695C370C23099F09D
:104CA00078F44091020350910303C13039F0822B14
:104CB000932B842395230E94811029CF242B352BFD
:104CC000822B932BF8CF822B932B209102033091D0
:104CD000030382279327EFCF8695CC2011F08C2FEA
:104CE0008170882309F413CF4D2F42954695477064
:104CF000440F440F2D2F2F7030E0042E02C0220FDE
:104D0000331F0A94E2F790E080E0D4FF09C08FE0FF
:104D100090E002C0880F991F4A95E2F78095909520
:104D2000C695C695C370C23099F078F440914E0391
:104D300050914F03C13039F0822B932B842395235C
:104D40000E943A10E4CE242B352B822B932BF8CFE4
:104D5000822B932B20914E0330914F038227932770
:104D6000EFCFCF70CC2029F08C2F0E9471108D2FA7
:104D700003CF8D2F0E948D1C8C2F0E944810C7CE10
:104D80008D2FE2EFAE1699F1EA1570F0F0EFAF1645
:104D9000D1F021EFA21691F0CC2009F45BC0B11044
:104DA0006FCE8C2F8F7127C033EFA31639F194EF9C
:104DB000A912F2CF8091510382FD2EC08C2F8F71EA
:104DC000CC20D9F218C0CC2069F0E4E0EB1508F44F
:104DD0009ECECF7181E090E002C0880F991FCA95E6
:104DE000E2F7B8CFF5E0FB1508F491CEF2CF8C2FA7
:104DF0008F71C110C2CF0E94711089CE90E080E007
:104E0000CC2009F49DCFCF7181E090E002C0880FE3
:104E1000991FCA95E2F794CFCC2089F0CF718C2FDF
:104E20000E9471108091510382FF07C028E0C29F49
:104E3000C001112483608093F8028C2FDCCF81E0C5
:104E40000E945A1031E03B1508F061CE82E00E94CA
:104E50005A105DCEBB2059F0893309F0D5CE8FEFC3
:104E600097EEE3E081509040E040E1F7CBCE8C2F0D
:104E70008F7183CFC631FCE7DF0729F58091C0042D
:104E80008A7A91E009F490E09093CF0269E281116F
:104E900065E380EC92E00E94C5040E942A19CCCB05
:104EA000C6312CE7D20709F4DBCC8091C0048272B2
:104EB000FE01E052F847E531F10508F072CDE75107
:104EC000FC4C0C945632C3303CE7D30709F458CD60
:104ED00050F4C1159CE7D90709F423CDC130DC4754
:104EE00009F454CD5ECDCB35FCE7DF0709F4A8CD3E
:104EF000CC352CE7D20709F44BCDCA35DC4709F095
:104F000050CD81E04CCDCF93DF938091F702807F2D
:104F100009F04DC08091F602882309F448C0E09161
:104F2000410550910805C091F202D091F1026091C3
:104F3000F3027091F40247E05E17C9F18E2F90E002
:104F4000E49FF0011124E75FFA4F2481222391F1BD
:104F5000489FF001499FF00D1124DF01A75FBA4F70
:104F600011962C9111972C1325C02C912D1322C032
:104F700015962C91159721111DC012962D913C91DB
:104F8000261B370B2F3A3105A8F48091F7028F705A
:104F900080618093F702E15FFA4F80818F708061BA
:104FA000808381EF92E00E941E210E94860FDF9194
:104FB000CF910895FC013196E770BECFA4E1B0E037
:104FC000E4EEF7E20C94FD318C0186E0F801DE019D
:104FD0001F9601900D928A95E1F7F8018481E58092
:104FE00091EFA92E92E0B92E9091F502911128C06F
:104FF000882319F1EE20F1F0C8010E948610F82EE6
:105000008823C1F087E0F801D50101900D928A95BF
:10501000E1F78091F502813031F48091F1029091B5
:10502000F2020E94C40F0E9483278F2D6496ECE049
:105030000C941932C8010E941E21FF24F394F5CF6D
:10504000D080C18082809380F090F6022091F3029C
:105050003091F402A401421B530BFF2009F4D9C084
:105060004F3A510508F092C08823F9F29091F2026C
:105070008091F702282F207F09F056C0C91214C072
:105080009091F102D91210C0E11048C08F70806178
:105090008093F70281EF92E00E941E218091F70237
:1050A000F8018683F12CC1CFE11038C06C2D8D2D15
:1050B0000E940F036C2D8D2D0E940F03E82E81118D
:1050C000F1CFDF86C88A8F8598890E94C40F292F67
:1050D00022952F70243058F49F70223088F0992345
:1050E00099F0F8019681907F79F4FE2C9ECF2A5F8B
:1050F0002F70223068F0C8010E941E21EF2CF5CFDE
:10510000992311F0882389F3805E883070F3F3CF00
:10511000803F58F3815F833070F7E7CF8091F702CB
:1051200081608093F702BECFC91207C09091F1024F
:10513000D91203C0EE2009F48DC0C8010E94861068
:10514000882309F477CFEE2009F474CF8091F70219
:10515000803288F02091F1023091F202398728875D
:105160009B868A869091F5029C871D868E87CE014C
:1051700008960E941E2187E0F801A1EFB2E001909D
:105180000D928A95E1F70E94832757CF9091F702FD
:10519000292F207F51F481EF92E00E941E2187E0A9
:1051A000F50111928A95E9F77DCF882309F43DCF67
:1051B0008091F2028C1110C08091F102D8120CC0C3
:1051C000E1100AC09683C8010E941E2187E0F50104
:1051D00011928A95E9F729CFC8010E948610882389
:1051E00009F428CFEE2009F425CF8091F702803210
:1051F00010F22091F1023091F2023A8329839C82CD
:105200008B829091F5029D831E828F83CE01019641
:10521000B0CF4F3A5105D0F6882309F40ECFFE2CBB
:10522000EE2009F407CF8091F2028C1120C080910A
:10523000F102D8121CC08091F70280FD0FC0982F98
:10524000907F61F08683903F31F0982F907F905F40
:105250008F70892B8683C8010E941E2187E0F80188
:10526000A1EFB2E001900D928A95E1F7DECEC80180
:105270000E94861081117FCF8091F7028160809318
:10528000F702C8010E941E21D0CEABE1B0E0EBE4F2
:10529000F9E20C9405324E8B5F8B688F798F8A8F81
:1052A0009B8F192F91111092C1041D8A86E0FE0177
:1052B0007696DE011F9601900D928A95E1F70A8D90
:1052C000002341F021E04F85588969897A89C80116
:1052D0000E9481110B8B1C8B87E0FE013F96DE0143
:1052E000189601900D928A95E1F7CE0108960E94DA
:1052F000DE2781110CC087E0FE013896DE01119691
:1053000001900D928A95E1F78C8581110BC017E011
:105310008091410590910805891331C06B96E4E0B6
:105320000C9421322091080530E0C9010196877064
:105330009927409141054817190699F097E0929FE7
:10534000D001939FB00D1124A75FBA4FFE01319693
:1053500001900D929A95E1F7809308050E94860FBF
:10536000D6CF0E948A19109208051092410587E055
:10537000E1EFF2E0DF011D928A95E9F7C8CF819F46
:10538000C0011124875F9A4F0E94DE27882331F2E3
:105390008091410590E0019687709927809341059F
:1053A000B7CFA6E0B0E0E7EDF9E20C9405320E9439
:1053B000B9048C0180910403909105038017910733
:1053C00081F019821A820E94B904682F49815A819A
:1053D000792F80E090E00E94452910930503009307
:1053E00004032696E4E00C9421321F920F920FB62C
:1053F0000F9211242F933F934F935F936F937F935B
:105400008F939F93AF93BF93CF93DF93EF93FF93CC
:10541000D091E900DF708091EC00C82FC17080FD51
:10542000C0E81092E9008091F000877F8093F0003F
:1054300078940E94B1191092E9008091F000886080
:105440008093F000CD2BCF70C093E900FF91EF91D6
:10545000DF91CF91BF91AF919F918F917F916F918C
:105460005F914F913F912F910F900FBE0F901F9022
:1054700018951F920F920FB60F9211242F933F93FE
:105480004F935F936F937F938F939F93AF93BF934C
:10549000EF93FF938091E10082FF09C08091E200C9
:1054A00082FF05C08091E1008B7F8093E1008091B5
:1054B000DA0080FF24C08091D80080FF20C0809156
:1054C000DA008E7F8093DA008091D90080FF9DC042
:1054D00080E189BD82E189BD09B400FEFDCF81E094
:1054E0008093FE048091F104811109C00E94410360
:1054F0000E94E2038091E20084608093E200809148
:10550000E10080FF17C08091E20080FF13C080910E
:10551000E2008E7F8093E2008091E20080618093C0
:10552000E2008091D80080628093D80019BC85E0A9
:105530008093FE048091E10084FF2BC08091E20003
:1055400084FF27C080E189BD82E189BD89B5982F9C
:10555000917080FFFBCF8091D8008F7D8093D80021
:105560008091E1008F7E8093E1008091E2008F7E48
:105570008093E2008091E20081608093E20080915C
:10558000FF04882309F447C084E08093FE048091DF
:10559000FE048091E10083FF27C08091E20083FF39
:1055A00023C08091E100877F8093E10082E08093B7
:1055B000FE041092FF048091E1008E7F8093E10051
:1055C0008091E2008E7F8093E2008091E200806112
:1055D0008093E20042E060E080E00E94B0038091AE
:1055E000F00088608093F000FF91EF91BF91AF9140
:1055F0009F918F917F916F915F914F913F912F91EB
:105600000F900FBE0F901F90189519BC1092FE04BA
:105610001092F10474CF8091E30087FD93E09093A2
:10562000FE04B5CF78941F921FB61F9211248F935A
:105630009F93AF93BF938091ED049091EE04A0915E
:10564000EF04B091F0040196A11DB11D8093ED040B
:105650009093EE04A093EF04B093F004BF91AF9148
:105660009F918F911F901FBE1F9018951F921FB67C
:105670001F9211248F939F93AF93BF938091EC045B
:10568000811113C08091ED049091EE04A091EF047C
:10569000B091F0044196A11DB11D8093ED0490934B
:1056A000EE04A093EF04B093F004BF91AF919F91EB
:1056B0008F911F901FBE1F901895CDB7DEB76797CB
:1056C0000FB6F894DEBF0FBECDBF85B7806885BF2B
:1056D00085B7806885BF84B7877F84BF0FB6F8948D
:1056E000A8958091600088618093600010926000AE
:1056F0000FBE80E890E00FB6F8948093610090931D
:1057000061000FBE83E29AE09093BF028093BE02D5
:105710000E9441030E94E2038091E2008460809332
:10572000E20078948091FE048823A1F01091E900B2
:105730001F709091EC00892F817090FD80E8182BEC
:105740001092E9008091E80083FD0E94B1191F705A
:105750001093E90082E084BD93E095BD9AEF97BD78
:1057600080936E0010923C0310923D0310923E0312
:1057700010923F0355985D988FE891E00197F1F7FB
:1057800000C000000E94250A809341010E949412EB
:1057900081110E9495309091410181E0982790936A
:1057A0007203A82FA91BA0934103909141018093FC
:1057B0007303909141018093400323982B9A229880
:1057C0002A9AEFE8F1E03197F1F700C0000020914C
:1057D000730344E753E0FA018E2F841B821708F409
:1057E000A5C18091410181112CC085E0E7E5F1E080
:1057F000DE01179601900D928A95E1F78F818093D3
:105800003C01888580933D01898580933E018A858E
:1058100080933F018B858093400186E0ECE5F1E0C9
:10582000DE01119601900D928A95E1F7FE01319605
:10583000A6E3B1E0CE01079621912D938E179F0725
:10584000D9F78091410195E0811190E090934D034B
:1058500085E0891B80934C030CE311E081E4E82E82
:1058600081E0F82ED8018D918D018F3F11F00E94BB
:10587000300DE016F106B1F706E311E0F801819171
:105880008F018F3F11F00E94300DF1E00C331F07A4
:10589000A9F78AE0E2E5F3E0DF01282F1D922A95BF
:1058A000E9F7E2E4F3E0DF011D928A95E9F790E081
:1058B00080E00E94E632863E9E4F11F00E949920C1
:1058C00082E090E00E94DE3280935C0384E090E00E
:1058D0000E94E632909351038093500383E090E05E
:1058E0000E94DE3290E00E9481100E9445051092D5
:1058F00046058FEF9FEF9093600580935F0590932F
:10590000620580936105909364058093630590938D
:10591000660580936505909368058093670590936D
:105920006A058093690590936C0580936B0590934D
:105930006E0580936D051092C5039093DF038093ED
:10594000DE039093E1038093E0039093E30380935D
:10595000E2039093E5038093E4039093E70380933D
:10596000E6039093E9038093E8039093EB0380931D
:10597000EA039093ED038093EC0390E080E00E94B3
:10598000E632863E9E4F21F00E9499200E94061327
:1059900081E08093720548E050E068E170E083E7C1
:1059A00095E00E94CE3210927205809173058C7F33
:1059B00011F40E9406130E949412811102C00E94E9
:1059C000983082E491E09093E9048093E804809118
:1059D000FE04853089F410E4F12EEE24E39400E116
:1059E00012E18091FE04853009F4ACC00E948A194E
:1059F0000E94B7121092F2030E9484178DE593E083
:105A00009E878D87A2E5B3E0B88BAF8727E633E0AA
:105A1000FC0191918D912E173F0709F4DAC0981778
:105A2000C1F30E949412682E512C412CF12CEF8569
:105A3000F889B190F88BEF87AD85BE858D91BE87D3
:105A4000AD878B1509F445C28B258B8B6201E12C48
:105A5000AA24A3948B898A2109F42FC22B2C2A20F3
:105A60006620A1F0EF82F8860E94B9049A878987A0
:105A7000B1E0BB8791E0211001C090E09C874F818D
:105A8000588569857A858B850E944529222039F0C1
:105A9000F601EB54FE4F80818F3F09F0AAC1312CF3
:105AA000032D10E08091C503800F912F911D099760
:105AB0006CF1F8E08F2E912C801A910AB8016A538C
:105AC0007C4FA40186EC93E00E94C532B80162537A
:105AD0007C4FA4018EEC93E00E94C532A401440FD8
