:100000000C94BA020C9442300C94F2020C94F2025A
:100010000C94F2020C94F2020C94F2020C94F20290
:100020000C94F2020C94F2020C948D290C94492940
:100030000C948A2A0C94F2020C94F2020C94F202B0
:100040000C94F2020C94F2020C94F2020C94F20260
:100050000C94F2020C94662A0C94F2020C94F202B4
:100060000C94F2020C94F2020C94F2020C94F20240
:100070000C94F2020C94F2020C94F2020C94F20230
:100080000C94F2020C94F2020C94F2020C94F20220
:100090000C94F2020C94F2020C94F2020C94F20210
:1000A0000C94F2020C94F2020C94F2020000000094
:1000B0000000000000000000000000000000000040
:1000C0000000000000000000000000000000000030
:1000D0007E0F00D4FFFFFFC7000000780000000083
:1000E000000000002A2B2800000000000000000093
:1000F0000000000000000029000000002C1E342039
:10010000212224342627252E362D3738271E1F205E
:100110002122232425263333362E37381F040506A3
:100120000708090A0B0C0D0E0F10111213141516E7
:100130001718191A1B1C1D2F3130232D35040506E5
:100140000708090A0B0C0D0E0F10111213141516C7
:100150001718191A1B1C1D2F3130354C167C1E0028
:100160001F002000210022002B0014001A000800AC
:1001700015001700E00004001600070009000A003F
:10018000E1001D001B000600190005000000000032
:10019000E300017E280050082A00270026002500E1
:1001A000240023004C00130012000C0018001C0057
:1001B000340033000F000E000D000B002832380011
:1001C000370036001000110000000000E600027E3B
:1001D0002C004F0835021E021F02200221022202BB
:1001E00001001E021F0220022102220201002D0234
:1001F0002E022F02300231020100167CE300E200E1
:10020000E0003402000000000100010001002602AD
:100210002A00270226022502240223024C0027027C
:100220002602250224022302350235004F00520027
:10023000510050002C3231004F084B004E00500846
:1002400000000000010001002800270235001E0008
:100250001F0020002100220001001E001F002000BE
:100260002100220001002D002E002F00300031005F
:100270000100167CE700E600E0003400000000000A
:10028000010001002A002F022A0027002600250075
:10029000240023004C002700260025002400230012
:1002A0003F003E003D003C003B003A00450044005A
:1002B0004300420041004000000000000100010036
:1002C0000100300245003A003B003C003D003E008A
:1002D0002778257823782978217820780100DD0097
:1002E000DE00DF00D100D2002878267824782A7832
:1002F0002278D300000000000100010001002F005F
:10030000440043004200410040003F00007C0100E7
:1003100030082F08300A2F0A01000100D000CD005C
:10032000CE00CF0001000100DC00D900DA00DB00C4
:100330000000000001000100010030000001010187
:100340000101010101010202020202020202020392
:100350000303030303030304040404040404050562
:100360000505050606060606070707070708080825
:1003700008090909090A0A0A0B0B0B0C0C0C0D0DD4
:100380000D0E0E0E0F0F0F1010111111121213136C
:100390001414151516161717181819191A1A1B1BE5
:1003A0001C1D1D1E1E1F2020212222232424252641
:1003B00026272829292A2B2C2D2D2E2F3031323279
:1003C000333435363738393A3B3C3D3E3F40414285
:1003D000434445464748494A4C4D4E4F505153546B
:1003E000555658595A5B5D5E5F616264656668691F
:1003F0006B6C6D6F7072737577787A7B7D7E80829F
:10040000838587888A8C8E8F91939596989A9C9EE7
:10041000A0A2A3A5A7A9ABADAFB1B3B5B7BABCBEF7
:10042000C0C2C4C6C9CBCDCFD1D4D6D8DBDDDFE2C4
:10043000E4E7E9EBEEF0F3F5F8FAFDFF0501090258
:10044000A10185020901A10005091901290815006A
:1004500025019508750181020501093009311581D1
:10046000257F95027508810609381581257F95013C
:1004700075088106050C0A38021581257F950175DE
:10048000088106C0C005010980A101850319012A60
:10049000B700150126B700950175108100C0050C45
:1004A0000901A101850419012AA002150126A00253
:1004B000950175108100C005010906A10105071904
:1004C000E029E71500250195087501810295017560
:1004D0000881010507190029FF150026FF00950670
:1004E0007508810005081901290595057501910216
:1004F000950175039101C009023B00020100A0FAB9
:100500000904000001030101000921110100012279
:1005100040000705810308000109040100010300F0
:100520000000092111010001227B00070582032040
:100530000001120100020000000810CB56642006E2
:10054000010200011A0349007200690073002000D3
:100550005200650076002E00200036006200000088
:100560000E034B0065006500620069006F0000002B
:100570000403090411241FBECFEFDAE0DEBFCDBFB4
:1005800004B603FE18C080912A0590912B05A09116
:100590002C05B0912D058730904BA740B04B59F4F6
:1005A00010922A0510922B0510922C0510922D0501
:1005B000E0E0F8E3099512E0A0E0B1E0EAECF5E64E
:1005C00002C005900D92A83BB107D9F725E0A8EB32
:1005D000B2E001C01D92AA32B207E1F70E94B12A2F
:1005E0000C946C320C94000090912205937061F091
:1005F00081110BC09460909322051092510180915B
:1006000021058160809321050895833210F0986858
:10061000F2CF880F880F982BEECF90912205937020
:1006200071F08093230560932405493708F048E76B
:1006300040932505809121058160809321050895CF
:10064000E8EDF0E080818E7F80831092E2001092CE
:10065000DA001092E100A0EEB0E08C9181608C9302
:1006600080818F77808319BCA7EDB0E08C918E7F5D
:100670008C9380818F7E80831092DA04089520917C
:10068000E4003091E50095E6A9012091EC00822F6D
:10069000817020FF06C08091E80080FF06C080E0E6
:1006A00008952091E80022FD1AC08091E704882374
:1006B00089F0853089F08091EB0085FD0FC0209195
:1006C000E4003091E50042175307F9F29150E1F64A
:1006D00084E0089582E0089583E0089581E008951C
:1006E0008091E90487FF13C08091E80082FF06C073
:1006F0008091E8008B778093E80004C08091E70444
:100700008111F2CF08958091E7048823D9F3809175
:10071000E80080FFF8CF8091E8008E77ECCF982F2B
:100720009093E900242F762F50E0891731F07091D3
:10073000EC002091ED005091F00021FD07C09F5F7B
:10074000973071F78093E90081E008953091EB00D4
:100750003E7F3093EB003091ED003D7F3093ED0014
:100760003091EB0031603093EB007093EC002093FC
:10077000ED005093F0002091EE0027FDE0CF80E0E7
:100780000895B0E0A0E0E7ECF3E00C946831C8ED28
:10079000D0E088818F7E8883E7EDF0E08081816002
:1007A000808384E082BF81E08093DA0488818E7F39
:1007B000888302EE10E0F80110821092DA0081EED8
:1007C000C82ED12CF601108288818F77888388818A
:1007D0008068888388818F7D888319BC1092E704A4
:1007E0001092E8041092E6041092E50490EEE92ECF
:1007F000F12CF70180818B7F8083888181608883E1
:1008000042E060E080E00E948F03F60180818E7FED
:100810008083F8018081816080838081886080830B
:10082000F70180818E7F8083888180618883CDB746
:10083000DEB7E8E00C948431FC018091EF049091E4
:10084000F00486179707A0F06115710529F49091BF
:10085000E8009E779093E80090E06115710551F4EF
:10086000911108C08091E80082FF34C080E00895B3
:10087000BC01F2CF8091E7048823C1F18530C1F13A
:100880008091E80083FD30C08091E80082FDEACFCE
:100890008091E80080FFE1CF8091F3002091F20089
:1008A000382F6115710519F02830310558F091E0A5
:1008B0002830310509F090E02091E8002E77209350
:1008C000E800CBCF81918093F100615071092F5FD7
:1008D0003F4FE7CF8091E704882341F0853041F016
:1008E0008091E80083FFBECF81E0089582E0089503
:1008F00083E008958091DC0408959C014FB7F8943B
:100900008091D6049091D704A091D804B091D904D5
:100910004FBF821B930B08952FB7F8946091D604B4
:100920007091D7048091D8049091D9042FBF089575
:100930002FB7F8948091D6049091D704A091D80451
:10094000B091D9042FBF08959C01FC0132969FEF0E
:1009500080E04191461751F09F3F19F4411101C0C9
:10096000982F8F5F8630A9F79F3F09F40895290FCC
:10097000311D97FD3A95F90162830895A3E0B0E037
:10098000E4ECF4E00C946E312091D3043091D40463
:1009900028173907A1F09093D4048093D304E091F1
:1009A000D104F091D204309751F024E029839B8345
:1009B0008A830680F781E02DCE0101960995239662
:1009C000E2E00C948A31A3E0B0E0E9EEF4E00C94AC
:1009D0006E312091CF043091D00428173907A1F04F
:1009E0009093D0048093CF04E091D104F091D2048D
:1009F000309751F023E029839B838A830680F78117
:100A0000E02DCE01019609952396E2E00C948A31FF
:100A1000FC01680F791F8FEF91E32191822728E075
:100A200030E087FF09C0880F892721503109C9F7B5
:100A3000E617F70791F70895880FF7CFFA018111AC
:100A400001C0FB0109950895E2E2F5E0248130E15F
:100A5000231B08F420E0248380912105816080938A
:100A600021050895E2E2F5E0248130E1230F08F446
:100A70002FEF2483809121058160809321050895C3
:100A8000E2E2F5E0438120E1421B08F440E081818D
:100A9000628190E00E940D030895E2E2F5E0438157
:100AA00020E1420F08F44FEF8181628190E00E94C3
:100AB0000D030895E2E2F5E0628120E1621B08F493
:100AC00060E08181438190E00E940D030895E2E29D
:100AD000F5E0628120E1620F08F46FEF81814381CC
:100AE00090E00E940D030895E2E2F5E081814381E8
:100AF00062818850990B0E940D030895E2E2F5E0AF
:100B0000818190E04381628108960E940D030895DF
:100B10008091220586958695815009F482E20E9493
:100B2000F402089580912205869586958F5F833221
:100B300008F081E00E94F4020895809349018091B9
:100B400022058370809348010E94FB1383E0809309
:100B500051010895EF92FF920F939701201B3109E5
:100B60002F3F310519F010F02FEF30E02095382F8E
:100B7000320F08F43FEF832F0F91FF90EF9008950D
:100B8000EF92FF920F939701201B31092F3F310500
:100B900019F010F02FEF30E0322F3095482F430F2F
:100BA00008F44FEF842F620F0F91FF90EF9008959C
:100BB000EF92FF920F93972F093438F4B701601B1F
:100BC00071096F3F710519F010F06FEF70E0485F29
:100BD0005F4F4131510540F0A901485F5F4F4131FE
:100BE000510510F06FEF70E06095482F460F08F444
:100BF0004FEF842F37FF02C02D5F3F4F359527956C
:100C00003595279560912305620F792F0F91FF90FD
:100C1000EF900895EF92FF920F931F930E0D1F2DEB
:100C2000111DF90137FF03C0F195E195F10924E0A9
:100C3000EE0FFF1F2A95E1F7EF3FF10519F014F0D1
:100C4000EFEFF0E09A0157FF03C03195219531098C
:100C500094E0220F331F9A95E1F72E173F070CF40B
:100C6000F901E00FF11FEF3FF10519F010F0EFEF80
:100C7000F0E0E095282F3E2F230F08F42FEF822F6E
:100C80001F910F91FF90EF900895EF92FF920F93B5
:100C9000970195E0099F200D311D11242F3F31054B
:100CA00019F010F02FEF30E02095382F320F08F4B4
:100CB0003FEF832F0F91FF90EF90089522E8241BC0
:100CC00008F420E0620F08954095282F429F412D9F
:100CD0001124842F08950F931F9310E0F801EE0F55
:100CE000FF1FE551FE4F9081905797FD9195000FA2
:100CF000111FF801E155FE4F05AD0052110B200305
:100D0000F001219FF00D112408E310E0091B1109E7
:100D100097FD139540039001419F300D1124E20F80
:100D2000F31F9F01220F331F2E0F3F1F37FF02C0FB
:100D300021583F4F220F232F221F330B620F1F9189
:100D40000F9108950F931F93522F10E0F801EE0FAB
:100D5000FF1FE155FE4FA5ADA052BB0B9D015203F5
:100D6000F001539FF00D1124000F111FD801A55160
:100D7000BE4F0C910057110B40039001419F300D65
:100D800011242E0F3F1F37FF02C0215C3F4F96E01A
:100D9000359527959A95E1F7620F1F910F91089568
:100DA0000F931F93522F10E0F801EE0FFF1FE15534
:100DB000FE4FA5ADA052BB0B9D015203F001539F06
:100DC000F00D1124000F111FD801A551BE4F0C9139
:100DD0000057110B40039001419F300D11242E0F3D
:100DE0003F1F37FF02C021583F4F220F232F221FE2
:100DF000330B620F1F910F910895EF920F93972F6E
:100E000023E0029FB0011124759567956E0D792F2F
:100E10000F91EF900895322F50E0FA01EE0FFF1F6F
:100E2000E155FE4F95AD905297FD9195440F551F9A
:100E3000FA01E551FE4F2081231B330B290F311D91
:100E400097FD3A95620F0895E42FF0E0EE0FFF1F33
:100E5000E155FE4F65AD621B0895E42FF0E0EE0F03
:100E6000FF1FE551FE4F6081621B0895622F0895B8
:100E7000E42FF0E0EE0FFF1FE551FE4F408134EE0E
:100E8000439F412D1124E82FF0E050E0445E5F4F76
:100E9000DA01A21BB1099D01B7FF03C0319521956D
:100EA000310993E0220F331F9A95E1F7AF01421BFE
:100EB000530B9A0157FD20E0582F259F212D112417
:100EC000822F0895E42FF0E0EE0FFF1FE551FE4F53
:100ED000408134EE439F412D1124E72FF0E050E094
:100EE000445E5F4FDA01A21BB1099D01B7FF03C049
:100EF00031952195310993E0220F331F9A95E1F73F
:100F0000AF01421B530B9A0157FD20E0279F212D73
:100F10001124722F08950E94F8090895FF920F93EB
:100F20001F93CF93DF93182F062FF42ED0E0C0E04D
:100F30002F2D402F612FCE010E948B072196C434A4
:100F4000D105B1F7CDB7DEB7E5E00C948731FC01F0
:100F50009B01009729F480E077FF2BC080E808957B
:100F6000AC0197FF04C044275527481B590BB90112
:100F7000640F751F37FD10C0241B350BC901A5E098
:100F8000880F991FAA95E1F70E94A93180E2861B7C
:100F9000F7FF0FC081950895CB0165E0880F991F79
:100FA0006A95E1F7BA01621B730B0E94A93180E6D2
:100FB000EECF0895EF920F93CF93DF93D72FC82FE3
:100FC000C9010E19BA010E94A707602F681B7D2F67
:100FD0008C2FDF91CF910F91EF9008950F93CF93C6
:100FE000DF93D72FC82FC901BA010E94A707682F26
:100FF000600F7D2F8C2FDF91CF910F910895EF928D
:101000000F931F93CF93DF93D62FC72F182FC901AC
:101010000E19010FBA010E94A707081B202F219F5C
:10102000212D1124822F6D2F7C2FDF91CF911F91C5
:101030000F91EF900895EF920F931F93CF93DF934B
:10104000D62F172FC82FC9010E19070FBA010E94FA
:10105000A707702F781B719F712D11246D2F8C2F76
:10106000DF91CF911F910F91EF9008950F931F93F0
:10107000CF93DF93D62FC72F182FC901212F201B05
:10108000022FBA010E94A707982F990F990F891B69
:10109000800F282F219F212D1124822F6D2F7C2F2F
:1010A000DF91CF911F910F9108950F931F93CF93CD
:1010B000DF93D62F172FC82FC901272F201B022FF0
:1010C000BA010E94A707982F990F990F782F791BC3
:1010D000700F719F712D11246D2F8C2FDF91CF9187
:1010E0001F910F910895E82F86FDE0952E2F2F7008
:1010F00086FD2F5FE695E695E695E670F0E0E9550A
:10110000FE4F9181929F902D212D112492959F70D9
:101110002295207F922B2081920F87FD919580E868
:10112000890F0895AC018230910508F408959FEF6E
:10113000413E8EE1580740F49A0195E03695279597
:101140009A95E1F798E0920F61E0E62FE90FFF270B
:10115000FF1F9F0135952795822F229FF001239F26
:10116000F00DF00D11244E175F0738F49FEF920F2A
:10117000961758F78FEF860F08952F3FE9F361E038
:10118000620FF6CF0F93CF93DF93D72FC82F47FD72
:10119000419588E390E0841B910947FD9395889FD2
:1011A000B001899F700D700D1124229FC001239FF3
:1011B000900D900D1124860F971F0E949208982F72
:1011C000990F890F682F600F7D2F8C2FDF91CF91A2
:1011D0000F91089530E020E0869F212D969F200DED
:1011E000311D1124C9010895AF92BF92CF92DF92B1
:1011F000FF920F931F93CF93DF93362F472FE82F44
:10120000F0E0E45CFC4F71110FC0E4918E2F2E2FA3
:101210006E2F722FDF91CF911F910F91FF90DF9072
:10122000CF90BF90AF900895C72FD0E02491F22EB9
:10123000022F10E056E0659FC0011124EFEFF0E0AF
:10124000BF010E949531832F90E0880F991F35E5EB
:10125000369FD001379FB00D11248A1B9B0B982F0E
:10126000990F980F6F01CC1ADD0AC09ED001C19E64
:10127000B00DD09EB00D11248B2F499FA0011124D9
:10128000452F55276F01C41AD50AC09EA001C19EE3
:10129000500DD09E500D11245F01A91AB108AC9ECB
:1012A0006001AD9ED00CBC9ED00C1124CD2CDD2451
:1012B000EC19FD09E09FE001E19FD00DF09FD00DFA
:1012C0001124ED2F62307105A1F050F46115710504
:1012D00009F49ECF6130710581F0EB2F852F98CFF7
:1012E0006430710569F080F06630710509F490CFC3
:1012F000F4CFE22F2B2F8D2F8BCFE22F252F88CFEE
:10130000EB2F822F2D2F84CF2B2F8F2DE52F80CFEA
:101310000E9498049C019091AA038091AB03982BA2
:1013200021F03093A7032093A6039091AC03809102
:10133000AD03982B21F03093A5032093A403E091F3
:10134000D104F091D204309749F082E08093A80351
:101350000480F581E02D88EA93E009950895809155
:10136000A30380FD16C081FD16C082FD16C08091CA
:10137000A2038823A1F0883280F428E0829FC00174
:10138000112468E270E00E94A931862F672B39F0A2
:10139000089582E0089584E0089588E0089581E04A
:1013A00008958091A30380FD14C081FD14C082FDC7
:1013B00016C08091A103882381F08E3180F420E54E
:1013C000829FC00111246EE170E00E94A931862F36
:1013D000089584E1089588E2089588E0089580E5FD
:1013E000089580E0089589B185FB882780F90895E4
:1013F000FF920F931F93CF93DF93EC01F62E042FF0
:10140000122F0E94F30981110FC0C232D1057CF066
:10141000A297FE01EE0FFF1FEC0FFD1FE452FC4FE1
:10142000F1820083128303C0C232D10594F3CDB799
:10143000DEB7E5E00C948731CF93C82F0E94F30903
:10144000882329F081E0C23228F080E003C081E0E7
:10145000C434D8F7CF910895A8E0B0E0E2E3FAE011
:101460000C945E31282E7C836B8320914E018EE09C
:10147000289F802D11248D83825F8983853410F00D
:1014800034E439830E94F309882329F08981833267
:1014900010F092E299830E94F309811105C0ED8159
:1014A000E23210F4F2E2FD832091F5042A839D815B
:1014B000892F90E098878F83880F991FFC01E15551
:1014C000FE4F6F01822D90E09C012F5F3F4F3E83C6
:1014D0002D8389819F81981730F00E941C0A2896DD
:1014E000E2E10C947A31EF81F885ED58FD4F80816F
:1014F00090914F018923F9F0309023054090240505
:101500008D819E818B509B4F3C01522C10E0FA81C3
:101510005F16D8F020912505129F112D1124632DFF
:10152000742D812F0E94F408462F282F672F8F815A
:1015300098850E948B072F8138852F5F3F4F388712
:101540002F8332E0C30ED11CC4CFF30181913F0140
:10155000F601A4ACA81ABB0885ACF3018781881AF0
:101560009908AA9C9001AB9C300D300D1124889CE9
:10157000C001899C900D900D1124820F931F0E9431
:101580009208082F6091260521E0620F08F46FEFA2
:10159000F301EE0FFF1FE55FF440858996890E94F5
:1015A000EA087C019401A501632D742D812FEB8144
:1015B000FC810995362E472E5394182FA8CFB0E002
:1015C000A0E0E5EEFAE00C9468317C01C0914E0198
:1015D0008EE0C89FC02D11241EE01C0F153408F0AA
:1015E00014E40E94F309882319F0133208F012E280
:1015F0000E94F309811103C0C23208F4C2E22091B3
:10160000260531E0230F08F42FEF30E050E040E0F2
:101610006FEF7FEF80E090E00E94DF316901D0E062
:1016200001E02C2FC11740F0812F0E941C0ACDB77A
:10163000DEB7E8E00C948431FE01ED58FD4F808167
:1016400090914F01892309F14091F5044150042EF6
:10165000000C550B47FF1BC0C60160912605600FAB
:1016600008F46FEF0E94EA08AC01609123057091C5
:10167000240580912505F70109950E94F408462F5D
:10168000282F672FCE010E948B072196CACFFA011F
:10169000EB50FB4F818982130AC0FA01EE0FFF1F46
:1016A000EB50FB4F818D928D8C159D05B0F2415012
:1016B0005109D0CFB0E0A0E0E0E6FBE00C94663149
:1016C0006C01C0914E018EE0C89FC02D11241EE018
:1016D0001C0F153408F014E40E94F309882319F054
:1016E000133208F012E20E94F309811103C0C232E2
:1016F00008F4C2E260912605669566958091F10432
:101700009091F2040E94EA08F82E80E48F0D0E9466
:10171000730890E8B92EB80E8F2D0E94730820E848
:10172000A22EA80ED0E0C11740F0812F0E941C0A03
:10173000CDB7DEB7EAE00C948231FE01ED58FD4FE3
:10174000808190914F018923A1F0609123057091D0
:10175000240580912505EF2C0C2F2A2D4B2DF60109
:1017600009950E94F408462F282F672FCE010E946A
:101770008B072196D8CFB0E0A0E0E1ECFBE00C9421
:1017800062315C01C0914E018EE0C89FC02D1124D2
:101790001EE01C0F153408F014E40E94F30988239E
:1017A00019F0133208F012E20E94F309811103C00C
:1017B000C23208F4C2E26091260566958091F10478
:1017C0009091F2040E94EA08F82ED0E0CE01880F32
:1017D000991F9C0121553E4F6901C11740F0812F8F
:1017E0000E941C0ACDB7DEB7EEE00C947E31FE01FC
:1017F000ED58FD4F808190914F01892379F1F601D9
:1018000084AD282F2057330B490185ADE82FE052D6
:10181000FF0B3F01889C9001899C300D300D1124F5
:10182000EE9FC001EF9F900D900D1124820F931F2A
:101830000E949208082F60912305709124058091E1
:101840002505EF2C9301A401F50109950E94F408E8
:10185000462F282F672FCE010E948B07F2E0CF0E74
:10186000D11C2196BACFB0E0A0E0E9E3FCE00C94F3
:1018700067316C01C0914E018EE0C89FC02D1124CC
:101880001EE01C0F153408F014E40E94F3098823AD
:1018900019F0133208F012E20E94F309811103C01B
:1018A000C23208F4C2E26091260566958091F10487
:1018B0009091F2040E94EA08B82ED0E0CE01880F81
:1018C000991F9C0121553E4F7901C11740F0812F8E
:1018D0000E941C0ACDB7DEB7E9E00C948331FE010B
:1018E000ED58FD4F808190914F018923C1F0F701A0
:1018F00025AD2052330B44AD4057550B6091230565
:1019000070912405809125050B2DF60109950E9403
:10191000F408462F282F672FCE010E948B07F2E094
:10192000EF0EF11C2196D1CFEF92FF920F931F93F0
:10193000CF93DF937C01C0914E018EE0C89FC02DF4
:1019400011241EE01C0F153408F014E40E94F30962
:10195000882319F0133208F012E20E94F309811172
:1019600003C0C23208F4C2E260912605669566950E
:1019700021E0620F08F46FEF8091F1049091F2047E
:101980000E94EA08082FD0E0C11740F0812F0E9482
:101990001C0ACDB7DEB7E6E00C948631FE01ED58A7
:1019A000FD4F808190914F01892391F06091230533
:1019B0007091240580912505202F4C2FF701099562
:1019C0000E94F408462F282F672FCE010E948B0714
:1019D0002196DACFB0E0A0E0E0EFFCE00C946631B5
:1019E000182F80914901811323C090912205937093
:1019F0002091480130E081E09217130609F480E05D
:101A00008170809350018091270590914F01981724
:101A100039F080934F0140E060E080E00E948E0743
:101A2000133288F4E12FF0E0E259FD4C0C94FE31C2
:101A300081E0E6CF80915001882389F140E060E0A9
:101A400080E00E948E0780E02AC0C0914E018EE0A7
:101A5000C89FC02D11240EE00C0F053408F004E4DB
:101A60000E94F309882319F0033208F002E20E9471
:101A7000F309811103C0C23208F4C2E26091230568
:101A800070912405809125050E94F408F62EE72E1A
:101A9000D82ED0E0C017D8F0802F0E941C0A909159
:101AA0004E019F5F90934E0181110CC082E08093A4
:101AB000510180915001811105C0111103C083E0D3
:101AC00080935101CDB7DEB7EAE00C948231FE017C
:101AD000ED58FD4F808190914F01892331F02D2DDC
:101AE0004F2D6E2DCE010E948B072196D3CFC09132
:101AF0004E018EE0C89FC02D11240EE00C0F05345E
:101B000008F004E40E94F309882319F0033208F076
:101B100002E20E94F309811103C0C23208F4C2E25A
:101B2000E0902405F0902505D09123056D2F7E2DA2
:101B30008F2D0E94F408D62EC72EB82E6091260550
:101B40006D0F7E2D8F2D0E94F408F62EE72EA82E05
:101B5000D0E0C01708F0A0CFFE01ED58FD4F9081F6
:101B600080914F01892359F02A2D4F2D6E2D90FD24
:101B700003C02B2D4D2D6C2DCE010E948B0721967D
:101B8000E8CFC0914E018EE0C89FC02D11240EE019
:101B90000C0F053408F004E40E94F309882319F0BF
:101BA000033208F002E20E94F309811103C0C2323D
:101BB00008F4C2E2E0902405D09025052091260586
:101BC00050E4F52E3F2D329F312D1124F32ED0E01D
:101BD000C01708F061CFFE01ED58FD4F8081909154
:101BE0004F018923B9F0FE01EE0FFF1FE155FE4FB3
:101BF00085AD82958F70609123058F9D600D1124B6
:101C00007E2D8D2D0E94F408462F282F672FCE01A0
:101C10000E948B072196DCCFC0914E018EE0C89FB9
:101C2000C02D11240EE00C0F053408F004E40E94CE
:101C3000F309882319F0033208F002E20E94F30945
:101C4000811103C0C23208F4C2E2E0902405D090B2
:101C500025052091260530E4F32E3F2D329F312DAE
:101C60001124F32ED0E0C01708F016CFFE01ED5876
:101C7000FD4F808190914F018923D9F0FE01EE0F35
:101C8000FF1FE155FE4F64ADF69EB001112495E0B3
:101C9000759567959A95E1F780912305680F7E2DDC
:101CA0008D2D0E94F408462F282F672FCE010E9409
:101CB0008B072196D8CFC0914E018EE0C89FC02DD2
:101CC00011240EE00C0F053408F004E40E94F3091F
:101CD000882319F0033208F002E20E94F30981110F
:101CE00003C0C23208F4C2E2F0902305D09124056B
:101CF000E09025056091260566956695669580912C
:101D0000F1049091F2040E94EA080E94730880583E
:101D100087FD8195880F282F3E2D239F212D11248B
:101D2000822F6F2D7D2F0E94F408F62EE72ED82EDD
:101D3000D0E0C01708F0B0CEFE01ED58FD4F808115
:101D400090914F01892331F02D2D4F2D6E2DCE0115
:101D50000E948B072196EDCF82E697E00E94940CBB
:101D60009ECE88E397E0FACF85E598E00E94330C99
:101D700096CE86E398E0FACF8BE198E00E94BB0B09
:101D80008ECE8FEF97E0FACF86E397E0E7CF8DE234
:101D900097E0E4CF84E297E0E1CF8BE097E0DECFFD
:101DA0008DEF96E0EBCF82EC98E0E0CF8EEE97E0FF
:101DB000DDCF8AED97E0E2CF80ED96E00E945A0BEE
:101DC0006ECE82EA96E0FACF8BE696E0F7CF84E615
:101DD00096E00E94DF0A63CE8EE596E0FACF80910E
:101DE000F50421E0382F321B08F430E0832F65E43E
:101DF00076E00E942C0A53CE65E476E080E0F9CFCD
:101E00008091F50421E0382F321B08F430E0832F55
:101E10006AE076E0EECF6AE076E0F0CF8091F504FC
:101E200021E0382F321B08F430E0832F68ED75E095
:101E3000E0CF68ED75E0E2CF8091F50421E0382F26
:101E4000321B08F430E0832F60EC75E0D2CF60ECF9
:101E500075E0D4CF8091F50421E0382F321B08F4CF
:101E600030E0832F6AEA75E0C4CF6AEA75E0C6CF36
:101E7000F894E82FE295EF70F0E031A1282F2F7051
:101E800081E090E001C0880F2A95EAF7982F90959D
:101E9000932391A392A1892B82A378940895909182
:101EA000770392FF06C0282F28712830F9F4877F26
:101EB000846093FF06C0282F28712831F1F4877EB3
:101EC00084612091780320FF06C0382F38713830A4
:101ED000D9F4877F816021FF06C0282F287128311F
:101EE000D1F4877E816194FD877E0895282F247127
:101EF0002430F9F68B7F8860DCCF282F24712431C1
:101F000001F78B7E8861DDCF382F3171313019F7C1
:101F10008E7F8860E0CF282F2171213121F78E7EBE
:101F20008861E1CF972F7A30B8F46630A8F4843016
:101F300098F470E026E0929F600D711D1124FB0162
:101F40009CE3899FE00DF11D1124EE0FFF1FE45A61
:101F5000FE4F85919491089580E090E00895CF938D
:101F6000DF93EC0182389105B9F108F041C081336B
:101F7000910509F49FC050F58932910509F48FC08D
:101F80008A9709F49EC0C11520E5D20708F0BDC0AC
:101F9000C11530E4D30708F00AC1C03ED10508F0EE
:101FA000A5C0CD3CD10508F000C1C83AD10508F064
:101FB0008FC0C53AD10508F0F0C0C130D10539F164
:101FC000209729F1C430D10510F546C0853391051D
:101FD00009F460C0C997B9F680917703837009F05E
:101FE00044C18091780383FF12C0C9E2D0E00FC0E2
:101FF000833E9105A1F178F4803E910509F1823E7E
:10200000910509F0C0CF8091770382FD21C0CE01F8
:10201000DF91CF910895863E910561F1873E91054C
:1020200071F1843E910509F0AECF8091780381FF74
:10203000EECF80917703C7EED0E084FD0DC0E7CFEF
:102040008091770380FD33C09091780390FFDFCFBC
:10205000C3EED0E084FFDBCFD0E0C0E0D8CF8091EA
:10206000770382FDFFC09091780390FDFEC084FF4E
:10207000CECFF2CF8091770383FDDDCFC8CF8091A3
:10208000770383FDF5C09091780391FFF0CFC4EE04
:10209000D0E0BDCF8091770385FFB9CFA6CF8091E7
:1020A000770385FDE8C08091780383FFB0CFC9E353
:1020B000D0E0ADCF8091770386FFA9CFCAE2D0E010
:1020C000A6CF8091770386FFA2CFC1E3D0E09FCF58
:1020D000C13CD10508F6C85AD0E0CC0FDD1FCD5960
:1020E000DE4F0990D881C02DD46491CFC11540E254
:1020F000D40708F0AAC0C11581E0D80708F087CF3F
:10210000C83ED10508F483CFA7CFC03622E5D20759
:1021100018F5C03432E5D30708F053C0C03242E5A9
:10212000D40708F047C0C11582E5D80708F47FC07E
:102130002C2F2695269540E2249F900111248C2F68
:102140008370C1E0D0E002C0CC0FDD1F8A95E2F7BA
:10215000C22BD32BDD685BCFC03A22E5D20760F4F7
:10216000C03832E5D30708F441C0CF71D0E0DC2F8E
:10217000CC27C46FD06A4BCFC03C42E5D40708F4EB
:102180004AC0C03E82E5D80708F066CFDC2FCC27D6
:10219000CC27DF71C06FD06A3ACFC55AD0E0C05AA1
:1021A000DE4FC881D0E0D06432CFD06530CFDF7051
:1021B000D06A2DCFCF71D0E0DC2FCC27C16FD06A91
:1021C00026CF2C2F26952695277080E2289F9001F8
:1021D00011248C2F8370C1E0D0E002C0CC0FDD1F32
:1021E0008A95E2F7C22BD32BDC6811CF2C2F2695D2
:1021F0002695277040E2249F900111248C2F837034
:10220000C1E0D0E002C0CC0FDD1F8A95E2F7C22BFF
:10221000D32BDA68FCCE8C2F8F710E944F0FC82F02
:10222000D0E0DC2FCC27CC27DF71D062F0CE8C2F12
:102230008F710E944F0F35E0D695C7953A95E1F71B
:10224000CF709C2FEC01D069E2CE8D2F8F710E9450
:102250004F0F90E0982F882788279F719C012C2B87
:10226000E901E3CFC2EED0E0D2CEC0EED0E0CFCED7
:10227000C6EED0E0CCCEC5E3D0E0C9CE0E948C043F
:10228000089580912B03811110922B030895909152
:10229000780392FF05C090912B03981380932B0332
:1022A000089580959091A90498239093A904089586
:1022B00080959091A80498239093A8040895809104
:1022C00021039091F002981301C008958F5F8770E9
:1022D000FACFB0E0A0E0EFE6F1E10C9467317C01C9
:1022E000009128051091290580912C0390912D03D0
:1022F000082B192BCFE0D0E0CC24C394D12CBC2EDA
:10230000C6010C2E02C0880F991F0A94E2F78023A1
:102310009123892B49F4219790F7B12C8B2DCDB7C0
:10232000DEB7E9E00C948331B7018C2F0E94920F45
:102330000E94AF0F019779F3F1CFCF93DF93EC01B8
:102340000E946911BE010E94920F0E94AF0FDF919F
:10235000CF9108959A3078F5863068F5E82FF0E04F
:1023600086E0989FE00DF11D11249E2F977083E069
:10237000F695E7958A95E1F7EE0FFF1FEE0FFF1F29
:10238000E653FD4F50E040E080E0219130E0092E1F
:1023900002C0369527950A94E2F721703327042E60
:1023A00001C0220F0A94EAF7822B4F5F5F4F44303F
:1023B000510559F7089580E008959A3098F58630D0
:1023C00088F5E82FF0E086E0989FE00DF11D1124DC
:1023D0008E2F877041E001C0440F8A95EAF783E0B1
:1023E000F695E7958A95E1F7EE0FFF1FEE0FFF1FB9
:1023F000E653FD4F30E020E070E05191DF0111978E
:10240000CB01022E02C0969587950A94E2F781705F
:1024100081958527842385278C932F5F3F4F243018
:10242000310559F70895909329058093280508955B
:1024300080912805909129059C012670332726302C
:10244000310521F488600E9413120895877FFBCF25
:1024500021E030E002C0220F331F8A95E2F7209579
:1024600030958091280590912905822393230E941D
:10247000131208959091220380958923809322035B
:10248000282F277091F4282F082E000C330B921759
:10249000130659F09091780392FF07C085958595B2
:1024A00085950E94281210922203089521E030E0C1
:1024B00002C0220F331F8A95E2F780912805909180
:1024C0002905822B932B0E941312089590932D03BC
:1024D00080932C030895FC0183819481892B29F03A
:1024E0008081918189238F3F51F480E00895843F5A
:1024F000E1F717C0883EA8F0813FB9F712C080818C
:1025000091810E949D1192959F70963099F358F495
:10251000925F9F70923048F7803F19F040F7883EF5
:1025200020F781E008959A5FF4CF662309F45DC037
:102530008D3C41F40E94D10981958093AB030E94A8
:10254000880908958E3C19F40E94D109F6CF8F3C7A
:1025500031F40E94D10981958093AA03F0CF803D88
:1025600019F40E94D109F8CF893D29F40E94AF09DE
:102570008093AC03E4CF8A3D21F40E94AF0981959A
:10258000F7CF8B3D31F40E94AF0981958093AD0365
:10259000D6CF8C3D19F40E94AF09F8CF9FE2980F77
:1025A000983070F4815D990B21E030E001C0220F7A
:1025B0008A95EAF78091A903822B8093A903BFCF64
:1025C0008D3D31F48091A30381608093A303B7CF45
:1025D0008E3D21F48091A3038260F7CF8F3D09F0F7
:1025E000AECF8091A3038460F0CF4091AA038D3CCD
:1025F00059F48091AB0387FF0DC01092AB034111DA
:102600000BC01092A10308C08E3C81F48091AB03F3
:1026100018169CF3442381F08091AC039091AD0394
:10262000892B09F08CCF1092A20389CF8F3C49F4FB
:1026300047FFF0CF1092AA038091AB038111ECCF3A
:10264000E0CF803D19F41416ACF3E4CF9091AC03C5
:10265000893D29F41916F4F61092AC03DBCF8A3DBC
:1026600019F497FFD7CFF8CF9091AD038B3D29F4A4
:1026700097FFD0CF1092AD03CDCF8C3D19F4191632
:10268000CCF3C8CF9FE2980F983090F4815D990BFE
:1026900021E030E0B90102C0660F771F8A95E2F7AA
:1026A000CB0180959091A90389238093A903B2CF90
:1026B0008D3D31F48091A3038E7F8093A303AACF35
:1026C0008E3D21F48091A3038D7FF7CF8F3D09F0DC
:1026D000A1CF8091A3038B7FF0CF9C013A95211568
:1026E0003F4150F5FC01EE27F170BC016627727086
:1026F000AC01442754709C012227387094FF0EC00F
:1027000080E1EF2B09F480E0672B09F08062452B14
:1027100009F08064232B89F08068089581E0EF2B15
:1027200009F480E0672B09F08260452B09F0846092
:10273000232B19F08860089580E008950F931F936C
:10274000CF93DF938B01EA019091E704943061F518
:102750008093E9008FEF9091E800815095FD06C0CD
:1027600095ED9A95F1F700008111F5CF8091E80081
:1027700085FF1AC00E943F03811111C08091E800BB
:1027800085FD06C08091E8008E778093E800F2CF47
:10279000F80181918F018093F100219779F7809161
:1027A000E8008E778093E800DF91CF911F910F9121
:1027B000089543E050E0BC0182E00E949E1308951A
:1027C00046E050E0BC0182E00E949E130895CF9342
:1027D000DF93EC0148E050E0BC0181E00E949E13D1
:1027E00088E0FE01ADEDB4E001900D928A95E1F72D
:1027F000DF91CF9108956E9A3EB13F7B2EB1206458
:102800004FB7F8948CED93E0FC015191CF0168E053
:102810002EB9000000C057FF3EB9550F000000C0A0
:1028200000C000C03EB900C06A9591F7F4E0883A54
:102830009F0751F74FBF8FE594E00197F1F700C074
:1028400000000895B0E0A0E0E8E2F4E10C94663105
:102850007C015B016A018091640301E010E08A3031
:1028600010F40AE010E0C1E0D0E0B501C701F601C4
:102870000995811104C021960C171D072CF4CDB7C2
:10288000DEB7EAE00C948231CC9F9001CD9F300DF1
:10289000300D112490E080E045E34A95F1F7000007
:1028A000019682179307C1F7E0CF80913B03811116
:1028B00010C08091D80080618093D8008AE18A9509
:1028C000F1F700C08091D90080FF0AC081E08093B9
:1028D0003B0381E090913B03913009F080E0089543
:1028E00082E080933B030E9420031092E704F1CF23
:1028F0000E945514882359F0E091D104F091D2043C
:10290000309729F00190F081E02D0995089580E03D
:1029100008950F931F930E945514882329F00E9455
:102920008C041F910F9108950E948C0400916503FF
:10293000109166032091670330916803600F711F47
:10294000821F931FEECFCF92DF92EF92FF926B0127
:102950007C010E9455148823A1F02FB7F894609150
:10296000D6047091D7048091D8049091D9042FBFD8
:102970006C197D098E099F09FF90EF90DF90CF9031
:1029800008950E948914F4CF4F925F926F927F92C4
:102990008F929F92AF92BF92CF92DF92EF92FF926F
:1029A0006091D7037091D8038091D9039091DA0395
:1029B0000E94A3146B017C010E9489144B015C01ED
:1029C0008092D7039092D803A092D903B092DA03F1
:1029D000A091AE03EEEAF3E08A2F90E04FEF5FEFB5
:1029E00060E070E04C195D096E097F09A91328C0E9
:1029F0008093AE038091DB03811135C09091220555
:102A0000892F837019F0892F8695869590915101B1
:102A1000913009F441C0992341F1923009F43FC04B
:102A2000933009F43FC0FF90EF90DF90CF90BF90BC
:102A3000AF909F908F907F906F905F904F90089590
:102A4000218D328D2901712C612C441555056605A7
:102A5000770520F481509F5F3296C8CF2C0D3D1D25
:102A6000328F218FF8CF80E0D1CF10924E0180922B
:102A7000F1049092F204A092F304B092F40489E27B
:102A8000EEEAF3E0A5EFB4E001900D928A95E1F74C
:102A900081E080935101C7CF0E94EA0CC4CF0E940D
:102AA0009D05C1CF80912105882351F046E050E07B
:102AB0006CE170E082E295E00E94223210922105E2
:102AC0006091F1047091F2048091F3049091F40408
:102AD0000E94A314603171058105910508F4A3CF0C
:102AE00010925101A0CFE2E2F5E085E3808380916E
:102AF000520190915301A091540181839283A38349
:102B00008FE784838FEF858346E050E06CE170E0CF
:102B1000CF010E9422321092210508958091A804CD
:102B20009091A904892B8093BA0290912B03992349
:102B300091F0892B8093BA0220E08CEB92E0FC01AB
:102B40003191CF0131112F5FF2E0823C9F07B9F73D
:102B500021110E94411148E050E063E273E08AEBEA
:102B600092E00E945632892BA9F088E0EAEBF2E06D
:102B7000A3E2B3E001900D928A95E1F7E091D104D0
:102B8000F091D204309731F00280F381E02D8AEB8E
:102B900092E00995089580914C01877F80934C01C4
:102BA0008091CE04811103C082E00E945111809176
:102BB0004C0184FF08C08F7E80934C018091A80453
:102BC00082608093A80480914C0185FF08C08F7DAE
:102BD00080934C018091A80480628093A8040E9495
:102BE0008E150895882321F00E9451110E948E15A0
:102BF00008958091CE04882329F082E20E94F21584
:102C00001092CE040895882339F09091A904982B4E
:102C10009093A9040E948E150895882321F00E94A4
:102C200058110E948E150895882339F09091A804B8
:102C3000982B9093A8040E948E1508958823D1F1B3
:102C40009CEF980F913A78F4ECEBF2E091918913B4
:102C500003C0DF0111971C9292E0E23CF907B1F743
:102C60000E948E15089590E2980F983050F4877066
:102C700091E001C0990F8A95EAF7892F0E945811B7
:102C8000EFCF9BE5980F933028F490E080E00E940E
:102C9000E304089598E5980F993128F490E080E0D6
:102CA0000E94BE04089593E3980F933118F460E0F6
:102CB0000E9495120895CF93DF93EC010E941E1697
:102CC000CE010E946D139E01205E3109283031052E
:102CD00010F0CD2B29F40E940D16DF91CF910895AD
:102CE0000E94F215FACFCF93C82F8823B1F08CEF52
:102CF0008C0F813A00F5ECEBF2E082EC92E0DF0120
:102D00002D91C21761F08A179B07D1F76C2F8AEBC0
:102D100092E00E94A4040E948E15CF910895219103
:102D2000C21303C0DF0111971C928E179F07B9F7DA
:102D30000E948E15EBCF80E28C0F883068F4C7704C
:102D400021E030E001C0220FCA95EAF78091A80483
:102D5000822B8093A804DFCFEBE5EC0FE33040F447
:102D6000F0E0E05AFE4F808190E00E94E304D5CF6E
:102D7000E8E5EC0FE93150F4F0E0EE0FFF1FED59FC
:102D8000FE4F808191810E94BE04C7CF83E38C0FE8
:102D9000833118F661E08C2F0E949512BECF1F93ED
:102DA000CF93DF93182FEB010E947316209739F40D
:102DB000812F0E941E16DF91CF911F9108958FE9F8
:102DC0009FE00197F1F700C000002197EFCF70E07E
:102DD00060E0893311F460E570E00E94CF16089539
:102DE0000F931F93CF93DF93C62FD42F022FFC0195
:102DF00082818823A9F0609320050E949804909313
:102E00001F0580931E05C77081E001C0880FCA9519
:102E1000EAF70E941416DF91CF911F910F91089548
:102E200080912005681332C080911E0590911F0586
:102E30000E947D04883C910548F510E21D0FCD17D6
:102E4000B9F080E28C0F883040F4C77081E001C097
:102E5000880FCA95EAF70E940D16183048F481E0F1
:102E60009D2F977001C0880F9A95EAF70E9414165B
:102E7000802F0E94E716183070F6D77081E001C0ED
:102E8000880FDA95EAF70E940D16C5CFC77081E06A
:102E900001C0880FCA95EAF7F6CFCF93DF93EC0114
:102EA0000E946D139E01205E31092830310510F01B
:102EB000209741F40E9414168C2F0E947316DF9104
:102EC000CF9108950E940316F7CFB0E0A0E0EBE6A3
:102ED000F7E10C9469318C01EB0180914C0182FF88
:102EE00086C0E090CC04F090CD04E016F10621F00D
:102EF0000115110509F07BC080914C018B7F8093F7
:102F00004C0181FD6DC08091CA049091CB04AE014B
:102F1000481B590B81E020914A0130914B01421727
:102F2000530708F480E08170D82E80914C01D0FACC
:102F300081F980934C0187011127F80184E0F6950F
:102F4000E7958A95E1F7EE0FFF1FE655FB4F2081CD
:102F50003181A7014F70552781E090E002C0880FB2
:102F6000991F4A95E2F7DD20E9F1822B932B91839B
:102F700080838091A80481FF08C080914C0180610A
:102F800080934C0182E00E9458118091A80485FF33
:102F900008C080914C01806280934C0180E20E94C5
:102FA0005811DD2029F08091A90482608093A90442
:102FB000C70190528115904308F47801C7010E941F
:102FC0004D178091CC049091CD049C013052211575
:102FD000304308F499270E945B160E94CB1517C056
:102FE00081E0A1CF8095909582239323C0CFC80123
:102FF000905281159043A0F4C80199270E945B1656
:103000008091CC049091CD040817190731F3D09327
:10301000CB04C093CA04CDB7DEB7E7E00C9485318A
:10302000C801ECCF0F931F93CF93DF938C01EB017B
:103030000E944D17209741F4C8010E945B16DF9152
:10304000CF911F910F9108958FE99FE00197F1F7BC
:1030500000C000002197EECF8091280590912905AE
:10306000009711F080FF2CC0809135036623A9F0F2
:10307000811106C081E08093350383EE0E947316B0
:103080000E949804909334038093330370E060E0CF
:103090008BE290E00E9412181CC0811106C081E0F2
:1030A0008093350383EE0E9473160E9498049093D8
:1030B00034038093330370E060E08BE292E0EACF68
:1030C00083FF0DC0662339F06AE070E089EA0E9450
:1030D000CF1680E008956AE070E08AEAF8CF81FFB9
:1030E00007C08EE4611101C08BE40E94E716F1CFA6
:1030F00082FFEFCF80913503662339F08111C0CF75
:1031000081E08093350380EEB9CF8111CECF81E08D
:103110008093350380EEC7CFAFE0B0E0E2E9F8E19D
:103120000C9463318E010F5F1F4F8AE0D8011D920E
:103130008A95E9F788E3C82E81E0D82EF12CE12C9E
:10314000AA24A394B12C28E3822E21E0922EF6012A
:1031500081916F018F3F09F442C0F894E82FE29506
:10316000EF70F0E021A18F70A50102C0440F551F40
:103170008A95E2F7CA01922F982B91A392A180958C
:10318000892382A3789400C0E2E3F1E0712C31E05E
:1031900021912F3F09F46BC0A22FA295AF70B0E030
:1031A00090968C9190E02F7002C0959587952A9506
:1031B000E2F780FD5CC0832F782A330F8E169F06BE
:1031C00039F7F601319780818F3F11F00E94380F57
:1031D00050EA5A95F1F7F801EE0DFF1D70828FEF5E
:1031E000E81AF80A95E0E916F10409F0B0CF4AE0D0
:1031F00050E0B8018BE693E00E945632009741F010
:103200002AE0F801ABE6B3E001900D922A95E1F7D0
:1032100000917603892B69F181E0809330030E944D
:10322000980490932F0380932E0380912E03909106
:103230002F030E947D04059700F110E005581C4FF4
:1032400045E050E06BE673E0C8010E945632D12C95
:10325000892B51F085E0EBE6F3E0D80101900D9267
:103260008A95E1F7DD24D3941092300307C080E003
:10327000A3CF809130038111D8CFD12C0E94551457
:10328000C82EE0917603DE011B967D01882309F4A8
:1032900091C085E01D928A95E9F70E2F10E0055840
:1032A0001C4F809164038A3008F051C04DEE5EE1FE
:1032B000B701C8010E942214882309F46AC044E9B6
:1032C0005EE1B701C8010E942214882309F461C09D
:1032D00049E95DE1B701C8010E942214882309F47D
:1032E00058C047E35DE1B701C8010E94221488235A
:1032F00009F44FC0109264038091750390E045E09B
:1033000050E0B70185589C4F0E94563221E020932F
:103310003A03892B89F5C12C80913503882389F0E4
:1033200080913303909134030E947D048F3E92403C
:1033300040F083EE0E941E1680EE0E941E16109230
:1033400035038C2D8D292F96EDE00C947F318091E3
:103350003103909132030E947D04843F914008F034
:10336000A5CF80913A038823B1F285E0F70111924D
:103370008A95E9F710923A03A0917503B0E0A55839
:10338000BC4F85E0FE013B9601900D928A95E1F7D6
:10339000C3CF809164038F3F31F08F5F80936403CC
:1033A0008A3008F4A9CF0E94980490933203809346
:1033B0003103D7CFF0E0E558FC4F85E0AEE4B3E051
:1033C00001900D928A95E1F765E070E08EE493E05C
:1033D0000E94080580934D0340919D0350E0609149
:1033E0009C0370E068567C4FC7010E9463328B8556
:1033F0008093540361E070E0C7010E940805809348
:1034000053038090550390905603A0905703B090BB
:1034100058038091360390913703A0913803B091FF
:10342000390388169906AA06BB06D1F080923603A6
:1034300090923703A0923803B09239030E9455143A
:1034400081110EC00E948C04861A970AA80AB90A34
:103450008092650390926603A0926703B09268031E
:1034600086E0E9E5F3E0A2E2B5E001900D928A95ED
:10347000E1F710915F03112349F08091DB03811183
:1034800005C00E94EA0C80E00E949D051093DB03BA
:1034900058CFCF931092A804C6E0ECEBF2E0DF0126
:1034A0008C2F1D928A95E9F790E080E00E94E3045A
:1034B00090E080E00E94BE041092A9040E948E1544
:1034C000E8EAF3E0DF011D92CA95E9F71092A10343
:1034D0001092A2031092A3030E948809CF9108952D
:1034E000AAE2B0E0E6E7FAE10C946D3189EE94E0EF
:1034F0002091F100FC012193CF01F4E0813F9F076F
:10350000B9F78091EA04833009F470C0B8F48130CF
:1035100009F447C0823009F4B1C08091E80083FF0C
:103520007EC28091E9049091EA049A3008F077C253
:10353000E92FF0E0EF56FD4C0C94FE318A3009F48F
:103540008CC08B3009F46FC0893039F78091E90461
:10355000813219F78091ED049091EE040297E8F61C
:103560008091E800877F8093E8008091E80082FFE7
:1035700038C09091F3008091F200029731F480916D
:10358000F100813011F0863021F48091F1008093B8
:10359000DC048091E8008B778093E8000E94700340
:1035A000BCCF8091E904813A09F0B7CF8091E8005F
:1035B000877F8093E8008091ED049091EE04892B41
:1035C00061F468E08DED94E070E00E941C0480914D
:1035D000E8008B778093E800A0CF60E090E080E087
:1035E000F3CF8091E7048111C0CF97CF8091E90498
:1035F000813A09F092CF8091ED049091EE04892BED
:1036000009F08BCF8091E800877F8093E80080915C
:10361000E80080FFFCCF80914D018093F100809104
:10362000E8008E77B9CF8091E904813209F075CF37
:103630008091ED049091EE04892B09F06ECF80917A
:10364000E800877F8093E8000E9470038091EB047C
:1036500080934D010E94491A60CF8091E904813224
:1036600009F05BCF8091E800877F8093E8000E949B
:1036700070038091EC048093DB044FCF8091E904C8
:10368000813A09F04ACF8091E800877F8093E80073
:103690008091E80080FFFCCF8091DB04BECF8038B2
:1036A00099F0823809F0BBC18091ED048F708730AA
:1036B00008F0B5C18093E9008091EB0085FB882775
:1036C00080F91092E90006C08091E5049091E6042B
:1036D000911182609091E800977F9093E800809329
:1036E000F1001092F1008091E8008E7794C1882358
:1036F00009F482C1823009F092C18091EB048111FA
:1037000085C18091ED048F702FEF280F263008F0CF
:1037100086C18093E9002091EB0020FF77C19330B0
:1037200031F48091EB0080628093EB006FC1909147
:10373000EB0090619093EB0021E030E001C0220F9C
:103740008A95EAF72093EA001092EA008091EB0054
:103750008860EACF811163C11091EB041F778091DB
:10376000E3008078812B8093E3008091E800877FDD
:103770008093E8000E9470038091E80080FFFCCFF6
:103780008091E30080688093E30082E0111183E080
:103790008093E70444C18058823008F040C1809192
:1037A000EB049091EC048C3D23E09207A1F583E0BB
:1037B0008A838AE289834FB7F894DE01139620E06A
:1037C0003EE051E2E32FF0E050935700E49120FFF8
:1037D00003C0E295EF703F5FEF708E2F90E0EA300C
:1037E000C0F0C7968D939D932F5F243159F74FBF3B
:1037F0008091E800877F8093E8006AE270E0CE0164
:1038000001960E941C048091E8008B778093E80069
:1038100006C1C096E7CF4091ED045091EE04292FE8
:1038200033272330310509F444C078F521303105C0
:1038300009F46FC08BE390E0E7EFF4E0223031054C
:1038400009F0EDC02091E800277F2093E800209147
:10385000EF043091F0048217930708F49C0140E0D4
:103860002115310509F064C0411162C08091E80062
:1038700082FDC9CF8091E704882329F2853019F2AF
:103880008091E80083FFF2CFBECF21323105A9F14C
:103890002232310509F0C3C04115510509F443C076
:1038A0004130510509F0BBC08BE790E0ECE3F4E058
:1038B000C9CF992781309105C1F0009759F002973F
:1038C00009F0ADC0E4E4F5E0E4918E2F90E0E4E48B
:1038D000F5E007C0E0E7F5E0E4918E2F90E0E0E747
:1038E000F5E0009709F49BC0ADCFE0E6F5E0E49188
:1038F0008E2F90E0E0E6F5E0F4CF4115510571F030
:103900004130510509F08BC089E090E0E2E2F5E03A
:1039100099CF82E190E0E2E3F5E094CF89E090E096
:10392000E9E0F5E08FCF80E490E0E7EBF4E08ACFC8
:103930008091E704882309F466CF853009F463CFCA
:103940008091E80083FD5FCF8091E80082FD8ECFFB
:103950008091E80080FF84CF9091F3008091F20085
:103960002115310519F08830910550F041E0089794
:1039700009F040E08091E8008E778093E80070CFF6
:1039800044914093F1003196215031090196E8CFDE
:10399000803809F044C08091E800877F8093E80078
:1039A0008091E8048093F1009ECE811138C010917F
:1039B000EB041230A0F58091E800877F8093E80047
:1039C0001093E8040E947003112311F084E005C0F5
:1039D0008091E30087FDFACF81E08093E70442E025
:1039E00061EC81E00E948F0342E261EC82E00E9480
:1039F0008F038091E70413C08091EB04813079F448
:103A000081E0933009F080E08093E6041092E900B1
:103A10008091E800877F8093E8000E947003809186
:103A2000E80083FF0AC08091E800877F8093E80068
:103A30008091EB0080628093EB00AA96E3E00C9407
:103A400089310E94491A2FEF84E39CE02150804085
:103A50009040E1F700C0000088E19CE00FB6F894C8
:103A6000A895809360000FBE90936000FFCFA7E001
:103A7000B0E0EDE3FDE10C946C3186E0E2E2F5E0CC
:103A8000DE01119601900D928A95E1F78091DB039A
:103A90008F8347E050E069E573E0CE0101960E9414
:103AA00056320091600310916103209162033091BE
:103AB0006303EFB7F8944091D6045091D704609116
:103AC000D8047091D904EFBF401B510B620B730BEC
:103AD000443651056105710518F411E0892B21F177
:103AE00080912B0190912C01835B9C4F40912A0186
:103AF00050E04830510510F047E050E0BE016F5FE4
:103B00007F4F0E94633285E090E00E94E830182FDA
:103B1000882351F00E948C046093600370936103CA
:103B20008093620390936303812F2796E4E00C94C3
:103B30008831A4E0B0E0EFE9FDE10C946D314091F3
:103B4000490350914A0360914B0370914C032FB786
:103B5000F8948091D6049091D704A091D804B091A4
:103B6000D9042FBF841B950BA60BB70B11E084362D
:103B70009105A105B10570F10E9489146E5F7F4F18
:103B80008F4F9F4F69837A838B839C83809123011E
:103B900090912401835B9C4F4091220150E045307D
:103BA000510510F044E050E0BE016F5F7F4F0E946E
:103BB000633284E090E00E94E830182F882351F0AF
:103BC0000E948C046093490370934A0380934B03D3
:103BD00090934C03812F2496E3E00C9489314F920B
:103BE0005F927F928F929F92AF92BF92CF92DF921D
:103BF000EF92FF920F931F93CF93DF930F92CDB766
:103C0000DEB7C62E4A015901482E880F5508C20159
:103C10000E94E830782E882309F480C0C20133E086
:103C2000880F991F3A95E1F7FC01EE5FFE4F438143
:103C300050E04115510511F041E050E08E5F9E4F7C
:103C4000FC0164817581635B7C4FCE0101960E940B
:103C50006332F40140815181628173812FB7F894FE
:103C60008091D6049091D704A091D804B091D90442
:103C70002FBF841B950BA60BB70B84369105A105AE
:103C8000B10540F4B701C8010E9408059981891760
:103C900009F444C00C2C000CDD08C6010E94E83079
:103CA000782E811113C0712C872D0F90DF91CF9149
:103CB0001F910F91FF90EF90DF90CF90BF90AF904A
:103CC0009F908F907F905F904F900895C60123E062
:103CD000880F991F2A95E1F7FC01EE5FFE4F4381A3
:103CE00050E0E416F50608F4A7018E5F9E4FFC0134
:103CF00064817581635B7C4FC5010E946332B701AB
:103D0000C8010E94080599818913CDCF0E948C04B7
:103D1000F4016083718382839383C6CFA701B801C6
:103D2000C5010E946332C0CFA1E0B0E0EAE9FEE144
:103D30000C946731EE24E394F12C04E513E09E012A
:103D40002F5F3F4F45E453E063E082E00E94EF1DA8
:103D5000C82E882339F100E080E01DC0D0906A03AE
:103D6000D00E2D2D30E0A90148565C4F7A01E1E0DC
:103D7000F0E0EC0FFD1FE00FF11D1081FA019081C2
:103D8000191BB12E1B149CF0912F17FD90E0191BED
:103D9000111118C00F5F909169030917F8F2811192
:103DA0000E943E118C2D2196E9E00C948331BA9447
:103DB000F70180818F5F808360E08D2D0E942C1839
:103DC0008C2DE0CF1F5FF70180818150808361E0FF
:103DD0008D2D0E942C188C2DDBCFA5E0B0E0E3EFF9
:103DE000FEE10C9468316B0185E0E82EF12C0EE4C5
:103DF00013E09E012F5F3F4F41E453E061E080E01C
:103E00000E94EF1D882349F095E0FE013196ACE356
:103E1000B3E001900D929A95E1F795E0ECE3F3E0C1
:103E2000D60101900D929A95E1F72596E8E00C9461
:103E300084319091780392FB222720F9281779F09A
:103E400080FB92F9909378036091770370917803E7
:103E500084E090E00E94503282E00E943A1208957D
:103E600067EE7EEF90E080E00E94503260E082E0FA
:103E700090E00E94323260E083E090E00E943232B3
:103E800010922D0310922C0360E074E184E090E026
:103E90000E94503260E086E090E00E9432326FEF84
:103EA00087E090E00E94323240E050E0BA0188E0C2
:103EB00090E00E94443260E08DE090E00E94323257
:103EC00040E050E0BA0188E190E00E94443260E0B6
:103ED00087E190E00E94323240E050E0BA018CE18C
:103EE00090E00E94443270E060E080E290E00E9446
:103EF000503240E050E0BA0188E190E00E94443244
:103F000040E050E0BA018FE090E00E94443240E08F
:103F100050E0BA0183E190E00E9444320895A5E0A8
:103F2000B0E0E5E9FFE10C945E317C01FC018381A6
:103F30009481892B31F08081918189238F3F09F011
:103F40002DC72596E2E10C947A310E946911182F51
:103F5000682F89819A810E94DD1169817A81812F80
:103F60000E94920F8C018130FEE79F0709F444C044
:103F7000A0F481159E4709F10337ECE71E0709F00D
:103F800065C0F7018281882329F18091CE048823BE
:103F900009F44CC00E94F9151DC002308EE71807C5
:103FA000C9F103309EE7190739F7F70182818823A9
:103FB000C9F183E00E9456120DC0F7018281882367
:103FC00049F061E083E090E00E94323281E090E0CD
:103FD0000E94661280912203877009F4B2CFF70124
:103FE0008281882309F4ADCF8091780382FFA9CF25
:103FF00082E00E943A12A5CFF7018281882331F036
:1040000081E00E9456120E941812E4CF81E00E94C3
:104010002812F9CFF7018281882311F082E0F1CFD5
:1040200082E0F5CF83E00E942812D4CF1092A8043A
:104030000E9441110E94980488579C4E90939703C8
:104040008093960381E08093CE04C4CF8091CE0408
:10405000882309F461C0C090A804D0902B030E946B
:10406000980488579C4E9093970380939603F7018A
:104070008281882309F450C08D2D8C298D7909F017
:1040800096C00034F2E51F07C8F5011522E51207B6
:1040900008F042C0011530E4130750F4011580E226
:1040A000180708F078C0063E1105B1F168010AC092
:1040B000011590E51907D0F7F7018581807F61F13F
:1040C0006801DD2480914C0180FD86C08FEF0E9445
:1040D0005111F8E2CF16D10408F080C02EE1C216CB
:1040E000D10408F085C034E0C316D10408F45FC0E1
:1040F0008091A90482608093A9047AC0043BE2E520
:104100001E0751F0C801053BF2E51F07F0F5805688
:1041100092458034910550F60E9498042C01F701D5
:104120008281882309F496C180914C0182FF07C0E7
:1041300040E953E0B20190E080E00E94651702314F
:10414000FCE71F0709F490C008F05FC000313CE7AE
:10415000130709F483C001318CE7180709F474C010
:10416000C80190528115904308F082C11092CD048D
:104170001092CC04F801E851FC47E730F10508F053
:1041800024C2E556FD4C0C94FE31805C924580972C
:1041900008F08CCFC1CFF7018581807F09F090CFE7
:1041A000812F8F71823181F028F4823089F00E9452
:1041B000F915B2CF843109F4AFCF8631C1F7F6EEED
:1041C000CF2EF2E1DF2E7ECFB5EECB2ED12C7ACFE3
:1041D000A1EECA2ED12C76CF8DEF79CF8DE2C81605
:1041E000D10409F485CF38F4EAE2CE16D104F9F609
:1041F0000E948E1591CFFCE4CF16D104C9F32DE2B5
:10420000C21622E0D206A1F3D2CF04319CE71907EF
:10421000B9F080F090914C01892F8E7F90FF8160E2
:104220000531FCE71F0709F09BCF80934C010E94EA
:10423000CB1596CF80914C01816080934C0190CF3B
:1042400080914C018E7FF1CF80914A0190914B017A
:10425000059690934B0180934A0182CF80914A0149
:1042600090914B010597F5CF80904A0190904B01BA
:10427000809100019091010188169906F9F48091CE
:10428000C8028032D9F4E2ECF2E06F018191803211
:10429000E1F36AE0262EF6012081222309F460CFA3
:1042A000213009F082C091818281913009F041C0B2
:1042B000F2E0CF0ED11C0E94E71642C0909201019D
:1042C0008092000180E28093C802B12CA12C109250
:1042D000C70272EC672E72E0772EEDEB2E2EE2E035
:1042E0003E2E6301C501B4012AE030E040E050E019
:1042F0000E94BD31605D603319F46C147D0431F0AF
:1043000081149104A104B10409F460E2F60164830C
:10431000C501B4012AE030E040E050E00E94BD3128
:1043200049015A01F1E0CF1AD1082C143D04D1F60D
:10433000AACF923049F422E0C20ED11C0E9473161B
:104340003FEFC31AD30AA7CF933031F432E0C30E44
:10435000D11C0E941E16F4CF943021F08FEFC81AA2
:10436000D80AEECF92E0C90ED11C30E020E0A601C1
:104370004F5F5F4F8053990B8A30910550F0215069
:104380003109F0F28FE99FE00197F1F700C00000DA
:10439000F6CF229EB001239E700D11249C01260FA2
:1043A000371FF60181816A01E2CFE22FF0E0E4528B
:1043B000FF4F3490822F86958695869590E0FC017C
:1043C000E453FF4F64902770712C022E02C0759445
:1043D00067940A94E2F7E1E06E227724FC01E4544A
:1043E000FF4F8490912C022E02C0959487940A94DA
:1043F000E2F7F1E08F229924FC01E455FF4FA490ED
:10440000B12C02C0B594A7942A95E2F721E0A2222C
:10441000BB246114710419F081EE0E94731681149B
:10442000910419F086EE0E947316832D0E94E71600
:104430008114910419F086EE0E941E166114710415
:1044400019F081EE0E941E16A114B10409F478CF70
:104450008CE231CF80914C018F7E013E110531F00D
:10446000053E1105C1F480914C018F7D80934C0174
:1044700080914C0180FF7ECEF70182810B321105C5
:1044800021F1D0F498012450310924323105E8F0AB
:1044900081116CCE6FCEC80190528115904340F7C8
:1044A00080914C0182FF66CE40E953E0B20190E07A
:1044B00080E00E9465175ECE0D32110548F3093386
:1044C000110518F00436110519F7882309F459C0AD
:1044D00080912B039091A804982B292F2D7F61F1B7
:1044E0001092CD041092CC04F80144E0F695E795C3
:1044F0004A95E1F7EE0FFF1FE655FB4F98012F702D
:10450000332781E090E002C0880F991F2A95E2F7D7
:10451000809590952081318182239323918380839C
:10452000C8010E944D1780912B038D7F0E94471177
:1045300082E00E943A124ECD26E0F701A0E9B3E0F6
:1045400001900D922A95E1F7109292031092940334
:104550001092930320914C0191FB21F920934C017F
:104560008D7F0E9447111093CD040093CC0450928C
:10457000CB044092CA0480914C01846080934C012A
:10458000D7CFA701B201C8010E94651723CD26E24B
:1045900041EE61EEC7010E94F0161CCD27E245EE08
:1045A00065EEF8CF26E241EE60EEF4CF27E245EE6D
:1045B00064EEF0CF26E241EE62EEECCF27E245EE6C
:1045C00066EEE8CF28E241E0EBCFF7018281882355
:1045D00009F40CC410922005C8019057839708F085
:1045E000EEC384E090E00E941C32909378038093A5
:1045F0007703F801E150F047E232F10520F4EE557F
:10460000FD4C0C94FE318091770381608093770399
:1046100095C0809178038860809378038FC08091E3
:1046200077038260F3CF809177038460EFCF80912E
:1046300077038860EBCF809178038160EDCF809124
:1046400078038260E9CF809177038061DFCF80912A
:1046500077038062DBCF809177038064D7CF0E949D
:10466000491A809177038068D1CF809177038C605D
:10467000CDCF809178038360CFCF809177038E7FF9
:10468000C5CF80917803877FC7CF809177038D7FD7
:10469000BDCF809177038B7FB9CF80917703877FE0
:1046A000B5CF809178038E7FB7CF809178038D7FCF
:1046B000B3CF809177038F7EA9CF809177038F7DD1
:1046C000A5CF809177038F7BA1CF0E94491A80915B
:1046D00077038F779BCF80917703837F97CF8091EC
:1046E00078038C7F99CF8091770382FB992790F98B
:1046F00021E0922790FB82F990FB83F987CF80918C
:104700007803982F909591708E7F892B90FB81F97B
:1047100083CF90917703892F8F7B96FF806476CF2C
:104720000E94491A90917703892F97FB87F9805847
:104730006DCF61E08EE090E00E94323260917703AD
:104740007091780384E090E00E9450320E94491AF0
:1047500041CC60E0EFCF90917703892F8F7E94FF5B
:10476000806154CF90917703892F8E7F90FF816075
:104770004DCF90917803892F877F93FF88604CCF2E
:1047800085E33EC38091A8048272F801E052F847A5
:10479000E531F10508F060C0EC53FD4C0C94FE319E
:1047A0008091220591E08927809322051092510182
:1047B000809121058160809321050CCC48E855E06B
:1047C00062E975E00E941E0505CC42E955E068E803
:1047D00075E0F8CF44E755E06EE775E0F3CF4EE7BC
:1047E00055E064E775E0EECF4AE555E067E675E031
:1047F000E9CF47E655E06AE575E0E4CF40E455E0EF
:104800006DE475E0DFCF4DE455E060E475E0DACFAC
:1048100044E255E062E375E0D5CF42E355E064E25F
:1048200075E0D0CF81E00E94F402D4CB85E0FBCFCD
:104830008DE0F9CF82E1F7CF0330FCE71F0709F4E1
:1048400092C008F051C001153CE7130709F45CC0A1
:1048500001301C4709F48DC0F7018281008111816C
:10486000882309F494C0C8010E946911D82E682FCA
:10487000C8010E94DD11B8018D2D0E94920F0E9487
:10488000AF0F8C01882EF701D280B580B2943FE043
:10489000B322809122038770C1F0AD2CDD20B1F0EE
:1048A000812F807F803421F080E2800F883068F093
:1048B0008091780382FF09C082E00E943A128091C1
:1048C00022038770AA24A3948111A12C912E929483
:1048D0002FE09222FBE0F91508F4C0C0E92DF0E0CA
:1048E000E752FD4C0C94FE310B359CE7190709F497
:1048F0004CC00C35ECE71E0709F43DC00A351C47D7
:1049000009F0AACF81E03EC00E94491A2FEF34E39C
:104910008CE0215030408040E1F700C0000081E091
:104920008093E00080E28093D8001092C900EFE10C
:10493000FEE43197F1F700C0000087E090EBDC0166
:1049400080932A0590932B05A0932C05B0932D05F9
:1049500088E19CE00FB6F894A895809360000FBEA4
:1049600090936000FFCF6FEF7FEF90E080E00E94B8
:1049700050320E94211D8091780382FB882780F9A4
:1049800091E089270E94191F67CF80E0FBCFC80103
:104990000E94AA11D82E6FCF212F2F70C22E107F08
:1049A00019F0C29490EFC922DD20B9F0CC2069F053
:1049B00080E2800F883010F0811009C08091A80437
:1049C000C82AC092A8040E948E15802F45C08091ED
:1049D000A904C82AC092A904F6CF802F0E941E16EF
:1049E000CC20E1F1005E8C2D083010F0811003C066
:1049F0000E94581102C00E9451110E948E152EC0B3
:104A0000312F3F70C32E107F103219F0C29480EF07
:104A1000C822882089F081E0881609F477C0DD205B
:104A200009F481C0BB2009F477C0F701858180FFBC
:104A3000CCCF8F70858370C08091780382FD44C095
:104A4000DD20D9F1CC2039F08091A804C82AC09289
:104A5000A8040E948E1580E00E947316E92DE8508C
:104A6000FF0B349710F40E947814AA20A9F08091CB
:104A7000220380FD11C0F7011282859585958595E9
:104A80000E945612C7010E948F1F809122038595B4
:104A9000859585950E94281285E0F701DE01119623
:104AA00001900D928A95E1F709811A81C8010E944F
:104AB000AA11B8010E94920F44CA80E00E941E16FB
:104AC000CC2061F28C2D94CFDD2071F080912B03EE
:104AD0008C29B11003C00E941416C0CF91E0B91206
:104AE000FACF0E944711BACFB11006C00E944111FF
:104AF0008C2D0E940D16B2CFE1E0BE1609F4AECFA8
:104B00008C2D0E940D160E944111A8CFDD2031F09E
:104B1000F5E0FB1508F4A2CF8C2DDDCF24E02B159A
:104B200008F49CCFE5CFBB2019F3F9E38F122FC116
:104B30002FEF37EE83E0215030408040E1F700C096
:104B4000000025C1812F86958695837061F08130A4
:104B500009F084CFC8019370D11002C080E090E0CA
:104B60000E94BE047BCFC8019370D11002C080E0C8
:104B700090E00E94E30472CF6D2D802F0E94951269
:104B80006DCF812F837009F03FC0D11067CF402FC8
:104B9000429546954770440F440F802F8F7090E0E8
:104BA000042E02C0880F991F0A94E2F730E020E03B
:104BB00004FF09C02FE030E002C0220F331F4A95E6
:104BC000E2F720953095169516951370123099F0EE
:104BD00078F440912C0350912D03113039F0822B41
:104BE000932B842395230E94661238CF842B952B18
:104BF000822B932BF8CF822B932B20912C03309177
:104C00002D0382279327EFCF8695DD2011F0812F8A
:104C10008170882309F422CF402F42954695477032
:104C2000440F440F802F8F7090E0042E02C0880F35
:104C3000991F0A94E2F730E020E004FF09C02FE05A
:104C400030E002C0220F331F4A95E2F720953095DD
:104C5000169516951370123099F078F44091280546
:104C600050912905113039F0822B932B8423952301
:104C70000E941312F3CE842B952B822B932BF8CF0B
:104C8000822B932B20912805309129058227932789
:104C9000EFCF1F70DD2029F0812F0E945612802F48
:104CA0001ACF802F0E940D16812F0E942812D6CE77
:104CB000802F92EF891699F1981570F0E0EF8E161B
:104CC000D1F0F1EF8F1691F0DD2009F45BC0B11047
:104CD0007CCE812F8F7127C023EF821639F134EFFC
:104CE0008312F2CF8091780382FD2EC0812F8F71C5
:104CF000DD20D9F218C0DD2069F084E08B1508F4BE
:104D0000ADCE1F7181E090E002C0880F991F1A9507
:104D1000E2F7B8CF95E09B1508F4A0CEF2CF812F33
:104D20008F71D110C2CF0E94561298CE90E080E0D1
:104D3000DD2009F49DCF1F7181E090E002C0880F53
:104D4000991F1A95E2F794CFDD2089F01F71812F0A
:104D50000E9456128091780382FF07C0E8E01E9FF0
:104D6000C0011124836080932203812FDCCF81E076
:104D70000E943A12F1E0FB1508F070CE82E00E942A
:104D80003A126CCEBB2039F0893309F4D1CE802F92
:104D90000E941E1663CE812F8F7187CF85E0DE01C2
:104DA000119601900D928A95E1F7F7012281898190
:104DB0009A812111CAC80E94AA11182FCEC80631A3
:104DC000FCE71F0709F038CD8091A8048A7A91E0AA
:104DD00009F490E09093C90269E2811165E38AEBDE
:104DE00092E00E94A4040E948E15F4C806312CE7BC
:104DF000120709F0C7CC8091C9028111C1CC89E2A8
:104E0000ECEBF2E022EC32E09191891303C0DF0178
:104E100011971C922E173F07B9F7E5CF1F93CF9339
:104E2000DF938091EF02807F09F049C08091EC020E
:104E3000882309F444C080912103D091F00260914D
:104E4000EA027091EB02A091ED02B091EE02C62F42
:104E5000C72316E0D81799F190E0109711F0CF3FD3
:104E600019F401968770F6CF189F9001199F300DA5
:104E70001124F901EF50FD4F41814713F2CF4081DA
:104E80004613EFCF42814111ECCF438154814A1B3D
:104E90005B0B483C510528F78091EF028F708061D1
:104EA0008093EF02F901EA50FD4F80818F7080619D
:104EB00080838AEE92E00E948F1F0E945F11DF9133
:104EC000CF911F910895A1E1B0E0E9E6F7E20C94DB
:104ED00066318C0185E0F801DE011D9601900D928E
:104EE0008A95E1F7F801E2808AEEA82E82E0B82EDA
:104EF0006091ED027091EE026115710509F426C111
:104F00009091EA024091EB02892F84238F3F09F4AC
:104F10001DC120813181C380D480F090EC02F60164
:104F2000E61BF70BFF2009F4DCC08091EF02582F3D
:104F3000507FE83CF10508F09FC051116BC0FE2C7A
:104F4000431314C0921312C0E11010C08F7080611F
:104F50008093EF02C5010E948F1F8091EF02F8013C
:104F600085838F2D6196EAE00C948231C114D104BF
:104F700029F0822F83238F3F09F003C180E0F82FAF
:104F8000F170DF2E80FF3CC0809121034091F00240
:104F900056E0841315C02D873E878D859E850E941F
:104FA0009D11292F22952F702230F0F0243018F512
:104FB0009F70F1F0F8019581907FD1F4D12C1EC043
:104FC00090E0589FF001599FF00D1124EF50FD4FD4
:104FD0006181361306C06081261303C06281E61228
:104FE0000FC001968770D5CF9F7011F0882331F3E1
:104FF000805E883018F3C8010E948F1FFD2CB1CF4E
:10500000EE2009F4AECF8091EF0281608093EF0231
:10501000F12CA7CF431306C0921304C0F801EE2071
:1050200009F479C0C8010E946B12882309F1EE20AF
:10503000F9F08091EF02803270F02091EA02309115
:10504000EB0238872F831986DB86CA868C87CE01D0
:1050500007960E948F1F86E0F801AAEEB2E0019049
:105060000D928A95E1F70E940E27FF24F39479CFE1
:10507000C8010E948F1FF9CF51110AC08AEE92E039
:105080000E948F1F86E0F50111928A95E9F7C0CF43
:1050900043130FC092130DC0E1100BC0F8018583BC
:1050A000C8010E948F1F86E0F50111928A95E9F7E9
:1050B00058CFC8010E946B128823D1F2EE20C1F2B2
:1050C0008091EF02803238F22091EA023091EB02B7
:1050D0003A8329831B82DD82CC828E83CE010196A6
:1050E000B8CFE83CF105F8F6FE2CEE2009F24313A8
:1050F0001FC092131DC08091EF0280FD10C0982F39
:10510000907F69F0F8018583903F31F0982F907F70
:10511000905F8F70892B8583C8010E948F1F86E066
:10512000F801AAEEB2E001900D928A95E1F719CF4D
:10513000C8010E946B1281118ECF8091EF028160B5
:105140008093EF02C8010E948F1F0BCFEE2009F45D
:105150008FCFC8010E946B12F82E882309F488CFE4
:1051600086E0F801AAEEB2E001900D928A95E1F78F
:105170008091EA029091EB020E949D110E940E27FD
:10518000F0CE81E08E25FBCEA7E1B0E0EAECF8E2BC
:105190000C946D314B8B5C8B6D8B7E8B8F8B611187
:1051A0001092A9041A8A198A85E0FE017396DE011D
:1051B0001D9601900D928A95E1F786E0FE013D96DD
:1051C000DE01179601900D928A95E1F7CE010796C0
:1051D0000E946327882359F016E080912103909163
:1051E000F002891343C06796E3E00C94893186E0AE
:1051F000FE013796DE01119601900D928A95E1F736
:105200008A859B85892B41F38F81988589238F3FE0
:1052100019F32091F00230E0C901019687709927B7
:10522000409121034817190671F40E94491A1092FF
:10523000F0021092210386E0EAEEF2E0DF011D9217
:105240008A95E9F7C9CF96E0929FD001939FB00D60
:105250001124AF50BD4FFE01319601900D929A95E9
:10526000E1F78093F0020E945F11B6CF819FC001E9
:1052700011248F509D4F0E946327882309F4B3CFD8
:105280008091210390E001968770992780932103F4
:10529000A4CF1F920F920FB60F9211242F933F931A
:1052A0004F935F936F937F938F939F93AF93BF932E
:1052B000CF93DF93EF93FF93D091E900DF7080915C
:1052C000EC00C82FC17080FDC0E81092E900809109
:1052D000F000877F8093F00078940E94701A1092FB
:1052E000E9008091F00088608093F000CD2BCF70B2
:1052F000C093E900FF91EF91DF91CF91BF91AF9102
:105300009F918F917F916F915F914F913F912F91DD
:105310000F900FBE0F901F9018951F920F920FB60F
:105320000F9211242F933F934F935F936F937F932B
:105330008F939F93AF93BF93EF93FF938091E1007F
:1053400082FF09C08091E20082FF05C08091E100E8
:105350008B7F8093E1008091DA0080FF24C08091F0
:10536000D80080FF20C08091DA008E7F8093DA0021
:105370008091D90080FF9DC080E189BD82E189BD17
:1053800009B400FEFDCF81E08093E7048091DA0448
:10539000811109C00E9420030E94C1038091E20094
:1053A00084608093E2008091E10080FF17C08091CB
:1053B000E20080FF13C08091E2008E7F8093E200C4
:1053C0008091E20080618093E2008091D800806249
:1053D0008093D80019BC85E08093E7048091E100B8
:1053E00084FF2BC08091E20084FF27C080E189BD4B
:1053F00082E189BD89B5982F917080FFFBCF8091A4
:10540000D8008F7D8093D8008091E1008F7E8093BB
:10541000E1008091E2008F7E8093E2008091E200C3
:1054200081608093E2008091E804882309F447C0FA
:1054300084E08093E7048091E7048091E10083FF9A
:1054400027C08091E20083FF23C08091E100877F25
:105450008093E10082E08093E7041092E804809159
:10546000E1008E7F8093E1008091E2008E7F809347
:10547000E2008091E20080618093E20042E060E01F
:1054800080E00E948F038091F00088608093F0009C
:10549000FF91EF91BF91AF919F918F917F916F910C
:1054A0005F914F913F912F910F900FBE0F901F90E2
:1054B000189519BC1092E7041092DA0474CF809109
:1054C000E30087FD93E09093E704B5CF78941F92B3
:1054D0001FB61F9211248F939F93AF93BF93809118
:1054E000D6049091D704A091D804B091D904019624
:1054F000A11DB11D8093D6049093D704A093D80426
:10550000B093D904BF91AF919F918F911F901FBE0F
:105510001F9018951F921FB61F9211248F939F936F
:10552000AF93BF938091D504811113C08091D604AD
:105530009091D704A091D804B091D9044196A11DAF
:10554000B11D8093D6049093D704A093D804B09350
:10555000D904BF91AF919F918F911F901FBE1F9053
:105560001895CDB7DEB764970FB6F894DEBF0FBEBF
:10557000CDBF85B7806885BF85B7806885BF84B794
:10558000877F84BF0FB6F894A895809160008861EA
:1055900080936000109260000FBE80E890E00FB62C
:1055A000F89480936100909361000FBE81EF99E0C1
:1055B0009093B9028093B8020E9420030E94C10315
:1055C0008091E20084608093E20078948091E70407
:1055D0008823A1F01091E9001F709091EC00892FB1
:1055E000817090FD80E8182B1092E9008091E8000E
:1055F00083FD0E94701A1F701093E90082E084BD41
:1056000093E095BD9AEF97BD80936E00109265036D
:1056100010926603109267031092680355985D9884
:105620008FE891E00197F1F700C000000E94F309B4
:1056300080933D010E94551481110E94FC2F90918E
:105640003D0181E0982790939C03A82FA91BA0936C
:105650006A0390913D0180939D0390913D01809359
:10566000690380913D01811106C083E38093470166
:1056700082E38093460120914701E22FE295EF708B
:10568000F0E061A12F7081E090E0AC0101C0440F17
:105690002A95EAF7342F3095362331A322A1242B03
:1056A00022A320914601E22FE295EF70F0E031A1B4
:1056B0002F7001C0880F2A95EAF7982F90959323B1
:1056C00091A392A1892B82A38FE891E00197F1F732
:1056D00000C0000010919D036EE973E047E451E0C3
:1056E00086E4E82E81E0F82EFB0128C0DA012D9136
:1056F000AD01822F82958F7090E0DC0190968C91A5
:1057000090E02F7002C0959587952A95E2F78170F9
:10571000D7019D917D01292F22952F7030E0D9016D
:1057200090962C9130E09F7002C0359527959A9500
:10573000E2F790E020FD92E0892B81938E2F861B6B
:105740008117A0F280913D0181112CC085E0E5E533
:10575000F1E0DE01179601900D928A95E1F78F81B5
:1057600080933801888580933901898580933A0137
:105770008A8580933B018B8580933C0186E0EAE536
:10578000F1E0DE01119601900D928A95E1F7FE019C
:105790003196A2E3B1E0CE01079621912D938E17A9
:1057A0009F07D9F780913D0195E0811190E090939A
:1057B000760385E0891B8093750308E311E0F80107
:1057C00081918F018F3F11F00E94380FF1E00D336E
:1057D0001F07A9F702E311E0D8018D918D018F3FDA
:1057E00011F00E94380FB1E008331B07A9F78AE0D7
:1057F000EBE7F3E0DF01282F1D922A95E9F7EBE6AE
:10580000F3E0DF011D928A95E9F790E080E00E94C5
:105810001C32873E9E4F11F00E94301F82E090E0C4
:105820000E9414328093850384E090E00E941C3231
:10583000909378038093770383E090E00E94143282
:1058400090E00E9466121092F5048FEF9FEF909304
:105850000F0580930E05909311058093100590938A
:10586000130580931205909315058093140590936A
:10587000170580931605909319058093180590934A
:105880001B0580931A0590931D0580931C051092AB
:10589000AE039093C8038093C7039093CA03809389
:1058A000C9039093CC038093CB039093CE03809352
:1058B000CD039093D0038093CF039093D203809332
:1058C000D1039093D4038093D3039093D603809312
:1058D000D50390E080E00E941C32873E9E4F21F06D
:1058E0000E94301F0E94731581E08093210546E0DD
:1058F00050E06CE170E082E295E00E940432109288
:105900002105809122058C7F11F40E9473150E945D
:105910005514811102C00E94FF2F8EE391E09093F5
:10592000D2048093D1048091E704853089F400E4A7
:10593000F02EEE24E39400E112E18091E70485303B
:1059400009F4BAC00E94491A0E9478141092DB032D
:105950000E948C1816E8212E13E0312EABE7B3E03D
:10596000BB8BAA8BF10191918D9123E0E039F20775
:1059700009F4E9C09817B9F30E9455148C8BBFEA5B
:105980008B2EB1E09B2EE12CAA89BB89DD90BB8BCD
:10599000AA8BF10161901F016D1409F483C06D247D
:1059A0002401C12C77247394862D872109F46FC0BC
:1059B000FD2CF720FC89FF2399F0CC86ED8681E051
:1059C000F11001C080E08E870E9498048160782FDA
:1059D000988B8F874C855D856E8588890E94C42849
:1059E000FF2041F0D2018C91F12C8F3F19F0898B6F
:1059F000FF24F3940F2D10E08091AE03800F912FC0
:105A0000911D09976CF1E8E0AE2EB12CA01AB10AF5
:105A1000B80161557C4FA5018FEA93E00E94633283
:105A2000B80169547C4FA50187EB93E00E94633273
:105A3000A501440F551FB801660F771F69537C4FAE
:105A400087EC93E00E946332B80161547C4FA5015A
:105A50008FEB93E00E94633288E08F198093AE034E
:105A60008091AE0390E0E989AE2FB0E09D01220F56
:105A7000331F25513E4FAA0FBB1FBD0164517E4FFE
:105A800041E0480F9F1508F499C18093AE03C39479
:105A9000770CEFEF4E1A5E0AF6E0CF1285CFF101D8
:105AA0003197D082E39426E0820E911C4AE0E41202
:105AB0006BCF0E948C0467C08091E704843009F4A6
:105AC00030C00E94C4148091DB03811105C00E9484
:105AD000EA0C80E00E949D05E092DB031092D50461
