:100000000C9452030C944A2F0C948A030C948A0388
:100010000C948A030C948A030C948A030C948A032C
:100020000C948A030C948A030C94B5280C947128C0
:100030000C94B2290C948A030C948A030C948A03BE
:100040000C948A030C948A030C948A030C948A03FC
:100050000C948A030C948E290C948A030C948A03C2
:100060000C948A030C948A030C948A030C948A03DC
:100070000C948A030C948A030C948A030C948A03CC
:100080000C948A030C948A030C948A030C948A03BC
:100090000C948A030C948A030C948A030C948A03AC
:1000A0000C948A030C948A030C948A03165C1E0039
:1000B0001F002000210022002B6F14001A000800EE
:1000C00015001700296104001600070009450A0001
:1000D000E1001D001B0006001900050000000000E3
:1000E000E300000028464A004C00270026002500B7
:1000F000240023002A00130012000C0018001C002A
:10010000340033000F000E000D000B002872380081
:10011000370036471044110000000000E6000100DF
:100120002C004D0001000100010001000100010050
:100130000100010001000100010001002800E300AE
:10014000E200E000E1002C000100010001000100DC
:100150000100010000000000010001004C0001004E
:100160002A002A0001000100010001002A003000DD
:100170002600250024002F00010033002300220068
:1001800021002E000100350020001F001E0031005C
:1001900000000000370027432D000100010001008E
:1001A000010001000100010001002F0224022502CC
:1001B00026023002010033022102220223022E0213
:1001C000010035021E021F02200231020000000061
:1001D000260200572D02010001000100010001006C
:1001E0000100010001000100010001000100010007
:1001F0002800E300E200E000E1002C000100010023
:1002000001000100010001000000000001000100E8
:1002100001000100010001000100010001000100D6
:100220000100010001000100010001000100C65CA5
:10023000C85CCA5CCC5CC35C0100C75CC95CCB5CBD
:10024000CD5CC45C00000000010001000100010061
:10025000005C01000100010001000100010001003B
:1002600001000100010001000100AE00A900AA0088
:10027000AB00AC00005C01000100010001000100C6
:100280000000000001000100010001000100010068
:100290000100010001000100010001000100010056
:1002A0000100010001000100010001000100010046
:1002B0000100010001000100010001000000000038
:1002C0000100010001000100010001000100010026
:1002D0000100010001000100010001000100010016
:1002E00001000100A900AA00010001000100AE0008
:1002F000AB00AC00010001000000000001000100A3
:1003000001000100010001000100010001000100E5
:1003100001000100010001000100010001000100D5
:1003200001000100010001000100010001000100C5
:1003300001000100000000000100010001000100B7
:10034000010001004F045204510450040100010057
:100350004F01520151015001010001004F005200B4
:1003600051005000010001004F0852085108500888
:100370000000000001000100010001000100010077
:100380000100010001000100010001000100010065
:10039000010001000100E300E200E000E1000100D3
:1003A00001000100FF00FE00FD0001000000000050
:1003B0000100010001000100010001000100010035
:1003C0000100010001000100010001000100010025
:1003D00001000100F000ED00EE00EF00010001005F
:1003E000FC00F900FA00FB0000000000F300F2003E
:1003F000F100010001000100010001000100010005
:100400000100010001000100010001000100E30002
:10041000E200E000E100010001000100FF00FE0039
:10042000FD000100000000000100010001000100CA
:1004300001000100010001000100010001000100B4
:10044000010001000100010001000100F000ED00C9
:10045000EE00EF0001000100FC00F900FA00FB00D3
:1004600000000000F300F200F100010000010101B2
:100470000101010101010202020202020202020361
:100480000303030303030304040404040404050531
:1004900005050506060606060707070707080808F4
:1004A00008090909090A0A0A0B0B0B0C0C0C0D0DA3
:1004B0000D0E0E0E0F0F0F1010111111121213133B
:1004C0001414151516161717181819191A1A1B1BB4
:1004D0001C1D1D1E1E1F2020212222232424252610
:1004E00026272829292A2B2C2D2D2E2F3031323248
:1004F000333435363738393A3B3C3D3E3F40414254
:10050000434445464748494A4C4D4E4F5051535439
:10051000555658595A5B5D5E5F61626465666869ED
:100520006B6C6D6F7072737577787A7B7D7E80826D
:10053000838587888A8C8E8F91939596989A9C9EB6
:10054000A0A2A3A5A7A9ABADAFB1B3B5B7BABCBEC6
:10055000C0C2C4C6C9CBCDCFD1D4D6D8DBDDDFE293
:10056000E4E7E9EBEEF0F3F5F8FAFDFF0501090227
:10057000A10185020901A100050919012908150039
:1005800025019508750181020501093009311581A0
:10059000257F95027508810609381581257F95010B
:1005A00075088106050C0A38021581257F950175AD
:1005B000088106C0C005010980A101850319012A2F
:1005C000B700150126B700950175108100C0050C14
:1005D0000901A101850419012AA002150126A00222
:1005E000950175108100C005010906A101050719D3
:1005F000E029E7150025019508750181029501752F
:100600000881010507190029FF150026FF0095063E
:1006100075088100050819012905950575019102E4
:10062000950175039101C009023B00020100A0FA87
:100630000904000001030101000921110100012248
:1006400040000705810308000109040100010300BF
:100650000000092111010001227B0007058203200F
:100660000001120100020000000810CB56631006C2
:10067000010200011A0349007200690073002000A2
:100680005200650076002E00200036006100000058
:100690000E034B0065006500620069006F000000FA
:1006A0000403090411241FBECFEFDAE0DEBFCDBF83
:1006B00004B603FE18C080911A0590911B05A09105
:1006C0001C05B0911D058730904BA740B04B59F4E5
:1006D00010921A0510921B0510921C0510921D0510
:1006E000E0E0F8E3099512E0A0E0B1E0EEE5F3E622
:1006F00002C005900D92A03DB107D9F725E0A0ED0D
:10070000B2E001C01D92AA31B207E1F70E94D929D7
:100710000C9474310C94000090911005937061F06A
:1007200081110BC094609093100510926D0180911F
:100730000F05816080930F050895833210F098684B
:10074000F2CF880F880F982BEECF90911005937001
:1007500071F08093110560931205413A08F040EA68
:100760004093130580910F05816080930F050895D4
:10077000E8EDF0E080818E7F80831092E20010929D
:10078000DA001092E100A0EEB0E08C9181608C93D1
:1007900080818F77808319BCA7EDB0E08C918E7F2C
:1007A0008C9380818F7E80831092CB04089520915A
:1007B000E4003091E50095E6A9012091EC00822F3C
:1007C000817020FF06C08091E80080FF06C080E0B5
:1007D00008952091E80022FD1AC08091D804882352
:1007E00089F0853089F08091EB0085FD0FC0209164
:1007F000E4003091E50042175307F9F29150E1F619
:1008000084E0089582E0089583E0089581E00895EA
:10081000EF92FF920F931F93CF937C018B010E9465
:10082000D703C82F811117C08091E80085FD0BC048
:100830008091E8008E778093E8000E94D703882398
:1008400099F3C82F08C0F70181917F018093F100CF
:100850000150110949F78C2FCF911F910F91FF90F3
:10086000EF9008958091DA0487FF13C08091E8002B
:1008700082FF06C08091E8008B778093E80004C077
:100880008091D8048111F2CF08958091D8048823F3
:10089000D9F38091E80080FFF8CF8091E8008E774F
:1008A000ECCF982F9093E900242F762F50E08917F2
:1008B00031F07091EC002091ED005091F00021FD9D
:1008C00007C09F5F973071F78093E90081E008953A
:1008D0003091EB003E7F3093EB003091ED003D7F97
:1008E0003093ED003091EB0031603093EB0070936A
:1008F000EC002093ED005093F0002091EE0027FDD6
:10090000E0CF80E00895B0E0A0E0E9E8F4E00C94E6
:100910007030C8EDD0E088818F7E8883E7EDF0E00D
:1009200080818160808384E082BF81E08093CB04FA
:1009300088818E7F888302EE10E0F8011082109289
:10094000DA0081EEC82ED12CF601108288818F77D3
:10095000888388818068888388818F7D888319BC9B
:100960001092D8041092D9041092D7041092D60491
:1009700090EEE92EF12CF70180818B7F80838881B6
:100980008160888342E060E080E00E945104F601CB
:1009900080818E7F8083F801808181608083808167
:1009A00088608083F70180818E7F80838881806169
:1009B0008883CDB7DEB7E8E00C948C30FC018091E1
:1009C000E0049091E10486179707A0F06115710586
:1009D00029F49091E8009E779093E80090E06115EB
:1009E000710551F4911108C08091E80082FF34C074
:1009F00080E00895BC01F2CF8091D8048823C1F132
:100A00008530C1F18091E80083FD30C08091E8001D
:100A100082FDEACF8091E80080FFE1CF8091F30072
:100A20002091F200382F6115710519F02830310539
:100A300058F091E02830310509F090E02091E8006D
:100A40002E772093E800CBCF81918093F100615005
:100A500071092F5F3F4FE7CF8091D804882341F081
:100A6000853041F08091E80083FFBECF81E008959A
:100A700082E0089583E0089508958091CD0408955B
:100A80009C014FB7F8948091C4049091C504A09143
:100A9000C604B091C7044FBF821B930B08952FB7B4
:100AA000F8946091C4047091C5048091C60490913B
:100AB000C7042FBF08952FB7F8948091C404909174
:100AC000C504A091C604B091C7042FBF08959C012E
:100AD000FC0132969FEF80E04191461751F09F3F15
:100AE00019F4411101C0982F8F5F8630A9F79F3FFD
:100AF00009F40895290F311D97FD3A95F901628394
:100B000008952091C1043091C2042817390771F06B
:100B10009093C2048093C104E091BF04F091C0049B
:100B2000309721F00084F185E02D099508952091FA
:100B3000BD043091BE042817390771F09093BE04AC
:100B40008093BD04E091BF04F091C004309721F080
:100B50000680F781E02D09950895FC01680F791F43
:100B60008FEF91E32191822728E030E087FF09C0D1
:100B7000880F892721503109C9F7E617F70791F740
:100B80000895880FF7CFFA01811101C0FB01099583
:100B90000895E0E1F5E0248130E1231B08F420E032
:100BA000248380910F05816080930F050895E0E113
:100BB000F5E0248130E1230F08F42FEF24838091A6
:100BC0000F05816080930F050895E0E1F5E0438112
:100BD00020E1421B08F440E08181628190E00E94A4
:100BE000A5030895E0E1F5E0438120E1420F08F418
:100BF0004FEF8181628190E00E94A5030895E0E1BA
:100C0000F5E0628120E1621B08F460E081814381AC
:100C100090E00E94A5030895E0E1F5E0628120E103
:100C2000620F08F46FEF8181438190E00E94A50379
:100C30000895E0E1F5E08181438162818850990B5C
:100C40000E94A5030895E0E1F5E0818190E04381F1
:100C5000628108960E94A5030895809110058695EB
:100C60008695815009F482E20E948C030895809158
:100C70001005869586958F5F833208F081E00E948B
:100C80008C030895809352018091100583708093A6
:100C900051010E94751483E080936D010895EF92D5
:100CA000FF920F939701201B31092F3F310519F057
:100CB00010F02FEF30E02095382F320F08F43FEF7F
:100CC000832F0F91FF90EF900895EF92FF920F9373
:100CD0009701201B31092F3F310519F010F02FEF3C
:100CE00030E0322F3095482F430F08F44FEF842F18
:100CF000620F0F91FF90EF900895EF92FF920F9384
:100D0000972F093438F4B701601B71096F3F7105E3
:100D100019F010F06FEF70E0485F5F4F41315105FF
:100D200040F0A901485F5F4F4131510510F06FEF6E
:100D300070E06095482F460F08F44FEF842F37FF7F
:100D400002C02D5F3F4F35952795359527956091CA
:100D50001105620F792F0F91FF90EF900895EF9298
:100D6000FF920F931F930E0D1F2D111DF90137FFD9
:100D700003C0F195E195F10924E0EE0FFF1F2A95DC
:100D8000E1F7EF3FF10519F014F0EFEFF0E09A0111
:100D900057FF03C031952195310994E0220F331F8D
:100DA0009A95E1F72E173F070CF4F901E00FF11FB8
:100DB000EF3FF10519F010F0EFEFF0E0E095282F8C
:100DC0003E2F230F08F42FEF822F1F910F91FF90DA
:100DD000EF900895EF92FF920F93970195E0099F8E
:100DE000200D311D11242F3F310519F010F02FEF88
:100DF00030E02095382F320F08F43FEF832F0F910A
:100E0000FF90EF90089522E8241B08F420E0620F81
:100E100008954095282F429F412D1124842F089535
:100E20000F931F9310E0F801EE0FFF1FED5FFD4FD2
:100E30009081905797FD9195000F111FF801E9538C
:100E4000FE4F05AD0052110B2003F001219FF00D64
:100E5000112408E310E0091B110997FD13954003C5
:100E60009001419F300D1124E20FF31F9F01220FCB
:100E7000331F2E0F3F1F37FF02C021583F4F220F55
:100E8000232F221F330B620F1F910F9108950F9391
:100E90001F93522F10E0F801EE0FFF1FE953FE4F92
:100EA000A5ADA052BB0B9D015203F001539FF00D65
:100EB0001124000F111FD801AD5FBD4F0C910057D9
:100EC000110B40039001419F300D11242E0F3F1F45
:100ED00037FF02C0215C3F4F96E0359527959A95E4
:100EE000E1F7620F1F910F9108950F931F93522FF7
:100EF00010E0F801EE0FFF1FE953FE4FA5ADA05221
:100F0000BB0B9D015203F001539FF00D1124000F04
:100F1000111FD801AD5FBD4F0C910057110B40035D
:100F20009001419F300D11242E0F3F1F37FF02C04B
:100F300021583F4F220F232F221F330B620F1F9187
:100F40000F910895EF920F93972F23E0029FB00126
:100F50001124759567956E0D792F0F91EF90089577
:100F6000322F50E0FA01EE0FFF1FE953FE4F95AD0F
:100F7000905297FD9195440F551FFA01ED5FFD4F7B
:100F80002081231B330B290F311D97FD3A95620FEA
:100F90000895E42FF0E0EE0FFF1FE953FE4F65AD1B
:100FA000621B0895E42FF0E0EE0FFF1FED5FFD4F91
:100FB0006081621B0895622F0895E42FF0E0EE0F28
:100FC000FF1FED5FFD4F408134EE439F412D112403
:100FD000E82FF0E050E0445E5F4FDA01A21BB10958
:100FE0009D01B7FF03C031952195310993E0220F90
:100FF000331F9A95E1F7AF01421B530B9A0157FD3E
:1010000020E0582F259F212D1124822F0895E42FB1
:10101000F0E0EE0FFF1FED5FFD4F408134EE439F88
:10102000412D1124E72FF0E050E0445E5F4FDA01DC
:10103000A21BB1099D01B7FF03C03195219531096C
:1010400093E0220F331F9A95E1F7AF01421B530B38
:101050009A0157FD20E0279F212D1124722F08951A
:101060000E94720B0895FF920F931F93CF93DF930B
:10107000182F062FF42ED0E0C0E02F2D402F612F27
:10108000CE010E9430082196C434D105B1F7CDB706
:10109000DEB7E5E00C948F30FC019B01009729F44A
:1010A00080E077FF2BC080E80895AC0197FF04C073
:1010B00044275527481B590BB901640F751F37FD8D
:1010C00010C0241B350BC901A5E0880F991FAA95F4
:1010D000E1F70E94B13080E2861BF7FF0FC08195D7
:1010E0000895CB0165E0880F991F6A95E1F7BA0171
:1010F000621B730B0E94B13080E6EECF0895EF9231
:101100000F93CF93DF93D72FC82FC9010E19BA01C0
:101110000E944C08602F681B7D2F8C2FDF91CF9190
:101120000F91EF9008950F93CF93DF93D72FC82F90
:10113000C901BA010E944C08682F600F7D2F8C2FC7
:10114000DF91CF910F910895EF920F931F93CF935B
:10115000DF93D62FC72F182FC9010E19010FBA011F
:101160000E944C08081B202F219F212D1124822F23
:101170006D2F7C2FDF91CF911F910F91EF900895EC
:10118000EF920F931F93CF93DF93D62F172FC82F74
:10119000C9010E19070FBA010E944C08702F781B65
:1011A000719F712D11246D2F8C2FDF91CF911F9185
:1011B0000F91EF9008950F931F93CF93DF93D62F46
:1011C000C72F182FC901212F201B022FBA010E94FF
:1011D0004C08982F990F990F891B800F282F219F5A
:1011E000212D1124822F6D2F7C2FDF91CF911F9104
:1011F0000F9108950F931F93CF93DF93D62F172F3F
:10120000C82FC901272F201B022FBA010E944C08AA
:10121000982F990F990F782F791B700F719F712D4F
:1012200011246D2F8C2FDF91CF911F910F91089575
:10123000E82F86FDE0952E2F2F7086FD2F5FE69517
:10124000E695E695E670F0E0E154FE4F9181929FBD
:10125000902D212D112492959F702295207F922B05
:101260002081920F87FD919580E8890F0895AC0148
:101270008230910508F408959FEF413E8EE15807B2
:1012800040F49A0195E0369527959A95E1F798E014
:10129000920F61E0E62FE90FFF27FF1F9F013595B1
:1012A0002795822F229FF001239FF00DF00D11242E
:1012B0004E175F0738F49FEF920F961758F78FEF8E
:1012C000860F08952F3FE9F361E0620FF6CF0F9389
:1012D000CF93DF93D72FC82F47FD419588E390E048
:1012E000841B910947FD9395889FB001899F700DDC
:1012F000700D1124229FC001239F900D900D112489
:10130000860F971F0E943709982F990F890F682F12
:10131000600F7D2F8C2FDF91CF910F91089530E0DA
:1013200020E0869F212D969F200D311D1124C9019B
:101330000895AF92BF92CF92DF92FF920F931F93C7
:10134000CF93DF93362F472FE82FF0E0E459FB4F80
:1013500071110FC0E4918E2F2E2F6E2F722FDF91FF
:10136000CF911F910F91FF90DF90CF90BF90AF90E2
:101370000895C72FD0E02491F22E022F10E056E0FE
:10138000659FC0011124EFEFF0E0BF010E949D3086
:10139000832F90E0880F991F35E5369FD001379F46
:1013A000B00D11248A1B9B0B982F990F980F6F017A
:1013B000CC1ADD0AC09ED001C19EB00DD09EB00DEA
:1013C00011248B2F499FA0011124452F55276F0110
:1013D000C41AD50AC09EA001C19E500DD09E500DCA
:1013E00011245F01A91AB108AC9E6001AD9ED00C1A
:1013F000BC9ED00C1124CD2CDD24EC19FD09E09FFE
:10140000E001E19FD00DF09FD00D1124ED2F62304F
:101410007105A1F050F46115710509F49ECF61309A
:10142000710581F0EB2F852F98CF6430710569F03D
:1014300080F06630710509F490CFF4CFE22F2B2FA6
:101440008D2F8BCFE22F252F88CFEB2F822F2D2FA3
:1014500084CF2B2F8F2DE52F80CF0E945B059C0121
:101460009091BB038091BC03982B21F03093B8037B
:101470002093B7039091BD038091BE03982B21F078
:101480003093B6032093B503E091BF04F091C004FC
:10149000309749F082E08093B9030480F581E02D14
:1014A00089EB93E0099508954091BB038D3E59F473
:1014B0008091BC0387FF0DC01092BC0341110BC08B
:1014C0001092B30308C08E3E81F48091BC031816BD
:1014D0009CF3442381F08091BD039091BE03892B3E
:1014E00009F05AC01092B20308958F3E49F447FFA5
:1014F000F0CF1092BB038091BC038111ECCFE0CF01
:10150000803F19F41416ACF3E4CF9091BD03893FEA
:1015100029F41916F4F61092BD03DBCF8A3F19F4B3
:1015200097FFD7CFF8CF9091BE038B3F29F497FF59
:10153000D0CF1092BE03CDCF8C3F19F41916CCF347
:10154000C8CF9FE0980F983090F4815F990B21E00D
:1015500030E0B90102C0660F771F8A95E2F7CB0130
:1015600080959091BA0389238093BA03B2CF8D3FBF
:1015700031F48091B4038E7F8093B403AACF8E3F61
:1015800021F48091B4038D7FF7CF8F3F09F0A1CF75
:101590008091B4038B7FF0CF08958091B40380FDD8
:1015A00016C081FD16C082FD16C08091B20388234B
:1015B000A1F0883280F428E0829FC001112468E203
:1015C00070E00E94B130862F672B39F0089582E0D9
:1015D000089584E0089588E0089581E00895809159
:1015E000B40380FD14C081FD14C082FD16C080913B
:1015F000B303882381F08E3180F420E5829FC001FF
:1016000011246EE170E00E94B130862F089584E1CC
:10161000089588E2089588E0089580E508958D3E54
:1016200031F40E94EF0A81958093BC0308958E3EA9
:1016300019F40E94EF0AF8CF8F3E31F40E94EF0AAE
:1016400081958093BB030895803F19F40E94EF0AAF
:10165000F8CF893F29F40E94CD0A8093BD030895F5
:101660008A3F21F40E94CD0A8195F7CF8B3F31F458
:101670000E94CD0A81958093BE0308958C3F19F492
:101680000E94CD0AF8CF9FE0980F983070F4815FE8
:10169000990B21E030E001C0220F8A95EAF7809192
:1016A000BA03822B8093BA0308958D3F31F4809161
:1016B000B40381608093B40308958E3F21F4809138
:1016C000B4038260F7CF8F3FB9F78091B403846091
:1016D000F1CF80E0089555985D9889B185FB882702
:1016E00080F90895FF920F931F93CF93DF93EC013E
:1016F000F62E042F122F0E946B0B81110FC0C232E5
:10170000D1057CF0A297FE01EE0FFF1FEC0FFD1F2D
:10171000E351FC4FF1820083128303C0C232D10532
:1017200094F3CDB7DEB7E5E00C948F30CF93C82F9C
:101730000E946B0B882329F081E0C23228F080E000
:1017400003C081E0C434D8F7CF910895A8E0B0E099
:10175000ECEAFBE00C946630282E7C836B832091AE
:101760006A018EE0289F802D11248D83825F8983FA
:10177000853410F034E439830E946B0B882329F000
:101780008981833210F092E299830E946B0B811160
:1017900005C0ED81E23210F4F2E2FD832091E6040F
:1017A0002A839D81892F90E098878F83880F991FC6
:1017B000FC01E953FE4F6F01822D90E09C012F5FE9
:1017C0003F4F3E832D8389819F81981730F00E947F
:1017D000960B2896E2E10C948230EF81F885E5576C
:1017E000FD4F808190916B018923F9F030901105B4
:1017F000409012058D819E818A519B4F3C01522C55
:1018000010E0FA815F16D8F020911305129F112D78
:101810001124632D742D812F0E949909462F282FA2
:10182000672F8F8198850E9430082F8138852F5F20
:101830003F4F38872F8332E0C30ED11CC4CFF30152
:1018400081913F01F601A4ACA81ABB0885ACF30155
:101850008781881A9908AA9C9001AB9C300D300DA5
:101860001124889CC001899C900D900D1124820F39
:10187000931F0E943709082F6091140521E0620F21
:1018800008F46FEFF301EE0FFF1FE65EF440858969
:1018900096890E948F097C019401A501632D742D06
:1018A000812FEB81FC810995362E472E5394182FFA
:1018B000A8CFB0E0A0E0EFE5FCE00C9470307C0134
:1018C000C0916A018EE0C89FC02D11241EE01C0F3C
:1018D000153408F014E40E946B0B882319F01332BE
:1018E00008F012E20E946B0B811103C0C23208F4AF
:1018F000C2E22091140531E0230F08F42FEF30E00D
:1019000050E040E06FEF7FEF80E090E00E94C53054
:101910006901D0E001E02C2FC11740F0812F0E9417
:10192000960BCDB7DEB7E8E00C948C30FE01E5579E
:10193000FD4F808190916B01892309F14091E6046C
:101940004150042E000C550B47FF1BC0C60160918F
:101950001405600F08F46FEF0E948F09AC016091CD
:1019600011057091120580911305F70109950E94E8
:101970009909462F282F672FCE010E943008219603
:10198000CACFFA01EA51FB4F818982130AC0FA01DA
:10199000EE0FFF1FEA51FB4F818D928D8C159D0537
:1019A000B0F241505109D0CFB0E0A0E0EAEDFCE048
:1019B0000C946E306C01C0916A018EE0C89FC02DFE
:1019C00011241EE01C0F153408F014E40E946B0B68
:1019D000882319F0133208F012E20E946B0B811178
:1019E00003C0C23208F4C2E26091140566956695A0
:1019F0008091E2049091E3040E948F09F82E80E424
:101A00008F0D0E94180990E8B92EB80E8F2D0E94F4
:101A1000180920E8A22EA80ED0E0C11740F0812FAF
:101A20000E94960BCDB7DEB7EAE00C948A30FE0137
:101A3000E557FD4F808190916B018923A1F0609162
:101A400011057091120580911305EF2C0C2F2A2D92
:101A50004B2DF60109950E949909462F282F672FD3
:101A6000CE010E9430082196D8CFB0E0A0E0EBE391
:101A7000FDE00C946A305C01C0916A018EE0C89F61
:101A8000C02D11241EE01C0F153408F014E40E9430
:101A90006B0B882319F0133208F012E20E946B0BD3
:101AA000811103C0C23208F4C2E260911405669548
:101AB0008091E2049091E3040E948F09F82ED0E017
:101AC000CE01880F991F9C0129533E4F6901C11710
:101AD00040F0812F0E94960BCDB7DEB7EEE00C945C
:101AE0008630FE01E557FD4F808190916B0189237F
:101AF00079F1F60184AD282F2057330B490185ADCC
:101B0000E82FE052FF0B3F01889C9001899C300D2B
:101B1000300D1124EE9FC001EF9F900D900D112408
:101B2000820F931F0E943709082F60911105709151
:101B3000120580911305EF2C9301A401F50109957D
:101B40000E949909462F282F672FCE010E94300846
:101B5000F2E0CF0ED11C2196BACFB0E0A0E0E3EBCB
:101B6000FDE00C946F306C01C0916A018EE0C89F5B
:101B7000C02D11241EE01C0F153408F014E40E943F
:101B80006B0B882319F0133208F012E20E946B0BE2
:101B9000811103C0C23208F4C2E260911405669557
:101BA0008091E2049091E3040E948F09B82ED0E066
:101BB000CE01880F991F9C0129533E4F7901C1170F
:101BC00040F0812F0E94960BCDB7DEB7E9E00C9470
:101BD0008B30FE01E557FD4F808190916B01892389
:101BE000C1F0F70125AD2052330B44AD4057550BE2
:101BF0006091110570911205809113050B2DF6016E
:101C000009950E949909462F282F672FCE010E941F
:101C10003008F2E0EF0EF11C2196D1CFEF92FF9247
:101C20000F931F93CF93DF937C01C0916A018EE0E5
:101C3000C89FC02D11241EE01C0F153408F014E4B9
:101C40000E946B0B882319F0133208F012E20E94F5
:101C50006B0B811103C0C23208F4C2E2609114051B
:101C60006695669521E0620F08F46FEF8091E204BB
:101C70009091E3040E948F09082FD0E0C11740F033
:101C8000812F0E94960BCDB7DEB7E6E00C948E3024
:101C9000FE01E557FD4F808190916B01892391F002
:101CA000609111057091120580911305202F4C2F22
:101CB000F70109950E949909462F282F672FCE0119
:101CC0000E9430082196DACFB0E0A0E0EAE6FEE01C
:101CD0000C946E30182F80915201811323C0909183
:101CE000100593702091510130E081E092171306A6
:101CF00009F480E0817080936C01809115059091CA
:101D00006B01981739F080936B0140E060E080E050
:101D10000E943308133288F4E12FF0E0EA58FE4CB9
:101D20000C94E43081E0E6CF80916C01882389F146
:101D300040E060E080E00E94330880E02AC0C0916B
:101D40006A018EE0C89FC02D11240EE00C0F0534EF
:101D500008F004E40E946B0B882319F0033208F0AA
:101D600002E20E946B0B811103C0C23208F4C2E28E
:101D70006091110570911205809113050E949909D7
:101D8000F62EE72ED82ED0E0C017D8F0802F0E9474
:101D9000960B90916A019F5F90936A0181110CC02C
:101DA00082E080936D0180916C01811105C0111159
:101DB00003C083E080936D01CDB7DEB7EAE00C94F9
:101DC0008A30FE01E557FD4F808190916B01892398
:101DD00031F02D2D4F2D6E2DCE010E943008219611
:101DE000D3CFC0916A018EE0C89FC02D11240EE0B0
:101DF0000C0F053408F004E40E946B0B882319F0E3
:101E0000033208F002E20E946B0B811103C0C23260
:101E100008F4C2E2E0901205F0901305D09111058C
:101E20006D2F7E2D8F2D0E949909D62EC72EB82E8C
:101E3000609114056D0F7E2D8F2D0E949909F62E4D
:101E4000E72EA82ED0E0C01708F0A0CFFE01E5577E
:101E5000FD4F908180916B01892359F02A2D4F2DE0
:101E60006E2D90FD03C02B2D4D2D6C2DCE010E94AB
:101E700030082196E8CFC0916A018EE0C89FC02D3E
:101E800011240EE00C0F053408F004E40E946B0BE3
:101E9000882319F0033208F002E20E946B0B8111D3
:101EA00003C0C23208F4C2E2E0901205D0901305DC
:101EB0002091140550E4F52E3F2D329F312D112431
:101EC000F32ED0E0C01708F061CFFE01E557FD4FBB
:101ED000808190916B018923B9F0FE01EE0FFF1F05
:101EE000E953FE4F85AD82958F70609111058F9DEE
:101EF000600D11247E2D8D2D0E949909462F282FCB
:101F0000672FCE010E9430082196DCCFC0916A0174
:101F10008EE0C89FC02D11240EE00C0F053408F090
:101F200004E40E946B0B882319F0033208F002E2EC
:101F30000E946B0B811103C0C23208F4C2E2E09030
:101F40001205D09013052091140530E4F32E3F2D97
:101F5000329F312D1124F32ED0E0C01708F016CF98
:101F6000FE01E557FD4F808190916B018923D9F0E7
:101F7000FE01EE0FFF1FE953FE4F64ADF69EB00168
:101F8000112495E0759567959A95E1F78091110573
:101F9000680F7E2D8D2D0E949909462F282F672FBF
:101FA000CE010E9430082196D8CFC0916A018EE000
:101FB000C89FC02D11240EE00C0F053408F004E476
:101FC0000E946B0B882319F0033208F002E20E9492
:101FD0006B0B811103C0C23208F4C2E2F09011050C
:101FE000D0911205E09013056091140566956695F1
:101FF00066958091E2049091E3040E948F090E940B
:102000001809805887FD8195880F282F3E2D239F22
:10201000212D1124822F6F2D7D2F0E949909F62EDC
:10202000E72ED82ED0E0C01708F0B0CEFE01E5575D
:10203000FD4F808190916B01892331F02D2D4F2D23
:102040006E2DCE010E9430082196EDCF87E098E0FA
:102050000E940E0E9ECE8DED97E0FACF8AEF98E0AB
:102060000E94AD0D96CE8BED98E0FACF80EC98E013
:102070000E94350D8ECE84EA98E0FACF8BED97E082
:10208000E7CF82ED97E0E4CF89EC97E0E1CF80EBFA
:1020900097E0DECF82EA97E0EBCF87E699E0E0CFEA
:1020A00083E998E0DDCF8FE798E0E2CF85E797E01E
:1020B0000E94D40C6ECE87E497E0FACF80E197E0DF
:1020C000F7CF89E097E00E94590C63CE83E097E058
:1020D000FACF8091E60421E0382F321B08F430E07B
:1020E000832F6AEE76E00E94A60B53CE6AEE76E06E
:1020F00080E0F9CF8091E60421E0382F321B08F40C
:1021000030E0832F6FEA76E0EECF6FEA76E0F0CF33
:102110008091E60421E0382F321B08F430E0832F51
:102120006DE776E0E0CF6DE776E0E2CF8091E60400
:1021300021E0382F321B08F430E0832F65E676E08B
:10214000D2CF65E676E0D4CF8091E60421E0382F47
:10215000321B08F430E0832F6FE476E0C4CF6FE4E5
:1021600076E0C6CFF894E82FE295EF70F0E031A169
:10217000282F2F7081E090E001C0880F2A95EAF7A0
:10218000982F9095932391A392A1892B82A3789461
:1021900008959091900392FF06C0282F287128304F
:1021A000F9F4877F846093FF06C0282F28712831B7
:1021B000F1F4877E84612091910320FF06C0382FBF
:1021C00038713830D9F4877F816021FF06C0282F0D
:1021D00028712831D1F4877E816194FD877E08952E
:1021E000282F24712430F9F68B7F8860DCCF282FCC
:1021F0002471243101F78B7E8861DDCF382F317156
:10220000313019F78E7F8860E0CF282F217121317E
:1022100021F78E7E8861E1CF972F7A30A8F466305F
:1022200098F470E026E0929F600D711D1124FB016F
:102230009CE3899FE00DF11D1124EE0FFF1FE45573
:10224000FF4F85919491089580E090E00895CF9399
:10225000DF93EC0182389105A9F1D8F5813391051E
:1022600009F496C048F58932910509F48AC08A9725
:1022700009F495C0C11521E5D20708F0BCC0C1150D
:1022800030E5D30708F014C1C83ED10508F09CC062
:10229000C13ED10560F5C83AD10508F087C0C53AFE
:1022A000D10508F0FDC0C130D10509F12097F9F042
:1022B000C430D105E0F440C08533910509F45AC01B
:1022C000C997C1F680919003837089F0C0EED0E089
:1022D0000EC0833E910599F170F4803E910501F1A5
:1022E000823E910539F68091900382FD21C0CE0196
:1022F000DF91CF910895863E910561F1873E91056A
:1023000071F1843E910509F0B5CF8091910381FF71
:10231000EECF80919003C7EED0E084FD0DC0E7CFF3
:102320008091900380FD12C19091910390FFDFCFC7
:10233000C3EED0E084FFDBCFD0E0C0E0D8CF809107
:10234000900382FD06C19091910390FDBFCF84FF61
:10235000CECFF2CF8091900383FDDDCFC8CF8091A7
:10236000900383FDF9C09091910391FFF0CFC4EEEB
:10237000D0E0BDCF8091900385FFB9CFC9E2D0E016
:10238000B6CF8091900385FFB2CFC5E3D0E0AFCF49
:102390008091900386FFABCFCAE2D0E0A8CF8091B6
:1023A000900386FFA4CFC1E3D0E0A1CFCF3BD105FE
:1023B00018F6C85AD0E0CC0FDD1FC158DE4F099087
:1023C000D881C02DD46493CFC11540E2D40758F40E
:1023D000C11581E0D80708F08ACFCD3ED10508F4B9
:1023E000ABCFD06584CFC11590E4D90708F4A4CF52
:1023F000DF70D06A7CCFC11525E5D20700F5C11585
:1024000034E5D30708F08AC0C11543E5D40708F0C6
:1024100071C0C11582E5D80708F467C0CE0183708A
:10242000992721E030E002C0220F331F8A95E2F79E
:10243000C695C69580E2C89FE001112452C0C1151F
:1024400099E5D907A8F4C11528E5D20708F06BC0B3
:10245000C11536E5D30708F06FCF8C2F0E94C91045
:10246000C82FD0E0DC2FCC27CC27DF71D0623FCF44
:10247000C1154AE5D40708F45BC0CE01905681151A
:10248000904208F059CF8D2F8F710E94C91090E0B3
:10249000982F882788279F719C012C2BE901E6CF74
:1024A000C55AD0E0C458DE4FC881D0E0D0641FCFF9
:1024B000CE01E4E096958795EA95E1F783702C2F9D
:1024C00026952695237040E2249F90011124382BF5
:1024D0008C2F8370C1E0D0E002C0CC0FDD1F8A9545
:1024E000E2F7C22BD32BDC6802CFDC2FCC27C16FE5
:1024F000D06AFDCECE018370992721E030E002C082
:10250000220F331F8A95E2F7C695C69590E2C99FC0
:10251000E0011124C22BD32BDA68E9CEDC2FCC27C3
:10252000C46FD06AE4CEDC2FCC27C06FD06ADFCE78
:102530008C2F8F700E94C91034E0D695C7953A95BC
:10254000E1F7CF709C2FEC01D069D1CEC9E3D0E088
:10255000CECEC2EED0E0CBCEC6EED0E0C8CE0E944A
:102560004F0508958091440381111092440308950A
:1025700080959091BB0498239093BB040895809517
:102580009091BC0498239093BC04089580913A03E1
:1025900090910903981301C008958F5F8770FACF57
:1025A000B0E0A0E0E6EDF2E10C946F308C01C09059
:1025B0001605D0901705E0901805F0901905809148
:1025C000450390914603A0914703B0914803C82A60
:1025D000D92AEA2AFB2ACFE1D0E0BC2ED701C601D6
:1025E0000C2E04C0B695A795979587950A94D2F7B7
:1025F00080FD09C0219788F7B12C8B2DCDB7DEB7B0
:10260000E9E00C948B30B8018C2F0E940C110E94D1
:102610002711019779F3F1CFCF93DF93EC010E945B
:10262000D012BE010E940C110E942711DF91CF91A0
:102630000895292F9A3080F5863070F590E036E0C5
:10264000239F800D911D1124682F677023E09695BC
:1026500087952A95E1F725E0289FF001299FF00D45
:102660001124E552FD4F50E040E080E0219130E040
:10267000062E02C0369527950A94E2F7217033277B
:10268000042E01C0220F0A94EAF7822B4F5F5F4F9E
:102690004530510559F7089580E00895292F9A3063
:1026A000A0F5863090F590E036E0239F800D911DD7
:1026B0001124282F277041E001C0440F2A95EAF722
:1026C00023E0969587952A95E1F725E0289FF0016C
:1026D000299FF00D1124E552FD4F30E020E070E01D
:1026E0005191DF011197CB01022E02C0969587957B
:1026F0000A94E2F7817081958527842385278C933E
:102700002F5F3F4F2530310559F708954091160549
:1027100050911705609118057091190541155105E3
:102720006105710529F441E0811140E0842F08958D
:1027300004C076956795579547958A95D2F741706D
:10274000F5CFFC01808191810E940C1392959F70BE
:10275000963091F058F4925F9F70923058F4803F19
:1027600019F030F4883E30F481E008959A5FF4CF98
:10277000843FD1F380E00895883EB0F3813FD1F7E4
:10278000F3CF9C013A9521153F4150F5FC01EE270E
:10279000F170BC0166277270AC01442754709C0133
:1027A0002227387094FF0EC080E1EF2B09F480E0FF
:1027B000672B09F08062452B09F08064232B89F098
:1027C0008068089581E0EF2B09F480E0672B09F021
:1027D0008260452B09F08460232B19F088600895EE
:1027E00080E008958093C8047093CA046093C9047C
:1027F0008091D804843001F582E08093E9008FEF66
:102800009091E800815095FD06C095ED9A95F1F7FD
:1028100000008111F5CF8091E80085FF0DC050E0E8
:1028200040E063E070E088EC94E00E94080480914E
:10283000E8008E778093E8000895BC0184E00E9450
:10284000F2130895BC0183E00E94F21308959C01E5
:1028500082E08093E9009FEF8091E800915085FD30
:1028600006C085ED8A95F1F700009111F5CF8091B2
:10287000E80085FF0CC050E040E066E070E0C90170
:102880000E9408048091E8008E778093E800089504
:10289000CF93DF93EC0181E08093E9008FEF90917B
:1028A000E800815095FD06C095ED9A95F1F700007E
:1028B0008111F5CF8091E80085FF14C050E040E021
:1028C00068E070E0CE010E9408048091E8008E77F5
:1028D0008093E80088E0FE01AEECB4E001900D9238
:1028E0008A95E1F7DF91CF9108956E9A3EB13F7BD3
:1028F0002EB120644FB7F8948DEE93E0FC01519116
:10290000CF0168E02EB9000000C057FF3EB9550F57
:10291000000000C000C000C03EB900C06A9591F739
:10292000F4E0893B9F0751F74FBF8FE594E0019793
:10293000F1F700C000000895B0E0A0E0E2EAF4E1A1
:102940000C946E307C015B016A0180917F0301E091
:1029500010E08A3010F40AE010E0C1E0D0E0B501E8
:10296000C701F6010995811104C021960C171D07B6
:102970002CF4CDB7DEB7EAE00C948A30CC9F9001FE
:10298000CD9F300D300D112490E080E045E34A9555
:10299000F1F70000019682179307C1F7E0CF80910D
:1029A0005603811110C08091D80080618093D800B7
:1029B0008AE18A95F1F700C08091D90080FF0AC0B2
:1029C00081E08093560381E090915603913009F0A5
:1029D00080E0089582E0809356030E94B80310922D
:1029E000D804F1CF0E94CF14882359F0E091BF049E
:1029F000F091C004309729F00190F081E02D099505
:102A0000089580E008950F931F930E94CF148823A8
:102A100029F00E944F051F910F9108950E944F05C4
:102A200000918003109181032091820330918303F0
:102A3000600F711F821F931FEECFCF92DF92EF9234
:102A4000FF926B017C010E94CF148823A1F02FB765
:102A5000F8946091C4047091C5048091C60490916B
:102A6000C7042FBF6C197D098E099F09FF90EF9055
:102A7000DF90CF9008950E940315F4CF4F925F929C
:102A80006F927F928F929F92AF92BF92CF92DF927E
:102A9000EF92FF926091E8037091E9038091EA035D
:102AA0009091EB030E941D156B017C010E940315A0
:102AB0004B015C018092E8039092E903A092EA0343
:102AC000B092EB03A091BF03EFEBF3E08A2F90E00D
:102AD0004FEF5FEF60E070E04C195D096E097F0910
:102AE000A91328C08093BF038091EC03811135C0E6
:102AF00090911005892F837019F0892F86958695FE
:102B000090916D01913009F441C0992341F19230C7
:102B100009F43FC0933009F43FC0FF90EF90DF907D
:102B2000CF90BF90AF909F908F907F906F905F906D
:102B30004F900895218D328D2901712C612C4415FF
:102B400055056605770520F481509F5F3296C8CF02
:102B50002C0D3D1D328F218FF8CF80E0D1CF109208
:102B60006A018092E2049092E304A092E404B0929D
:102B7000E50489E2EFEBF3E0A6EEB4E001900D92FC
:102B80008A95E1F781E080936D01C7CF0E94640EC2
:102B9000C4CF0E944206C1CF80910F05882351F017
:102BA00046E050E06CE170E080E195E00E942A315F
:102BB00010920F056091E2047091E3048091E404A7
:102BC0009091E5040E941D15603171058105910504
:102BD00008F4A3CF10926D01A0CFE0E1F5E085E30A
:102BE000808380916E0190916F01A091700181832B
:102BF0009283A3838FE784838FEF858346E050E041
:102C00006CE170E0CF010E942A3110920F05089507
:102C10008091BC049091BB04892B8093D202909147
:102C20004403992391F0892B8093D20220E084ED14
:102C300092E0FC013191CF0131112F5FF2E08A3D2A
:102C40009F07B9F721110E94B21248E050E06CE3EF
:102C500073E082ED92E00E945E31892BA9F088E05A
:102C6000E2EDF2E0ACE3B3E001900D928A95E1F77A
:102C7000E091BF04F091C004309731F00280F381FD
:102C8000E02D82ED92E009950895CF93DF93EC015A
:102C900081E0898B8091BC049F81892B8093BC0447
:102CA0008091BB049885892B8093BB040E940816F1
:102CB000EA81FB81309729F06C897D89CE010696E7
:102CC0000995DF91CF910895EF92FF920F931F9393
:102CD000CF93DF93EC018A85811134C0EB80FC80B7
:102CE00087E5F81A26E12E9DC0012F9D900D112435
:102CF000DC01AD5ABE4F1496ED91FC9115973097BB
:102D000031F054966D917C91875A9E4F099586E1DA
:102D10008E9D80018F9D100D11240D5A1E4FF801BC
:102D200087810E94BF12F80180850E94B8120E941C
:102D30000816188219861B861E821D821092BA04FC
:102D40001092B904CDB7DEB7E6E00C948E3090E077
:102D500080E00E94970590E080E00E94810510923B
:102D6000BB040E94081686E0E9EBF3E0DF011D9248
:102D70008A95E9F71092B3031092B2031092B4034C
:102D80000E942D0A0895609316057093170580938D
:102D90001805909319050E94A71608950F931F9385
:102DA000609116057091170580911805909119058D
:102DB0008B019C010670112722273327063011054D
:102DC0002105310531F468600E94C3161F910F91EF
:102DD0000895677FF9CF0F931F9341E050E060E0C3
:102DE00070E004C0440F551F661F771F8A95D2F705
:102DF0008091160590911705A0911805B0911905BD
:102E00008A019B01082719272A273B27C901B801F6
:102E10000E94C3161F910F9108950F931F9341E0D5
:102E200050E060E070E004C0440F551F661F771F3C
:102E30008A95D2F7CB01BA016095709580959095EF
:102E4000009116051091170520911805309119056C
:102E500060237123822393230E94C3161F910F9135
:102E6000089590913B038095892380933B03282FFD
:102E7000277091F4282F082E000C330B921713069D
:102E800059F09091910392FF07C08595859585959E
:102E90000E940D1710923B0308950F931F9341E07A
:102EA00050E060E070E004C0440F551F661F771FBC
:102EB0008A95D2F78091160590911705A091180573
:102EC000B09119058A019B01082B192B2A2B3B2B4A
:102ED000C901B8010E94C3161F910F910895609314
:102EE00045037093460380934703909348030E94E1
:102EF000A7160895882321F00E94B8120E94081690
:102F00000895882339F09091BB04982B9093BB04CB
:102F10000E9408160895882321F00E94BF120E9483
:102F200008160895882339F09091BC04982B90934B
:102F3000BC040E94081608958823C9F19CEF980FDD
:102F4000913A78F4E4EDF2E09191891303C0DF0146
:102F500011971C9292E0EA3DF907B1F70E9408161A
:102F6000089590E2980F983050F4877091E001C076
:102F7000990F8A95EAF7892F0E94BF12EFCF9BE540
:102F8000980F933028F490E080E00E949705089510
:102F900098E5980F973128F490E080E00E94810531
:102FA00008958D3E20F00E94540A0E942D0A089533
:102FB000CF93DF93EC010E949C17CE010E94C113B6
:102FC0009E01205E31092830310510F0CD2B29F407
:102FD0000E948B17DF91CF9108950E947A17FACF44
:102FE000FC018081813029F4FB01808191810E9464
:102FF000D8170895CF93C82F8823B1F08CEF8C0F8A
:10300000813A00F5E4EDF2E08AED92E0DF012D91E6
:10301000C21761F08A179B07D1F76C2F82ED92E0FF
:103020000E9467050E940816CF9108952191C2134E
:1030300003C0DF0111971C928E179F07B9F70E94FA
:103040000816EBCF80E28C0F883068F4C77021E05F
:1030500030E001C0220FCA95EAF78091BC04822BB0
:103060008093BC04DFCFEBE5EC0FE33040F4F0E0FD
:10307000E458FE4F808190E00E949705D5CFE8E5A7
:10308000EC0FE73150F4F0E0EE0FFF1FE158FE4F78
:10309000808191810E948105C7CFCD3E28F28C2F7F
:1030A0000E940F0B0E942D0ABFCF1F93CF93DF9377
:1030B000182FEB010E94FA17209739F4812F0E94F4
:1030C0009C17DF91CF911F9108958FE99FE00197A1
:1030D000F1F700C000002197EFCFCF93DF93EC0111
:1030E0000E94C1139E01205E31092830310510F085
:1030F000209741F40E9492178C2F0E94FA17DF91BB
:10310000CF9108950E948117F7CFDB01FC018081E8
:10311000813029F48D919C910E946D180895823020
:1031200039F41396ED91FC91149712968C910995B0
:103130000895CF93C62F80E00E948613882391F1D3
:1031400080915003CC23A9F0811106C081E08093C7
:10315000500383EE0E94FA170E945B0590934F0381
:1031600080934E038BE290E00E946D188BE290E01A
:1031700014C0811106C081E08093500383EE0E9449
:10318000FA170E945B0590934F0380934E038BE2E6
:1031900092E00E946D188BE292E00E94D81780E0C6
:1031A000CF91089581E00E948613882391F0809149
:1031B0005003CC2339F08111CFCF81E080935003AD
:1031C00080EEC8CF8111DDCF81E08093500380EE87
:1031D000D6CF85E00E948613882349F070E060E036
:1031E0008EE4C11101C08BE40E945518D8CF83E052
:1031F0000E948613882391F36AE070E089EAC11186
:10320000F3CF8AEAF1CFCF9384E090E00E941C31A3
:10321000C82F82E290E00E941C31982F8C2FCF9112
:103220000895AFE0B0E0E7E1F9E10C946D308E0174
:103230000F5F1F4F8AE0D8011D928A95E9F78BE353
:10324000C82E81E0D82EF12CE12CAA24A394B12C15
:10325000F60181916F018F3F09F443C0F894E82F84
:10326000E295EF70F0E021A18F70A50102C0440F3C
:10327000551F8A95E2F7CA01922F982B91A392A12C
:103280008095892382A3789400C0E5E3F1E0912C36
:1032900031E021912F3F09F46CC0A22FA295AF70AD
:1032A000B0E090968C9190E02F7002C09595879534
:1032B0002A95E2F780FD5DC0832F982A330F51E0F5
:1032C000EB33F50731F7F601319780818F3F11F02D
:1032D0000E94B21080EA8A95F1F7F801EE0DFF1D09
:1032E00090829FEFE91AF90AA5E0EA16F10409F0C5
:1032F000AFCF4AE050E0B80184E893E00E945E312D
:103300007C01892B41F08AE0F801A4E8B3E0019048
:103310000D928A95E1F710918F03E114F10459F1B0
:1033200081E080934B030E945B0590934A03809356
:1033300049038091490390914A030E9440050597F3
:1033400078F0A4E8B3E0E12FF0E0EC56FC4F89E818
:1033500093E02D9121938A179B07D9F710924B0385
:1033600081E090E0E114F10451F02F96EBE00C9431
:10337000893080E0A2CF80914B038111DACF0E9487
:10338000CF14D82EE0918F03AE01455F5F4F7A01D5
:10339000882309F48EC085E0DA011D928A95E9F749
:1033A0000E2F10E00C561C4F80917F038A3008F0DE
:1033B0004DC042E55FE1B701C8010E949C1488231B
:1033C00009F466C049EF5EE1B701C8010E949C1490
:1033D000882309F45DC04EEF5DE1B701C8010E948A
:1033E0009C14882309F454C04CE95DE1B701C8017D
:1033F0000E949C14882309F44BC010927F03809193
:103400008E0390E045E050E0B7018C569C4F0E943F
:103410005E3121E020935503892B69F5D12C8091F1
:103420005003882389F080914E0390914F030E94AE
:1034300040058F3E924040F083EE0E949C1780EE44
:103440000E949C17109250038D2D8FCF80914C03BA
:1034500090914D030E944005843F914008F0A9CF10
:10346000809155038823D1F285E0F70111928A9566
:10347000E9F710925503A0918E03B0E0AC56BC4F13
:1034800085E0FE013B9601900D928A95E1F7C7CF4A
:1034900080917F038F3F31F08F5F80937F038A306D
:1034A00008F4ADCF0E945B0590934D0380934C03CD
:1034B000D7CFF0E0EC56FC4F85E0A9E6B3E00190F1
:1034C0000D928A95E1F765E070E089E693E00E944D
:1034D000AD05809368034091AE0350E06091AD0369
:1034E00070E067557C4FC7010E946B318B858093DC
:1034F0006F0361E070E0C7010E94AD0580936E0329
:10350000C0907003D0907103E0907203F090730349
:103510008091510390915203A0915303B0915403B1
:10352000C816D906EA06FB06D1F0C0925103D09224
:103530005203E0925303F09254030E94CF1481117E
:103540000EC00E944F05C61AD70AE80AF90AC092AF
:103550008003D0928103E0928203F092830386E09D
:10356000E4E7F3E0A0E1B5E001900D928A95E1F780
:1035700010917A03112349F08091EC03811105C069
:103580000E94640E80E00E9442061093EC0380E0EB
:10359000ECCE1092BC04E4EDF2E086E0DF011D9277
:1035A0008A95E9F70E94A7160895AAE2B0E0EBED2C
:1035B000FAE10C9475308AED94E02091F100FC0161
:1035C0002193CF01F4E0823E9F07B9F78091DB049D
:1035D000833009F470C0B8F4813009F447C08230F8
:1035E00009F4B1C08091E80083FF7EC28091DA04C3
:1035F0009091DB049A3008F077C2E92FF0E0E756AB
:10360000FE4C0C94E4308A3009F48CC08B3009F401
:103610006FC0893039F78091DA04813219F78091CF
:10362000DE049091DF040297E8F68091E800877F3E
:103630008093E8008091E80082FF38C09091F30009
:103640008091F200029731F48091F100813011F005
:10365000863021F48091F1008093CD048091E800C0
:103660008B778093E8000E943204BCCF8091DA040B
:10367000813A09F0B7CF8091E800877F8093E80016
:103680008091DE049091DF04892B61F468E08EEC78
:1036900094E070E00E94DE048091E8008B778093D4
:1036A000E800A0CF60E090E080E0F3CF8091D80404
:1036B0008111C0CF97CF8091DA04813A09F092CF7F
:1036C0008091DE049091DF04892B09F08BCF8091EB
:1036D000E800877F8093E8008091E80080FFFCCFBE
:1036E000809169018093F1008091E8008E77B9CFD5
:1036F0008091DA04813209F075CF8091DE049091D7
:10370000DF04892B09F06ECF8091E800877F8093DA
:10371000E8000E9432048091DC04809369010E94D9
:10372000C91A60CF8091DA04813209F05BCF8091B1
:10373000E800877F8093E8000E9432048091DD04D6
:103740008093CC044FCF8091DA04813A09F04ACFBC
:103750008091E800877F8093E8008091E80080FFF7
:10376000FCCF8091CC04BECF803899F0823809F02C
:10377000BBC18091DE048F70873008F0B5C18093A3
:10378000E9008091EB0085FB882780F91092E90021
:1037900006C08091D6049091D704911182609091D7
:1037A000E800977F9093E8008093F1001092F10079
:1037B0008091E8008E7794C1882309F482C1823019
:1037C00009F092C18091DC04811185C18091DE04F1
:1037D0008F702FEF280F263008F086C18093E90004
:1037E0002091EB0020FF77C1933031F48091EB0002
:1037F00080628093EB006FC19091EB009061909399
:10380000EB0021E030E001C0220F8A95EAF7209317
:10381000EA001092EA008091EB008860EACF811103
:1038200063C11091DC041F778091E3008078812BC5
:103830008093E3008091E800877F8093E8000E94F6
:1038400032048091E80080FFFCCF8091E300806823
:103850008093E30082E0111183E08093D80444C197
:103860008058823008F040C18091DC049091DD04E2
:103870008C3D23E09207A1F583E08A838AE2898365
:103880004FB7F894DE01139620E03EE051E2E32FBB
:10389000F0E050935700E49120FF03C0E295EF70F1
:1038A0003F5FEF708E2F90E0EA30C0F0C7968D93A7
:1038B0009D932F5F243159F74FBF8091E800877F98
:1038C0008093E8006AE270E0CE0101960E94DE0477
:1038D0008091E8008B778093E80006C1C096E7CF1F
:1038E0004091DE045091DF04292F33272330310526
:1038F00009F444C078F52130310509F46FC08BE339
:1039000090E0E7E2F6E02230310509F0EDC02091C9
:10391000E800277F2093E8002091E0043091E10443
:103920008217930708F49C0140E02115310509F046
:1039300064C0411162C08091E80082FDC9CF8091CE
:10394000D804882329F2853019F28091E80083FF9A
:10395000F2CFBECF21323105A9F12232310509F073
:10396000C3C04115510509F443C04130510509F068
:10397000BBC08BE790E0ECE6F5E0C9CF992781303A
:103980009105C1F0009759F0029709F0ADC0E4E746
:10399000F6E0E4918E2F90E0E4E7F6E007C0E0EA7D
:1039A000F6E0E4918E2F90E0E0EAF6E0009709F46B
:1039B0009BC0ADCFE0E9F6E0E4918E2F90E0E0E926
:1039C000F6E0F4CF4115510571F04130510509F091
:1039D0008BC089E090E0E2E5F6E099CF82E190E0EB
:1039E000E2E6F6E094CF89E090E0E9E3F6E08FCFFD
:1039F00080E490E0E7EEF5E08ACF8091D804882358
:103A000009F466CF853009F463CF8091E80083FD27
:103A10005FCF8091E80082FD8ECF8091E80080FF2B
:103A200084CF9091F3008091F2002115310519F0B7
:103A30008830910550F041E0089709F040E080910E
:103A4000E8008E778093E80070CF44914093F100B6
:103A50003196215031090196E8CF803809F044C0F1
:103A60008091E800877F8093E8008091D90480935B
:103A7000F1009ECE811138C01091DC041230A0F507
:103A80008091E800877F8093E8001093D9040E941A
:103A90003204112311F084E005C08091E30087FD1A
:103AA000FACF81E08093D80442E061EC81E00E948B
:103AB000510442E261EC82E00E9451048091D804FA
:103AC00013C08091DC04813079F481E0933009F0F7
:103AD00080E08093D7041092E9008091E800877F0E
:103AE0008093E8000E9432048091E80083FF0AC0BE
:103AF0008091E800877F8093E8008091EB008062EE
:103B00008093EB00AA96E3E00C9491300E94C91ACE
:103B10002FEF84E39CE0215080409040E1F700C00B
:103B2000000088E19CE00FB6F894A89580936000AF
:103B30000FBE90936000FFCFA7E0B0E0E2EAFDE1A6
:103B40000C94743086E0E0E1F5E0DE01119601901E
:103B50000D928A95E1F78091EC038F8347E050E066
:103B600064E773E0CE0101960E945E3100917B0311
:103B700010917C0320917D0330917E03EFB7F89480
:103B80004091C4045091C5046091C6047091C7046B
:103B9000EFBF401B510B620B730B4436510561059F
:103BA000710518F411E0892B21F180912E0190917B
:103BB0002F0188599C4F40912D0150E0483051050C
:103BC00010F047E050E0BE016F5F7F4F0E946B3105
:103BD00085E090E00E94F02F182F882351F00E947A
:103BE0004F0560937B0370937C0380937D039093D8
:103BF0007E03812F2796E4E00C949030A4E0B0E09F
:103C0000E4E0FEE10C94753040916403509165034B
:103C100060916603709167032FB7F8948091C40494
:103C20009091C504A091C604B091C7042FBF841B16
:103C3000950BA60BB70B11E084369105A105B105D4
:103C400070F10E9403156E5F7F4F8F4F9F4F698306
:103C50007A838B839C8380912601909127018859D8
:103C60009C4F4091250150E04530510510F044E053
:103C700050E0BE016F5F7F4F0E946B3184E090E0A7
:103C80000E94F02F182F882351F00E944F05609357
:103C90006403709365038093660390936703812F99
:103CA0002496E3E00C9491304F925F927F928F9232
:103CB0009F92AF92BF92CF92DF92EF92FF920F93BB
:103CC0001F93CF93DF930F92CDB7DEB7C62E4A0175
:103CD0005901482E880F5508C2010E94F02F782EF6
:103CE000882309F480C0C20133E0880F991F3A95F8
:103CF000E1F7FC01EB5FFE4F438150E041155105B8
:103D000011F041E050E08B5F9E4FFC0164817581B2
:103D100068597C4FCE0101960E946B31F4014081BD
:103D20005181628173812FB7F8948091C40490917E
:103D3000C504A091C604B091C7042FBF841B950B86
:103D4000A60BB70B84369105A105B10540F4B70168
:103D5000C8010E94AD059981891709F444C00C2C53
:103D6000000CDD08C6010E94F02F782E811113C0CF
:103D7000712C872D0F90DF91CF911F910F91FF90A4
:103D8000EF90DF90CF90BF90AF909F908F907F90FB
:103D90005F904F900895C60123E0880F991F2A95E0
:103DA000E1F7FC01EB5FFE4F438150E0E416F506BE
:103DB00008F4A7018B5F9E4FFC01648175816859EF
:103DC0007C4FC5010E946B31B701C8010E94AD054F
:103DD00099818913CDCF0E944F05F40160837183CF
:103DE00082839383C6CFA701B801C5010E946B31BE
:103DF000C0CFA1E0B0E0EFEFFEE10C946F30EE2415
:103E0000E394F12C0FE613E09E012F5F3F4F40E655
:103E100053E063E082E00E94541EC82E882339F1EB
:103E200000E080E01DC0D0909303D00E2D2D30E037
:103E3000A90147555C4F7A01E1E0F0E0EC0FFD1F6E
:103E4000E00FF11D1081FA019081191BB12E1B1496
:103E50009CF0912F17FD90E0191B111118C00F5FF6
:103E6000909192030917F8F281110E94AF128C2DE4
:103E70002196E9E00C948B30BA94F70180818F5F32
:103E8000808360E08D2D0E9499188C2DE0CF1F5FFC
:103E9000F70180818150808361E08D2D0E94991807
:103EA0008C2DDBCFA5E0B0E0E8E5FFE10C947030AD
:103EB0006B0185E0E82EF12C09E613E09E012F5FEF
:103EC0003F4F4CE553E061E080E00E94541E8823A0
:103ED00049F095E0FE013196A7E5B3E001900D921F
:103EE0009A95E1F795E0E7E5F3E0D60101900D92B0
:103EF0009A95E1F72596E8E00C948C3068EE7EEF19
:103F000090E080E00E94583160E082E090E00E9402
:103F10003A3160E083E090E00E943A31109245032C
:103F200010924603109247031092480360E084E029
:103F300090E00E943A3164E082E290E00E943A31DF
:103F400060E085E090E00E943A3160E086E090E039
:103F50000E943A316FEF87E090E00E943A3140E0F2
:103F600050E0BA0188E090E00E944C3160E08DE0C2
:103F700090E00E943A3140E050E0BA0188E190E0E0
:103F80000E944C3160E087E190E00E943A3140E0CD
:103F900050E0BA018CE190E00E944C3170E060E0AA
:103FA00080E290E00E94583140E050E0BA0188E1A0
:103FB00090E00E944C3140E050E0BA018FE090E088
:103FC0000E944C3140E050E0BA0183E190E00E9451
:103FD0004C310895CF93C0919103C2FB992790F97A
:103FE000981791F080FBC2F9C09391036091900300
:103FF00084E090E00E943A316C2F82E290E00E94CF
:104000003A3182E00E943117CF910895A5E0B0E0E7
:10401000ECE0F0E20C9468306C01DC0113968D91B9
:104020009C911497892B39F08C9111969C9189233E
:104030008F3F09F0F1C52596E0E10C9484300E9491
:10404000D012182F682F89819A810E944E1369819E
:104050007A81812F0E940C118C01F60182818111DD
:1040600061C0D60112962C910115110509F49DC06D
:104070000130110509F4B2C0C80197558F3F910571
:1040800009F008F4B0C0D60112968C91882309F487
:10409000D5C50430BDE51B0708F0FFC00B3FECE5BC
:1040A0001E0730F4C80182509C45449708F0FFC0B9
:1040B0000E940319909391038093900301313CE592
:1040C000130709F4D1C108F04BC109309CE5190769
:1040D00009F4BCC108F013C10530BCE51B0709F4A5
:1040E000A9C108F0FBC00330FCE51F0709F498C123
:1040F00008F09CC180919003816002303CE5130779
:1041000009F491C1609190031091910384E090E0D3
:104110000E943A31612F82E290E00E943A310E947F
:10412000C91A4AC080914D0190914E01019609F43F
:1041300098CF43E5E42E41E0F42EB12CA12C992434
:10414000939480914D0190914E018A159B050CF43A
:1041500088CFF7018681882309F1818592858017B0
:10416000910739F48091B9049091BA0480179107AE
:10417000A9F0D7011F969C921F971C961C930E9333
:104180001B9751968C91811103C0C7010E9445165F
:10419000C70106960E9464161092BB04BFEFAB1ACB
:1041A000BB0AE6E1EE0EF11CCCCF81E02223C1F088
:1041B0000E944D170E94CE1680913B03877009F430
:1041C0003ACFF6018281882309F435CF809191039B
:1041D00082FF31CF82E00E9431172DCF82E0E6CFFF
:1041E0000E940D17E7CF40914D0150914E014817A5
:1041F000590724F490934E0180934D0136E1389F86
:104200005001399FB00C1124C5018D5A9E4F7C017D
:10421000DC0150962C935097F601928116968C9162
:104220001697992361F11A961C930E9319978F5F35
:1042300016968C930E945B05D7011E969C938E93D5
:104240001D978091440317968C9317978091BB0418
:104250009091BC04892B18968C931897ED91FC9142
:104260001197309739F054966D917C91C501875A1A
:104270009E4F09951093BA040093B90404CF882384
:1042800009F401CFF7018189882309F4FCCEC50127
:10429000875A9E4F0E946416F6CE0236FDE51F0730
:1042A00009F406CF063A2DE5120709F401CF0631CD
:1042B0008CE5180709F0EDC18091BC048A7A91E081
:1042C00009F490E09093DA0269E2811165E382EDEE
:1042D00092E00E9467050E9408166ECF07308CE5B9
:1042E000180709F4AFC080919003806108309CE505
:1042F000190708F498C080919003806494C080915D
:1043000090038B7F0D30ACE51A0709F48CC0A0F444
:10431000809190038E7F0B30ECE51E0709F483C07B
:10432000809190038C600C30FCE51F0708F47BC083
:10433000809190038D7F77C0809190038F7E0F30A6
:104340002CE5120709F46FC080919003877F00313C
:104350003CE5130708F467C0809190038F7D63C02C
:104360000E3F8CE5180709F47BC058F50531ACE524
:104370001A0709F483C098F480919003837F033176
:10438000ECE51E0709F44FC008F472C00E94C91A78
:1043900090919003892F97FB87F9805844C00C3F78
:1043A0002CE5120709F44AC008F056C00B3F8CE513
:1043B000180709F0A7CE8091910381608093910343
:1043C000A1CE02309DE5190709F464C0C0F48091C4
:1043D00091038C7F0115BDE51B0781F3809191034B
:1043E00083600130EDE51E0748F380919103982F1B
:1043F000909591708E7F892B90FB81F9DFCF0236EB
:10440000FDE51F0709F44CC0063A2DE5120709F433
:104410004EC003303DE5130709F074CE60E03BC0A9
:10442000809190038260809390036CCE8091900382
:104430008460F9CF809190038860F5CF80919103DB
:104440008260BCCF809190038062EDCF0E94C91A38
:10445000809190038068E7CF809191038E7FAECFEB
:10446000809191038D7FAACF809190038F7BDBCFCA
:104470000E94C91A809190038F77D5CF80919003C5
:1044800082FB992790F921E0922790FB82F990FB1B
:1044900083F9C9CF61E08EE090E00E943A3132CEDC
:1044A00090919003892F8F7E94FF8061BCCF909173
:1044B0009003892F8E7F90FF8160B5CF85E3C8C3BD
:1044C0008091BC0482720B3C9CE5190709F4CEC0B4
:1044D00008F075C0063CBCE51B0709F4B3C008F042
:1044E00056C0043CFCE51F0709F4A2C008F0A5C0B3
:1044F000033C3CE5130709F48DC0D60112968C915C
:1045000012970D911C91882309F41DC1C8010E94C6
:10451000D012F82E682FC8010E944E13B8018F2DBB
:104520000E940C110E9427118C01882EF601F28046
:10453000958092943FE0932280913B038770C1F075
:10454000BF2CFF20B1F0812F807F803421F080E2EA
:10455000800F883068F08091910382FF09C082E06B
:104560000E94311780913B038770BB24B394811163
:10457000B12CA12EA2942FE0A222FBE0FA1508F4A0
:104580004DC1EA2DF0E0ED55FE4C0C94E430083CB2
:104590009CE5190709F460C008F459C0093CBCE562
:1045A0001B0709F45EC045EE55E062EF75E00A3C7A
:1045B000ECE51E0709F0A1CF0E94C305FDCD003D2B
:1045C000FCE51F0709F463C0A8F40D3C3CE51307A4
:1045D00009F456C008F44FC00E3CACE51A0709F4C4
:1045E00054C085E00F3CBCE51B0709F086CF0E9454
:1045F0008C03E2CD073DECE51E0730F482E1023D7D
:10460000FCE51F07A0F3D8CD0E352DE5120709F400
:10461000D3CD73CF8091100591E089278093100549
:1046200010926D0180910F05816080930F05C4CDBC
:104630004DE256E067E376E0BFCF47E356E06DE238
:1046400076E0BACF49E156E063E276E0B5CF43E2E7
:1046500056E069E176E0B0CF4FEF55E06CE076E0F0
:10466000ABCF4CE056E06FEF75E0A6CF42EF55E0E0
:1046700065EE75E0A1CF49EC55E067ED75E09CCFA4
:1046800047ED55E069EC75E097CF81E0B0CF8DE064
:10469000AECF0B353DE5130709F451C058F40115B1
:1046A0009CE5190799F00F3D1C4509F026CF0E94A3
:1046B0007E1F0AC00D35BDE51B07B9F108F441C0E6
:1046C000083A1D4509F019CF0E94861D0E94C91A9B
:1046D0002FEF34E38CE0215030408040E1F700C000
:1046E000000081E08093E00080E28093D800109287
:1046F000C900AFE1BEE41197F1F700C0000087E008
:1047000090EBDC0180931A0590931B05A0931C0588
:10471000B0931D0588E19CE00FB6F894A8958093AE
:1047200060000FBE90936000FFCF8091910382FBE9
:10473000882780F991E089270E94EA1FDECE81E078
:10474000FBCF80E0F9CFC8010E941913F82EE6CE06
:10475000212F2F70E22E107F19F0E29490EFE922C2
:10476000FF20B9F0EE2069F080E2800F883010F071
:10477000811009C08091BC04E82AE092BC040E9428
:104780000816802F49C08091BB04E82AE092BB0440
:10479000F6CF802F0E949C17EE2009F43FC0005EE8
:1047A0008E2D083010F0811003C00E94BF1202C08D
:1047B0000E94B8120E94081631C0312F3F70E32EBC
:1047C000107F103219F0E29480EFE8228820A1F0E7
:1047D00081E0881609F47CC0FF2009F486C0992086
:1047E00009F47CC0D60115968C91159780FFC9CF2E
:1047F0008F7015968C9372C02091910322FD45C055
:10480000FF20E1F1EE2039F08091BC04E82AE0922B
:10481000BC040E94081680E00E94FA17EA2DE850B6
:10482000FF0B349710F40E94F214BB20B1F080917A
:104830003B0380FD12C0D60112961C92859585958A
:1048400085950E944D17C6010E94062080913B036A
:104850008595859585950E940D1785E0F601DE0109
:10486000119601900D928A95E1F709811A81C8018C
:104870000E941913B8010E940C11DDCB80E00E9448
:104880009C17EE2059F28E2D90CFFF20A1F0909131
:1048900044038E2D892B911003C00E949217BECF26
:1048A000A1E09A12FACF22FFB9CF981709F4B6CF38
:1048B00080934403B3CF911006C00E94B2128E2D94
:1048C0000E948B17ABCFB1E09B1609F4A7CFF5CFB1
:1048D000FF2031F0E5E0E91508F4A0CF8E2DDDCF03
:1048E000F4E0F91508F49ACFEACF992041F3B9E33F
:1048F0008B1209C0EFEFF7EE23E0E150F0402040CB
:10490000E1F700C00000802F0E949C1787CF812F05
:1049100086958695837061F0813009F07FCFC8015C
:104920009370F11002C090E080E00E94810576CF84
:10493000C8019370F11002C090E080E00E949705DA
:104940006DCF802FFF2029F00E940F0B0E942D0AAF
:1049500065CF0E94540AFACF812F837009F066C098
:10496000F1105CCF802F829586958770880F880F15
:10497000602F6F70462E512C712C612C082E04C0B4
:10498000440C551C661C771C0A94D2F740E050E09A
:10499000BA0104FF0FC04FE050E060E070E004C0D7
:1049A000440F551F661F771F8A95D2F74095509583
:1049B00060957095812F869586958370823019F168
:1049C000D8F400914503109146032091470330919C
:1049D0004803813069F04429552966297729CB019C
:1049E000BA0160237123822393230E946F1716CF8D
:1049F000402A512A622A732ACB01BA0164297529F7
:104A000086299729F2CF44295529662977290091CB
:104A10004503109146032091470330914803CB0191
:104A2000BA016027712782279327DFCF8695FF2061
:104A300011F0812F8170882309F4F0CE802F8295A8
:104A400086958770880F880F602F6F70462E512CC7
:104A5000712C612C082E04C0440C551C661C771C5C
:104A60000A94D2F740E050E0BA0104FF0FC04FE0D3
:104A700050E060E070E004C0440F551F661F771FD0
:104A80008A95D2F74095509560957095812F8695BF
:104A900086958370823019F1D8F400911605109133
:104AA00017052091180530911905813069F04429C6
:104AB000552966297729CB01BA0160237123822306
:104AC00093230E94C316AACE402A512A622A732A2F
:104AD000CB01BA016429752986299729F2CF442987
:104AE00055296629772900911605109117052091FF
:104AF000180530911905CB01BA016027712782276B
:104B00009327DFCF1F70FF2029F0812F0E944D17C0
:104B1000802FC3CE802F0E948B17812F0E940D17EC
:104B20007DCE802F32EF831679F1381570F090EF3B
:104B30008916D1F0A1EF8A1691F0FF2009F45CC02C
:104B400091101FCE812F8F7123C0B3EF8B1619F1F7
:104B5000E4EF8E12F2CF8091910382FD2FC0812F5E
:104B60008F71FF20D9F214C0FF2049F0F4E0F9154D
:104B700008F454CE812F8F710E94EB164FCE25E0A2
:104B8000291508F44BCEF6CF812F8F71F110C6CFC7
:104B90000E944D1743CE60E070E0CB01FF2009F486
:104BA00090CF1F7161E070E080E090E004C0660F7C
:104BB000771F881F991F1A95D2F783CFFF2089F09E
:104BC0001F71812F0E944D178091910382FF07C0B2
:104BD00038E0139FC0011124836080933B03812F31
:104BE000D7CF81E00E94311781E0891508F016CEF9
:104BF00082E00E94311712CE992059F0893309F0D2
:104C000082CE9FEFA7EEB3E09150A040B040E1F715
:104C100078CE812F8F7182CF85E0F601DE0111966B
:104C200001900D928A95E1F7F601228189819A819E
:104C3000211105CA0E941913182F09CA0631FCE573
:104C40001F0709F03DCC8091DA02811137CC89E24F
:104C5000E4EDF2E02AED32E09191891303C0DF0127
:104C600011971C922E173F07B9F735CB1F93CF939F
:104C7000DF9380910803807F09F049C0809105038C
:104C8000882309F444C080913A03D09109036091CC
:104C9000030370910403A0910603B0910703C62F8C
:104CA000C72316E0D81799F190E0109711F0CF3F85
:104CB00019F401968770F6CF189F9001199F300D57
:104CC0001124F901E65FFC4F41814713F2CF408187
:104CD0004613EFCF42814111ECCF438154814A1BEF
:104CE0005B0B483C510528F7809108038F70806169
:104CF00080930803F901E15FFC4F80818F70806130
:104D0000808383E093E00E9406200E94C612DF9118
:104D1000CF911F910895A1E1B0E0E1E9F6E20C9492
:104D20006E308C0185E0F801DE011D9601900D9238
:104D30008A95E1F7F801E28083E0A82E83E0B82E9F
:104D400060910603709107036115710509F426C18E
:104D50009091030340910403892F84238F3F09F42A
:104D60001DC120813181C380D480F0900503F601FC
:104D7000E61BF70BFF2009F4DCC080910803582FD5
:104D8000507FE83CF10508F09FC051116BC0FE2C2C
:104D9000431314C0921312C0E11010C08F708061D1
:104DA00080930803C5010E94062080910803F80142
:104DB00085838F2D6196EAE00C948A30C114D1046A
:104DC00029F0822F83238F3F09F003C180E0F82F61
:104DD000F170DF2E80FF3CC080913A0340910903BF
:104DE00056E0841315C02D873E878D859E850E94D1
:104DF0000C13292F22952F702230F0F0243018F553
:104E00009F70F1F0F8019581907FD1F4D12C1EC0F4
:104E100090E0589FF001599FF00D1124E65FFC4F80
:104E20006181361306C06081261303C06281E612D9
:104E30000FC001968770D5CF9F7011F0882331F392
:104E4000805E883018F3C8010E940620FD2CB1CF87
:104E5000EE2009F4AECF80910803816080930803AF
:104E6000F12CA7CF431306C0921304C0F801EE2023
:104E700009F479C0C8010E94A113882309F1EE202A
:104E8000F9F080910803803270F020910303309193
:104E9000040338872F831986DB86CA868C87CE0168
:104EA00007960E94062086E0F801A3E0B3E0019097
:104EB0000D928A95E1F70E943626FF24F39479CF6C
:104EC000C8010E940620F9CF51110AC083E093E087
:104ED0000E94062086E0F50111928A95E9F7C0CF7D
:104EE00043130FC092130DC0E1100BC0F80185836E
:104EF000C8010E94062086E0F50111928A95E9F723
:104F000058CFC8010E94A1138823D1F2EE20C1F22C
:104F100080910803803238F220910303309104031A
:104F20003A8329831B82DD82CC828E83CE01019657
:104F3000B8CFE83CF105F8F6FE2CEE2009F2431359
:104F40001FC092131DC08091080380FD10C0982FD0
:104F5000907F69F0F8018583903F31F0982F907F22
:104F6000905F8F70892B8583C8010E94062086E0A0
:104F7000F801A3E0B3E001900D928A95E1F719CF13
:104F8000C8010E94A11381118ECF80910803816016
:104F900080930803C8010E9406200BCFEE2009F47D
:104FA0008FCFC8010E94A113F82E882309F488CF5F
:104FB00086E0F801A3E0B3E001900D928A95E1F755
:104FC00080910303909104030E940C130E943626E3
:104FD000F0CE81E08E25FBCEA7E1B0E0E2EFF7E274
:104FE0000C9475304B8B5C8B6D8B7E8B8F8B611132
:104FF0001092BB041A8A198A85E0FE017396DE01BD
:105000001D9601900D928A95E1F786E0FE013D968E
:10501000DE01179601900D928A95E1F7CE01079671
:105020000E948B26882359F016E080913A039091D4
:105030000903891343C06796E3E00C94913086E03E
:10504000FE013796DE01119601900D928A95E1F7E7
:105050008A859B85892B41F38F81988589238F3F92
:1050600019F32091090330E0C9010196877099274F
:1050700040913A034817190671F40E94C91A109218
:10508000090310923A0386E0E3E0F3E0DF011D92AA
:105090008A95E9F7C9CF96E0929FD001939FB00D12
:1050A0001124A65FBC4FFE01319601900D929A9596
:1050B000E1F7809309030E94C612B6CF819FC00119
:1050C0001124865F9C4F0E948B26882309F4B3CF5E
:1050D00080913A0390E001968770992780933A0374
:1050E000A4CF1F920F920FB60F9211242F933F93CC
:1050F0004F935F936F937F938F939F93AF93BF93E0
:10510000CF93DF93EF93FF93D091E900DF7080910D
:10511000EC00C82FC17080FDC0E81092E9008091BA
:10512000F000877F8093F00078940E94D51A109247
:10513000E9008091F00088608093F000CD2BCF7063
:10514000C093E900FF91EF91DF91CF91BF91AF91B3
:105150009F918F917F916F915F914F913F912F918F
:105160000F900FBE0F901F9018951F920F920FB6C1
:105170000F9211242F933F934F935F936F937F93DD
:105180008F939F93AF93BF93EF93FF938091E10031
:1051900082FF09C08091E20082FF05C08091E1009A
:1051A0008B7F8093E1008091DA0080FF24C08091A2
:1051B000D80080FF20C08091DA008E7F8093DA00D3
:1051C0008091D90080FF9DC080E189BD82E189BDC9
:1051D00009B400FEFDCF81E08093D8048091CB0418
:1051E000811109C00E94B8030E9483048091E200EB
:1051F00084608093E2008091E10080FF17C080917D
:10520000E20080FF13C08091E2008E7F8093E20075
:105210008091E20080618093E2008091D8008062FA
:105220008093D80019BC85E08093D8048091E10078
:1052300084FF2BC08091E20084FF27C080E189BDFC
:1052400082E189BD89B5982F917080FFFBCF809155
:10525000D8008F7D8093D8008091E1008F7E80936D
:10526000E1008091E2008F7E8093E2008091E20075
:1052700081608093E2008091D904882309F447C0BB
:1052800084E08093D8048091D8048091E10083FF6A
:1052900027C08091E20083FF23C08091E100877FD7
:1052A0008093E10082E08093D8041092D904809129
:1052B000E1008E7F8093E1008091E2008E7F8093F9
:1052C000E2008091E20080618093E20042E060E0D1
:1052D00080E00E9451048091F00088608093F0008B
:1052E000FF91EF91BF91AF919F918F917F916F91BE
:1052F0005F914F913F912F910F900FBE0F901F9094
:10530000189519BC1092D8041092CB0474CF8091D8
:10531000E30087FD93E09093D804B5CF78941F9273
:105320001FB61F9211248F939F93AF93BF938091C9
:10533000C4049091C504A091C604B091C70401961D
:10534000A11DB11D8093C4049093C504A093C6040D
:10535000B093C704BF91AF919F918F911F901FBED3
:105360001F9018951F921FB61F9211248F939F9321
:10537000AF93BF938091C304811113C08091C40483
:105380009091C504A091C604B091C7044196A11D97
:10539000B11D8093C4049093C504A093C604B09338
:1053A000C704BF91AF919F918F911F901FBE1F9017
:1053B0001895CDB7DEB760970FB6F894DEBF0FBE75
:1053C000CDBF85B7806885BF85B7806885BF84B746
:1053D000877F84BF0FB6F894A8958091600088619C
:1053E00080936000109260000FBE80E890E00FB6DE
:1053F000F89480936100909361000FBE89E69BE072
:105400009093D1028093D0020E94B8030E9483043B
:105410008091E20084608093E20078948091D804C7
:105420008823A1F01091E9001F709091EC00892F62
:10543000817090FD80E8182B1092E9008091E800BF
:1054400083FD0E94D51A1F701093E90082E084BD8D
:1054500093E095BD9AEF97BD80936E001092800304
:105460001092810310928203109283030E946B0BAF
:10547000809340010E94CF1481110E94042F8091DB
:10548000400181112CC085E0E1E7F1E0DE011796D3
:1054900001900D928A95E1F78F8180933B01888579
:1054A00080933C01898580933D018A8580933E01EC
:1054B0008B8580933F0186E0E6E7F1E0DE011196FF
:1054C00001900D928A95E1F7FE013196A5E3B1E0D6
:1054D000CE01079621912D938E179F07D9F78091C2
:1054E000400195E0811190E090938F0385E0891B46
:1054F00080938E030BE311E0D8018D918D018F3FD6
:1055000011F00E94B210B1E000341B07A9F705E3C7
:1055100011E08BE3E82E81E0F82EF80181918F01F4
:105520008F3F11F00E94B210E016F106B1F78AE049
:10553000E4E9F3E0DF01282F1D922A95E9F7E4E87A
:10554000F3E0DF011D928A95E9F790E080E00E9488
:105550002431883E9E4F11F00E947E1F82E090E031
:105560000E941C3180939E030E9403199093910323
:105570008093900383E090E00E941C31682F70E0DC
:1055800090E080E00E946F171092E6048FEF9FEF8B
:10559000909300058093FF0490930205809301058A
:1055A0009093040580930305909306058093050569
:1055B000909308058093070590930A058093090549
:1055C00090930C0580930B0590930E0580930D0529
:1055D0001092BF039093D9038093D8039093DB0379
:1055E0008093DA039093DD038093DC039093DF03D1
:1055F0008093DE039093E1038093E0039093E303B1
:105600008093E2039093E5038093E4039093E70390
:105610008093E60390E080E00E942431883E9E4F14
:1056200021F00E947E1F0E94ED1546E050E06CE1E3
:1056300070E080E195E00E940C3110920F0580919E
:1056400010058C7F11F40E94ED159091400181E0CE
:1056500098279093AD03F82FF91BF0939303909143
:1056600040018093AE03909140018093920380911A
:105670004001811106C083E38093500182E380934F
:105680004F0120915001E22FE295EF70F0E061A10F
:105690002F7081E090E0AC0101C0440F2A95EAF739
:1056A000342F3095362331A322A1242B22A320911D
:1056B0004F01E22FE295EF70F0E031A12F7001C0B1
:1056C000880F2A95EAF7982F9095932391A392A19A
:1056D000892B82A38FE891E00197F1F700C00000C9
:1056E0001091AE036FEA73E040E551E08FE4E82EDD
:1056F00081E0F82EFB0128C0DA012D91AD01822F47
:1057000082958F7090E0DC0190968C9190E02F70E4
:1057100002C0959587952A95E2F78170D7019D91F2
:105720007D01292F22952F7030E0D90190962C9180
:1057300030E09F7002C0359527959A95E2F790E08A
:1057400020FD92E0892B81938E2F861B8117A0F27A
:105750000E94CF14811102C00E94072F81E491E0C2
:105760009093C0048093BF04A8E1CA2ED12CB0E46A
:105770009B2EBB24B394882483948091D80400E1A9
:1057800012E1853009F4C4C10E94111981110E94EF
:105790004F05A4E9B3E0EFE9F3E010E000E0602E8C
:1057A0007D908191871509F4D9C18725F12CEE24CC
:1057B000E394982F9E2109F4CCC10E94CF147E203F
:1057C000882399F0FF82688681E0711001C080E033
:1057D00089870E945B058160782F9B878A874F812C
:1057E000588569858B850E94EC27F801E156FC4FAE
:1057F0008081E826E082772089F086E0809FF001B2
:10580000819FF00D1124E953FE4FEF0DF11D8081B2
:10581000712C8F3F19F0A82E77247394072D10E078
:105820008091BF03800F912F911D09976CF188E043
:1058300090E07C01E01AF10AB80160547C4FA701A6
:1058400080EC93E00E946B31B80168537C4FA70154
:1058500088EC93E00E946B31A701440F551FB801FB
:10586000660F771F68527C4F88ED93E00E946B3182
:10587000B80160537C4FA70180ED93E00E946B312B
:1058800088E087198093BF038091BF0390E0AA2D21
:10589000B0E09D01220F331F2D5F3D4FAA0FBB1FAC
:1058A000BD016C5F7D4F41E0480F971508F43CC186
:1058B0008093BF030E94CF14811167C10E943E15DF
:1058C000612C512C44E0E42EF12C8091AE0368163B
:1058D00008F4A6C151100E94AF1286E0E9EBF3E094
:1058E000DE01119601900D928A95E1F71092BB03AB
:1058F0001092BC031092BD031092BE031B810C8159
:10590000812F802B09F448C08091B7039091B80390
:105910000E9440059C019091B303992309F417C29A
:1059200025313105C8F19F3F19F09F5F9093B30374
:10593000112359F00E94EF0A9FEF11160CF491E029
:10594000899F802D11248093BB03002359F00E946E
:10595000EF0A9FEF10160CF491E0899F802D11241F
:105960008093BC033091BB033323B1F02091BC037F
:10597000222391F045EB3403C0011124992309F44B
:10598000BFC19093BB0345EB240390011124332343
:1059900009F4B9C13093BC031D810E81812F802B86
:1059A00009F448C08091B5039091B6030E94400568
:1059B0009C019091B203992309F4C4C121353105AA
:1059C000C8F19F3F19F09F5F9093B203112359F0E4
:1059D0000E94CD0A9FEF11160CF491E0899F802D53
:1059E00011248093BD03002359F00E94CD0A9FEF3C
:1059F00010160CF491E0899F802D11248093BE0332
:105A00003091BD033323B1F02091BE03222391F0E6
:105A100045EB3403C0011124992309F477C1909315
:105A2000BD0345EB240390011124332309F471C114
:105A30003093BE0346E050E0BE016F5F7F4F89EBBD
:105A400093E00E945E31892B61F48091BB039091B9
:105A5000BC03892B9091BD03892B9091BE03892BA8
:105A600011F00E942D0A86E0FE013196A9EBB3E009
:105A700001900D928A95E1F70E94F2149091B10382
:105A8000891709F47ACE8093B10377CE8091D80438
:105A9000843009F42EC00E943E158091EC038111E0
:105AA00005C00E94640E80E00E9442068092EC03D2
:105AB0001092C3040FB6F894A895C09260000FBE70
:105AC0009092600083B7817F846083BF83B78160D9
:105AD00083BF7894889583B78E7F83BF0FB6F89481
