:100000000C94CD020C9405030C9405030C94050389
:100010000C9405030C9405030C9405030C94050340
:100020000C9405030C9405030C94FC260C94D02727
:100030000C9419220C9405030C9405030C940503ED
:100040000C9405030C9405030C9405030C94050310
:100050000C9405030C94A0220C9405030C94050346
:100060000C9405030C9405030C9405030C940503F0
:100070000C9405030C9405030C9405030C940503E0
:100080000C9405030C9405030C9405030C940503D0
:100090000C9405030C9405030C9405030C940503C0
:1000A0000C9405030C9405030C9405032B00140019
:1000B0001A00080015001700292104001600070087
:1000C00009000A00E1001D001B00060019000500E0
:1000D0001C0018000C00120013002A000B000D0079
:1000E0000E000F00330034001100100036003700FE
:1000F00038002832E30028412C442A42E600000060
:1001000001000000000000000000000001000000ED
:10011000000000005200000001000000000050003C
:1001200051004F002F0A300A2F08300800004C0001
:100130005000510052004F000000000050084E00D7
:100140004B004F08000001000100010028000100E1
:100150000100000035021E021F02200221022202BD
:1001600035001E281F2420212122220001002D00FD
:100170002D0226022F002F0223022402250226022E
:10018000270231022300242225212624272831009A
:100190003002300027022E002E0201000100010073
:1001A0002A000100010000002078217827782578B6
:1001B000237829783A003B003C003D003E003F0098
:1001C00040004100420043004400450000000000A0
:1001D000000000000000007C0000E100E000E20000
:1001E000E30000000000AC00AB00AA00A900AE00D4
:1001F0000100010000000100010000000100DA0020
:10020000CD00D900000000000100CF00CE00D000DA
:1002100000000000010000000000000000000000DD
:10022000000038002400250026002D00D100250202
:100230002100220023002E02D20037001E001F00E2
:1002400020000100D200D1000100000027000000C2
:100250001E0F0500047F3F1F643214643214783C83
:100260001E1E140A052223252628292A2C2D2F306C
:1002700032333536383A3B3D3E4042434547494AA2
:100280004C4E5051535557595A5C5E6062646668D3
:10029000696B6D6F71737577797B7D7F81838587DE
:1002A000898A8C8E90929496989A9C9E9FA1A3A5E1
:1002B000A7A8AAACAEAFB1B3B4B6B8B9BBBCBEBF09
:1002C000C1C2C3C5C6C7C9CACBCCCDCED0D1D2D28C
:1002D000D3D4D5D6D7D7D8D9D9DADADBDBDBDCDC97
:1002E000DCDCDCDDDDDDDDDCDCDCDCDCDBDBDBDA4F
:1002F000DAD9D9D8D7D7D6D5D4D3D2D2D1D0CECDBA
:10030000CCCBCAC9C7C6C5C3C2C1BFBEBCBBB9B8C6
:10031000B6B4B3B1AFAEACAAA8A7A5A3A19F9E9C4B
:100320009A98969492908E8C8A89878583817F7D16
:100330007B79777573716F6D6B6968666462605EF7
:100340005C5A5957555351504E4C4A4947454342C0
:10035000403E3D3B3A3836353332302F2D2C2A295A
:100360002826252322FFAA7F554000010101010113
:10037000010101010202020202020202020303035E
:10038000030303030304040404040404050505052E
:1003900005060606060607070707070808080809EE
:1003A0000909090A0A0A0B0B0B0C0C0C0D0D0D0E9A
:1003B0000E0E0F0F0F10101111111212131314142F
:1003C000151516161717181819191A1A1B1B1C1DA4
:1003D0001D1E1E1F202021222223242425262627FD
:1003E0002829292A2B2C2D2D2E2F3031323233342F
:1003F00035363738393A3B3C3D3E3F404142434435
:1004000045464748494A4C4D4E4F50515354555616
:1004100058595A5B5D5E5F616264656668696B6CC2
:100420006D6F7072737577787A7B7D7E808283853D
:1004300087888A8C8E8F91939596989A9C9EA0A27D
:10044000A3A5A7A9ABADAFB1B3B5B7BABCBEC0C287
:10045000C4C6C9CBCDCFD1D4D6D8DBDDDFE2E4E74B
:10046000E9EBEEF0F3F5F8FAFDFF14037200650016
:100470007600690075006E006700340031000000EE
:100480000C0367007400690070007300000004032F
:10049000090409023B00020100A0FA09040000015E
:1004A000030101000921110100012240000705811B
:1004B00003080001090401000103000000092111E3
:1004C000010001227B0007058203200001120100C8
:1004D00002000000080778CBDC01000102000105E2
:1004E000010902A10185020901A1000509190129DB
:1004F00008150025019508750181020501093009DB
:10050000311581257F9502750881060938158125E9
:100510007F950175088106050C0A38021581257F33
:10052000950175088106C0C005010980A1018503F8
:1005300019012AB700150126B70095017510810031
:10054000C0050C0901A101850419012AA0021501A9
:1005500026A002950175108100C005010906A101C0
:10056000050719E029E715002501950875018102A5
:100570009501750881010507190029FF150026FF5F
:10058000009506750881000508190129059505756E
:10059000019102950175039101C011241FBECFEF97
:1005A000DAE0DEBFCDBF04B603FE18C0809136038B
:1005B00090913703A0913803B09139038730904B65
:1005C000A740B04B59F410923603109237031092A3
:1005D000380310923903E0E0F8E3099511E0A0E058
:1005E000B1E0EAE0F7E502C005900D92A83DB10741
:1005F000D9F723E0A8EDB1E001C01D92A633B20700
:10060000E1F70E9410130C942F2B0C94000023E0B0
:1006100042E061E00E941F0A08958530B8F4673017
:10062000A8F4463098F450E096E0699F400D511DC3
:100630001124FA019AE2899FE00DF11D1124EE0FB9
:10064000FF1FE455FF4F85919491089581E090E05C
:1006500008950E940D0308959C013A9521153F418C
:1006600050F5FC01EE27F170BC0166277270AC01F9
:10067000442754709C012227387094FF0EC080E1FB
:10068000EF2B09F480E0672B09F08062452B09F01D
:100690008064232B89F08068089581E0EF2B09F4B2
:1006A00080E0672B09F08260452B09F08460232BE2
:1006B00019F08860089580E00895CF93DF93EB01EF
:1006C0000E942C03FE010995DF91CF910895CF93ED
:1006D000DF93EC01805E9109089720F069E478E0EF
:1006E000209711F46CEF75E0CE010E945D038C2F12
:1006F0000E94EF04DF91CF910895CF93DF93EC0137
:100700000E948105CE01805E9109089720F060E586
:1007100078E0209711F463E076E0CE010E945D035B
:10072000DF91CF91089581E0089581E008950E94BE
:100730009503089508950E949A030895A5E0B0E0F6
:10074000E4EAF3E00C94212A49835A833091DF01D3
:1007500089819A81311119C0662399F0222389F089
:100760000E94BF09182F682F89819A810E949B09D6
:1007700069817A81812F0E94B3102596E3E00C9461
:100780003D2A0E94AD09182FF3CF0E94BF0969814D
:100790007A81F1CFFC01262F4081518162817381E2
:1007A00084810E949E03089581E00895CF93DF9392
:1007B000EC0160E00E94CA03BE010E949B03DF912E
:1007C000CF91089508950E946D080E94E2032FEFD3
:1007D00084E39CE0215080409040E1F700C000009D
:1007E00008950E94E3030E94C42208950E94E30337
:1007F0000E94E82208950F931F93CF93DF938C01FB
:1008000061E00E94CA03EC01B8010E9497038111C4
:1008100006C080E0DF91CF911F910F910895B8013C
:10082000CE010E946B1F8823A1F3B801CE010E9464
:10083000B720882371F3B801CE010E94481D882398
:1008400041F3B801CE010E942920882311F3B80199
:10085000CE010E94AA1C8823E1F2F801828188233C
:1008600061F0C330FCE7DF07E9F058F4C115ECE7AD
:10087000DE07A9F0C130DC47B9F0C8010E9493033C
:10088000C9CFCB358CE7D807A9F0CC35ECE7DE072C
:1008900071F0CA35DC4789F70E94150EEECF0E9431
:1008A000F103B7CF0E941D0E0E94F603B2CF0E9443
:1008B0000B0EE3CF0E94190EE0CF0E94F6210E949A
:1008C00088040E94101B08950E948C040E94E71B5C
:1008D0000E94FB210895089581E008950895CF9323
:1008E000DF93D82F0E946C04C82F882319F08D2F16
:1008F0000E946E048C2FDF91CF9108950895CF93BD
:10090000C82F0E946B048C2F0E946F04CF91089512
:1009100080E00E947F0408950E9405210E947F04C8
:100920000895CF930E940521C82F8091DA018C177A
:1009300079F0C093DA010E9485226093DB01709305
:10094000DC018093DD019093DE018C2F0E947F04F7
:10095000CF910895ABE0B0E0E0EBF4E00C94222AF4
:100960004F83588769877A878B8761110E94560D5C
:100970001E821D8285E0FE013796DE0111960190F0
:100980000D928A95E1F78C819D81892B61F44981D3
:100990005A816B817C818D819E810E947E0C2B9679
:1009A000E2E00C943E2A89819A8189238F3F79F372
:1009B000CE0101960E94D4038111E9CFF0CFFC0152
:1009C000808191810E94F1090895662329F00E9497
:1009D00094130E94671408950E94EE13FACFCF93E8
:1009E000C82F8823C9F08238C9F40E94052181FDEF
:1009F00013C089E30E940E0D0E94770D2FEF87EE42
:100A000093E0215080409040E1F700C0000089E36E
:100A10000E94160D0E94770DCF9108958338A1F49E
:100A20000E94052180FDF8CF83E50E940E0D0E94F3
:100A3000770D2FEF81EE94E0215080409040E1F758
:100A400000C0000083E5E4CF8438A1F40E940521B2
:100A500082FDE2CF87E40E940E0D0E94770D2FEFFA
:100A600081EE94E0215080409040E1F700C000000A
:100A700087E4CECF8CEF8C0F813A90F46C2F80916D
:100A80000401909105010E948721882329F08C2F71
:100A90000E94160D0E94770D8C2F0E940E0DBACF6A
:100AA00080E28C0F883048F4C77081E001C0880F65
:100AB000CA95EAF70E94390DADCFEBE5EC0FE330B4
:100AC00040F4F0E0ED59FE4F808190E00E942B2130
:100AD000A3CFE8E5EC0FEB3150F4F0E0EE0FFF1F91
:100AE000E35DFE4F808191810E94502195CF83E389
:100AF0008C0F833108F090CF61E08C2F0E94E504C9
:100B00008BCF882309F456C0823879F40E940521DE
:100B100081FF50C089E30E940E0D0E94770D89E38A
:100B20000E94160D0E94770D0895833859F40E9493
:100B3000052180FF3FC083E50E940E0D0E94770DC6
:100B400083E5EECF843859F40E94052182FF32C03C
:100B500087E40E940E0D0E94770D87E4E1CF9CEFA1
:100B6000980F913AE8F290E2980F983050F487701D
:100B700091E001C0990F8A95EAF7892F0E943F0DF5
:100B8000D1CF9BE5980F933028F490E080E00E944D
:100B90002B21089598E5980F9B3128F490E080E090
:100BA0000E945021089593E3980F933118F460E068
:100BB0000E94E50408951F93CF93DF93182FEB0154
:100BC0000E94EF04209739F4812F0E948105DF9164
:100BD000CF911F9108958FE99FE00197F1F700C031
:100BE00000002197EFCF70E060E0893311F460E5F9
:100BF00070E00E94DB050895882321F00E94390DE2
:100C00000E94770D0895882321F00E943F0D0E94D5
:100C1000770D0895B0E0A0E0E0E1F6E00C941B2A27
:100C20006C01D62FC72FFC011281058102950F7030
:100C30000E942F0DE82E8823E9F0E12E1123D1F038
:100C40008C2F807F803451F080E28D0F8830F8F057
:100C5000011104C08C2F807E8032C9F08091F00297
:100C600082FF15C082E00E94DA0D0E942F0D91E0F4
:100C7000E82EE926BC2EB2949FE0B922FBE0FB15DA
:100C8000B8F1EB2DF0E0EF5CF44D0C94DB29E12C96
:100C9000F1CF0C2F0F70C07F11F00295007F112350
:100CA00099F0002359F080E28D0F883010F0D111B7
:100CB00007C0802F0E94390D0E94770D8D2F5CC0D8
:100CC000802F0E94490DF8CF8D2F0E9481050023AF
:100CD00079F080E28D0F883010F0D11104C0802FA0
:100CE0000E943F0D03C0802F0E944F0D0E94770D80
:100CF000EB2DE850FF0B349720F40E9405210E9451
:100D00007F04EE2089F00E942B0D80FD0DC0F601BE
:100D100012820E94250D0E94F908C6010E941F0838
:100D20000E94250D0E940909CDB7DEB7E9E00C94B9
:100D3000372A2C2F2F70F22EC07FC03219F0F29478
:100D400080EFF822DD2351F0D13009F443C01123A4
:100D500009F44BC0002309F442C0B0CF8091F002E7
:100D600082FD15C0112359F0FF2029F08F2D0E941C
:100D7000390D0E94770D80E00E94EF04B9CF80E02A
:100D80000E948105FF2009F4B3CF8F2DA9CF112335
:100D900081F0011106C00E94590D8F290E94FC05A7
:100DA000A7CF0130C1F70E94590D8F290E94600D15
:100DB0009FCF011106C00E946D0D8F2D0E9403066A
:100DC00097CF013009F494CF8F2D0E9403060E9423
:100DD0006D0D8ECF112329F0063008F089CF8F2DAD
:100DE000DDCF053008F084CFE8CF002331F3D933CD
:100DF00049F43FEF87EE93E0315080409040E1F7B7
:100E000000C000008D2F0E94810572CF8C2F869527
:100E10008695837069F0813009F06ACF8D2F9C2F01
:100E20009370111102C080E090E00E94502160CFC9
:100E30008D2F9C2F9370111102C080E090E00E94D2
:100E40002B2156CF612F8D2F0E94E50451CF8C2F7F
:100E50008370A1F511114CCF4D2F429546954770E7
:100E6000440F440F2D2F2F7030E0042E02C0220FAC
:100E7000331F0A94E2F790E080E0D4FF09C08FE0CE
:100E800090E002C0880F991F4A95E2F780959095EF
:100E9000C695C695C370822B932BC23049F058F487
:100EA000C13019F00E94CC0823CF0E94C30820CF84
:100EB0000E94D5081DCF0E94C0081ACF8695112325
:100EC00011F08C2F8170882309F412CF4D2F429599
:100ED00046954770440F440F2D2F2F7030E0042E9D
:100EE00002C0220F331F0A94E2F790E080E0D4FFA3
:100EF00009C08FE090E002C0880F991F4A95E2F781
:100F000080959095C695C695C370822B932BC23061
:100F100049F058F4C13019F00E943409E9CE0E941A
:100F20002B09E6CE0E943D09E3CE0E94E108E0CE07
:100F3000CF70112329F08C2F0E94F9088D2F2ECF0E
:100F40008D2F0E9403068C2F0E940909D1CED23F1B
:100F500041F160F4D03FB9F0D13F81F0112309F4A1
:100F600046C00111ABCE8C2F8F711FC0D33F01F152
:100F7000D43FA1F78091F00282FD24C08C2F8F71A5
:100F8000112311F312C0112341F0053008F0B0CE47
:100F90008C2F8F710E941B09ABCE063008F0A8CEB3
:100FA000F7CF8C2F8F711111CFCF0E94F908A0CEEF
:100FB000112329F08C2F8F710E94ED0899CE0E9489
:100FC000E80896CE112349F0CF718C2F0E94F908C2
:100FD00063E08C2F0E94BC0D8BCE81E00E94DA0D65
:100FE000023008F485CE82E00E94DA0D81CE002323
:100FF00059F0D93309F006CFEFEFF7EE23E0E150D7
:10100000F0402040E1F7FCCE8C2F8F719DCF0F93E5
:101010001F93CF93DF93EC01688179818A810E94CD
:10102000FC098C010E9446090E94BF08B801CE014C
:101030000E940A06DF91CF911F910F910895CF93DF
:10104000DF93EC018B819C81892B29F08881998128
:1010500089238F3F51F4DF91CF910895CE010E94F3
:101060000708CE010E94D603F6CFCE010E94FB03F3
:101070008111F4CF0E942F0D882369F38A81882380
:1010800051F38091F00282FFE6CF82E00E94DA0DF8
:10109000E2CF882321F00E94490D0E94770D089528
:1010A000882321F00E944F0D0E94770D089590E053
:1010B00080E00E942B2190E080E00E9450210E945D
:1010C000560D0E94770D0E9483140E9467140895A4
:1010D0000E941E0D0E94570808950E94460D0E940E
:1010E0006808089592959F70963091F058F4925F39
:1010F0009F70923058F4803F19F030F4883E30F4FD
:1011000081E008959A5FF4CF843FD1F380E00895A1
:10111000883EB0F3813FD1F7F3CFFC018381948106
:10112000892B29F08081918189238F3F11F480E000
:101130000895808191810E94F1090E9472080895AA
:10114000A5E0B0E0E6EAF8E00C94222A2596E2E079
:101150000C943E2AA6E0B0E0E0EBF8E00C94222AE2
:101160002696E2E00C943E2A08950E94B408089561
:101170000E94B5089093FB018093FA0108950895A9
:101180000E94B80808952091FA013091FB01822B4A
:10119000932B0E94B80808952091FA013091FB0129
:1011A000822393230E94B80808952091FA01309178
:1011B000FB01822793270E94B80808950E94070325
:1011C00008950E94DE089093F9018093F801089534
:1011D00090E080E00E94E108089521E030E0A9015C
:1011E00002C0440F551F8A95E2F7CA010E94E10828
:1011F000089521E030E002C0220F331F8A95E2F704
:101200008091F8019091F901822B932B0E94E108C3
:10121000089521E030E002C0220F331F8A95E2F7E3
:10122000209530958091F8019091F90182239323C4
:101230000E94E108089521E030E002C0220F331F30
:101240008A95E2F78091F8019091F901822793271E
:101250000E94E10808952091F8013091F901822B54
:10126000932B0E94E10808952091F8013091F90133
:10127000822393230E94E10808952091F801309180
:10128000F901822793270E94E10808950895262FE7
:10129000277091E001C0990F2A95EAF723E076952F
:1012A00067952A95E1F7660F771F660F771FFA019A
:1012B000E60FF71F50E040E0682F70E08191DF01FA
:1012C00011979B01042E02C0369527950A94E2F7E8
:1012D000217021952827292328272C934F5F5F4FC2
:1012E0004430510559F70895A82FA77023E096952B
:1012F00087952A95E1F7880F991F880F991FFB01A1
:10130000E80FF91F50E040E080E0219130E00A2E24
:1013100002C0369527950A94E2F721703327042EF0
:1013200001C0220F0A94EAF7822B4F5F5F4F4430CF
:10133000510559F70895262F973070F4863060F4E0
:10134000682F70E086E0989F600D711D112440EEBB
:1013500051E0822F0E9447090895292F973068F4A1
:10136000863058F490E060EE71E036E0239F800D07
:10137000911D11240E947409089580E00895B0E041
:10138000A0E0E5ECF9E00C941B2A7C010091F80147
:101390001091F9018091FA019091FB01082B192B12
:1013A000CFE0D0E0CC24C394D12CBC2EC6010C2EAF
:1013B00002C0880F991F0A94E2F780239123892B9A
:1013C00049F4219790F7B12C8B2DCDB7DEB7E9E02A
:1013D0000C94372AB7018C2F0E94BF10019789F314
:1013E000F3CFCF93DF93EC010E94BF09BE010E94AF
:1013F000BF10DF91CF9108951F93CF93DF93EB013F
:101400009091DF01992339F0CB010E94F109DF911E
:10141000CF911F910895882369F0CB010E94BF09E5
:10142000182F682FCE010E949B09BE01812F0E94B8
:10143000BF10EDCFCB010E94AD09182FF6CFE1E030
:10144000F0E0DF0102C0AA0FBB1F6A95E2F7BD0101
:10145000DF0102C0AA0FBB1F4A95E2F7AD01462B80
:10146000572B02C0EE0FFF1F2A95E2F79A0128239F
:1014700039232417350719F48E2B9F2B0895E095F7
:10148000F0958E239F2308951F93CF93DF93C091F0
:10149000FC0116E08091FD018C1304C0DF91CF9117
:1014A0001F910895D0E01C9FF0011D9FF00D1124A5
:1014B000E250FE4F40815181628173818481958128
:1014C0000E94AA082196C770E5CF40912E02509144
:1014D0002F0260913002709131028091320290911E
:1014E00033020E94AA0808952091FC019091FD0109
:1014F00056E0291302C080E0089530E0529FF001C9
:10150000539FF00D1124E250FE4F7181761306C0F7
:101510007081781303C07281741304C02F5F3F4F32
:101520002770E7CF81E008951F93CF93DF938091D9
:101530003302807F09F04BC080913002882309F488
:1015400046C08091FC01C091FD0140912E02509156
:101550002F026091310270913202D42FD52316E010
:10156000C817A9F190E061157105A9F1DF3F99F164
:10157000189FF001199FF00D1124DF01A250BE4FFA
:1015800011962C911197251326C02C91241323C05A
:1015900012962C91129721111EC013962D913C91F9
:1015A000261B370B283C3105B0F4809133028F7035
:1015B000806180933302ED5FFD4F80818F70806189
:1015C00080838EE292E00E941F080E94440ADF910D
:1015D000CF911F91089501968770C2CFA1E1B0E02D
:1015E000E4EFFAE00C94182A8C0185E0F801DE01A2
:1015F0001D9601900D928A95E1F7F801F2808EE236
:10160000A82E82E0B82E409131025091320241154D
:10161000510509F45AC190912E0220912F02892F71
:1016200082238F3F09F451C1C080D1808380948090
:10163000E0903002B401641B750BEE2009F4F6C093
:1016400080913302382F307F683C710508F0AFC0BD
:1016500031117AC0EF2C2D1116C09C1114C0F1105D
:1016600012C08F708061809333020E94650AC501A9
:101670000E941F0880913302F80185838E2D6196A8
:10168000ECE00C94342A81149104C9F18C2D8D2145
:101690008F3FA9F181E08F2580FF05C04F2D6D2D73
:1016A0008C2D0E94740A8114910459F18C2D8D2186
:1016B0008F3F39F181E08F25F82FF170BF2E80FF29
:1016C00039C04F2D6D2D8C2D0E94740AA82E8111CA
:1016D00031C0CD86DE868D859E850E94F109292F39
:1016E00022952F70243078F49F702230A8F099232F
:1016F000B9F0F8019581907F99F4EA2CBFCF80E092
:10170000CBCF80E0D9CF2A5F2F70223068F0C8019C
:101710000E941F08AB2CF1CF992311F0882369F3A5
:10172000805E883050F3F3CF803F38F3815F8330A1
:1017300070F7E3CFFF2009F4A1CF809133028160DD
:1017400080933302E12C9ACF2D1105C09C1103C068
:10175000FF2009F486C0C8010E948D08882319F172
:10176000FF2009F180913302803270F020912E0227
:1017700030912F0238872F8319869B868A868C8723
:10178000CE0107960E941F0886E0F801AEE2B2E0A3
:1017900001900D928A95E1F70E94940A0E94650AD1
:1017A000EE24E3946BCFC8010E941F08F9CF3111DA
:1017B00014C0782D998A888AA6016F2D89890E9484
:1017C000A0088EE292E00E941F0886E0F5011192C7
:1017D0008A95E9F70E94650AB5CF2D110EC09C11BC
:1017E0000CC0F1100AC08583C8010E941F0886E062
:1017F000F50111928A95E9F741CFC8010E948D0841
:10180000882389F2FF2079F280913302803208F434
:10181000BBCF20912E0230912F023A8329831B8265
:101820009D828C828E83CE010196ACCF683C71057F
:1018300008F03DC0EF2CFF2009F4B5CF2D1129C0D1
:101840009C1127C08091330280FD1AC0982F907F91
:10185000B9F08583903F31F0982F907F905F8F7023
:10186000892B8583C8010E941F0886E0F801AEE23B
:10187000B2E001900D928A95E1F70E94650AFECED2
:1018800086E0F801AEE2B2E001900D928A95E1F7B0
:10189000F5CEC8010E948D08811176CF8091330268
:1018A000816080933302C8010E941F08E7CE782D23
:1018B000998A888AA6016F2D89890E94A00886E0EE
:1018C000F50111928A95E9F7D8CFFF2009F46BCF83
:1018D000C8010E948D08E82E882309F464CF86E0B1
:1018E000F801AEE2B2E001900D928A95E1F78EE246
:1018F00092E00E94DF040E94940ABFCFACE0B0E007
:10190000E4E8FCE00C94212A4F83588769877A87A2
:101910008B879C87CE0107960E94EE0A8823B1F040
:101920008A859B85892B39F04F815885842F8523A3
:101930008F3F09F06CC016E08091FC019091FD0191
:10194000891343C02C96E3E00C943D2A86E0FE0107
:101950003796DE01119601900D928A95E1F78A85FE
:101960009B85892B41F38F81988589238F3F19F3BC
:101970002091FD0130E0C9010196877099274091BF
:10198000FC014817190671F40E946D081092FD01C0
:101990001092FC0186E0EEE2F2E0DF011D928A95F2
:1019A000E9F7C9CF96E0929FD001939FB00D112423
:1019B000A250BE4FFE01319601900D929A95E1F72B
:1019C0008093FD010E94440AB6CF819FC00111247B
:1019D00082509E4F0E94EE0A882309F4B3CFE09113
:1019E000FC011E9FF0011124E250FE4F4081518105
:1019F00062817381848195810E94AA088091FC0193
:101A000090E00196877099278093FC0195CF6985B6
:101A10007A858B859C850E94AA088DCF682F80913E
:101A20000401909105010E94BD210895682F8091C5
:101A30000401909105010E94C02108958091040144
:101A4000909105010E94C321089580913C028595E3
:101A500085958595089580913C02877008959091B1
:101A60003C02977081E009F480E00895809147027C
:101A7000089590914702892B80934702089580959D
:101A8000909147029823909347020895109247023D
:101A9000089590914602892B80934602089580957F
:101AA0009091460298239093460208951092460220
:101AB000089580913D02089508950E945C0D089557
:101AC0009091F00292FF08C090913D02981721F08A
:101AD00080933D020E945D0D089580913D02882310
:101AE00029F010923D0280E00E945D0D0895CF9391
:101AF000DF93E0910401F09105018091470280831A
:101B0000E0910401F0910501808190914602892BBA
:101B1000808390913D02992381F0E0910401F0913E
:101B200005018081892B80838091040190910501BA
:101B30000E94752181110E946D0DC0910401D09108
:101B4000050148E050E064E372E0CE010E94B22A51
:101B5000892B59F088E0FE01A4E3B2E001900D92D8
:101B60008A95E1F7CE010E941221DF91CF9108956D
:101B700008950E94B80D08959091F00292FF11C04F
:101B800098E0899F90011124622B60933C020E948F
:101B9000F90880913C028595859585950E94B90D3F
:101BA00008950E94F908089510923C0280E00E9476
:101BB000B90D089590913C028095892380933C0251
:101BC000282F277091F4282F082E000C330B921722
:101BD000130659F09091F00292FF07C08595859504
:101BE00085950E9409090E94D40D08959091F002F4
:101BF00092FB222720F9281769F080FB92F9909335
:101C0000F0028091EF029091F0020E943E0E82E07D
:101C10000E94DA0D08958091F00282FB882780F9F6
:101C200091E089270E94F60D089581E00E94F60D4B
:101C3000089580E00E94F60D08956FEF7FEF90E029
:101C400080E00E94FA2A089590E080E00E94D62A5F
:101C500021E0873E9E4F09F020E0822F089582E028
:101C600090E00E94C82A089583E090E00E94C82A6C
:101C7000089584E090E00E94D62A0895BC0184E093
:101C800090E00E94FA2A0895AB01BC018FE090E039
:101C90000E94EE2A0895AB01BC0183E190E00E940E
:101CA000EE2A089560E070E0CB010E944B0E08958B
:101CB00060E070E0CB010E94440E0E94520E089535
:101CC00067EE7EEF90E080E00E94FA2A60E082E01A
:101CD00090E00E94DC2A60E083E090E00E94DC2A31
:101CE0001092FB011092FA0160E074E184E090E050
:101CF0000E94FA2A60E086E090E00E94DC2A6FEF02
:101D000087E090E00E94DC2A40E050E0BA0188E0E1
:101D100090E00E94EE2A60E08DE090E00E94DC2AD4
:101D200040E050E0BA0188E190E00E94EE2A60E0D5
:101D300087E190E00E94DC2A40E050E0BA018CE1AB
:101D400090E00E94EE2A70E060E080E290E00E9465
:101D5000FA2A40E050E0BA0188E190E00E94EE2AC1
:101D60000E94580E08950E94600E0895682F8EE01C
:101D700090E00E94DC2A0895A5E0B0E0E2ECFEE0ED
:101D80000C94202A0E9479228C0180914802909123
:101D9000490280179107A1F08FEF89838A831B8204
:101DA0000E9479228160782F9D838C8349815A819A
:101DB0006B818D810E94AA0410934902009348020E
:101DC0002596E4E00C943C2A0E94852260935502FB
:101DD0007093560280935702909358026093510279
:101DE0007093520280935302909354020895089581
:101DF00008950E94F80E089508950E94FC0E08951B
:101E000081E0089589EA91E10E94FB200E94F70E8B
:101E10000E94F90E08950E94000F08950E940B0F72
:101E20000895089508950E94110F0E94120F0895B9
:101E30000E94AC110E947E0408950E9470220E94AC
:101E400073120E94180F0E94AB1B0E94FD0E089592
:101E5000A5E0B0E0EEE2FFE00C941A2A0E94000F29
:101E600081110EC00E94BC0E0E943A1F0E94F11BFD
:101E70000E94A5140E9491042596EAE00C94362A4B
:101E80000E9489128AE4A82E82E0B82E750110E023
:101E9000F70101917F01812F0E94D2111F5F17303E
:101EA00009F440C00817A1F38091590281FD0E94F6
:101EB000D8110E940E0FC82E10E0812F0E94D2115F
:101EC000082FF50181915F01081731F1D02ED82636
:101ED000F12CEE24E3948D2D8E21B1F0CC20A1F0D5
:101EE000F9821A8391E0802F8E2109F490E09B8380
:101EF0000E9479228160782F9D838C8349815A8149
:101F00006B818D810E94AA04F394EE0CF6E0FF121F
:101F1000E2CFF501319700831F5F173071F60E9401
:101F2000E40EA2CF0813C0CF9DCF1F93CF93DF93B2
:101F30000E94C410EC01C11580E5D807F0F5C11569
:101F400080E4D80708F09CC0C03ED10520F5CD3C08
:101F5000D10508F082C0C83AD10578F4C53AD10558
:101F600008F073C0C130D10519F1209709F1C430D0
:101F7000D105F0F4D0E0C0E01BC0C33CD105D0F7E0
:101F8000C85AD0E0CC0FDD1FCA59DE4F0990D88166
:101F9000C02DD4640DC0C11580E2D80708F0D1C0AF
:101FA000C11581E0D80708F05AC0C83ED10510F726
:101FB000CE01DF91CF911F910895C03682E5D807F9
:101FC00018F5C03482E5D80708F06BC0C03282E54E
:101FD000D80708F05FC0C11582E5D80708F497C09C
:101FE0002C2F2695269580E2289F900111248C2F76
:101FF0008370C1E0D0E002C0CC0FDD1F8A95E2F70C
:10200000C22BD32BDD68D4CFC03A82E5D80760F469
:10201000C03882E5D80708F459C0CF71D0E0DC2F72
:10202000CC27C46FD06AC4CFC03C82E5D80708F47F
:1020300062C0C03E82E5D80708F09CCFDC2FCC27D9
:10204000CC27DF71C06FD06AB3CFC55AD0E0C45679
:10205000DE4FC881D0E0D064ABCFD065A9CF8D2F43
:102060000E946611182FCE0199270E94C410C12F1B
:10207000D0E0DC2FCC27CC27DF71C82BD92B98CF11
:10208000CE0199270E94C410CC27DF70C82BD92B12
:10209000D06A8ECFCF71D0E0DC2FCC27C16FD06A51
:1020A00087CF2C2F26952695277080E2289F9001B8
:1020B00011248C2F8370C1E0D0E002C0CC0FDD1F53
:1020C0008A95E2F7C22BD32BDC6872CF2C2F269592
:1020D0002695277080E2289F900111248C2F837011
:1020E000C1E0D0E002C0CC0FDD1F8A95E2F7C22B21
:1020F000D32BDA685DCF8C2F8F710E946611C82FA9
:10210000D0E0DC2FCC27CC27DF71D06251CF8C2FD1
:102110008F710E94661155E0D695C7955A95E1F7E3
:10212000CF70D0E0DC2FCC27282F30E084FF05C013
:1021300044E0220F331F4A95E1F7C22BD32BD0691D
:1021400037CF8D2F8F710E946611182FCE019927DE
:102150000E94C410C12FD0E0DC2FCC27CC27DF7128
:10216000C82BD92BD2CF462F773030F4663020F4ED
:10217000672F0E942903089590E080E008950E944F
:10218000B3100E94950F089582389105B9F1B0F40B
:102190008133910509F47DC048F48932910509F431
:1021A0006DC08A32910509F47BC00895853391058D
:1021B00009F45FC08933910509F10895833E9105C3
:1021C000D9F138F4803E910529F1823E910579F1EB
:1021D0000895863E9105D9F1873E910509F43EC0E8
:1021E000843E910541F52091F00221FF24C08091A9
:1021F000EF0284FD19C087EE90E008952091EF0270
:10220000237009F05AC02091F00223FF14C089E224
:1022100090E008952091EF0220FD38C03091F00247
:1022200030FF09C024FF43C090E080E00895209172
:10223000EF0222FDF7CF08952091EF0222FD3AC070
:102240003091F00230FD39C024FFF5CFEDCF209161
:10225000EF0223FFF0CF24FDE7CFCDCF2091EF0297
:1022600023FD2EC03091F00231FFEECF84EE90E0DE
:1022700008952091EF0225FFDECFC9CF2091EF0214
:1022800025FD21C02091F00223FFD5CF89E390E006
:10229000D2CF2091EF0226FFCECF8AE290E00895C0
:1022A0002091EF0226FFC7CF81E390E0089583EEEF
:1022B00090E0089582EE90E0089580EE90E0089519
:1022C00086EE90E0089585E390E008959091EF0206
:1022D00092FF06C0282F28712830F9F4877F846088
:1022E00093FF06C0282F28712831F1F4877E84617E
:1022F0002091F00220FF06C0382F38713830D9F411
:10230000877F816021FF06C0282F28712831D1F4F2
:10231000877E816194FD877E0895282F2471243063
:10232000F9F68B7F8860DCCF282F2471243101F7E8
:102330008B7E8861DDCF382F3171313019F78E7F78
:102340008860E0CF282F2171213121F78E7E8861AE
:10235000E1CF80E0089508950E94240E811102C00B
:102360000E94B30E0E942F0E809359020E94390ED4
:102370009093F0028093EF020E94AB110E94340E02
:1023800090E00E94C0088091F8019091F9010E94AC
:10239000DE08089508950E94CA11089508950E94C4
:1023A000CE110895E82FF0E0E850FD4F80810895A8
:1023B000089580EA8A95F1F7089500C008950E9473
:1023C000D9110895F894E82FE295EF70F0E031A16B
:1023D000282F2F7081E090E001C0880F2A95EAF73E
:1023E000982F9095932391A392A1892B82A37894FF
:1023F0000895CF93DF93C5EAD1E089918F3F11F023
:102400000E94E21181E0CC3AD807B9F7CFE9D1E0D8
:1024100089918F3F11F00E94E21181E0C53AD807FF
:10242000B9F7DF91CF910895B0E0A0E0EAE1F2E1E1
:102430000C941C2AEC01D62E062F10E0C8018B55F7
:102440009E4F7C01FC0180818F3F09F445C0F894C8
:10245000E82FE295EF70F0E091A18F7021E030E07D
:1024600001C0220F8A95EAF7892F822B81A382A1CE
:102470002095282322A378940E94DD11EFE9F1E052
:1024800045EA51E031E0C12C21912F3F51F1A22FBB
:10249000A295AF70B0E090968C9190E02F7002C042
:1024A000959587952A95E2F780FD1BC0832FC82A52
:1024B000330F4E175F0741F7F70180818F3F11F00F
:1024C0000E94E21161E0C11001C060E08D2D0E9408
:1024D000DF11C00FD11FC882CDB7DEB7E8E00C9482
:1024E000382A80E0E4CF0E94F91187E0E8EFF2E0BB
:1024F000DF01982F1D929A95E9F7E1EFF2E0DF01F5
:102500001D928A95E9F787E00E94C4120E94CB11C0
:102510000895A7E0B0E0EFE8F2E10C941F2A8E01E5
:102520000F5F1F4F87E0F80111928A95E9F7F12CB0
:102530006F2DC8010E941412F394F7E0FF12F8CF38
:1025400047E050E0B80181EF92E00E94B22A21E01A
:10255000009709F420E0892B41F087E0F801A1EF12
:10256000B2E001900D928A95E1F747E068EF72E0E2
:1025700081EF92E00E94C512182F0E94CF11812F87
:102580002796E5E00C943B2A0895CF92DF92EF92D4
:10259000FF920F931F93CF936C017B01042F222393
:1025A00049F081E080935C020E94792290935B0263
:1025B00080935A02C0915C02C1110AC0C0E08C2F06
:1025C000CF911F910F91FF90EF90DF90CF900895E2
:1025D00080915A0290915B020E949122059770F3BC
:1025E00010E0A801B601C7010E94B22A892B41F070
:1025F000A801B601C7010E94BF2A10925C02DFCF7A
:10260000C0E0FBCF0E944D240E941D0F0E945A245F
:1026100008950E945F240E94280F0E947924089543
:102620000E9412220E9433240E94020F0E94021371
:102630000E9409130E94130FFBCF8091630280FF59
:102640000DC060910B0170E0660F771F6038710557
:1026500070F56115710569F1862F089581FF07C036
:1026600060910B0184E0689FB0011124EFCF60916D
:102670000B0182FD0AC0809162028823A9F020919B
:102680000A0160910B01821710F088E0ECCF869F61
:10269000C001112433E0880F991F3A95E1F7622FAA
:1026A00070E00E94A529D2CF68E070E0D5CF8FE717
:1026B000089581E008958091630280FF0CC06091CD
:1026C000070170E0759567957595679561157105BA
:1026D00049F1862F089581FF06C06091070170E0DF
:1026E00075956795F3CF6091070182FD0BC09091BE
:1026F00061029923A1F0609106018091070196176C
:1027000038F0682F70E06038710500F38FE70895A6
:10271000899FC001112470E00E94A529F4CF61E0D7
:1027200070E0D7CF81E008958D3C31F40E941D13F5
:1027300081958093670208958E3C19F40E941D13C1
:10274000F8CF8F3C31F40E941D138195809366026F
:102750000895803D19F40E941D13F8CF893D29F496
:102760000E945B138093680208958A3D21F40E94C1
:102770005B138195F7CF8B3D31F40E945B138195FC
:102780008093690208958C3D19F40E945B13F8CF81
:102790009FE2980F983070F4815D990B21E030E052
:1027A00001C0220F8A95EAF780916502822B8093FF
:1027B000650208958D3D31F48091630281608093BC
:1027C000630208958E3D21F4809163028260F7CF09
:1027D0008F3DB9F7809163028460F1CF409166022A
:1027E0008D3C59F48091670287FF0DC010926702FB
:1027F00041110BC01092620208C08E3C81F480919E
:10280000670218169CF3442381F08091680290912E
:102810006902892B09F05AC01092610208958F3C19
:1028200049F447FFF0CF1092660280916702811150
:10283000ECCFE0CF803D19F41416ACF3E4CF9091C7
:102840006802893D29F41916F4F610926802DBCF6C
:102850008A3D19F497FFD7CFF8CF909169028B3D4D
:1028600029F497FFD0CF10926902CDCF8C3D19F497
:102870001916CCF3C8CF9FE2980F983090F4815D81
:10288000990B21E030E0B90102C0660F771F8A95ED
:10289000E2F7CB01809590916502892380936502D0
:1028A000B2CF8D3D31F4809163028E7F80936302BD
:1028B000AACF8E3D21F4809163028D7FF7CF8F3DAB
:1028C00009F0A1CF809163028B7FF0CF08950E9421
:1028D00079229C019091660280916702982B21F0E9
:1028E0003093600220935F029091680280916902A8
:1028F000982B21F030935E0220935D0284E692E0F3
:102900000E941D21089586E0E4E6F2E0DF011D92B9
:102910008A95E9F7109262021092610210926302A6
:102920000895FC01828181110EC0838181110BC049
:102930008481811108C091E08581811101C090E0FE
:10294000892F8170089581E0FCCFA6E0B0E0EBEA2A
:10295000F4E10C94212A86E0E4E6F2E0DE0111962F
:1029600001900D928A95E1F710926602109267022B
:1029700010926802109269028B819C81892B89F0E8
:1029800080915F02909160020E949122AC0190912F
:1029900062029923C9F180910C018417150608F48D
:1029A00040C08D819E81892B91F080915D02909134
:1029B0005E020E949122AC0190916102992309F478
:1029C00071C0809108018417150608F479C0BE0112
:1029D0006F5F7F4F84E692E00E94CA21811105C09B
:1029E00084E692E00E94911481110E94671486E0AF
:1029F000FE013196A4E6B2E001900D928A95E1F7CE
:102A00002696E3E00C943D2A20910D018AE0289F50
:102A1000900111242417350720F69F5F90936202DE
:102A200002C09F3FD1F71B81112359F00E941D1353
:102A30009FEF11160CF491E0899F802D1124809353
:102A400066021C81112359F00E941D139FEF11167D
:102A50000CF491E0899F802D1124809367023091BE
:102A60006602332309F49DCF20916702222309F4E3
:102A700098CF45EB3403C0011124992359F090936A
:102A8000660245EB240390011124332339F030937F
:102A9000670287CF81E080936602F3CF81E0809365
:102AA00067027FCF209109018AE0289F90011124BD
:102AB0002417350708F08BCF9F5F9093610202C007
:102AC0009F3FD1F71D81112359F00E945B139FEFA7
:102AD00011160CF491E0899F802D112480936802D7
:102AE0001E81112359F00E945B139FEF11160CF405
:102AF00091E0899F802D11248093690230916802B2
:102B0000332309F464CF20916902222309F45FCFB3
:102B100045EB3403C0011124992359F090936802C6
:102B200045EB240390011124332339F030936902DB
:102B30004ECF81E080936802F3CF81E080936902F9
:102B400046CFEF92FF920F931F93CF93DF93EB014A
:102B5000E82FD1110EC0442321F0F0E0E659FC4FDC
:102B6000E4916E2F7E2F8E2FCDB7DEB7E6E00C946A
:102B70003A2A0D2F10E0282F30E0442329F026595F
:102B80003C4FF901249130E0F6E0CF9FC0011124C1
:102B9000EFEFF0E0BF010E949129AB018C2F90E094
:102BA000880F991FA5E5A49FB001A59F700D112462
:102BB000861B970B982F990F980FBF01601B710B05
:102BC000629FD001639FB00D729FB00D11248B2FB7
:102BD0009D9FB0011124672F7727EF01C61BD70BEC
:102BE000BE01629FE001639FD00D729FD00D112442
:102BF0007F01E91AF108E09EB001E19E700DF09EA0
:102C0000700D1124672F7727E61BF70BE29F8001D9
:102C1000E39F100DF29F100D1124E12F722F42300F
:102C2000510599F048F44115510569F041305105BD
:102C300081F0EB2F8D2F07C04430510569F080F0F3
:102C400046305105B1F76E2F8FCFE22F7B2F812FAA
:102C5000FACFE22F7D2FF7CFEB2F822F712FF3CFFB
:102C60007B2F822FED2FEFCF41E00E94A115089519
:102C700008950E9434160895CF93DF93762FE901CB
:102C8000682F842F0E943916798368838A83DF91A5
:102C9000CF9108958091FF02982F9E7F29F4817033
:102CA00082608093FF0208958635E8F38170846521
:102CB000F8CF88E090E00E94D02A0895CF92DF926A
:102CC000EF92FF926B017C010E944A16B701A601A8
:102CD00088E090E00E94EE2AFF90EF90DF90CF9086
:102CE0000895EFEFF2E083E0808311828FEF82831B
:102CF0008383148260817181828193810E945E1638
:102D000008958091FF0280FF02C08695089580E0BB
:102D1000089590910303933018F49F5F90930303F9
:102D2000882351F06091FF027091000380910103AC
:102D3000909102030E945E16089581E00E94891618
:102D4000089590910303992319F0915090930303F0
:102D5000882351F06091FF0270910003809101037C
:102D6000909102030E945E16089581E00E94A116D0
:102D7000089570E00E941C1D0895609112018091D9
:102D8000FF0280FF0BC08091110123E0829FC001F0
:102D900011248C5F9C4F0E94B916089580911301F5
:102DA0009091140123E0829FF0011124EC5FFC4F0D
:102DB000891748F71182108212828F5F3396F8CFFD
:102DC0009091FF0290FF0EC0909113012091140189
:102DD00033E0939FF0011124EC5FFC4F921718F041
:102DE0000E94BD1608958183608342839F5F33965E
:102DF000F5CFA3E0B0E0EFEFF6E10C94222A90913A
:102E0000FF0290FF0AC09E012F5F3F4F0E943C16B9
:102E10004B8169818A810E94E0162396E2E00C943E
:102E20003E2ACF93DF93EC01EC81F0E0EB59FD4FAC
:102E30004491EFEFF2E0628181810E94F9168C816A
:102E40008F5F8C83DF91CF910895CF93DF93EC0157
:102E5000EFEFF2E0438162818C810E94F9168C8150
:102E60008F5F8C83DF91CF910895A3E0B0E0EBE317
:102E7000F7E10C94202A8C0180916A0281110AC02A
:102E80009E012F5F3F4F4FEF6FEF0E943C168A81EC
:102E900080936A02F8016481613069F080916A026E
:102EA00040E0662361F040E0623011F440916A0234
:102EB00080E060E004C060916A0240E080E00E942F
:102EC000E016F801848190E0019663E070E00E94D2
:102ED000A52984832396E4E00C943C2AA3E0B0E087
:102EE000E4E7F7E10C941B2A082FD62EE42EC22E1D
:102EF0009091FF0290FF29C0E92FE695AE2FB0E038
:102F0000A455BE4F8C918093AD029E7F923009F5FF
:102F10009E012F5F3F4F802F0E943C164B8169819D
:102F20008A810E94E01600930003D0920103E09290
:102F30000203CC2051F06091FF0270910003809158
:102F40000103909102030E945E162396E9E00C941F
:102F5000372A823019F4E0900203E5CF863019F465
:102F600000910003E0CF8930D9F38931E1F6E951CE
:102F70006E2F6170B62EE695F0E0EB59FC4F149180
:102F8000F12C60911501F61618F00E94BD16CBCFFA
:102F9000F19EC001112470E00E949129802FB11090
:102FA00014C0860F20911301622F6F0D7727771FB2
:102FB0009B01220F331F260F371F2C5F3C4F4E2DD6
:102FC0006D2D0E943C16F394DCCF861BEBCFEFEF08
:102FD000F2E09181282F4381628180E1890F0E9474
:102FE0006E17089581E00E94E7170895EFEFF2E071
:102FF0009181282F4381628180EF890F0E946E1793
:10300000089581E00E94F6170895EFEFF2E06281E3
:1030100020E1620F08F46FEF282F438181810E9425
:103020006E17089581E00E9405180895EFEFF2E011
:10303000628120E1621B08F460E0282F43818181D6
:103040000E946E17089581E00E9416180895EFEF10
:10305000F2E0438120E1420F08F44FEF282F628114
:1030600081810E946E17089581E00E9427180895BB
:10307000EFEFF2E0438120E1421B08F440E0282F0B
:10308000628181810E946E17089581E00E94381844
:10309000089520E00E946E170895EF92FF921F930B
:1030A000CF93DF93EC0110E0EE24EA94F12C6091D1
:1030B0001501161770F00E94BD169A818C8190FF41
:1030C00027C08F5F8C83DF91CF911F91FF90EF908E
:1030D000089520911301422F410F5527551FCA0112
:1030E0009A01220F331F280F391F2C5F3C4F70E0CD
:1030F000C7010E94A529962F8C81409102036091FF
:103100000103199F800D11240E943C161F5FCFCF31
:103110008150D8CFB0E0A0E0E0E9F8E10C941A2AA1
:10312000FC0182810FEF80FF01E010E04BE0A42E54
:1031300080911501181798F00E94BD1680916C02BD
:10314000013009F04FC0811102C0809115018150FA
:1031500080936C02CDB7DEB7EAE00C94362AC091BA
:103160001301C12ED12CCC0DDD2DD11DCE01880F28
:10317000991FC80FD91FCC5FDC4F198218821A82A1
:1031800034E0E32EF12CB12C80916C028B0D8C304D
:103190001CF16A2D0E948329892F082E000C990B9F
:1031A000C816D90691F4809102038E9DA0018F9DCF
:1031B000500D112455954795559547959E01609161
:1031C0000103809100030E943C16B00EF1E0EF1A5B
:1031D000F108D1F61F5FACCF87FFDFCF90911501CB
:1031E000890FDBCF90E001966091150170E00E949D
:1031F000A529AECF0F931F93CF93DF938091130137
:103200009091140123E0829FF0011124EC5FFC4FA8
:10321000891740F1C0E0D3E060911501C61740F175
:103220000E94BD1620910F0180916B02820F809346
:103230006B0290911001920F90931001191654F4A3
:10324000082E000C990B409115014150550B841725
:1032500095071CF0219520930F01DF91CF911F91CD
:103260000F9108951182108212828F5F3396D0CF12
:103270000C2F10E070E0C8010E94A52920911301D5
:10328000820F482F50E020916B02022E000C330B6E
:1032900002171307BCF020911001022E000C330B13
:1032A000201731077CF08D9F900111242C5F3C4F3B
:1032B0004091020360910103809100030E943C163B
:1032C000CF5FAACFFA01EE0FFF1FE40FF51FEC5FEF
:1032D000FC4F118210821282F3CFB0E0A0E0E3E74E
:1032E000F9E10C94182AEC014C81042F10E09801AC
:1032F000D8010E94E9299B01AC010E94FF294B01E2
:103300005C01E0E2F0E0E01BF10BA5E5B0E0AC0110
:103310009B010E94FF296B017C019F01DF010E943C
:10332000E1299B01AC010E940A2A9B01AC01280DF6
:10333000391D4A1D5B1DC701B6010E94B929F22E35
:10334000822F90E039E23F1520F143E0249F900165
:10335000112435952795122F109500E085E5E82E6C
:10336000EF1880911501081718F10E94BD169C8175
:1033700081E0992319F0903219F48FEF80930E01B8
:1033800080910E01890F8C83CDB7DEB7ECE00C94F1
:10339000342A25E530E0B901681B790B9B01220F27
:1033A000331F260F371F37FFD4CF2F5F3F4FD1CFAB
:1033B0008E2D01FD8F2D20911301622F600F772735
:1033C000771F9B01220F331F260F371F2C5F3C4FA7
:1033D000412F609101030E943C160F5FC2CF0F93F3
:1033E0001F93CF93DF93EC0110E000E09091150163
:1033F0009017110609F06CF40E94BD168C8190E0C4
:103400000196817099278C83DF91CF911F910F9145
:10341000089520911301A801420F511D9A01220F16
:10342000331F240F351F2C5F3C4F4C8160910103EB
:103430008091000396959017110651F04CF04423AB
:1034400049F0409102030E943C160F5F1F4FCECF00
:103450004423B9F340E0F7CFB0E0A0E0E2E3FAE1C3
:103460000C94142AFC016280448081E08483E5E6A8
:10347000F2E07490E4EEF2E0E491C0910203C695AC
:10348000C158D0E0CC0FDD1FCD2FDD27812C75E09A
:10349000972EAA24AA94B12C55245A94E719EE2EFB
:1034A000F12C80911501881638F00E94BD16CDB719
:1034B000DEB7E0E10C94302AC82CD12C82E08615CE
:1034C00068F09C9CF0019D9CF00D1124E359FD4F88
:1034D000809100038083809101038183411023C088
:1034E0009C9CF0019D9CF00D1124E359FD4F13822B
:1034F000128220911301C601820F911D9C01220F9F
:10350000331F280F391F2C5F3C4F9C9CF0019D9C62
:10351000F00D1124E359FD4F4281618180810E94A9
:103520003C168394BECF9C9C80019D9C100D112461
:1035300003591D4FF80183818823F1F08150838363
:10354000859DC0011124648170E00E949129FB01D6
:10355000FF27EB59FD4F8491E82FE719E59DC00146
:103560001124B7010E94912980910203689FB00144
:103570001124F8017283BDCF0E94952AB5010E94E3
:10358000A5298C179D070CF0B4CFF2E0F61598F43E
:103590000E94952AB5010E94A529F80180830E9406
:1035A000952A209101032695622F70E00E94A5299B
:1035B000280FF80121839C9CF0019D9CF00D1124A3
:1035C000E359FD4F128280910203893C58F088EC48
:1035D0009C9CF0019D9CF00D1124E359FD4F8483C8
:1035E000838387CF8431A0F784E1F2CFEFEFF2E05D
:1035F00080818E7F808360817181828193810E942E
:103600005E161092AE020E94BD160895EFEFF2E032
:1036100080818E7F80831092AE020E94BD16089535
:103620001092AE028091AB0281110AC081E08093BA
:10363000AB028091FF0281708093AA020E94061B58
:1036400008956091FF02669570E04BE050E086E1DE
:1036500091E00E94A52A892B19F481E08093AE02A3
:103660000E9479229093A5028093A40208959091DC
:10367000FF0290FF2BC09170811129C0926090933E
:10368000FF02662351F06091FF0270910003809168
:103690000103909102030E945E166091FF026695FD
:1036A00070E04BE050E086E191E00E94A52A892B72
:1036B000A9F01092AE0281E08093A702409102032C
:1036C00060910103809100030E94491808958B3294
:1036D00010F09465D4CF880F982BD1CF0E94211B76
:1036E000EACF682F9091FF02969581E0890F8B3287
:1036F00008F081E00E94371B089581E00E94711B51
:103700000895682F9091FF0296958FEF890F09F425
:103710008AE20E94371B089581E00E94811B089570
:1037200061E00E94371B0895EFEFF2E08081816035
:10373000808386950E94901B08958091FF0280FFF0
:1037400003C00E94F61A08950E94941B089560E039
:103750000E94371B08958091AC0281112EC00E94F7
:10376000240E811104C00E94B30E0E9471160E94A3
:1037700059166093FF0270930003809301039093A6
:1037800002036E7F61F40E9471160E9459166093C5
:10379000FF027093000380930103909302030E9441
:1037A0004A161092AE028091FF0280FF03C08695F8
:1037B0000E94A71B81E08093AC020895EFEFF2E036
:1037C00080818160808386950E94A71B0895109256
:1037D000AB028091AA0281110E94DE1B0E94211B74
:1037E00008950F931F93CF93DF938091AE028823A8
:1037F000B9F18091AD02E091FF02E695E81BE093FC
:10380000A602823091F5F0E0EF59FD4FE491CE2F02
:10381000D0E001E117E18091A702882361F01092C6
:10382000A7020E9479229093A5028093A40210928D
:10383000A9021092A8020E947922E091A402F091BC
:10384000A5028E1B9F0B8F3F9F4750F4EC0FFD1F6F
:10385000F093A502E093A40284EA92E0F8010995AE
:10386000DF91CF911F910F910895863049F4F0E0D8
:10387000E25AFD4FE491CE2FD0E005E217E1CBCF25
:10388000893051F4E695F0E0E55AFD4FE491CE2FF2
:10389000D0E00DE418E1BFCF8F3051F4E695F0E0B1
:1038A000E85AFD4FE491CE2FD0E00AE818E1B3CFFB
:1038B000853149F4F0E0EB5AFD4FE491CE2FD0E092
:1038C0000AEF18E1A8CFC8E2D0E00DE619E188318F
:1038D00009F4A1CF833239F4E3E5F2E0C591D49144
:1038E00005E317E198CFC4EFD1E00FEE19E1843280
:1038F00009F491CFC0EDD7E008E316E1853209F075
:103900008ACF8E2F63E00E947729E92FF0E0E05BF9
:10391000FD4FE491CE2FD0E00CE21AE17CCFFA010A
:10392000811101C0FB0109950895CF93DF93C82F42
:10393000D62F0E9481168C1748F00E9481168D1791
:1039400028F40E947D1BDF91CF9108958C2F0E9457
:10395000901BF9CF1F93CF93DF93EC01FB011281F2
:10396000111110C00E94360D8272FE01E052F8471C
:10397000E531F10508F05EC0E35CF44D0C94DB2901
:103980000E949D1B812FDF91CF911F9108954CE8DC
:103990005BE16DE77BE10E948F1CF4CF4DE75BE1BB
:1039A0006CE87BE1F8CF41E058E162EF77E1F3CFDB
:1039B00042EF57E161E078E1EECF43E258E162E1A6
:1039C00078E1E9CF42E158E163E278E1E4CF45E410
:1039D00058E164E378E1DFCF44E358E165E478E15E
:1039E000DACF45EB56E16DE976E1D5CF4DE956E109
:1039F00065EB76E1D0CF81E00E94901BC3CF65E0FC
:103A000082E00E94951CBECF68E086E0FACF6EE0AF
:103A100089E0F7CF64E18FE0F4CF67E185E1F1CF92
:103A200088E1EACF62E289E1ECCF83E2E5CF6AE2A6
:103A300085E2E7CF11E0A6CF539A4BB1477F5BB148
:103A40005860EFB7F8949B01220F331F260F371FE2
:103A5000280F391F2817390741F4EFBF8FE594E08D
:103A60000197F1F700C000000895DC016D91CD01D0
:103A700078E05BB9000000C067FF4BB9660F00003B
:103A800000C000C000C04BB900C07A9591F7E2CFEA
:103A9000CF93DF93EC01FB018281882309F4D2C02C
:103AA0009E0130572332310508F0B2C00E94390E12
:103AB0009093F0028093EF02FE01E150F047E23272
:103AC000F10520F4EE5AF44D0C94DB298091EF02BD
:103AD00081608093EF0293C08091F00288608093B0
:103AE000F0028DC08091EF028260F3CF8091EF02EF
:103AF0008460EFCF8091EF028860EBCF8091F0027D
:103B00008160EDCF8091F0028260E9CF8091EF0279
:103B10008061DFCF8091EF028062DBCF8091EF0286
:103B20008064D7CF0E946D088091EF028068D1CF6A
:103B30008091EF028C60CDCF8091F0028360CFCF77
:103B40008091EF028E7FC5CF8091F002877FC7CF33
:103B50008091EF028D7FBDCF8091EF028B7FB9CF37
:103B60008091EF02877FB5CF8091F0028E7FB7CF33
:103B70008091F0028D7FB3CF8091EF028F7EA9CF2D
:103B80008091EF028F7DA5CF8091EF028F7BA1CF37
:103B90000E946D088091EF028F779BCF8091EF029A
:103BA000837F97CF8091F0028C7F99CF8091EF0235
:103BB00082FB992790F921E0922790FB82F990FBF4
:103BC00083F987CF8091F002982F909591708E7F26
:103BD000892B90FB81F983CF9091EF02892F8F7B06
:103BE00096FF806476CF0E946D089091EF02892F36
:103BF00097FB87F980586DCF81E00E94B60E8091C7
:103C0000EF029091F0020E943E0E0E946D0880E04B
:103C1000DF91CF91089580E0F0CF9091EF02892F4E
:103C20008F7E94FF806155CF9091EF02892F8E7F18
:103C300090FF81604ECF9091F002892F877F93FF94
:103C400088604DCF81E0E4CF80912101877F809310
:103C5000210182E00E944F0D8091210184FF06C066
:103C60008F7E8093210182E00E94390D8091210195
:103C700085FF06C08F7D8093210180E20E94390D6F
:103C80000E94770D089580E008958B32910539F0F8
:103C900040F49C012E5131092A30310558F481E05D
:103CA00008958D32910530F089339105C0F3843643
:103CB0009105A9F30E94431E0895CF93DF93EC0171
:103CC000662319F082E00E94490DCE0190528115C1
:103CD000904308F4DD27CE010E946703DF91CF9166
:103CE00008959C0130522115304308F499270E9411
:103CF0007D030895FC0123E0F695E7952A95E1F709
:103D0000EE71FF27E155FD4F20813181AC014F70ED
:103D1000552781E090E002C0880F991F4A95E2F78D
:103D2000662329F0822B932B9183808308958095BD
:103D3000909582239323F8CFFC0123E0F695E79535
:103D40002A95E1F7EE71FF27E155FD4F8F70992716
:103D500021E030E002C0220F331F8A95E2F7808114
:103D600091812823392381E0232B09F480E00895F1
:103D7000EF92FF920F931F93CF93DF93EC017B01A0
:103D80008A018091210182FF5DC02091D50230918E
:103D9000D6022C173D0719F0209709F053C09091D7
:103DA00021019B7F9093210161E091FD10C08091E2
:103DB000D7029091D802A701481B590B61E080916E
:103DC0002201909123014817590708F460E06170BF
:103DD0008091210160FB81F980932101C9010E943A
:103DE0007A1E0E94360D81FF08C0809121018061FA
:103DF0008093210182E00E943F0D0E94360D85FFD5
:103E000008C08091210180628093210180E20E949C
:103E10003F0D6091210166956170A8018091D502E6
:103E20009091D6020E945D1E60912101669561709D
:103E3000A8018091D5029091D6020E94711E0E9425
:103E4000241E0FC0CE010E949C1EA801682FCE0127
:103E50000E94711E8091D5029091D602C817D90791
:103E600071F3F092D802E092D702CDB7DEB7E6E068
:103E70000C943A2A8091210182FF19C00E94792274
:103E80002091D7023091D802AC01421B530B2091F4
:103E90002201309123014217530748F04FEC52E0C2
:103EA000BC018091D5029091D6020E94B81E08955F
:103EB00090912101892F8E7F90FF81608093210155
:103EC0000E94241E0895809121018E7F80932101FC
:103ED0000E94241E0895CF92DF92EF92FF921F93CB
:103EE000CF93DF93EC017B010E9479226C01F701F3
:103EF00082818823A9F18091210182FF07C04FECC4
:103F000052E0B60190E080E00E94B81EC431FCE7A8
:103F1000DF0719F1C5312CE7D20751F0C3318CE727
:103F2000D80741F48091210181608093210102C072
:103F30000E94581FCE01905281159043F8F41092C0
:103F4000D6021092D50211E0812FDF91CF911F91FF
:103F5000FF90EF90DF90CF9008950E94631FEACF0B
:103F6000809121018F7EC13ED10531F0C53ED10542
:103F7000A1F5809121018F7D809321018091210104
:103F800080FFE1CFB701CE010E94451EF7011281EB
:103F9000882309F45BC0112309F452C00E94360D36
:103FA000182F0E94590D812B8D7FE9F01092D602B7
:103FB0001092D50260E0CE010E947A1EA70160E057
:103FC000CE010E945D1E0E94590D8D7F0E94600DE2
:103FD00082E00E94DA0D10E0B7CFCE019052811539
:103FE000904360F6B0CF86E0F701AFECB2E001900D
:103FF0000D928A95E1F71092D1021092D30210929D
:10400000D2020E94360D182F0E94590D812B9091DB
:10401000210181FB91F9909321010E94590D8D7F1F
:104020000E94600DD093D602C093D502D092D802E0
:10403000C092D70280912101846080932101C8CF72
:10404000A701B601CE010E94B81E7ECF111177CF15
:104050007ACFCF93DF93EB0186319C4711F50E9415
:10406000360D9A81992399F08A7A91E009F490E0CB
:104070009093D902811109C089E20E940E0D0E941D
:10408000770D80E0DF91CF91089585E3F6CF8091A1
:10409000D902811104C089E20E94160DF0CF85E398
:1040A000FBCF81E0EFCF0F931F93CF93DF93C42F0C
:1040B000D22FFC0182818823C9F04093DC020E9448
:1040C00079229093DB028093DA0280E28C0F8830B1
:1040D00040F4C77081E001C0880FCA95EAF70E94DA
:1040E000FC05DF91CF911F910F9108951091DC0293
:1040F000141332C08091DA029091DB020E94912267
:10410000883C910548F5C0E2CD0F1D17B9F080E25B
:10411000810F883040F4177081E001C0880F1A9534
:10412000EAF70E940306C83048F481E09D2F97709B
:1041300001C0880F9A95EAF70E94FC05802F0E9423
:10414000F305C83070F6D77081E001C0880FDA95AA
:10415000EAF70E940306C5CF80E28C0F883008F68C
:10416000C77081E001C0880FCA95EAF7F2CF0F93BC
:10417000DB0188519C4787309105A0F5FC01EC5884
:10418000F44D0C94DB2906E221EE41EE6AE17CE776
:10419000CD010E94532080E00F91089507E225EEA3
:1041A00045EE6BE17CE7F4CF06E221EE40EE68E1FC
:1041B0007CE7EECF07E225EE44EE69E17CE7E8CF4D
:1041C00006E221EE42EE6CE17CE7E2CF07E225EE6B
:1041D00046EE6DE17CE7DCCF08E221E045EE6EE1E2
:1041E0007CE7D6CF12968C91882319F01092DC02CE
:1041F000D3CF81E0D1CF9093D9018093D801089596
:104200009093E2028093E1020895E091E102F0913F
:10421000E202309729F00190F081E02D0995089590
:1042200080E00895E091E102F091E202309721F000
:104230000280F381E02D09950895E091E102F0916B
:10424000E202309739F022E0DC012C930480F58102
:10425000E02D09950895A3E0B0E0E1E3F1E20C94CC
:10426000222A2091DF023091E00228173907A1F0BD
:104270009093E0028093DF02E091E102F091E2028C
:10428000309751F023E029839B838A830680F7814E
:10429000E02DCE01019609952396E2E00C943E2A8A
:1042A000A3E0B0E0E6E5F1E20C94222A2091DD02E1
:1042B0003091DE0228173907A1F09093DE02809337
:1042C000DD02E091E102F091E202309751F024E04A
:1042D00029839B838A830680F781E02DCE01019696
:1042E00009952396E2E00C943E2A9C012E5F3F4FF5
:1042F000AC01485F5F4F80E02417350709F408954B
:10430000F90191919F019923B9F38F5FF5CF66234E
:1043100049F0FC01329608962191261729F0E817FA
:10432000F907D1F780E0089581E008959C01FC0130
:1043300032969FEF80E04191461751F09F3F19F46C
:10434000411101C0982F8F5F8630A9F79F3F09F474
:104350000895290F311D97FD3A95F901628308955B
:10436000FC01329608962191261303C0DF011197B4
:104370001C92E817F907B9F708950E94962108954D
:104380000E94B0210895029626E0FC0111922A9520
:10439000E9F7089546E050E00E94B22A21E0892B17
:1043A00009F420E0822F089508950E94D4210895F1
:1043B000811106C081E08093E3020E94D521089517
:1043C00082E0F9CF83E08093E3020E94D521089533
:1043D0000E94D821089581E08093E3020E94D521B4
:1043E00008950E94EB210895089508950E94F521F3
:1043F0000895089508950E94F4210895CF930E948E
:10440000F9210E9489120E94FA21C0E08C2F0E949B
:10441000D211811105C0CF5FC730C1F7CF91089588
:1044200081E0FCCF85B7806885BF85B7806885BF90
:1044300008951F921FB61F9211248F939F93AF93DD
:10444000BF938091E402811113C080912503909164
:104450002603A0912703B09128034196A11DB11D09
:104460008093250390932603A0932703B0932803FA
:10447000BF91AF919F918F911F901FBE1F90189574
:1044800080912D03843031F10E945D041092E4028A
:1044900088E190E020E40FB6F894A895809360003E
:1044A0000FBE2093600083B7817F846083BF83B792
:1044B000816083BF7894889583B78E7F83BF0FB662
:1044C000F894A895809160008861809360001092B4
:1044D00060000FBE08950E946D080E946404089554
:1044E00082E084BD93E095BD9AEF97BD80936E0006
:1044F00008952FB7F8948091250390912603A091F9
:104500002703B09128032FBF08952FB7F894609127
:1045100025037091260380912703909128032FBFD4
:1045200008959C014FB7F89480912503909126033C
:10453000A0912703B09128034FBF821B930B0895CE
:1045400078941F921FB61F9211248F939F93AF935D
:10455000BF938091250390912603A0912703B091EA
:1045600028030196A11DB11D809325039093260376
:10457000A0932703B0932803BF91AF919F918F9190
:104580001F901FBE1F90189581E08093E00080E28D
:104590008093D8001092C9008FE19EE40197F1F753
:1045A00000C0000087E090EBDC018093360390931D
:1045B0003703A0933803B093390388E19CE00FB62A
:1045C000F894A895809360000FBE90936000FFCF91
:1045D00088E19CE00FB6F894A895809360000FBE28
:1045E00090936000FFCF8091ED0208959B01BA0186
:1045F00090912D039430E9F48F708093E9009FEF40
:104600008091E800915085FD06C085ED8A95F1F70F
:1046100000009111F5CF8091E80085FF0AC050E0BD
:1046200040E0C9010E94F0248091E8008E778093D9
:10463000E800089543E050E0BC0182E00E94F622C9
:10464000089546E050E0BC0182E00E94F622089501
:10465000CF93DF93EC0148E050E0BC0181E00E9481
:10466000F62288E0FE01A5EEB2E001900D928A9557
:10467000E1F7DF91CF91089580912C03811109C05A
:104680000E9480260E94DD268091E2008460809353
:10469000E200089510922C0308950E94EB210895E2
:1046A0006091290381E0611101C080E00E94E22154
:1046B000089590912D0381E0943009F080E060919D
:1046C00029030E94E821089542E061EC81E00E9404
:1046D000FC2542E261EC82E00E94FC2590912D03D2
:1046E00081E0943009F080E0609129030E94D82194
:1046F000089580912F03833009F461C030F4813034
:10470000D1F1823009F49EC008958A3009F48AC03C
:104710008B3009F46FC0893009F050C080912E03AE
:10472000813209F04BC0809132039091330302979C
:1047300008F044C08091E800877F8093E800809172
:10474000E80082FF37C09091F3008091F200029759
:1047500031F48091F100813011F0863021F48091A4
:10476000F1008093ED028091E8008B778093E80060
:104770000E94302623C080912E03813AF9F4809163
:10478000E800877F8093E8008091320390913303A3
:10479000892B61F468E085EE92E070E00E943F258D
:1047A0008091E8008B778093E800089560E090E0C6
:1047B00080E0F3CF80912D038111C1CF08958091C6
:1047C0002E03813AD9F78091320390913303892BDC
:1047D000A9F78091E800877F8093E8008091E80046
:1047E00080FFFCCF80912C018093F1008091E80044
:1047F0008E77BCCF80912E03813201F780913203F6
:1048000090913303892BD1F68091E800877F8093C4
:10481000E8000E9430268091300380932C010E9492
:104820006D08089580912E03813241F68091E80051
:10483000877F8093E8000E94302680913103809327
:10484000EE02089580912E03813A09F0B7CF80914E
:10485000E800877F8093E8008091E80080FFFCCF2C
:104860008091EE02C1CF84B7877F84BF0FB6F894E2
:10487000A89580916000886180936000109260002C
:104880000FBE80E890E00FB6F8948093610090939B
:1048900061000FBE0E94F12108950E9480260E94AF
:1048A000DD26E2EEF0E080818460808378940E94CF
:1048B0005C29089584E291E00E940021089580918E
:1048C0002D03853031F480912D03853019F00E943D
:1048D0006B2208950E94402280912B03882399F334
:1048E0000E94FE21882379F30E94DA240E946D0839
:1048F000EACF08959A0140913403509135030E9404
:1049000082240895492F55274330510519F168F441
:104910004130510509F444C04230510509F445C005
:1049200090E080E050E040E025C04132510549F17F
:1049300042325105A9F780E490E04AE555E061155F
:104940007105C1F08BE790E04FED54E061307105E7
:1049500089F0E6CF99278130910581F0009729F001
:104960000297F1F6EAE6F4E002C0EEE8F4E08491A2
:1049700090E0AF01F901518340830895E0E8F4E04D
:10498000F6CF89E090E044EA54E06115710591F3B7
:1049900089E090E04DEB54E06130710559F3C0CFF0
:1049A00082E190E04DEC54E0E5CF8BE390E042E90A
:1049B00054E0E0CF80E189BD82E189BD09B400FE09
:1049C000FDCF8091D8008F7D8093D8008091E0004A
:1049D00082608093E0008091E00081FDFCCF08952B
:1049E000AF92BF92CF92DF92FF920F931F93CF931C
:1049F000DF936C01EB018A010E944F26F82E811192
:104A000023C00115110539F0F80180819181C81B7F
:104A1000D90BC80ED91EB12CA12C2097A9F08091DA
:104A2000E80085FD22C08091E8008E778093E80041
:104A300001151105A1F0F80180819181A80EB91E20
:104A4000B182A08285E0F82E8F2DDF91CF911F914A
:104A50000F91FF90DF90CF90BF90AF9008950E948C
:104A60004F268823D1F2F82EEFCFF60181916F0106
:104A70008093F1002197FFEFAF1ABF0ACECFFC0160
:104A8000809134039091350386179707A0F0611544
:104A9000710529F49091E8009E779093E80090E0EA
:104AA0006115710551F4911108C08091E80082FFF1
:104AB00034C080E00895BC01F2CF80912D0388239B
:104AC000C1F18530C1F18091E80083FD30C0809153
:104AD000E80082FDEACF8091E80080FFE1CF80917D
:104AE000F3002091F200382F6115710519F028307C
:104AF000310558F091E02830310509F090E020911F
:104B0000E8002E772093E800CBCF81918093F100CD
:104B1000615071092F5F3F4FE7CF80912D038823AC
:104B200041F0853041F08091E80083FFBECF81E005
:104B3000089582E0089583E00895FC018091340394
:104B40009091350386179707A0F06115710529F438
:104B50008091E8008E778093E80090E06115710500
:104B600051F4911108C08091E80082FF35C080E0C7
:104B70000895BC01F2CF80912D038823C9F18530BF
:104B8000C9F18091E80083FD31C08091E80082FD89
:104B9000EACF8091E80080FFE1CF8091F30020917F
:104BA000F200382F6115710519F02830310558F0E1
:104BB00091E02830310509F090E08091E8008E778F
:104BC0008093E800CBCF84918093F10031966150BF
:104BD00071092F5F3F4FE6CF80912D03882341F06D
:104BE000853041F08091E80083FFBDCF81E00895DA
:104BF00082E0089583E00895982F973028F08F7011
:104C00008093E90081E008959093E900242F762FA6
:104C100050E0981731F07091EC002091ED00509128
:104C2000F00021FD02C09F5FE8CF3091EB003E7F96
:104C30003093EB003091ED003D7F3093ED003091EB
:104C4000EB0031603093EB007093EC002093ED00AB
:104C50005093F0002091EE0027FDE5CF80E008950D
:104C600080912E0387FF13C08091E80082FF06C069
:104C70008091E8008B778093E80004C080912D0339
:104C80008111F2CF089580912D038823D9F380916B
:104C9000E80080FFF8CF8091E8008E77ECCF20917C
:104CA000E4003091E50095E6A9012091EC00822F07
:104CB000817020FF06C08091E80080FF06C080E080
:104CC00008952091E80022FD1AC080912D038823C9
:104CD00089F0853089F08091EB0085FD0FC020912F
:104CE000E4003091E50042175307F9F29150E1F6E4
:104CF00084E0089582E0089583E0089581E00895B6
:104D00000E94EF260E94F726E0EEF0E080818160AD
:104D10008083E8EDF0E080818F77808319BCA7ED78
:104D2000B0E08C918E7F8C9380818F7E80831092F7
:104D30002C0308950F931F93CF93DF930E94EF26C8
:104D40000E94F726C8EDD0E088818F77888388811C
:104D50008068888388818F7D888319BC10922D0399
:104D60001092290310922B0310922A0300EE10E0F8
:104D7000F80180818B7F808388818160888342E015
:104D800060E080E00E94FC25E1EEF0E080818E7F13
:104D90008083E2EEF0E080818160808380818860A2
:104DA0008083F80180818E7F808388818061888301
:104DB000DF91CF911F910F910895E8EDF0E0808190
:104DC0008F7E8083E7EDF0E080818160808384E0E6
:104DD00082BF81E080932C030E949A260895E8ED1B
:104DE000F0E080818E7F80831092E200089510921F
:104DF000DA001092E10008951F920F920FB60F9201
:104E000011242F933F934F935F936F937F938F93CF
:104E10009F93AF93BF93EF93FF938091E10082FF45
:104E20000BC08091E20082FF07C08091E1008B7F80
:104E30008093E1000E945B298091DA0080FF19C015
:104E40008091D80080FF15C08091DA008E7F80931A
:104E5000DA008091D90080FF96C080E189BD82E1AF
:104E600089BD09B400FEFDCF81E080932D030E942F
:104E70003C238091E10080FF19C08091E20080FF17
:104E800015C08091E2008E7F8093E2008091E20065
:104E900080618093E2008091D80080628093D80086
:104EA00019BC85E080932D030E9450238091E1007E
:104EB00084FF2BC08091E20084FF27C080E189BD80
:104EC00082E189BD89B5982F917080FFFBCF8091D9
:104ED000D8008F7D8093D8008091E1008F7E8093F1
:104EE000E1008091E2008F7E8093E2008091E200F9
:104EF00081608093E20080912903882309F449C0EE
:104F000084E080932D030E9459238091E10083FF68
:104F100029C08091E20083FF25C08091E100877F56
:104F20008093E10082E080932D0310922903809109
:104F3000E1008E7F8093E1008091E2008E7F80937C
:104F4000E2008091E20080618093E20042E060E054
:104F500080E00E94FC258091F00088608093F00042
:104F60000E944D23FF91EF91BF91AF919F918F913F
:104F70007F916F915F914F913F912F910F900FBE55
:104F80000F901F90189519BC10922D030E944A2370
:104F900070CF8091E30087FD93E090932D03B3CF12
:104FA0001F920F920FB60F9211242F933F934F939E
:104FB0005F936F937F938F939F93AF93BF93CF93A1
:104FC000DF93EF93FF93D091E900DF708091EC00C5
:104FD000C82FC17080FDC0E81092E9008091F000F8
:104FE000877F8093F00078940E9414281092E90043
:104FF0008091F00088608093F000CD2BCF70C0933B
:10500000E900FF91EF91DF91CF91BF91AF919F9117
:105010008F917F916F915F914F913F912F910F9061
:105020000FBE0F901F901895AAE2B0E0EAE1F8E2F7
:105030000C94212A8EE293E02091F100FC0121934F
:10504000CF01F3E086339F07B9F70E94792380915F
:10505000E80083FF1EC180912E0390912F039A30A8
:1050600008F017C1E92FF0E0E558F44D0C94DB2966
:10507000803899F0823809F00CC1809132038F702A
:10508000873008F006C18093E9008091EB0085FB32
:10509000882780F91092E90006C080912A03909138
:1050A0002B03911182609091E800977F9093E80024
:1050B0008093F1001092F1008091E8008E77E5C0B6
:1050C000882309F4D3C0823009F0E3C08091300313
:1050D0008111D6C0809132038F702FEF280F2630B8
:1050E00008F0D7C08093E9002091EB0020FFC8C0F2
:1050F000933031F48091EB0080628093EB00C0C06C
:105100009091EB0090619093EB0021E030E001C0C2
:10511000220F8A95EAF72093EA001092EA00809124
:10512000EB008860EACF8111B4C0109130031F7783
:105130008091E3008078812B8093E3008091E800E8
:10514000877F8093E8000E9430268091E80080FFEE
:10515000FCCF8091E30080688093E30082E011112E
:1051600083E080932D0395C08058823008F091C071
:1051700080913003909131038C3D23E09207A1F59B
:1051800083E08A838AE289834FB7F894DE0113961D
:1051900020E03EE051E2E32FF0E050935700E4912D
:1051A00020FF03C0E295EF703F5FEF708E2F90E01D
:1051B000EA30C0F0C7968D939D932F5F243159F745
:1051C0004FBF8091E800877F8093E8006AE270E03B
:1051D000CE0101960E943F258091E8008B77809355
:1051E000E80057C0C096E7CF609132037091330357
:1051F000AE014F5F5F4F0E947A24BC01892B09F4F6
:1052000048C09091E800977F9093E80089819A8147
:105210000E949D25E1CF8038E1F58091E800877FED
:105220008093E800809129038093F10045CF81119C
:1052300030C090913003923060F58091E800877F14
:105240008093E800909329030E94302680912903DF
:10525000882311F084E005C08091E30087FDFACF38
:1052600081E080932D030E94642313C0809130035A
:10527000813079F481E0933009F080E080932B0352
:105280001092E9008091E800877F8093E8000E94F7
:1052900030268091E80083FF0AC08091E800877F74
:1052A0008093E8008091EB0080628093EB00AA96E7
:1052B000E3E00C943D2A0895CF9380912D03882339
:1052C000A1F0C091E900CF709091EC00892F81701E
:1052D00090FD80E8C82B1092E9008091E80083FDE2
:1052E0000E941428CF70C093E900CF910895991BB4
:1052F00079E004C0991F961708F0961B881F7A95CD
:10530000C9F78095089587FB082E062687FD8195AD
:1053100067FD61950E9477290EF4919507FC8195B0
:105320000895AA1BBB1B51E107C0AA1FBB1FA617EC
:10533000B70710F0A61BB70B881F991F5A95A9F73E
:1053400080959095BC01CD01089597FB072E16F42A
:10535000009407D077FD09D00E94912907FC05D061
:105360003EF4909581959F4F0895709561957F4F7C
:105370000895A1E21A2EAA1BBB1BFD010DC0AA1F96
:10538000BB1FEE1FFF1FA217B307E407F50720F0AE
:10539000A21BB30BE40BF50B661F771F881F991F29
:1053A0001A9469F760957095809590959B01AC0172
:1053B000BD01CF010895EE0FFF1F0590F491E02D80
:1053C00009940E94E929332312F48A1B9B0B0C9445
:1053D000FA29A29FB001B39FC001A39F700D811D48
:1053E0001124911DB29F700D811D1124911D0895EE
:1053F0000E94E929B7FF0895821B930B08950E942C
:10540000E929A59F900DB49F900DA49F800D911D3B
:1054100011240895B7FF0C94FF290E94FF29821BD5
:10542000930B08952F923F924F925F926F927F92CB
:105430008F929F92AF92BF92CF92DF92EF92FF92A4
:105440000F931F93CF93DF93CDB7DEB7CA1BDB0B50
:105450000FB6F894DEBF0FBECDBF09942A883988F5
:1054600048885F846E847D848C849B84AA84B984FC
:10547000C884DF80EE80FD800C811B81AA81B98108
:10548000CE0FD11D0FB6F894DEBF0FBECDBFED011C
:1054900008958F929F92AF92BF92CF92DF92EF9238
:1054A000FF92CF93DF93EC01688179818A819B81A0
:1054B000611571058105910521F464E279ED8BE5B3
:1054C00097E02DE133EF41E050E00E94102B4901BD
:1054D0005A019B01AC01A7EAB1E40E94FF296B01CC
:1054E0007C01ACEEB4EFA50194010E940D2ADC0111
:1054F000CB018C0D9D1DAE1DBF1DB7FF03C00197D5
:10550000A109B04888839983AA83BB839F77DF91E1
:10551000CF91FF90EF90DF90CF90BF90AF909F9092
:105520008F9008950E94492A089580E091E00E949A
:10553000492A0895B0E0A0E0809300019093010112
:10554000A0930201B09303010895FC014150504023
:1055500030F001900616D1F73197CF0108958827D2
:1055600099270895FB01DC0104C08D9101908019F9
:1055700021F441505040C8F7881B990B0895FB0156
:10558000DC0102C001900D9241505040D8F70895BF
:10559000F999FECF92BD81BDF89A992780B50895FB
:1055A000A6E1B0E044E050E00C94022BA8E1B0E0AA
:1055B00042E050E00C94022B262FF999FECF92BDC9
:1055C00081BDF89A019700B4021639F01FBA20BDC8
:1055D0000FB6F894FA9AF99A0FBE08950396272FFA
:1055E0000E94DD2A0E94DC2A252F0E94DD2A242F1A
:1055F0000C94DD2A0196272F0E94DD2A0C94DC2AC8
:10560000DC01CB01FC01F999FECF06C0F2BDE1BD82
:10561000F89A319600B40D9241505040B8F7089571
:10562000052E97FB1EF400940E94272B57FD07D0F0
:105630000E94B92907FC03D04EF40C94272B5095F7
:105640004095309521953F4F4F4F5F4F089590956E
:105650008095709561957F4F8F4F9F4F0895F89477
:10566000FFCF4906490699069906060722077806DC
:10567000780627079807A707A707C01CC71CCE1CDA
:10568000D31CD81CDD1CE21CE71CEC1CF11CF61C16
:10569000FB1CFF1C041D071D0A1D0D1D101D121DE6
:1056A000151D171DA01D141EA81D721D761DAC1DF5
:1056B0007A1DB01DBC1D861D0D1E8A1DC01D8E1DB0
:1056C000C41DEC1D921DC81DF31D981DCE1DD61DB9
:1056D0007E1DB41D821DB81D9C1DD21DE21DFC1D2A
:1056E0000B1E6C1DA41D1B1ED420DA20C320CE204F
:1056F000E020E620EC203828602849296028492944
:0A5700009328B42849290B29172922
:10570A00010000003E02280850011E0A140101018E
:10571A0002000B000B0B01191A1B1C1D1E1F202156
:10572A002201C800F322282321231A2301E200E9D7
:10573A0000EA00B500B600B700CD008301CC008AAC
:10574A000192019401210223022402250226022742
:10575A00022A02B300B4006F0070009F01CB019FC0
:10576A0002A002818283E200E900EA00B500B600E5
:10577A00B700CD008301CC008A0192019401210275
:10578A00230224022502260227022A02B300B400B9
:10579A006F0070009F01CB019F02A0028182839457
:1057AA006697C63435F4F5F6F73133320001020252
:1057BA0002020606060909090909090F0F0F0F0F48
:1057CA000F1515151819191919191919191919234C
:0857DA002425252525252500C5
:00000001FF
