:100000000C9425030C945D030C945D030C945D0328
:100010000C945D030C945D030C945D030C945D03E0
:100020000C945D030C945D030C94D5280C94A929C1
:100030000C94F2230C945D030C945D030C945D030B
:100040000C945D030C945D030C945D030C945D03B0
:100050000C945D030C9479240C945D030C945D0363
:100060000C945D030C945D030C945D030C945D0390
:100070000C945D030C945D030C945D030C945D0380
:100080000C945D030C945D030C945D030C945D0370
:100090000C945D030C945D030C945D030C945D0360
:1000A0000C945D030C945D030C945D032B00140011
:1000B0001A00080015001700292104001600070087
:1000C00009000A00E1001D001B00060019000500E0
:1000D0001C0018000C00120013002A000B000D0079
:1000E0000E000F00330034001100100036003700FE
:1000F00038002832E30028412C442A42E600000060
:1001000001000000000000000000000001000000ED
:10011000000000005200000001000000000050003C
:1001200051004F002F0A300A2F08300800004C0001
:100130005000510052004F000000000050084E00D7
:100140004B004F08000001000100010028000100E1
:100150000100000035021E021F02200221022202BD
:1001600035001E281F2420212122220001002D00FD
:100170002D0226022F002F0223022402250226022E
:10018000270231022300242225212624272831009A
:100190003002300027022E002E0201000100010073
:1001A0002A000100010000002078217827782578B6
:1001B000237829783A003B003C003D003E003F0098
:1001C00040004100420043004400450000000000A0
:1001D000000000000000007C0000E100E000E20000
:1001E000E30000000000AC00AB00AA00A900AE00D4
:1001F0000100010000000100010000000100DA0020
:10020000CD00D900000000000100CF00CE00D000DA
:1002100000000000010000000000000000000000DD
:10022000000038002400250026002D00D100250202
:100230002100220023002E02D20037001E001F00E2
:1002400020000100D200D1000100000027000000C2
:100250001E0F0500047F3F1F643214643214783C83
:100260001E1E140A052223252628292A2C2D2F306C
:1002700032333536383A3B3D3E4042434547494AA2
:100280004C4E5051535557595A5C5E6062646668D3
:10029000696B6D6F71737577797B7D7F81838587DE
:1002A000898A8C8E90929496989A9C9E9FA1A3A5E1
:1002B000A7A8AAACAEAFB1B3B4B6B8B9BBBCBEBF09
:1002C000C1C2C3C5C6C7C9CACBCCCDCED0D1D2D28C
:1002D000D3D4D5D6D7D7D8D9D9DADADBDBDBDCDC97
:1002E000DCDCDCDDDDDDDDDCDCDCDCDCDBDBDBDA4F
:1002F000DAD9D9D8D7D7D6D5D4D3D2D2D1D0CECDBA
:10030000CCCBCAC9C7C6C5C3C2C1BFBEBCBBB9B8C6
:10031000B6B4B3B1AFAEACAAA8A7A5A3A19F9E9C4B
:100320009A98969492908E8C8A89878583817F7D16
:100330007B79777573716F6D6B6968666462605EF7
:100340005C5A5957555351504E4C4A4947454342C0
:10035000403E3D3B3A3836353332302F2D2C2A295A
:100360002826252322FFAA7F554000010101010113
:10037000010101010202020202020202020303035E
:10038000030303030304040404040404050505052E
:1003900005060606060607070707070808080809EE
:1003A0000909090A0A0A0B0B0B0C0C0C0D0D0D0E9A
:1003B0000E0E0F0F0F10101111111212131314142F
:1003C000151516161717181819191A1A1B1B1C1DA4
:1003D0001D1E1E1F202021222223242425262627FD
:1003E0002829292A2B2C2D2D2E2F3031323233342F
:1003F00035363738393A3B3C3D3E3F404142434435
:1004000045464748494A4C4D4E4F50515354555616
:1004100058595A5B5D5E5F616264656668696B6CC2
:100420006D6F7072737577787A7B7D7E808283853D
:1004300087888A8C8E8F91939596989A9C9EA0A27D
:10044000A3A5A7A9ABADAFB1B3B5B7BABCBEC0C287
:10045000C4C6C9CBCDCFD1D4D6D8DBDDDFE2E4E74B
:10046000E9EBEEF0F3F5F8FAFDFF00000000000004
:1004700000002A2B280000000000000000000000FF
:10048000000000000029000000002C1E3420212262
:1004900024342627252E362D3738271E1F202122CB
:1004A000232425263333362E37381F040506070844
:1004B000090A0B0C0D0E0F10111213141516171834
:1004C000191A1B1C1D2F3130232D35040506070872
:1004D000090A0B0C0D0E0F10111213141516171814
:1004E000191A1B1C1D2F3130354C00000000000074
:1004F00000000000000000000000000000000000FC
:1005000000000000000000000000000000007E0F5E
:1005100000D4FFFFFFC700000078140372006500DD
:100520007600690075006E0067003400310000003D
:100530000C0367007400690070007300000004037E
:10054000090409023B00020100A0FA0904000001AD
:10055000030101000921110100012240000705816A
:100560000308000109040100010300000009211132
:10057000010001227B000705820320000112010017
:1005800002000000080778CBDC0100010200010531
:10059000010902A10185020901A10005091901292A
:1005A000081500250195087501810205010930092A
:1005B000311581257F950275088106093815812539
:1005C0007F950175088106050C0A38021581257F83
:1005D000950175088106C0C005010980A101850348
:1005E00019012AB700150126B70095017510810081
:1005F000C0050C0901A101850419012AA0021501F9
:1006000026A002950175108100C005010906A1010F
:10061000050719E029E715002501950875018102F4
:100620009501750881010507190029FF150026FFAE
:1006300000950675088100050819012905950575BD
:10064000019102950175039101C011241FBECFEFE6
:10065000DAE0DEBFCDBF04B603FE18C080913F03D1
:1006600090914003A0914103B09142038730904B99
:10067000A740B04B59F410923F03109240031092E0
:10068000410310924203E0E0F8E3099511E0A0E095
:10069000B1E0ECEBFAE502C005900D92AA3DB1077E
:1006A000D9F723E0AAEDB1E001C01D92AF33B20744
:1006B000E1F70E94E8130C94082D0C94000023E04D
:1006C00042E061E00E94F70A08958530B8F467308F
:1006D000A8F4463098F450E096E0699F400D511D13
:1006E0001124FA019AE2899FE00DF11D1124EE0F09
:1006F000FF1FE455FF4F85919491089581E090E0AC
:1007000008950E94650308959C013A9521153F4183
:1007100050F5FC01EE27F170BC0166277270AC0148
:10072000442754709C012227387094FF0EC080E14A
:10073000EF2B09F480E0672B09F08062452B09F06C
:100740008064232B89F08068089581E0EF2B09F401
:1007500080E0672B09F08260452B09F08460232B31
:1007600019F08860089580E00895CF93DF93EB013E
:100770000E948403FE010995DF91CF910895CF93E4
:10078000DF93EC01805E9109089720F061E279E047
:10079000209711F46DEC76E0CE010E94B5038C2F0A
:1007A0000E94C005DF91CF910895CF93DF93EC01B4
:1007B0000E945206CE01805E9109089720F068E2FF
:1007C00079E0209711F464ED76E0CE010E94B50344
:1007D000DF91CF91089581E0089581E008950E940E
:1007E000ED03089508950E94F2030895A5E0B0E096
:1007F000ECEFF3E00C94FA2B49835A833091E80133
:1008000089819A81311119C0662399F0222389F0D8
:100810000E94970A182F682F89819A810E94730A73
:1008200069817A81812F0E948B112596E3E00C94D7
:10083000162C0E94850A182FF3CF0E94970A69810F
:100840007A81F1CFFC01262F408151816281738131
:1008500084810E94F603089581E00895CF93DF9389
:10086000EC0160E00E942204BE010E94F303DF91CC
:10087000CF91089508950E9445090E943A042FEFF0
:1008800084E39CE0215080409040E1F700C00000EC
:1008900008950E943B040E949D2408950E943B04F9
:1008A0000E94C12408950F931F93CF93DF938C016F
:1008B00061E00E942204EC01B8010E94EF03811163
:1008C00006C080E0DF91CF911F910F910895B8018C
:1008D000CE010E941A218823A1F3B801CE010E9403
:1008E0009022882371F3B801CE010E94201E882334
:1008F00041F3B801CE010E940222882311F3B8010E
:10090000CE010E94821D8823E1F2F80182818823B2
:1009100061F0C330FCE7DF07E9F058F4C115ECE7FC
:10092000DE07A9F0C130DC47B9F0C8010E94EB0333
:10093000C9CFCB358CE7D807A9F0CC35ECE7DE077B
:1009400071F0CA35DC4789F70E94ED0EEECF0E94A8
:100950004904B7CF0E94F50E0E944E04B2CF0E9408
:10096000E30EE3CF0E94F10EE0CF0E94CF230E945E
:1009700059050E94E81B08950E945D050E94BF1C56
:100980000E94D42308952F923F924F925F926F92CC
:100990007F928F929F92AF92BF92CF92DF92EF920F
:1009A000FF920F93CF93DF931C0129013A016B0152
:1009B00081E0C81AD108E101CC0DDD1D1882F12CAF
:1009C000E12C8AE0882E912CA12CB12CEC14FD0492
:1009D00098F0C101DF91CF910F91FF90EF90DF90E0
:1009E000CF90BF90AF909F908F907F906F905F90CF
:1009F0004F903F902F900895C301B201A50194013B
:100A00000E94922B605D603319F4E114F10431F01F
:100A1000411451046104710409F4602F6A93C30105
:100A2000B201A50194010E94922B29013A018FEF96
:100A3000E81AF80ACBCF0F932091040130910501F9
:100A40002817390721F42091E201261791F090939D
:100A50000501809304016093E2019C0150E040E0B5
:100A6000062F66E070E08CED91E00E94C3040F91C8
:100A700008958CED91E0FBCF089581E008950895ED
:100A8000CF93DF93D82F0E943D05C82F882319F0FC
:100A90008D2F0E943F058C2FDF91CF9108950895EF
:100AA000CF93C82F0E943C058C2F0E944005CF9108
:100AB000089580E00E94500508950E94DE220E9461
:100AC00050050895CF930E94DE22C82F8091E30144
:100AD0008C1779F0C093E3010E945E246093E401D7
:100AE0007093E5018093E6019093E7018C2F0E94BB
:100AF0005005CF910895ABE0B0E0E1E8F5E00C944B
:100B0000FB2B4F83588769877A878B8761110E94F7
:100B10002E0E1E821D8285E0FE013796DE011196A3
:100B200001900D928A95E1F78C819D81892B61F46A
:100B300049815A816B817C818D819E810E94560DF5
:100B40002B96E2E00C94172C89819A8189238F3FA0
:100B500079F3CE0101960E942C048111E9CFF0CFE8
:100B6000FC01808191810E94C90A0895662329F0C1
:100B70000E946C140E943F1508950E94C614FACF7B
:100B8000CF93C82F8823C9F08238C9F40E94DE228F
:100B900081FD13C089E30E94E60D0E944F0E2FEFE6
:100BA00087EE93E0215080409040E1F700C00000C4
:100BB00089E30E94EE0D0E944F0ECF910895833875
:100BC000A1F40E94DE2280FDF8CF83E50E94E60DAD
:100BD0000E944F0E2FEF81EE94E021508040904014
:100BE000E1F700C0000083E5E4CF8438A1F40E945F
:100BF000DE2282FDE2CF87E40E94E60D0E944F0EC6
:100C00002FEF81EE94E0215080409040E1F700C04A
:100C1000000087E4CECF8CEF8C0F813A90F46C2FDC
:100C200080910601909107010E946023882329F09A
:100C30008C2F0E94EE0D0E944F0E8C2F0E94E60D0D
:100C4000BACF80E28C0F883048F4C77081E001C0D1
:100C5000880FCA95EAF70E94110EADCFEBE5EC0FB5
:100C6000E33040F4F0E0EB59FE4F808190E00E94C9
:100C70000423A3CFE8E5EC0FEB3150F4F0E0EE0FE6
:100C8000FF1FE15DFE4F808191810E94292395CF56
:100C900083E38C0F833108F090CF61E08C2F0E94AA
:100CA000B6058BCF882309F456C0823879F40E94A8
:100CB000DE2281FF50C089E30E94E60D0E944F0EA4
:100CC00089E30E94EE0D0E944F0E0895833859F477
:100CD0000E94DE2280FF3FC083E50E94E60D0E9455
:100CE0004F0E83E5EECF843859F40E94DE2282FF56
:100CF00032C087E40E94E60D0E944F0E87E4E1CFE8
:100D00009CEF980F913AE8F290E2980F983050F4E7
:100D1000877091E001C0990F8A95EAF7892F0E94A8
:100D2000170ED1CF9BE5980F933028F490E080E028
:100D30000E940423089598E5980F9B3128F490E0D1
:100D400080E00E942923089593E3980F933118F4CB
:100D500060E00E94B60508951F93CF93DF93182F8C
:100D6000EB010E94C005209739F4812F0E945206A2
:100D7000DF91CF911F9108958FE99FE00197F1F7DF
:100D800000C000002197EFCF70E060E0893311F4DC
:100D900060E570E00E94AC060895882321F00E946F
:100DA000110E0E944F0E0895882321F00E94170E05
:100DB0000E944F0E0895B0E0A0E0E1EEF6E00C9442
:100DC000F42B6C01D62FC72FFC01128105810295EF
:100DD0000F700E94070EE82E8823E9F0E12E112300
:100DE000D1F08C2F807F803451F080E28D0F8830DD
:100DF000F8F0011104C08C2F807E8032C9F0809100
:100E0000F90282FF15C082E00E94B20E0E94070E16
:100E100091E0E82EE926BC2EB2949FE0B922FBE0D7
:100E2000FB15B8F1EB2DF0E0E65FF24D0C94B42B1E
:100E3000E12CF1CF0C2F0F70C07F11F00295007FD5
:100E4000112399F0002359F080E28D0F883010F0C3
:100E5000D11107C0802F0E94110E0E944F0E8D2FBE
:100E600063C0802F0E94210EF8CF8D2F0E94520662
:100E7000002379F080E28D0F883010F0D11104C08A
:100E8000802F0E94170E03C0802F0E94270E0E9401
:100E90004F0E2B2D2850330B2430310520F40E94A7
:100EA000DE220E945005EE2089F00E94030E80FD94
:100EB0000DC0F60112820E94FD0D0E94D109C601EB
:100EC0000E94F7080E94FD0D0E94E109CDB7DEB730
:100ED000E9E00C94102C2C2F2F70F22EC07FC03222
:100EE00019F0F29480EFF822DD2381F0D13009F47B
:100EF00049C0112309F451C0002309F448C0F60188
:100F0000858180FFACCF8F70858341C08091F902CD
:100F100082FD15C0112359F0FF2029F08F2D0E946A
:100F2000110E0E944F0E80E00E94C005B2CF80E0FB
:100F30000E945206FF2009F4ACCF8F2DA2CF1123BF
:100F400081F0011106C00E94310E8F290E94CD064A
:100F5000A0CF0130C1F70E94310E8F290E94380EB8
:100F600098CF011106C00E94450E8F2D0E94D40615
:100F700090CF013009F48DCF8F2D0E94D4060E94AE
:100F8000450E87CF112329F0063008F082CF8F2D30
:100F9000DDCF053008F07DCFE8CF002331F3D93322
:100FA00049F4FFEF27EE33E0F15020403040E1F705
:100FB00000C000008D2F0E9452066BCF8C2F8695AB
:100FC0008695837069F0813009F063CF8D2F9C2F57
:100FD0009370111102C080E090E00E94292359CF44
:100FE0008D2F9C2F9370111102C080E090E00E9421
:100FF00004234FCF612F8D2F0E94B6054ACF8C2F2F
:101000008370A1F5111145CF4D2F4295469547703C
:10101000440F440F2D2F2F7030E0042E02C0220FFA
:10102000331F0A94E2F790E080E0D4FF09C08FE01C
:1010300090E002C0880F991F4A95E2F7809590953D
:10104000C695C695C370822B932BC23049F058F4D5
:10105000C13019F00E94A4091CCF0E949B0919CF2E
:101060000E94AD0916CF0E94980913CF86951123CF
:1010700011F08C2F8170882309F40BCF4D2F4295EE
:1010800046954770440F440F2D2F2F7030E0042EEB
:1010900002C0220F331F0A94E2F790E080E0D4FFF1
:1010A00009C08FE090E002C0880F991F4A95E2F7CF
:1010B00080959095C695C695C370822B932BC230B0
:1010C00049F058F4C13019F00E940C0AE2CE0E9497
:1010D000030ADFCE0E94150ADCCE0E94B909D9CEE0
:1010E000CF70112329F08C2F0E94D1098D2F2ECF84
:1010F0008D2F0E94D4068C2F0E94E109CACED23FC8
:1011000041F160F4D03FB9F0D13F81F0112309F4EF
:1011100046C00111A4CE8C2F8F711FC0D33F01F1A7
:10112000D43FA1F78091F90282FD24C08C2F8F71EA
:10113000112311F312C0112341F0053008F0A9CE9C
:101140008C2F8F710E94F309A4CE063008F0A1CE37
:10115000F7CF8C2F8F711111CFCF0E94D10999CE6B
:10116000112329F08C2F8F710E94C50992CE0E9405
:10117000C0098FCE112349F0CF718C2F0E94D10965
:1011800063E08C2F0E94940E84CE81E00E94B20E08
:10119000023008F47ECE82E00E94B20E7ACE0023A6
:1011A00059F0D93309F006CF8FEF97EEE3E0815085
:1011B0009040E040E1F7FCCE8C2F8F719DCF0F93D4
:1011C0001F93CF93DF93EC01688179818A810E941C
:1011D000D40A8C010E941E0A0E949709B801CE0110
:1011E0000E94DB06DF91CF911F910F910895CF935D
:1011F000DF93EC018B819C81892B29F08881998177
:1012000089238F3F51F4DF91CF910895CE010E9441
:10121000DF08CE010E942E04F6CFCE010E945304B7
:101220008111F4CF0E94070E882369F38A818823F5
:1012300051F38091F90282FFE6CF82E00E94B20E64
:10124000E2CF882321F00E94210E0E944F0E0895C4
:10125000882321F00E94270E0E944F0E089590E0EF
:1012600080E00E94042390E080E00E9429230E94F5
:101270002E0E0E944F0E0E945B150E943F1508958E
:101280000E94F60D0E942F0908950E941E0E0E94D2
:101290004009089592959F70963091F058F4925FAE
:1012A0009F70923058F4803F19F030F4883E30F44B
:1012B00081E008959A5FF4CF843FD1F380E00895F0
:1012C000883EB0F3813FD1F7F3CFFC018381948155
:1012D000892B29F08081918189238F3F11F480E04F
:1012E0000895808191810E94C90A0E944A09089547
:1012F000A5E0B0E0EEE7F9E00C94FB2B2596E2E0E8
:101300000C94172CA6E0B0E0E8E8F9E00C94FB2B75
:101310002696E2E00C94172C08950E948C090895FB
:101320000E948D099093040280930302089508950A
:101330000E94900908952091030230910402822BAB
:10134000932B0E949009089520910302309104028A
:10135000822393230E9490090895209103023091E3
:101360000402822793270E94900908950E945F0338
:1013700008950E94B6099093020280930102089595
:1013800090E080E00E94B909089521E030E0A901D1
:1013900002C0440F551F8A95E2F7CA010E94B9099D
:1013A000089521E030E002C0220F331F8A95E2F752
:1013B0008091010290910202822B932B0E94B90925
:1013C000089521E030E002C0220F331F8A95E2F732
:1013D00020953095809101029091020282239323FF
:1013E0000E94B909089521E030E002C0220F331FA6
:1013F0008A95E2F780910102909102028227932759
:101400000E94B90908952091010230910202822BB5
:10141000932B0E94B9090895209101023091020294
:10142000822393230E94B9090895209101023091EB
:101430000202822793270E94B90908950895262F52
:10144000277091E001C0990F2A95EAF723E076957D
:1014500067952A95E1F7660F771F660F771FFA01E8
:10146000E60FF71F50E040E0682F70E08191DF0148
:1014700011979B01042E02C0369527950A94E2F736
:10148000217021952827292328272C934F5F5F4F10
:101490004430510559F70895A82FA77023E0969579
:1014A00087952A95E1F7880F991F880F991FFB01EF
:1014B000E80FF91F50E040E080E0219130E00A2E73
:1014C00002C0369527950A94E2F721703327042E3F
:1014D00001C0220F0A94EAF7822B4F5F5F4F44301E
:1014E000510559F70895262F973070F4863060F42F
:1014F000682F70E086E0989F600D711D112449EE01
:1015000051E0822F0E941F0A0895292F973068F416
:10151000863058F490E069EE71E036E0239F800D4C
:10152000911D11240E944C0A089580E00895B0E0B6
:10153000A0E0EDE9FAE00C94F42B7C0100910102AB
:10154000109102028091030290910402082B192B42
:10155000CFE0D0E0CC24C394D12CBC2EC6010C2EFD
:1015600002C0880F991F0A94E2F780239123892BE8
:1015700049F4219790F7B12C8B2DCDB7DEB7E9E078
:101580000C94102CB7018C2F0E949711019789F3AE
:10159000F3CFCF93DF93EC010E94970ABE010E9424
:1015A0009711DF91CF9108951F93CF93DF93EB01B4
:1015B0009091E801992339F0CB010E94C90ADF918B
:1015C000CF911F910895882369F0CB010E94970A5B
:1015D000182F682FCE010E94730ABE01812F0E942E
:1015E0009711EDCFCB010E94850A182FF6CFE1E0CD
:1015F000F0E0DF0102C0AA0FBB1F6A95E2F7BD0150
:10160000DF0102C0AA0FBB1F4A95E2F7AD01462BCE
:10161000572B02C0EE0FFF1F2A95E2F79A012823ED
:1016200039232417350719F48E2B9F2B0895E09545
:10163000F0958E239F2308951F93CF93DF93C0913E
:10164000050216E0809106028C1304C0DF91CF9151
:101650001F910895D0E01C9FF0011D9FF00D1124F3
:10166000E95FFD4F40815181628173818481958161
:101670000E9482092196C770E5CF409137025091B0
:1016800038026091390270913A0280913B02909148
:101690003C020E9482090895209105029091060261
:1016A00056E0291302C080E0089530E0529FF00117
:1016B000539FF00D1124E95FFD4F7181761306C031
:1016C0007081781303C07281741304C02F5F3F4F81
:1016D0002770E7CF81E008951F93CF93DF93809128
:1016E0003C02807F09F04BC080913902882309F4C5
:1016F00046C080910502C091060240913702509188
:10170000380260913A0270913B02D42FD52316E043
:10171000C817A9F190E061157105A9F1DF3F99F1B2
:10172000189FF001199FF00D1124DF01A95FBD4F33
:1017300011962C911197251326C02C91241323C0A8
:1017400012962C91129721111EC013962D913C9147
:10175000261B370B283C3105B0F480913C028F707A
:10176000806180933C02E45FFD4F80818F708061D7
:10177000808387E392E00E94F7080E941C0BDF91B0
:10178000CF911F91089501968770C2CFA1E1B0E07B
:10179000ECECFBE00C94F12B8C0185E0F801DE0110
:1017A0001D9601900D928A95E1F7F801F28087E38A
:1017B000A82E82E0B82E40913A0250913B0241158A
:1017C000510509F45AC19091370220913802892FAE
:1017D00082238F3F09F451C1C080D18083809480DF
:1017E000E0903902B401641B750BEE2009F4F6C0D9
:1017F00080913C02382F307F683C710508F0AFC003
:1018000031117AC0EF2C2D1116C09C1114C0F110AB
:1018100012C08F70806180933C020E943D0BC50115
:101820000E94F70880913C02F80185838E2D619615
:10183000ECE00C940D2C81149104C9F18C2D8D21B8
:101840008F3FA9F181E08F2580FF05C04F2D6D2DC1
:101850008C2D0E944C0B8114910459F18C2D8D21FB
:101860008F3F39F181E08F25F82FF170BF2E80FF77
:1018700039C04F2D6D2D8C2D0E944C0BA82E81113F
:1018800031C0CD86DE868D859E850E94C90A292FAE
:1018900022952F70243078F49F702230A8F099237D
:1018A000B9F0F8019581907F99F4EA2CBFCF80E0E0
:1018B000CBCF80E0D9CF2A5F2F70223068F0C801EB
:1018C0000E94F708AB2CF1CF992311F0882369F31C
:1018D000805E883050F3F3CF803F38F3815F8330F0
:1018E00070F7E3CFFF2009F4A1CF80913C02816023
:1018F00080933C02E12C9ACF2D1105C09C1103C0AE
:10190000FF2009F486C0C8010E946509882319F1E7
:10191000FF2009F180913C02803270F02091370263
:101920003091380238872F8319869B868A868C8768
:10193000CE0107960E94F70886E0F801A7E3B2E01F
:1019400001900D928A95E1F70E946C0B0E943D0B6D
:10195000EE24E3946BCFC8010E94F708F9CF311150
:1019600014C0782D998A888AA6016F2D89890E94D2
:10197000780987E392E00E94F70886E0F50111926A
:101980008A95E9F70E943D0BB5CF2D110EC09C1131
:101990000CC0F1100AC08583C8010E94F70886E0D8
:1019A000F50111928A95E9F741CFC8010E946509B6
:1019B000882389F2FF2079F280913C02803208F47A
:1019C000BBCF20913702309138023A8329831B82A2
:1019D0009D828C828E83CE010196ACCF683C7105CE
:1019E00008F03DC0EF2CFF2009F4B5CF2D1129C020
:1019F0009C1127C080913C0280FD1AC0982F907FD7
:101A0000B9F08583903F31F0982F907F905F8F7071
:101A1000892B8583C8010E94F70886E0F801A7E3B7
:101A2000B2E001900D928A95E1F70E943D0BFECE47
:101A300086E0F801A7E3B2E001900D928A95E1F704
:101A4000F5CEC8010E946509811176CF80913C02D4
:101A5000816080933C02C8010E94F708E7CE782D90
:101A6000998A888AA6016F2D89890E94780986E063
:101A7000F50111928A95E9F7D8CFFF2009F46BCFD1
:101A8000C8010E946509E82E882309F464CF86E026
:101A9000F801A7E3B2E001900D928A95E1F787E3A0
:101AA00092E00E94B0050E946C0BBFCFACE0B0E0AA
:101AB000ECE5FDE00C94FA2B4F83588769877A8711
:101AC0008B879C87CE0107960E94C60B8823B1F0B6
:101AD0008A859B85892B39F04F815885842F8523F2
:101AE0008F3F09F06CC016E08091050290910602CC
:101AF000891343C02C96E3E00C94162C86E0FE017B
:101B00003796DE01119601900D928A95E1F78A854C
:101B10009B85892B41F38F81988589238F3F19F30A
:101B20002091060230E0C901019687709927409103
:101B300005024817190671F40E9445091092060221
:101B40001092050286E0E7E3F2E0DF011D928A953C
:101B5000E9F7C9CF96E0929FD001939FB00D112471
:101B6000A95FBD4FFE01319601900D929A95E1F764
:101B7000809306020E941C0BB6CF819FC0011124E6
:101B8000895F9D4F0E94C60B882309F4B3CFE09173
:101B900005021E9FF0011124E95FFD4F4081518134
:101BA00062817381848195810E94820980910502FE
:101BB00090E00196877099278093050295CF6985FB
:101BC0007A858B859C850E9482098DCF682F8091B4
:101BD0000601909107010E9496230895682F809135
:101BE0000601909107010E949923089580910601B2
:101BF000909107010E949C2308958091450285954C
:101C000085958595089580914502877008959091F6
:101C10004502977081E009F480E0089580915002B8
:101C2000089590915002892B8093500208958095D9
:101C30009091500298239093500208951092500270
:101C4000089590914F02892B80934F0208958095BB
:101C500090914F02982390934F02089510924F0253
:101C6000089580914602089508950E94340E0895C3
:101C70009091F90292FF08C090914602981721F0C6
:101C8000809346020E94350E089580914602882373
:101C900029F01092460280E00E94350E0895CF93FD
:101CA000DF93E0910601F09107018091500280835B
:101CB000E0910601F0910701808190914F02892BFC
:101CC000808390914602992381F0E0910601F09182
:101CD00007018081892B8083809106019091070103
:101CE0000E944E2381110E94450EC0910601D091A1
:101CF000070148E050E06DE372E0CE010E948B2CBA
:101D0000892B59F088E0FE01ADE3B2E001900D921D
:101D10008A95E1F7CE010E94EB22DF91CF910895E1
:101D200008950E94900E08959091F90292FF11C0BB
:101D300098E0899F90011124622B609345020E94D4
:101D4000D109809145028595859585950E94910ED2
:101D500008950E94D10908951092450280E00E94E2
:101D6000910E0895909145028095892380934502B4
:101D7000282F277091F4282F082E000C330B921770
:101D8000130659F09091F90292FF07C08595859549
:101D900085950E94E1090E94AC0E08959091F90288
:101DA00092FB222720F9281769F080FB92F9909383
:101DB000F9028091F8029091F9020E94160F82E0D8
:101DC0000E94B20E08958091F90282FB882780F963
:101DD00091E089270E94CE0E089581E00E94CE0EE8
:101DE000089580E00E94CE0E08956FEF7FEF90E09F
:101DF00080E00E94D32C089590E080E00E94AF2CF8
:101E000021E0873E9E4F09F020E0822F089582E076
:101E100090E00E94A12C089583E090E00E94A12C04
:101E2000089584E090E00E94AF2C0895BC0184E006
:101E300090E00E94D32C0895AB01BC018FE090E0AC
:101E40000E94C72C0895AB01BC0183E190E00E9481
:101E5000C72C089560E070E0CB010E94230F089525
:101E600060E070E0CB010E941C0F0E942A0F0895D1
:101E700067EE7EEF90E080E00E94D32C60E082E08D
:101E800090E00E94B52C60E083E090E00E94B52CC9
:101E9000109204021092030260E074E184E090E08A
:101EA0000E94D32C60E086E090E00E94B52C6FEF9A
:101EB00087E090E00E94B52C40E050E0BA0188E055
:101EC00090E00E94C72C60E08DE090E00E94B52C6D
:101ED00040E050E0BA0188E190E00E94C72C60E049
:101EE00087E190E00E94B52C40E050E0BA018CE11F
:101EF00090E00E94C72C70E060E080E290E00E94D9
:101F0000D32C40E050E0BA0188E190E00E94C72C59
:101F10000E94300F08950E94380F0895682F8EE0B8
:101F200090E00E94B52C0895A5E0B0E0EAE9FFE05A
:101F30000C94F92B0E9452248C01809151029091B3
:101F4000520280179107A1F08FEF89838A831B8249
:101F50000E9452248160782F9D838C8349815A810D
:101F60006B818D810E947B05109352020093510278
:101F70002596E4E00C94152C0E945E2460935E028A
:101F800070935F02809360029093610260935A02A3
:101F900070935B0280935C0290935D0208950895B4
:101FA00008950E94D00F089508950E94D40F0895B7
:101FB00081E0089581E892E10E94D4220E94CF0F2F
:101FC0000E94D10F08950E94D80F08950E94E30F38
:101FD0000895089508950E94E90F0E94EA0F089558
:101FE0000E9484120E944F0508950E9449240E9475
:101FF0004B130E94F00F0E94831C0E94D50F08957E
:10200000A5E0B0E0E6E0F0E10C94F32B0E94D80FDD
:1020100081110EC00E94940F0E94D9200E94C91CF9
:102020000E947D150E9462052596EAE00C940F2C13
:102030000E94611383E5A82E82E0B82E750110E09E
:10204000F70101917F01812F0E94AA121F5F1730B3
:1020500009F440C00817A1F38091620281FD0E943B
:10206000B0120E94E60FC82E10E0812F0E94AA1223
:10207000082FF50181915F01081731F1D02ED82684
:10208000F12CEE24E3948D2D8E21B1F0CC20A1F023
:10209000F9821A8391E0802F8E2109F490E09B83CE
:1020A0000E9452248160782F9D838C8349815A81BC
:1020B0006B818D810E947B05F394EE0CF6E0FF129C
:1020C000E2CFF501319700831F5F173071F60E9450
:1020D000BC0FA2CF0813C0CF9DCF1F93CF93DF9328
:1020E0000E949C11EC01C11580E5D807F0F5C115DF
:1020F00080E4D80708F09CC0C03ED10520F5CD3C57
:10210000D10508F082C0C83AD10578F4C53AD105A6
:1021100008F073C0C130D10519F1209709F1C4301E
:10212000D105F0F4D0E0C0E01BC0C33CD105D0F72E
:10213000C85AD0E0CC0FDD1FC859DE4F0990D881B6
:10214000C02DD4640DC0C11580E2D80708F0D1C0FD
:10215000C11581E0D80708F05AC0C83ED10510F774
:10216000CE01DF91CF911F910895C03682E5D80747
:1021700018F5C03482E5D80708F06BC0C03282E59C
:10218000D80708F05FC0C11582E5D80708F497C0EA
:102190002C2F2695269580E2289F900111248C2FC4
:1021A0008370C1E0D0E002C0CC0FDD1F8A95E2F75A
:1021B000C22BD32BDD68D4CFC03A82E5D80760F4B8
:1021C000C03882E5D80708F459C0CF71D0E0DC2FC1
:1021D000CC27C46FD06AC4CFC03C82E5D80708F4CE
:1021E00062C0C03E82E5D80708F09CCFDC2FCC2728
:1021F000CC27DF71C06FD06AB3CFC55AD0E0C256CA
:10220000DE4FC881D0E0D064ABCFD065A9CF8D2F91
:102210000E943E12182FCE0199270E949C11C12FB7
:10222000D0E0DC2FCC27CC27DF71C82BD92B98CF5F
:10223000CE0199270E949C11CC27DF70C82BD92B87
:10224000D06A8ECFCF71D0E0DC2FCC27C16FD06A9F
:1022500087CF2C2F26952695277080E2289F900106
:1022600011248C2F8370C1E0D0E002C0CC0FDD1FA1
:102270008A95E2F7C22BD32BDC6872CF2C2F2695E0
:102280002695277080E2289F900111248C2F83705F
:10229000C1E0D0E002C0CC0FDD1F8A95E2F7C22B6F
:1022A000D32BDA685DCF8C2F8F710E943E12C82F1E
:1022B000D0E0DC2FCC27CC27DF71D06251CF8C2F20
:1022C0008F710E943E1255E0D695C7955A95E1F759
:1022D000CF70D0E0DC2FCC27282F30E084FF05C062
:1022E00044E0220F331F4A95E1F7C22BD32BD0696C
:1022F00037CF8D2F8F710E943E12182FCE01992754
:102300000E949C11C12FD0E0DC2FCC27CC27DF719D
:10231000C82BD92BD2CF462F773030F4663020F43B
:10232000672F0E948103089590E080E008950E9445
:102330008B110E946D10089582389105B9F1B0F4A7
:102340008133910509F47DC048F48932910509F47F
:102350006DC08A32910509F47BC0089585339105DB
:1023600009F45FC08933910509F10895833E910511
:10237000D9F138F4803E910529F1823E910579F139
:102380000895863E9105D9F1873E910509F43EC036
:10239000843E910541F52091F90221FF24C08091EE
:1023A000F80284FD19C087EE90E008952091F802AC
:1023B000237009F05AC02091F90223FF14C089E26A
:1023C00090E008952091F80220FD38C03091F90284
:1023D00030FF09C024FF43C090E080E008952091C1
:1023E000F80222FDF7CF08952091F80222FD3AC0AD
:1023F0003091F90230FD39C024FFF5CFEDCF2091A7
:10240000F80223FFF0CF24FDE7CFCDCF2091F802D3
:1024100023FD2EC03091F90231FFEECF84EE90E023
:1024200008952091F80225FFDECFC9CF2091F80250
:1024300025FD21C02091F90223FFD5CF89E390E04B
:10244000D2CF2091F80226FFCECF8AE290E0089505
:102450002091F80226FFC7CF81E390E0089583EE34
:1024600090E0089582EE90E0089580EE90E0089567
:1024700086EE90E0089585E390E008959091F8024B
:1024800092FF06C0282F28712830F9F4877F8460D6
:1024900093FF06C0282F28712831F1F4877E8461CC
:1024A0002091F90220FF06C0382F38713830D9F456
:1024B000877F816021FF06C0282F28712831D1F441
:1024C000877E816194FD877E0895282F24712430B2
:1024D000F9F68B7F8860DCCF282F2471243101F737
:1024E0008B7E8861DDCF382F3171313019F78E7FC7
:1024F0008860E0CF282F2171213121F78E7E8861FD
:10250000E1CF80E0089508950E94FC0E811102C081
:102510000E948B0F0E94070F809362020E94110F8E
:102520009093F9028093F8020E9483120E940C0F8C
:1025300090E00E94980980910102909102020E940D
:10254000B609089508950E94A212089508950E9460
:10255000A6120895E82FF0E0EF5FFC4F8081089508
:10256000089580EA8A95F1F7089500C008950E94C1
:10257000B1120895F894E82FE295EF70F0E031A1E0
:10258000282F2F7081E090E001C0880F2A95EAF78C
:10259000982F9095932391A392A1892B82A378944D
:1025A0000895CF93DF93C7EAD1E089918F3F11F06F
:1025B0000E94BA1281E0CE3AD807B9F7C1EAD1E059
:1025C00089918F3F11F00E94BA1281E0C73AD80773
:1025D000B9F7DF91CF910895B0E0A0E0E2EFF2E12A
:1025E0000C94F52BEC01D62E062F10E0C80189556E
:1025F0009E4F7C01FC0180818F3F09F445C0F89417
:10260000E82FE295EF70F0E091A18F7021E030E0CB
:1026100001C0220F8A95EAF7892F822B81A382A11C
:102620002095282322A378940E94B512E1EAF1E0D4
:1026300047EA51E031E0C12C21912F3F51F1A22F07
:10264000A295AF70B0E090968C9190E02F7002C090
:10265000959587952A95E2F780FD1BC0832FC82AA0
:10266000330F4E175F0741F7F70180818F3F11F05D
:102670000E94BA1261E0C11001C060E08D2D0E947D
:10268000B712C00FD11FC882CDB7DEB7E8E00C94F7
:10269000112C80E0E4CF0E94D11287E0E1E0F3E06A
:1026A000DF01982F1D929A95E9F7EAEFF2E0DF013A
:1026B0001D928A95E9F787E00E949C130E94A3125D
:1026C0000895A7E0B0E0E7E6F3E10C94F82B8E0163
:1026D0000F5F1F4F87E0F80111928A95E9F7F12CFF
:1026E0006F2DC8010E94EC12F394F7E0FF12F8CFAF
:1026F00047E050E0B8018AEF92E00E948B2C21E085
:10270000009709F420E0892B41F087E0F801AAEF57
:10271000B2E001900D928A95E1F747E061E073E045
:102720008AEF92E00E949D13182F0E94A712812F1A
:102730002796E5E00C94142C0895CF92DF92EF9247
:10274000FF920F931F93CF936C017B01042F2223E1
:1027500049F081E0809365020E94522490936402C4
:1027600080936302C0916502C1110AC0C0E08C2F42
:10277000CF911F910F91FF90EF90DF90CF90089530
:1027800080916302909164020E946A24059770F31D
:1027900010E0A801B601C7010E948B2C892B41F0E3
:1027A000A801B601C7010E94982C10926502DFCFE4
:1027B000C0E0FBCF0E9426260E94F50F0E94332620
:1027C00008950E9438260E9400100E945226089503
:1027D0000E94EB230E940C260E94DA0F0E94DA135B
:1027E0000E94E1130E94EB0FFBCF80916C0280FFEF
:1027F0000DC060910D0170E0660F771F60387105A4
:1028000070F56115710569F1862F089581FF07C084
:1028100060910D0184E0689FB0011124EFCF6091B9
:102820000D0182FD0AC080916B028823A9F02091DE
:102830000C0160910D01821710F088E0ECCF869FAB
:10284000C001112433E0880F991F3A95E1F7622FF8
:1028500070E00E947E2BD2CF68E070E0D5CF8FE78A
:10286000089581E0089580916C0280FF0CC0609112
:10287000090170E075956795759567956115710506
:1028800049F1862F089581FF06C06091090170E02B
:1028900075956795F3CF6091090182FD0BC090910A
:1028A0006A029923A1F060910801809109019617AD
:1028B00038F0682F70E06038710500F38FE70895F5
:1028C000899FC001112470E00E947E2BF4CF61E04B
:1028D00070E0D7CF81E008958D3C31F40E94F5136C
:1028E00081958093700208958E3C19F40E94F5132F
:1028F000F8CF8F3C31F40E94F513819580936F02DD
:102900000895803D19F40E94F513F8CF893D29F40C
:102910000E9433148093710208958A3D21F40E942D
:1029200033148195F7CF8B3D31F40E943314819598
:102930008093720208958C3D19F40E943314F8CFED
:102940009FE2980F983070F4815D990B21E030E0A0
:1029500001C0220F8A95EAF780916E02822B809344
:102960006E0208958D3D31F480916C0281608093F8
:102970006C0208958E3D21F480916C028260F7CF45
:102980008F3DB9F780916C028460F1CF40916F0266
:102990008D3C59F48091700287FF0DC01092700237
:1029A00041110BC010926B0208C08E3C81F48091E3
:1029B000700218169CF3442381F08091710290916B
:1029C0007202892B09F05AC010926A0208958F3C56
:1029D00049F447FFF0CF10926F028091700281118D
:1029E000ECCFE0CF803D19F41416ACF3E4CF909116
:1029F0007102893D29F41916F4F610927102DBCFA9
:102A00008A3D19F497FFD7CFF8CF909172028B3D92
:102A100029F497FFD0CF10927202CDCF8C3D19F4DC
:102A20001916CCF3C8CF9FE2980F983090F4815DCF
:102A3000990B21E030E0B90102C0660F771F8A953B
:102A4000E2F7CB01809590916E02892380936E020C
:102A5000B2CF8D3D31F480916C028E7F80936C02F9
:102A6000AACF8E3D21F480916C028D7FF7CF8F3DF0
:102A700009F0A1CF80916C028B7FF0CF08950E9466
:102A800052249C0190916F0280917002982B21F04A
:102A900030936902209368029091710280917202D2
:102AA000982B21F030936702209366028DE692E026
:102AB0000E94F622089586E0EDE6F2E0DF011D9225
:102AC0008A95E9F710926B0210926A0210926C02DA
:102AD0000895FC01828181110EC0838181110BC098
:102AE0008481811108C091E08581811101C090E04D
:102AF000892F8170089581E0FCCFA6E0B0E0E3E883
:102B0000F5E10C94FA2B86E0EDE6F2E0DE01119699
:102B100001900D928A95E1F710926F021092700267
:102B200010927102109272028B819C81892B89F024
:102B300080916802909169020E946A24AC01909190
:102B40006B029923C9F180910E018417150608F4D0
:102B500040C08D819E81892B91F080916602909179
:102B600067020E946A24AC0190916A02992309F4D9
:102B700071C080910A018417150608F479C0BE015E
:102B80006F5F7F4F8DE692E00E94A323811105C005
:102B90008DE692E00E94691581110E943F1586E042
:102BA000FE013196ADE6B2E001900D928A95E1F713
:102BB0002696E3E00C94162C20910F018AE0289FC2
:102BC000900111242417350720F69F5F90936B0224
:102BD00002C09F3FD1F71B81112359F00E94F513CA
:102BE0009FEF11160CF491E0899F802D11248093A2
:102BF0006F021C81112359F00E94F5139FEF1116EB
:102C00000CF491E0899F802D112480937002309103
:102C10006F02332309F49DCF20917002222309F41F
:102C200098CF45EB3403C0011124992359F09093B8
:102C30006F0245EB240390011124332339F03093C4
:102C4000700287CF81E080936F02F3CF81E08093A1
:102C500070027FCF20910B018AE0289F9001112400
:102C60002417350708F08BCF9F5F90936A0202C04C
:102C70009F3FD1F71D81112359F00E9433149FEF1C
:102C800011160CF491E0899F802D1124809371021C
:102C90001E81112359F00E9433149FEF11160CF47A
:102CA00091E0899F802D11248093720230917102EE
:102CB000332309F464CF20917202222309F45FCFF9
:102CC00045EB3403C0011124992359F0909371020C
:102CD00045EB240390011124332339F03093720221
:102CE0004ECF81E080937102F3CF81E08093720236
:102CF00046CFEF92FF920F931F93CF93DF93EB0199
:102D0000E82FD1110EC0442321F0F0E0E659FC4F2A
:102D1000E4916E2F7E2F8E2FCDB7DEB7E6E00C94B8
:102D2000132C0D2F10E0282F30E0442329F02659D2
:102D30003C4FF901249130E0F6E0CF9FC00111240F
:102D4000EFEFF0E0BF010E946A2BAB018C2F90E007
:102D5000880F991FA5E5A49FB001A59F700D1124B0
:102D6000861B970B982F990F980FBF01601B710B53
:102D7000629FD001639FB00D729FB00D11248B2F05
:102D80009D9FB0011124672F7727EF01C61BD70B3A
:102D9000BE01629FE001639FD00D729FD00D112490
:102DA0007F01E91AF108E09EB001E19E700DF09EEE
:102DB000700D1124672F7727E61BF70BE29F800128
:102DC000E39F100DF29F100D1124E12F722F42305E
:102DD000510599F048F44115510569F0413051050C
:102DE00081F0EB2F8D2F07C04430510569F080F042
:102DF00046305105B1F76E2F8FCFE22F7B2F812FF9
:102E0000FACFE22F7D2FF7CFEB2F822F712FF3CF49
:102E10007B2F822FED2FEFCF41E00E94791608958E
:102E200008950E940C170895CF93DF93762FE90140
:102E3000682F842F0E941117798368838A83DF911A
:102E4000CF91089580910803982F9E7F29F4817077
:102E500082608093080308958635E8F38170846565
:102E6000F8CF88E090E00E94A92C0895CF92DF92DD
:102E7000EF92FF926B017C010E942217B701A6011D
:102E800088E090E00E94C72CFF90EF90DF90CF90F9
:102E90000895E8E0F3E083E0808311828FEF82837E
:102EA0008383148260817181828193810E943617AD
:102EB00008958091080380FF02C08695089580E000
:102EC000089590910C03933018F49F5F90930C0336
:102ED000882351F0609108037091090380910A03DF
:102EE00090910B030E943617089581E00E946117AC
:102EF000089590910C03992319F0915090930C032D
:102F0000882351F0609108037091090380910A03AE
:102F100090910B030E943617089581E00E94791763
:102F2000089570E00E94F41D08956091140180914D
:102F3000080380FF0BC08091130123E0829FC00132
:102F40001124835F9C4F0E94911708958091150171
:102F50009091160123E0829FF0011124E35FFC4F62
:102F6000891748F71182108212828F5F3396F8CF4B
:102F70009091080390FF0EC09091150120911601C9
:102F800033E0939FF0011124E35FFC4F921718F098
:102F90000E94951708958183608342839F5F3396D3
:102FA000F5CFA3E0B0E0E7EDF7E10C94FB2B9091B7
:102FB000080390FF0AC09E012F5F3F4F0E94141725
:102FC0004B8169818A810E94B8172396E2E00C94B4
:102FD000172CCF93DF93EC01EC81F0E0EB59FD4F20
:102FE0004491E8E0F3E0628181810E94D1178C81F5
:102FF0008F5F8C83DF91CF910895CF93DF93EC01A6
:10300000E8E0F3E0438162818C810E94D1178C81DA
:103010008F5F8C83DF91CF910895A3E0B0E0E3E16F
:10302000F8E10C94F92B8C018091730281110AC094
:103030009E012F5F3F4F4FEF6FEF0E9414178A8161
:1030400080937302F8016481613069F080917302AA
:1030500040E0662361F040E0623011F44091730279
:1030600080E060E004C06091730240E080E00E9474
:10307000B817F801848190E0019663E070E00E9447
:103080007E2B84832396E4E00C94152CA3E0B0E01F
:10309000ECE4F8E10C94F42B082FD62EE42EC22E8B
:1030A0009091080390FF29C0E92FE695AE2FB0E07C
:1030B000A255BE4F8C918093B6029E7F923009F547
:1030C0009E012F5F3F4F802F0E9414174B81698113
:1030D0008A810E94B81700930903D0920A03E092F4
:1030E0000B03CC2051F0609108037091090380918B
:1030F0000A0390910B030E9436172396E9E00C9483
:10310000102C823019F4E0900B03E5CF863019F4CF
:1031100000910903E0CF8930D9F38931E1F6E95113
:103120006E2F6170B62EE695F0E0EB59FC4F1491CE
:10313000F12C60911701F61618F00E949517CBCF6D
:10314000F19EC001112470E00E946A2B802FB11003
:1031500014C0860F20911501622F6F0D7727771FFE
:103160009B01220F331F260F371F235F3C4F4E2D2D
:103170006D2D0E941417F394DCCF861BEBCFE8E093
:10318000F3E09181282F4381628180E1890F0E94C1
:103190004618089581E00E94BF180895E8E0F3E022
:1031A0009181282F4381628180EF890F0E94461808
:1031B000089581E00E94CE180895E8E0F3E062816E
:1031C00020E1620F08F46FEF282F438181810E9474
:1031D0004618089581E00E94DD180895E8E0F3E0C4
:1031E000628120E1621B08F460E0282F4381818125
:1031F0000E944618089581E00E94EE180895E8E0C4
:10320000F3E0438120E1420F08F44FEF282F628161
:1032100081810E944618089581E00E94FF18089558
:10322000E8E0F3E0438120E1421B08F440E0282F6E
:10323000628181810E944618089581E00E941019E0
:10324000089520E00E9446180895EF92FF921F9380
:10325000CF93DF93EC0110E0EE24EA94F12C60911F
:103260001701161770F00E9495179A818C8190FFB4
:1032700027C08F5F8C83DF91CF911F91FF90EF90DC
:10328000089520911501422F410F5527551FCA015E
:103290009A01220F331F280F391F235F3C4F70E024
:1032A000C7010E947E2B962F8C8140910B03609169
:1032B0000A03199F800D11240E9414171F5FCFCF9E
:1032C0008150D8CFB0E0A0E0E8E6F9E10C94F32B10
:1032D000FC0182810FEF80FF01E010E04BE0A42EA3
:1032E00080911701181798F00E9495178091750228
:1032F000013009F04FC0811102C080911701815047
:1033000080937502CDB7DEB7EAE00C940F2CC09124
:103310001501C12ED12CCC0DDD2DD11DCE01880F74
:10332000991FC80FD91FC35FDC4F198218821A82F8
:1033300034E0E32EF12CB12C809175028B0D8C3092
:103340001CF16A2D0E945C2B892F082E000C990B12
:10335000C816D90691F480910B038E9DA0018F9D14
:10336000500D112455954795559547959E016091AF
:103370000A03809109030E941417B00EF1E0EF1ABE
:10338000F108D1F61F5FACCF87FFDFCF9091170117
:10339000890FDBCF90E001966091170170E00E94E9
:1033A0007E2BAECF0F931F93CF93DF9380911501A8
:1033B0009091160123E0829FF0011124E35FFC4FFE
:1033C000891740F1C0E0D3E060911701C61740F1C2
:1033D0000E9495172091110180917402820F8093B1
:1033E000740290911201920F90931201191654F4E5
:1033F000082E000C990B409117014150550B841772
:1034000095071CF0219520931101DF91CF911F9119
:103410000F9108951182108212828F5F3396D0CF60
:103420000C2F10E070E0C8010E947E2B2091150146
:10343000820F482F50E020917402022E000C330BB3
:1034400002171307BCF020911201022E000C330B5F
:10345000201731077CF08D9F90011124235F3C4F92
:1034600040910B0360910A03809109030E94141795
:10347000CF5FAACFFA01EE0FFF1FE40FF51FE35F46
:10348000FC4F118210821282F3CFB0E0A0E0EBE497
:10349000FAE10C94F12BEC014C81042F10E098011F
:1034A000D8010E94C22B9B01AC010E94D82B4B017A
:1034B0005C01E0E2F0E0E01BF10BA5E5B0E0AC015F
:1034C0009B010E94D82B6B017C019F01DF010E94B0
:1034D000BA2B9B01AC010E94E32B9B01AC01280D90
:1034E000391D4A1D5B1DC701B6010E94922BF22EA9
:1034F000822F90E039E23F1520F143E0249F9001B4
:10350000112435952795122F109500E085E5E82EBA
:10351000EF1880911701081718F10E9495179C81E8
:1035200081E0992319F0903219F48FEF8093100104
:1035300080911001890F8C83CDB7DEB7ECE00C943D
:103540000D2C25E530E0B901681B790B9B01220F9A
:10355000331F260F371F37FFD4CF2F5F3F4FD1CFF9
:103560008E2D01FD8F2D20911501622F600F772781
:10357000771F9B01220F331F260F371F235F3C4FFE
:10358000412F60910A030E9414170F5FC2CF0F935F
:103590001F93CF93DF93EC0110E000E090911701AF
:1035A0009017110609F06CF40E9495178C8190E039
:1035B0000196817099278C83DF91CF911F910F9194
:1035C000089520911501A801420F511D9A01220F63
:1035D000331F240F351F235F3C4F4C8160910A033A
:1035E0008091090396959017110651F04CF04423F1
:1035F00049F040910B030E9414170F5F1F4FCECF6D
:103600004423B9F340E0F7CFB0E0A0E0EAE0FBE10B
:103610000C94ED2BFC016280448081E08483E5E61C
:10362000F2E07490E4EEF2E0E491C0910B03C695F1
:10363000C158D0E0CC0FDD1FCD2FDD27812C75E0E8
:10364000972EAA24AA94B12C55245A94E719EE2E49
:10365000F12C80911701881638F00E949517CDB78C
:10366000DEB7E0E10C94092CC82CD12C82E0861541
:1036700068F09C9CF0019D9CF00D1124EA58FD4FD0
:1036800080910903808380910A038183411023C0C4
:103690009C9CF0019D9CF00D1124EA58FD4F138273
:1036A000128220911501C601820F911D9C01220FEB
:1036B000331F280F391F235F3C4F9C9CF0019D9CBA
:1036C000F00D1124EA58FD4F4281618180810E94F2
:1036D00014178394BECF9C9C80019D9C100D1124D7
:1036E0000A581D4FF80183818823F1F081508383AC
:1036F000859DC0011124648170E00E946A2BFB014A
:10370000FF27EB59FD4F8491E82FE719E59DC00194
:103710001124B7010E946A2B80910B03689FB001AE
:103720001124F8017283BDCF0E946E2CB5010E9456
:103730007E2B8C179D070CF0B4CFF2E0F61598F4B1
:103740000E946E2CB5010E947E2BF80180830E949E
:103750006E2C20910A032695622F70E00E947E2B2A
:10376000280FF80121839C9CF0019D9CF00D1124F1
:10377000EA58FD4F128280910B03893C58F088EC87
:103780009C9CF0019D9CF00D1124EA58FD4F848310
:10379000838387CF8431A0F784E1F2CFE8E0F3E0C0
:1037A00080818E7F808360817181828193810E947C
:1037B00036171092B7020E9495170895E8E0F3E0DB
:1037C00080818E7F80831092B7020E9495170895A2
:1037D0001092B7028091B40281110AC081E08093F7
:1037E000B4028091080381708093B3020E94DE1BB3
:1037F000089560910803669570E04BE050E088E121
:1038000091E00E947E2C892B19F481E08093B7020D
:103810000E9452249093AE028093AD02089590913D
:10382000080390FF2BC09170811129C09260909382
:103830000803662351F06091080370910903809199
:103840000A0390910B030E94361760910803669556
:1038500070E04BE050E088E191E00E947E2C892BE3
:10386000A9F01092B70281E08093B00240910B035F
:1038700060910A03809109030E94211908958B32F7
:1038800010F09465D4CF880F982BD1CF0E94F91BEC
:10389000EACF682F90910803969581E0890F8B32CB
:1038A00008F081E00E940F1C089581E00E94491CED
:1038B0000895682F9091080396958FEF890F09F46A
:1038C0008AE20E940F1C089581E00E94591C08950D
:1038D00061E00E940F1C0895E8E0F3E080818160C0
:1038E000808386950E94681C08958091080380FF5C
:1038F00003C00E94CE1B08950E946C1C089560E0D6
:103900000E940F1C08958091B50281112EC00E9463
:10391000FC0E811104C00E948B0F0E9449170E9467
:103920003117609308037093090380930A039093FF
:103930000B036E7F61F40E9449170E943117609358
:1039400008037093090380930A0390930B030E946A
:1039500022171092B7028091080380FF03C086955A
:103960000E947F1C81E08093B5020895E8E0F3E0B7
:1039700080818160808386950E947F1C08951092CB
:10398000B4028091B30281110E94B61C0E94F91BFF
:1039900008950F931F93CF93DF938091B7028823ED
:1039A000B9F18091B602E0910803E695E81BE09337
:1039B000AF02823091F5F0E0EF59FD4FE491CE2F48
:1039C000D0E009EE17E18091B002882361F01092F7
:1039D000B0020E9452249093AE028093AD021092E6
:1039E000B2021092B1020E945224E091AD02F09115
:1039F000AE028E1B9F0B8F3F9F4750F4EC0FFD1FB5
:103A0000F093AE02E093AD028DEA92E0F8010995E1
:103A1000DF91CF911F910F910895863049F4F0E026
:103A2000E25AFD4FE491CE2FD0E00DEF17E1CBCF5E
:103A3000893051F4E695F0E0E55AFD4FE491CE2F40
:103A4000D0E005E219E1BFCF8F3051F4E695F0E008
:103A5000E85AFD4FE491CE2FD0E002E619E1B3CF52
:103A6000853149F4F0E0EB5AFD4FE491CE2FD0E0E0
:103A700002ED19E1A8CFC8E2D0E005E41AE18831EF
:103A800009F4A1CF833239F4E3E5F2E0C591D49192
:103A90000DE018E198CFC4EFD1E007EC1AE18432D1
:103AA00009F491CFC0EDD7E000E117E1853209F0CC
:103AB0008ACF8E2F63E00E94502BE92FF0E0E05B6D
:103AC000FD4FE491CE2FD0E004E01BE17CCFFA0162
:103AD000811101C0FB0109950895CF93DF93C82F91
:103AE000D62F0E9459178C1748F00E9459178D172E
:103AF00028F40E94551CDF91CF9108958C2F0E94CD
:103B0000681CF9CF1F93CF93DF93EC01FB01128167
:103B1000111110C00E940E0E8272FE01E052F84791
:103B2000E531F10508F05EC0EA5EF24D0C94B42B6D
:103B30000E94751C812FDF91CF911F91089544E65B
:103B40005CE165E57CE10E94671DF4CF45E55CE141
:103B500064E67CE1F8CF49ED58E16AEC78E1F3CF17
:103B60004AEC58E169ED78E1EECF4BEF58E16AEEAF
:103B700078E1E9CF4AEE58E16BEF78E1E4CF4DE12F
:103B800059E16CE079E1DFCF4CE059E16DE179E199
:103B9000DACF4DE857E165E777E1D5CF45E757E163
:103BA0006DE877E1D0CF81E00E94681CC3CF65E06B
:103BB00082E00E946D1DBECF68E086E0FACF6EE025
:103BC00089E0F7CF64E18FE0F4CF67E185E1F1CFE1
:103BD00088E1EACF62E289E1ECCF83E2E5CF6AE2F5
:103BE00085E2E7CF11E0A6CF539A4BB1477F5BB197
:103BF0005860EFB7F8949B01220F331F260F371F31
:103C0000280F391F2817390741F4EFBF8FE594E0DB
:103C10000197F1F700C000000895DC016D91CD011E
:103C200078E05BB9000000C067FF4BB9660F000089
:103C300000C000C000C04BB900C07A9591F7E2CF38
:103C4000CF93DF93EC01FB018281882309F4D2C07A
:103C50009E0130572332310508F0B2C00E94110F87
:103C60009093F9028093F802FE01E150F047E232AE
:103C7000F10520F4E55DF24D0C94B42B8091F8022F
:103C800081608093F80293C08091F90288608093EC
:103C9000F9028DC08091F8028260F3CF8091F80222
:103CA0008460EFCF8091F8028860EBCF8091F902B9
:103CB0008160EDCF8091F9028260E9CF8091F802B6
:103CC0008061DFCF8091F8028062DBCF8091F802C3
:103CD0008064D7CF0E9445098091F8028068D1CFD7
:103CE0008091F8028C60CDCF8091F9028360CFCFB4
:103CF0008091F8028E7FC5CF8091F902877FC7CF70
:103D00008091F8028D7FBDCF8091F8028B7FB9CF73
:103D10008091F802877FB5CF8091F9028E7FB7CF6F
:103D20008091F9028D7FB3CF8091F8028F7EA9CF69
:103D30008091F8028F7DA5CF8091F8028F7BA1CF73
:103D40000E9445098091F8028F779BCF8091F802FD
:103D5000837F97CF8091F9028C7F99CF8091F80271
:103D600082FB992790F921E0922790FB82F990FB42
:103D700083F987CF8091F902982F909591708E7F6B
:103D8000892B90FB81F983CF9091F802892F8F7B4B
:103D900096FF806476CF0E9445099091F802892FA2
:103DA00097FB87F980586DCF81E00E948E0F80913C
:103DB000F8029091F9020E94160F0E94450980E0D6
:103DC000DF91CF91089580E0F0CF9091F802892F94
:103DD0008F7E94FF806155CF9091F802892F8E7F5E
:103DE00090FF81604ECF9091F902892F877F93FFDA
:103DF00088604DCF81E0E4CFB0E0A0E0E2E0FFE1F9
:103E00000C94F62BE82FF0E0E659FB4FD490282FC6
:103E100026952695269530E0F901E65FFA4F049144
:103E2000877010E0082E02C0159507950A94E2F7F6
:103E300001701127F901E650FB4FE490F12C082E98
:103E400002C0F594E7940A94E2F791E0E922FF2496
:103E5000F901E651FB4FC491D0E002C0D595C7955A
:103E60008A95E2F7C170DD270115110519F081EE81
:103E70000E94C005E114F10419F086EE0E94C0050D
:103E80008D2D0E94C406E114F10419F086EE0E9403
:103E900052060115110519F081EE0E945206CD2B34
:103EA00019F08CE20E94C406CDB7DEB7E7E00C94AF
:103EB000122CEF92FF920F931F93CF93DF93EC019D
:103EC000162F0AE08881882309F454C0813009F054
:103ED0004EC08981813099F47E0122E0E20EF11C0E
:103EE0008A810E94C406E7012196812F815050F3F8
:103EF000EFE9FFE03197F1F700C00000F7CF823023
:103F000041F47E0182E0E80EF11C8A810E94C00526
:103F1000EACF833041F47E01E2E0EE0EF11C8A81AB
:103F20000E945206E0CF843011F02196DDCF2A8125
:103F3000229690E080E0AE014F5F5F4F2053330B3D
:103F40002A30310548F0019778F2EFE9FFE0319728
:103F5000F1F700C00000F7CF089FB001099F700D76
:103F60001124C901860F971F2981EA01E4CF0E941D
:103F7000FC1EBACFCDB7DEB7E6E00C94132C60E0A0
:103F80000E94591F089580912301877F8093230108
:103F900082E00E94270E8091230184FF06C08F7E5D
:103FA0008093230182E00E94110E8091230185FFFE
:103FB00006C08F7D8093230180E20E94110E0E9433
:103FC0004F0E089580E008958B32910539F040F44A
:103FD0009C01245031092432310558F481E00895C0
:103FE0008D32910530F089339105C0F38436910507
:103FF000A9F30E94E21F0895CF93DF93EC0166239B
:1040000019F082E00E94210ECE019052811590435A
:1040100008F4DD27CE010E94BF03DF91CF91089500
:104020009C0130522115304308F499270E94D50392
:104030000895FC0123E0F695E7952A95E1F7EE71E6
:10404000FF27E854FD4F20813181AC014F70552787
:1040500081E090E002C0880F991F4A95E2F766233D
:1040600029F0822B932B91838083089580959095DE
:1040700082239323F8CFFC0123E0F695E7952A9558
:10408000E1F7EE71FF27E854FD4F8F70992721E08B
:1040900030E002C0220F331F8A95E2F780819181C0
:1040A0002823392381E0232B09F480E00895EF923F
:1040B000FF920F931F93CF93DF93EC017B018A0153
:1040C0008091230182FF5DC02091DE023091DF02EA
:1040D0002C173D0719F0209709F053C09091230148
:1040E0009B7F9093230161E091FD10C08091E002DD
:1040F0009091E102A701481B590B61E080912401D6
:10410000909125014817590708F460E0617080918B
:10411000230160FB81F980932301C9010E941920CA
:104120000E940E0E81FF08C0809123018061809360
:10413000230182E00E94170E0E940E0E85FF08C028
:104140008091230180628093230180E20E94170EF8
:104150006091230166956170A8018091DE029091C3
:10416000DF020E94FC1F6091230166956170A80127
:104170008091DE029091DF020E9410200E94C31FF6
:104180000FC0CE010E943B20A801682FCE010E94E3
:1041900010208091DE029091DF02C817D90771F3D9
:1041A000F092E102E092E002CDB7DEB7E6E00C94D7
:1041B000132C8091230182FF19C00E945224209168
:1041C000E0023091E102AC01421B530B209124012B
:1041D000309125014217530748F048ED52E0BC01E9
:1041E0008091DE029091DF020E9457200895909105
:1041F0002301892F8E7F90FF8160809323010E948D
:10420000C31F0895809123018E7F809323010E9414
:10421000C31F089560E280912401909125010E94BE
:104220001B05FC01019620812032D9F3CF010E94A9
:10423000BF1F0895CF92DF92EF92FF921F93CF930B
:10424000DF93EC017B010E9452246C01F701828113
:10425000882309F453C08091230182FF07C048EDF1
:1042600052E0B60190E080E00E945720C231FCE7A6
:10427000DF0709F440C000F5C0318CE7D80789F1A9
:1042800080912401909125010596C131ECE7DE076C
:1042900069F1CE01905281159043F0F51092DF0242
:1042A0001092DE0211E0812FDF91CF911F91FF90DC
:1042B000EF90DF90CF900895C431FCE7DF0771F0F5
:1042C00038F0C5318CE7D80721F70E94F720E1CFFD
:1042D00080912301816080932301DBCF0E94022122
:1042E000D8CF8091240190912501059790932501C5
:1042F00080932401CECF0E940A21CBCF809123014D
:104300008F7EC13ED10531F0C53ED105A1F580912A
:1043100023018F7D809323018091230180FFC2CFF1
:10432000B701CE010E94E41FF7011281882309F42E
:1043300066C0112309F45DC00E940E0E182F0E9462
:10434000310E812B8D7F41F11092DF021092DE023F
:1043500060E0CE010E941920A70160E0CE010E941A
:10436000FC1F0E94310E8D7F0E94380E82E00E9459
:10437000B20E10E098CFCE0190528115904360F6B6
:104380008091230182FF8ECF48ED52E0B60190E08C
:1043900080E00E94572086CF86E0F701A8EDB2E0CA
:1043A00001900D928A95E1F71092DA021092DC02E8
:1043B0001092DB020E940E0E182F0E94310E812BEC
:1043C0009091230181FB91F9909323010E94310E7A
:1043D0008D7F0E94380ED093DF02C093DE02D09210
:1043E000E102C092E0028091230184608093230166
:1043F000BDCFA701B601CE010E94572054CF1111A5
:104400004DCF50CFCF93DF93EB0186319C4711F511
:104410000E940E0E9A81992399F08A7A91E009F40C
:1044200090E09093E202811109C089E20E94E60DBA
:104430000E944F0E80E0DF91CF91089585E3F6CF83
:104440008091E202811104C089E20E94EE0DF0CF5A
:1044500085E3FBCF81E0EFCF0F931F93CF93DF93E3
:10446000C42FD22FFC0182818823C9F04093E5023A
:104470000E9452249093E4028093E30280E28C0F26
:10448000883040F4C77081E001C0880FCA95EAF710
:104490000E94CD06DF91CF911F910F910895109149
:1044A000E502141332C08091E3029091E4020E946D
:1044B0006A24883C910548F5C0E2CD0F1D17B9F07C
:1044C00080E2810F883040F4177081E001C0880FCE
:1044D0001A95EAF70E94D406C83048F481E09D2F6F
:1044E000977001C0880F9A95EAF70E94CD06802F39
:1044F0000E94C406C83070F6D77081E001C0880FF2
:10450000DA95EAF70E94D406C5CF80E28C0F883096
:1045100008F6C77081E001C0880FCA95EAF7F2CFAC
:104520000F93DB0188519C4787309105A0F5FC0172
:10453000E35BF24D0C94B42B06E221EE41EE6AE10E
:104540007CE7CD010E942C2280E00F91089507E2C4
:1045500025EE45EE6BE17CE7F4CF06E221EE40EE7E
:1045600068E17CE7EECF07E225EE44EE69E17CE707
:10457000E8CF06E221EE42EE6CE17CE7E2CF07E213
:1045800025EE46EE6DE17CE7DCCF08E221E045EE6A
:104590006EE17CE7D6CF12968C91882319F01092A9
:1045A000E502D3CF81E0D1CF9093DB018093DA0194
:1045B00008959093EB028093EA020895E091EA0255
:1045C000F091EB02309729F00190F081E02D0995F0
:1045D000089580E00895E091EA02F091EB023097AF
:1045E00021F00280F381E02D09950895E091EA021F
:1045F000F091EB02309739F022E0DC012C9304803B
:10460000F581E02D09950895A3E0B0E0EAE0F3E23A
:104610000C94FB2B2091E8023091E902281739070E
:10462000A1F09093E9028093E802E091EA02F09110
:10463000EB02309751F023E029839B838A83068025
:10464000F781E02DCE01019609952396E2E00C94C6
:10465000172CA3E0B0E0EFE2F3E20C94FB2B2091E7
:10466000E6023091E70228173907A1F09093E7029C
:104670008093E602E091EA02F091EB02309751F06C
:1046800024E029839B838A830680F781E02DCE0175
:10469000019609952396E2E00C94172C9C012E5F5D
:1046A0003F4FAC01485F5F4F80E02417350709F4A6
:1046B0000895F90191919F019923B9F38F5FF5CF87
:1046C000662349F0FC01329608962191261729F0BD
:1046D000E817F907D1F780E0089581E008959C017B
:1046E000FC0132969FEF80E04191461751F09F3FC9
:1046F00019F4411101C0982F8F5F8630A9F79F3FB1
:1047000009F40895290F311D97FD3A95F901628347
:104710000895FC01329608962191261303C0DF010B
:1047200011971C92E817F907B9F708950E946F23B3
:1047300008950E9489230895029626E0FC011192B3
:104740002A95E9F7089546E050E00E948B2C21E07D
:10475000892B09F420E0822F089508950E94AD234B
:104760000895811106C081E08093EC020E94AE237F
:10477000089582E0F9CF83E08093EC020E94AE239B
:1047800008950E94B123089581E08093EC020E9475
:10479000AE2308950E94C4230895089508950E94A9
:1047A000CE230895089508950E94CD230895CF93B0
:1047B0000E94D2230E9461130E94D323C0E08C2F59
:1047C0000E94AA12811105C0CF5FC730C1F7CF91F7
:1047D000089581E0FCCF85B7806885BF85B7806884
:1047E00085BF08951F921FB61F9211248F939F9328
:1047F000AF93BF938091ED02811113C080912E037E
:1048000090912F03A0913003B09131034196A11DE7
:10481000B11D80932E0390932F03A0933003B09388
:104820003103BF91AF919F918F911F901FBE1F9039
:10483000189580913603843031F10E94B5041092AE
:10484000ED0288E190E020E40FB6F894A8958093FB
:1048500060000FBE2093600083B7817F846083BFB8
:1048600083B7816083BF7894889583B78E7F83BF39
:104870000FB6F894A89580916000886180936000DD
:10488000109260000FBE08950E9445090E94BC046A
:10489000089582E084BD93E095BD9AEF97BD809323
:1048A0006E0008952FB7F89480912E0390912F03F6
:1048B000A0913003B09131032FBF08952FB7F89422
:1048C00060912E0370912F038091300390913103FA
:1048D0002FBF08959C014FB7F89480912E039091BB
:1048E0002F03A0913003B09131034FBF821B930B74
:1048F000089578941F921FB61F9211248F939F934F
:10490000AF93BF9380912E0390912F03A09130031A
:10491000B09131030196A11DB11D80932E03909398
:104920002F03A0933003B0933103BF91AF919F91B8
:104930008F911F901FBE1F90189581E08093E0001B
:1049400080E28093D8001092C9008FE19EE4019725
:10495000F1F700C0000087E090EBDC0180933F039B
:1049600090934003A0934103B093420388E19CE0FD
:104970000FB6F894A895809360000FBE90936000E6
:10498000FFCF88E19CE00FB6F894A8958093600073
:104990000FBE90936000FFCF8091F60208959B01B7
:1049A000BA01909136039430E9F48F708093E90056
:1049B0009FEF8091E800915085FD06C085ED8A95B6
:1049C000F1F700009111F5CF8091E80085FF0AC052
:1049D00050E040E0C9010E94C9268091E8008E772E
:1049E0008093E800089543E050E0BC0182E00E941B
:1049F000CF24089546E050E0BC0182E00E94CF241D
:104A00000895CF93DF93EC0148E050E0BC0181E0D2
:104A10000E94CF2488E0FE01AEEEB2E001900D923C
:104A20008A95E1F7DF91CF91089580913503811147
:104A300009C00E9459280E94B6288091E200846033
:104A40008093E20008951092350308950E94C423D4
:104A500008956091320381E0611101C080E00E94FD
:104A6000BB2308959091360381E0943009F080E0F3
:104A7000609132030E94C123089542E061EC81E01D
:104A80000E94D52742E261EC82E00E94D5279091F6
:104A9000360381E0943009F080E0609132030E9497
:104AA000B123089580913803833009F461C030F454
:104AB0008130D1F1823009F49EC008958A3009F422
:104AC0008AC08B3009F46FC0893009F050C08091E2
:104AD0003703813209F04BC080913B0390913C0336
:104AE000029708F044C08091E800877F8093E80037
:104AF0008091E80082FF37C09091F3008091F2002E
:104B0000029731F48091F100813011F0863021F468
:104B10008091F1008093F6028091E8008B7780937A
:104B2000E8000E94092823C080913703813AF9F4F4
:104B30008091E800877F8093E80080913B0390910B
:104B40003C03892B61F468E08EEE92E070E00E94F5
:104B500018278091E8008B778093E800089560E043
:104B600090E080E0F3CF809136038111C1CF0895AA
:104B700080913703813AD9F780913B0390913C03B0
:104B8000892BA9F78091E800877F8093E8008091C6
:104B9000E80080FFFCCF80912E018093F10080918E
:104BA000E8008E77BCCF80913703813201F7809186
:104BB0003B0390913C03892BD1F68091E800877FDD
:104BC0008093E8000E9409288091390380932E0188
:104BD0000E944509089580913703813241F6809102
:104BE000E800877F8093E8000E94092880913A03BB
:104BF0008093F702089580913703813A09F0B7CF87
:104C00008091E800877F8093E8008091E80080FF32
:104C1000FCCF8091F702C1CF84B7877F84BF0FB6E6
:104C2000F894A8958091600088618093600010924C
:104C300060000FBE80E890E00FB6F89480936100AA
:104C4000909361000FBE0E94CA2308950E945928C4
:104C50000E94B628E2EEF0E0808184608083789440
:104C60000E94352B089586E291E00E94D922089592
:104C700080913603853031F480913603853019F008
:104C80000E94442408950E941924809134038823AB
:104C900099F30E94D723882379F30E94B3260E94B8
:104CA0004509EACF08959A0140913D0350913E0392
:104CB0000E945B260895492F55274330510519F16D
:104CC00068F44130510509F444C04230510509F4FB
:104CD00045C090E080E050E040E025C04132510501
:104CE00049F142325105A9F780E490E04AE056E0EC
:104CF00061157105C1F08BE790E04FE855E0613038
:104D0000710589F0E6CF99278130910581F00097F0
:104D100029F00297F1F6EAE1F5E002C0EEE3F5E0F2
:104D2000849190E0AF01F901518340830895E0E35D
:104D3000F5E0F6CF89E090E044E555E061157105B6
:104D400091F389E090E04DE655E06130710559F34B
:104D5000C0CF82E190E04DE755E0E5CF8BE390E0F6
:104D600042E455E0E0CF80E189BD82E189BD09B42C
:104D700000FEFDCF8091D8008F7D8093D800809178
:104D8000E00082608093E0008091E00081FDFCCF34
:104D90000895AF92BF92CF92DF92FF920F931F932D
:104DA000CF93DF936C01EB018A010E942828F82E33
:104DB000811123C00115110539F0F801808191811D
:104DC000C81BD90BC80ED91EB12CA12C2097A9F055
:104DD0008091E80085FD22C08091E8008E77809365
:104DE000E80001151105A1F0F80180819181A80E5C
:104DF000B91EB182A08285E0F82E8F2DDF91CF9170
:104E00001F910F91FF90DF90CF90BF90AF900895CA
:104E10000E9428288823D1F2F82EEFCFF601819145
:104E20006F018093F1002197FFEFAF1ABF0ACECF39
:104E3000FC0180913D0390913E0386179707A0F0F7
:104E40006115710529F49091E8009E779093E80030
:104E500090E06115710551F4911108C08091E8004E
:104E600082FF34C080E00895BC01F2CF8091360308
:104E70008823C1F18530C1F18091E80083FD30C005
:104E80008091E80082FDEACF8091E80080FFE1CFC9
:104E90008091F3002091F200382F6115710519F00F
:104EA0002830310558F091E02830310509F090E0C4
:104EB0002091E8002E772093E800CBCF819180935A
:104EC000F100615071092F5F3F4FE7CF80913603AA
:104ED000882341F0853041F08091E80083FFBECF08
:104EE00081E0089582E0089583E00895FC018091B7
:104EF0003D0390913E0386179707A0F06115710559
:104F000029F48091E8008E778093E80090E06115A5
:104F1000710551F4911108C08091E80082FF35C0FD
:104F200080E00895BC01F2CF809136038823C9F157
:104F30008530C9F18091E80083FD31C08091E8009F
:104F400082FDEACF8091E80080FFE1CF8091F300FD
:104F50002091F200382F6115710519F028303105C4
:104F600058F091E02830310509F090E08091E80098
:104F70008E778093E800CBCF84918093F1003196B7
:104F8000615071092F5F3F4FE6CF80913603882330
:104F900041F0853041F08091E80083FFBDCF81E092
:104FA000089582E0089583E00895982F973028F0BF
:104FB0008F708093E90081E008959093E900242F99
:104FC000762F50E0981731F07091EC002091ED00B1
:104FD0005091F00021FD02C09F5FE8CF3091EB00BF
:104FE0003E7F3093EB003091ED003D7F3093ED003C
:104FF0003091EB0031603093EB007093EC00209324
:10500000ED005093F0002091EE0027FDE5CF80E009
:1050100008958091370387FF13C08091E80082FFD5
:1050200006C08091E8008B778093E80004C08091EF
:1050300036038111F2CF0895809136038823D9F386
:105040008091E80080FFF8CF8091E8008E77ECCF68
:105050002091E4003091E50095E6A9012091EC0053
:10506000822F817020FF06C08091E80080FF06C07B
:1050700080E008952091E80022FD1AC08091360357
:10508000882389F0853089F08091EB0085FD0FC081
:105090002091E4003091E50042175307F9F2915056
:1050A000E1F684E0089582E0089583E0089581E0C8
:1050B00008950E94C8280E94D028E0EEF0E0808188
:1050C00081608083E8EDF0E080818F77808319BC78
:1050D000A7EDB0E08C918E7F8C9380818F7E808352
:1050E0001092350308950F931F93CF93DF930E947F
:1050F000C8280E94D028C8EDD0E088818F778883A7
:1051000088818068888388818F7D888319BC10920C
:10511000360310923203109234031092330300EEE0
:1051200010E0F80180818B7F808388818160888393
:1051300042E060E080E00E94D527E1EEF0E080816F
:105140008E7F8083E2EEF0E08081816080838081C9
:1051500088608083F80180818E7F80838881806170
:105160008883DF91CF911F910F910895E8EDF0E0D2
:1051700080818F7E8083E7EDF0E080818160808395
:1051800084E082BF81E0809335030E9473280895F4
:10519000E8EDF0E080818E7F80831092E200089538
:1051A0001092DA001092E10008951F920F920FB64C
:1051B0000F9211242F933F934F935F936F937F939D
:1051C0008F939F93AF93BF93EF93FF938091E100F1
:1051D00082FF0BC08091E20082FF07C08091E10056
:1051E0008B7F8093E1000E94342B8091DA0080FF56
:1051F00019C08091D80080FF15C08091DA008E7FA1
:105200008093DA008091D90080FF96C080E189BD4B
:1052100082E189BD09B400FEFDCF81E080933603B1
:105220000E9415258091E10080FF19C08091E20065
:1052300080FF15C08091E2008E7F8093E200809114
:10524000E20080618093E2008091D80080628093C8
:10525000D80019BC85E0809336030E9429258091EF
:10526000E10084FF2BC08091E20084FF27C080E131
:1052700089BD82E189BD89B5982F917080FFFBCFF0
:105280008091D8008F7D8093D8008091E1008F7E3F
:105290008093E1008091E2008F7E8093E200809114
:1052A000E20081608093E20080913203882309F458
:1052B00049C084E0809336030E9432258091E1004A
:1052C00083FF29C08091E20083FF25C08091E10027
:1052D000877F8093E10082E080933603109232034F
:1052E0008091E1008E7F8093E1008091E2008E7FCB
:1052F0008093E2008091E20080618093E20042E0CE
:1053000060E080E00E94D5278091F0008860809363
:10531000F0000E942625FF91EF91BF91AF919F91E0
:105320008F917F916F915F914F913F912F910F904E
:105330000FBE0F901F90189519BC109236030E9453
:10534000232570CF8091E30087FD93E0909336038F
:10535000B3CF1F920F920FB60F9211242F933F934A
:105360004F935F936F937F938F939F93AF93BF936D
:10537000CF93DF93EF93FF93D091E900DF7080919B
:10538000EC00C82FC17080FDC0E81092E900809148
:10539000F000877F8093F00078940E94ED291092AE
:1053A000E9008091F00088608093F000CD2BCF70F1
:1053B000C093E900FF91EF91DF91CF91BF91AF9141
:1053C0009F918F917F916F915F914F913F912F911D
:1053D0000F900FBE0F901F901895AAE2B0E0E3EF78
:1053E000F9E20C94FA2B87E393E02091F100FC01A1
:1053F0002193CF01F3E08F339F07B9F70E94522525
:105400008091E80083FF1EC180913703909138039B
:105410009A3008F017C1E92FF0E0EC5AF24D0C94E5
:10542000B42B803899F0823809F00CC180913B038D
:105430008F70873008F006C18093E9008091EB00FF
:1054400085FB882780F91092E90006C0809133031C
:1054500090913403911182609091E800977F90932E
:10546000E8008093F1001092F1008091E8008E77BF
:10547000E5C0882309F4D3C0823009F0E3C08091ED
:1054800039038111D6C080913B038F702FEF280F15
:10549000263008F0D7C08093E9002091EB0020FF70
:1054A000C8C0933031F48091EB0080628093EB00B0
:1054B000C0C09091EB0090619093EB0021E030E050
:1054C00001C0220F8A95EAF72093EA001092EA00C1
:1054D0008091EB008860EACF8111B4C0109139034C
:1054E0001F778091E3008078812B8093E300809187
:1054F000E800877F8093E8000E9409288091E800F7
:1055000080FFFCCF8091E30080688093E30082E01D
:10551000111183E08093360395C08058823008F0E3
:1055200091C08091390390913A038C3D23E092071A
:10553000A1F583E08A838AE289834FB7F894DE017C
:10554000139620E03EE051E2E32FF0E05093570045
:10555000E49120FF03C0E295EF703F5FEF708E2F64
:1055600090E0EA30C0F0C7968D939D932F5F243171
:1055700059F74FBF8091E800877F8093E8006AE287
:1055800070E0CE0101960E9418278091E8008B7789
:105590008093E80057C0C096E7CF60913B037091BD
:1055A0003C03AE014F5F5F4F0E945326BC01892B25
:1055B00009F448C09091E800977F9093E8008981B2
:1055C0009A810E947627E1CF8038E1F58091E8004A
:1055D000877F8093E800809132038093F10045CF6C
:1055E000811130C090913903923060F58091E800CC
:1055F000877F8093E800909332030E94092880916E
:105600003203882311F084E005C08091E30087FD18
:10561000FACF81E0809336030E943D2513C080912C
:105620003903813079F481E0933009F080E0809390
:1056300034031092E9008091E800877F8093E800AE
:105640000E9409288091E80083FF0AC08091E80049
:10565000877F8093E8008091EB0080628093EB006D
:10566000AA96E3E00C94162C0895CF93809136030C
:105670008823A1F0C091E900CF709091EC00892FB0
:10568000817090FD80E8C82B1092E9008091E800BD
:1056900083FD0E94ED29CF70C093E900CF9108955A
:1056A000991B79E004C0991F961708F0961B881F74
:1056B0007A95C9F78095089587FB082E062687FD01
:1056C000819567FD61950E94502B0EF4919507FC22
:1056D00081950895AA1BBB1B51E107C0AA1FBB1FE0
:1056E000A617B70710F0A61BB70B881F991F5A956E
:1056F000A9F780959095BC01CD01089597FB072EE1
:1057000016F4009407D077FD09D00E946A2B07FC9D
:1057100005D03EF4909581959F4F089570956195C1
:105720007F4F0895A1E21A2EAA1BBB1BFD010DC0DD
:10573000AA1FBB1FEE1FFF1FA217B307E407F50741
:1057400020F0A21BB30BE40BF50B661F771F881F1D
:10575000991F1A9469F760957095809590959B01B3
:10576000AC01BD01CF010895EE0FFF1F0590F4912C
:10577000E02D09940E94C22B332312F48A1B9B0B49
:105780000C94D32BA29FB001B39FC001A39F700DB7
:10579000811D1124911DB29F700D811D1124911D39
:1057A00008950E94C22BB7FF0895821B930B0895A2
:1057B0000E94C22BA59F900DB49F900DA49F800DB9
:1057C000911D11240895B7FF0C94D82B0E94D82B5B
:1057D000821B930B08952F923F924F925F926F928C
:1057E0007F928F929F92AF92BF92CF92DF92EF9271
:1057F000FF920F931F93CF93DF93CDB7DEB7CA1BF2
:10580000DB0B0FB6F894DEBF0FBECDBF09942A881C
:10581000398848885F846E847D848C849B84AA84C4
:10582000B984C884DF80EE80FD800C811B81AA8151
:10583000B981CE0FD11D0FB6F894DEBF0FBECDBF1C
:10584000ED0108958F929F92AF92BF92CF92DF9217
:10585000EF92FF92CF93DF93EC01688179818A8187
:105860009B81611571058105910521F464E279ED53
:105870008BE597E02DE133EF41E050E00E94E92C09
:1058800049015A019B01AC01A7EAB1E40E94D82B5F
:105890006B017C01ACEEB4EFA50194010E94E62BF4
:1058A000DC01CB018C0D9D1DAE1DBF1DB7FF03C0DC
:1058B0000197A109B04888839983AA83BB839F7706
:1058C000DF91CF91FF90EF90DF90CF90BF90AF909E
:1058D0009F908F9008950E94222C089580E091E07F
:1058E0000E94222C0895B0E0A0E0809300019093E4
:1058F0000101A0930201B09303010895FC014150FE
:10590000504030F001900616D1F73197CF0108953D
:10591000882799270895FB01DC0104C08D9101902F
:10592000801921F441505040C8F7881B990B089505
:10593000FB01DC0102C001900D9241505040D8F7AC
:105940000895F999FECF92BD81BDF89A992780B547
:105950000895A6E1B0E044E050E00C94DB2CA8E10F
:10596000B0E042E050E00C94DB2C262FF999FECFFA
:1059700092BD81BDF89A019700B4021639F01FBAA2
:1059800020BD0FB6F894FA9AF99A0FBE08950396BF
:10599000272F0E94B62C0E94B52C252F0E94B62CD2
:1059A000242F0C94B62C0196272F0E94B62C0C9411
:1059B000B52CDC01CB01FC01F999FECF06C0F2BD8C
:1059C000E1BDF89A319600B40D9241505040B8F7BD
:1059D0000895052E97FB1EF400940E94002D57FD9C
:1059E00007D00E94922B07FC03D04EF40C94002D9C
:1059F00050954095309521953F4F4F4F5F4F0895FB
:105A000090958095709561957F4F8F4F9F4F08952A
:105A1000F894FFCF1A071A076B076B07DE07FA0720
:105A200049074907FF0770087F087F08981D9F1DD9
:105A3000A61DAB1DB01DB51DBA1DBF1DC41DC91DC2
:105A4000CE1DD31DD71DDC1DDF1DE21DE51DE81D8C
:105A5000EA1DED1DEF1D781EEC1E801E4A1E4E1E17
:105A6000841E521E881E941E5E1EE51E621E981E17
:105A7000661E9C1EC41E6A1EA01ECB1E701EA61E85
:105A8000AE1E561E8C1E5A1E901E741EAA1EBA1ED4
:105A9000D41EE31E441E7C1EF31EAD22B3229C22A4
:105AA000A722B922BF22C522112A392A222B392A3C
:0C5AB000222B6C2A8D2A222BE42AF02ADB
:105ABC0001000000FF004702280850011E0A1401D3
:105ACC00010102000B000B0B01191A1B1C1D1E1FE0
