:100000000C94FB020C9433030C9433030C943303D1
:100010000C9433030C9433030C9433030C94330388
:100020000C9433030C9433030C940E290C94E229A2
:100030000C942B240C9433030C9433030C9433034F
:100040000C9433030C9433030C9433030C94330358
:100050000C9433030C94B2240C9433030C943303A8
:100060000C9433030C9433030C9433030C94330338
:100070000C9433030C9433030C9433030C94330328
:100080000C9433030C9433030C9433030C94330318
:100090000C9433030C9433030C9433030C94330308
:1000A0000C9433030C9433030C9433032B0014008F
:1000B0001A00080015001700292104001600070087
:1000C00009000A00E1001D001B00060019000500E0
:1000D0001C0018000C00120013002A000B000D0079
:1000E0000E000F00330034001100100036003700FE
:1000F00038002832E30021522C002252E600000092
:100100002A004C002F0A300A2F083008E100E000D6
:10011000E200E30052004B0050084F084E00500030
:1001200051004F0035012F0024002500260030002B
:10013000AF522E00210022002300330001003100C5
:100140001E001F00200035000100010028000000F3
:10015000270000002F02240225022602300201009F
:1001600033022102220223022E02010035021E0266
:100170001F022002310201002F0A300A2F08300826
:100180004C002A00D100CD00E300E200E000E100D5
:10019000CF00CE00D000D200D900DA002702000044
:1001A0002A000100010000002078217827782578B6
:1001B000237829783A003B003C003D003E003F0098
:1001C000400041004200430044004500010001009E
:1001D000010001000100007C01000100E300E200D9
:1001E000E000E1000100AC00AB00AA00A900AE00F5
:1001F0000100010000000100010000001E0F0500C9
:10020000047F3F1F643214643214783C1E1E140AAB
:10021000052223252628292A2C2D2F303233353646
:10022000383A3B3D3E4042434547494A4C4E505187
:10023000535557595A5C5E6062646668696B6D6FAE
:1002400071737577797B7D7F81838587898A8C8EB1
:1002500090929496989A9C9E9FA1A3A5A7A8AAACB9
:10026000AEAFB1B3B4B6B8B9BBBCBEBFC1C2C3C5F3
:10027000C6C7C9CACBCCCDCED0D1D2D2D3D4D5D695
:10028000D7D7D8D9D9DADADBDBDBDCDCDCDCDCDDC8
:10029000DDDDDDDCDCDCDCDCDBDBDBDADAD9D9D8AC
:1002A000D7D7D6D5D4D3D2D2D1D0CECDCCCBCAC944
:1002B000C7C6C5C3C2C1BFBEBCBBB9B8B6B4B3B173
:1002C000AFAEACAAA8A7A5A3A19F9E9C9A9896940E
:1002D00092908E8C8A89878583817F7D7B797775E3
:1002E00073716F6D6B6968666462605E5C5A5957C2
:1002F000555351504E4C4A4947454342403E3D3B81
:100300003A3836353332302F2D2C2A29282625230A
:1003100022FFAA7F554000010101010101010101F5
:1003200002020202020202020203030303030303A6
:100330000304040404040404050505050506060673
:100340000606070707070708080808090909090A30
:100350000A0A0B0B0B0C0C0C0D0D0D0E0E0E0F0FD5
:100360000F10101111111212131314141515161663
:100370001717181819191A1A1B1B1C1D1D1E1E1FD2
:100380002020212222232424252626272829292A21
:100390002B2C2D2D2E2F3031323233343536373849
:1003A000393A3B3C3D3E3F40414243444546474845
:1003B000494A4C4D4E4F50515354555658595A5B1B
:1003C0005D5E5F616264656668696B6C6D6F7072BB
:1003D000737577787A7B7D7E8082838587888A8C27
:1003E0008E8F91939596989A9C9EA0A2A3A5A7A95B
:1003F000ABADAFB1B3B5B7BABCBEC0C2C4C6C9CB52
:10040000CDCFD1D4D6D8DBDDDFE2E4E7E9EBEEF007
:10041000F3F5F8FAFDFF00000000000000002A2BB1
:1004200028000000000000000000000000000000A4
:100430000029000000002C1E34202122243426270D
:10044000252E362D3738271E1F202122232425262E
:100450003333362E37381F0405060708090A0B0CFC
:100460000D0E0F101112131415161718191A1B1C44
:100470001D2F3130232D350405060708090A0B0C02
:100480000D0E0F101112131415161718191A1B1C24
:100490001D2F3130354C000000000000000000002E
:1004A000000000000000000000000000000000004C
:1004B000000000000000000000007E0F00D4FFFFDD
:1004C000FFC7000000781403720065007600690021
:1004D00075006E0067003400310000000C036700F7
:1004E000740069007000730000000403090409022D
:1004F0003B00020100A0FA09040000010301010011
:1005000009211101000122400007058103080001B3
:10051000090401000103000000092111010001226A
:100520007B00070582032000011201000200000089
:10053000080778CBDC01000102000105010902A1D6
:100540000185020901A100050919012908150025E5
:1005500001950875018102050109300931158125D0
:100560007F95027508810609381581257F950175EB
:10057000088106050C0A38021581257F950175084A
:100580008106C0C005010980A101850319012AB7B0
:1005900000150126B700950175108100C0050C09F2
:1005A00001A101850419012AA002150126A00295C6
:1005B0000175108100C005010906A101050719E0B8
:1005C00029E7150025019508750181029501750837
:1005D00081010507190029FF150026FF0095067502
:1005E00008810005081901290595057501910295F5
:1005F0000175039101C011241FBECFEFDAE0DEBF09
:10060000CDBF04B603FE18C0809141039091420310
:10061000A0914303B09144038730904BA740B04B67
:1006200059F4109241031092420310924303109226
:100630004403E0E0F8E3099511E0A0E0B1E0EEE268
:10064000FBE502C005900D92AA3DB107D9F723E062
:10065000AAEDB1E001C01D92A134B207E1F70E94FA
:1006600021140C94412D0C940000CF93DF93EB01E7
:10067000892B09F045C081E00E941B0A882319F1EB
:10068000CA81CC2351F00E948B249093DD0180938A
:10069000DC0183E00E942F0A0CC083E00E943F0A25
:1006A0008091DC019091DD010E94A324883C91059A
:1006B00010F0C0E004C08DE290E00E9422048C2F74
:1006C000DF91CF91089582E00E941B0ACA8188239E
:1006D00089F0C111D8CF83E00E943F0A8091DC01EC
:1006E0009091DD010E94A324883C910510F78DE2D2
:1006F00092E0E3CF83E0C111CDCF0E943F0ADFCF6C
:10070000C1E0DDCF8430B8F46730A8F4463098F407
:1007100050E096E0699F400D511D1124FA019AE2C4
:10072000899FE00DF11D1124EE0FFF1FE455FF4FCF
:1007300085919491089581E090E008950E9482034C
:1007400008959C013A9521153F4150F5FC01EE2793
:10075000F170BC0166277270AC01442754709C0193
:100760002227387094FF0EC080E1EF2B09F480E05F
:10077000672B09F08062452B09F08064232B89F0F8
:100780008068089581E0EF2B09F480E0672B09F081
:100790008260452B09F08460232B19F0886008954E
:1007A00080E00895CF93DF93EB010E94A103FE0147
:1007B0000995DF91CF910895CF93DF93EC01805E8F
:1007C0009109089720F060E679E0209711F46CE039
:1007D00077E0CE010E94D2038C2F0E94FF05DF91AB
:1007E000CF910895CF93DF93EC010E949106CE0143
:1007F000805E9109089720F067E679E0209711F470
:1008000063E177E0CE010E94D203DF91CF9108959A
:100810000F931F93CF93DF938C01EB010E94DC03B6
:10082000209741F4C8010E94F203DF91CF911F91FC
:100830000F9108958FE99FE00197F1F700C0000044
:100840002197EECF70E060E08933910511F460E507
:1008500070E00E940804089581E008950E94350325
:10086000089508950E9431040895A5E0B0E0EBE3F7
:10087000F4E00C94332C49835A833091EA01898146
:100880009A81311119C0662399F0222389F00E94C0
:10089000F50A182F682F89819A810E94D10A6981EF
:1008A0007A81812F0E94C4112596E3E00C944F2C8D
:1008B0000E94E30A182FF3CF0E94F50A69817A811A
:1008C000F1CFFC01262F40815181628173818481A7
:1008D0000E943504089581E00895CF93DF93EC01E1
:1008E00060E00E946104BE010E943204DF91CF915A
:1008F000089508950E9484090E9479042FEF84E3EB
:100900009CE0215080409040E1F700C00000089535
:100910000E947A040E94D62408950E947A040E94BC
:10092000FA2408950F931F93CF93DF938C0161E016
:100930000E946104EC01B8010E942E04811106C0DE
:1009400080E0DF91CF911F910F910895B801CE0102
:100950000E9453218823A1F3B801CE010E94C9222D
:10096000882371F3B801CE010E94591E882341F3F8
:10097000B801CE010E943B22882311F3B801CE01B9
:100980000E94BB1D8823E1F2F8018281882361F077
:10099000C330FCE7DF07E9F058F4C115ECE7DE07E8
:1009A000A9F0C130DC47B9F0C8010E942C04C9CFBE
:1009B000CB358CE7D807A9F0CC35ECE7DE0771F032
:1009C000CA35DC4789F70E94260FEECF0E948804C3
:1009D000B7CF0E942E0F0E948D04B2CF0E941C0F31
:1009E000E3CF0E942A0FE0CF0E9408240E949805BE
:1009F0000E94211C08950E949C050E94F81C0E94E0
:100A00000D2408952F923F924F925F926F927F92A2
:100A10008F929F92AF92BF92CF92DF92EF92FF920E
:100A20000F93CF93DF931C0129013A016B0181E001
:100A3000C81AD108E101CC0DDD1D1882F12CE12C82
:100A40008AE0882E912CA12CB12CEC14FD0498F096
:100A5000C101DF91CF910F91FF90EF90DF90CF9088
:100A6000BF90AF909F908F907F906F905F904F90CE
:100A70003F902F900895C301B201A50194010E94F7
:100A8000CB2B605D603319F4E114F10431F04114B3
:100A900051046104710409F4602F6A93C301B20127
:100AA000A50194010E94CB2B29013A018FEFE81A8E
:100AB000F80ACBCF0F93209104013091050128173C
:100AC000390721F42091E401261791F09093050154
:100AD000809304016093E4019C0150E040E0062F04
:100AE00066E070E08EED91E00E9402050F9108959E
:100AF0008EED91E0FBCF089581E008950895CF93A6
:100B0000DF93D82F0E947C05C82F882319F08D2FE2
:100B10000E947E058C2FDF91CF9108950895CF9389
:100B2000C82F0E947B058C2F0E947F05CF910895CE
:100B300080E00E948F0508950E9417230E948F0570
:100B40000895CF930E941723C82F8091E5018C1739
:100B500079F0C093E5010E9497246093E6017093B9
:100B6000E7018093E8019093E9018C2F0E948F05A3
:100B7000CF910895ABE0B0E0E0ECF5E00C94342CBC
:100B80004F83588769877A878B8761110E94670E28
:100B90001E821D8285E0FE013796DE0111960190CE
:100BA0000D928A95E1F78C819D81892B61F44981B1
:100BB0005A816B817C818D819E810E948F0D2B9645
:100BC000E2E00C94502C89819A8189238F3F79F33C
:100BD000CE0101960E946B048111E9CFF0CFFC0198
:100BE000808191810E94270B0895662329F00E943D
:100BF000A5140E94781508950E94FF14FACFCF9390
:100C0000C82F8823C9F08238C9F40E94172381FDB8
:100C100013C089E30E941F0E0E94880E2FEF87EEFB
:100C200093E0215080409040E1F700C0000089E34C
:100C30000E94270E0E94880ECF9108958338A1F458
:100C40000E94172380FDF8CF83E50E941F0E0E94AB
:100C5000880E2FEF81EE94E0215080409040E1F724
:100C600000C0000083E5E4CF8438A1F40E9417237C
:100C700082FDE2CF87E40E941F0E0E94880E2FEFB4
:100C800081EE94E0215080409040E1F700C00000E8
:100C900087E4CECF8CEF8C0F813A90F46C2F80914B
:100CA0000601909107010E949923882329F08C2F37
:100CB0000E94270E0E94880E8C2F0E941F0EBACF12
:100CC00080E28C0F883048F4C77081E001C0880F43
:100CD000CA95EAF70E944A0EADCFEBE5EC0FE33080
:100CE00040F4F0E0EB59FE4F808190E00E943D23FC
:100CF000A3CFE8E5EC0FEB3150F4F0E0EE0FFF1F6F
:100D0000E15DFE4F808191810E94622395CF83E354
:100D10008C0F833108F090CF61E08C2F0E94F50595
:100D20008BCF882309F456C0823879F40E941723A8
:100D300081FF50C089E30E941F0E0E94880E89E344
:100D40000E94270E0E94880E0895833859F40E944D
:100D5000172380FF3FC083E50E941F0E0E94880E6C
:100D600083E5EECF843859F40E94172382FF32C006
:100D700087E40E941F0E0E94880E87E4E1CF9CEF5B
:100D8000980F913AE8F290E2980F983050F48770FB
:100D900091E001C0990F8A95EAF7892F0E94500EC1
:100DA000D1CF9BE5980F933028F490E080E00E942B
:100DB0003D23089598E5980F9B3128F490E080E05A
:100DC0000E946223089593E3980F933118F460E032
:100DD0000E94F50508951F93CF93DF93182FEB0121
:100DE0000E94FF05209739F4812F0E949106DF9120
:100DF000CF911F9108958FE99FE00197F1F700C00F
:100E000000002197EFCF70E060E0893311F460E5D6
:100E100070E00E94EB060895882321F00E944A0E9C
:100E20000E94880E0895882321F00E94500E0E948F
:100E3000880E0895B0E0A0E0E0E2F7E00C942D2CDD
:100E40006C01D62FC72FFC011281058102950F700E
:100E50000E94400EE82E8823E9F0E12E1123D1F004
:100E60008C2F807F803451F080E28D0F8830F8F035
:100E7000011104C08C2F807E8032C9F08091FB026A
:100E800082FF15C082E00E94EB0E0E94400E91E0AE
:100E9000E82EE926BC2EB2949FE0B922FBE0FB15B8
:100EA000B8F1EB2DF0E0ED5BF24D0C94ED2BE12C65
:100EB000F1CF0C2F0F70C07F11F00295007F11232E
:100EC00099F0002359F080E28D0F883010F0D11195
:100ED00007C0802F0E944A0E0E94880E8D2F63C08B
:100EE000802F0E945A0EF8CF8D2F0E94910600236A
:100EF00079F080E28D0F883010F0D11104C0802F7E
:100F00000E94500E03C0802F0E94600E0E94880E27
:100F10002B2D2850330B2430310520F40E94172349
:100F20000E948F05EE2089F00E943C0E80FD0DC0CE
:100F3000F60112820E94360E0E942F0AC6010E94FC
:100F400036090E94360E0E943F0ACDB7DEB7E9E0AF
:100F50000C94492C2C2F2F70F22EC07FC03219F028
:100F6000F29480EFF822DD2381F0D13009F449C0FA
:100F7000112309F451C0002309F448C0F60185810A
:100F800080FFACCF8F70858341C08091FB0282FDD2
:100F900015C0112359F0FF2029F08F2D0E944A0E11
:100FA0000E94880E80E00E94FF05B2CF80E00E9480
:100FB0009106FF2009F4ACCF8F2DA2CF112381F031
:100FC000011106C00E946A0E8F290E940C07A0CF53
:100FD0000130C1F70E946A0E8F290E94710E98CFCE
:100FE000011106C00E947E0E8F2D0E94130790CF24
:100FF000013009F48DCF8F2D0E9413070E947E0EC1
:1010000087CF112329F0063008F082CF8F2DDDCF56
:10101000053008F07DCFE8CF002331F3D93349F410
:10102000FFEF27EE33E0F15020403040E1F700C001
:1010300000008D2F0E9491066BCF8C2F8695869590
:10104000837069F0813009F063CF8D2F9C2F9370EE
:10105000111102C080E090E00E94622359CF8D2FD1
:101060009C2F9370111102C080E090E00E943D23FC
:101070004FCF612F8D2F0E94F5054ACF8C2F8370A3
:10108000A1F5111145CF4D2F429546954770440F5C
:10109000440F2D2F2F7030E0042E02C0220F331F7B
:1010A0000A94E2F790E080E0D4FF09C08FE090E07E
:1010B00002C0880F991F4A95E2F780959095C695D2
:1010C000C695C370822B932BC23049F058F4C130BF
:1010D00019F00E94E3091CCF0E94DA0919CF0E947F
:1010E000EC0916CF0E94D70913CF8695112311F072
:1010F0008C2F8170882309F40BCF4D2F4295469594
:101100004770440F440F2D2F2F7030E0042E02C083
:10111000220F331F0A94E2F790E080E0D4FF09C069
:101120008FE090E002C0880F991F4A95E2F7809502
:101130009095C695C695C370822B932BC23049F00B
:1011400058F4C13019F00E946A0AE2CE0E94610A86
:10115000DFCE0E94730ADCCE0E94FB09D9CECF708D
:10116000112329F08C2F0E942F0A8D2F2ECF8D2F27
:101170000E9413078C2F0E943F0ACACED23F41F132
:1011800060F4D03FB9F0D13F81F0112309F446C09B
:101190000111A4CE8C2F8F711FC0D33F01F1D43F1A
:1011A000A1F78091FB0282FD24C08C2F8F71112347
:1011B00011F312C0112341F0053008F0A9CE8C2F95
:1011C0008F710E94510AA4CE063008F0A1CEF7CF4D
:1011D0008C2F8F711111CFCF0E942F0A99CE11231E
:1011E00029F08C2F8F710E94230A92CE0E94020A4E
:1011F0008FCE112349F0CF718C2F0E942F0A63E00C
:101200008C2F0E94CD0E84CE81E00E94EB0E023026
:1012100008F47ECE82E00E94EB0E7ACE002359F0D5
:10122000D93309F006CF8FEF97EEE3E0815090407D
:10123000E040E1F7FCCE8C2F8F719DCF0F931F9371
:10124000CF93DF93EC01688179818A810E94320B10
:101250008C010E947C0A0E94D609B801CE010E942E
:101260001A07DF91CF911F910F910895CF93DF93CC
:10127000EC018B819C81892B29F0888199818923BC
:101280008F3F51F4DF91CF910895CE010E941E0946
:10129000CE010E946D04F6CFCE010E94920481110E
:1012A000F4CF0E94400E882369F38A81882351F38A
:1012B0008091FB0282FFE6CF82E00E94EB0EE2CF3C
:1012C000882321F00E945A0E0E94880E08958823D8
:1012D00021F00E94600E0E94880E089590E080E048
:1012E0000E943D2390E080E00E9462230E94670EEE
:1012F0000E94880E0E9494150E94781508950E94FD
:101300002F0E0E946E0908950E94570E0E947F09B9
:10131000089592959F70963091F058F4925F9F7067
:10132000923058F4803F19F030F4883E30F481E078
:1013300008959A5FF4CF843FD1F380E00895883E0A
:10134000B0F3813FD1F7F3CFFC0183819481892BE6
:1013500029F08081918189238F3F11F480E00895E5
:10136000808191810E94270B0E9489090895A5E040
:10137000B0E0EDEBF9E00C94342C2596E2E00C940F
:10138000502CA6E0B0E0E7ECF9E00C94342C269663
:10139000E2E00C94502C08950E94CB0908950E941D
:1013A000CC099093060280930502089508950E9447
:1013B000CF0908952091050230910602822B932BCC
:1013C0000E94CF09089520910502309106028223E0
:1013D00093230E94CF0908952091050230910602BF
:1013E000822793270E94CF0908950E94CB09089570
:1013F0000E94F50908950E94F809909304028093D1
:101400000302089590E080E00E94FB090895009790
:1014100029F481E0662371F080E00CC021E030E027
:1014200002C0220F331F6A95E2F72823392381E097
:10143000232B91F30895682F809103029091040269
:101440000E94070A089521E030E0A90102C0440F7C
:10145000551F8A95E2F7CA010E94FB09089521E011
:1014600030E002C0220F331F8A95E2F78091030219
:1014700090910402822B932B0E94FB09089521E096
:1014800030E002C0220F331F8A95E2F72095309595
:101490008091030290910402822393230E94FB090E
:1014A000089521E030E002C0220F331F8A95E2F751
:1014B0008091030290910402822793270E94FB09E6
:1014C00008952091030230910402822B932B0E94F5
:1014D000FB09089520910302309104028223932393
:1014E0000E94FB0908952091030230910402822793
:1014F00093270E94FB0908950895262F277091E0F5
:1015000001C0990F2A95EAF723E0769567952A9509
:10151000E1F7660F771F660F771FFA01E60FF71FD7
:1015200050E040E0682F70E08191DF0111979B014E
:10153000042E02C0369527950A94E2F72170219572
:101540002827292328272C934F5F5F4F44305105CC
:1015500059F70895A82FA77023E0969587952A95A7
:10156000E1F7880F991F880F991FFB01E80FF91FFA
:1015700050E040E080E0219130E00A2E02C0369534
:1015800027950A94E2F721703327042E01C0220F19
:101590000A94EAF7822B4F5F5F4F4430510559F7A9
:1015A0000895262F973070F4863060F4682F70E02D
:1015B00086E0989F600D711D11244BEE51E0822F43
:1015C0000E947D0A0895292F973068F4863058F4D8
:1015D00090E06BEE71E036E0239F800D911D1124A9
:1015E0000E94AA0A089580E00895B0E0A0E0EBEF21
:1015F000FAE00C942D2C7C0100910302109104025E
:101600008091050290910602082B192BCFE0D0E0C3
:10161000CC24C394D12CBC2EC6010C2E02C0880F42
:10162000991F0A94E2F780239123892B49F421978B
:1016300090F7B12C8B2DCDB7DEB7E9E00C94492C97
:10164000B7018C2F0E94D011019789F3F3CFCF936C
:10165000DF93EC010E94F50ABE010E94D011DF91D8
:10166000CF9108951F93CF93DF93EB019091EA01FF
:10167000992339F0CB010E94270BDF91CF911F9165
:101680000895882369F0CB010E94F50A182F682F6E
:10169000CE010E94D10ABE01812F0E94D011EDCF50
:1016A000CB010E94E30A182FF6CF1F93CF93DF934D
:1016B000C091070216E0809108028C1304C0DF91EC
:1016C000CF911F910895D0E01C9FF0011D9FF00D58
:1016D0001124E75FFD4F40815181628173818481D4
:1016E00095810E94C1092196C770E5CF40913902CA
:1016F00050913A0260913B0270913C0280913D0210
:1017000090913E020E94C109089520910702909194
:10171000080256E0291302C080E0089530E0529F8D
:10172000F001539FF00D1124E75FFD4F7181761397
:1017300006C07081781303C07281741304C02F5FD8
:101740003F4F2770E7CF81E008951F93CF93DF933A
:1017500080913E02807F09F04BC080913B0288233C
:1017600009F446C080910702C091080240913902F5
:1017700050913A0260913C0270913D02D42FD523E2
:1017800016E0C817A9F190E061157105A9F1DF3FD6
:1017900099F1189FF001199FF00D1124DF01A75F47
:1017A000BD4F11962C911197251326C02C9124130F
:1017B00023C012962C91129721111EC013962D91C1
:1017C0003C91261B370B283C3105B0F480913E023A
:1017D0008F70806180933E02E25FFD4F80818F7049
:1017E0008061808389E392E00E9436090E94550B54
:1017F000DF91CF911F91089501968770C2CFA1E12B
:10180000B0E0E5E0FCE00C942A2C8C0185E0F801C6
:10181000DE011D9601900D928A95E1F7F801F280A4
:1018200089E3A82E82E0B82E40913C0250913D02FF
:101830004115510509F45AC19091390220913A029B
:10184000892F82238F3F09F451C1C080D1808380CA
:101850009480E0903B02B401641B750BEE2009F408
:10186000F6C080913E02382F307F683C710508F049
:10187000AFC031117AC0EF2C2D1116C09C1114C0CD
:10188000F11012C08F70806180933E020E94760B2F
:10189000C5010E94360980913E02F80185838E2D94
:1018A0006196ECE00C94462C81149104C9F18C2DC6
:1018B0008D218F3FA9F181E08F2580FF05C04F2D3D
:1018C0006D2D8C2D0E94850B8114910459F18C2D66
:1018D0008D218F3F39F181E08F25F82FF170BF2ED8
:1018E00080FF39C04F2D6D2D8C2D0E94850BA82EA9
:1018F000811131C0CD86DE868D859E850E94270BA5
:10190000292F22952F70243078F49F702230A8F070
:101910009923B9F0F8019581907F99F4EA2CBFCF13
:1019200080E0CBCF80E0D9CF2A5F2F70223068F0E3
:10193000C8010E943609AB2CF1CF992311F08823FE
:1019400069F3805E883050F3F3CF803F38F3815FD6
:10195000833070F7E3CFFF2009F4A1CF80913E02DE
:10196000816080933E02E12C9ACF2D1105C09C111D
:1019700003C0FF2009F486C0C8010E94A40988237F
:1019800019F1FF2009F180913E02803270F0209120
:10199000390230913A0238872F8319869B868A86CE
:1019A0008C87CE0107960E94360986E0F801A9E3EC
:1019B000B2E001900D928A95E1F70E94A50B0E947A
:1019C000760BEE24E3946BCFC8010E943609F9CF61
:1019D000311114C0782D998A888AA6016F2D8989C2
:1019E0000E94B70989E392E00E94360986E0F5017A
:1019F00011928A95E9F70E94760BB5CF2D110EC092
:101A00009C110CC0F1100AC08583C8010E943609E0
:101A100086E0F50111928A95E9F741CFC8010E944D
:101A2000A409882389F2FF2079F280913E02803256
:101A300008F4BBCF2091390230913A023A832983CE
:101A40001B829D828C828E83CE010196ACCF683C36
:101A5000710508F03DC0EF2CFF2009F4B5CF2D1122
:101A600029C09C1127C080913E0280FD1AC0982F8A
:101A7000907FB9F08583903F31F0982F907F905FF1
:101A80008F70892B8583C8010E94360986E0F80192
:101A9000A9E3B2E001900D928A95E1F70E94760BDE
:101AA000FECE86E0F801A9E3B2E001900D928A959E
:101AB000E1F7F5CEC8010E94A409811176CF80918B
:101AC0003E02816080933E02C8010E943609E7CE43
:101AD000782D998A888AA6016F2D89890E94B70975
:101AE00086E0F50111928A95E9F7D8CFFF2009F435
:101AF0006BCFC8010E94A409E82E882309F464CFA3
:101B000086E0F801A9E3B2E001900D928A95E1F731
:101B100089E392E00E94EF050E94A50BBFCFACE0E5
:101B2000B0E0E5E9FDE00C94332C4F8358876987DA
:101B30007A878B879C87CE0107960E94FF0B8823AC
:101B4000B1F08A859B85892B39F04F815885842F88
:101B500085238F3F09F06CC016E0809107029091B9
:101B60000802891343C02C96E3E00C944F2C86E0C6
:101B7000FE013796DE01119601900D928A95E1F7EC
:101B80008A859B85892B41F38F81988589238F3F97
:101B900019F32091080230E0C90101968770992756
:101BA000409107024817190671F40E9484091092A7
:101BB00008021092070286E0E9E3F2E0DF011D92DD
:101BC0008A95E9F7C9CF96E0929FD001939FB00D17
:101BD0001124A75FBD4FFE01319601900D929A9599
:101BE000E1F7809308020E94550BB6CF819FC00198
:101BF0001124875F9D4F0E94FF0B882309F4B3CF08
:101C0000E09107021E9FF0011124E75FFD4F408124
:101C1000518162817381848195810E94C109809183
:101C2000070290E00196877099278093070295CF6D
:101C300069857A858B859C850E94C1098DCF682F27
:101C400080910601909107010E94CF230895682F8B
:101C500080910601909107010E94D22308958091FE
:101C60000601909107010E94D523089580914702B3
:101C7000859585958595089580914702877008958B
:101C800090914702977081E009F480E00895809177
:101C90005202089590915202892B80935202089526
:101CA0008095909152029823909352020895109239
:101CB0005202089590915102892B80935102089508
:101CC000809590915102982390935102089510921B
:101CD0005102089580914802089508950E946D0E62
:101CE00008959091FB0292FF08C0909148029817C6
:101CF00021F0809348020E946E0E08958091480260
:101D0000882329F01092480280E00E946E0E089508
:101D1000CF93DF93E0910601F09107018091520289
:101D20008083E0910601F09107018081909151023A
:101D3000892B808390914802992381F0E0910601DC
:101D4000F09107018081892B808380910601909119
:101D500007010E94872381110E947E0EC091060117
:101D6000D091070148E050E06FE372E0CE010E949D
:101D7000C42C892B59F088E0FE01AFE3B2E001905A
:101D80000D928A95E1F7CE010E942423DF91CF9135
:101D9000089508950E94C90E08959091FB0292FF44
:101DA00011C098E0899F90011124622B6093470233
:101DB0000E942F0A809147028595859585950E94FE
:101DC000CA0E08950E942F0A08951092470280E0DB
:101DD0000E94CA0E089590914702809589238093AE
:101DE0004702282F277091F4282F082E000C330B60
:101DF0009217130659F09091FB0292FF07C0859548
:101E0000859585950E943F0A0E94E50E0895909160
:101E1000FB0292FB222720F9281769F080FB92F938
:101E20009093FB028091FA029091FB020E944F0F67
:101E300082E00E94EB0E08958091FB0282FB8827CE
:101E400080F991E089270E94070F089581E00E94A0
:101E5000070F089580E00E94070F08956FEF7FEF4E
:101E600090E080E00E940C2D089590E080E00E94B8
:101E7000E82C21E0873E9E4F09F020E0822F089554
:101E800082E090E00E94DA2C089583E090E00E94C6
:101E9000DA2C089584E090E00E94E82C0895BC01BB
:101EA00084E090E00E940C2D0895AB01BC018FE00E
:101EB00090E00E94002D0895AB01BC0183E190E009
:101EC0000E94002D089560E070E0CB010E945C0F3D
:101ED000089560E070E0CB010E94550F0E94630FEF
:101EE000089567EE7EEF90E080E00E940C2D60E0A8
:101EF00082E090E00E94EE2C60E083E090E00E949F
:101F0000EE2C109206021092050260E074E184E06B
:101F100090E00E940C2D60E086E090E00E94EE2CA4
:101F20006FEF87E090E00E94EE2C40E050E0BA01B5
:101F300088E090E00E94002D60E08DE090E00E943B
:101F4000EE2C40E050E0BA0188E190E00E94002DC4
:101F500060E087E190E00E94EE2C40E050E0BA01A2
:101F60008CE190E00E94002D70E060E080E290E063
:101F70000E940C2D40E050E0BA0188E190E00E9400
:101F8000002D0E94690F08950E94710F0895682F17
:101F90008EE090E00E94EE2C0895A5E0B0E0E3ED25
:101FA000FFE00C94322C0E948B248C018091530210
:101FB0009091540280179107A1F08FEF89838A8353
:101FC0001B820E948B248160782F9D838C834981A2
:101FD0005A816B818D810E94BA051093540200933F
:101FE00053022596E4E00C944E2C0E9497246093B3
:101FF0006002709361028093620290936302609327
:102000005C0270935D0280935E0290935F0208957C
:10201000089508950E940910089508950E940D10D2
:10202000089581E008958AEB92E10E940D230E94B9
:1020300008100E940A1008950E94111008950E942D
:102040001C100895089508950E9422100E942310E4
:1020500008950E94BD120E948E0508950E94822458
:102060000E9484130E9429100E94BC1C0E940E1022
:102070000895A5E0B0E0EFE3F0E10C942C2C0E9471
:10208000111081110EC00E94CD0F0E9412210E94DA
:10209000021D0E94B6150E94A1052596EAE00C9447
:1020A000482C0E949A1385E5A82E82E0B82E75016F
:1020B00010E0F70101917F01812F0E94E3121F5F61
:1020C000173009F440C00817A1F38091640281FD24
:1020D0000E94E9120E941F10C82E10E0812F0E945A
:1020E000E312082FF50181915F01081731F1D02E1D
:1020F000D826F12CEE24E3948D2D8E21B1F0CC2046
:10210000A1F0F9821A8391E0802F8E2109F490E0EA
:102110009B830E948B248160782F9D838C834981CF
:102120005A816B818D810E94BA05F394EE0CF6E022
:10213000FF12E2CFF501319700831F5F173071F670
:102140000E94F50FA2CF0813C0CF9DCF1F93CF934E
:10215000DF930E94D511EC01C11580E5D807F0F599
:10216000C11580E4D80708F09CC0C03ED10520F519
:10217000CD3CD10508F082C0C83AD10578F4C53A03
:10218000D10508F073C0C130D10519F1209709F1CC
:10219000C430D105F0F4D0E0C0E01BC0C33CD10591
:1021A000D0F7C85AD0E0CC0FDD1FC859DE4F0990D8
:1021B000D881C02DD4640DC0C11580E2D80708F0C5
:1021C000D1C0C11581E0D80708F05AC0C83ED1057A
:1021D00010F7CE01DF91CF911F910895C03682E5AF
:1021E000D80718F5C03482E5D80708F06BC0C032B4
:1021F00082E5D80708F05FC0C11582E5D80708F46A
:1022000097C02C2F2695269580E2289F90011124B7
:102210008C2F8370C1E0D0E002C0CC0FDD1F8A9507
:10222000E2F7C22BD32BDD68D4CFC03A82E5D807C2
:1022300060F4C03882E5D80708F459C0CF71D0E007
:10224000DC2FCC27C46FD06AC4CFC03C82E5D8074E
:1022500008F462C0C03E82E5D80708F09CCFDC2FAE
:10226000CC27CC27DF71C06FD06AB3CFC55AD0E07E
:10227000C256DE4FC881D0E0D064ABCFD065A9CFC5
:102280008D2F0E947712182FCE0199270E94D51109
:10229000C12FD0E0DC2FCC27CC27DF71C82BD92B66
:1022A00098CFCE0199270E94D511CC27DF70C82B7B
:1022B000D92BD06A8ECFCF71D0E0DC2FCC27C16F65
:1022C000D06A87CF2C2F26952695277080E2289FED
:1022D000900111248C2F8370C1E0D0E002C0CC0F9C
:1022E000DD1F8A95E2F7C22BD32BDC6872CF2C2F2F
:1022F00026952695277080E2289F900111248C2F27
:102300008370C1E0D0E002C0CC0FDD1F8A95E2F7F8
:10231000C22BD32BDA685DCF8C2F8F710E9477127E
:10232000C82FD0E0DC2FCC27CC27DF71D06251CF73
:102330008C2F8F710E94771255E0D695C7955A95CC
:10234000E1F7CF70D0E0DC2FCC27282F30E084FFDE
:1023500005C044E0220F331F4A95E1F7C22BD32B6F
:10236000D06937CF8D2F8F710E947712182FCE0131
:1023700099270E94D511C12FD0E0DC2FCC27CC2784
:10238000DF71C82BD92BD2CF462F773030F466308F
:1023900020F4672F0E949E03089590E080E0089546
:1023A0000E94C4110E94A610089582389105B9F1C7
:1023B000B0F48133910509F47DC048F48932910568
:1023C00009F46DC08A32910509F47BC00895853304
:1023D000910509F45FC08933910509F10895833EA1
:1023E0009105D9F138F4803E910529F1823E91059D
:1023F00079F10895863E9105D9F1873E910509F45A
:102400003EC0843E910541F52091FB0221FF24C08E
:102410008091FA0284FD19C087EE90E00895209122
:10242000FA02237009F05AC02091FB0223FF14C066
:1024300089E290E008952091FA0220FD38C03091A1
:10244000FB0230FF09C024FF43C090E080E0089504
:102450002091FA0222FDF7CF08952091FA0222FD81
:102460003AC03091FB0230FD39C024FFF5CFEDCFEB
:102470002091FA0223FFF0CF24FDE7CFCDCF2091AA
:10248000FA0223FD2EC03091FB0231FFEECF84EE25
:1024900090E008952091FA0225FFDECFC9CF209168
:1024A000FA0225FD21C02091FB0223FFD5CF89E34D
:1024B00090E0D2CF2091FA0226FFCECF8AE290E0C0
:1024C00008952091FA0226FFC7CF81E390E0089596
:1024D00083EE90E0089582EE90E0089580EE90E023
:1024E000089586EE90E0089585E390E00895909138
:1024F000FA0292FF06C0282F28712830F9F4877F4E
:10250000846093FF06C0282F28712831F1F4877E5C
:1025100084612091FB0220FF06C0382F38713830CB
:10252000D9F4877F816021FF06C0282F28712831C8
:10253000D1F4877E816194FD877E0895282F2471D0
:102540002430F9F68B7F8860DCCF282F247124316A
:1025500001F78B7E8861DDCF382F3171313019F76B
:102560008E7F8860E0CF282F2171213121F78E7E68
:102570008861E1CF80E0089508950E94350F8111B0
:1025800002C00E94C40F0E94400F809364020E9408
:102590004A0F9093FB028093FA020E94BC120E94A1
:1025A000450F90E00E94D7098091030290910402A8
:1025B0000E94F809089508950E94DB120895089575
:1025C0000E94DF120895E82FF0E0ED5FFC4F80815C
:1025D0000895089580EA8A95F1F7089500C0089556
:1025E0000E94EA120895F894E82FE295EF70F0E067
:1025F00031A1282F2F7081E090E001C0880F2A952B
:10260000EAF7982F9095932391A392A1892B82A307
:1026100078940895CF93DF93C7EAD1E089918F3FF3
:1026200011F00E94F31281E0CE3AD807B9F7C1EA5F
:10263000D1E089918F3F11F00E94F31281E0C73AF7
:10264000D807B9F7DF91CF910895B0E0A0E0EBE2B1
:10265000F3E10C942E2CEC01D62E062F10E0C801CD
:1026600089559E4F7C01FC0180818F3F09F445C054
:10267000F894E82FE295EF70F0E091A18F7021E0DF
:1026800030E001C0220F8A95EAF7892F822B81A3BF
:1026900082A12095282322A378940E94EE12E1EAD9
:1026A000F1E047EA51E031E0C12C21912F3F51F197
:1026B000A22FA295AF70B0E090968C9190E02F7011
:1026C00002C0959587952A95E2F780FD1BC0832F60
:1026D000C82A330F4E175F0741F7F70180818F3FFC
:1026E00011F00E94F31261E0C11001C060E08D2D75
:1026F0000E94F012C00FD11FC882CDB7DEB7E8E04C
:102700000C944A2C80E0E4CF0E940A1387E0E3E0B7
:10271000F3E0DF01982F1D929A95E9F7ECEFF2E0D4
:10272000DF011D928A95E9F787E00E94D5130E9488
:10273000DC120895A7E0B0E0E0EAF3E10C94312C5C
:102740008E010F5F1F4F87E0F80111928A95E9F71C
:10275000F12C6F2DC8010E942513F394F7E0FF12AE
:10276000F8CF47E050E0B8018CEF92E00E94C42C13
:1027700021E0009709F420E0892B41F087E0F8017F
:10278000ACEFB2E001900D928A95E1F747E063E08B
:1027900073E08CEF92E00E94D613182F0E94E01293
:1027A000812F2796E5E00C944D2C0895CF92DF926F
:1027B000EF92FF920F931F93CF936C017B01042F35
:1027C000222349F081E0809367020E948B2490933A
:1027D000660280936502C0916702C1110AC0C0E021
:1027E0008C2FCF911F910F91FF90EF90DF90CF90A2
:1027F000089580916502909166020E94A324059736
:1028000070F310E0A801B601C7010E94C42C892B07
:1028100041F0A801B601C7010E94D12C10926702B5
:10282000DFCFC0E0FBCF0E945F260E942E100E94E7
:102830006C2608950E9471260E9439100E948B26F2
:1028400008950E9424240E9445260E9413100E948D
:1028500013140E941A140E942410FBCF80916E0260
:1028600080FF0DC060910D0170E0660F771F60382A
:10287000710570F56115710569F1862F089581FF65
:1028800007C060910D0184E0689FB0011124EFCF73
:1028900060910D0182FD0AC080916D028823A9F02C
:1028A00020910C0160910D01821710F088E0ECCFAF
:1028B000869FC001112433E0880F991F3A95E1F7F4
:1028C000622F70E00E94B72BD2CF68E070E0D5CFC6
:1028D0008FE7089581E0089580916E0280FF0CC01B
:1028E0006091090170E0759567957595679561151B
:1028F000710549F1862F089581FF06C06091090195
:1029000070E075956795F3CF6091090182FD0BC06A
:1029100090916C029923A1F06091080180910901C6
:10292000961738F0682F70E06038710500F38FE774
:102930000895899FC001112470E00E94B72BF4CF45
:1029400061E070E0D7CF81E008958D3C31F40E94C2
:102950002E1481958093720208958E3C19F40E9482
:102960002E14F8CF8F3C31F40E942E148195809361
:1029700071020895803D19F40E942E14F8CF893D0C
:1029800029F40E946C148093730208958A3D21F407
:102990000E946C148195F7CF8B3D31F40E946C142A
:1029A00081958093740208958C3D19F40E946C14F3
:1029B000F8CF9FE2980F983070F4815D990B21E079
:1029C00030E001C0220F8A95EAF780917002822BD5
:1029D0008093700208958D3D31F480916E02816084
:1029E00080936E0208958E3D21F480916E02826084
:1029F000F7CF8F3DB9F780916E028460F1CF40919F
:102A000071028D3C59F48091720287FF0DC01092C3
:102A1000720241110BC010926D0208C08E3C81F40D
:102A20008091720218169CF3442381F08091730206
:102A300090917402892B09F05AC010926C0208958B
:102A40008F3C49F447FFF0CF1092710280917202DF
:102A50008111ECCFE0CF803D19F41416ACF3E4CF34
:102A600090917302893D29F41916F4F610927302BD
:102A7000DBCF8A3D19F497FFD7CFF8CF909174023E
:102A80008B3D29F497FFD0CF10927402CDCF8C3DAF
:102A900019F41916CCF3C8CF9FE2980F983090F430
:102AA000815D990B21E030E0B90102C0660F771F0C
:102AB0008A95E2F7CB0180959091700289238093EB
:102AC0007002B2CF8D3D31F480916E028E7F809383
:102AD0006E02AACF8E3D21F480916E028D7FF7CFDA
:102AE0008F3D09F0A1CF80916E028B7FF0CF0895CA
:102AF0000E948B249C019091710280917202982B0C
:102B000021F030936B0220936A02909173028091BE
:102B10007402982B21F030936902209368028FE6AB
:102B200092E00E942F23089586E0EFE6F2E0DF01B5
:102B30001D928A95E9F710926D0210926C02109224
:102B40006E020895FC01828181110EC08381811182
:102B50000BC08481811108C091E08581811101C081
:102B600090E0892F8170089581E0FCCFA6E0B0E06D
:102B7000ECEBF5E10C94332C86E0EFE6F2E0DE01BD
:102B8000119601900D928A95E1F7109271021092C0
:102B9000720210927302109274028B819C81892BB5
:102BA00089F080916A0290916B020E94A324AC018B
:102BB00090916D029923C9F180910E018417150639
:102BC00008F440C08D819E81892B91F0809168022C
:102BD000909169020E94A324AC0190916C02992308
:102BE00009F471C080910A018417150608F479C0B0
:102BF000BE016F5F7F4F8FE692E00E94DC23811160
:102C000005C08FE692E00E94A21581110E947815FE
:102C100086E0FE013196AFE6B2E001900D928A9512
:102C2000E1F72696E3E00C944F2C20910F018AE007
:102C3000289F900111242417350720F69F5F909359
:102C40006D0202C09F3FD1F71B81112359F00E94F2
:102C50002E149FEF11160CF491E0899F802D112402
:102C6000809371021C81112359F00E942E149FEF52
:102C700011160CF491E0899F802D1124809372022B
:102C800030917102332309F49DCF209172022223E7
:102C900009F498CF45EB3403C0011124992359F06E
:102CA0009093710245EB240390011124332339F0F2
:102CB0003093720287CF81E080937102F3CF81E07D
:102CC000809372027FCF20910B018AE0289F9001B0
:102CD00011242417350708F08BCF9F5F90936C0267
:102CE00002C09F3FD1F71D81112359F00E946C143F
:102CF0009FEF11160CF491E0899F802D1124809391
:102D000073021E81112359F00E946C149FEF11165B
:102D10000CF491E0899F802D1124809374023091EE
:102D20007302332309F464CF20917402222309F43F
:102D30005FCF45EB3403C0011124992359F09093E0
:102D4000730245EB240390011124332339F03093AF
:102D500074024ECF81E080937302F3CF81E08093C1
:102D6000740246CFEF92FF920F931F93CF93DF939E
:102D7000EB01E82FD1110EC0442321F0F0E0EA5E10
:102D8000FC4FE4916E2F7E2F8E2FCDB7DEB7E6E09D
:102D90000C944C2C0D2F10E0282F30E0442329F008
:102DA0002A5E3C4FF901249130E0F6E0CF9FC0014C
:102DB0001124EFEFF0E0BF010E94A32BAB018C2F99
:102DC00090E0880F991FA5E5A49FB001A59F700D05
:102DD0001124861B970B982F990F980FBF01601B2A
:102DE000710B629FD001639FB00D729FB00D1124D3
:102DF0008B2F9D9FB0011124672F7727EF01C61BF2
:102E0000D70BBE01629FE001639FD00D729FD00D72
:102E100011247F01E91AF108E09EB001E19E700DD6
:102E2000F09E700D1124672F7727E61BF70BE29FAA
:102E30008001E39F100DF29F100D1124E12F722FDE
:102E40004230510599F048F44115510569F041307F
:102E5000510581F0EB2F8D2F07C04430510569F0EB
:102E600080F046305105B1F76E2F8FCFE22F7B2FC8
:102E7000812FFACFE22F7D2FF7CFEB2F822F712FEB
:102E8000F3CF7B2F822FED2FEFCF41E00E94B216C0
:102E9000089508950E9445170895CF93DF93762FE4
:102EA000E901682F842F0E944A17798368838A83F7
:102EB000DF91CF91089580910A03982F9E7F29F486
:102EC0008170826080930A0308958635E8F38170EB
:102ED0008465F8CF88E090E00E94E22C0895CF92BC
:102EE000DF92EF92FF926B017C010E945B17B701AA
:102EF000A60188E090E00E94002DFF90EF90DF9007
:102F0000CF900895EAE0F3E083E0808311828FEFB1
:102F100082838383148260817181828193810E9484
:102F20006F17089580910A0380FF02C08695089567
:102F300080E0089590910E03933018F49F5F909372
:102F40000E03882351F060910A0370910B03809166
:102F50000C0390910D030E946F17089581E00E9469
:102F60009A17089590910E03992319F09150909318
:102F70000E03882351F060910A0370910B03809136
:102F80000C0390910D030E946F17089581E00E9439
:102F9000B217089570E00E942D1E089560911401EB
:102FA00080910A0380FF0BC08091130123E0829F70
:102FB000C0011124815F9C4F0E94CA17089580911F
:102FC00015019091160123E0829FF0011124E15F29
:102FD000FC4F891748F71182108212828F5F339657
:102FE000F8CF90910A0390FF0EC0909115012091A7
:102FF000160133E0939FF0011124E15FFC4F92171B
:1030000018F00E94CE1708958183608342839F5FEA
:103010003396F5CFA3E0B0E0E0E1F8E10C94342C76
:1030200090910A0390FF0AC09E012F5F3F4F0E94BC
:103030004D174B8169818A810E94F1172396E2E046
:103040000C94502CCF93DF93EC01EC81F0E0EF5E19
:10305000FD4F4491EAE0F3E0628181810E940A1809
:103060008C818F5F8C83DF91CF910895CF93DF9315
:10307000EC01EAE0F3E0438162818C810E940A184E
:103080008C818F5F8C83DF91CF910895A3E0B0E0B6
:10309000ECE4F8E10C94322C8C01809175028111E2
:1030A0000AC09E012F5F3F4F4FEF6FEF0E944D17F9
:1030B0008A8180937502F8016481613069F08091A2
:1030C000750240E0662361F040E0623011F4409107
:1030D000750280E060E004C06091750240E080E02D
:1030E0000E94F117F801848190E0019663E070E09E
:1030F0000E94B72B84832396E4E00C944E2CA3E02B
:10310000B0E0E5E8F8E10C942D2C082FD62EE42E43
:10311000C22E90910A0390FF29C0E92FE695AE2FA9
:10312000B0E0A255BE4F8C918093B8029E7F923042
:1031300009F59E012F5F3F4F802F0E944D174B8155
:1031400069818A810E94F11700930B03D0920C03CE
:10315000E0920D03CC2051F060910A0370910B03B3
:1031600080910C0390910D030E946F172396E9E064
:103170000C94492C823019F4E0900D03E5CF863091
:1031800019F400910B03E0CF8930D9F38931E1F6CE
:10319000E9516E2F6170B62EE695F0E0EF5EFC4FC0
:1031A0001491F12C60911701F61618F00E94CE17B9
:1031B000CBCFF19EC001112470E00E94A32B802F81
:1031C000B11014C0860F20911501622F6F0D772763
:1031D000771F9B01220F331F260F371F215F3C4FA4
:1031E0004E2D6D2D0E944D17F394DCCF861BEBCF37
:1031F000EAE0F3E09181282F4381628180E1890F29
:103200000E947F18089581E00E94F8180895EAE06E
:10321000F3E09181282F4381628180EF890F0E9422
:103220007F18089581E00E9407190895EAE0F3E00D
:10323000628120E1620F08F46FEF282F43818181C2
:103240000E947F18089581E00E9416190895EAE00F
:10325000F3E0628120E1621B08F460E0282F4381E3
:1032600081810E947F18089581E00E9427190895A6
:10327000EAE0F3E0438120E1420F08F44FEF282F0A
:10328000628181810E947F18089581E00E9438192F
:103290000895EAE0F3E0438120E1421B08F440E0B6
:1032A000282F628181810E947F18089581E00E9409
:1032B0004919089520E00E947F180895EF92FF9227
:1032C0001F93CF93DF93EC0110E0EE24EA94F12CEE
:1032D00060911701161770F00E94CE179A818C81A9
:1032E00090FF27C08F5F8C83DF91CF911F91FF905C
:1032F000EF90089520911501422F410F5527551F3A
:10330000CA019A01220F331F280F391F215F3C4F3A
:1033100070E0C7010E94B72B962F8C8140910D035E
:1033200060910C03199F800D11240E944D171F5F9F
:10333000CFCF8150D8CFB0E0A0E0E1EAF9E10C9422
:103340002C2CFC0182810FEF80FF01E010E04BE0AC
:10335000A42E80911701181798F00E94CE17809123
:103360007702013009F04FC0811102C0809117012E
:10337000815080937702CDB7DEB7EAE00C94482CF9
:10338000C0911501C12ED12CCC0DDD2DD11DCE014A
:10339000880F991FC80FD91FC15FDC4F198218828F
:1033A0001A8234E0E32EF12CB12C809177028B0D40
:1033B0008C301CF16A2D0E94952B892F082E000C51
:1033C000990BC816D90691F480910D038E9DA0012A
:1033D0008F9D500D112455954795559547959E0104
:1033E00060910C0380910B030E944D17B00EF1E029
:1033F000EF1AF108D1F61F5FACCF87FFDFCF9091B6
:103400001701890FDBCF90E001966091170170E002
:103410000E94B72BAECF0F931F93CF93DF93809172
:1034200015019091160123E0829FF0011124E15FC4
:10343000FC4F891740F1C0E0D3E060911701C61737
:1034400040F10E94CE172091110180917602820FE7
:103450008093760290911201920F909312011916A7
:1034600054F4082E000C990B409117014150550B54
:10347000841795071CF0219520931101DF91CF91BE
:103480001F910F9108951182108212828F5F3396DF
:10349000D0CF0C2F10E070E0C8010E94B72B209114
:1034A0001501820F482F50E020917602022E000C69
:1034B000330B02171307BCF020911201022E000CEF
:1034C000330B201731077CF08D9F90011124215F71
:1034D0003C4F40910D0360910C0380910B030E94BF
:1034E0004D17CF5FAACFFA01EE0FFF1FE40FF51FB4
:1034F000E15FFC4F118210821282F3CFB0E0A0E0B6
:10350000E4E8FAE10C942A2CEC014C81042F10E041
:103510009801D8010E94FB2B9B01AC010E94112C49
:103520004B015C01E0E2F0E0E01BF10BA5E5B0E04F
:10353000AC019B010E94112C6B017C019F01DF01FA
:103540000E94F32B9B01AC010E941C2C9B01AC013F
:10355000280D391D4A1D5B1DC701B6010E94CB2BEA
:10356000F22E822F90E039E23F1520F143E0249FB4
:103570009001112435952795122F109500E085E5CF
:10358000E82EEF1880911701081718F10E94CE1746
:103590009C8181E0992319F0903219F48FEF809388
:1035A000100180911001890F8C83CDB7DEB7ECE05C
:1035B0000C94462C25E530E0B901681B790B9B0182
:1035C000220F331F260F371F37FFD4CF2F5F3F4FF8
:1035D000D1CF8E2D01FD8F2D20911501622F600F0F
:1035E0007727771F9B01220F331F260F371F215F7D
:1035F0003C4F412F60910C030E944D170F5FC2CFCB
:103600000F931F93CF93DF93EC0110E000E09091B4
:1036100017019017110609F06CF40E94CE178C81E7
:1036200090E00196817099278C83DF91CF911F9153
:103630000F91089520911501A801420F511D9A0183
:10364000220F331F240F351F215F3C4F4C816091A7
:103650000C0380910B0396959017110651F04CF0D6
:10366000442349F040910D030E944D170F5F1F4FF7
:10367000CECF4423B9F340E0F7CFB0E0A0E0E3E4DD
:10368000FBE10C94262CFC016280448081E0848361
:10369000E1E1F2E07490E0E9F2E0E491C0910D0321
:1036A000C695C158D0E0CC0FDD1FCD2FDD27812C72
:1036B00075E0972EAA24AA94B12C55245A94E719A0
:1036C000EE2EF12C80911701881638F00E94CE174B
:1036D000CDB7DEB7E0E10C94422CC82CD12C82E0AF
:1036E000861568F09C9CF0019D9CF00D1124E85813
:1036F000FD4F80910B03808380910C0381834110E7
:1037000023C09C9CF0019D9CF00D1124E858FD4FB6
:103710001382128220911501C601820F911D9C0116
:10372000220F331F280F391F215F3C4F9C9CF00153
:103730009D9CF00D1124E858FD4F428161818081EC
:103740000E944D178394BECF9C9C80019D9C100DC0
:10375000112408581D4FF80183818823F1F081500E
:103760008383859DC0011124648170E00E94A32B96
:10377000FB01FF27EF5EFD4F8491E82FE719E59DE0
:10378000C0011124B7010E94A32B80910D03689FF3
:10379000B0011124F8017283BDCF0E94A72CB5019E
:1037A0000E94B72B8C179D070CF0B4CFF2E0F615F2
:1037B00098F40E94A72CB5010E94B72BF8018083D2
:1037C0000E94A72C20910C032695622F70E00E9486
:1037D000B72B280FF80121839C9CF0019D9CF00DD4
:1037E0001124E858FD4F128280910D03893C58F056
:1037F00088EC9C9CF0019D9CF00D1124E858FD4F35
:103800008483838387CF8431A0F784E1F2CFEAE019
:10381000F3E080818E7F80836081718182819381DA
:103820000E946F171092B9020E94CE170895EAE025
:10383000F3E080818E7F80831092B9020E94CE17C0
:1038400008951092B9028091B60281110AC081E0F8
:103850008093B60280910A0381708093B5020E9422
:10386000171C089560910A03669570E04BE050E0E4
:1038700088E191E00E94B72C892B19F481E08093B4
:10388000B9020E948B249093B0028093AF020895F6
:1038900090910A0390FF2BC09170811129C0926012
:1038A00090930A03662351F060910A0370910B0311
:1038B00080910C0390910D030E946F1760910A0391
:1038C000669570E04BE050E088E191E00E94B72CF3
:1038D000892BA9F01092B90281E08093B202409145
:1038E0000D0360910C0380910B030E945A190895F7
:1038F0008B3210F09465D4CF880F982BD1CF0E94D3
:10390000321CEACF682F90910A03969581E0890FC7
:103910008B3208F081E00E94481C089581E00E94EB
:10392000821C0895682F90910A0396958FEF890F56
:1039300009F48AE20E94481C089581E00E94921CCA
:10394000089561E00E94481C0895EAE0F3E0808158
:103950008160808386950E94A11C089580910A034E
:1039600080FF03C00E94071C08950E94A51C0895B3
:1039700060E00E94481C08958091B70281112EC01A
:103980000E94350F811104C00E94C40F0E9482174B
:103990000E946A1760930A0370930B0380930C03D1
:1039A00090930D036E7F61F40E9482170E946A1744
:1039B00060930A0370930B0380930C0390930D03A1
:1039C0000E945B171092B90280910A0380FF03C026
:1039D00086950E94B81C81E08093B7020895EAE0C2
:1039E000F3E080818160808386950E94B81C0895F1
:1039F0001092B6028091B50281110E94EF1C0E94C4
:103A0000321C08950F931F93CF93DF938091B902D7
:103A10008823B9F18091B802E0910A03E695E81B8A
:103A2000E093B102823091F5F0E0E35FFD4FE49165
:103A3000CE2FD0E002E218E18091B202882361F03B
:103A40001092B2020E948B249093B0028093AF0236
:103A50001092B4021092B3020E948B24E091AF0244
:103A6000F091B0028E1B9F0B8F3F9F4750F4EC0FDD
:103A7000FD1FF093B002E093AF028FEA92E0F801ED
:103A80000995DF91CF911F910F910895863049F4E8
:103A9000F0E0E65FFD4FE491CE2FD0E006E318E1C1
:103AA000CBCF893051F4E695F0E0E95FFD4FE4912A
:103AB000CE2FD0E00EE519E1BFCF8F3051F4E6955F
:103AC000F0E0EC5FFD4FE491CE2FD0E00BE919E17F
:103AD000B3CF853149F4F0E0EF5FFD4FE491CE2F95
:103AE000D0E00BE01AE1A8CFC8E2D0E00EE71AE17F
:103AF000883109F4A1CF833239F4EFEFF1E0C591B9
:103B0000D49106E418E198CFC4EFD1E000E01BE1C6
:103B1000843209F491CFC0EDD7E009E417E1853292
:103B200009F08ACF8E2F63E00E94892BE92FF0E005
:103B3000E450FE4FE491CE2FD0E00DE31BE17CCFAB
:103B4000FA01811101C0FB0109950895CF93DF931C
:103B5000C82FD62F0E9492178C1748F00E949217F8
:103B60008D1728F40E948E1CDF91CF9108958C2F21
:103B70000E94A11CF9CF1F93CF93DF93EC01FB01AF
:103B80001281111110C00E94470E8272FE01E05294
:103B9000F847E531F10508F05EC0E15BF24D0C94A9
:103BA000ED2B0E94AE1C812FDF91CF911F910895C4
:103BB0004DE95CE16EE87CE10E94A01DF4CF4EE887
:103BC0005CE16DE97CE1F8CF42E159E163E079E144
:103BD000F3CF43E059E162E179E1EECF44E359E10B
:103BE00063E279E1E9CF43E259E164E379E1E4CFCB
:103BF00046E559E165E479E1DFCF45E459E166E561
:103C000079E1DACF46EC57E16EEA77E1D5CF4EEABB
:103C100057E166EC77E1D0CF81E00E94A11CC3CFD1
:103C200065E082E00E94A61DBECF68E086E0FACF84
:103C30006EE089E0F7CF64E18FE0F4CF67E185E1E2
:103C4000F1CF88E1EACF62E289E1ECCF83E2E5CF10
:103C50006AE285E2E7CF11E0A6CF539A4BB1477FE6
:103C60005BB15860EFB7F8949B01220F331F260F0A
:103C7000371F280F391F2817390741F4EFBF8FE589
:103C800094E00197F1F700C000000895DC016D9108
:103C9000CD0178E05BB9000000C067FF4BB9660F4B
:103CA000000000C000C000C04BB900C07A9591F779
:103CB000E2CFCF93DF93EC01FB018281882309F4EB
:103CC000D2C09E0130572332310508F0B2C00E94A5
:103CD0004A0F9093FB028093FA02FE01E150F047F5
:103CE000E232F10520F4EC59F24D0C94ED2B809169
:103CF000FA0281608093FA0293C08091FB0288608F
:103D00008093FB028DC08091FA028260F3CF809194
:103D1000FA028460EFCF8091FA028860EBCF809145
:103D2000FB028160EDCF8091FB028260E9CF809140
:103D3000FA028061DFCF8091FA028062DBCF80914E
:103D4000FA028064D7CF0E9484098091FA028068C9
:103D5000D1CF8091FA028C60CDCF8091FB0283603D
:103D6000CFCF8091FA028E7FC5CF8091FB02877FF3
:103D7000C7CF8091FA028D7FBDCF8091FA028B7FF1
:103D8000B9CF8091FA02877FB5CF8091FB028E7FF9
:103D9000B7CF8091FB028D7FB3CF8091FA028F7EE7
:103DA000A9CF8091FA028F7DA5CF8091FA028F7BF7
:103DB000A1CF0E9484098091FA028F779BCF8091D6
:103DC000FA02837F97CF8091FB028C7F99CF8091FD
:103DD000FA0282FB992790F921E0922790FB82F961
:103DE00090FB83F987CF8091FB02982F909591707B
:103DF0008E7F892B90FB81F983CF9091FA02892FD6
:103E00008F7B96FF806476CF0E9484099091FA029E
:103E1000892F97FB87F980586DCF81E00E94C70FEB
:103E20008091FA029091FB020E944F0F0E94840938
:103E300080E0DF91CF91089580E0F0CF9091FA0279
:103E4000892F8F7E94FF806155CF9091FA02892F40
:103E50008E7F90FF81604ECF9091FB02892F877FEC
:103E600093FF88604DCF81E0E4CFB0E0A0E0EBE3CA
:103E7000FFE10C942F2CE82FF0E0EA5EFB4FD4908A
:103E8000282F26952695269530E0F901EA54FB4F18
:103E90000491877010E0082E02C0159507950A94CA
:103EA000E2F701701127F901EA55FB4FE490F12C7C
:103EB000082E02C0F594E7940A94E2F791E0E92213
:103EC000FF24F901EA56FB4FC491D0E002C0D5951A
:103ED000C7958A95E2F7C170DD270115110519F024
:103EE00081EE0E94FF05E114F10419F086EE0E94B4
:103EF000FF058D2D0E940307E114F10419F086EEF1
:103F00000E9491060115110519F081EE0E9491069B
:103F1000CD2B19F08CE20E940307CDB7DEB7E7E0A6
:103F20000C944B2CEF92FF920F931F93CF93DF9340
:103F3000EC01162F0AE08881882309F454C08130EF
:103F400009F04EC08981813099F47E0122E0E20EB1
:103F5000F11C8A810E940307E7012196812F81507D
:103F600050F3EFE9FFE03197F1F700C00000F7CF21
:103F7000823041F47E0182E0E80EF11C8A810E94C9
:103F8000FF05EACF833041F47E01E2E0EE0EF11C42
:103F90008A810E949106E0CF843011F02196DDCF16
:103FA0002A81229690E080E0AE014F5F5F4F205360
:103FB000330B2A30310548F0019778F2EFE9FFE042
:103FC0003197F1F700C00000F7CF089FB001099FBB
:103FD000700D1124C901860F971F2981EA01E4CFD2
:103FE0000E94351FBACFCDB7DEB7E6E00C944C2C5B
:103FF00060E00E94921F089580912301877F809343
:10400000230182E00E94600E8091230184FF06C09C
:104010008F7E8093230182E00E944A0E80912301CB
:1040200085FF06C08F7D8093230180E20E944A0EA7
:104030000E94880E089580E008958B32910539F032
:1040400040F49C01245031092432310558F481E0B8
:1040500008958D32910530F089339105C0F384368F
:104060009105A9F30E941B200895CF93DF93EC01E3
:10407000662319F082E00E945A0ECE0190528115FB
:10408000904308F4DD27CE010E94DC03DF91CF913D
:1040900008959C0130522115304308F499270E945D
:1040A000F2030895FC0123E0F695E7952A95E1F7E0
:1040B000EE71FF27E654FD4F20813181AC014F7036
:1040C000552781E090E002C0880F991F4A95E2F7DA
:1040D000662329F0822B932B91838083089580950A
:1040E000909582239323F8CFFC0123E0F695E79582
:1040F0002A95E1F7EE71FF27E654FD4F8F7099275F
:1041000021E030E002C0220F331F8A95E2F7808160
:1041100091812823392381E0232B09F480E008953D
:10412000EF92FF920F931F93CF93DF93EC017B01EC
:104130008A018091230182FF5DC02091E0023091CD
:10414000E1022C173D0719F0209709F053C0909118
:1041500023019B7F9093230161E091FD10C080912A
:10416000E2029091E302A701481B590B61E08091A4
:104170002401909125014817590708F460E0617007
:104180008091230160FB81F980932301C9010E9482
:1041900052200E94470E81FF08C080912301806158
:1041A0008093230182E00E94500E0E94470E85FFFB
:1041B00008C08091230180628093230180E20E94E5
:1041C000500E6091230166956170A8018091E00214
:1041D0009091E1020E943520609123016695617003
:1041E000A8018091E0029091E1020E9449200E9482
:1041F000FC1F0FC0CE010E947420A801682FCE01C1
:104200000E9449208091E0029091E102C817D907ED
:1042100071F3F092E302E092E202CDB7DEB7E6E09E
:104220000C944C2C8091230182FF19C00E948B2496
:104230002091E2023091E302AC01421B530B20912A
:104240002401309125014217530748F04AED52E00E
:10425000BC018091E0029091E1020E9490200895BB
:1042600090912301892F8E7F90FF8160809323019D
:104270000E94FC1F0895809123018E7F809323016B
:104280000E94FC1F089560E2809124019091250115
:104290000E945A05FC01019620812032D9F3CF01FA
:1042A0000E94F81F0895CF92DF92EF92FF921F9322
:1042B000CF93DF93EC017B010E948B246C01F7010B
:1042C0008281882309F453C08091230182FF07C0B3
:1042D0004AED52E0B60190E080E00E949020C231A9
:1042E000FCE7DF0709F440C000F5C0318CE7D807D0
:1042F00089F180912401909125010596C131ECE767
:10430000DE0769F1CE01905281159043F0F51092CD
:10431000E1021092E00211E0812FDF91CF911F9115
:10432000FF90EF90DF90CF900895C431FCE7DF0756
:1043300071F038F0C5318CE7D80721F70E943021A1
:10434000E1CF80912301816080932301DBCF0E9424
:104350003B21D8CF8091240190912501059790931E
:10436000250180932401CECF0E944321CBCF8091A1
:1043700023018F7EC13ED10531F0C53ED105A1F5A7
:10438000809123018F7D809323018091230180FF01
:10439000C2CFB701CE010E941D20F70112818823F0
:1043A00009F466C0112309F45DC00E94470E182F5E
:1043B0000E946A0E812B8D7F41F11092E1021092D2
:1043C000E00260E0CE010E945220A70160E0CE0131
:1043D0000E9435200E946A0E8D7F0E94710E82E03D
:1043E0000E94EB0E10E098CFCE01905281159043C1
:1043F00060F68091230182FF8ECF4AED52E0B60134
:1044000090E080E00E94902086CF86E0F701AAED40
:10441000B2E001900D928A95E1F71092DC021092C1
:10442000DE021092DD020E94470E182F0E946A0ED3
:10443000812B9091230181FB91F9909323010E949C
:104440006A0E8D7F0E94710ED093E102C093E0024C
:10445000D092E302C092E2028091230184608093B3
:104460002301BDCFA701B601CE010E94902054CFF9
:1044700011114DCF50CFCF93DF93EB0186319C4785
:1044800011F50E94470E9A81992399F08A7A91E05A
:1044900009F490E09093E402811109C089E20E943E
:1044A0001F0E0E94880E80E0DF91CF91089585E372
:1044B000F6CF8091E402811104C089E20E94270EA8
:1044C000F0CF85E3FBCF81E0EFCF0F931F93CF9326
:1044D000DF93C42FD22FFC0182818823C9F040933F
:1044E000E7020E948B249093E6028093E50280E22B
:1044F0008C0F883040F4C77081E001C0880FCA95E6
:10450000EAF70E940C07DF91CF911F910F91089558
:104510001091E702141332C08091E5029091E602F7
:104520000E94A324883C910548F5C0E2CD0F1D17D9
:10453000B9F080E2810F883040F4177081E001C04B
:10454000880F1A95EAF70E941307C83048F481E0F3
:104550009D2F977001C0880F9A95EAF70E940C076B
:10456000802F0E940307C83070F6D77081E001C029
:10457000880FDA95EAF70E941307C5CF80E28C0F07
:10458000883008F6C77081E001C0880FCA95EAF745
:10459000F2CF0F93DB0188519C4787309105A0F53E
:1045A000FC01EA57F24D0C94ED2B06E221EE41EEB0
:1045B0006AE17CE7CD010E94652280E00F910895B9
:1045C00007E225EE45EE6BE17CE7F4CF06E221EE53
:1045D00040EE68E17CE7EECF07E225EE44EE69E1CC
:1045E0007CE7E8CF06E221EE42EE6CE17CE7E2CF29
:1045F00007E225EE46EE6DE17CE7DCCF08E221E044
:1046000045EE6EE17CE7D6CF12968C91882319F0A7
:104610001092E702D3CF81E0D1CF9093DB0180935A
:10462000DA0108959093ED028093EC020895E091F1
:10463000EC02F091ED02309729F00190F081E02D2D
:104640000995089580E00895E091EC02F091ED0263
:10465000309721F00280F381E02D09950895E091D3
:10466000EC02F091ED02309739F022E0DC012C935E
:104670000480F581E02D09950895A3E0B0E0E3E41E
:10468000F3E20C94342C2091EA023091EB022817CB
:104690003907A1F09093EB028093EA02E091EC02DB
:1046A000F091ED02309751F023E029839B838A83B8
:1046B0000680F781E02DCE01019609952396E2E070
:1046C0000C94502CA3E0B0E0E8E6F3E20C94342C18
:1046D0002091E8023091E90228173907A1F0909360
:1046E000E9028093E802E091EC02F091ED0230974C
:1046F00051F024E029839B838A830680F781E02D93
:10470000CE01019609952396E2E00C94502C9C0171
:104710002E5F3F4FAC01485F5F4F80E024173507A5
:1047200009F40895F90191919F019923B9F38F5FDD
:10473000F5CF662349F0FC013296089621912617A1
:1047400029F0E817F907D1F780E0089581E008958E
:104750009C01FC0132969FEF80E04191461751F099
:104760009F3F19F4411101C0982F8F5F8630A9F740
:104770009F3F09F40895290F311D97FD3A95F901DE
:1047800062830895FC01329608962191261303C096
:10479000DF0111971C92E817F907B9F708950E94F5
:1047A000A82308950E94C2230895029626E0FC01E2
:1047B00011922A95E9F7089546E050E00E94C42C32
:1047C00021E0892B09F420E0822F089508950E94AA
:1047D000E6230895811106C081E08093EE020E94D5
:1047E000E723089582E0F9CF83E08093EE020E94F0
:1047F000E72308950E94EA23089581E08093EE0262
:104800000E94E72308950E94FD23089508950895C6
:104810000E9407240895089508950E94062408958B
:10482000CF930E940B240E949A130E940C24C0E094
:104830008C2F0E94E312811105C0CF5FC730C1F7F2
:10484000CF91089581E0FCCF85B7806885BF85B79B
:10485000806885BF08951F921FB61F9211248F9301
:104860009F93AF93BF938091EF02811113C080910A
:10487000300390913103A0913203B09133034196FC
:10488000A11DB11D8093300390933103A093320397
:10489000B0933303BF91AF919F918F911F901FBE33
:1048A0001F90189580913803843031F10E94F404F0
:1048B0001092EF0288E190E020E40FB6F894A895FA
:1048C000809360000FBE2093600083B7817F846077
:1048D00083BF83B7816083BF7894889583B78E7FC9
:1048E00083BF0FB6F894A89580916000886180938B
:1048F0006000109260000FBE08950E9484090E941B
:10490000FB04089582E084BD93E095BD9AEF97BDC6
:1049100080936E0008952FB7F894809130039091A2
:104920003103A0913203B09133032FBF08952FB705
:10493000F89460913003709131038091320390912B
:1049400033032FBF08959C014FB7F8948091300333
:1049500090913103A0913203B09133034FBF821B7A
:10496000930B089578941F921FB61F9211248F9372
:104970009F93AF93BF938091300390913103A091A7
:104980003203B09133030196A11DB11D8093300312
:1049900090933103A0933203B0933303BF91AF914F
:1049A0009F918F911F901FBE1F90189581E080935B
:1049B000E00080E28093D8001092C9008FE19EE46D
:1049C0000197F1F700C0000087E090EBDC018093D5
:1049D000410390934203A0934303B093440388E1BF
:1049E0009CE00FB6F894A895809360000FBE90935A
:1049F0006000FFCF88E19CE00FB6F894A895809303
:104A000060000FBE90936000FFCF8091F802089580
:104A10009B01BA01909138039430E9F48F70809330
:104A2000E9009FEF8091E800915085FD06C085ED7B
:104A30008A95F1F700009111F5CF8091E80085FF8C
:104A40000AC050E040E0C9010E9402278091E800BE
:104A50008E778093E800089543E050E0BC0182E047
:104A60000E940825089546E050E0BC0182E00E94C3
:104A700008250895CF93DF93EC0148E050E0BC0196
:104A800081E00E94082588E0FE01A0EFB2E00190DD
:104A90000D928A95E1F7DF91CF91089580913703C8
:104AA000811109C00E9492280E94EF288091E200A3
:104AB00084608093E20008951092370308950E9465
:104AC000FD2308956091340381E0611101C080E00D
:104AD0000E94F42308959091380381E0943009F006
:104AE00080E0609134030E94FA23089542E061EC73
:104AF00081E00E940E2842E261EC82E00E940E28D2
:104B00009091380381E0943009F080E060913403A3
:104B10000E94EA23089580913A03833009F461C02A
:104B200030F48130D1F1823009F49EC008958A308A
:104B300009F48AC08B3009F46FC0893009F050C085
:104B400080913903813209F04BC080913D039091EF
:104B50003E03029708F044C08091E800877F80936D
:104B6000E8008091E80082FF37C09091F3008091C7
:104B7000F200029731F48091F100813011F086301B
:104B800021F48091F1008093F8028091E8008B7706
:104B90008093E8000E94422823C080913903813A23
:104BA000F9F48091E800877F8093E80080913D03CD
:104BB00090913E03892B61F468E080EF92E070E011
:104BC0000E9451278091E8008B778093E800089538
:104BD00060E090E080E0F3CF809138038111C1CF95
:104BE000089580913903813AD9F780913D039091DE
:104BF0003E03892BA9F78091E800877F8093E80026
:104C00008091E80080FFFCCF80912E018093F1001D
:104C10008091E8008E77BCCF80913903813201F713
:104C200080913D0390913E03892BD1F68091E8005D
:104C3000877F8093E8000E94422880913B03809305
:104C40002E010E948409089580913903813241F632
:104C50008091E800877F8093E8000E94422880913D
:104C60003C038093F902089580913903813A09F059
:104C7000B7CF8091E800877F8093E8008091E800BB
:104C800080FFFCCF8091F902C1CF84B7877F84BFBA
:104C90000FB6F894A89580916000886180936000B9
:104CA000109260000FBE80E890E00FB6F8948093F9
:104CB0006100909361000FBE0E94032408950E943A
:104CC00092280E94EF28E2EEF0E0808184608083E9
:104CD00078940E946E2B089586E291E00E94122340
:104CE000089580913803853031F480913803853000
:104CF00019F00E947D2408950E9452248091360369
:104D0000882399F30E941024882379F30E94EC26CB
:104D10000E948409EACF08959A0140913F0350917F
:104D200040030E9494260895492F5527433051058A
:104D300019F168F44130510509F444C0423051057D
:104D400009F445C090E080E050E040E025C04132E9
:104D5000510549F142325105A9F780E490E046EB54
:104D600055E061157105C1F08BE790E04BE355E02C
:104D70006130710589F0E6CF99278130910581F086
:104D8000009729F00297F1F6E6ECF4E002C0EAEEB3
:104D9000F4E0849190E0AF01F901518340830895DC
:104DA000ECEDF4E0F6CF89E090E040E055E06115ED
:104DB000710591F389E090E049E155E061307105BA
:104DC00059F3C0CF82E190E049E255E0E5CF8BE3B3
:104DD00090E04EEE54E0E0CF80E189BD82E189BDF4
:104DE00009B400FEFDCF8091D8008F7D8093D8005C
:104DF0008091E00082608093E0008091E00081FD7E
:104E0000FCCF0895AF92BF92CF92DF92FF920F93A3
:104E10001F93CF93DF936C01EB018A010E946128FD
:104E2000F82E811123C00115110539F0F801808198
:104E30009181C81BD90BC80ED91EB12CA12C20976B
:104E4000A9F08091E80085FD22C08091E8008E776E
:104E50008093E80001151105A1F0F801808191818E
:104E6000A80EB91EB182A08285E0F82E8F2DDF91A9
:104E7000CF911F910F91FF90DF90CF90BF90AF9097
:104E800008950E9461288823D1F2F82EEFCFF60111
:104E900081916F018093F1002197FFEFAF1ABF0A54
:104EA000CECFFC0180913F03909140038617970776
:104EB000A0F06115710529F49091E8009E77909318
:104EC000E80090E06115710551F4911108C08091DE
:104ED000E80082FF34C080E00895BC01F2CF8091E9
:104EE00038038823C1F18530C1F18091E80083FD4A
:104EF00030C08091E80082FDEACF8091E80080FF19
:104F0000E1CF8091F3002091F200382F61157105F7
:104F100019F02830310558F091E02830310509F0BA
:104F200090E02091E8002E772093E800CBCF81918C
:104F30008093F100615071092F5F3F4FE7CF80915F
:104F40003803882341F0853041F08091E80083FFE9
:104F5000BECF81E0089582E0089583E00895FC01CA
:104F600080913F039091400386179707A0F0611549
:104F7000710529F48091E8008E778093E80090E035
:104F80006115710551F4911108C08091E80082FF0C
:104F900035C080E00895BC01F2CF809138038823AA
:104FA000C9F18530C9F18091E80083FD31C080915D
:104FB000E80082FDEACF8091E80080FFE1CF809198
:104FC000F3002091F200382F6115710519F0283097
:104FD000310558F091E02830310509F090E08091DA
:104FE000E8008E778093E800CBCF84918093F10026
:104FF0003196615071092F5F3F4FE6CF80913803A2
:10500000882341F0853041F08091E80083FFBDCFD7
:1050100081E0089582E0089583E00895982F973005
:1050200028F08F708093E90081E008959093E90063
:10503000242F762F50E0981731F07091EC002091DA
:10504000ED005091F00021FD02C09F5FE8CF30914C
:10505000EB003E7F3093EB003091ED003D7F3093CD
:10506000ED003091EB0031603093EB007093EC0079
:105070002093ED005093F0002091EE0027FDE5CF46
:1050800080E008958091390387FF13C08091E80084
:1050900082FF06C08091E8008B778093E80004C00F
:1050A000809138038111F2CF0895809138038823CD
:1050B000D9F38091E80080FFF8CF8091E8008E77E7
:1050C000ECCF2091E4003091E50095E6A901209114
:1050D000EC00822F817020FF06C08091E80080FFE5
:1050E00006C080E008952091E80022FD1AC080915A
:1050F0003803882389F0853089F08091EB0085FDA5
:105100000FC02091E4003091E50042175307F9F2F7
:105110009150E1F684E0089582E0089583E00895D7
:1051200081E008950E9401290E940929E0EEF0E043
:10513000808181608083E8EDF0E080818F778083DB
:1051400019BCA7EDB0E08C918E7F8C9380818F7E0F
:1051500080831092370308950F931F93CF93DF93AB
:105160000E9401290E940929C8EDD0E088818F772B
:10517000888388818068888388818F7D888319BC33
:1051800010923803109234031092360310923503B4
:1051900000EE10E0F80180818B7F80838881816040
:1051A000888342E060E080E00E940E28E1EEF0E0BB
:1051B00080818E7F8083E2EEF0E080818160808359
:1051C000808188608083F80180818E7F80838881E0
:1051D00080618883DF91CF911F910F910895E8ED51
:1051E000F0E080818F7E8083E7EDF0E08081816058
:1051F000808384E082BF81E0809337030E94AC28E3
:105200000895E8EDF0E080818E7F80831092E200C7
:1052100008951092DA001092E10008951F920F9203
:105220000FB60F9211242F933F934F935F936F9379
:105230007F938F939F93AF93BF93EF93FF9380914F
:10524000E10082FF0BC08091E20082FF07C08091E5
:10525000E1008B7F8093E1000E946D2B8091DA004A
:1052600080FF19C08091D80080FF15C08091DA00BE
:105270008E7F8093DA008091D90080FF96C080E114
:1052800089BD82E189BD09B400FEFDCF81E0809334
:1052900038030E944E258091E10080FF19C0809163
:1052A000E20080FF15C08091E2008E7F8093E200D3
:1052B0008091E20080618093E2008091D80080625A
:1052C0008093D80019BC85E0809338030E94622542
:1052D0008091E10084FF2BC08091E20084FF27C011
:1052E00080E189BD82E189BD89B5982F917080FFE9
:1052F000FBCF8091D8008F7D8093D8008091E10012
:105300008F7E8093E1008091E2008F7E8093E200A7
:105310008091E20081608093E200809134038823D1
:1053200009F449C084E0809338030E946B25809182
:10533000E10083FF29C08091E20083FF25C08091B6
:10534000E100877F8093E10082E080933803109230
:1053500034038091E1008E7F8093E1008091E20030
:105360008E7F8093E2008091E20080618093E20072
:1053700042E060E080E00E940E288091F0008860AA
:105380008093F0000E945F25FF91EF91BF91AF9154
:105390009F918F917F916F915F914F913F912F914D
:1053A0000F900FBE0F901F90189519BC10923803E4
:1053B0000E945C2570CF8091E30087FD93E090937D
:1053C0003803B3CF1F920F920FB60F9211242F9371
:1053D0003F934F935F936F937F938F939F93AF937D
:1053E000BF93CF93DF93EF93FF93D091E900DF70EA
:1053F0008091EC00C82FC17080FDC0E81092E900D8
:105400008091F000877F8093F00078940E94262A94
:105410001092E9008091F00088608093F000CD2B1D
:10542000CF70C093E900FF91EF91DF91CF91BF91D1
:10543000AF919F918F917F916F915F914F913F912C
:105440002F910F900FBE0F901F901895AAE2B0E019
:10545000ECE2FAE20C94332C89E393E02091F10022
:10546000FC012193CF01F3E081349F07B9F70E943B
:105470008B258091E80083FF1EC1809139039091B4
:105480003A039A3008F017C1E92FF0E0E357F24DE4
:105490000C94ED2B803899F0823809F00CC1809182
:1054A0003D038F70873008F006C18093E90080913A
:1054B000EB0085FB882780F91092E90006C08091F7
:1054C000350390913603911182609091E800977FA7
:1054D0009093E8008093F1001092F1008091E80031
:1054E0008E77E5C0882309F4D3C0823009F0E3C089
:1054F00080913B038111D6C080913D038F702FEFC7
:10550000280F263008F0D7C08093E9002091EB00E7
:1055100020FFC8C0933031F48091EB00806280930B
:10552000EB00C0C09091EB0090619093EB0021E004
:1055300030E001C0220F8A95EAF72093EA0010922A
:10554000EA008091EB008860EACF8111B4C010912D
:105550003B031F778091E3008078812B8093E300E9
:105560008091E800877F8093E8000E944228809124
:10557000E80080FFFCCF8091E30080688093E30027
:1055800082E0111183E08093380395C08058823007
:1055900008F091C080913B0390913C038C3D23E047
:1055A0009207A1F583E08A838AE289834FB7F89452
:1055B000DE01139620E03EE051E2E32FF0E050934D
:1055C0005700E49120FF03C0E295EF703F5FEF705A
:1055D0008E2F90E0EA30C0F0C7968D939D932F5F99
:1055E000243159F74FBF8091E800877F8093E8000E
:1055F0006AE270E0CE0101960E9451278091E80096
:105600008B778093E80057C0C096E7CF60913D0349
:1056100070913E03AE014F5F5F4F0E948C26BC012C
:10562000892B09F448C09091E800977F9093E80097
:1056300089819A810E94AF27E1CF8038E1F580917E
:10564000E800877F8093E800809134038093F10025
:1056500045CF811130C090913B03923060F580912D
:10566000E800877F8093E800909334030E944228EB
:1056700080913403882311F084E005C08091E30019
:1056800087FDFACF81E0809338030E94762513C00E
:1056900080913B03813079F481E0933009F080E020
:1056A000809336031092E9008091E800877F809311
:1056B000E8000E9442288091E80083FF0AC08091A0
:1056C000E800877F8093E8008091EB008062809300
:1056D000EB00AA96E3E00C944F2C0895CF938091B1
:1056E00038038823A1F0C091E900CF709091EC00BD
:1056F000892F817090FD80E8C82B1092E90080917D
:10570000E80083FD0E94262ACF70C093E900CF9164
:105710000895991B79E004C0991F961708F0961B0D
:10572000881F7A95C9F78095089587FB082E06266D
:1057300087FD819567FD61950E94892B0EF49195F7
:1057400007FC81950895AA1BBB1B51E107C0AA1F46
:10575000BB1FA617B70710F0A61BB70B881F991F12
:105760005A95A9F780959095BC01CD01089597FBB6
:10577000072E16F4009407D077FD09D00E94A32BC2
:1057800007FC05D03EF4909581959F4F0895709544
:1057900061957F4F0895A1E21A2EAA1BBB1BFD0144
:1057A0000DC0AA1FBB1FEE1FFF1FA217B307E40700
:1057B000F50720F0A21BB30BE40BF50B661F771F58
:1057C000881F991F1A9469F7609570958095909538
:1057D0009B01AC01BD01CF010895EE0FFF1F0590A5
:1057E000F491E02D09940E94FB2B332312F48A1BC1
:1057F0009B0B0C940C2CA29FB001B39FC001A39FE4
:10580000700D811D1124911DB29F700D811D1124F9
:10581000911D08950E94FB2BB7FF0895821B930BE7
:1058200008950E94FB2BA59F900DB49F900DA49FFF
:10583000800D911D11240895B7FF0C94112C0E9426
:10584000112C821B930B08952F923F924F925F92DF
:105850006F927F928F929F92AF92BF92CF92DF9280
:10586000EF92FF920F931F93CF93DF93CDB7DEB7E5
:10587000CA1BDB0B0FB6F894DEBF0FBECDBF099479
:105880002A88398848885F846E847D848C849B84D0
:10589000AA84B984C884DF80EE80FD800C811B81DE
:1058A000AA81B981CE0FD11D0FB6F894DEBF0FBE0D
:1058B000CDBFED0108958F929F92AF92BF92CF928C
:1058C000DF92EF92FF92CF93DF93EC0168817981B1
:1058D0008A819B81611571058105910521F464E23E
:1058E00079ED8BE597E02DE133EF41E050E00E9448
:1058F000222D49015A019B01AC01A7EAB1E40E94A3
:10590000112C6B017C01ACEEB4EFA50194010E9457
:105910001F2CDC01CB018C0D9D1DAE1DBF1DB7FFE3
:1059200003C00197A109B04888839983AA83BB83E8
:105930009F77DF91CF91FF90EF90DF90CF90BF9056
:10594000AF909F908F9008950E945B2C089580E007
:1059500091E00E945B2C0895B0E0A0E080930001EC
:1059600090930101A0930201B09303010895FC01FB
:105970004150504030F001900616D1F73197CF01D9
:105980000895882799270895FB01DC0104C08D91B3
:105990000190801921F441505040C8F7881B990BA1
:1059A0000895FB01DC0102C001900D92415050406E
:1059B000D8F70895F999FECF92BD81BDF89A99273D
:1059C00080B50895A6E1B0E044E050E00C94142DB9
:1059D000A8E1B0E042E050E00C94142D262FF99994
:1059E000FECF92BD81BDF89A019700B4021639F03E
:1059F0001FBA20BD0FB6F894FA9AF99A0FBE08950F
:105A00000396272F0E94EF2C0E94EE2C252F0E9438
:105A1000EF2C242F0C94EF2C0196272F0E94EF2CB3
:105A20000C94EE2CDC01CB01FC01F999FECF06C0F1
:105A3000F2BDE1BDF89A319600B40D92415050404C
:105A4000B8F70895052E97FB1EF400940E94392D97
:105A500057FD07D00E94CB2B07FC03D04EF40C94CB
:105A6000392D50954095309521953F4F4F4F5F4FC1
:105A7000089590958095709561957F4F8F4F9F4FBA
:105A80000895F894FFCF59075907AA07AA071D08D8
:105A90003908880788073E08AF08BE08BE08D11D30
:105AA000D81DDF1DE41DE91DEE1DF31DF81DFD1DB4
:105AB000021E071E0C1E101E151E181E1B1E1E1E6B
:105AC000211E231E261E281EB11E251FB91E831E41
:105AD000871EBD1E8B1EC11ECD1E971E1E1F9B1E28
