:100000000C94A3020C94DB020C94DB020C94DB0234
:100010000C94DB020C94DB020C94DB020C94DB02EC
:100020000C94DB020C94DB020C9457240C942B25CB
:100030000C94741F0C94DB020C94DB020C94DB0216
:100040000C94DB020C94DB020C94DB020C94DB02BC
:100050000C94DB020C94FB1F0C94DB020C94DB026F
:100060000C94DB020C94DB020C94DB020C94DB029C
:100070000C94DB020C94DB020C94DB020C94DB028C
:100080000C94DB020C94DB020C94DB020C94DB027C
:100090000C94DB020C94DB020C94DB020C94DB026C
:1000A0000C94DB020C94DB020C94DB022B0014009A
:1000B0001A00080015001700292104001600070087
:1000C00009000A00E1001D001B00060019000500E0
:1000D0001C0018000C00120013002A000B000D0079
:1000E0000E000F00330034001100100036003700FE
:1000F00038002832E30021522C002252E600000092
:1001000001001E021F0220022102220201002D0214
:100110002E022F02300231020100167CE300E200C1
:10012000E0003402230224022502260227024C00AA
:100130005000510052004F003500350250084E006B
:100140004B004F0831002C32010001002800010053
:100150000100000001001E001F00200021002200FD
:1001600001002D002E002F00300031000100167C10
:10017000E300E200E0003400230024002500260014
:1001800027004C003A003B003C003D003E003F0091
:1001900040004100420043004400450001000100CE
:1001A0002A000100010000002778257823782978AB
:1001B000217820780000DD00DE00DF00D100D200D1
:1001C0002878267824782A782278D3002F0A300AD3
:1001D0002F0830080000007CCF00CE00CD00D000FA
:1001E00000000000DB00DA00D900DC0000000000A5
:1001F0000100010000000100010000001E0F0500C9
:10020000047F3F1F643214643214783C1E1E140AAB
:10021000052223252628292A2C2D2F303233353646
:10022000383A3B3D3E4042434547494A4C4E505187
:10023000535557595A5C5E6062646668696B6D6FAE
:1002400071737577797B7D7F81838587898A8C8EB1
:1002500090929496989A9C9E9FA1A3A5A7A8AAACB9
:10026000AEAFB1B3B4B6B8B9BBBCBEBFC1C2C3C5F3
:10027000C6C7C9CACBCCCDCED0D1D2D2D3D4D5D695
:10028000D7D7D8D9D9DADADBDBDBDCDCDCDCDCDDC8
:10029000DDDDDDDCDCDCDCDCDBDBDBDADAD9D9D8AC
:1002A000D7D7D6D5D4D3D2D2D1D0CECDCCCBCAC944
:1002B000C7C6C5C3C2C1BFBEBCBBB9B8B6B4B3B173
:1002C000AFAEACAAA8A7A5A3A19F9E9C9A9896940E
:1002D00092908E8C8A89878583817F7D7B797775E3
:1002E00073716F6D6B6968666462605E5C5A5957C2
:1002F000555351504E4C4A4947454342403E3D3B81
:100300003A3836353332302F2D2C2A29282625230A
:1003100022FFAA7F554000010101010101010101F5
:1003200002020202020202020203030303030303A6
:100330000304040404040404050505050506060673
:100340000606070707070708080808090909090A30
:100350000A0A0B0B0B0C0C0C0D0D0D0E0E0E0F0FD5
:100360000F10101111111212131314141515161663
:100370001717181819191A1A1B1B1C1D1D1E1E1FD2
:100380002020212222232424252626272829292A21
:100390002B2C2D2D2E2F3031323233343536373849
:1003A000393A3B3C3D3E3F40414243444546474845
:1003B000494A4C4D4E4F50515354555658595A5B1B
:1003C0005D5E5F616264656668696B6C6D6F7072BB
:1003D000737577787A7B7D7E8082838587888A8C27
:1003E0008E8F91939596989A9C9EA0A2A3A5A7A95B
:1003F000ABADAFB1B3B5B7BABCBEC0C2C4C6C9CB52
:10040000CDCFD1D4D6D8DBDDDFE2E4E7E9EBEEF007
:10041000F3F5F8FAFDFF1403720065007600690039
:1004200075006E0067003400310000000C036700A7
:1004300074006900700073000000040309040902DD
:100440003B00020100A0FA090400000103010100C1
:100450000921110100012240000705810308000164
:10046000090401000103000000092111010001221B
:100470007B0007058203200001120100020000003A
:10048000080778CBDC01000102000105010902A187
:100490000185020901A10005091901290815002596
:1004A0000195087501810205010930093115812581
:1004B0007F95027508810609381581257F9501759C
:1004C000088106050C0A38021581257F95017508FB
:1004D0008106C0C005010980A101850319012AB761
:1004E00000150126B700950175108100C0050C09A3
:1004F00001A101850419012AA002150126A0029577
:100500000175108100C005010906A101050719E068
:1005100029E71500250195087501810295017508E7
:1005200081010507190029FF150026FF00950675B2
:1005300008810005081901290595057501910295A5
:100540000175039101C011241FBECFEFDAE0DEBFB9
:10055000CDBF04B603FE18C0809108039091090333
:10056000A0910A03B0910B038730904BA740B04B8A
:1005700059F4109208031092090310920A03109282
:100580000B03E0E0F8E3099511E0A0E0B1E0E0EC56
:10059000F1E502C005900D92A43DB107D9F723E023
:1005A000A4EDB1E001C01D92A830B207E1F70E94AE
:1005B00070120C948A280C94000023E042E061E061
:1005C0000E94810908958430B8F46730A8F4463059
:1005D00098F450E096E0699F400D511D1124FA01F6
:1005E0009AE2899FE00DF11D1124EE0FFF1FE455E3
:1005F000FF4F85919491089581E090E008950E94C5
:10060000E302089581E0089581E008950E940403C3
:10061000089508950E9409030895A5E0B0E0E3E17C
:10062000F3E00C947C2749835A833091DB01898164
:100630009A81311119C0662399F0222389F00E9412
:100640002109182F682F89819A810E94FD086981EC
:100650007A81812F0E9413102596E3E00C9498274D
:100660000E940F09182FF3CF0E94210969817A8116
:10067000F1CFFC01262F40815181628173818481F9
:100680000E940D03089581E00895CF93DF93EC015C
:1006900060E00E943903BE010E940A03DF91CF91FE
:1006A000089508950E94CF070E9451032FEF84E31D
:1006B0009CE0215080409040E1F700C00000089588
:1006C0000E9452030E941F2008950E9452030E941C
:1006D000432008950F931F93CF93DF938C0161E024
:1006E0000E943903EC01B8010E940603811106C083
:1006F00080E0DF91CF911F910F910895B801CE0155
:100700000E94121E8823A1F3B801CE010E94A81CEA
:10071000882371F3B801CE010E94841D882341F320
:10072000B801CE010E940A1C882311F3F8018281CE
:10073000882361F0C330FCE7DF07E9F058F4C11506
:10074000ECE7DE07A9F0C130DC47B9F0C8010E9430
:100750000203CFCFCB358CE7D807A9F0CC35ECE737
:10076000DE0771F0CA35DC4789F70E94770DEECFBE
:100770000E946003BDCF0E947F0D0E946503B8CF29
:100780000E946D0DE3CF0E947B0DE0CF0E94511FB0
:100790000E94F1030E94701A08950E94F5030E94BE
:1007A000471B0E94561F0895089581E008950895FB
:1007B000CF93DF93D82F0E94D503C82F882319F039
:1007C0008D2F0E94D7038C2FDF91CF91089508952C
:1007D000CF93C82F0E94D4038C2F0E94D803CF91AF
:1007E000089580E00E94E80308950E94601E0E9420
:1007F000E8030895CF930E94601EC82F8091D60110
:100800008C1779F0C093D6010E94E01F6093D70146
:100810007093D8018093D9019093DA018C2F0E94B4
:10082000E803CF910895ABE0B0E0E9E1F4E00C9487
:100830007D274F83588769877A878B8761110E944C
:10084000B80C1E821D8285E0FE013796DE011196EE
:1008500001900D928A95E1F78C819D81892B61F43D
:1008600049815A816B817C818D819E810E94E00B40
:100870002B96E2E00C94992789819A8189238F3FF6
:1008800079F3CE0101960E9443038111E9CFF0CFA5
:10089000FC01808191810E9453090895662329F00B
:1008A0000E94F4120E94C71308950E944E13FACFBB
:1008B000CF93C82F8823C9F08238C9F40E94601EE4
:1008C00081FD13C089E30E94700C0E94D90C2FEFA8
:1008D00087EE93E0215080409040E1F700C0000097
:1008E00089E30E94780C0E94D90CCF910895833837
:1008F000A1F40E94601E80FDF8CF83E50E94700C79
:100900000E94D90C2FEF81EE94E02150804090405E
:10091000E1F700C0000083E5E4CF8438A1F40E9431
:10092000601E82FDE2CF87E40E94700C0E94D90C09
:100930002FEF81EE94E0215080409040E1F700C01D
:10094000000087E4CECF8CEF8C0F813A90F46C2FAF
:1009500080910401909105010E94E21E882329F0F4
:100960008C2F0E94780C0E94D90C8C2F0E94700C46
:10097000BACF80E28C0F883048F4C77081E001C0A4
:10098000880FCA95EAF70E949B0CADCFEBE5EC0F00
:10099000E33040F4F0E0E05AFE4F808190E00E94A6
:1009A000861EA3CFE8E5EC0FEB3150F4F0E0EE0F3C
:1009B000FF1FE65DFE4F808191810E94AB1E95CFA7
:1009C00083E38C0F833108F090CF61E08C2F0E947D
:1009D0004E048BCF882309F456C0823879F40E94E4
:1009E000601E81FF50C089E30E94700C0E94D90CE8
:1009F00089E30E94780C0E94D90C0895833859F439
:100A00000E94601E80FF3FC083E50E94700C0E9420
:100A1000D90C83E5EECF843859F40E94601E82FF22
:100A200032C087E40E94700C0E94D90C87E4E1CFA9
:100A30009CEF980F913AE8F290E2980F983050F4BA
:100A4000877091E001C0990F8A95EAF7892F0E947B
:100A5000A10CD1CF9BE5980F933028F490E080E073
:100A60000E94861E089598E5980F9B3128F490E027
:100A700080E00E94AB1E089593E3980F933118F421
:100A800060E00E944E0408951F93CF93DF93182FC8
:100A9000EB010E945804209739F4812F0E94EA0448
:100AA000DF91CF911F9108958FE99FE00197F1F7B2
:100AB00000C000002197EFCF70E060E0893311F4AF
:100AC00060E570E00E9444050895882321F00E94AB
:100AD0009B0C0E94D90C0895882321F00E94A10C40
:100AE0000E94D90C0895B0E0A0E0E9E7F5E00C948D
:100AF00076276C01D62FC72FFC0112810581029544
:100B00000F700E94910CE82E8823E9F0E12E11234A
:100B1000D1F08C2F807F803451F080E28D0F8830AF
:100B2000F8F0011104C08C2F807E8032C9F08091D2
:100B3000C20282FF15C082E00E943C0D0E94910C0F
:100B400091E0E82EE926BC2EB2949FE0B922FBE0AA
:100B5000FB15B8F1EB2DF0E0E457F74D0C94362778
:100B6000E12CF1CF0C2F0F70C07F11F00295007FA8
:100B7000112399F0002359F080E28D0F883010F096
:100B8000D11107C0802F0E949B0C0E94D90C8D2F81
:100B900063C0802F0E94AB0CF8CF8D2F0E94EA0417
:100BA000002379F080E28D0F883010F0D11104C05D
:100BB000802F0E94A10C03C0802F0E94B10C0E94C4
:100BC000D90C2B2D2850330B2430310520F40E94F2
:100BD000601E0E94E803EE2089F00E948D0C80FDCB
:100BE0000DC0F60112820E94870C0E945B08C601AC
:100BF0000E948F070E94870C0E946B08CDB7DEB75A
:100C0000E9E00C9492272C2F2F70F22EC07FC03277
:100C100019F0F29480EFF822DD2381F0D13009F44D
:100C200049C0112309F451C0002309F448C0F6015A
:100C3000858180FFACCF8F70858341C08091C202D7
:100C400082FD15C0112359F0FF2029F08F2D0E943D
:100C50009B0C0E94D90C80E00E945804B2CF80E027
:100C60000E94EA04FF2009F4ACCF8F2DA2CF1123FC
:100C700081F0011106C00E94BB0C8F290E946505FE
:100C8000A0CF0130C1F70E94BB0C8F290E94C20C7B
:100C900098CF011106C00E94CF0C8F2D0E946C05C9
:100CA00090CF013009F48DCF8F2D0E946C050E94EA
:100CB000CF0C87CF112329F0063008F082CF8F2D7B
:100CC000DDCF053008F07DCFE8CF002331F3D933F5
:100CD00049F4FFEF27EE33E0F15020403040E1F7D8
:100CE00000C000008D2F0E94EA046BCF8C2F8695E8
:100CF0008695837069F0813009F063CF8D2F9C2F2A
:100D00009370111102C080E090E00E94AB1E59CF99
:100D10008D2F9C2F9370111102C080E090E00E94F3
:100D2000861E4FCF612F8D2F0E944E044ACF8C2FED
:100D30008370A1F5111145CF4D2F4295469547700F
:100D4000440F440F2D2F2F7030E0042E02C0220FCD
:100D5000331F0A94E2F790E080E0D4FF09C08FE0EF
:100D600090E002C0880F991F4A95E2F78095909510
:100D7000C695C695C370822B932BC23049F058F4A8
:100D8000C13019F00E942E081CCF0E94250819CFEF
:100D90000E94370816CF0E94220813CF8695112390
:100DA00011F08C2F8170882309F40BCF4D2F4295C1
:100DB00046954770440F440F2D2F2F7030E0042EBE
:100DC00002C0220F331F0A94E2F790E080E0D4FFC4
:100DD00009C08FE090E002C0880F991F4A95E2F7A2
:100DE00080959095C695C695C370822B932BC23083
:100DF00049F058F4C13019F00E949608E2CE0E94E2
:100E00008D08DFCE0E949F08DCCE0E944308D9CE19
:100E1000CF70112329F08C2F0E945B088D2F2ECFCD
:100E20008D2F0E946C058C2F0E946B08CACED23F7A
:100E300041F160F4D03FB9F0D13F81F0112309F4C2
:100E400046C00111A4CE8C2F8F711FC0D33F01F17A
:100E5000D43FA1F78091C20282FD24C08C2F8F71F4
:100E6000112311F312C0112341F0053008F0A9CE6F
:100E70008C2F8F710E947D08A4CE063008F0A1CE81
:100E8000F7CF8C2F8F711111CFCF0E945B0899CEB5
:100E9000112329F08C2F8F710E944F0892CE0E944F
:100EA0004A088FCE112349F0CF718C2F0E945B0826
:100EB00063E08C2F0E941E0D84CE81E00E943C0DC9
:100EC000023008F47ECE82E00E943C0D7ACE0023F0
:100ED00059F0D93309F006CF8FEF97EEE3E0815058
:100EE0009040E040E1F7FCCE8C2F8F719DCF0F93A7
:100EF0001F93CF93DF93EC01688179818A810E94EF
:100F00005E098C010E94A8080E942108B801CE0148
:100F10000E947305DF91CF911F910F910895CF9398
:100F2000DF93EC018B819C81892B29F08881998149
:100F300089238F3F51F4DF91CF910895CE010E9414
:100F40007707CE010E944503F6CFCE010E946A03C7
:100F50008111F4CF0E94910C882369F38A81882340
:100F600051F38091C20282FFE6CF82E00E943C0DE5
:100F7000E2CF90E080E00E94861E90E080E00E9438
:100F8000AB1E0E94B80C0E94D90C0E94E3130E9471
:100F9000C71308950E94800C0E94B90708950E940B
:100FA000A80C0E94CA07089592959F70963091F000
:100FB00058F4925F9F70923058F4803F19F030F4EB
:100FC000883E30F481E008959A5FF4CF843FD1F3F6
:100FD00080E00895883EB0F3813FD1F7F3CFFC0164
:100FE00083819481892B29F08081918189238F3F8E
:100FF00011F480E00895808191810E9453090E943C
:10100000D4070895A5E0B0E0E8E0F8E00C947D276F
:101010002596E2E00C949927A6E0B0E0E2E1F8E042
:101020000C947D272696E2E00C94992708950E945F
:10103000160808950E9417089093F7018093F6010F
:10104000089508950E941A0808952091F60130919C
:10105000F701822B932B0E941A0808952091F60124
:101060003091F701822393230E941A08089520915A
:10107000F6013091F701822793270E941A080895FC
:101080000E94DD0208950E9440089093F50180932C
:10109000F401089590E080E00E944308089521E063
:1010A00030E0A90102C0440F551F8A95E2F7CA013A
:1010B0000E944308089521E030E002C0220F331F50
:1010C0008A95E2F78091F4019091F501822B932BA0
:1010D0000E944308089521E030E002C0220F331F30
:1010E0008A95E2F7209530958091F4019091F50171
:1010F000822393230E944308089521E030E002C038
:10110000220F331F8A95E2F78091F4019091F50147
:10111000822793270E94430808952091F40130917B
:10112000F501822B932B0E94430808952091F4012E
:101130003091F501822393230E9443080895209162
:10114000F4013091F501822793270E944308089506
:101150000895262F277091E001C0990F2A95EAF78C
:1011600023E0769567952A95E1F7660F771F660F5E
:10117000771FFA01E60FF71F50E040E0682F70E09C
:101180008191DF0111979B01042E02C036952795AE
:101190000A94E2F7217021952827292328272C93E8
:1011A0004F5F5F4F4430510559F70895A82FA7703E
:1011B00023E0969587952A95E1F7880F991F880F68
:1011C000991FFB01E80FF91F50E040E080E02191FA
:1011D00030E00A2E02C0369527950A94E2F7217076
:1011E0003327042E01C0220F0A94EAF7822B4F5FA7
:1011F0005F4F4430510559F70895262F973070F40A
:10120000863060F4682F70E086E0989F600D711D55
:1012100011244CED51E0822F0E94A9080895292F36
:10122000973068F4863058F490E06CED71E036E069
:10123000239F800D911D11240E94D608089580E0FF
:101240000895B0E0A0E0E7E2F9E00C9476277C0195
:101250000091F4011091F5018091F6019091F70150
:10126000082B192BCFE0D0E0CC24C394D12CBC2E7A
:10127000C6010C2E02C0880F991F0A94E2F7802342
:101280009123892B49F4219790F7B12C8B2DCDB761
:10129000DEB7E9E00C949227B7018C2F0E941F1053
:1012A000019789F3F3CFCF93DF93EC010E942109DB
:1012B000BE010E941F10DF91CF9108951F93CF931D
:1012C000DF93EB019091DB01992339F0CB010E9470
:1012D0005309DF91CF911F910895882369F0CB01C5
:1012E0000E942109182F682FCE010E94FD08BE011F
:1012F000812F0E941F10EDCFCB010E940F09182FE4
:10130000F6CFE1E0F0E0DF0102C0AA0FBB1F6A9553
:10131000E2F7BD01DF0102C0AA0FBB1F4A95E2F749
:10132000AD01462B572B02C0EE0FFF1F2A95E2F7A7
:101330009A01282339232417350719F48E2B9F2B64
:101340000895E095F0958E239F2308951F93CF93E2
:10135000DF93C091F80116E08091F9018C1304C06D
:10136000DF91CF911F910895D0E01C9FF0011D9F48
:10137000F00D1124E650FE4F40815181628173814E
:10138000848195810E940C082196C770E5CF409119
:101390002A0250912B0260912C0270912D028091B3
:1013A0002E0290912F020E940C0808952091F801BE
:1013B0009091F90156E0291302C080E0089530E0D1
:1013C000529FF001539FF00D1124E650FE4F7181A2
:1013D000761306C07081781303C07281741304C041
:1013E0002F5F3F4F2770E7CF81E008951F93CF9382
:1013F000DF9380912F02807F09F04BC080912C02F7
:10140000882309F446C08091F801C091F901409108
:101410002A0250912B0260912D0270912E02D42F3E
:10142000D52316E0C817A9F190E061157105A9F15F
:10143000DF3F99F1189FF001199FF00D1124DF0192
:10144000A650BE4F11962C911197251326C02C91B2
:10145000241323C012962C91129721111EC01396AB
:101460002D913C91261B370B283C3105B0F480911F
:101470002F028F70806180932F02E150FE4F808198
:101480008F70806180838AE292E00E948F070E94C1
:10149000A609DF91CF911F91089501968770C2CF61
:1014A000A1E1B0E0E6E5FAE00C9473278C0185E059
:1014B000F801DE011D9601900D928A95E1F7F80181
:1014C000F2808AE2A82E82E0B82E40912D0250913F
:1014D0002E024115510509F45AC190912A0220911A
:1014E0002B02892F82238F3F09F451C1C080D18004
:1014F00083809480E0902C02B401641B750BEE2075
:1015000009F4F6C080912F02382F307F683C7105B6
:1015100008F0AFC031117AC0EF2C2D1116C09C110C
:1015200014C0F11012C08F70806180932F020E944E
:10153000C709C5010E948F0780912F02F80185839A
:101540008E2D6196ECE00C948F2781149104C9F1E3
:101550008C2D8D218F3FA9F181E08F2580FF05C063
:101560004F2D6D2D8C2D0E94D6098114910459F1B7
:101570008C2D8D218F3F39F181E08F25F82FF1706F
:10158000BF2E80FF39C04F2D6D2D8C2D0E94D609A6
:10159000A82E811131C0CD86DE868D859E850E9464
:1015A0005309292F22952F70243078F49F70223010
:1015B000A8F09923B9F0F8019581907F99F4EA2C6D
:1015C000BFCF80E0CBCF80E0D9CF2A5F2F70223011
:1015D00068F0C8010E948F07AB2CF1CF992311F05E
:1015E000882369F3805E883050F3F3CF803F38F36F
:1015F000815F833070F7E3CFFF2009F4A1CF8091A2
:101600002F02816080932F02E12C9ACF2D1105C00B
:101610009C1103C0FF2009F486C0C8010E94EF0797
:10162000882319F1FF2009F180912F02803270F098
:1016300020912A0230912B0238872F8319869B86AE
:101640008A868C87CE0107960E948F0786E0F80174
:10165000AAE2B2E001900D928A95E1F70E94F609A4
:101660000E94C709EE24E3946BCFC8010E948F0744
:10167000F9CF311114C0782D998A888AA6016F2D6F
:1016800089890E9402088AE292E00E948F0786E020
:10169000F50111928A95E9F70E94C709B5CF2D117E
:1016A0000EC09C110CC0F1100AC08583C8010E94B5
:1016B0008F0786E0F50111928A95E9F741CFC801BD
:1016C0000E94EF07882389F2FF2079F280912F0290
:1016D000803208F4BBCF20912A0230912B023A834A
:1016E00029831B829D828C828E83CE010196ACCF92
:1016F000683C710508F03DC0EF2CFF2009F4B5CF20
:101700002D1129C09C1127C080912F0280FD1AC085
:10171000982F907FB9F08583903F31F0982F907F7C
:10172000905F8F70892B8583C8010E948F0786E0A8
:10173000F801AAE2B2E001900D928A95E1F70E94C9
:10174000C709FECE86E0F801AAE2B2E001900D9250
:101750008A95E1F7F5CEC8010E94EF07811176CF97
:1017600080912F02816080932F02C8010E948F0711
:10177000E7CE782D998A888AA6016F2D89890E94E3
:10178000020886E0F50111928A95E9F7D8CFFF208B
:1017900009F46BCFC8010E94EF07E82E882309F4F3
:1017A00064CF86E0F801AAE2B2E001900D928A953A
:1017B000E1F78AE292E00E9448040E94F609BFCF56
:1017C000ACE0B0E0E6EEFBE00C947C274F8358875A
:1017D00069877A878B879C87CE0107960E94500A7B
:1017E0008823B1F08A859B85892B39F04F815885F4
:1017F000842F85238F3F09F06CC016E08091F8019B
:101800009091F901891343C02C96E3E00C9498273A
:1018100086E0FE013796DE01119601900D928A95C1
:10182000E1F78A859B85892B41F38F8198858923F0
:101830008F3F19F32091F90130E0C90101968770BB
:1018400099274091F8014817190671F40E94CF07B3
:101850001092F9011092F80186E0EAE2F2E0DF016D
:101860001D928A95E9F7C9CF96E0929FD001939F88
:10187000B00D1124A650BE4FFE01319601900D927D
:101880009A95E1F78093F9010E94A609B6CF819F4E
:10189000C001112486509E4F0E94500A882309F4EB
:1018A000B3CFE091F8011E9FF0011124E650FE4FE6
:1018B0004081518162817381848195810E940C08ED
:1018C0008091F80190E00196877099278093F80144
:1018D00095CF69857A858B859C850E940C088DCF74
:1018E000682F80910401909105010E94181F0895AE
:1018F000682F80910401909105010E941B1F08959B
:1019000080910401909105010E941E1F089580910D
:101910003802859585958595089580913802877060
:10192000089590913802977081E009F480E008955D
:1019300080914302089590914302892B8093430242
:1019400008958095909143029823909343020895BF
:1019500010924302089590914202892B8093420293
:1019600008958095909142029823909342020895A1
:1019700010924202089580913902089508950E94BC
:10198000BE0C08959091C20292FF08C09091390256
:10199000981721F0809339020E94BF0C089580911E
:1019A0003902882329F01092390280E00E94BF0C8E
:1019B0000895CF93DF93E0910401F09105018091A8
:1019C00043028083E0910401F091050180819091B0
:1019D0004202892B808390913902992381F0E09112
:1019E0000401F09105018081892B8083809104019D
:1019F000909105010E94D01E81110E94CF0CC091D0
:101A00000401D091050148E050E060E372E0CE01AE
:101A10000E940D28892B59F088E0FE01A0E3B2E076
:101A200001900D928A95E1F7CE010E946D1EDF9123
:101A3000CF91089508950E941A0D08959091C202C1
:101A400092FF11C098E0899F90011124622B60934E
:101A500038020E945B0880913802859585958595AE
:101A60000E941B0D08950E945B0808951092380291
:101A700080E00E941B0D0895909138028095892383
:101A800080933802282F277091F4282F082E000CFD
:101A9000330B9217130659F09091C20292FF07C0C0
:101AA0008595859585950E946B080E94360D089551
:101AB0009091C20292FB222720F9281769F080FB3F
:101AC00092F99093C2028091C1029091C2020E9449
:101AD000A00D82E00E943C0D08958091C20282FB1D
:101AE000882780F991E089270E94580D089581E0A8
:101AF0000E94580D089580E00E94580D08956FEFE0
:101B00007FEF90E080E00E945528089590E080E00B
:101B10000E94312821E0873E9E4F09F020E0822F6D
:101B2000089582E090E00E942328089583E090E0E9
:101B30000E942328089584E090E00E9431280895AF
:101B4000BC0184E090E00E9455280895AB01BC01DF
:101B50008FE090E00E9449280895AB01BC0183E129
:101B600090E00E944928089560E070E0CB010E9457
:101B7000AD0D089560E070E0CB010E94A60D0E94BB
:101B8000B40D089567EE7EEF90E080E00E94552846
:101B900060E082E090E00E94372860E083E090E01F
:101BA0000E9437281092F7011092F60160E074E16C
:101BB00084E090E00E94552860E086E090E00E947A
:101BC00037286FEF87E090E00E94372840E050E030
:101BD000BA0188E090E00E94492860E08DE090E042
:101BE0000E94372840E050E0BA0188E190E00E946E
:101BF000492860E087E190E00E94372840E050E00B
:101C0000BA018CE190E00E94492870E060E080E237
:101C100090E00E94552840E050E0BA0188E190E051
:101C20000E9449280E94BA0D08950E94C20D08958D
:101C3000682F8EE090E00E9437280895A5E0B0E07C
:101C4000E4E2FEE00C947B270E94D41F8C0180917B
:101C500044029091450280179107A1F08FEF89838C
:101C60008A831B820E94D41F8160782F9D838C837E
:101C700049815A816B818D810E9413041093450222
:101C8000009344022596E4E00C9497270E94E01FFD
:101C900060935102709352028093530290935402C6
:101CA00060934D0270934E0280934F0290935002C6
:101CB0000895089508950E945A0E089508950E9467
:101CC0005E0E089581E0089589E091E10E94561E1C
:101CD0000E94590E0E945B0E08950E94620E0895A4
:101CE0000E946D0E0895089508950E94730E0E943B
:101CF000740E08950E940C110E94E70308950E943B
:101D0000CB1F0E94D3110E947A0E0E940B1B0E94CF
:101D10005F0E0895A5E0B0E0E0E9FEE00C947527C1
:101D20000E94620E81110CC00E941E0E0E94511B67
:101D30000E9405140E94FA032596EAE00C9491276C
:101D40000E94E91186E4A82E82E0B82E750110E009
:101D5000F70101917F01812F0E9432111F5F17301F
:101D600009F440C00817A1F38091550281FD0E943B
:101D700038110E94700EC82E10E0812F0E9432117F
:101D8000082FF50181915F01081731F1D02ED82677
:101D9000F12CEE24E3948D2D8E21B1F0CC20A1F016
:101DA000F9821A8391E0802F8E2109F490E09B83C1
:101DB0000E94D41F8160782F9D838C8349815A8132
:101DC0006B818D810E941304F394EE0CF6E0FF12F8
:101DD000E2CFF501319700831F5F173071F60E9443
:101DE000460EA4CF0813C0CF9FCF1F93CF93DF938E
:101DF0000E942410EC01C11580E5D807F0F5C1154B
:101E000080E4D80708F09CC0C03ED10520F5CD3C49
:101E1000D10508F082C0C83AD10578F4C53AD10599
:101E200008F073C0C130D10519F1209709F1C43011
:101E3000D105F0F4D0E0C0E01BC0C33CD105D0F721
:101E4000C85AD0E0CC0FDD1FCD59DE4F0990D881A4
:101E5000C02DD4640DC0C11580E2D80708F0D1C0F0
:101E6000C11581E0D80708F05AC0C83ED10510F767
:101E7000CE01DF91CF911F910895C03682E5D8073A
:101E800018F5C03482E5D80708F06BC0C03282E58F
:101E9000D80708F05FC0C11582E5D80708F497C0DD
:101EA0002C2F2695269580E2289F900111248C2FB7
:101EB0008370C1E0D0E002C0CC0FDD1F8A95E2F74D
:101EC000C22BD32BDD68D4CFC03A82E5D80760F4AB
:101ED000C03882E5D80708F459C0CF71D0E0DC2FB4
:101EE000CC27C46FD06AC4CFC03C82E5D80708F4C1
:101EF00062C0C03E82E5D80708F09CCFDC2FCC271B
:101F0000CC27DF71C06FD06AB3CFC55AD0E0C756B7
:101F1000DE4FC881D0E0D064ABCFD065A9CF8D2F84
:101F20000E94C610182FCE0199270E942410C12F9D
:101F3000D0E0DC2FCC27CC27DF71C82BD92B98CF52
:101F4000CE0199270E942410CC27DF70C82BD92BF3
:101F5000D06A8ECFCF71D0E0DC2FCC27C16FD06A92
:101F600087CF2C2F26952695277080E2289F9001F9
:101F700011248C2F8370C1E0D0E002C0CC0FDD1F94
:101F80008A95E2F7C22BD32BDC6872CF2C2F2695D3
:101F90002695277080E2289F900111248C2F837052
:101FA000C1E0D0E002C0CC0FDD1F8A95E2F7C22B62
:101FB000D32BDA685DCF8C2F8F710E94C610C82F8B
:101FC000D0E0DC2FCC27CC27DF71D06251CF8C2F13
:101FD0008F710E94C61055E0D695C7955A95E1F7C6
:101FE000CF70D0E0DC2FCC27282F30E084FF05C055
:101FF00044E0220F331F4A95E1F7C22BD32BD0695F
:1020000037CF8D2F8F710E94C610182FCE019927C0
:102010000E942410C12FD0E0DC2FCC27CC27DF7109
:10202000C82BD92BD2CF462F773030F4663020F42E
:10203000672F0E94FF02089590E080E008950E94BB
:1020400013100E94F50E089582389105B9F1B0F48D
:102050008133910509F47DC048F48932910509F472
:102060006DC08A32910509F47BC0089585339105CE
:1020700009F45FC08933910509F10895833E910504
:10208000D9F138F4803E910529F1823E910579F12C
:102090000895863E9105D9F1873E910509F43EC029
:1020A000843E910541F52091C20221FF24C0809118
:1020B000C10284FD19C087EE90E008952091C1020D
:1020C000237009F05AC02091C20223FF14C089E294
:1020D00090E008952091C10220FD38C03091C202E5
:1020E00030FF09C024FF43C090E080E008952091B4
:1020F000C10222FDF7CF08952091C10222FD3AC00E
:102100003091C20230FD39C024FFF5CFEDCF2091D0
:10211000C10223FFF0CF24FDE7CFCDCF2091C10234
:1021200023FD2EC03091C20231FFEECF84EE90E04D
:1021300008952091C10225FFDECFC9CF2091C102B1
:1021400025FD21C02091C20223FFD5CF89E390E075
:10215000D2CF2091C10226FFCECF8AE290E008952F
:102160002091C10226FFC7CF81E390E0089583EE5E
:1021700090E0089582EE90E0089580EE90E008955A
:1021800086EE90E0089585E390E008959091C10275
:1021900092FF06C0282F28712830F9F4877F8460C9
:1021A00093FF06C0282F28712831F1F4877E8461BF
:1021B0002091C20220FF06C0382F38713830D9F480
:1021C000877F816021FF06C0282F28712831D1F434
:1021D000877E816194FD877E0895282F24712430A5
:1021E000F9F68B7F8860DCCF282F2471243101F72A
:1021F0008B7E8861DDCF382F3171313019F78E7FBA
:102200008860E0CF282F2171213121F78E7E8861EF
:10221000E1CF80E0089508950E94860D811102C0EB
:102220000E94150E0E94910D809355020E949B0DF5
:102230009093C2028093C1020E940B110E94960DDE
:1022400090E00E9422088091F4019091F5010E9493
:102250004008089508950E942A11089508950E9443
:102260002E110895E82FF0E0E653FD4F8081089588
:10227000089580EA8A95F1F7089500C008950E94B4
:1022800039110895F894E82FE295EF70F0E031A14C
:10229000282F2F7081E090E001C0880F2A95EAF77F
:1022A000982F9095932391A392A1892B82A3789440
:1022B0000895CF93DF93C2EAD1E089918F3F11F067
:1022C0000E94421181E0C93AD807B9F7CCE9D1E0C0
:1022D00089918F3F11F00E94421181E0C23AD807E4
:1022E000B9F7DF91CF910895B0E0A0E0EAE7F1E11E
:1022F0000C947727EC01D62E062F10E0C8018E55DE
:102300009E4F7C01FC0180818F3F09F445C0F89409
:10231000E82FE295EF70F0E091A18F7021E030E0BE
:1023200001C0220F8A95EAF7892F822B81A382A10F
:102330002095282322A378940E943D11ECE9F1E036
:1023400042EA51E031E0C12C21912F3F51F1A22FFF
:10235000A295AF70B0E090968C9190E02F7002C083
:10236000959587952A95E2F780FD1BC0832FC82A93
:10237000330F4E175F0741F7F70180818F3F11F050
:102380000E94421161E0C11001C060E08D2D0E94E9
:102390003F11C00FD11FC882CDB7DEB7E8E00C9463
:1023A000932780E0E4CF0E94591187E0EAECF2E045
:1023B000DF01982F1D929A95E9F7E3ECF2E0DF0137
:1023C0001D928A95E9F787E00E9424120E942B1142
:1023D0000895A7E0B0E0EFEEF1E10C947A278E01CA
:1023E0000F5F1F4F87E0F80111928A95E9F7F12CF2
:1023F0006F2DC8010E947411F394F7E0FF12F8CF1B
:1024000047E050E0B80183EC92E00E940D2821E003
:10241000009709F420E0892B41F087E0F801A3EC54
:10242000B2E001900D928A95E1F747E06AEC72E024
:1024300083EC92E00E942512182F0E942F11812F09
:102440002796E5E00C9496270895CF92DF92EF92BD
:10245000FF920F931F93CF936C017B01042F2223D4
:1024600049F081E0809358020E94D41F9093570254
:1024700080935602C0915802C1110AC0C0E08C2F4F
:10248000CF911F910F91FF90EF90DF90CF90089523
:1024900080915602909157020E94EC1F059770F3AD
:1024A00010E0A801B601C7010E940D28892B41F058
:1024B000A801B601C7010E941A2810925802DFCF66
:1024C000C0E0FBCF0E94A8210E947F0E0E94B52190
:1024D00008950E94BA210E948A0E0E94D421089574
:1024E0000E946D1F0E948E210E94640E0E94621243
:1024F0000E9469120E94750EFBCF80915F0280FFDF
:102500000DC060910B0170E0660F771F6038710598
:1025100070F56115710569F1862F089581FF07C077
:1025200060910B0184E0689FB0011124EFCF6091AE
:102530000B0182FD0AC080915E028823A9F02091E0
:102540000A0160910B01821710F088E0ECCF869FA2
:10255000C001112433E0880F991F3A95E1F7622FEB
:1025600070E00E940027D2CF68E070E0D5CF8FE7FF
:10257000089581E0089580915F0280FF0CC0609112
:10258000070170E0759567957595679561157105FB
:1025900049F1862F089581FF06C06091070170E020
:1025A00075956795F3CF6091070182FD0BC09091FF
:1025B0005D029923A1F060910601809107019617B1
:1025C00038F0682F70E06038710500F38FE70895E8
:1025D000899FC001112470E00E940027F4CF61E0C0
:1025E00070E0D7CF81E008958D3C31F40E947D12D8
:1025F00081958093630208958E3C19F40E947D12A8
:10260000F8CF8F3C31F40E947D1281958093620255
:102610000895803D19F40E947D12F8CF893D29F478
:102620000E94BB128093640208958A3D21F40E94A7
:10263000BB128195F7CF8B3D31F40E94BB1281957F
:102640008093650208958C3D19F40E94BB12F8CF67
:102650009FE2980F983070F4815D990B21E030E093
:1026600001C0220F8A95EAF780916102822B809344
:10267000610208958D3D31F480915F028160809305
:102680005F0208958E3D21F480915F028260F7CF52
:102690008F3DB9F780915F028460F1CF4091620273
:1026A0008D3C59F48091630287FF0DC01092630244
:1026B00041110BC010925E0208C08E3C81F48091E3
:1026C000630218169CF3442381F080916402909178
:1026D0006502892B09F05AC010925D0208958F3C63
:1026E00049F447FFF0CF109262028091630281119A
:1026F000ECCFE0CF803D19F41416ACF3E4CF909109
:102700006402893D29F41916F4F610926402DBCFB5
:102710008A3D19F497FFD7CFF8CF909165028B3D92
:1027200029F497FFD0CF10926502CDCF8C3D19F4DC
:102730001916CCF3C8CF9FE2980F983090F4815DC2
:10274000990B21E030E0B90102C0660F771F8A952E
:10275000E2F7CB0180959091610289238093610219
:10276000B2CF8D3D31F480915F028E7F80935F0206
:10277000AACF8E3D21F480915F028D7FF7CF8F3DF0
:1027800009F0A1CF80915F028B7FF0CF08950E9466
:10279000D41F9C019091620280916302982B21F0DA
:1027A00030935C0220935B029091640280916502F9
:1027B000982B21F030935A022093590280E692E040
:1027C0000E94781E089586E0E0E6F2E0DF011D92A7
:1027D0008A95E9F710925E0210925D0210925F02F4
:1027E0000895FC01828181110EC0838181110BC08B
:1027F0008481811108C091E08581811101C090E040
:10280000892F8170089581E0FCCFA6E0B0E0EBE075
:10281000F4E10C947C2786E0E0E6F2E0DE0111961C
:1028200001900D928A95E1F7109262021092630274
:1028300010926402109265028B819C81892B89F031
:1028400080915B0290915C020E94EC1FAC01909120
:102850005E029923C9F180910C018417150608F4D2
:1028600040C08D819E81892B91F080915902909179
:102870005A020E94EC1FAC0190915D02992309F469
:1028800071C0809108018417150608F479C0BE0153
:102890006F5F7F4F80E692E00E94251F811105C087
:1028A00080E692E00E94F11381110E94C71386E036
:1028B000FE013196A0E6B2E001900D928A95E1F713
:1028C0002696E3E00C94982720910D018AE0289F3A
:1028D000900111242417350720F69F5F90935E0224
:1028E00002C09F3FD1F71B81112359F00E947D1236
:1028F0009FEF11160CF491E0899F802D1124809395
:1029000062021C81112359F00E947D129FEF111663
:102910000CF491E0899F802D112480936302309103
:102920006202332309F49DCF20916302222309F42C
:1029300098CF45EB3403C0011124992359F09093AB
:10294000620245EB240390011124332339F03093C4
:10295000630287CF81E080936202F3CF81E08093AE
:1029600063027FCF209109018AE0289F9001112402
:102970002417350708F08BCF9F5F90935D0202C04C
:102980009F3FD1F71D81112359F00E94BB129FEF89
:1029900011160CF491E0899F802D1124809364021C
:1029A0001E81112359F00E94BB129FEF11160CF4E7
:1029B00091E0899F802D11248093650230916402FB
:1029C000332309F464CF20916502222309F45FCFF9
:1029D00045EB3403C0011124992359F0909364020C
:1029E00045EB240390011124332339F03093650221
:1029F0004ECF81E080936402F3CF81E08093650243
:102A000046CFEF92FF920F931F93CF93DF93EB018B
:102A1000E82FD1110EC0442321F0F0E0EA5EFC4F14
:102A2000E4916E2F7E2F8E2FCDB7DEB7E6E00C94AB
:102A300095270D2F10E0282F30E0442329F02A5E3F
:102A40003C4FF901249130E0F6E0CF9FC001112402
:102A5000EFEFF0E0BF010E94EC26AB018C2F90E07D
:102A6000880F991FA5E5A49FB001A59F700D1124A3
:102A7000861B970B982F990F980FBF01601B710B46
:102A8000629FD001639FB00D729FB00D11248B2FF8
:102A90009D9FB0011124672F7727EF01C61BD70B2D
:102AA000BE01629FE001639FD00D729FD00D112483
:102AB0007F01E91AF108E09EB001E19E700DF09EE1
:102AC000700D1124672F7727E61BF70BE29F80011B
:102AD000E39F100DF29F100D1124E12F722F423051
:102AE000510599F048F44115510569F041305105FF
:102AF00081F0EB2F8D2F07C04430510569F080F035
:102B000046305105B1F76E2F8FCFE22F7B2F812FEB
:102B1000FACFE22F7D2FF7CFEB2F822F712FF3CF3C
:102B20007B2F822FED2FEFCF41E00E9401150895FA
:102B300008950E9494150895CF93DF93762FE901AD
:102B4000682F842F0E949915798368838A83DF9187
:102B5000CF9108958091D102982F9E7F29F48170A2
:102B600082608093D10208958635E8F38170846590
:102B7000F8CF88E090E00E942B280895CF92DF9252
:102B8000EF92FF926B017C010E94AA15B701A6018A
:102B900088E090E00E944928FF90EF90DF90CF906E
:102BA0000895E1EDF2E083E0808311828FEF82836C
:102BB0008383148260817181828193810E94BE151A
:102BC00008958091D10280FF02C08695089580E02B
:102BD00008959091D502933018F49F5F9093D50299
:102BE000882351F06091D1027091D2028091D3027A
:102BF0009091D4020E94BE15089581E00E94E915CB
:102C000008959091D502992319F091509093D5028F
:102C1000882351F06091D1027091D2028091D30249
:102C20009091D4020E94BE15089581E00E94011681
:102C3000089570E00E947C1C0895609112018091BB
:102C4000D10280FF0BC08091110123E0829FC0015F
:102C500011248A529D4F0E941916089580911301E4
:102C60009091140123E0829FF0011124EA52FD4F5C
:102C7000891748F71182108212828F5F3396F8CF3E
:102C80009091D10290FF0EC09091130120911401F8
:102C900033E0939FF0011124EA52FD4F921718F090
:102CA0000E941D1608958183608342839F5F33963F
:102CB000F5CFA3E0B0E0EFE5F6E10C947D2790912D
:102CC000D10290FF0AC09E012F5F3F4F0E949C15CA
:102CD0004B8169818A810E9440162396E2E00C9420
:102CE0009927CF93DF93EC01EC81F0E0EF5EFD4F8D
:102CF0004491E1EDF2E0628181810E9459168C815C
:102D00008F5F8C83DF91CF910895CF93DF93EC0198
:102D1000E1EDF2E0438162818C810E9459168C8141
:102D20008F5F8C83DF91CF910895A3E0B0E0EBE952
:102D3000F6E10C947B278C018091660281110AC018
:102D40009E012F5F3F4F4FEF6FEF0E949C158A81CE
:102D500080936602F8016481613069F080916602B7
:102D600040E0662361F040E0623011F44091660279
:102D700080E060E004C06091660240E080E00E9474
:102D80004016F801848190E0019663E070E00E94B3
:102D9000002784832396E4E00C949727A3E0B0E017
:102DA000E4EDF6E10C947627082FD62EE42EC22E01
:102DB0009091D10290FF29C0E92FE695AE2FB0E0A7
:102DC000A755BE4F8C918093A9029E7F923009F542
:102DD0009E012F5F3F4F802F0E949C154B81698180
:102DE0008A810E9440160093D202D092D302E092D0
:102DF000D402CC2051F06091D1027091D202809126
:102E0000D3029091D4020E94BE152396E9E00C945F
:102E10009227823019F4E090D402E5CF863019F47D
:102E20000091D202E0CF8930D9F38931E1F6E9513E
:102E30006E2F6170B62EE695F0E0EF5EFC4F1491B8
:102E4000F12C60911501F61618F00E941D16CBCFDB
:102E5000F19EC001112470E00E94EC26802FB11079
:102E600014C0860F20911301622F6F0D7727771FF3
:102E70009B01220F331F260F371F2A523D4F4E2D25
:102E80006D2D0E949C15F394DCCF861BEBCFE1EDFA
:102E9000F2E09181282F4381628180E1890F0E94B5
:102EA000CE16089581E00E9447170895E1EDF2E003
:102EB0009181282F4381628180EF890F0E94CE1675
:102EC000089581E00E9456170895E1EDF2E06281D5
:102ED00020E1620F08F46FEF282F438181810E9467
:102EE000CE16089581E00E9465170895E1EDF2E0A5
:102EF000628120E1621B08F460E0282F4381818118
:102F00000E94CE16089581E00E9476170895E1EDA3
:102F1000F2E0438120E1420F08F44FEF282F628155
:102F200081810E94CE16089581E00E94871708953E
:102F3000E1EDF2E0438120E1421B08F440E0282F5C
:102F4000628181810E94CE16089581E00E949817C7
:102F5000089520E00E94CE160895EF92FF921F93ED
:102F6000CF93DF93EC0110E0EE24EA94F12C609112
:102F70001501161770F00E941D169A818C8190FF22
:102F800027C08F5F8C83DF91CF911F91FF90EF90CF
:102F9000089520911301422F410F5527551FCA0153
:102FA0009A01220F331F280F391F2A523D4F70E01C
:102FB000C7010E940027962F8C814091D402609116
:102FC000D302199F800D11240E949C151F5FCFCF43
:102FD0008150D8CFB0E0A0E0E0EFF7E10C94752786
:102FE000FC0182810FEF80FF01E010E04BE0A42E96
:102FF00080911501181798F00E941D1680916802A3
:10300000013009F04FC0811102C08091150181503B
:1030100080936802CDB7DEB7EAE00C949127C091A7
:103020001301C12ED12CCC0DDD2DD11DCE01880F69
:10303000991FC80FD91FCA52DD4F198218821A82F0
:1030400034E0E32EF12CB12C809168028B0D8C3092
:103050001CF16A2D0E94DE26892F082E000C990B88
:10306000C816D90691F48091D4028E9DA0018F9D3F
:10307000500D112455954795559547959E016091A2
:10308000D3028091D2020E949C15B00EF1E0EF1A9B
:10309000F108D1F61F5FACCF87FFDFCF909115010C
:1030A000890FDBCF90E001966091150170E00E94DE
:1030B0000027AECF0F931F93CF93DF93809113011F
:1030C0009091140123E0829FF0011124EA52FD4FF8
:1030D000891740F1C0E0D3E060911501C61740F1B7
:1030E0000E941D1620910F0180916702820F80932C
:1030F000670290911001920F90931001191654F4E9
:10310000082E000C990B409115014150550B841766
:1031100095071CF0219520930F01DF91CF911F910E
:103120000F9108951182108212828F5F3396D0CF53
:103130000C2F10E070E0C8010E94002720911301BD
:10314000820F482F50E020916702022E000C330BB3
:1031500002171307BCF020911001022E000C330B54
:10316000201731077CF08D9F900111242A523D4F8A
:103170004091D4026091D3028091D2020E949C15AA
:10318000CF5FAACFFA01EE0FFF1FE40FF51FEA523F
:10319000FD4F118210821282F3CFB0E0A0E0E3ED88
:1031A000F8E10C947327EC014C81042F10E0980196
:1031B000D8010E9444279B01AC010E945A274B0171
:1031C0005C01E0E2F0E0E01BF10BA5E5B0E0AC0152
:1031D0009B010E945A276B017C019F01DF010E9425
:1031E0003C279B01AC010E9465279B01AC01280D87
:1031F000391D4A1D5B1DC701B6010E941427F22E1E
:10320000822F90E039E23F1520F143E0249F9001A6
:10321000112435952795122F109500E085E5E82EAD
:10322000EF1880911501081718F10E941D169C8156
:1032300081E0992319F0903219F48FEF80930E01F9
:1032400080910E01890F8C83CDB7DEB7ECE00C9432
:103250008F2725E530E0B901681B790B9B01220F10
:10326000331F260F371F37FFD4CF2F5F3F4FD1CFEC
:103270008E2D01FD8F2D20911301622F600F772776
:10328000771F9B01220F331F260F371F2A523D4FF6
:10329000412F6091D3020E949C150F5FC2CF0F9304
:1032A0001F93CF93DF93EC0110E000E090911501A4
:1032B0009017110609F06CF40E941D168C8190E0A5
:1032C0000196817099278C83DF91CF911F910F9187
:1032D000089520911301A801420F511D9A01220F58
:1032E000331F240F351F2A523D4F4C816091D3026A
:1032F0008091D20296959017110651F04CF044231C
:1033000049F04091D4020E949C150F5F1F4FCECF11
:103310004423B9F340E0F7CFB0E0A0E0E2E9F9E1FF
:103320000C946F27FC016280448081E08483E1E19A
:10333000F2E07490E0E9F2E0E491C091D402C69525
:10334000C158D0E0CC0FDD1FCD2FDD27812C75E0DB
:10335000972EAA24AA94B12C55245A94E719EE2E3C
:10336000F12C80911501881638F00E941D16CDB7FA
:10337000DEB7E0E10C948B27C82CD12C82E08615B7
:1033800068F09C9CF0019D9CF00D1124E759FD4FC5
:103390008091D20280838091D3028183411023C027
:1033A0009C9CF0019D9CF00D1124E759FD4F138268
:1033B000128220911301C601820F911D9C01220FE0
:1033C000331F280F391F2A523D4F9C9CF0019D9CB2
:1033D000F00D1124E759FD4F4281618180810E94E7
:1033E0009C158394BECF9C9C80019D9C100D112444
:1033F00007591D4FF80183818823F1F081508383A1
:10340000859DC0011124648170E00E94EC26FB01BF
:10341000FF27EF5EFD4F8491E82FE719E59DC0017E
:103420001124B7010E94EC268091D402689FB0015C
:103430001124F8017283BDCF0E94F027B5010E94CC
:1034400000278C179D070CF0B4CFF2E0F61598F426
:103450000E94F027B5010E940027F80180830E9496
:10346000F0272091D3022695622F70E00E9400275A
:10347000280FF80121839C9CF0019D9CF00D1124E4
:10348000E759FD4F12828091D402893C58F088ECB4
:103490009C9CF0019D9CF00D1124E759FD4F848305
:1034A000838387CF8431A0F784E1F2CFE1EDF2E0AE
:1034B00080818E7F808360817181828193810E946F
:1034C000BE151092AA020E941D160895E1EDF2E0C9
:1034D00080818E7F80831092AA020E941D1608951B
:1034E0001092AA028091A70281110AC081E0809304
:1034F000A7028091D10281708093A6020E94661A71
:1035000008956091D102669570E04BE050E086E14D
:1035100091E00E940028892B19F481E08093AA028F
:103520000E94D41F9093A1028093A00208959091CD
:10353000D10290FF2BC09170811129C092609093AD
:10354000D102662351F06091D1027091D202809134
:10355000D3029091D4020E94BE156091D10266956B
:1035600070E04BE050E086E191E00E940028892B5A
:10357000A9F01092AA0281E08093A3024091D402A4
:103580006091D3028091D2020E94A91708958B32D4
:1035900010F09465D4CF880F982BD1CF0E94811A58
:1035A000EACF682F9091D102969581E0890F8B32F6
:1035B00008F081E00E94971A089581E00E94D11AD4
:1035C0000895682F9091D10296958FEF890F09F495
:1035D0008AE20E94971A089581E00E94E11A0895F4
:1035E00061E00E94971A0895E1EDF2E08081816028
:1035F000808386950E94F01A08958091D10280FF01
:1036000003C00E94561A08950E94F41A089560E0BB
:103610000E94971A08958091A80281112EC00E94DD
:10362000860D811104C00E94150E0E94D1150E94C2
:10363000B9156093D1027093D2028093D302909314
:10364000D4026E7F61F40E94D1150E94B915609377
:10365000D1027093D2028093D3029093D4020E943D
:10366000AA151092AA028091D10280FF03C086950C
:103670000E94071B81E08093A8020895E1EDF2E02B
:1036800080818160808386950E94071B0895109237
:10369000A7028091A60281110E943E1B0E94811AFE
:1036A00008950F931F93CF93DF938091AA028823ED
:1036B000B9F18091A902E091D102E695E81BE0936F
:1036C000A202823091F5F0E0E35FFD4FE491CE2F4E
:1036D000D0E001E716E18091A302882361F0109207
:1036E000A3020E94D41F9093A1028093A002109283
:1036F000A5021092A4020E94D41FE091A002F091B2
:10370000A1028E1B9F0B8F3F9F4750F4EC0FFD1FB4
:10371000F093A102E093A00280EA92E0F8010995FB
:10372000DF91CF911F910F910895863049F4F0E019
:10373000E65FFD4FE491CE2FD0E005E816E1CBCF58
:10374000893051F4E695F0E0E95FFD4FE491CE2F2A
:10375000D0E00DEA17E1BFCF8F3051F4E695F0E0ED
:10376000EC5FFD4FE491CE2FD0E00AEE17E1B3CF2E
:10377000853149F4F0E0EF5FFD4FE491CE2FD0E0CA
:103780000AE518E1A8CFC8E2D0E00DEC18E18831D5
:1037900009F4A1CF833239F4EFEFF1E0C591D49170
:1037A00005E916E198CFC4EFD1E00FE419E18432C6
:1037B00009F491CFC0EDD7E008E915E1853209F0B1
:1037C0008ACF8E2F63E00E94D226E92FF0E0E450EA
:1037D000FE4FE491CE2FD0E00CE819E17CCFFA0146
:1037E000811101C0FB0109950895CF93DF93C82F84
:1037F000D62F0E94E1158C1748F00E94E1158D1715
:1038000028F40E94DD1ADF91CF9108958C2F0E9439
:10381000F01AF9CF1F93CF93DF93EC01FB011281D4
:10382000111110C00E94980C8272FE01E052F847FC
:10383000E531F10508F05EC0E856F74D0C943627E7
:103840000E94FD1A812FDF91CF911F9108954CEEB8
:103850005AE16DED7AE10E94EF1BF4CF4DED5AE194
:103860006CEE7AE1F8CF41E657E162E577E1F3CF1C
:1038700042E557E161E677E1EECF43E857E162E7E1
:1038800077E1E9CF42E757E163E877E1E4CF45EA42
:1038900057E164E977E1DFCF44E957E165EA77E191
:1038A000DACF45E156E16DEF75E1D5CF4DEF55E14A
:1038B00065E176E1D0CF81E00E94F01AC3CF65E0E8
:1038C00082E00E94F51BBECF68E086E0FACF6EE092
:1038D00089E0F7CF64E18FE0F4CF67E185E1F1CFD4
:1038E00088E1EACF62E289E1ECCF83E2E5CF6AE2E8
:1038F00085E2E7CF11E0A6CF539A4BB1477F5BB18A
:103900005860EFB7F8949B01220F331F260F371F23
:10391000280F391F2817390741F4EFBF8FE594E0CE
:103920000197F1F700C000000895DC016D91CD0111
:1039300078E05BB9000000C067FF4BB9660F00007C
:1039400000C000C000C04BB900C07A9591F7E2CF2B
:10395000CF93DF93EC01FB018281882309F4D2C06D
:103960009E0130572332310508F0B2C00E949B0DF2
:103970009093C2028093C102FE01E150F047E2320F
:10398000F10520F4E355F74D0C9436278091C102E0
:1039900081608093C10293C08091C202886080934D
:1039A000C2028DC08091C1028260F3CF8091C102BA
:1039B0008460EFCF8091C1028860EBCF8091C2021A
:1039C0008160EDCF8091C2028260E9CF8091C10217
:1039D0008061DFCF8091C1028062DBCF8091C10224
:1039E0008064D7CF0E94CF078091C1028068D1CF79
:1039F0008091C1028C60CDCF8091C2028360CFCF15
:103A00008091C1028E7FC5CF8091C202877FC7CFD0
:103A10008091C1028D7FBDCF8091C1028B7FB9CFD4
:103A20008091C102877FB5CF8091C2028E7FB7CFD0
:103A30008091C2028D7FB3CF8091C1028F7EA9CFCA
:103A40008091C1028F7DA5CF8091C1028F7BA1CFD4
:103A50000E94CF078091C1028F779BCF8091C102D6
:103A6000837F97CF8091C2028C7F99CF8091C102D2
:103A700082FB992790F921E0922790FB82F990FB35
:103A800083F987CF8091C202982F909591708E7F95
:103A9000892B90FB81F983CF9091C102892F8F7B75
:103AA00096FF806476CF0E94CF079091C102892F44
:103AB00097FB87F980586DCF81E00E94180E8091A6
:103AC000C1029091C2020E94A00D0E94CF0780E027
:103AD000DF91CF91089580E0F0CF9091C102892FBE
:103AE0008F7E94FF806155CF9091C102892F8E7F88
:103AF00090FF81604ECF9091C202892F877F93FF04
:103B000088604DCF81E0E4CFCF93DF93EB01863126
:103B10009C4711F50E94980C9A81992399F08A7A12
:103B200091E009F490E09093AB02811109C089E221
:103B30000E94700C0E94D90C80E0DF91CF91089513
:103B400085E3F6CF8091AB02811104C089E20E9427
:103B5000780CF0CF85E3FBCF81E0EFCF0F931F937D
:103B6000CF93DF93C42FD22FFC0182818823C9F029
:103B70004093AE020E94D41F9093AD028093AC029A
:103B800080E28C0F883040F4C77081E001C0880F5C
:103B9000CA95EAF70E946505DF91CF911F910F91B9
:103BA00008951091AE02141332C08091AC0290912E
:103BB000AD020E94EC1F883C910548F5C0E2CD0F94
:103BC0001D17B9F080E2810F883040F4177081E052
:103BD00001C0880F1A95EAF70E946C05C83048F4B6
:103BE00081E09D2F977001C0880F9A95EAF70E9497
:103BF0006505802F0E945C05C83070F6D77081E0A3
:103C000001C0880FDA95EAF70E946C05C5CF80E203
:103C10008C0F883008F6C77081E001C0880FCA9504
:103C2000EAF7F2CF0F93DB0188519C47873091056B
:103C3000A0F5FC01E153F74D0C94362706E221EE86
:103C400041EE6AE17CE7CD010E94AE1D80E00F915C
:103C5000089507E225EE45EE6BE17CE7F4CF06E23E
:103C600021EE40EE68E17CE7EECF07E225EE44EE80
:103C700069E17CE7E8CF06E221EE42EE6CE17CE709
:103C8000E2CF07E225EE46EE6DE17CE7DCCF08E20D
:103C900021E045EE6EE17CE7D6CF12968C91882329
:103CA00019F01092AE02D3CF81E0D1CF9093D5011D
:103CB0008093D40108959093B4028093B302089541
:103CC000E091B302F091B402309729F00190F081B5
:103CD000E02D0995089580E00895E091B302F091F8
:103CE000B402309721F00280F381E02D0995089508
:103CF000E091B302F091B402309739F022E0DC0198
:103D00002C930480F581E02D09950895A3E0B0E09F
:103D1000ECE8FEE10C947D272091B1023091B202D3
:103D200028173907A1F09093B2028093B102E09175
:103D3000B302F091B402309751F023E029839B83C2
:103D40008A830680F781E02DCE010196099523969E
:103D5000E2E00C949927A3E0B0E0E1EBFEE10C94E3
:103D60007D272091AF023091B00228173907A1F0CA
:103D70009093B0028093AF02E091B302F091B4024D
:103D8000309751F024E029839B838A830680F78152
:103D9000E02DCE01019609952396E2E00C94992737
:103DA0009C012E5F3F4FAC01485F5F4F80E02417BE
:103DB000350709F40895F90191919F019923B9F309
:103DC0008F5FF5CF662349F0FC013296089621916A
:103DD000261729F0E817F907D1F780E0089581E068
:103DE00008959C01FC0132969FEF80E041914617B7
:103DF00051F09F3F19F4411101C0982F8F5F863019
:103E0000A9F79F3F09F40895290F311D97FD3A95B1
:103E1000F90162830895FC013296089621912613D8
:103E200003C0DF0111971C92E817F907B9F708954D
:103E30000E94F11E08950E940B1F0895029626E02D
:103E4000FC0111922A95E9F7089546E050E00E949E
:103E50000D2821E0892B09F420E0822F0895089590
:103E60000E942F1F0895811106C081E08093B50242
:103E70000E94301F089582E0F9CF83E08093B5025D
:103E80000E94301F08950E94331F089581E080939F
:103E9000B5020E94301F08950E94461F089508959C
:103EA00008950E94501F0895089508950E944F1F7D
:103EB0000895CF930E94541F0E94E9110E94551F3C
:103EC000C0E08C2F0E943211811105C0CF5FC73036
:103ED000C1F7CF91089581E0FCCF85B7806885BF99
:103EE00085B7806885BF08951F921FB61F92112461
:103EF0008F939F93AF93BF938091B602811113C0AC
:103F00008091F7029091F802A091F902B091FA0223
:103F10004196A11DB11D8093F7029093F802A093E2
:103F2000F902B093FA02BF91AF919F918F911F90C8
:103F30001FBE1F9018958091FF02843031F10E94BE
:103F4000C6031092B60288E190E020E40FB6F89420
:103F5000A895809360000FBE2093600083B7817F97
:103F6000846083BF83B7816083BF7894889583B76B
:103F70008E7F83BF0FB6F894A8958091600088610A
:103F800080936000109260000FBE08950E94CF07DA
:103F90000E94CD03089582E084BD93E095BD9AEF21
:103FA00097BD80936E0008952FB7F8948091F70223
:103FB0009091F802A091F902B091FA022FBF0895F2
:103FC0002FB7F8946091F7027091F8028091F9028E
:103FD0009091FA022FBF08959C014FB7F8948091F9
:103FE000F7029091F802A091F902B091FA024FBF46
:103FF000821B930B089578941F921FB61F92112471
:104000008F939F93AF93BF938091F7029091F802A3
:10401000A091F902B091FA020196A11DB11D809301
:10402000F7029093F802A093F902B093FA02BF91BD
:10403000AF919F918F911F901FBE1F90189581E0A7
:104040008093E00080E28093D8001092C9008FE155
:104050009EE40197F1F700C0000087E090EBDC01DF
:104060008093080390930903A0930A03B0930B0372
:1040700088E19CE00FB6F894A895809360000FBE8D
:1040800090936000FFCF88E19CE00FB6F894A8956C
:10409000809360000FBE90936000FFCF8091BF02BD
:1040A00008959B01BA019091FF029430E9F48F705A
:1040B0008093E9009FEF8091E800915085FD06C054
:1040C00085ED8A95F1F700009111F5CF8091E80018
:1040D00085FF0AC050E040E0C9010E944B22809158
:1040E000E8008E778093E800089543E050E0BC013B
:1040F00082E00E945120089546E050E0BC0182E039
:104100000E9451200895CF93DF93EC0148E050E0E6
:10411000BC0181E00E94512088E0FE01A7EBB2E0E3
:1041200001900D928A95E1F7DF91CF9108958091EA
:10413000FE02811109C00E94DB230E943824809175
:10414000E20084608093E20008951092FE020895D8
:104150000E94461F08956091FB0281E0611101C039
:1041600080E00E943D1F08959091FF0281E094300D
:1041700009F080E06091FB020E94431F089542E035
:1041800061EC81E00E94572342E261EC82E00E94F0
:1041900057239091FF0281E0943009F080E0609114
:1041A000FB020E94331F089580910103833009F4BC
:1041B00061C030F48130D1F1823009F49EC008959D
:1041C0008A3009F48AC08B3009F46FC0893009F055
:1041D00050C080910003813209F04BC080910403EC
:1041E00090910503029708F044C08091E800877F12
:1041F0008093E8008091E80082FF37C09091F3003F
:104200008091F200029731F48091F100813011F039
:10421000863021F48091F1008093BF028091E80004
:104220008B778093E8000E948B2323C0809100034A
:10423000813AF9F48091E800877F8093E8008091CB
:10424000040390910503892B61F468E087EB92E009
:1042500070E00E949A228091E8008B778093E800BA
:10426000089560E090E080E0F3CF8091FF0281113B
:10427000C1CF089580910003813AD9F7809104035A
:1042800090910503892BA9F78091E800877F80939F
:10429000E8008091E80080FFFCCF809129018093A5
:1042A000F1008091E8008E77BCCF809100038132CD
:1042B00001F78091040390910503892BD1F6809139
:1042C000E800877F8093E8000E948B23809102039F
:1042D000809329010E94CF070895809100038132C5
:1042E00041F68091E800877F8093E8000E948B234D
:1042F000809103038093C002089580910003813A66
:1043000009F0B7CF8091E800877F8093E800809123
:10431000E80080FFFCCF8091C002C1CF84B7877FC7
:1043200084BF0FB6F894A89580916000886180934F
:104330006000109260000FBE80E890E00FB6F89425
:1043400080936100909361000FBE0E944C1F0895FE
:104350000E94DB230E943824E2EEF0E0808184603A
:10436000808378940E94B726089581E291E00E94AC
:104370005B1E08958091FF02853031F48091FF0229
:10438000853019F00E94C61F08950E949B1F8091DE
:10439000FD02882399F30E94591F882379F30E9414
:1043A00035220E94CF07EACF08959A014091060373
:1043B000509107030E94DD210895492F552743306E
:1043C000510519F168F44130510509F444C04230F7
:1043D000510509F445C090E080E050E040E025C080
:1043E0004132510549F142325105A9F780E490E08C
:1043F00046E055E061157105C1F08BE790E04BE8B0
:1044000054E06130710589F0E6CF9927813091053C
:1044100081F0009729F00297F1F6E6E1F4E002C09E
:10442000EAE3F4E0849190E0AF01F9015183408325
:104430000895ECE2F4E0F6CF89E090E040E554E046
:104440006115710591F389E090E049E654E061302F
:10445000710559F3C0CF82E190E049E754E0E5CF20
:104460008BE390E04EE354E0E0CF80E189BD82E150
:1044700089BD09B400FEFDCF8091D8008F7D809367
:10448000D8008091E00082608093E0008091E0009D
:1044900081FDFCCF0895AF92BF92CF92DF92FF9241
:1044A0000F931F93CF93DF936C01EB018A010E945E
:1044B000AA23F82E811123C00115110539F0F80146
:1044C00080819181C81BD90BC80ED91EB12CA12C9B
:1044D0002097A9F08091E80085FD22C08091E80036
:1044E0008E778093E80001151105A1F0F801808115
:1044F0009181A80EB91EB182A08285E0F82E8F2D81
:10450000DF91CF911F910F91FF90DF90CF90BF90DF
:10451000AF9008950E94AA238823D1F2F82EEFCFFE
:10452000F60181916F018093F1002197FFEFAF1A9F
:10453000BF0ACECFFC018091060390910703861736
:104540009707A0F06115710529F49091E8009E7716
:104550009093E80090E06115710551F4911108C045
:104560008091E80082FF34C080E00895BC01F2CF62
:104570008091FF028823C1F18530C1F18091E8006C
:1045800083FD30C08091E80082FDEACF8091E80091
:1045900080FFE1CF8091F3002091F200382F611568
:1045A000710519F02830310558F091E028303105B7
:1045B00009F090E02091E8002E772093E800CBCF1F
:1045C00081918093F100615071092F5F3F4FE7CFD8
:1045D0008091FF02882341F0853041F08091E8000E
:1045E00083FFBECF81E0089582E0089583E00895BF
:1045F000FC01809106039091070386179707A0F0AE
:104600006115710529F48091E8008E778093E800A8
:1046100090E06115710551F4911108C08091E80096
:1046200082FF35C080E00895BC01F2CF8091FF0287
:104630008823C9F18530C9F18091E80083FD31C03C
:104640008091E80082FDEACF8091E80080FFE1CF11
:104650008091F3002091F200382F6115710519F057
:104660002830310558F091E02830310509F090E00C
:104670008091E8008E778093E800CBCF849180937F
:10468000F1003196615071092F5F3F4FE6CF809165
:10469000FF02882341F0853041F08091E80083FFDC
:1046A000BDCF81E0089582E0089583E00895982FBA
:1046B000973028F08F708093E90081E008959093FF
:1046C000E900242F762F50E0981731F07091EC001C
:1046D0002091ED005091F00021FD02C09F5FE8CFD6
:1046E0003091EB003E7F3093EB003091ED003D7F49
:1046F0003093ED003091EB0031603093EB0070931C
:10470000EC002093ED005093F0002091EE0027FD87
:10471000E5CF80E008958091000387FF13C080916A
:10472000E80082FF06C08091E8008B778093E80064
:1047300004C08091FF028111F2CF08958091FF02A1
:104740008823D9F38091E80080FFF8CF8091E800BA
:104750008E77ECCF2091E4003091E50095E6A90139
:104760002091EC00822F817020FF06C08091E8002C
:1047700080FF06C080E008952091E80022FD1AC065
:104780008091FF02882389F0853089F08091EB00C9
:1047900085FD0FC02091E4003091E50042175307DA
:1047A000F9F29150E1F684E0089582E0089583E003
:1047B000089581E008950E944A240E945224E0EE68
:1047C000F0E0808181608083E8EDF0E080818F7788
:1047D000808319BCA7EDB0E08C918E7F8C93808193
:1047E0008F7E80831092FE0208950F931F93CF93C4
:1047F000DF930E944A240E945224C8EDD0E08881B1
:104800008F77888388818068888388818F7D88837B
:1048100019BC1092FF021092FB021092FD0210923E
:10482000FC0200EE10E0F80180818B7F808388819C
:104830008160888342E060E080E00E945723E1EEDF
:10484000F0E080818E7F8083E2EEF0E08081816005
:104850008083808188608083F80180818E7F80835F
:10486000888180618883DF91CF911F910F91089596
:10487000E8EDF0E080818F7E8083E7EDF0E08081DD
:104880008160808384E082BF81E08093FE020E9489
:10489000F5230895E8EDF0E080818E7F808310920B
:1048A000E20008951092DA001092E10008951F923C
:1048B0000F920FB60F9211242F933F934F935F9354
:1048C0006F937F938F939F93AF93BF93EF93FF93D8
:1048D0008091E10082FF0BC08091E20082FF07C05F
:1048E0008091E1008B7F8093E1000E94B626809149
:1048F000DA0080FF19C08091D80080FF15C0809138
:10490000DA008E7F8093DA008091D90080FF96C014
:1049100080E189BD82E189BD09B400FEFDCF81E05F
:104920008093FF020E9497208091E10080FF19C0D0
:104930008091E20080FF15C08091E2008E7F80931D
:10494000E2008091E20080618093E2008091D800D3
:1049500080628093D80019BC85E08093FF020E949A
:10496000AB208091E10084FF2BC08091E20084FFA6
:1049700027C080E189BD82E189BD89B5982F9170FA
:1049800080FFFBCF8091D8008F7D8093D8008091ED
:10499000E1008F7E8093E1008091E2008F7E809322
:1049A000E2008091E20081608093E2008091FB024E
:1049B000882309F449C084E08093FF020E94B42058
:1049C0008091E10083FF29C08091E20083FF25C030
:1049D0008091E100877F8093E10082E08093FF0275
:1049E0001092FB028091E1008E7F8093E100809124
:1049F000E2008E7F8093E2008091E20080618093EC
:104A0000E20042E060E080E00E9457238091F000E5
:104A100088608093F0000E94A820FF91EF91BF91E1
:104A2000AF919F918F917F916F915F914F913F9146
:104A30002F910F900FBE0F901F90189519BC1092D8
:104A4000FF020E94A52070CF8091E30087FD93E0D4
:104A50009093FF02B3CF1F920F920FB60F921124C3
:104A60002F933F934F935F936F937F938F939F9376
:104A7000AF93BF93CF93DF93EF93FF93D091E90070
:104A8000DF708091EC00C82FC17080FDC0E81092EB
:104A9000E9008091F000877F8093F00078940E9475
:104AA0006F251092E9008091F00088608093F000FB
:104AB000CD2BCF70C093E900FF91EF91DF91CF91A3
:104AC000BF91AF919F918F917F916F915F914F9126
:104AD0003F912F910F900FBE0F901F901895AAE253
:104AE000B0E0E5E7F5E20C947C2780E093E02091CC
:104AF000F100FC012193CF01F3E088309F07B9F763
:104B00000E94D4208091E80083FF1EC180910003A1
:104B1000909101039A3008F017C1E92FF0E0EA52B2
:104B2000F74D0C943627803899F0823809F00CC183
:104B3000809104038F70873008F006C18093E900EC
:104B40008091EB0085FB882780F91092E90006C070
:104B50008091FC029091FD02911182609091E80099
:104B6000977F9093E8008093F1001092F10080917C
:104B7000E8008E77E5C0882309F4D3C0823009F0BD
:104B8000E3C0809102038111D6C0809104038F702D
:104B90002FEF280F263008F0D7C08093E90020912E
:104BA000EB0020FFC8C0933031F48091EB008062AD
:104BB0008093EB00C0C09091EB0090619093EB006C
:104BC00021E030E001C0220F8A95EAF72093EA0045
:104BD0001092EA008091EB008860EACF8111B4C0A6
:104BE000109102031F778091E3008078812B8093DE
:104BF000E3008091E800877F8093E8000E948B2388
:104C00008091E80080FFFCCF8091E3008068809372
:104C1000E30082E0111183E08093FF0295C0805889
:104C2000823008F091C080910203909103038C3D83
:104C300023E09207A1F583E08A838AE289834FB754
:104C4000F894DE01139620E03EE051E2E32FF0E01D
:104C500050935700E49120FF03C0E295EF703F5F4F
:104C6000EF708E2F90E0EA30C0F0C7968D939D9341
:104C70002F5F243159F74FBF8091E800877F8093E1
:104C8000E8006AE270E0CE0101960E949A228091CB
:104C9000E8008B778093E80057C0C096E7CF60911B
:104CA000040370910503AE014F5F5F4F0E94D52151
:104CB000BC01892B09F448C09091E800977F90933C
:104CC000E80089819A810E94F822E1CF8038E1F5DD
:104CD0008091E800877F8093E8008091FB028093B9
:104CE000F10045CF811130C090910203923060F500
:104CF0008091E800877F8093E8009093FB020E94F8
:104D00008B238091FB02882311F084E005C0809101
:104D1000E30087FDFACF81E08093FF020E94BF206D
:104D200013C080910203813079F481E0933009F05F
:104D300080E08093FD021092E9008091E800877F77
:104D40008093E8000E948B238091E80083FF0AC0D3
:104D50008091E800877F8093E8008091EB0080627B
:104D60008093EB00AA96E3E00C9498270895CF93E4
:104D70008091FF028823A1F0C091E900CF7090914B
:104D8000EC00892F817090FD80E8C82B1092E9001B
:104D90008091E80083FD0E946F25CF70C093E900E9
:104DA000CF910895991B79E004C0991F961708F0D8
:104DB000961B881F7A95C9F78095089587FB082E62
:104DC000062687FD819567FD61950E94D2260EF427
:104DD000919507FC81950895AA1BBB1B51E107C063
:104DE000AA1FBB1FA617B70710F0A61BB70B881F7B
:104DF000991F5A95A9F780959095BC01CD0108950A
:104E000097FB072E16F4009407D077FD09D00E9477
:104E1000EC2607FC05D03EF4909581959F4F0895B0
:104E2000709561957F4F0895A1E21A2EAA1BBB1BB6
:104E3000FD010DC0AA1FBB1FEE1FFF1FA217B30766
:104E4000E407F50720F0A21BB30BE40BF50B661F7C
:104E5000771F881F991F1A9469F760957095809540
:104E600090959B01AC01BD01CF010895EE0FFF1F8E
:104E70000590F491E02D09940E944427332312F405
:104E80008A1B9B0B0C945527A29FB001B39FC001B6
:104E9000A39F700D811D1124911DB29F700D811D66
:104EA0001124911D08950E944427B7FF0895821B85
:104EB000930B08950E944427A59F900DB49F900DD9
:104EC000A49F800D911D11240895B7FF0C945A27BB
:104ED0000E945A27821B930B08952F923F924F9264
:104EE0005F926F927F928F929F92AF92BF92CF927A
:104EF000DF92EF92FF920F931F93CF93DF93CDB783
:104F0000DEB7CA1BDB0B0FB6F894DEBF0FBECDBFFA
:104F100009942A88398848885F846E847D848C84CB
:104F20009B84AA84B984C884DF80EE80FD800C81D4
:104F30001B81AA81B981CE0FD11D0FB6F894DEBFB7
:104F40000FBECDBFED0108958F929F92AF92BF9299
:104F5000CF92DF92EF92FF92CF93DF93EC016881C3
:104F600079818A819B81611571058105910521F403
:104F700064E279ED8BE597E02DE133EF41E050E01D
:104F80000E946B2849015A019B01AC01A7EAB1E4D8
:104F90000E945A276B017C01ACEEB4EFA50194018D
:104FA0000E946827DC01CB018C0D9D1DAE1DBF1D2D
:104FB000B7FF03C00197A109B04888839983AA83EA
:104FC000BB839F77DF91CF91FF90EF90DF90CF90E1
:104FD000BF90AF909F908F9008950E94A42708954E
:104FE00080E091E00E94A4270895B0E0A0E08093C3
:104FF000000190930101A0930201B0930301089571
:10500000FC014150504030F001900616D1F7319725
:10501000CF010895882799270895FB01DC0104C07A
:105020008D910190801921F441505040C8F7881BA0
:10503000990B0895FB01DC0102C001900D924150D3
:105040005040D8F70895F999FECF92BD81BDF89AE6
:10505000992780B50895A6E1B0E044E050E00C94B3
:105060005D28A8E1B0E042E050E00C945D28262FD6
:10507000F999FECF92BD81BDF89A019700B402164E
:1050800039F01FBA20BD0FB6F894FA9AF99A0FBEFC
:1050900008950396272F0E9438280E943728252F2D
:1050A0000E943828242F0C9438280196272F0E941C
:1050B00038280C943728DC01CB01FC01F999FECF8C
:1050C00006C0F2BDE1BDF89A319600B40D92415090
:1050D0005040B8F70895052E97FB1EF400940E94E7
:1050E000822857FD07D00E94142707FC03D04EF4F6
:1050F0000C94822850954095309521953F4F4F4F05
:105100005F4F089590958095709561957F4F8F4F73
:105110009F4F0895F894FFCFB205B205030603062A
:1051200076069206E105E1059706080717071707B7
:10513000201C271C2E1C331C381C3D1C421C471CE9
:105140004C1C511C561C5B1C5F1C641C671C6A1C9D
:105150006D1C701C721C751C771C001D741D081DB5
:10516000D21CD61C0C1DDA1C101D1C1DE61C6D1D4E
:10517000EA1C201DEE1C241D4C1DF21C281D531D75
:10518000F81C2E1D361DDE1C141DE21C181DFC1CF7
:10519000321D421D5C1D6B1DCC1C041D7B1D2F1E72
:1051A000351E1E1E291E3B1E411E471E9325BB2574
:1051B000A426BB25A426EE250F26A4266626722645
:1051C000010000003A02280850011E0A14010101E2
:1051D00002000B000B0B01191A1B1C1D1E1F2021A6
:1051E000224E2083207C20752001E200E900EA00A5
:1051F000B500B600B700CD008301CC008A01920152
:1052000094012102230224022502260227022A02F7
:10521000B300B4006F0070009F01CB019F02A00299
:10522000818283E200E900EA00B500B600B700CD54
:10523000008301CC008A01920194012102230224FF
:10524000022502260227022A02B300B4006F007072
:10525000009F01CB019F02A002818283946697C6C2
:105260003435F4F5F6F7313332000102020202065A
:1052700006060909090909090F0F0F0F0F0F151568
:105280001518191919191919191919192324252566
:045290002525252586
:00000001FF
