:100000000C94A3020C94DB020C94DB020C94DB0234
:100010000C94DB020C94DB020C94DB020C94DB02EC
:100020000C94DB020C94DB020C94DA230C94AE24C7
:100030000C94FC1E0C94DB020C94DB020C94DB028F
:100040000C94DB020C94DB020C94DB020C94DB02BC
:100050000C94DB020C94831F0C94DB020C94DB02E7
:100060000C94DB020C94DB020C94DB020C94DB029C
:100070000C94DB020C94DB020C94DB020C94DB028C
:100080000C94DB020C94DB020C94DB020C94DB027C
:100090000C94DB020C94DB020C94DB020C94DB026C
:1000A0000C94DB020C94DB020C94DB022B0014009A
:1000B0001A00080015001700292104001600070087
:1000C00009000A00E1001D001B00060019000500E0
:1000D0001C0018000C00120013002A000B000D0079
:1000E0000E000F00330034001100100036003700FE
:1000F00038002832E30021522C002252E600000092
:1001000035021E021F022002210222024C000100C1
:1001100050004F0052002F00010001004B004E0024
:1001200051002F02230224022502260227024C003E
:1001300030002D022E022F023002310230022F0A2F
:10014000300A50084F08010001000100280001009A
:100150000100000035001E001F00200021002200C9
:100160004C003A003B003C003D003E0001004000D6
:1001700041004200430044002300240025002600E3
:1001800027004C003F002D002E002F0030003100D2
:1001900045002F0830084B004E000100010001000F
:1001A0002A0001000100000045003A003B003C002D
:1001B0003D003E00277825782378217800002078BC
:1001C0002878267824782278000000003F0040003C
:1001D0004100420043004400000000000000000015
:1001E0000000007C00000000000000000000000093
:1001F000010001004C000100010000001E0F05007D
:10020000047F3F1F643214643214783C1E1E140AAB
:10021000052223252628292A2C2D2F303233353646
:10022000383A3B3D3E4042434547494A4C4E505187
:10023000535557595A5C5E6062646668696B6D6FAE
:1002400071737577797B7D7F81838587898A8C8EB1
:1002500090929496989A9C9E9FA1A3A5A7A8AAACB9
:10026000AEAFB1B3B4B6B8B9BBBCBEBFC1C2C3C5F3
:10027000C6C7C9CACBCCCDCED0D1D2D2D3D4D5D695
:10028000D7D7D8D9D9DADADBDBDBDCDCDCDCDCDDC8
:10029000DDDDDDDCDCDCDCDCDBDBDBDADAD9D9D8AC
:1002A000D7D7D6D5D4D3D2D2D1D0CECDCCCBCAC944
:1002B000C7C6C5C3C2C1BFBEBCBBB9B8B6B4B3B173
:1002C000AFAEACAAA8A7A5A3A19F9E9C9A9896940E
:1002D00092908E8C8A89878583817F7D7B797775E3
:1002E00073716F6D6B6968666462605E5C5A5957C2
:1002F000555351504E4C4A4947454342403E3D3B81
:100300003A3836353332302F2D2C2A29282625230A
:1003100022FFAA7F554000010101010101010101F5
:1003200002020202020202020203030303030303A6
:100330000304040404040404050505050506060673
:100340000606070707070708080808090909090A30
:100350000A0A0B0B0B0C0C0C0D0D0D0E0E0E0F0FD5
:100360000F10101111111212131314141515161663
:100370001717181819191A1A1B1B1C1D1D1E1E1FD2
:100380002020212222232424252626272829292A21
:100390002B2C2D2D2E2F3031323233343536373849
:1003A000393A3B3C3D3E3F40414243444546474845
:1003B000494A4C4D4E4F50515354555658595A5B1B
:1003C0005D5E5F616264656668696B6C6D6F7072BB
:1003D000737577787A7B7D7E8082838587888A8C27
:1003E0008E8F91939596989A9C9EA0A2A3A5A7A95B
:1003F000ABADAFB1B3B5B7BABCBEC0C2C4C6C9CB52
:10040000CDCFD1D4D6D8DBDDDFE2E4E7E9EBEEF007
:10041000F3F5F8FAFDFF1403720065007600690039
:1004200075006E0067003400310000000C036700A7
:1004300074006900700073000000040309040902DD
:100440003B00020100A0FA090400000103010100C1
:100450000921110100012240000705810308000164
:10046000090401000103000000092111010001221B
:100470007B0007058203200001120100020000003A
:10048000080778CBDC01000102000105010902A187
:100490000185020901A10005091901290815002596
:1004A0000195087501810205010930093115812581
:1004B0007F95027508810609381581257F9501759C
:1004C000088106050C0A38021581257F95017508FB
:1004D0008106C0C005010980A101850319012AB761
:1004E00000150126B700950175108100C0050C09A3
:1004F00001A101850419012AA002150126A0029577
:100500000175108100C005010906A101050719E068
:1005100029E71500250195087501810295017508E7
:1005200081010507190029FF150026FF00950675B2
:1005300008810005081901290595057501910295A5
:100540000175039101C011241FBECFEFDAE0DEBFB9
:10055000CDBF04B603FE18C0809100039091010343
:10056000A0910203B09103038730904BA740B04B9A
:1005700059F410920003109201031092020310929A
:100580000303E0E0F8E3099511E0A0E0B1E0E6EC58
:10059000F0E502C005900D92AC3CB107D9F723E01D
:1005A000ACECB1E001C01D92A030B207E1F70E94AF
:1005B000F8110C940D280C94000023E042E061E057
:1005C0000E94510308958430B8F46730A8F446308F
:1005D00098F450E096E0699F400D511D1124FA01F6
:1005E0009AE2899FE00DF11D1124EE0FFF1FE455E3
:1005F000FF4F85919491089580E090E008950E94C6
:10060000E302089581E0089581E008950E940403C3
:10061000089508950E9409030895A5E0B0E0E3E17C
:10062000F3E00C94FF2649835A833091D3018981EA
:100630009A81311119C0662399F0222389F00E9412
:100640004209182F682F89819A810E941E096981A9
:100650007A81812F0E949B0F2596E3E00C941B2743
:100660000E943009182FF3CF0E94420969817A81D4
:10067000F1CFFC01262F40815181628173818481F9
:100680000E940D03089581E00895CF93DF93EC015C
:1006900060E00E943903BE010E940A03DF91CF91FE
:1006A0000895E1E0F0E0DF0102C0AA0FBB1F6A95E8
:1006B000E2F7BD01DF0102C0AA0FBB1F4A95E2F7B6
:1006C000AD01462B572B02C0EE0FFF1F2A95E2F714
:1006D0009A01282339232417350719F48E2B9F2BD1
:1006E0000895E095F0958E239F2308950E94B310FE
:1006F00008950E94B710089508950E94F0070E947F
:100700007C032FEF84E39CE0215080409040E1F790
:1007100000C0000008950E947D030E94A71F089555
:100720000E947D030E94CB1F08950F931F93CF93C8
:10073000DF938C0161E00E943903EC01B8010E9453
:100740000603811106C080E0DF91CF911F910F91C8
:100750000895B801CE010E949A1D8823A1F3B80123
:10076000CE010E94301C882371F3B801CE010E9493
:100770000C1D882341F3B801CE010E94921B8823EF
:1007800011F3F8018281882361F0C330FCE7DF07B1
:10079000E9F058F4C115ECE7DE07A9F0C130DC47F9
:1007A000B9F0C8010E940203CFCFCB358CE7D80740
:1007B000A9F0CC35ECE7DE0771F0CA35DC4789F7E4
:1007C0000E94440DEECF0E948B03BDCF0E944C0DC2
:1007D0000E949003B8CF0E943A0DE3CF0E94480DCB
:1007E000E0CF0E94D91E0E941F040E94F8190895AC
:1007F0000E9423040E94CF1A0E94DE1E08950895CD
:100800000E94FF03089581E008950895CF93DF9338
:10081000D82F0E940304C82F882319F08D2F0E941F
:1008200005048C2FDF91CF9108950895CF93C82FA1
:100830000E9400048C2F0E940604CF91089580E04E
:100840000E94160408950E94E81D0E94160408954F
:10085000CF930E94E81DC82F8091CE018C1779F0AC
:10086000C093CE010E94681F6093CF017093D001A6
:100870008093D1019093D2018C2F0E941604CF91C6
:100880000895ABE0B0E0E7E4F4E00C9400274F8378
:10089000588769877A878B8761110E94850C1E8231
:1008A0001D8285E0FE013796DE01119601900D92C2
:1008B0008A95E1F78C819D81892B61F449815A8168
:1008C0006B817C818D819E810E94AE0B2B96E2E034
:1008D0000C941C2789819A8189238F3F79F3CE015B
:1008E00001960E9443038111E9CFF0CFFC01808182
:1008F00091810E9474090895662329F00E947C1258
:100900000E944F1308950E94D612FACFCF93C82F9A
:100910008823C9F08238C9F40E94E81D81FD13C004
:1009200089E30E943D0C0E94A60C2FEF87EE93E016
:10093000215080409040E1F700C0000089E30E9410
:10094000450C0E94A60CCF9108958338A1F40E9413
:10095000E81D80FDF8CF83E50E943D0C0E94A60CA7
:100960002FEF81EE94E0215080409040E1F700C0ED
:10097000000083E5E4CF8438A1F40E94E81D82FDE5
:10098000E2CF87E40E943D0C0E94A60C2FEF81EE7F
:1009900094E0215080409040E1F700C0000087E4DF
:1009A000CECF8CEF8C0F813A90F46C2F80910401A4
:1009B000909105010E946A1E882329F08C2F0E94C5
:1009C000450C0E94A60C8C2F0E943D0CBACF80E2F1
:1009D0008C0F883048F4C77081E001C0880FCA9539
:1009E000EAF70E94680CADCFEBE5EC0FE33040F482
:1009F000F0E0E45AFE4F808190E00E940E1EA3CFEB
:100A0000E8E5EC0FE93150F4F0E0EE0FFF1FE65D92
:100A1000FE4F808191810E94331E95CF83E38C0F1E
:100A2000833108F090CF61E08C2F0E947C048BCF43
:100A3000882309F456C0823879F40E94E81D81FFAA
:100A400050C089E30E943D0C0E94A60C89E30E94DD
:100A5000450C0E94A60C0895833859F40E94E81DA5
:100A600080FF3FC083E50E943D0C0E94A60C83E5F9
:100A7000EECF843859F40E94E81D82FF32C087E42B
:100A80000E943D0C0E94A60C87E4E1CF9CEF980FDA
:100A9000913AE8F290E2980F983050F4877091E024
:100AA00001C0990F8A95EAF7892F0E946E0CD1CF69
:100AB0009BE5980F933028F490E080E00E940E1E92
:100AC000089598E5980F993128F490E080E00E940D
:100AD000331E089593E3980F933118F460E00E9459
:100AE0007C0408951F93CF93DF93182FEB010E948E
:100AF0008604209739F4812F0E941805DF91CF9149
:100B00001F9108958FE99FE00197F1F700C0000061
:100B10002197EFCF70E060E0893311F460E570E079
:100B20000E9472050895882321F00E94680C0E949B
:100B3000A60C0895882321F00E946E0C0E94A60C3A
:100B40000895B0E0A0E0E7EAF5E00C94F9266C0126
:100B5000D62FC72FFC011281F580F2949FE0F92275
:100B60000E945E0CE82E8823B9F0E12E1123A1F03B
:100B70008C2F807F803421F080E28D0F8830D0F080
:100B80008091BA0282FF16C082E00E94090D0E9485
:100B90005E0C91E0E82EE926BC2EB2948FE0B822DC
:100BA000FBE0FB1508F468C0EB2DF0E0E15FF74DCA
:100BB0000C94B926E12CF0CF0C2F0F70C07F11F0F0
:100BC0000295007F112399F0002359F080E28D0FE8
:100BD000883010F0D11107C0802F0E94680C0E944D
:100BE000A60C8D2F41C0802F0E94780CF8CF8D2F3E
:100BF0000E941805002309F43FC080E28D0F883061
:100C000010F0D11104C0802F0E946E0C03C0802F01
:100C10000E947E0C0E94A60C2FC00C2F0F70C07F6C
:100C2000C03211F00295007FDD2381F0D13009F44C
:100C300068C0112309F472C0FF2009F468C0F601EE
:100C4000858180FFCECF8F70858361C08091BA028D
:100C500082FD33C0112359F0002329F0802F0E9418
:100C6000680C0E94A60C80E00E94860405C080E00B
:100C70000E9418050111C7CFEB2DE850FF0B3497E8
:100C800020F40E94E81D0E941604EE2089F00E94C4
:100C90005A0C80FD0DC0F60112820E94540C0E9475
:100CA0007C08C6010E94B0070E94540C0E948C0868
:100CB000CDB7DEB7E9E00C941527112389F0F110C8
:100CC00006C00E94880C802B0E949305D5CF21E09E
:100CD000F212F7CF0E94880C802B0E948F0CCCCF91
:100CE000F11006C00E949C0C802F0E949A05C4CF70
:100CF00031E0F31609F2802F0E949A050E949C0CA5
:100D0000BBCF112331F085E08F1508F4B5CF802FCC
:100D1000DBCF94E09F1508F4AFCFE6CFFF2021F39F
:100D2000D93349F4FFEF27EE33E0F1502040304053
:100D3000E1F700C000008D2F0E9418059DCF8C2F79
:100D400086958695837069F0813009F095CF8D2F57
:100D50009C2F9370111102C080E090E00E94331E1E
:100D60008BCF8D2F9C2F9370111102C080E090E0EB
:100D70000E940E1E81CF612F8D2F0E947C047CCF9C
:100D80008C2F8370A1F5111177CF4D2F4295469589
:100D90004770440F440F2D2F2F7030E0042E02C0F7
:100DA000220F331F0A94E2F790E080E0D4FF09C0DD
:100DB0008FE090E002C0880F991F4A95E2F7809576
:100DC0009095C695C695C370822B932BC23049F07F
:100DD00058F4C13019F00E944F084ECF0E944608C7
:100DE0004BCF0E94580848CF0E94430845CF8695B4
:100DF000112311F08C2F8170882309F43DCF4D2FE2
:100E0000429546954770440F440F2D2F2F7030E0C8
:100E1000042E02C0220F331F0A94E2F790E080E014
:100E2000D4FF09C08FE090E002C0880F991F4A9557
:100E3000E2F780959095C695C695C370822B932B4B
:100E4000C23049F058F4C13019F00E94B70814CFED
:100E50000E94AE0811CF0E94C0080ECF0E94640805
:100E60000BCFCF70112329F08C2F0E947C088D2F7F
:100E70002BCF8D2F0E949A058C2F0E948C08FCCEC0
:100E8000D23F51F160F4D03FB9F0D13F81F011234E
:100E900009F449C0F110A5CE8C2F8F7121C0D33F2A
:100EA00011F1D43FA1F78091BA0282FD26C08C2FA8
:100EB0008F71112311F314C0112349F084E08F15B1
:100EC00008F4DACE8C2F8F710E949E08D5CE95E063
:100ED0009F1508F4D1CEF6CF8C2F8F711111CDCF85
:100EE0000E947C08C9CE112329F08C2F8F710E949B
:100EF0007008C2CE0E946B08BFCE112349F0CF719B
:100F00008C2F0E947C0863E08C2F0E94EB0CB4CEE7
:100F100081E00E94090DE1E0EF1508F0ADCE82E01E
:100F20000E94090DA9CEF110FBCE8C2F8F71A5CF99
:100F30000F931F93CF93DF93EC01688179818A81AE
:100F40000E947F098C010E94C9080E944208B801D2
:100F5000CE010E94A105DF91CF911F910F910895BD
:100F6000CF93DF93EC018B819C81892B29F08881C1
:100F7000998189238F3F51F4DF91CF910895CE015C
:100F80000E949807CE010E944503F6CFCE010E9431
:100F900095038111F4CF0E945E0C882369F38A8146
:100FA000882351F38091BA0282FFE6CF82E00E944B
:100FB000090DE2CF90E080E00E940E1E90E080E0FC
:100FC0000E94331E0E94850C0E94A60C0E946B1387
:100FD0000E944F1308950E944D0C0E94DA07089555
:100FE0000E94750C0E94EB07089592959F709630B1
:100FF00091F058F4925F9F70923058F4803F19F04E
:1010000030F4883E30F481E008959A5FF4CF843F55
:10101000D1F380E00895883EB0F3813FD1F7F3CF5C
:10102000FC0183819481892B29F08081918189231E
:101030008F3F11F480E00895808191810E947409AE
:101040000E94F5070895A5E0B0E0E9E2F8E00C940D
:1010500000272596E2E00C941C27A6E0B0E0E3E32D
:10106000F8E00C9400272696E2E00C941C270895E3
:101070000E94370808950E9438089093EF018093EA
:10108000EE01089508950E943B0808952091EE0115
:101090003091EF01822B932B0E943B080895209101
:1010A000EE013091EF01822393230E943B080895C3
:1010B0002091EE013091EF01822793270E943B0897
:1010C00008950E94DD0208950E9461089093ED0149
:1010D0008093EC01089590E080E00E9464080895F8
:1010E00021E030E0A90102C0440F551F8A95E2F7C4
:1010F000CA010E946408089521E030E002C0220F76
:10110000331F8A95E2F78091EC019091ED01822BDB
:10111000932B0E946408089521E030E002C0220F62
:10112000331F8A95E2F7209530958091EC019091DC
:10113000ED01822393230E946408089521E030E0AA
:1011400002C0220F331F8A95E2F78091EC01909143
:10115000ED01822793270E94640808952091EC01F5
:101160003091ED01822B932B0E9464080895209109
:10117000EC013091ED01822393230E9464080895CD
:101180002091EC013091ED01822793270E946408A1
:1011900008950895262F277091E001C0990F2A9590
:1011A000EAF723E0769567952A95E1F7660F771FB2
:1011B000660F771FFA01E60FF71F50E040E0682F37
:1011C00070E08191DF0111979B01042E02C03695DA
:1011D00027950A94E2F721702195282729232827AB
:1011E0002C934F5F5F4F4430510559F70895A82F56
:1011F000A77023E0969587952A95E1F7880F991FA8
:10120000880F991FFB01E80FF91F50E040E080E0D4
:10121000219130E00A2E02C0369527950A94E2F714
:1012200021703327042E01C0220F0A94EAF7822B83
:101230004F5F5F4F4430510559F70895262F97307F
:1012400070F4863060F4682F70E086E0989F600D3F
:10125000711D112444ED51E0822F0E94CA080895A7
:10126000292F973068F4863058F490E064ED71E0EF
:1012700036E0239F800D911D11240E94F7080895E8
:1012800080E00895B0E0A0E0E8E4F9E00C94F926ED
:101290007C010091EC011091ED018091EE019091A3
:1012A000EF01082B192BCFE0D0E0CC24C394D12C34
:1012B000BC2EC6010C2E02C0880F991F0A94E2F7BB
:1012C00080239123892B49F4219790F7B12C8B2D02
:1012D000CDB7DEB7E9E00C941527B7018C2F0E943B
:1012E000A70F019789F3F3CFCF93DF93EC010E940F
:1012F0004209BE010E94A70FDF91CF9108951F936D
:10130000CF93DF93EB019091D301992339F0CB0177
:101310000E947409DF91CF911F910895882369F08D
:10132000CB010E944209182F682FCE010E941E098E
:10133000BE01812F0E94A70FEDCFCB010E94300983
:10134000182FF6CF1F93CF93DF93C091F00116E0D3
:101350008091F1018C1304C0DF91CF911F9108950A
:10136000D0E01C9FF0011D9FF00D1124EE50FE4FA8
:101370004081518162817381848195810E942D0811
:101380002196C770E5CF40912202509123026091CF
:1013900024027091250280912602909127020E94DA
:1013A0002D0808951F93CF93DF9380912702807FAC
:1013B00009F049C080912402882309F444C0809137
:1013C000F001C091F1016091220270912302A0917D
:1013D0002502B0912602D62FD72316E0C81799F11F
:1013E00090E0109711F0DF3F19F401968770F6CF67
:1013F000189F9001199F300D1124F901EE50FE4FF6
:1014000041814713F2CF40814613EFCF4281411112
:10141000ECCF438154814A1B5B0B483C510528F7B4
:10142000809127028F70806180932702F901E95033
:10143000FE4F80818F708061808382E292E00E9403
:10144000B0070E94A209DF91CF911F910895A1E1F9
:10145000B0E0EDE2FAE00C94F8268C0185E0F801AA
:10146000DE011D9601900D928A95E1F7F801E28068
:1014700082E2C82E82E0D82E609125027091260269
:101480006115710509F44EC1909122022091230249
:10149000892F82238F3F09F445C140815181A38068
:1014A000B480F0902402F501E61BF70BFF2009F44D
:1014B000EAC080912702382F307FE83CF10508F020
:1014C000A3C031116DC0FE2C251316C0941314C097
:1014D000E11012C08F708061809327020E94C309BF
:1014E000C6010E94B00780912702F80185838F2DE5
:1014F0006196EAE00C941427A114B10429F0842F1A
:1015000085238F3F09F027C180E0F82FF170DF2E8F
:1015100080FF3CC08091F0012091F10136E0821300
:1015200015C04D875E878D859E850E947409292F81
:1015300022952F702230F0F0243018F59F70F1F0D2
:10154000F8019581907FD1F4D12C1EC090E0389F96
:10155000F001399FF00D1124EE50FE4F61816513AB
:1015600006C06081641303C06281E6120FC0019659
:101570008770D5CF9F7011F0882331F3805E88305B
:1015800018F3C8010E94B007FD2CB1CFEE2009F47A
:10159000AECF80912702816080932702F12CA7CFE4
:1015A000251306C0941304C0F801EE2009F487C087
:1015B000C8010E941008882319F1EE2009F18091DA
:1015C0002702803270F02091220230912302388766
:1015D0002F831986BB86AA868C87CE0107960E9428
:1015E000B00786E0F801A2E2B2E001900D928A9580
:1015F000E1F70E94D2090E94C309FF24F39477CF38
:10160000C8010E94B007F9CF311113C07A2DB98AF1
:10161000A88A6E2D89890E94230882E292E00E94A6
:10162000B00786E0F60111928A95E9F70E94C30996
:10163000B5CF25130FC094130DC0E1100BC0F801F6
:101640008583C8010E94B00786E0F60111928A9551
:10165000E9F74DCFC8010E941008882389F2EE20D7
:1016600079F280912702803208F4BBCF20912202C8
:10167000309123023A8329831B82BD82AC828E8300
:10168000CE010196ACCFE83CF10508F03EC0FE2C3F
:10169000EE2009F4B5CF25132AC0941328C08091F9
:1016A000270280FD1BC0982F907FC1F0F801858331
:1016B000903F31F0982F907F905F8F70892B8583BA
:1016C000C8010E94B00786E0F801A2E2B2E00190F2
:1016D0000D928A95E1F70E94C30909CF86E0F801CF
:1016E000A2E2B2E001900D928A95E1F700CFC80125
:1016F0000E941008811175CF80912702816080932C
:101700002702C8010E94B007F2CE7A2DB98AA88AB2
:101710006E2D89890E94230886E0F60111928A9530
:10172000E9F7D9CFEE2009F46BCFC8010E94100869
:10173000F82E882309F464CF86E0F801A2E2B2E033
:1017400001900D928A95E1F782E292E00E94760480
:101750000E94D209C0CF81E08E25D7CEACE0B0E0A8
:10176000E4EBFBE00C94FF264F83588769877A8768
:101770008B879C87CE0107960E94270A882369F0F1
:101780008A859B85892B39F04F815885842F852345
:101790008F3F09F06BC016E05FC086E0FE01379610
:1017A000DE01119601900D928A95E1F78A859B855D
:1017B000892B89F38F81988589238F3F61F320914D
:1017C000F10130E0C9010196877099274091F0013D
:1017D0004817190671F40E94F0071092F101109257
:1017E000F00186E0E2E2F2E0DF011D928A95E9F77E
:1017F000D2CF96E0929FD001939FB00D1124AE50AE
:10180000BE4FFE01319601900D929A95E1F78093BB
:10181000F1010E94A209BFCF819FC00111248E5007
:101820009E4F0E94270A8823E9F0E091F0011E9F55
:10183000F0011124EE50FE4F40815181628173818D
:10184000848195810E942D088091F00190E001969D
:10185000877099278093F0018091F0019091F101B8
:101860008913DACF2C96E3E00C941B2769857A85DF
:101870008B859C850E942D088ECF682F8091040156
:10188000909105010E94A01E0895682F8091040187
:10189000909105010E94A31E0895809104019091EA
:1018A00005010E94A61E08958091300285958595B8
:1018B0008595089580913002877008959091300247
:1018C000977081E009F480E0089580913B020895CB
:1018D00090913B02892B80933B02089580959091D3
:1018E0003B02982390933B02089510923B02089587
:1018F00090913A02892B80933A02089580959091B5
:101900003A02982390933A02089510923A02089569
:1019100080913102089508950E948B0C0895909152
:10192000BA0292FF08C090913102981721F080937B
:1019300031020E948C0C089580913102882329F095
:101940001092310280E00E948C0C0895CF93DF93B7
:10195000E0910401F091050180913B028083E091C8
:101960000401F0910501808190913A02892B8083D6
:1019700090913102992381F0E0910401F0910501E9
:101980008081892B808380910401909105010E94C0
:10199000581E81110E949C0CC0910401D091050138
:1019A00048E050E068E272E0CE010E949027892B67
:1019B00059F088E0FE01A8E2B2E001900D928A950C
:1019C000E1F7CE010E94F51DDF91CF9108950895B2
:1019D0000E94E70C08959091BA0292FF11C098E01E
:1019E000899F90011124622B609330020E947C0831
:1019F000809130028595859585950E94E80C089523
:101A00000E947C0808951092300280E00E94E80C49
:101A10000895909130028095892380933002282F79
:101A2000277091F4282F082E000C330B9217130601
:101A300059F09091BA0292FF07C0859585958595DA
:101A40000E948C080E94030D08959091BA0292FBA7
:101A5000222720F9281769F080FB92F99093BA02A7
:101A60008091B9029091BA020E946D0D82E00E94AD
:101A7000090D08958091BA0282FB882780F991E0D0
:101A800089270E94250D089581E00E94250D089563
:101A900080E00E94250D08956FEF7FEF90E080E0D9
:101AA0000E94D827089590E080E00E94B42721E0AA
:101AB000873E9E4F09F020E0822F089582E090E05B
:101AC0000E94A627089583E090E00E94A62708952B
:101AD00084E090E00E94B4270895BC0184E090E087
:101AE0000E94D8270895AB01BC018FE090E00E94CE
:101AF000CC270895AB01BC0183E190E00E94CC2784
:101B0000089560E070E0CB010E947A0D089560E0D6
:101B100070E0CB010E94730D0E94810D089567EE65
:101B20007EEF90E080E00E94D82760E082E090E0C5
:101B30000E94BA2760E083E090E00E94BA271092EA
:101B4000EF011092EE0160E074E184E090E00E9409
:101B5000D82760E086E090E00E94BA276FEF87E028
:101B600090E00E94BA2740E050E0BA0188E090E09F
:101B70000E94CC2760E08DE090E00E94BA2740E010
:101B800050E0BA0188E190E00E94CC2760E087E154
:101B900090E00E94BA2740E050E0BA018CE190E06A
:101BA0000E94CC2770E060E080E290E00E94D8279D
:101BB00040E050E0BA0188E190E00E94CC270E940A
:101BC000870D08950E948F0D0895682F8EE090E094
:101BD0000E94BA2708950E94681F6093490270937B
:101BE0004A0280934B0290934C026093450270939B
:101BF00046028093470290934802089508950895FD
:101C00000E94FF0D089508950E94030E089581E932
:101C100090E10E94DE1D0E94FE0D0E94000E0895BC
:101C200081E008950E94100E0895089508950E947D
:101C3000150E0E94160E08950E9494100E9415041D
:101C400008950E94531F0E945B110E941C0E0E9467
:101C5000931A0E94040E0895AAE0B0E0E2E3FEE0C9
:101C60000C94F8260E9471118EE3A82E82E0B82E03
:101C7000750110E0F70101917F01812F0E94BA10D8
:101C80001F5F173009F440C00817A1F380914D027F
:101C900081FD0E94C0100E94120EC82E10E0812FFC
:101CA0000E94BA10082FF50181915F01081731F1E8
:101CB000D02ED826F12CEE24E3948D2D8E21B1F078
:101CC000CC20A1F0FE821F8391E0802F8E2109F4A9
:101CD00090E098870E945C1F8160782F9A8789879F
:101CE0004E815F8168858A850E944104F394EE0CE1
:101CF000F6E0FF12E2CFF501319700831F5F173046
:101D000071F60E94EB0D20C00813C0CF0E945C1F2B
:101D10008C0180913C0290913D0208171907A1F0B7
:101D20008FEF89838A831B820E945C1F8160782FDA
:101D30009D838C8349815A816B818D810E944104EE
:101D400010933D0200933C020E94D91A0E948D1309
:101D50000E9428042A96EAE00C941427CF93DF937C
:101D60000E94AC0FEC01811520E59207D0F581159A
:101D700030E4930708F086C0803E910518F58D3C4D
:101D8000910508F07DC0883A910570F4853A910577
:101D900008F06EC08130910501F10097F1F00497D1
:101DA000E0F4D0E0C0E019C0813C9105D0F7C85AFA
:101DB000D0E0CC0FDD1FC15ADE4F0990D881C02D75
:101DC000D4640BC08115904208F0A8C0C11581E011
:101DD000D80718F4C83ED10520F7CE01DF91CF9186
:101DE0000895803622E5920710F5803432E5930796
:101DF00008F052C08032924508F047C0C11582E514
:101E0000D80708F47DC02C2F2695269540E2249F04
:101E1000900111248C2F8370C1E0D0E002C0CC0F60
:101E2000DD1F8A95E2F7C22BD32BDD68D6CF803A2F
:101E300022E5920760F4803832E5930708F441C048
:101E4000CF71D0E0DC2FCC27C46FD06AC6CF803CE6
:101E500042E5940708F449C0C03E82E5D80708F07F
:101E6000A0CFDC2FCC27CC27DF71C06FD06AB5CFD5
:101E7000C55AD0E0CF56DE4FC881D0E0D064ADCF98
:101E8000D065ABCFDF70D06AA8CFCF71D0E0DC2FA8
:101E9000CC27C16FD06AA1CF282F26952695277011
:101EA00080E2289F900111248C2F8370C1E0D0E044
:101EB00002C0CC0FDD1F8A95E2F7C22BD32BDC6862
:101EC0008CCF282F26952695277040E2249F9001DD
:101ED00011248370C1E0D0E002C0CC0FDD1F8A95D1
:101EE000E2F7C22BD32BDA6878CF8F710E944E10A5
:101EF000C82FD0E0DC2FCC27CC27DF71D0626DCF8C
:101F00008C2F8F710E944E1035E0D695C7953A956B
:101F1000E1F7CF709C2FEC01D0695FCF8D2F8F71CF
:101F20000E944E1090E0982F882788279F719C016F
:101F30002C2BE901E3CF462F773030F4663020F4C4
:101F4000672F0E94FF02089590E080E008950E94AC
:101F50009B0F0E94AE0E089582389105B9F1B0F43E
:101F60008133910509F47DC048F48932910509F463
:101F70006DC08A32910509F47BC0089585339105BF
:101F800009F45FC08933910509F10895833E9105F5
:101F9000D9F138F4803E910529F1823E910579F11D
:101FA0000895863E9105D9F1873E910509F43EC01A
:101FB000843E910541F52091BA0221FF24C0809111
:101FC000B90284FD19C087EE90E008952091B9020E
:101FD000237009F05AC02091BA0223FF14C089E28D
:101FE00090E008952091B90220FD38C03091BA02E6
:101FF00030FF09C024FF43C090E080E008952091A5
:10200000B90222FDF7CF08952091B90222FD3AC00E
:102010003091BA0230FD39C024FFF5CFEDCF2091C9
:10202000B90223FFF0CF24FDE7CFCDCF2091B90235
:1020300023FD2EC03091BA0231FFEECF84EE90E046
:1020400008952091B90225FFDECFC9CF2091B902B2
:1020500025FD21C02091BA0223FFD5CF89E390E06E
:10206000D2CF2091B90226FFCECF8AE290E0089528
:102070002091B90226FFC7CF81E390E0089583EE57
:1020800090E0089582EE90E0089580EE90E008954B
:1020900086EE90E0089585E390E008959091B9026E
:1020A00092FF06C0282F28712830F9F4877F8460BA
:1020B00093FF06C0282F28712831F1F4877E8461B0
:1020C0002091BA0220FF06C0382F38713830D9F479
:1020D000877F816021FF06C0282F28712831D1F425
:1020E000877E816194FD877E0895282F2471243096
:1020F000F9F68B7F8860DCCF282F2471243101F71B
:102100008B7E8861DDCF382F3171313019F78E7FAA
:102110008860E0CF282F2171213121F78E7E8861E0
:10212000E1CF80E0089508950E94530D811102C00F
:102130000E94E20D0E945E0D80934D020E94680D88
:102140009093BA028093B9020E9493100E94630D8B
:1021500090E00E9443088091EC019091ED010E9473
:102160006108089508950E94B210089508950E948C
:10217000B6100895E82FF0E0EE53FD4F80810895EA
:10218000089580EA8A95F1F7089500C008950E94A5
:10219000C1100895F894E82FE295EF70F0E031A1B6
:1021A000282F2F7081E090E001C0880F2A95EAF770
:1021B000982F9095932391A392A1892B82A3789431
:1021C0000895CF93DF93CAE9D1E089918F3F11F051
:1021D0000E94CA1081E0C13AD807B9F7C4E9D1E03A
:1021E00089918F3F11F00E94CA1081E0CA39D80747
:1021F000B9F7DF91CF910895B0E0A0E0E2E0F1E11E
:102200000C94FA26EC01D62E062F10E0C801865653
:102210009E4F7C01FC0180818F3F09F445C0F894FA
:10222000E82FE295EF70F0E091A18F7021E030E0AF
:1022300001C0220F8A95EAF7892F822B81A382A100
:102240002095282322A378940E94C510E4E9F1E0A8
:102250004AE951E031E0C12C21912F3F51F1A22FE9
:10226000A295AF70B0E090968C9190E02F7002C074
:10227000959587952A95E2F780FD1BC0832FC82A84
:10228000330F4E175F0741F7F70180818F3F11F041
:102290000E94CA1061E0C11001C060E08D2D0E9453
:1022A000C710C00FD11FC882CDB7DEB7E8E00C94CD
:1022B000162780E0E4CF0E94E11087E0E2ECF2E034
:1022C000DF01982F1D929A95E9F7EBEBF2E0DF0121
:1022D0001D928A95E9F787E00E94AC110E9476036F
:1022E0000895A7E0B0E0E7E7F1E10C94FD268E0148
:1022F0000F5F1F4F87E0F80111928A95E9F7F12CE3
:102300006F2DC8010E94FC10F394F7E0FF12F8CF84
:1023100047E050E0B8018BEB92E00E94902721E06B
:10232000009709F420E0892B41F087E0F801ABEB3E
:10233000B2E001900D928A95E1F747E062EC72E01D
:102340008BEB92E00E94AD11182F0E947903812F30
:102350002796E5E00C9419270895CF92DF92EF922B
:10236000FF920F931F93CF936C017B01042F2223C5
:1023700049F081E0809350020E945C1F90934F02CD
:1023800080934E02C0915002C1110AC0C0E08C2F50
:10239000CF911F910F91FF90EF90DF90CF90089514
:1023A00080914E0290914F020E94741F059770F326
:1023B00010E0A801B601C7010E949027892B41F0C7
:1023C000A801B601C7010E949D2710925002DFCFDD
:1023D000C0E0FBCF0E9430210E94210E0E943D21CF
:1023E00008950E9442210E942C0E0E945C210895B3
:1023F0000E94F51E0E9416210E94070E0E94EA11FB
:102400000E94F1110E94170EFBCF8091570280FFAE
:102410000DC060910B0170E0660F771F6038710589
:1024200070F56115710569F1862F089581FF07C068
:1024300060910B0184E0689FB0011124EFCF60919F
:102440000B0182FD0AC0809156028823A9F02091D9
:102450000A0160910B01821710F088E0ECCF869F93
:10246000C001112433E0880F991F3A95E1F7622FDC
:1024700070E00E948326D2CF68E070E0D5CF8FE76E
:10248000089581E008958091570280FF0CC060910B
:10249000070170E0759567957595679561157105EC
:1024A00049F1862F089581FF06C06091070170E011
:1024B00075956795F3CF6091070182FD0BC09091F0
:1024C00055029923A1F060910601809107019617AA
:1024D00038F0682F70E06038710500F38FE70895D9
:1024E000899FC001112470E00E948326F4CF61E02F
:1024F00070E0D7CF81E008958D3C31F40E94051241
:10250000819580935B0208958E3C19F40E94051218
:10251000F8CF8F3C31F40E940512819580935A02C6
:102520000895803D19F40E940512F8CF893D29F4E1
:102530000E94431280935C0208958A3D21F40E9418
:1025400043128195F7CF8B3D31F40E944312819560
:1025500080935D0208958C3D19F40E944312F8CFD8
:102560009FE2980F983070F4815D990B21E030E084
:1025700001C0220F8A95EAF780915902822B80933D
:10258000590208958D3D31F4809157028160809306
:10259000570208958E3D21F4809157028260F7CF53
:1025A0008F3DB9F7809157028460F1CF40915A0274
:1025B0008D3C59F480915B0287FF0DC010925B0245
:1025C00041110BC01092560208C08E3C81F48091DC
:1025D0005B0218169CF3442381F080915C02909179
:1025E0005D02892B09F05AC01092550208958F3C64
:1025F00049F447FFF0CF10925A0280915B0281119B
:10260000ECCFE0CF803D19F41416ACF3E4CF9091F9
:102610005C02893D29F41916F4F610925C02DBCFB6
:102620008A3D19F497FFD7CFF8CF90915D028B3D8B
:1026300029F497FFD0CF10925D02CDCF8C3D19F4D5
:102640001916CCF3C8CF9FE2980F983090F4815DB3
:10265000990B21E030E0B90102C0660F771F8A951F
:10266000E2F7CB018095909159028923809359021A
:10267000B2CF8D3D31F4809157028E7F8093570207
:10268000AACF8E3D21F4809157028D7FF7CF8F3DE9
:1026900009F0A1CF809157028B7FF0CF08950E945F
:1026A0005C1F9C0190915A0280915B02982B21F053
:1026B000309354022093530290915C0280915D020A
:1026C000982B21F0309352022093510288E592E03A
:1026D0000E94001E089586E0E8E5F2E0DF011D9209
:1026E0008A95E9F7109256021092550210925702FD
:1026F0000895FC01828181110EC0838181110BC07C
:102700008481811108C091E08581811101C090E030
:10271000892F8170089581E0FCCFA6E0B0E0E3E965
:10272000F3E10C94FF2686E0E8E5F2E0DE01119685
:1027300001900D928A95E1F710925A0210925B0275
:1027400010925C0210925D028B819C81892B89F032
:1027500080915302909154020E94741FAC01909199
:1027600056029923C9F180910C018417150608F4CB
:1027700040C08D819E81892B91F080915102909172
:1027800052020E94741FAC0190915502992309F4E2
:1027900071C0809108018417150608F479C0BE0144
:1027A0006F5F7F4F88E592E00E94AD1E811105C0EA
:1027B00088E592E00E94791381110E944F1386E010
:1027C000FE013196A8E5B2E001900D928A95E1F7FD
:1027D0002696E3E00C941B2720910D018AE0289FA8
:1027E000900111242417350720F69F5F909356021D
:1027F00002C09F3FD1F71B81112359F00E9405129F
:102800009FEF11160CF491E0899F802D1124809385
:102810005A021C81112359F00E9405129FEF1116D4
:102820000CF491E0899F802D112480935B023091FC
:102830005A02332309F49DCF20915B02222309F42D
:1028400098CF45EB3403C0011124992359F090939C
:102850005A0245EB240390011124332339F03093BD
:102860005B0287CF81E080935A02F3CF81E08093AF
:102870005B027FCF209109018AE0289F90011124FB
:102880002417350708F08BCF9F5F9093550202C045
:102890009F3FD1F71D81112359F00E9443129FEFF2
:1028A00011160CF491E0899F802D112480935C0215
:1028B0001E81112359F00E9443129FEF11160CF450
:1028C00091E0899F802D112480935D0230915C02FC
:1028D000332309F464CF20915D02222309F45FCFF2
:1028E00045EB3403C0011124992359F090935C0205
:1028F00045EB240390011124332339F030935D021A
:102900004ECF81E080935C02F3CF81E080935D0243
:1029100046CFEF92FF920F931F93CF93DF93EB017C
:10292000E82FD1110EC0442321F0F0E0EA5EFC4F05
:10293000E4916E2F7E2F8E2FCDB7DEB7E6E00C949C
:1029400018270D2F10E0282F30E0442329F02A5EAD
:102950003C4FF901249130E0F6E0CF9FC0011124F3
:10296000EFEFF0E0BF010E946F26AB018C2F90E0EB
:10297000880F991FA5E5A49FB001A59F700D112494
:10298000861B970B982F990F980FBF01601B710B37
:10299000629FD001639FB00D729FB00D11248B2FE9
:1029A0009D9FB0011124672F7727EF01C61BD70B1E
:1029B000BE01629FE001639FD00D729FD00D112474
:1029C0007F01E91AF108E09EB001E19E700DF09ED2
:1029D000700D1124672F7727E61BF70BE29F80010C
:1029E000E39F100DF29F100D1124E12F722F423042
:1029F000510599F048F44115510569F041305105F0
:102A000081F0EB2F8D2F07C04430510569F080F025
:102A100046305105B1F76E2F8FCFE22F7B2F812FDC
:102A2000FACFE22F7D2FF7CFEB2F822F712FF3CF2D
:102A30007B2F822FED2FEFCF41E00E948914089564
:102A400008950E941C150895CF93DF93762FE90116
:102A5000682F842F0E942115798368838A83DF91F0
:102A6000CF9108958091C902982F9E7F29F481709B
:102A700082608093C90208958635E8F38170846589
:102A8000F8CF88E090E00E94AE270895CF92DF92C1
:102A9000EF92FF926B017C010E943215B701A601F3
:102AA00088E090E00E94CC27FF90EF90DF90CF90DD
:102AB0000895E9ECF2E083E0808311828FEF828356
:102AC0008383148260817181828193810E94461583
:102AD00008958091C90280FF02C08695089580E024
:102AE00008959091CD02933018F49F5F9093CD029A
:102AF000882351F06091C9027091CA028091CB0283
:102B00009091CC020E944615089581E00E947115B3
:102B100008959091CD02992319F091509093CD0290
:102B2000882351F06091C9027091CA028091CB0252
:102B30009091CC020E944615089581E00E9489156B
:102B4000089570E00E94041C089560911201809124
:102B5000C90280FF0BC08091110123E0829FC00158
:102B6000112482539D4F0E94A11508958091130155
:102B70009091140123E0829FF0011124E253FD4F54
:102B8000891748F71182108212828F5F3396F8CF2F
:102B90009091C90290FF0EC09091130120911401F1
:102BA00033E0939FF0011124E253FD4F921718F088
:102BB0000E94A51508958183608342839F5F3396A9
:102BC000F5CFA3E0B0E0E7EEF5E10C94002790919B
:102BD000C90290FF0AC09E012F5F3F4F0E9424153B
:102BE0004B8169818A810E94C8152396E2E00C948A
:102BF0001C27CF93DF93EC01EC81F0E0EF5EFD4FFB
:102C00004491E9ECF2E0628181810E94E1158C81BE
:102C10008F5F8C83DF91CF910895CF93DF93EC0189
:102C2000E9ECF2E0438162818C810E94E1158C81A4
:102C30008F5F8C83DF91CF910895A3E0B0E0E3E252
:102C4000F6E10C94FE268C0180915E0281110AC08F
:102C50009E012F5F3F4F4FEF6FEF0E9424158A8137
:102C600080935E02F8016481613069F080915E02B8
:102C700040E0662361F040E0623011F440915E0272
:102C800080E060E004C060915E0240E080E00E946D
:102C9000C815F801848190E0019663E070E00E941D
:102CA000832684832396E4E00C941A27A3E0B0E003
:102CB000ECE5F6E10C94F926082FD62EE42EC22E70
:102CC0009091C90290FF29C0E92FE695AE2FB0E0A0
:102CD000AF55BE4F8C918093A1029E7F923009F533
:102CE0009E012F5F3F4F802F0E9424154B816981E9
:102CF0008A810E94C8150093CA02D092CB02E0924A
:102D0000CC02CC2051F06091C9027091CA0280912E
:102D1000CB029091CC020E9446152396E9E00C94D8
:102D20001527823019F4E090CC02E5CF863019F4F3
:102D30000091CA02E0CF8930D9F38931E1F6E95137
:102D40006E2F6170B62EE695F0E0EF5EFC4F1491A9
:102D5000F12C60911501F61618F00E94A515CBCF45
:102D6000F19EC001112470E00E946F26802FB110E7
:102D700014C0860F20911301622F6F0D7727771FE4
:102D80009B01220F331F260F371F22533D4F4E2D1D
:102D90006D2D0E942415F394DCCF861BEBCFE9EC5C
:102DA000F2E09181282F4381628180E1890F0E94A6
:102DB0005616089581E00E94CF160895E9ECF2E0DE
:102DC0009181282F4381628180EF890F0E945616DE
:102DD000089581E00E94DE160895E9ECF2E0628138
:102DE00020E1620F08F46FEF282F438181810E9458
:102DF0005616089581E00E94ED160895E9ECF2E080
:102E0000628120E1621B08F460E0282F4381818108
:102E10000E945616089581E00E94FE160895E9EC7E
:102E2000F2E0438120E1420F08F44FEF282F628146
:102E300081810E945616089581E00E940F1708951F
:102E4000E9ECF2E0438120E1421B08F440E0282F46
:102E5000628181810E945616089581E00E942017A8
:102E6000089520E00E9456160895EF92FF921F9356
:102E7000CF93DF93EC0110E0EE24EA94F12C609103
:102E80001501161770F00E94A5159A818C8190FF8C
:102E900027C08F5F8C83DF91CF911F91FF90EF90C0
:102EA000089520911301422F410F5527551FCA0144
:102EB0009A01220F331F280F391F22533D4F70E014
:102EC000C7010E948326962F8C814091CC0260918D
:102ED000CB02199F800D11240E9424151F5FCFCFB4
:102EE0008150D8CFB0E0A0E0E8E7F7E10C94F826F5
:102EF000FC0182810FEF80FF01E010E04BE0A42E87
:102F000080911501181798F00E94A5158091600214
:102F1000013009F04FC0811102C08091150181502C
:102F200080936002CDB7DEB7EAE00C941427C0911D
:102F30001301C12ED12CCC0DDD2DD11DCE01880F5A
:102F4000991FC80FD91FC253DD4F198218821A82E8
:102F500034E0E32EF12CB12C809160028B0D8C308B
:102F60001CF16A2D0E946126892F082E000C990BF6
:102F7000C816D90691F48091CC028E9DA0018F9D38
:102F8000500D112455954795559547959E01609193
:102F9000CB028091CA020E942415B00EF1E0EF1A14
:102FA000F108D1F61F5FACCF87FFDFCF90911501FD
:102FB000890FDBCF90E001966091150170E00E94CF
:102FC0008326AECF0F931F93CF93DF93809113018E
:102FD0009091140123E0829FF0011124E253FD4FF0
:102FE000891740F1C0E0D3E060911501C61740F1A8
:102FF0000E94A51520910F0180915F02820F80939E
:103000005F0290911001920F90931001191654F4E1
:10301000082E000C990B409115014150550B841757
:1030200095071CF0219520930F01DF91CF911F91FF
:103030000F9108951182108212828F5F3396D0CF44
:103040000C2F10E070E0C8010E948326209113012C
:10305000820F482F50E020915F02022E000C330BAC
:1030600002171307BCF020911001022E000C330B45
:10307000201731077CF08D9F9001112422533D4F82
:103080004091CC026091CB028091CA020E9424152B
:10309000CF5FAACFFA01EE0FFF1FE40FF51FE25337
:1030A000FD4F118210821282F3CFB0E0A0E0EBE579
:1030B000F8E10C94F626EC014C81042F10E0980105
:1030C000D8010E94C7269B01AC010E94DD264B015E
:1030D0005C01E0E2F0E0E01BF10BA5E5B0E0AC0143
:1030E0009B010E94DD266B017C019F01DF010E9494
:1030F000BF269B01AC010E94E8269B01AC01280D74
:10310000391D4A1D5B1DC701B6010E949726F22E8C
:10311000822F90E039E23F1520F143E0249F900197
:10312000112435952795122F109500E085E5E82E9E
:10313000EF1880911501081718F10E94A5159C81C0
:1031400081E0992319F0903219F48FEF80930E01EA
:1031500080910E01890F8C83CDB7DEB7ECE00C9423
:10316000122725E530E0B901681B790B9B01220F7E
:10317000331F260F371F37FFD4CF2F5F3F4FD1CFDD
:103180008E2D01FD8F2D20911301622F600F772767
:10319000771F9B01220F331F260F371F22533D4FEE
:1031A000412F6091CB020E9424150F5FC2CF0F9375
:1031B0001F93CF93DF93EC0110E000E09091150195
:1031C0009017110609F06CF40E94A5158C8190E00F
:1031D0000196817099278C83DF91CF911F910F9178
:1031E000089520911301A801420F511D9A01220F49
:1031F000331F240F351F22533D4F4C816091CB026A
:103200008091CA0296959017110651F04CF0442314
:1032100049F04091CC020E9424150F5F1F4FCECF82
:103220004423B9F340E0F7CFB0E0A0E0EAE1F9E1F0
:103230000C94F226FC016280448081E08483E1E109
:10324000F2E07490E0E9F2E0E491C091CC02C6951E
:10325000C158D0E0CC0FDD1FCD2FDD27812C75E0CC
:10326000972EAA24AA94B12C55245A94E719EE2E2D
:10327000F12C80911501881638F00E94A515CDB764
:10328000DEB7E0E10C940E27C82CD12C82E0861525
:1032900068F09C9CF0019D9CF00D1124EF59FD4FAE
:1032A0008091CA0280838091CB028183411023C028
:1032B0009C9CF0019D9CF00D1124EF59FD4F138251
:1032C000128220911301C601820F911D9C01220FD1
:1032D000331F280F391F22533D4F9C9CF0019D9CAA
:1032E000F00D1124EF59FD4F4281618180810E94D0
:1032F00024158394BECF9C9C80019D9C100D1124AD
:103300000F591D4FF80183818823F1F08150838389
:10331000859DC0011124648170E00E946F26FB012D
:10332000FF27EF5EFD4F8491E82FE719E59DC0016F
:103330001124B7010E946F268091CC02689FB001D2
:103340001124F8017283BDCF0E947327B5010E943A
:1033500083268C179D070CF0B4CFF2E0F61598F495
:103360000E947327B5010E948326F80180830E9482
:1033700073272091CB022695622F70E00E9483264E
:10338000280FF80121839C9CF0019D9CF00D1124D5
:10339000EF59FD4F12828091CC02893C58F088ECA5
:1033A0009C9CF0019D9CF00D1124EF59FD4F8483EE
:1033B000838387CF8431A0F784E1F2CFE9ECF2E098
:1033C00080818E7F808360817181828193810E9460
:1033D00046151092A2020E94A5150895E9ECF2E0AC
:1033E00080818E7F80831092A2020E94A51508958D
:1033F0001092A20280919F0281110AC081E0809305
:103400009F028091C902817080939E020E94EE19F2
:1034100008956091C902669570E04BE050E086E146
:1034200091E00E948327892B19F481E08093A20206
:103430000E945C1F90939902809398020895909146
:10344000C90290FF2BC09170811129C092609093A6
:10345000C902662351F06091C9027091CA0280913D
:10346000CB029091CC020E9446156091C9026695EC
:1034700070E04BE050E086E191E00E948327892BC9
:10348000A9F01092A20281E080939B024091CC02AD
:103490006091CB028091CA020E94311708958B324D
:1034A00010F09465D4CF880F982BD1CF0E94091AC1
:1034B000EACF682F9091C902969581E0890F8B32EF
:1034C00008F081E00E941F1A089581E00E94591AB5
:1034D0000895682F9091C90296958FEF890F09F48E
:1034E0008AE20E941F1A089581E00E94691A0895D5
:1034F00061E00E941F1A0895E9ECF2E0808181608A
:10350000808386950E94781A08958091C90280FF71
:1035100003C00E94DE1908950E947C1A089560E09D
:103520000E941F1A08958091A00281112EC00E944E
:10353000530D811104C00E94E20D0E9459150E9492
:1035400041156093C9027093CA028093CB02909395
:10355000CC026E7F61F40E9459150E944115609360
:10356000C9027093CA028093CB029093CC020E944E
:1035700032151092A2028091C90280FF03C0869585
:103580000E948F1A81E08093A0020895E9ECF2E096
:1035900080818160808386950E948F1A08951092A1
:1035A0009F0280919E0281110E94C61A0E94091AF0
:1035B00008950F931F93CF93DF938091A2028823E6
:1035C000B9F18091A102E091C902E695E81BE09370
:1035D0009A02823091F5F0E0E35FFD4FE491CE2F47
:1035E000D0E009EF15E180919B02882361F01092F1
:1035F0009B020E945C1F9093990280939802109204
:103600009D0210929C020E945C1FE0919802F09132
:1036100099028E1B9F0B8F3F9F4750F4EC0FFD1FAD
:10362000F0939902E093980288E992E0F8010995F5
:10363000DF91CF911F910F910895863049F4F0E00A
:10364000E65FFD4FE491CE2FD0E00DE016E1CBCF49
:10365000893051F4E695F0E0E95FFD4FE491CE2F1B
:10366000D0E005E317E1BFCF8F3051F4E695F0E0ED
:10367000EC5FFD4FE491CE2FD0E002E717E1B3CF2E
:10368000853149F4F0E0EF5FFD4FE491CE2FD0E0BB
:1036900002EE17E1A8CFC8E2D0E005E518E18831D5
:1036A00009F4A1CF833239F4EFEFF1E0C591D49161
:1036B0000DE116E198CFC4EFD1E007ED18E18432B7
:1036C00009F491CFC0EDD7E000E215E1853209F0B1
:1036D0008ACF8E2F63E00E945526E92FF0E0E45058
:1036E000FE4FE491CE2FD0E004E119E17CCFFA0146
:1036F000811101C0FB0109950895CF93DF93C82F75
:10370000D62F0E9469158C1748F00E9469158D17F5
:1037100028F40E94651ADF91CF9108958C2F0E94A2
:10372000781AF9CF1F93CF93DF93EC01FB0112813D
:10373000111110C00E94650C8272FE01E052F84720
:10374000E531F10508F05EC0E55EF74D0C94B92651
:103750000E94851A812FDF91CF911F91089544E730
:103760005AE165E67AE10E94771BF4CF45E65AE11B
:1037700064E77AE1F8CF49EE56E16AED76E1F3CFFE
:103780004AED56E169EE76E1EECF4BE057E16AEFA4
:1037900076E1E9CF4AEF56E16BE077E1E4CF4DE225
:1037A00057E16CE177E1DFCF4CE157E16DE277E182
:1037B000DACF4DE955E165E875E1D5CF45E855E14A
:1037C0006DE975E1D0CF81E00E94781AC3CF65E042
:1037D00082E00E947D1BBECF68E086E0FACF6EE0FB
:1037E00089E0F7CF64E18FE0F4CF67E185E1F1CFC5
:1037F00088E1EACF62E289E1ECCF83E2E5CF6AE2D9
:1038000085E2E7CF11E0A6CF539A4BB1477F5BB17A
:103810005860EFB7F8949B01220F331F260F371F14
:10382000280F391F2817390741F4EFBF8FE594E0BF
:103830000197F1F700C000000895DC016D91CD0102
:1038400078E05BB9000000C067FF4BB9660F00006D
:1038500000C000C000C04BB900C07A9591F7E2CF1C
:10386000CF93DF93EC01FB018281882309F4D2C05E
:103870009E0130572332310508F0B2C00E94680D16
:103880009093BA028093B902FE01E150F047E23210
:10389000F10520F4E05DF74D0C94B9268091B90252
:1038A00081608093B90293C08091BA02886080934E
:1038B000BA028DC08091B9028260F3CF8091B902C3
:1038C0008460EFCF8091B9028860EBCF8091BA021B
:1038D0008160EDCF8091BA028260E9CF8091B90218
:1038E0008061DFCF8091B9028062DBCF8091B90225
:1038F0008064D7CF0E94F0078091B9028068D1CF51
:103900008091B9028C60CDCF8091BA028360CFCF15
:103910008091B9028E7FC5CF8091BA02877FC7CFD1
:103920008091B9028D7FBDCF8091B9028B7FB9CFD5
:103930008091B902877FB5CF8091BA028E7FB7CFD1
:103940008091BA028D7FB3CF8091B9028F7EA9CFCB
:103950008091B9028F7DA5CF8091B9028F7BA1CFD5
:103960000E94F0078091B9028F779BCF8091B902B6
:10397000837F97CF8091BA028C7F99CF8091B902D3
:1039800082FB992790F921E0922790FB82F990FB26
:1039900083F987CF8091BA02982F909591708E7F8E
:1039A000892B90FB81F983CF9091B902892F8F7B6E
:1039B00096FF806476CF0E94F0079091B902892F1C
:1039C00097FB87F980586DCF81E00E94E50D8091CB
:1039D000B9029091BA020E946D0D0E94F00780E03A
:1039E000DF91CF91089580E0F0CF9091B902892FB7
:1039F0008F7E94FF806155CF9091B902892F8E7F81
:103A000090FF81604ECF9091BA02892F877F93FFFC
:103A100088604DCF81E0E4CFCF93DF93EB01863117
:103A20009C4711F50E94650C9A81992399F08A7A36
:103A300091E009F490E09093A302811109C089E21A
:103A40000E943D0C0E94A60C80E0DF91CF9108956A
:103A500085E3F6CF8091A302811104C089E20E9420
:103A6000450CF0CF85E3FBCF81E0EFCF0F931F93A1
:103A7000CF93DF93C42FD22FFC0182818823C9F01A
:103A80004093A6020E945C1F9093A5028093A4021B
:103A900080E28C0F883040F4C77081E001C0880F4D
:103AA000CA95EAF70E949305DF91CF911F910F917C
:103AB00008951091A602141332C08091A40290912F
:103AC000A5020E94741F883C910548F5C0E2CD0F05
:103AD0001D17B9F080E2810F883040F4177081E043
:103AE00001C0880F1A95EAF70E949A05C83048F479
:103AF00081E09D2F977001C0880F9A95EAF70E9488
:103B00009305802F0E948A05C83070F6D77081E037
:103B100001C0880FDA95EAF70E949A05C5CF80E2C6
:103B20008C0F883008F6C77081E001C0880FCA95F5
:103B3000EAF7F2CF0F93DB0188519C47873091055C
:103B4000A0F5FC01EE5AF74D0C94B92606E221EEE1
:103B500041EE6AE17CE7CD010E94361D80E00F91C5
:103B6000089507E225EE45EE6BE17CE7F4CF06E22F
:103B700021EE40EE68E17CE7EECF07E225EE44EE71
:103B800069E17CE7E8CF06E221EE42EE6CE17CE7FA
:103B9000E2CF07E225EE46EE6DE17CE7DCCF08E2FE
:103BA00021E045EE6EE17CE7D6CF12968C9188231A
:103BB00019F01092A602D3CF81E0D1CF9093CD011E
:103BC0008093CC0108959093AC028093AB0208954A
:103BD000E091AB02F091AC02309729F00190F081B6
:103BE000E02D0995089580E00895E091AB02F091F1
:103BF000AC02309721F00280F381E02D0995089501
:103C0000E091AB02F091AC02309739F022E0DC0198
:103C10002C930480F581E02D09950895A3E0B0E090
:103C2000E4E1FEE10C9400272091A9023091AA0260
:103C300028173907A1F09093AA028093A902E09176
:103C4000AB02F091AC02309751F023E029839B83C3
:103C50008A830680F781E02DCE010196099523968F
:103C6000E2E00C941C27A3E0B0E0E9E3FEE10C9451
:103C700000272091A7023091A80228173907A1F048
:103C80009093A8028093A702E091AB02F091AC025E
:103C9000309751F024E029839B838A830680F78143
:103CA000E02DCE01019609952396E2E00C941C27A5
:103CB0009C012E5F3F4FAC01485F5F4F80E02417AF
:103CC000350709F40895F90191919F019923B9F3FA
:103CD0008F5FF5CF662349F0FC013296089621915B
:103CE000261729F0E817F907D1F780E0089581E059
:103CF00008959C01FC0132969FEF80E041914617A8
:103D000051F09F3F19F4411101C0982F8F5F863009
:103D1000A9F79F3F09F40895290F311D97FD3A95A2
:103D2000F90162830895FC013296089621912613C9
:103D300003C0DF0111971C92E817F907B9F708953E
:103D40000E94791E08950E94931E0895029626E00F
:103D5000FC0111922A95E9F7089546E050E00E948F
:103D6000902721E0892B09F420E0822F08950895FF
:103D70000E94B71E0895811106C081E08093AD02B4
:103D80000E94B81E089582E0F9CF83E08093AD02CF
:103D90000E94B81E08950E94BB1E089581E0809382
:103DA000AD020E94B81E08950E94CE1E0895089587
:103DB00008950E94D81E0895089508950E94D71E60
:103DC0000895CF930E94DC1E0E9471110E94DD1E97
:103DD000C0E08C2F0E94BA10811105C0CF5FC730A0
:103DE000C1F7CF91089581E0FCCF85B7806885BF8A
:103DF00085B7806885BF08951F921FB61F92112452
:103E00008F939F93AF93BF938091AE02811113C0A4
:103E10008091EF029091F002A091F102B091F20234
:103E20004196A11DB11D8093EF029093F002A093E3
:103E3000F102B093F202BF91AF919F918F911F90C9
:103E40001FBE1F9018958091F702843031F10E94B7
:103E5000F1031092AE0288E190E020E40FB6F894EE
:103E6000A895809360000FBE2093600083B7817F88
:103E7000846083BF83B7816083BF7894889583B75C
:103E80008E7F83BF0FB6F894A895809160008861FB
:103E900080936000109260000FBE08950E94F007AA
:103EA0000E94F803089582E084BD93E095BD9AEFE7
:103EB00097BD80936E0008952FB7F8948091EF021C
:103EC0009091F002A091F102B091F2022FBF0895FB
:103ED0002FB7F8946091EF027091F0028091F10297
:103EE0009091F2022FBF08959C014FB7F8948091F2
:103EF000EF029091F002A091F102B091F2024FBF57
:103F0000821B930B089578941F921FB61F92112461
:103F10008F939F93AF93BF938091EF029091F002A4
:103F2000A091F102B091F2020196A11DB11D809302
:103F3000EF029093F002A093F102B093F202BF91CE
:103F4000AF919F918F911F901FBE1F90189581E098
:103F50008093E00080E28093D8001092C9008FE146
:103F60009EE40197F1F700C0000087E090EBDC01D0
:103F70008093000390930103A0930203B093030383
:103F800088E19CE00FB6F894A895809360000FBE7E
:103F900090936000FFCF88E19CE00FB6F894A8955D
:103FA000809360000FBE90936000FFCF8091B702B6
:103FB00008959B01BA019091F7029430E9F48F7053
:103FC0008093E9009FEF8091E800915085FD06C045
:103FD00085ED8A95F1F700009111F5CF8091E80009
:103FE00085FF0AC050E040E0C9010E94CE218091C7
:103FF000E8008E778093E800089543E050E0BC012C
:1040000082E00E94D91F089546E050E0BC0182E0A2
:104010000E94D91F0895CF93DF93EC0148E050E050
:10402000BC0181E00E94D91F88E0FE01AFEAB2E046
:1040300001900D928A95E1F7DF91CF9108958091DB
:10404000F602811109C00E945E230E94BB23809169
:10405000E20084608093E20008951092F6020895D1
:104060000E94CE1E08956091F30281E0611101C0AB
:1040700080E00E94C51E08959091F70281E094307F
:1040800009F080E06091F3020E94CB1E089542E0A7
:1040900061EC81E00E94DA2242E261EC82E00E945F
:1040A000DA229091F70281E0943009F080E060918B
:1040B000F3020E94BB1E08958091F902833009F437
:1040C00061C030F48130D1F1823009F49EC008958E
:1040D0008A3009F48AC08B3009F46FC0893009F046
:1040E00050C08091F802813209F04BC08091FC02EF
:1040F0009091FD02029708F044C08091E800877F0C
:104100008093E8008091E80082FF37C09091F3002F
:104110008091F200029731F48091F100813011F02A
:10412000863021F48091F1008093B7028091E800FD
:104130008B778093E8000E940E2323C08091F802C1
:10414000813AF9F48091E800877F8093E8008091BC
:10415000FC029091FD02892B61F468E08FEA92E005
:1041600070E00E941D228091E8008B778093E80028
:10417000089560E090E080E0F3CF8091F702811134
:10418000C1CF08958091F802813AD9F78091FC025D
:104190009091FD02892BA9F78091E800877F809399
:1041A000E8008091E80080FFFCCF80912901809396
:1041B000F1008091E8008E77BCCF8091F8028132C7
:1041C00001F78091FC029091FD02892BD1F680913C
:1041D000E800877F8093E8000E940E238091FA0216
:1041E000809329010E94F00708958091F80281329E
:1041F00041F68091E800877F8093E8000E940E23BB
:104200008091FB028093B80208958091F802813A70
:1042100009F0B7CF8091E800877F8093E800809114
:10422000E80080FFFCCF8091B802C1CF84B7877FC0
:1042300084BF0FB6F894A895809160008861809340
:104240006000109260000FBE80E890E00FB6F89416
:1042500080936100909361000FBE0E94D41E089568
:104260000E945E230E94BB23E2EEF0E08081846026
:10427000808378940E943A26089581E291E00E941A
:10428000E31D08958091F702853031F48091F702A3
:10429000853019F00E944E1F08950E94231F8091BF
:1042A000F502882399F30E94E11E882379F30E9486
:1042B000B8210E94F007EACF08950E946021089576
:1042C000292F33272330310519F168F421303105C6
:1042D00009F444C02230310509F445C090E080E083
:1042E00030E020E025C02132310549F1223231058C
:1042F000A9F780E490E026E035E061157105C1F092
:104300008BE790E02BE834E06130710589F0E6CF6F
:1043100099278130910581F0009729F00297F1F6F5
:10432000E6E1F4E002C0EAE3F4E0849190E09F016A
:10433000FA01318320830895ECE2F4E0F6CF89E0BE
:1043400090E020E534E06115710591F389E090E09B
:1043500029E634E06130710559F3C0CF82E190E085
:1043600029E734E0E5CF8BE390E02EE334E0E0CFC3
:1043700080E189BD82E189BD09B400FEFDCF809155
:10438000D8008F7D8093D8008091E0008260809378
:10439000E0008091E00081FDFCCF0895AF92BF92D4
:1043A000CF92DF92FF920F931F93CF93DF936C0115
:1043B000EB018A010E942D23F82E811123C00115E3
:1043C000110539F0F80180819181C81BD90BC80E05
:1043D000D91EB12CA12C2097A9F08091E80085FD71
:1043E00022C08091E8008E778093E80001151105C6
:1043F000A1F0F80180819181A80EB91EB182A0823E
:1044000085E0F82E8F2DDF91CF911F910F91FF90B6
:10441000DF90CF90BF90AF9008950E942D23882306
:10442000D1F2F82EEFCFF60181916F018093F10068
:104430002197FFEFAF1ABF0ACECFFC018091FE0299
:104440009091FF0286179707A0F06115710529F476
:104450009091E8009E779093E80090E061157105D7
:1044600051F4911108C08091E80082FF34C080E0CF
:104470000895BC01F2CF8091F7028823C1F1853005
:10448000C1F18091E80083FD30C08091E80082FD99
:10449000EACF8091E80080FFE1CF8091F300209186
:1044A000F200382F6115710519F02830310558F0E8
:1044B00091E02830310509F090E02091E8002E7756
:1044C0002093E800CBCF81918093F1006150710976
:1044D0002F5F3F4FE7CF8091F702882341F085306F
:1044E00041F08091E80083FFBECF81E0089582E033
:1044F000089583E00895FC018091FE029091FF02EF
:1045000086179707A0F06115710529F48091E800DE
:104510008E778093E80090E06115710551F4911158
:1045200008C08091E80082FF35C080E00895BC019A
:10453000F2CF8091F7028823C9F18530C9F18091CB
:10454000E80083FD31C08091E80082FDEACF8091D0
:10455000E80080FFE1CF8091F3002091F200382F36
:104560006115710519F02830310558F091E02830B7
:10457000310509F090E08091E8008E778093E800A3
:10458000CBCF84918093F1003196615071092F5FF8
:104590003F4FE6CF8091F702882341F0853041F00C
:1045A0008091E80083FFBDCF81E0089582E0089507
:1045B00083E00895982F973028F08F708093E9005A
:1045C00081E008959093E900242F762F50E098170A
:1045D00031F07091EC002091ED005091F00021FD40
:1045E00002C09F5FE8CF3091EB003E7F3093EB003D
:1045F0003091ED003D7F3093ED003091EB00316064
:104600003093EB007093EC002093ED005093F0009A
:104610002091EE0027FDE5CF80E008958091F8021B
:1046200087FF13C08091E80082FF06C08091E800F8
:104630008B778093E80004C08091F7028111F2CF5C
:1046400008958091F7028823D9F38091E80080FFD4
:10465000F8CF8091E8008E77ECCF2091E400309184
:10466000E50095E6A9012091EC00822F817020FFE2
:1046700006C08091E80080FF06C080E00895209188
:10468000E80022FD1AC08091F702882389F0853066
:1046900089F08091EB0085FD0FC02091E4003091FE
:1046A000E50042175307F9F29150E1F684E00895CE
:1046B00082E0089583E0089581E008950E94CD236B
:1046C0000E94D523E0EEF0E0808181608083E8EDF8
:1046D000F0E080818F77808319BCA7EDB0E08C91EA
:1046E0008E7F8C9380818F7E80831092F602089556
:1046F0000F931F93CF93DF930E94CD230E94D52366
:10470000C8EDD0E088818F7788838881806888832E
:1047100088818F7D888319BC1092F7021092F30272
:104720001092F5021092F40200EE10E0F801808180
:104730008B7F808388818160888342E060E080E0B5
:104740000E94DA22E1EEF0E080818E7F8083E2EE4B
:10475000F0E0808181608083808188608083F801BF
:1047600080818E7F8083888180618883DF91CF9173
:104770001F910F910895E8EDF0E080818F7E808396
:10478000E7EDF0E080818160808384E082BF81E09A
:104790008093F6020E9478230895E8EDF0E080818E
:1047A0008E7F80831092E20008951092DA001092BA
:1047B000E10008951F920F920FB60F9211242F93CC
:1047C0003F934F935F936F937F938F939F93AF9399
:1047D000BF93EF93FF938091E10082FF0BC0809124
:1047E000E20082FF07C08091E1008B7F8093E100AF
:1047F0000E9439268091DA0080FF19C08091D8008C
:1048000080FF15C08091DA008E7F8093DA0080915E
:10481000D90080FF96C080E189BD82E189BD09B4DD
:1048200000FEFDCF81E08093F7020E941F2080915F
:10483000E10080FF19C08091E20080FF15C08091E7
:10484000E2008E7F8093E2008091E200806180939D
:10485000E2008091D80080628093D80019BC85E086
:104860008093F7020E9433208091E10084FF2BC0E7
:104870008091E20084FF27C080E189BD82E189BD8B
:1048800089B5982F917080FFFBCF8091D8008F7DE4
:104890008093D8008091E1008F7E8093E100809129
:1048A000E2008F7E8093E2008091E200816080933D
:1048B000E2008091F302882309F449C084E08093E8
:1048C000F7020E943C208091E10083FF29C0809183
:1048D000E20083FF25C08091E100877F8093E100A3
:1048E00082E08093F7021092F3028091E1008E7FC4
:1048F0008093E1008091E2008E7F8093E2008091BE
:10490000E20080618093E20042E060E080E00E948B
:10491000DA228091F00088608093F0000E943020BD
:10492000FF91EF91BF91AF919F918F917F916F9187
:104930005F914F913F912F910F900FBE0F901F905D
:10494000189519BC1092F7020E942D2070CF80910B
:10495000E30087FD93E09093F702B3CF1F920F928D
:104960000FB60F9211242F933F934F935F936F9342
:104970007F938F939F93AF93BF93CF93DF93EF93E7
:10498000FF93D091E900DF708091EC00C82FC170D7
:1049900080FDC0E81092E9008091F000877F80934D
:1049A000F00078940E94F2241092E9008091F000C7
:1049B00088608093F000CD2BCF70C093E900FF9109
:1049C000EF91DF91CF91BF91AF919F918F917F91A7
:1049D0006F915F914F913F912F910F900FBE0F906C
:1049E0001F901895AAE2B0E0E8EFF4E20C94FF26DD
:1049F00088EF92E02091F100FC012193CF01F3E0D8
:104A000080309F07B9F70E945C208091E80083FF07
:104A10001EC18091F8029091F9029A3008F017C1F6
:104A2000E92FF0E0E75AF74D0C94B926803899F059
:104A3000823809F00CC18091FC028F70873008F039
:104A400006C18093E9008091EB0085FB882780F9FF
:104A50001092E90006C08091F4029091F502911144
:104A600082609091E800977F9093E8008093F10036
:104A70001092F1008091E8008E77E5C0882309F458
:104A8000D3C0823009F0E3C08091FA028111D6C010
:104A90008091FC028F702FEF280F263008F0D7C0CE
:104AA0008093E9002091EB0020FFC8C0933031F4DF
:104AB0008091EB0080628093EB00C0C09091EB008E
:104AC00090619093EB0021E030E001C0220F8A95C5
:104AD000EAF72093EA001092EA008091EB008860E8
:104AE000EACF8111B4C01091FA021F778091E300E0
:104AF0008078812B8093E3008091E800877F80930A
:104B0000E8000E940E238091E80080FFFCCF809196
:104B1000E30080688093E30082E0111183E08093DA
:104B2000F70295C08058823008F091C08091FA0257
:104B30009091FB028C3D23E09207A1F583E08A83EC
:104B40008AE289834FB7F894DE01139620E03EE0B5
:104B500051E2E32FF0E050935700E49120FF03C0AF
:104B6000E295EF703F5FEF708E2F90E0EA30C0F07B
:104B7000C7968D939D932F5F243159F74FBF809136
:104B8000E800877F8093E8006AE270E0CE0101963A
:104B90000E941D228091E8008B778093E80057C027
:104BA000C096E7CF6091FC027091FD02AE014F5FAD
:104BB0005F4F0E945D21BC01892B09F448C0909190
:104BC000E800977F9093E80089819A810E947B2278
:104BD000E1CF8038E1F58091E800877F8093E8009D
:104BE0008091F3028093F10045CF811130C0909104
:104BF000FA02923060F58091E800877F8093E800A8
:104C00009093F3020E940E238091F302882311F007
:104C100084E005C08091E30087FDFACF81E08093B6
:104C2000F7020E94472013C08091FA02813079F484
:104C300081E0933009F080E08093F5021092E90062
:104C40008091E800877F8093E8000E940E23809186
:104C5000E80083FF0AC08091E800877F8093E80026
:104C60008091EB0080628093EB00AA96E3E00C94C5
:104C70001B270895CF938091F7028823A1F0C0915C
:104C8000E900CF709091EC00892F817090FD80E851
:104C9000C82B1092E9008091E80083FD0E94F22465
:104CA000CF70C093E900CF910895991B79E004C0BB
:104CB000991F961708F0961B881F7A95C9F780955B
:104CC000089587FB082E062687FD819567FD61956F
:104CD0000E9455260EF4919507FC81950895AA1B14
:104CE000BB1B51E107C0AA1FBB1FA617B70710F0D7
:104CF000A61BB70B881F991F5A95A9F78095909509
:104D0000BC01CD01089597FB072E16F4009407D03F
:104D100077FD09D00E946F2607FC05D03EF49095E0
:104D200081959F4F0895709561957F4F0895A1E2F9
:104D30001A2EAA1BBB1BFD010DC0AA1FBB1FEE1F15
:104D4000FF1FA217B307E407F50720F0A21BB30B60
:104D5000E40BF50B661F771F881F991F1A9469F7DC
:104D600060957095809590959B01AC01BD01CF0138
:104D70000895EE0FFF1F0590F491E02D09940E9415
:104D8000C726332312F48A1B9B0B0C94D826A29FB0
:104D9000B001B39FC001A39F700D811D1124911D0F
:104DA000B29F700D811D1124911D08950E94C72688
:104DB000B7FF0895821B930B08950E94C726A59FF5
:104DC000900DB49F900DA49F800D911D1124089506
:104DD000B7FF0C94DD260E94DD26821B930B0895FD
:104DE0002F923F924F925F926F927F928F929F92FB
:104DF000AF92BF92CF92DF92EF92FF920F931F93E9
:104E0000CF93DF93CDB7DEB7CA1BDB0B0FB6F89499
:104E1000DEBF0FBECDBF09942A88398848885F84D9
:104E20006E847D848C849B84AA84B984C884DF804A
:104E3000EE80FD800C811B81AA81B981CE0FD11D2E
:104E40000FB6F894DEBF0FBECDBFED0108958F926F
:104E50009F92AF92BF92CF92DF92EF92FF92CF9349
:104E6000DF93EC01688179818A819B8161157105ED
:104E70008105910521F464E279ED8BE597E02DE160
:104E800033EF41E050E00E94EE2749015A019B01B7
:104E9000AC01A7EAB1E40E94DD266B017C01ACEE17
:104EA000B4EFA50194010E94EB26DC01CB018C0D2F
:104EB0009D1DAE1DBF1DB7FF03C00197A109B048DE
:104EC00088839983AA83BB839F77DF91CF91FF90DB
:104ED000EF90DF90CF90BF90AF909F908F9008950C
:104EE0000E942727089580E091E00E9427270895D7
:104EF000B0E0A0E08093000190930101A093020133
:104F0000B09303010895FC014150504030F00190EE
:104F10000616D1F73197CF0108958827992708956C
:104F2000FB01DC0104C08D910190801921F44150F6
:104F30005040C8F7881B990B0895FB01DC0102C0A3
:104F400001900D9241505040D8F70895F999FECF45
:104F500092BD81BDF89A992780B50895A6E1B0E089
:104F600044E050E00C94E027A8E1B0E042E050E0DB
:104F70000C94E027262FF999FECF92BD81BDF89AB7
:104F8000019700B4021639F01FBA20BD0FB6F8948D
:104F9000FA9AF99A0FBE08950396272F0E94BB270D
:104FA0000E94BA27252F0E94BB27242F0C94BB27D1
:104FB0000196272F0E94BB270C94BA27DC01CB0156
:104FC000FC01F999FECF06C0F2BDE1BDF89A319619
:104FD00000B40D9241505040B8F70895052E97FB4C
:104FE0001EF400940E94052857FD07D00E949726C2
:104FF00007FC03D04EF40C9405285095409530954D
:1050000021953F4F4F4F5F4F089590958095709534
:1050100061957F4F8F4F9F4F0895F894FFCFDC0528
:10502000DC050D060D069F06BB063C063C06C006C9
:10503000310740074007A81BAF1BB61BBB1BC01B9B
:10504000C51BCA1BCF1BD41BD91BDE1BE31BE71BD5
:10505000EC1BEF1BF21BF51BF81BFA1BFD1BFF1BC8
:10506000881CFC1C901C5A1C5E1C941C621C981C06
:10507000A41C6E1CF51C721CA81C761CAC1CD41C39
:105080007A1CB01CDB1C801CB61CBE1C661C9C1C45
:105090006A1CA01C841CBA1CCA1CE41CF31C541CF3
:1050A0008C1C031DB71DBD1DA61DB11DC31DC91D33
:1050B000CF1D16253E2527263E252726712592251C
:0650C0002726E925F52575
:1050C600010000003202280850011E0A14010101E5
:1050D60002000B000B0B01191A1B1C1D1E1F2021A1
:1050E60022D61F0B200420FD1F01E200E900EA0082
:1050F600B500B600B700CD008301CC008A0192014D
:1051060094012102230224022502260227022A02F2
:10511600B300B4006F0070009F01CB01818283E26F
:1051260000E900EA00B500B600B700CD008301CC67
:10513600008A0192019401210223022402250226FB
:105146000227022A02B300B4006F0070009F01CB51
:1051560001818283946697C63435F4F5F6F73133C8
:1051660032000102020202060606090909090909B6
:105176000F0F0F0F0F0F15151518191919191919E2
:0C51860019191919232425252525252594
:00000001FF
