:100000000C9425030C945D030C945D030C945D0328
:100010000C945D030C945D030C945D030C945D03E0
:100020000C945D030C945D030C94632A0C94372BA1
:100030000C9480250C945D030C945D030C945D037B
:100040000C945D030C945D030C945D030C945D03B0
:100050000C945D030C9407260C945D030C945D03D3
:100060000C945D030C945D030C945D030C945D0390
:100070000C945D030C945D030C945D030C945D0380
:100080000C945D030C945D030C945D030C945D0370
:100090000C945D030C945D030C945D030C945D0360
:1000A0000C945D030C945D030C945D032B2F1400E2
:1000B0001A00080015001700292104001600070087
:1000C00009000A00E1001D001B00060019000500E0
:1000D0001C0018000C00120013002A000B000D0079
:1000E0000E000F00330034001100100036003700FE
:1000F00038001E7CE3002A412C442B42E60000001D
:1001000001001E021F0220022102220201002D0214
:100110002E022F023002310201002900E300E2002A
:1001200039003402230224022502260227024C0051
:100130005000510052004F00350035024A004D007A
:100140004B004E0046002C32010001002800010047
:100150000100000001001E001F00200021002200FD
:1001600001002D002E002F00300031000100290079
:10017000E700E600390034002300240025002600B3
:1001800027004C003A003B003C003D003E003F0091
:1001900040004100420043004400450001000100CE
:1001A0002A0001000100000044003A003B003C002E
:1001B0003D003E00000000000000D300D100D2004E
:1001C0002078217827782378257829783F00400007
:1001D0004100420043004500CF00CE00CD00D000DA
:1001E0000000007CDB00DA00D900DC000000010028
:1001F000010001002C000100010000002F0A2F085F
:1002000052000000000000000100500051004F00AB
:10021000000000000100AC00AB00AE00AA00A90085
:1002200000000000000000003008300A50005100BB
:1002300052004F00000000004A004E004B004D00ED
:1002400000000100010001002C000100010000007D
:100250001E0F0500047F3F1F643214643214783C83
:100260001E1E140A052223252628292A2C2D2F306C
:1002700032333536383A3B3D3E4042434547494AA2
:100280004C4E5051535557595A5C5E6062646668D3
:10029000696B6D6F71737577797B7D7F81838587DE
:1002A000898A8C8E90929496989A9C9E9FA1A3A5E1
:1002B000A7A8AAACAEAFB1B3B4B6B8B9BBBCBEBF09
:1002C000C1C2C3C5C6C7C9CACBCCCDCED0D1D2D28C
:1002D000D3D4D5D6D7D7D8D9D9DADADBDBDBDCDC97
:1002E000DCDCDCDDDDDDDDDCDCDCDCDCDBDBDBDA4F
:1002F000DAD9D9D8D7D7D6D5D4D3D2D2D1D0CECDBA
:10030000CCCBCAC9C7C6C5C3C2C1BFBEBCBBB9B8C6
:10031000B6B4B3B1AFAEACAAA8A7A5A3A19F9E9C4B
:100320009A98969492908E8C8A89878583817F7D16
:100330007B79777573716F6D6B6968666462605EF7
:100340005C5A5957555351504E4C4A4947454342C0
:10035000403E3D3B3A3836353332302F2D2C2A295A
:100360002826252322FFAA7F554000010101010113
:10037000010101010202020202020202020303035E
:10038000030303030304040404040404050505052E
:1003900005060606060607070707070808080809EE
:1003A0000909090A0A0A0B0B0B0C0C0C0D0D0D0E9A
:1003B0000E0E0F0F0F10101111111212131314142F
:1003C000151516161717181819191A1A1B1B1C1DA4
:1003D0001D1E1E1F202021222223242425262627FD
:1003E0002829292A2B2C2D2D2E2F3031323233342F
:1003F00035363738393A3B3C3D3E3F404142434435
:1004000045464748494A4C4D4E4F50515354555616
:1004100058595A5B5D5E5F616264656668696B6CC2
:100420006D6F7072737577787A7B7D7E808283853D
:1004300087888A8C8E8F91939596989A9C9EA0A27D
:10044000A3A5A7A9ABADAFB1B3B5B7BABCBEC0C287
:10045000C4C6C9CBCDCFD1D4D6D8DBDDDFE2E4E74B
:10046000E9EBEEF0F3F5F8FAFDFF00000000000004
:1004700000002A2B280000000000000000000000FF
:10048000000000000029000000002C1E3420212262
:1004900024342627252E362D3738271E1F202122CB
:1004A000232425263333362E37381F040506070844
:1004B000090A0B0C0D0E0F10111213141516171834
:1004C000191A1B1C1D2F3130232D35040506070872
:1004D000090A0B0C0D0E0F10111213141516171814
:1004E000191A1B1C1D2F3130354C00000000000074
:1004F00000000000000000000000000000000000FC
:1005000000000000000000000000000000007E0F5E
:1005100000D4FFFFFFC700000078140372006500DD
:100520007600690075006E0067003400310000003D
:100530000C0367007400690070007300000004037E
:10054000090409023B00020100A0FA0904000001AD
:10055000030101000921110100012240000705816A
:100560000308000109040100010300000009211132
:10057000010001227B000705820320000112010017
:1005800002000000080778CBDC0100010200010531
:10059000010902A10185020901A10005091901292A
:1005A000081500250195087501810205010930092A
:1005B000311581257F950275088106093815812539
:1005C0007F950175088106050C0A38021581257F83
:1005D000950175088106C0C005010980A101850348
:1005E00019012AB700150126B70095017510810081
:1005F000C0050C0901A101850419012AA0021501F9
:1006000026A002950175108100C005010906A1010F
:10061000050719E029E715002501950875018102F4
:100620009501750881010507190029FF150026FFAE
:1006300000950675088100050819012905950575BD
:10064000019102950175039101C011241FBECFEFE6
:10065000DAE0DEBFCDBF04B603FE18C080915003C0
:1006600090915103A0915203B09153038730904B66
:10067000A740B04B59F410925003109251031092BE
:10068000520310925303E0E0F8E3099511E0A0E073
:10069000B1E0E4E6FEE502C005900D92AA3DB10787
:1006A000D9F723E0AAEDB1E001C01D92A035B20751
:1006B000E1F70E9409140C94DC2E0C94000023E056
:1006C00042E061E00E94F20A08958530B8F4673094
:1006D000A8F4463098F450E096E0699F400D511D13
:1006E0001124FA019AE2899FE00DF11D1124EE0F09
:1006F000FF1FE455FF4F85919491089581E090E0AC
:1007000008950E94650308959C013A9521153F4183
:1007100050F5FC01EE27F170BC0166277270AC0148
:10072000442754709C012227387094FF0EC080E14A
:10073000EF2B09F480E0672B09F08062452B09F06C
:100740008064232B89F08068089581E0EF2B09F401
:1007500080E0672B09F08260452B09F08460232B31
:1007600019F08860089580E00895CF93DF93EB013E
:100770000E948403FE010995DF91CF910895CF93E4
:10078000DF93EC01805E9109089720F062E279E046
:10079000209711F464EE76E0CE010E94B5038C2F11
:1007A0000E94D705DF91CF910895CF93DF93EC019D
:1007B0000E946906CE01805E9109089720F069E2E7
:1007C00079E0209711F46BEE76E0CE010E94B5033C
:1007D000DF91CF91089581E008950E94EB03089581
:1007E00081E008950E94EB0308950E94F2030895AA
:1007F00008950E94F8030895A6E0B0E0E2E0F4E076
:100800000C94882D49835A839E833091E801898115
:100810009A8131111AC03E81332399F0222389F045
:100820000E94920A182F682F89819A810E946E0A6D
:1008300069817A81812F0E94AC112696E3E00C94A5
:10084000A42D0E94800A182FF3CF0E94920A69817A
:100850007A81F1CFFC01262F408151816281738121
:10086000848195810E94FC030895CF93DF93EC016E
:1008700061E00E942A04BE010E94ED03DF91CF9146
:100880000895CF93DF93EC0160E00E942A04BE013B
:100890000E94F903DF91CF91089508950E944609BF
:1008A0000E944D042FEF84E39CE021508040904053
:1008B000E1F700C0000008950E944E040E942B261C
:1008C00008950E944E040E944F2608950F931F938F
:1008D000CF93DF938C0161E00E942A04EC01B80100
:1008E0000E94F503811106C080E0DF91CF911F9136
:1008F0000F910895B801CE010E94B0228823A1F380
:10090000B801CE010E94B721882371F3B801CE014E
:100910000E941E24882341F3B801CE010E94B51E17
:10092000882311F3B801CE010E9490238823E1F2BD
:10093000B801CE010E94171E8823B1F2F80185810B
:10094000882361F0C330FCE7DF07E9F058F4C115F4
:10095000ECE7DE07A9F0C130DC47B9F0C8010E941E
:10096000F003C3CFCB358CE7D807A9F0CC35ECE743
:10097000DE0771F0CA35DC4789F70E94FD0EEECF25
:100980000E945C04B1CF0E94050F0E946104ACCFAD
:100990000E94F30EE3CF0E94010FE0CF0E945D257D
:1009A0000E9472050E94651C08950E9476050E94AF
:1009B000541D0E94622508952F923F924F925F929C
:1009C0006F927F928F929F92AF92BF92CF92DF925F
:1009D000EF92FF920F93CF93DF931C0129013A010D
:1009E0006B0181E0C81AD108E101CC0DDD1D188230
:1009F000F12CE12C8AE0882E912CA12CB12CEC1446
:100A0000FD0498F0C101DF91CF910F91FF90EF901D
:100A1000DF90CF90BF90AF909F908F907F906F901E
:100A20005F904F903F902F900895C301B201A501B0
:100A300094010E94202D605D603319F4E114F104EB
:100A400031F0411451046104710409F4602F6A9378
:100A5000C301B201A50194010E94202D29013A0190
:100A60008FEFE81AF80ACBCF0F9320910401309151
:100A700005012817390721F42091E201261791F08A
:100A800090930501809304016093E2019C0150E082
:100A900040E0062F66E070E08CED91E00E94DC04FF
:100AA0000F9108958CED91E0FBCF089581E00895BA
:100AB0000895CF93DF93D82F0E945605C82F88231F
:100AC00019F08D2F0E9458058C2FDF91CF9108953A
:100AD0000895CF93C82F0E9455058C2F0E94590569
:100AE000CF91089580E00E94690508950E946C24CA
:100AF0000E9469050895CF930E946C24C82F8091AD
:100B0000E3018C1779F0C093E3010E94EC25609318
:100B1000E4017093E5018093E6019093E7018C2F47
:100B20000E946905CF910895ADE0B0E0EAE9F5E0F3
:100B30000C94892D488759876A877B878C879D8786
:100B400091110E941B0E1F8286E0FE013896DE0185
:100B5000119601900D928A95E1F78D8181110DC05A
:100B600029813A814B815C816D817E818F810E94D8
:100B70004E0D2D96E2E00C94A52DCE0101960E941B
:100B800035048111EDCFF5CFFC012481213021F412
:100B9000808191810E94C40A0895662329F00E94F1
:100BA0008D140E94601508950E94E714FACFCF9328
:100BB000C82F8823C9F08238C9F40E946C2481FDB3
:100BC00013C089E30E94D30D0E94640E2FEF87EEBD
:100BD00093E0215080409040E1F700C0000089E39D
:100BE0000E94DB0D0E94640ECF9108958338A1F41A
:100BF0000E946C2480FDF8CF83E50E94D30D0E94F3
:100C0000640E2FEF81EE94E0215080409040E1F798
:100C100000C0000083E5E4CF8438A1F40E946C2476
:100C200082FDE2CF87E40E94D30D0E94640E2FEF75
:100C300081EE94E0215080409040E1F700C0000038
:100C400087E4CECF8CEF8C0F813A90F46C2F80919B
:100C50000601909107010E94EE24882329F08C2F31
:100C60000E94DB0D0E94640E8C2F0E94D30DBACF20
:100C700080E28C0F883048F4C77081E001C0880F93
:100C8000CA95EAF70E94FE0DADCFEBE5EC0FE3301D
:100C900040F4F0E0EB59FE4F808190E00E949224F6
:100CA000A3CFE8E5EC0FEB3150F4F0E0EE0FFF1FBF
:100CB000E15DFE4F808191810E94B72495CF83E34F
:100CC0008C0F833108F090CF61E08C2F0E94CD050E
:100CD0008BCF882309F456C0823879F40E946C24A3
:100CE00081FF50C089E30E94D30D0E94640E89E306
:100CF0000E94DB0D0E94640E0895833859F40E940F
:100D00006C2480FF3FC083E50E94D30D0E94640ED7
:100D100083E5EECF843859F40E946C2482FF32C000
:100D200087E40E94D30D0E94640E87E4E1CF9CEF1C
:100D3000980F913AE8F290E2980F983050F487704B
:100D400091E001C0990F8A95EAF7892F0E94040E5D
:100D5000D1CF9BE5980F933028F490E080E00E947B
:100D60009224089598E5980F9B3128F490E080E054
:100D70000E94B724089593E3980F933118F460E02C
:100D80000E94CD0508951F93CF93DF93182FEB0199
:100D90000E94D705209739F4812F0E946906DF91C0
:100DA000CF911F9108958FE99FE00197F1F700C05F
:100DB00000002197EFCF70E060E0893311F460E527
:100DC00070E00E94C3060895882321F00E94FE0D62
:100DD0000E94640E0895882321F00E94040E0E9450
:100DE000640E0895B0E0A0E0E8EFF6E00C94822DE8
:100DF0006C01D62FC72FFC011581068102950F705B
:100E00000E94F40DE82E8823E9F0E12E1123D1F0A1
:100E10008C2F807F803451F080E28D0F8830F8F085
:100E2000011104C08C2F807E8032C9F080910703AD
:100E300082FF15C082E00E94C70E0E94F40D91E06F
:100E4000E82EE926BC2EB2949FE0B922FBE0FB1508
:100E5000B8F1EB2DF0E0E252F14D0C94422DE12C73
:100E6000F1CF0C2F0F70C07F11F00295007F11237E
:100E700099F0002359F080E28D0F883010F0D111E5
:100E800007C0802F0E94FE0D0E94640E8D2F5AC055
:100E9000802F0E940E0EF8CF8D2F0E94690600232E
:100EA00079F080E28D0F883010F0D11104C0802FCE
:100EB0000E94040E03C0802F0E94140E0E94640E34
:100EC000EB2DE850FF0B349720F40E946C240E9415
:100ED0006905EE2089F00E94F00D80FD0DC0F6013D
:100EE00015820E94EA0D0E94CC09C6010E94FF08EB
:100EF0000E94EA0D0E94DC09CDB7DEB7E9E00C9450
:100F00009E2D2C2F2F70F22EC07FC03219F0F2943C
:100F100080EFF822DD2341F0D130D1F1112309F423
:100F200044C00023F1F0B2CF8091070382FD15C0C9
:100F3000112359F0FF2029F08F2D0E94FE0D0E94F1
:100F4000640E80E00E94D705BBCF80E00E94690656
:100F5000FF2009F4B5CF8F2DABCF112369F001111C
:100F600004C08F2D0E94E406ABCF013009F0A8CF5A
:100F70008F2D0E94350EA4CF0111A2CF8F2D0E947C
:100F8000EB068F2D0E94410E8F2D0E94250E98CFCB
:100F9000112321F0063008F093CFE3CF053008F09D
:100FA0008FCF8F2D0E94EB068BCF0023D1F3D93347
:100FB00049F43FEF87EE93E0315080409040E1F7F5
:100FC00000C000008D2F0E9469067ACF8C2F869575
:100FD0008695837069F0813009F072CF8D2F9C2F38
:100FE0009370111102C080E090E00E94B72468CF96
:100FF0008D2F9C2F9370111102C080E090E00E9411
:1010000092245ECF612F8D2F0E94CD0559CF8C2F5A
:101010008370A1F5111154CF4D2F4295469547701D
:10102000440F440F2D2F2F7030E0042E02C0220FEA
:10103000331F0A94E2F790E080E0D4FF09C08FE00C
:1010400090E002C0880F991F4A95E2F7809590952D
:10105000C695C695C370822B932BC23049F058F4C5
:10106000C13019F00E949F092BCF0E94960928CF0A
:101070000E94A80925CF0E94930922CF86951123AB
:1010800011F08C2F8170882309F41ACF4D2F4295CF
:1010900046954770440F440F2D2F2F7030E0042EDB
:1010A00002C0220F331F0A94E2F790E080E0D4FFE1
:1010B00009C08FE090E002C0880F991F4A95E2F7BF
:1010C00080959095C695C695C370822B932BC230A0
:1010D00049F058F4C13019F00E94070AF1CE0E947D
:1010E000FE09EECE0E94100AEBCE0E94B409E8CEB3
:1010F000CF70112329F08C2F0E94CC098D2F32CF75
:101100008D2F0E94EB068C2F0E94DC09D9CED23F96
:1011100041F160F4D03FB9F0D13F81F0112309F4DF
:1011200046C00111B3CE8C2F8F711FC0D33F01F188
:10113000D43FA1F78091070382FD24C08C2F8F71CB
:10114000112311F312C0112341F0053008F0B8CE7D
:101150008C2F8F710E94EE09B3CE063008F0B0CE0E
:10116000F7CF8C2F8F711111CFCF0E94CC09A8CE51
:10117000112329F08C2F8F710E94C009A1CE0E94EB
:10118000BB099ECE112349F0CF718C2F0E94CC0950
:1011900063E08C2F0E94A90E93CE81E00E94C70EBF
:1011A000023008F48DCE82E00E94C70E89CE002363
:1011B00059F0D93309F006CFEFEFF7EE23E0E15015
:1011C000F0402040E1F7FCCE8C2F8F719DCF0F9324
:1011D0001F93CF93DF93EC01688179818D810E9409
:1011E000CF0A8C010E94190A0E949209B801CE010F
:1011F0000E94F206DF91CF911F910F910895CF9336
:10120000DF93EC018C81882399F0CE010E94660463
:10121000811111C00E94F40D882351F08D81882323
:1012200039F08091070382FF03C082E00E94C70E5D
:10123000DF91CF910895CE010E94E708CE010E9470
:101240004104F6CF882321F00E940E0E0E94640E06
:101250000895882321F00E94140E0E94640E0895C0
:1012600090E080E00E94922490E080E00E94B72409
:101270000E941B0E0E94640E0E947C150E94601545
:1012800008950E94E30D0E94300908950E940B0EFC
:101290000E944109089592959F70963091F058F4FC
:1012A000925F9F70923058F4803F19F030F4883E7E
:1012B00030F481E008959A5FF4CF843FD1F380E069
:1012C0000895883EB0F3813FD1F7F3CFFC0124812C
:1012D000222339F0808191810E94C40A0E944B0927
:1012E000089580E00895A6E0B0E0E9E7F9E00C9405
:1012F000892D2696E2E00C94A52DA7E0B0E0E3E866
:10130000F9E00C94892D2796E2E00C94A52D089520
:101310000E94870908950E9488099093040280938F
:101320000302089508950E948B09089520910302F5
:1013300030910402822B932B0E948B0908952091F7
:10134000030230910402822393230E948B090895A3
:101350002091030230910402822793270E948B0977
:1013600008950E945F0308950E94B10990930202BC
:1013700080930102089590E080E00E94B4090895EE
:1013800021E030E0A90102C0440F551F8A95E2F721
:10139000CA010E94B409089521E030E002C0220F82
:1013A000331F8A95E2F78091010290910202822B0D
:1013B000932B0E94B409089521E030E002C0220F6F
:1013C000331F8A95E2F72095309580910102909124
:1013D0000202822393230E94B409089521E030E0A1
:1013E00002C0220F331F8A95E2F78091010290918B
:1013F0000202822793270E94B409089520910102D6
:1014000030910202822B932B0E94B40908952091FF
:10141000010230910202822393230E94B4090895AD
:101420002091010230910202822793270E94B40981
:1014300008950895262F277091E001C0990F2A95ED
:10144000EAF723E0769567952A95E1F7660F771F0F
:10145000660F771FFA01E60FF71F50E040E0682F94
:1014600070E08191DF0111979B01042E02C0369537
:1014700027950A94E2F72170219528272923282708
:101480002C934F5F5F4F4430510559F70895A82FB3
:10149000A77023E0969587952A95E1F7880F991F05
:1014A000880F991FFB01E80FF91F50E040E080E032
:1014B000219130E00A2E02C0369527950A94E2F772
:1014C00021703327042E01C0220F0A94EAF7822BE1
:1014D0004F5F5F4F4430510559F70895262F9730DD
:1014E00070F4863060F4682F70E086E0989F600D9D
:1014F000711D112449EE51E0822F0E941A0A0895AD
:10150000292F973068F4863058F490E069EE71E046
:1015100036E0239F800D911D11240E94470A0895F3
:1015200080E00895B0E0A0E0E8E9FAE00C94822DB4
:101530007C010091010210910202809103029091BE
:101540000402082B192BCFE0D0E0CC24C394D12C7B
:10155000BC2EC6010C2E02C0880F991F0A94E2F718
:1015600080239123892B49F4219790F7B12C8B2D5F
:10157000CDB7DEB7E9E00C949E2DB7018C2F0E9409
:10158000B811019789F3F3CFCF93DF93EC010E9459
:10159000920ABE010E94B811DF91CF9108951F9366
:1015A000CF93DF93EB019091E801992339F0CB01C0
:1015B0000E94C40ADF91CF911F910895882369F09A
:1015C000CB010E94920A182F682FCE010E946E0A4A
:1015D000BE01812F0E94B811EDCFCB010E94800A7D
:1015E000182FF6CFE1E0F0E0DF0102C0AA0FBB1F29
:1015F0006A95E2F7BD01DF0102C0AA0FBB1F4A9541
:10160000E2F7AD01462B572B02C0EE0FFF1F2A95C4
:10161000E2F79A01282339232417350719F48E2B72
:101620009F2B0895E095F0958E239F2308951F9397
:10163000CF93DF93C091050217E0809106028C13CF
:1016400004C0DF91CF911F910895D0E01C9FF0015D
:101650001D9FF00D1124E95FFD4F208131814281F2
:1016600053816481758186810E947D092196C770AE
:10167000E4CF20913F0230914002409141025091CD
:1016800042026091430270914402809145020E949F
:101690007D090895CF93DF9380914502807F09F003
:1016A0004DC080914402882309F448C0E0910502AE
:1016B00050910602C0914002D0913F0260914102D8
:1016C0007091420247E05E17C9F18E2F90E0E49FCF
:1016D000F0011124E95FFD4F2481222391F1489FFD
:1016E000F001499FF00D1124DF01A95FBD4F119654
:1016F0002C9111972C1325C02C912D1322C01596D7
:101700002C91159721111DC012962D913C91261BED
:10171000370B2F3A3105A8F4809145028F70806114
:1017200080934502E35FFD4F80818F7080618083ED
:101730008FE392E00E94FF080E94170BDF91CF9188
:101740000895FC013196E770BECF482F2091050225
:101750009091060257E0291302C080E0089530E01E
:10176000529FF001539FF00D1124E95FFD4F8181DD
:10177000681306C08081481303C085818111EECFB4
:101780002F5F3F4F2770E7CFA4E1B0E0EAECFBE02A
:101790000C947F2D8C0186E0F801DE011F960190EC
:1017A0000D928A95E1F7F8018481E5809FE3A92EE7
:1017B00092E0B92E9091430291111FC08823D1F07D
:1017C000EE20A9F0C8010E946609F82E882379F05E
:1017D00087E0F801D50101900D928A95E1F7C501E6
:1017E0000E94C4050E944A0B0E94390B5FC0C801C9
:1017F0000E94FF08FF24F39459C0C080D1808280EA
:101800009380F09044022091410230914202A40161
:10181000421B530BFF2009F4F9C04F3A510508F061
:10182000A7C0882309F442C09091400280914502EC
:10183000282F207F09F05CC09D1116C090913F02B7
:10184000C91212C0E1104EC08F70806180934502B2
:101850000E94390B8FE392E00E94FF0880914502BD
:10186000F8018683F12C22C0E1103CC06D2D8C2D37
:101870000E94A50B6D2D8C2D0E94A50BE82E8111C9
:10188000F1CFCF86D88A8F8598890E94C40A292FE4
:1018900022952F70243078F49F702230A8F099237D
:1018A000B9F0F8019681907F99F4FE2C8F2D649603
:1018B000ECE00C949B2D2A5F2F70223068F0C80159
:1018C0000E94FF08EF2CF1CF992311F0882369F3D0
:1018D000805E883050F3F3CF803F38F3815F8330F0
:1018E00070F7E3CF80914502816080934502BACFC3
:1018F0009D1113C090913F02C9120FC0E1100DC09D
:101900008683C8010E94FF0887E0F801AFE3B2E0D8
:1019100001900D928A95E1F767CFC8010E94660990
:10192000882309F464CFEE2009F461CF8091450249
:10193000803288F020913F02309140023987288719
:101940009B868A86909143029C871D868E87CE0156
:1019500008960E94FF0887E0F801AFE3B2E001902B
:101960000D928A95E1F70E944A0B0E94390B42CFF3
:1019700090914502292F207FA1F4682D9A8A898AA7
:10198000A6017A899E2D0E9473098FE392E00E943E
:10199000FF0887E0F50111928A95E9F70E94390B5B
:1019A00061CF882309F482CF809140028D1110C04D
:1019B00080913F02C8120CC0E1100AC09683C80192
:1019C0000E94FF0887E0F50111928A95E9F76ECF32
:1019D000C8010E946609882309F409CFEE2009F4A2
:1019E00006CF80914502803208F4B5CF20913F02A6
:1019F000309140023A8329839C828B8290914302EA
:101A00009D831E828F83CE010196A3CF4F3A51054D
:101A1000B8F5882309F4EECEFE2CEE2009F4E7CECB
:101A2000809140028D111EC080913F02C8121AC0E1
:101A30008091450280FD0DC0982F907F51F08683E4
:101A4000903F09F45ECF982F907F905F8F70892B25
:101A500057CF87E0F801AFE3B2E001900D928A958D
:101A6000E1F724CFC8010E946609811174CF8091EB
:101A70004502816080934502C8010E94FF0816CF8D
:101A8000682D9A8A898AA6017A899E2D0E947309F7
:101A900087E0F50111928A95E9F7A6CEAEE0B0E0B5
:101AA000E4E5FDE00C94882D288739874A875B8719
:101AB0006C877D878E87CE0108960E94C40B882391
:101AC000B1F06C85662341F0288539854A855B85B0
:101AD0007D858E850E947D0917E080910502909199
:101AE000060289133DC02E96E3E00C94A42D87E0F6
:101AF000FE013896DE01119601900D928A95E1F76C
:101B00008C85882349F32091060230E0C9010196B3
:101B100087709927409105024817190699F097E0B8
:101B2000929FD001939FB00D1124A95FBD4FFE017C
:101B3000319601900D929A95E1F7809306020E94EA
:101B4000170BCACF0E944609109206021092050296
:101B500087E0EFE3F2E0DF011D928A95E9F7BCCF61
:101B6000819FC0011124895F9D4F0E94C40B88236F
:101B700009F4B9CFE09105021E9FF0011124E95F3D
:101B8000FD4F20813181428153816481758186813D
:101B90000E947D098091050290E001968770992747
:101BA000809305029ACF682F8091060190910701DA
:101BB0000E9424250895682F8091060190910701C5
:101BC0000E942725089580910601909107010E94A7
:101BD0002A25089580914E028695869586950895CA
:101BE00080914E028770089590914E02977081E027
:101BF00009F480E0089580915A02089590915A0264
:101C0000892B80935A020895809590915A029823C7
:101C100090935A02089510925A0208959091590291
:101C2000892B8093590208958095909159029823A9
:101C3000909359020895109259020895809150028C
:101C4000089508950E94210E089590914F02292F22
:101C5000282331F08095892380934F020E94220E21
:101C6000089508950E94310E089590915002292FF1
:101C70002823281729F0982B909350020E94320EA7
:101C8000089590915002292F282331F080958923BF
:101C9000809350020E94320E08959091070392FFA4
:101CA00008C090915002981721F0809350020E9432
:101CB000320E089580915002882329F0109250022C
:101CC00080E00E94320E0895CF93DF93E0910601E9
:101CD000F091070180915A028083E0910601F09112
:101CE0000701808190915902892B80839091500245
:101CF000992381F0E0910601F09107018081892B01
:101D0000808380910601909107010E94DC2481115B
:101D10000E945A0EC0910601D091070148E050E0A0
:101D200066E472E0CE010E944F2E892B59F088E0C4
:101D3000FE01A6E4B2E001900D928A95E1F7CE0192
:101D40000E947924DF91CF91089508950E94A50EF5
:101D500008959091070392FF11C098E0899F900128
:101D60001124622B60934E020E94CC0980914E0296
:101D70008695869586950E94A60E08950E94CC09A8
:101D8000089510924E0280E00E94A60E0895909150
:101D90004E028095892380934E02282F277069F484
:101DA000891759F09091070392FF07C08695869591
:101DB00086950E94DC090E94C10E08959091070348
:101DC00092FB222720F9281769F080FB92F9909363
:101DD000070380910603909107030E94260F82E07B
:101DE0000E94C70E08958091070382FB882780F91F
:101DF00091E089270E94DE0E089581E00E94DE0EA8
:101E0000089580E00E94DE0E08956FEF7FEF90E06E
:101E100080E00E94A72E089590E080E00E94732E3B
:101E200021E0863E9E4F09F020E0822F089582E057
:101E300090E00E94652E089583E090E00E94652E58
:101E4000089584E090E00E94732E0895BC0184E020
:101E500090E00E94A72E0895AB01BC018FE090E0B6
:101E60000E949B2E0895AB01BC0183E190E00E948B
:101E70009B2E089560E070E0CB010E94330F08951F
:101E800060E070E0CB010E942C0F0E943A0F089591
:101E9000A8E0B0E0EEE4FFE00C94892D66EE7EEF62
:101EA00090E080E00E94A72E60E082E090E00E9437
:101EB000892E60E083E090E00E94892E1092040257
:101EC0001092030260E074E184E090E00E94A72E8B
:101ED00060E086E090E00E94892E6FEF87E090E05E
:101EE0000E94892E40E050E0BA0188E090E00E9414
:101EF0009B2E60E084E290E00E94892E60E087E102
:101F000090E00E94892E60E08CE090E00E94892E93
:101F100060E08DE090E00E94892E19821A821B8277
:101F20001C821D821E821F82188648E050E068E1F4
:101F300070E0CE0101960E94792E40E050E0BA0197
:101F400080E290E00E949B2E0E94400F2896E2E0E3
:101F50000C94A52D0E94480F0895682F8EE090E004
:101F60000E94892E0895A6E0B0E0E9EBFFE00C9412
:101F7000872D0E94E0258C0180915B0290915C028C
:101F80008017910781F019821A820E94E025682F3C
:101F900049815A81792F80E090E00E949405109346
:101FA0005C0200935B022696E4E00C94A32D0E9451
:101FB000EC25609368027093690280936A029093A3
:101FC0006B02609364027093650280936602909343
:101FD00067020895089508950E94EB0F08950895EB
:101FE0000E94EF0F089581E0089582EA92E10E9435
:101FF00062240E94EA0F0E94EC0F08950E94F30FE2
:1020000008950E94FE0F0895089508950E940410F7
:102010000E94051008950E94A5120E946805089567
:102020000E94D7250E946C130E940B100E94081D6D
:102030000E94F00F08950E9472210E947423089557
:10204000A6E0B0E0E6E2F0E10C94802D0E94F30FF0
:1020500081110EC00E94B30F0E941B100E945E1DD2
:102060000E949E150E947B052696EBE00C949C2D09
:102070000E9482138DE5A82E82E0B82E750110E033
:10208000F70101917F01812F0E94CB121F5F173052
:1020900009F441C00817A1F380916C0281FD0E94F0
:1020A000D1120E940110C82E10E099249394812F20
:1020B0000E94CB12082FF50181915F01081729F1C9
:1020C000D02ED826F12CEE24E3948D2D8E21A9F06C
:1020D000CC2099F0F9821A830E94E0259C838B839F
:1020E0009D8291E0802F8E2109F490E049815A81F0
:1020F0006B817C818D810E949405F394EE0CF6E057
:10210000FF12E3CFF501319700831F5F173079F697
:102110000E94D70FA1CF0813BFCF9CCF1F93CF939F
:10212000DF930E94BD11EC01C11580E5D807F0F5E1
:10213000C11580E4D80708F09CC0C03ED10520F549
:10214000CD3CD10508F082C0C83AD10578F4C53A33
:10215000D10508F073C0C130D10519F1209709F1FC
:10216000C430D105F0F4D0E0C0E01BC0C33CD105C1
:10217000D0F7C85AD0E0CC0FDD1FC859DE4F099008
:10218000D881C02DD4640DC0C11580E2D80708F0F5
:10219000D1C0C11581E0D80708F05AC0C83ED105AA
:1021A00010F7CE01DF91CF911F910895C03682E5DF
:1021B000D80718F5C03482E5D80708F06BC0C032E4
:1021C00082E5D80708F05FC0C11582E5D80708F49A
:1021D00097C02C2F2695269580E2289F90011124E8
:1021E0008C2F8370C1E0D0E002C0CC0FDD1F8A9538
:1021F000E2F7C22BD32BDD68D4CFC03A82E5D807F3
:1022000060F4C03882E5D80708F459C0CF71D0E037
:10221000DC2FCC27C46FD06AC4CFC03C82E5D8077E
:1022200008F462C0C03E82E5D80708F09CCFDC2FDE
:10223000CC27CC27DF71C06FD06AB3CFC55AD0E0AE
:10224000C256DE4FC881D0E0D064ABCFD065A9CFF5
:102250008D2F0E945F12182FCE0199270E94BD1169
:10226000C12FD0E0DC2FCC27CC27DF71C82BD92B96
:1022700098CFCE0199270E94BD11CC27DF70C82BC3
:10228000D92BD06A8ECFCF71D0E0DC2FCC27C16F95
:10229000D06A87CF2C2F26952695277080E2289F1D
:1022A000900111248C2F8370C1E0D0E002C0CC0FCC
:1022B000DD1F8A95E2F7C22BD32BDC6872CF2C2F5F
:1022C00026952695277080E2289F900111248C2F57
:1022D0008370C1E0D0E002C0CC0FDD1F8A95E2F729
:1022E000C22BD32BDA685DCF8C2F8F710E945F12C7
:1022F000C82FD0E0DC2FCC27CC27DF71D06251CFA4
:102300008C2F8F710E945F1255E0D695C7955A9514
:10231000E1F7CF70D0E0DC2FCC27282F30E084FF0E
:1023200005C044E0220F331F4A95E1F7C22BD32B9F
:10233000D06937CF8D2F8F710E945F12182FCE0179
:1023400099270E94BD11C12FD0E0DC2FCC27CC27CC
:10235000DF71C82BD92BD2CF462F773030F46630BF
:1023600020F4672F0E948103089590E080E0089593
:102370000E94AC110E948E10089582389105B9F127
:10238000B0F48133910509F47DC048F48932910598
:1023900009F46DC08A32910509F47BC00895853334
:1023A000910509F45FC08933910509F10895833ED1
:1023B0009105D9F138F4803E910529F1823E9105CD
:1023C00079F10895863E9105D9F1873E910509F48A
:1023D0003EC0843E910541F52091070321FF24C0B2
:1023E0008091060384FD19C087EE90E00895209146
:1023F0000603237009F05AC02091070323FF14C07D
:1024000089E290E008952091060320FD38C03091C4
:10241000070330FF09C024FF43C090E080E0089527
:102420002091060322FDF7CF08952091060322FD97
:102430003AC03091070330FD39C024FFF5CFEDCF0E
:102440002091060323FFF0CF24FDE7CFCDCF2091CD
:10245000060323FD2EC03091070331FFEECF84EE3B
:1024600090E008952091060325FFDECFC9CF20918B
:10247000060325FD21C02091070323FFD5CF89E363
:1024800090E0D2CF2091060326FFCECF8AE290E0E3
:1024900008952091060326FFC7CF81E390E00895B9
:1024A00083EE90E0089582EE90E0089580EE90E053
:1024B000089586EE90E0089585E390E00895909168
:1024C000060392FF06C0282F28712830F9F4877F71
:1024D000846093FF06C0282F28712831F1F4877E8D
:1024E00084612091070320FF06C0382F38713830EF
:1024F000D9F4877F816021FF06C0282F28712831F9
:10250000D1F4877E816194FD877E0895282F247100
:102510002430F9F68B7F8860DCCF282F247124319A
:1025200001F78B7E8861DDCF382F3171313019F79B
:102530008E7F8860E0CF282F2171213121F78E7E98
:102540008861E1CF80E0089508950E940C0F811109
:1025500002C00E94AA0F0E94170F80936C020E9473
:10256000210F90930703809306030E94A4120E94F8
:102570001C0F90E00E949309809101029091020249
:102580000E94B109089508950E94C3120895089504
:102590000E94C7120895E82FF0E0E15FFC4F8081B0
:1025A0000895089580EA8A95F1F7089500C0089586
:1025B0000E94D2120895F894E82FE295EF70F0E0AF
:1025C00031A1282F2F7081E090E001C0880F2A955B
:1025D000EAF7982F9095932391A392A1892B82A338
:1025E00078940895CF93DF93C7EAD1E089918F3F24
:1025F00011F00E94DB1281E0CE3AD807B9F7C1EAA8
:10260000D1E089918F3F11F00E94DB1281E0C73A3F
:10261000D807B9F7DF91CF910895B0E0A0E0E3E1EA
:10262000F3E10C94832DEC01D62E062F10E0C801A7
:1026300089559E4F7C01FC0180818F3F09F445C084
:10264000F894E82FE295EF70F0E091A18F7021E00F
:1026500030E001C0220F8A95EAF7892F822B81A3EF
:1026600082A12095282322A378940E94D612E1EA21
:10267000F1E047EA51E031E0C12C21912F3F51F1C7
:10268000A22FA295AF70B0E090968C9190E02F7041
:1026900002C0959587952A95E2F780FD1BC0832F90
:1026A000C82A330F4E175F0741F7F70180818F3F2C
:1026B00011F00E94DB1261E0C11001C060E08D2DBD
:1026C0000E94D812C00FD11FC882CDB7DEB7E8E094
:1026D0000C949F2D80E0E4CF0E94F21287E0EFE09F
:1026E000F3E0DF01982F1D929A95E9F7E8E0F3E017
:1026F000DF011D928A95E9F787E00E94BD130E94D1
:10270000C4120895A7E0B0E0E8E8F3E10C94862D48
:102710008E010F5F1F4F87E0F80111928A95E9F74C
:10272000F12C6F2DC8010E940D13F394F7E0FF12F6
:10273000F8CF47E050E0B80188E093E00E944F2EC8
:1027400021E0009709F420E0892B41F087E0F801AF
:10275000A8E0B3E001900D928A95E1F747E06FE0C1
:1027600073E088E093E00E94BE13182F0E94C81205
:10277000812F2796E5E00C94A22D0895CF92DF9249
:10278000EF92FF920F931F93CF936C017B01042F65
:10279000222349F081E080936F020E94E02590930C
:1027A0006E0280936D02C0916F02C1110AC0C0E039
:1027B0008C2FCF911F910F91FF90EF90DF90CF90D2
:1027C000089580916D0290916E020E94F825059700
:1027D00070F310E0A801B601C7010E944F2E892BAB
:1027E00041F0A801B601C7010E945C2E10926F0251
:1027F000DFCFC0E0FBCF0E94B4270E9410100E94E0
:10280000C12708950E94C6270E9420100E94E02739
:1028100008950E9479250E949A270E94F50F0E9430
:10282000FB130E9402140E940610FBCF80917602D7
:1028300080FF0DC060910D0170E0660F771F60385A
:10284000710570F56115710569F1862F089581FF95
:1028500007C060910D0184E0689FB0011124EFCFA3
:1028600060910D0182FD0AC0809175028823A9F054
:1028700020910C0160910D01821710F088E0ECCFDF
:10288000869FC001112433E0880F991F3A95E1F724
:10289000622F70E00E940C2DD2CF68E070E0D5CF9F
:1028A0008FE7089581E008958091760280FF0CC043
:1028B0006091090170E0759567957595679561154B
:1028C000710549F1862F089581FF06C060910901C5
:1028D00070E075956795F3CF6091090182FD0BC09B
:1028E000909174029923A1F06091080180910901EF
:1028F000961738F0682F70E06038710500F38FE7A5
:102900000895899FC001112470E00E940C2DF4CF1E
:1029100061E070E0D7CF81E008958D3C31F40E94F2
:102920001614819580937A0208958E3C19F40E94C2
:102930001614F8CF8F3C31F40E94161481958093C1
:1029400079020895803D19F40E941614F8CF893D4C
:1029500029F40E94541480937B0208958A3D21F447
:102960000E9454148195F7CF8B3D31F40E9454148A
:10297000819580937C0208958C3D19F40E94541433
:10298000F8CF9FE2980F983070F4815D990B21E0A9
:1029900030E001C0220F8A95EAF780917802822BFD
:1029A0008093780208958D3D31F4809176028160A4
:1029B0008093760208958E3D21F4809176028260A4
:1029C000F7CF8F3DB9F7809176028460F1CF4091C7
:1029D00079028D3C59F480917A0287FF0DC01092E4
:1029E0007A0241110BC01092750208C08E3C81F42E
:1029F00080917A0218169CF3442381F080917B0227
:102A000090917C02892B09F05AC0109274020895AB
:102A10008F3C49F447FFF0CF1092790280917A02FF
:102A20008111ECCFE0CF803D19F41416ACF3E4CF64
:102A300090917B02893D29F41916F4F610927B02DD
:102A4000DBCF8A3D19F497FFD7CFF8CF90917C0266
:102A50008B3D29F497FFD0CF10927C02CDCF8C3DD7
:102A600019F41916CCF3C8CF9FE2980F983090F460
:102A7000815D990B21E030E0B90102C0660F771F3C
:102A80008A95E2F7CB018095909178028923809313
:102A90007802B2CF8D3D31F4809176028E7F8093A3
:102AA0007602AACF8E3D21F4809176028D7FF7CFFA
:102AB0008F3D09F0A1CF809176028B7FF0CF0895F2
:102AC0000E94E0259C019091790280917A02982BD6
:102AD00021F0309373022093720290917B028091D7
:102AE0007C02982B21F0309371022093700287E7CB
:102AF00092E00E948424089586E0E7E7F2E0DF0197
:102B00001D928A95E9F71092750210927402109244
:102B100076020895FC01828181110EC083818111AA
:102B20000BC08481811108C091E08581811101C0B1
:102B300090E0892F8170089581E0FCCFA6E0B0E09D
:102B4000E4EAF5E10C94882D86E0E7E7F2E0DE01A7
:102B5000119601900D928A95E1F7109279021092E8
:102B60007A0210927B0210927C028B819C81892BCD
:102B700089F080917202909173020E94F825AC0155
:102B8000909175029923C9F180910E018417150661
:102B900008F440C08D819E81892B91F08091700254
:102BA000909171020E94F825AC01909174029923D2
:102BB00009F471C080910A018417150608F479C0E0
:102BC000BE016F5F7F4F87E792E00E943125811140
:102BD00005C087E792E00E948A1581110E94601566
:102BE00086E0FE013196A7E7B2E001900D928A954A
:102BF000E1F72696E3E00C94A42D20910F018AE0E2
:102C0000289F900111242417350720F69F5F909389
:102C1000750202C09F3FD1F71B81112359F00E941A
:102C200016149FEF11160CF491E0899F802D11244A
:102C3000809379021C81112359F00E9416149FEF92
:102C400011160CF491E0899F802D112480937A0253
:102C500030917902332309F49DCF20917A02222307
:102C600009F498CF45EB3403C0011124992359F09E
:102C70009093790245EB240390011124332339F01A
:102C800030937A0287CF81E080937902F3CF81E09D
:102C900080937A027FCF20910B018AE0289F9001D8
:102CA00011242417350708F08BCF9F5F909374028F
:102CB00002C09F3FD1F71D81112359F00E94541487
:102CC0009FEF11160CF491E0899F802D11248093C1
:102CD0007B021E81112359F00E9454149FEF11169C
:102CE0000CF491E0899F802D112480937C02309117
:102CF0007B02332309F464CF20917C02222309F460
:102D00005FCF45EB3403C0011124992359F0909310
:102D10007B0245EB240390011124332339F03093D7
:102D20007C024ECF81E080937B02F3CF81E08093E1
:102D30007C0246CFEF92FF920F931F93CF93DF93C6
:102D4000EB01E82FD1110EC0442321F0F0E0E65949
:102D5000FC4FE4916E2F7E2F8E2FCDB7DEB7E6E0CD
:102D60000C94A12D0D2F10E0282F30E0442329F0E2
:102D700026593C4FF901249130E0F6E0CF9FC00185
:102D80001124EFEFF0E0BF010E94F82CAB018C2F73
:102D900090E0880F991FA5E5A49FB001A59F700D35
:102DA0001124861B970B982F990F980FBF01601B5A
:102DB000710B629FD001639FB00D729FB00D112403
:102DC0008B2F9D9FB0011124672F7727EF01C61B22
:102DD000D70BBE01629FE001639FD00D729FD00DA3
:102DE00011247F01E91AF108E09EB001E19E700D07
:102DF000F09E700D1124672F7727E61BF70BE29FDB
:102E00008001E39F100DF29F100D1124E12F722F0E
:102E10004230510599F048F44115510569F04130AF
:102E2000510581F0EB2F8D2F07C04430510569F01B
:102E300080F046305105B1F76E2F8FCFE22F7B2FF8
:102E4000812FFACFE22F7D2FF7CFEB2F822F712F1B
:102E5000F3CF7B2F822FED2FEFCF41E00E949A1608
:102E6000089508950E942D170895CF93DF93762F2C
:102E7000E901682F842F0E943217798368838A833F
:102E8000DF91CF91089580911603982F9E7F29F4AA
:102E9000817082608093160308958635E8F381700F
:102EA0008465F8CFB0E0A0E0E8E5F7E10C94832D6D
:102EB00088E090E00E946D2E6B017C0184E290E03E
:102EC0000E94652E282F30E040E050E060E070E086
:102ED00080E090E000E20E94B02DB22FA32FF42FEB
:102EE000E52FD62FC72F97018601BC29A12BFE29DC
:102EF0005E2F532B2B2F3A2F4F2F6D2F7C2FCDB7BB
:102F0000DEB7E8E00C949F2DB0E0A0E0EAE8F7E13E
:102F10000C947F2D49015A016B017C010E944317DB
:102F20008401A4016A2D7B2D88E090E00E949B2EF5
:102F300094014A2D5B2DB601C70100E20E94CB2D02
:102F4000622F84E290E00E94892ECDB7DEB7ECE0DC
:102F50000C949B2DE6E1F3E083E0808311828FEFF8
:102F6000828383831482758123E030E04FEF5FEF2B
:102F700060E0868197810E948417089580911603EE
:102F800080FF02C08695089580E0089590911A030D
:102F9000933018F49F5F90931A03882391F0209147
:102FA0001603309117034091180350911903609153
:102FB0001A0370911B0380911C0390911D030E94C2
:102FC0008417089581E00E94C617089590911A030E
:102FD000992319F0915090931A03882391F020912E
:102FE0001603309117034091180350911903609113
:102FF0001A0370911B0380911C0390911D030E9482
:103000008417089581E00E94E617089570E00E94F9
:10301000891E0895609114018091160380FF0BC0F2
:103020008091130123E0829FC0011124825E9C4F96
:103030000E9406180895809115019091160123E0D1
:10304000829FF0011124E25EFC4F891748F711823C
:10305000108212828F5F3396F8CF9091160390FF03
:103060000EC0909115012091160133E0939FF0015D
:103070001124E25EFC4F921718F00E940A1808957E
:103080008183608342839F5F3396F5CFA3E0B0E0F6
:10309000ECE4F8E10C94892D9091160390FF0AC09E
:1030A0009E012F5F3F4F0E9435174B8169818A81B6
:1030B0000E942D182396E2E00C94A52DCF93DF9368
:1030C000EC01EC81F0E0EB59FD4F4491E6E1F3E0D7
:1030D000628181810E9446188C818F5F8C83DF9191
:1030E000CF910895CF93DF93EC01E6E1F3E04381C4
:1030F00062818C810E9446188C818F5F8C83DF9166
:10310000CF910895A3E0B0E0E8E8F8E10C94872DB2
:103110008C0180917D0281110AC09E012F5F3F4F7B
:103120004FEF6FEF0E9435178A8180937D02F8017F
:103130006481613069F080917D0240E0662361F036
:1031400040E0623011F440917D0280E060E004C014
:1031500060917D0240E080E00E942D18F80184819A
:1031600090E0019663E070E00E940C2D848323962A
:10317000E4E00C94A32DA3E0B0E0E1ECF8E10C94C2
:10318000822D082FD62EF42EC22E9091160390FF7A
:103190002EC0E92FE695AE2FB0E0A255BE4F8C9120
:1031A0008093C0029E7F923031F59E012F5F3F4F8A
:1031B000802F0E9435174B8169818A810E942D18CA
:1031C00000931703D0921803F0921903CC2079F0E2
:1031D0002091160360911A0370911B03302F4D2D1F
:1031E0005F2D80911C0390911D030E9484172396EC
:1031F000E9E00C949E2D823019F4F0901903E0CF91
:10320000863019F400911703DBCF8930D9F3893167
:10321000B9F6E9516E2F6170B62EE695F0E0EB59E4
:10322000FC4F1491E12C60911701E61618F00E94F2
:103230000A18C6CFE19EC001112470E00E94F82C4C
:10324000802FB11014C0860F20911501622F6E0DD2
:103250007727771F9B01220F331F260F371F225E10
:103260003C4F4F2D6D2D0E943517E394DCCF861B0C
:10327000EBCFE6E1F3E09181282F4381628180E189
:10328000890F0E94BB18089581E00E9439190895A2
:10329000E6E1F3E09181282F4381628180EF890F7D
:1032A0000E94BB18089581E00E9448190895E6E144
:1032B000F3E0628120E1620F08F46FEF282F438171
:1032C00081810E94BB18089581E00E9457190895DA
:1032D000E6E1F3E0628120E1621B08F460E0282F60
:1032E000438181810E94BB18089581E00E94681982
:1032F0000895E6E1F3E0438120E1420F08F44FEF47
:10330000282F628181810E94BB18089581E00E946C
:1033100079190895E6E1F3E0438120E1421B08F4C6
:1033200040E0282F628181810E94BB18089581E0CE
:103330000E948A19089520E00E94BB180895EF9218
:10334000FF921F93CF93DF93EC0110E0EE24EA94F9
:10335000F12C60911701161770F00E940A189A81DB
:103360008C8190FF27C08F5F8C83DF91CF911F915D
:10337000FF90EF90089520911501422F410F55279E
:10338000551FCA019A01220F331F280F391F225ED1
:103390003C4F70E0C7010E940C2D962F8C8140910C
:1033A000190360911803199F800D11240E9435178D
:1033B0001F5FCFCF8150D8CFB0E0A0E0E2EEF9E1BF
:1033C0000C94812DFC0182810FEF80FF01E010E061
:1033D0004BE0A42E80911701181798F00E940A184C
:1033E00080917F02013009F04FC0811102C08091AD
:1033F0001701815080937F02CDB7DEB7EAE00C94CD
:103400009D2DC0911501C12ED12CCC0DDD2DD11DCE
:10341000CE01880F991FC80FD91FC25EDC4F1982D9
:1034200018821A8234E0E32EF12CB12C80917F02B5
:103430008B0D8C301CF16A2D0E94EA2C892F082EEE
:10344000000C990BC816D90691F4809119038E9D32
:10345000A0018F9D500D1124559547955595479581
:103460009E0160911803809117030E943517B00EDA
:10347000F1E0EF1AF108D1F61F5FACCF87FFDFCF85
:1034800090911701890FDBCF90E0019660911701B1
:1034900070E00E940C2DAECF0F931F93CF93DF935C
:1034A000809115019091160123E0829FF001112473
:1034B000E25EFC4F891740F1C0E0D3E06091170154
:1034C000C61740F10E940A182091110180917E02D6
:1034D000820F80937E0290911201920F90931201BD
:1034E000191654F4082E000C990B40911701415005
:1034F000550B841795071CF0219520931101DF913E
:10350000CF911F910F9108951182108212828F5FC7
:103510003396D0CF0C2F10E070E0C8010E940C2D24
:1035200020911501820F482F50E020917E02022E3B
:10353000000C330B02171307BCF020911201022E6E
:10354000000C330B201731077CF08D9F9001112464
:10355000225E3C4F4091190360911803809117033C
:103560000E943517CF5FAACFFA01EE0FFF1FE40FBD
:10357000F51FE25EFC4F118210821282F3CFB0E0A1
:10358000A0E0E5ECFAE10C947F2DEC014C81042FD6
:1035900010E09801D8010E94502D9B01AC010E94BF
:1035A000662D4B015C01E0E2F0E0E01BF10BA5E5CC
:1035B000B0E0AC019B010E94662D6B017C019F0174
:1035C000DF010E94482D9B01AC010E94712D9B01DF
:1035D000AC01280D391D4A1D5B1DC701B6010E94B3
:1035E000202DF22E822F90E039E23F1520F143E0AA
:1035F000249F9001112435952795122F109500E0F6
:1036000085E5E82EEF1880911701081718F10E9440
:103610000A189C8181E0992319F0903219F48FEFF8
:103620008093100180911001890F8C83CDB7DEB794
:10363000ECE00C949B2D25E530E0B901681B790B7B
:103640009B01220F331F260F371F37FFD4CF2F5F69
:103650003F4FD1CF8E2D01FD8F2D20911501622F6F
:10366000600F7727771F9B01220F331F260F371F0D
:10367000225E3C4F412F609118030E9435170F5F67
:10368000C2CF0F931F93CF93DF93EC0110E000E0C4
:10369000909117019017110609F06CF40E940A1816
:1036A0008C8190E00196817099278C83DF91CF9176
:1036B0001F910F91089520911501A801420F511DEE
:1036C0009A01220F331F240F351F225E3C4F4C817D
:1036D000609118038091170396959017110651F089
:1036E0004CF0442349F0409119030E9435170F5FB5
:1036F0001F4FCECF4423B9F340E0F7CFB0E0A0E0B6
:10370000E4E8FBE10C947B2DFC016280448081E0C5
:103710008483E5E6F2E07490E4EEF2E0E491C09197
:103720001903C695C158D0E0CC0FDD1FCD2FDD2782
:10373000812C75E0972EAA24AA94B12C55245A9472
:10374000E719EE2EF12C80911701881638F00E94AF
:103750000A18CDB7DEB7E0E10C94972DC82CD12C18
:1037600082E0861568F09C9CF0019D9CF00D112470
:10377000E058FD4F80911703808380911803818367
:10378000411023C09C9CF0019D9CF00D1124E05839
:10379000FD4F1382128220911501C601820F911DE7
:1037A0009C01220F331F280F391F225E3C4F9C9C27
:1037B000F0019D9CF00D1124E058FD4F4281618184
:1037C00080810E9435178394BECF9C9C80019D9C74
:1037D000100D112400581D4FF80183818823F1F04A
:1037E00081508383859DC0011124648170E00E9413
:1037F000F82CFB01FF27EB59FD4F8491E82FE719C7
:10380000E59DC0011124B7010E94F82C8091190395
:10381000689FB0011124F8017283BDCF0E94322E3F
:10382000B5010E940C2D8C179D070CF0B4CFF2E06F
:10383000F61598F40E94322EB5010E940C2DF80165
:1038400080830E94322E209118032695622F70E00B
:103850000E940C2D280FF80121839C9CF0019D9C57
:10386000F00D1124E058FD4F128280911903893C1C
:1038700058F088EC9C9CF0019D9CF00D1124E058C0
:10388000FD4F8483838387CF8431A0F784E1F2CF17
:10389000E6E1F3E020812E7F208331814281538154
:1038A00064817581868197810E9484171092C1027C
:1038B0000E940A180895E6E1F3E080818E7F8083FC
:1038C0001092C1020E940A1808951092C1028091BC
:1038D000BE0281110AC081E08093BE02809116036E
:1038E00081708093BD020E945B1C08956091160355
:1038F000669570E04BE050E088E191E00E94422E36
:10390000892B19F481E08093C1020E94E0259093F5
:10391000B8028093B70208959091160390FF33C0C8
:103920009170811131C0926090931603662391F0DB
:1039300020911603309117034091180350911903F9
:1039400060911A0370911B0380911C0390911D03D9
:103950000E94841760911603669570E04BE050E07A
:1039600088E191E00E94422E892BA9F01092C102B9
:1039700081E08093BA02409119036091180380910D
:1039800017030E949B1908958B3210F09465CCCFD9
:10399000880F982BC9CF0E94761CEACF682F909190
:1039A0001603969581E0890F8B3208F081E00E9422
:1039B0008C1C089581E00E94CE1C0895682F909180
:1039C000160396958FEF890F09F48AE20E948C1CEA
:1039D000089581E00E94DE1C089561E00E948C1C25
:1039E0000895E6E1F3E080818160808386950E94FE
:1039F000ED1C08958091160380FF03C00E94481CAF
:103A000008950E94F11C089560E00E948C1C0895A6
:103A10008091BF0281113EC00E940C0F811104C031
:103A20000E94AA0F0E94AA170E9452172093160301
:103A300030931703409318035093190360931A03AC
:103A400070931B0380931C0390931D032E7FA1F49E
:103A50000E94AA170E94521720931603309317034F
:103A6000409318035093190360931A0370931B0338
:103A700080931C0390931D030E9443171092C10270
:103A80008091160380FF03C086950E94041D81E08B
:103A90008093BF020895E6E1F3E080818160808336
:103AA00086950E94041D08951092BE028091BD0269
:103AB00081110E944B1D0E94761C08950F931F9345
:103AC000CF93DF938091C1028823B9F18091C00226
:103AD000E0911603E695E81BE093B902823091F578
:103AE000F0E0EF59FD4FE491CE2FD0E00EE518E164
:103AF0008091BA02882361F01092BA020E94E025F8
:103B00009093B8028093B7021092BC021092BB024D
:103B10000E94E025E091B702F091B8028E1B9F0B46
:103B20008F3F9F4750F4EC0FFD1FF093B802E093D6
:103B3000B70287EB92E0F8010995DF91CF911F91D1
:103B40000F910895863049F4F0E0E25AFD4FE49178
:103B5000CE2FD0E002E718E1CBCF893051F4E695C3
:103B6000F0E0E55AFD4FE491CE2FD0E00FE919E1E6
:103B7000BFCF8F3051F4E695F0E0E85AFD4FE49165
:103B8000CE2FD0E00CED19E1B3CF853149F4F0E050
:103B9000EB5AFD4FE491CE2FD0E00CE41AE1A8CF10
:103BA000C8E2D0E00FEB1AE1883109F4A1CF8332EB
:103BB00039F4E3E5F2E0C591D49102E818E198CF39
:103BC000C4EFD1E001E41BE1843209F491CFC0EDF0
:103BD000D7E001E317E1853209F08ACF8E2F63E049
:103BE0000E94DE2CE92FF0E0E05BFD4FE491CE2F48
:103BF000D0E00EE71BE17CCFFA01811101C0FB018F
:103C000009950895CF93DF93C82FD62F0E94BE1732
:103C10008C1748F00E94BE178D1728F40E94DA1CFA
:103C2000DF91CF9108958C2F0E94ED1CF9CF1F9347
:103C3000CF93DF93EC01FB011581111110C00E949D
:103C4000FB0D8272FE01E052F847E531F10508F004
:103C50005EC0E651F14D0C94422D0E94FA1C812F5A
:103C6000DF91CF911F91089549EE5CE16AED7CE10F
:103C70000E94FC1DF4CF4AED5CE169EE7CE1F8CFD7
:103C800043E559E164E479E1F3CF44E459E163E5C4
:103C900079E1EECF45E759E164E679E1E9CF44E621
:103CA00059E165E779E1E4CF47E959E166E879E16F
:103CB000DFCF46E859E167E979E1DACF42E058E140
:103CC00062EE77E1D5CF42EE57E162E078E1D0CF06
:103CD00081E00E94ED1CC3CF65E082E00E94021EDD
:103CE000BECF68E086E0FACF6EE089E0F7CF64E10E
:103CF0008FE0F4CF67E185E1F1CF88E1EACF62E2BE
:103D000089E1ECCF83E2E5CF6AE285E2E7CF11E01B
:103D1000A6CF539A4BB1477F5BB15860EFB7F89489
:103D20009B01220F331F260F371F280F391F28171B
:103D3000390741F4EFBF8FE594E00197F1F700C038
:103D400000000895DC016D91CD0178E05BB90000C1
:103D500000C067FF4BB9660F000000C000C000C084
:103D60004BB900C07A9591F7E2CFCF93DF93EC0186
:103D7000FB018581882309F4D2C09E01305723328C
:103D8000310508F0B2C00E94210F90930703809381
:103D90000603FE01E150F047E232F10520F4E15064
:103DA000F14D0C94422D80910603816080930603AF
:103DB00093C0809107038860809307038DC0809132
:103DC00006038260F3CF809106038460EFCF809179
:103DD00006038860EBCF809107038160EDCF80916F
:103DE00007038260E9CF809106038061DFCF809175
:103DF00006038062DBCF809106038064D7CF0E94E8
:103E00004609809106038068D1CF809106038C60BB
:103E1000CDCF809107038360CFCF809106038E7F43
:103E2000C5CF80910703877FC7CF809106038D7F21
:103E3000BDCF809106038B7FB9CF80910603877F2A
:103E4000B5CF809107038E7FB7CF809107038D7F19
:103E5000B3CF809106038F7EA9CF809106038F7D1B
:103E6000A5CF809106038F7BA1CF0E944609809148
:103E700006038F779BCF80910603837F97CF809136
:103E800007038C7F99CF8091060382FB992790F9D5
:103E900021E0922790FB82F990FB83F987CF8091F4
:103EA0000703982F909591708E7F892B90FB81F955
:103EB00083CF90910603892F8F7B96FF806476CF06
:103EC0000E94460990910603892F97FB87F9805835
:103ED0006DCF81E00E94AD0F8091060390910703A2
:103EE0000E94260F0E94460980E0DF91CF9108953D
:103EF00080E0F0CF90910603892F8F7E94FF806140
:103F000055CF90910603892F8E7F90FF81604ECF11
:103F100090910703892F877F93FF88604DCF81E0C1
:103F2000E4CFB0E0A0E0E7E9FFE10C94842DE82FB6
:103F3000F0E0E659FB4FD490282F2695269526953C
:103F400030E0F901E65FFA4F0491877010E0082E27
:103F500002C0159507950A94E2F701701127F9013F
:103F6000E650FB4FE490F12C082E02C0F594E79444
:103F70000A94E2F791E0E922FF24F901E651FB4FB0
:103F8000C491D0E002C0D595C7958A95E2F7C1707B
:103F9000DD270115110519F081EE0E94D705E11406
:103FA000F10419F086EE0E94D7058D2D0E94DB06E4
:103FB000E114F10419F086EE0E946906011511055D
:103FC00019F081EE0E946906CD2B19F08CE20E9457
:103FD000DB06CDB7DEB7E7E00C94A02DEF92FF92A1
:103FE0000F931F93CF93DF93EC01162F0AE0888184
:103FF000882309F454C0813009F04EC08981813092
:1040000099F47E0122E0E20EF11C8A810E94DB0617
:10401000E7012196812F815050F3EFE9FFE03197BE
:10402000F1F700C00000F7CF823041F47E0182E05A
:10403000E80EF11C8A810E94D705EACF833041F453
:104040007E01E2E0EE0EF11C8A810E946906E0CF5B
:10405000843011F02196DDCF2A81229690E080E015
:10406000AE014F5F5F4F2053330B2A30310548F0CC
:10407000019778F2EFE9FFE03197F1F700C0000017
:10408000F7CF089FB001099F700D1124C901860F59
:10409000971F2981EA01E4CF0E94911FBACFCDB7C3
:1040A000DEB7E6E00C94A12D60E00E94EE1F0895BB
:1040B00080912301877F809323010E9453238111E4
:1040C00003C082E00E94140E8091230184FF06C089
:1040D0008F7E8093230182E00E94FE0D8091230158
:1040E00085FF06C08F7D8093230180E20E94FE0D34
:1040F0000E94640E089580E008958B32910539F096
:1041000040F49C012E5131092A30310558F481E0E8
:1041100008958D32910530F089339105C0F38436CE
:104120009105A9F30E947B200895CF93DF93EC01C2
:10413000662319F082E00E940E0ECE019052811586
:10414000904308F4DD27CE010E94BF03DF91CF9199
:1041500008959C0130522115304308F499270E949C
:10416000D5030895FC0123E0F695E7952A95E1F73C
:10417000EE71FF27EE53FD4F20813181AC014F706E
:10418000552781E090E002C0880F991F4A95E2F719
:10419000662329F0822B932B918380830895809549
:1041A000909582239323F8CFFC0123E0F695E795C1
:1041B0002A95E1F7EE71FF27EE53FD4F8F70992797
:1041C00021E030E002C0220F331F8A95E2F78081A0
:1041D00091812823392381E0232B09F480E008957D
:1041E000EF92FF920F931F93CF93DF93EC017B012C
:1041F0008A018091230182FF5DC02091E902309104
:10420000EA022C173D0719F0209709F053C090914E
:1042100023019B7F9093230161E091FD10C0809169
:10422000EB029091EC02A701481B590B61E08091D1
:104230002401909125014817590708F460E0617046
:104240008091230160FB81F980932301C9010E94C1
:10425000B2200E94FB0D81FF08C080912301806184
:104260008093230182E00E94040E0E94FB0D85FFD3
:1042700008C08091230180628093230180E20E9424
:10428000040E6091230166956170A8018091E90296
:104290009091EA020E9495206091230166956170D9
:1042A000A8018091E9029091EA020E94A9200E944F
:1042B00058200FC0CE010E94D420A801682FCE0143
:1042C0000E94A9208091E9029091EA02C817D907BB
:1042D00071F3F092EC02E092EB02CDB7DEB7E6E0CC
:1042E0000C94A12D8091230182FF19C00E94E0252A
:1042F0002091EB023091EC02AC01421B530B209158
:104300002401309125014217530748F042EE52E054
:10431000BC018091E9029091EA020E94F020089588
:1043200090912301892F8E7F90FF816080932301DC
:104330000E9458200895809123018E7F809323014D
:104340000E945820089560E28091240190912501F7
:104350000E943405FC01019620812032D9F3CF015F
:104360000E94542008958091230181700895CF9276
:10437000DF92EF92FF921F93CF93DF93EC017B01CB
:104380000E94E0256C01F7018581882309F453C060
:104390008091230182FF07C042EE52E0B60190E017
:1043A00080E00E94F020C231FCE7DF0709F440C042
:1043B00000F5C0318CE7D80789F1809124019091F4
:1043C00025010596C131ECE7DE0769F1CE01905277
:1043D00081159043F0F51092EA021092E90211E083
:1043E000812FDF91CF911F91FF90EF90DF90CF90C1
:1043F0000895C431FCE7DF0771F038F0C5318CE770
:10440000D80721F70E949021E1CF8091230181609C
:1044100080932301DBCF0E949B21D8CF8091240180
:104420009091250105979093250180932401CECF8B
:104430000E94A321CBCF809123018F7EC13ED10565
:1044400031F0C53ED105A1F5809123018F7D809388
:1044500023018091230180FFC2CFB701CE010E94CA
:104460007D20F7011581882309F45BC0112309F42D
:1044700052C00E94FB0D182F0E941E0E812B8D7FB3
:10448000E9F01092EA021092E90260E0CE010E9487
:10449000B220A70160E0CE010E9495200E941E0E6E
:1044A0008D7F0E944D0E82E00E94C70E10E098CFD3
:1044B000CE0190528115904360F691CF87E0F701CD
:1044C000A2EEB2E001900D928A95E1F71092E70218
:1044D0001092E5021092E4020E94FB0D182F0E9438
:1044E0001E0E812B9091230181FB91F99093230162
:1044F0000E941E0E8D7F0E944D0ED093EA02C09343
:10450000E902D092EC02C092EB0280912301846018
:1045100080932301C8CFA701B601CE010E94F020ED
:104520005FCF111158CF5BCF8832910548F48E319F
:104530009105A0F4049750F082E00E940E0E0EC088
:104540008D329105C9F320F48A9741F080E00895F7
:104550008C34910519F08D329240C1F781E00895B5
:10456000B0E0A0E0E6EBF2E20C94842DEC017B01DC
:10457000C3378CE7D80769F4FB011581112319F0C3
:104580000E94862310E0812FCDB7DEB7E7E00C94C0
:10459000A02D0E94FB0D082F0E941E0ED82E0E94F7
:1045A0005323811102C011E0EECF0E944A23F7018C
:1045B00015811123C1F30D290D7909F05AC0C034BA
:1045C000F2E5DF0750F5C11582E5D807E0F6C11521
:1045D000E0E4DE07C0F4C115F0E2DF07E0F5C63E17
:1045E000D10589F20E94B321811152C08FEF0E9440
:1045F000140ECE010E949422C82F8823D1F10E946C
:10460000640E1C2FC0CFC11580E5D80758F7F701FD
:104610008681807F41F2DD27E5CFC03EE2E5DE07FF
:10462000A0F4C03CF2E5DF0708F0ADCFC03682E56C
:10463000D807C0F2C03AE2E5DE0708F4A4CFC43BD5
:10464000F2E5DF0709F49FCFCDCFCE0187579C4716
:10465000029740F698CFF7018681807FE1F68D2F93
:104660008F71823191F040F4C1EED0E0823009F4D4
:10467000B9CF0E94672387CF843109F484CFC6EE77
:10468000D2E1863109F4AECFF4CFC5EED0E0AACFA7
:104690008DEFADCF0E94E02588579C4E9093EE029F
:1046A0008093ED0208958091EF020895089580911E
:1046B000EF0281110BC00E940B0E0E945A0E0E9445
:1046C0004A2381E08093EF020E945623089580914F
:1046D000EF02882341F082E20E9429091092EF0242
:1046E00080E00E94562308958091EF02882369F0AC
:1046F0000E94E0252091ED023091EE02821B930B87
:104700008F3F9F4710F40E94672308958091EF0226
:10471000882319F00E94672308950E945723089563
:10472000CF93DF93EB0186319C4711F50E94FB0D7F
:104730009D81992399F08A7A91E009F490E0909311
:10474000F002811109C089E20E94D30D0E94640E1B
:1047500080E0DF91CF91089585E3F6CF8091F0025C
:10476000811104C089E20E94DB0DF0CF85E3FBCF0D
:1047700081E0EFCF0F931F93CF93DF93C42FD22FFE
:10478000FC0185818823C9F04093F3020E94E02553
:104790009093F2028093F10280E28C0F883040F413
:1047A000C77081E001C0880FCA95EAF70E94E4064D
:1047B000DF91CF911F910F9108951091F30214137F
:1047C00032C08091F1029091F2020E94F8258F3A56
:1047D000910548F5C0E2CD0F1D17B9F080E2810FB9
:1047E000883040F4177081E001C0880F1A95EAF70D
:1047F0000E94EB06C83048F481E09D2F977001C0FD
:10480000880F9A95EAF70E94E406802F0E94DB0643
:10481000C83070F6D77081E001C0880FDA95EAF7EA
:104820000E94EB06C5CF80E28C0F883008F6C77077
:1048300081E001C0880FCA95EAF7F2CF0F93DB0140
:1048400088519C4787309105A0F5FC01EF5DF04D44
:104850000C94422D06E221EE41EE6AE17CE7CD01A7
:104860000E94BA2380E00F91089507E225EE45EEFD
:104870006BE17CE7F4CF06E221EE40EE68E17CE7F5
:10488000EECF07E225EE44EE69E17CE7E8CF06E2F1
:1048900021EE42EE6CE17CE7E2CF07E225EE46EE48
:1048A0006DE17CE7DCCF08E221E045EE6EE17CE7DC
:1048B000D6CF15968C91882319F01092F302D3CF9E
:1048C00081E0D1CF9093DB018093DA01089590933A
:1048D000F9028093F8020895E091F802F091F9024C
:1048E000309729F00190F081E02D0995089580E03E
:1048F0000895E091F802F091F902309721F00280DA
:10490000F381E02D09950895E091F802F091F90204
:10491000309739F022E0DC012C930480F581E02D02
:1049200009950895A3E0B0E0E8E9F4E20C94892D3C
:104930002091F6023091F70228173907A1F09093E1
:10494000F7028093F602E091F802F091F9023097B5
:1049500051F023E029839B838A830680F781E02D31
:10496000CE01019609952396E2E00C94A52DA3E0D3
:10497000B0E0EDEBF4E20C94892D2091F40230913B
:10498000F50228173907A1F09093F5028093F402FD
:10499000E091F802F091F902309751F024E0298378
:1049A0009B838A830680F781E02DCE0101960995CD
:1049B0002396E2E00C94A52D9C012E5F3F4FAC01A5
:1049C000485F5F4F80E02417350709F40895F90127
:1049D00091919F019923B9F38F5FF5CF662349F039
:1049E000FC01329608962191261729F0E817F9075D
:1049F000D1F780E0089581E008959C01FC01329692
:104A00009FEF80E04191461751F09F3F19F441110B
:104A100001C0982F8F5F8630A9F79F3F09F4089552
:104A2000290F311D97FD3A95F90162830895FC0124
:104A3000329608962191261303C0DF0111971C922C
:104A4000E817F907B9F708950E94FD2408950E9418
:104A500017250895029626E0FC0111922A95E9F7A0
:104A6000089546E050E00E944F2E21E0892B09F482
:104A700020E0822F089508950E943B25089581111A
:104A800006C081E08093FA020E943C25089582E0EE
:104A9000F9CF83E08093FA020E943C2508950E949A
:104AA0003F25089581E08093FA020E943C250895F5
:104AB0000E9452250895089508950E945C25089546
:104AC000089508950E945B250895CF930E94602564
:104AD0000E9482130E946125C0E08C2F0E94CB129D
:104AE000811105C0CF5FC730C1F7CF91089581E034
:104AF000FCCF85B7806885BF85B7806885BF08957E
:104B00001F921FB61F9211248F939F93AF93BF9351
:104B10008091FB02811113C080913F03909140036B
:104B2000A0914103B09142034196A11DB11D809314
:104B30003F0390934003A0934103B0934203BF917E
:104B4000AF919F918F911F901FBE1F9018958091DC
:104B50004703843031F10E94CE041092FB0288E1B9
:104B600090E020E40FB6F894A895809360000FBE03
:104B70002093600083B7817F846083BF83B78160A7
:104B800083BF7894889583B78E7F83BF0FB6F894E0
:104B9000A895809160008861809360001092600009
:104BA0000FBE08950E9446090E94D504089582E030
:104BB00084BD93E095BD9AEF97BD80936E000895F4
:104BC0002FB7F89480913F0390914003A091410347
:104BD000B09142032FBF08952FB7F89460913F031F
:104BE0007091400380914103909142032FBF08953B
:104BF0009C014FB7F89480913F0390914003A0919E
:104C00004103B09142034FBF821B930B08957894E8
:104C10001F921FB61F9211248F939F93AF93BF9340
:104C200080913F0390914003A0914103B0914203D2
:104C30000196A11DB11D80933F0390934003A09363
:104C40004103B0934203BF91AF919F918F911F9009
:104C50001FBE1F90189581E08093E00080E2809352
:104C6000D8001092C9008FE19EE40197F1F700C0CF
:104C7000000087E090EBDC01809350039093510398
:104C8000A0935203B093530388E19CE00FB6F894CD
:104C9000A895809360000FBE90936000FFCF88E1DD
:104CA0009CE00FB6F894A895809360000FBE909397
:104CB0006000FFCF8091040308959B01BA01909199
:104CC00047039430E9F48F708093E9009FEF80915F
:104CD000E800915085FD06C085ED8A95F1F700004A
:104CE0009111F5CF8091E80085FF0AC050E040E0C7
:104CF000C9010E9457288091E8008E778093E800D0
:104D0000089543E050E0BC0182E00E945D260895D2
:104D100046E050E0BC0182E00E945D260895CF93FA
:104D2000DF93EC0148E050E0BC0181E00E945D2689
:104D300088E0FE01ACEFB2E001900D928A95E1F7B8
:104D4000DF91CF91089580914603811109C00E949F
:104D5000E7290E94442A8091E20084608093E20067
:104D600008951092460308950E9452250895609177
:104D7000430381E0611101C080E00E94492508954C
:104D80009091470381E0943009F080E06091430303
:104D90000E944F25089542E061EC81E00E94632962
:104DA00042E261EC82E00E9463299091470381E036
:104DB000943009F080E0609143030E943F250895FC
:104DC00080914903833009F461C030F48130D1F11E
:104DD000823009F49EC008958A3009F48AC08B306D
:104DE00009F46FC0893009F050C0809148038132C6
:104DF00009F04BC080914C0390914D03029708F04D
:104E000044C08091E800877F8093E8008091E800AB
:104E100082FF37C09091F3008091F200029731F445
:104E20008091F100813011F0863021F48091F10001
:104E3000809304038091E8008B778093E8000E94C0
:104E4000972923C080914803813AF9F48091E800C2
:104E5000877F8093E80080914C0390914D03892BCC
:104E600061F468E08CEF92E070E00E94A6288091E7
:104E7000E8008B778093E800089560E090E080E0A0
:104E8000F3CF809147038111C1CF089580914803EA
:104E9000813AD9F780914C0390914D03892BA9F762
:104EA0008091E800877F8093E8008091E80080FF90
:104EB000FCCF80912E018093F1008091E8008E77E5
:104EC000BCCF80914803813201F780914C039091CF
:104ED0004D03892BD1F68091E800877F8093E8000D
:104EE0000E94972980914A0380932E010E944609CF
:104EF000089580914803813241F68091E800877FD0
:104F00008093E8000E94972980914B0380930503CA
:104F1000089580914803813A09F0B7CF8091E80065
:104F2000877F8093E8008091E80080FFFCCF80912C
:104F30000503C1CF84B7877F84BF0FB6F894A895C7
:104F400080916000886180936000109260000FBEC5
:104F500080E890E00FB6F894809361009093610030
:104F60000FBE0E94582508950E94E7290E94442AF6
:104F7000E2EEF0E080818460808378940E94C32C0C
:104F8000089586E291E00E94672408958091470386
:104F9000853031F480914703853019F00E94D22585
:104FA00008950E94A72580914503882399F30E94C4
:104FB0006525882379F30E9441280E944609EACF9B
:104FC00008959A0140914E0350914F030E94E927A2
:104FD0000895492F55274330510519F168F44130A0
:104FE000510509F444C04230510509F445C090E030
:104FF00080E050E040E025C04132510549F14232A5
:105000005105A9F780E490E04AE056E0611571058A
:10501000C1F08BE790E04FE855E06130710589F011
:10502000E6CF99278130910581F0009729F002970A
:10503000F1F6EAE1F5E002C0EEE3F5E0849190E0FC
:10504000AF01F901518340830895E0E3F5E0F6CF25
:1050500089E090E044E555E06115710591F389E040
:1050600090E04DE655E06130710559F3C0CF82E123
:1050700090E04DE755E0E5CF8BE390E042E455E06A
:10508000E0CF80E189BD82E189BD09B400FEFDCF9A
:105090008091D8008F7D8093D8008091E00082605D
:1050A0008093E0008091E00081FDFCCF0895AF92F5
:1050B000BF92CF92DF92FF920F931F93CF93DF9314
:1050C0006C01EB018A010E94B629F82E811123C0E0
:1050D0000115110539F0F80180819181C81BD90BA8
:1050E000C80ED91EB12CA12C2097A9F08091E80000
:1050F00085FD22C08091E8008E778093E80001153D
:105100001105A1F0F80180819181A80EB91EB1822C
:10511000A08285E0F82E8F2DDF91CF911F910F9106
:10512000FF90DF90CF90BF90AF9008950E94B62976
:105130008823D1F2F82EEFCFF60181916F01809391
:10514000F1002197FFEFAF1ABF0ACECFFC0180918B
:105150004E0390914F0386179707A0F061157105D4
:1051600029F49091E8009E779093E80090E0611513
:10517000710551F4911108C08091E80082FF34C09C
:1051800080E00895BC01F2CF809147038823C1F1EC
:105190008530C1F18091E80083FD30C08091E80046
:1051A00082FDEACF8091E80080FFE1CF8091F3009B
:1051B0002091F200382F6115710519F02830310562
:1051C00058F091E02830310509F090E02091E80096
:1051D0002E772093E800CBCF81918093F10061502E
:1051E00071092F5F3F4FE7CF80914703882341F03C
:1051F000853041F08091E80083FFBECF81E00895C3
:1052000082E0089583E00895FC0180914E0390911F
:105210004F0386179707A0F06115710529F4809157
:10522000E8008E778093E80090E06115710551F4F5
:10523000911108C08091E80082FF35C080E0089598
:10524000BC01F2CF809147038823C9F18530C9F1B1
:105250008091E80083FD31C08091E80082FDEACFB3
:105260008091E80080FFE1CF8091F3002091F2006F
:10527000382F6115710519F02830310558F091E08B
:105280002830310509F090E08091E8008E77809316
:10529000E800CBCF84918093F10031966150710981
:1052A0002F5F3F4FE6CF80914703882341F0853041
:1052B00041F08091E80083FFBDCF81E0089582E056
:1052C000089583E00895982F973028F08F70809389
:1052D000E90081E008959093E900242F762F50E0B3
:1052E000981731F07091EC002091ED005091F00092
:1052F00021FD02C09F5FE8CF3091EB003E7F3093ED
:10530000EB003091ED003D7F3093ED003091EB00EC
:1053100031603093EB007093EC002093ED005093DC
:10532000F0002091EE0027FDE5CF80E00895809108
:10533000480387FF13C08091E80082FF06C0809178
:10534000E8008B778093E80004C0809147038111C7
:10535000F2CF0895809147038823D9F38091E80024
:1053600080FFF8CF8091E8008E77ECCF2091E400A9
:105370003091E50095E6A9012091EC00822F817023
:1053800020FF06C08091E80080FF06C080E00895FD
:105390002091E80022FD1AC080914703882389F0FC
:1053A000853089F08091EB0085FD0FC02091E400ED
:1053B0003091E50042175307F9F29150E1F684E08D
:1053C000089582E0089583E0089581E008950E94A1
:1053D000562A0E945E2AE0EEF0E0808181608083A0
:1053E000E8EDF0E080818F77808319BCA7EDB0E015
:1053F0008C918E7F8C9380818F7E80831092460368
:1054000008950F931F93CF93DF930E94562A0E9413
:105410005E2AC8EDD0E088818F7788838881806894
:10542000888388818F7D888319BC109247031092EE
:105430004303109245031092440300EE10E0F8017C
:1054400080818B7F808388818160888342E060E0F7
:1054500080E00E946329E1EEF0E080818E7F80830E
:10546000E2EEF0E0808181608083808188608083CB
:10547000F80180818E7F8083888180618883DF91BD
:10548000CF911F910F910895E8EDF0E080818F7E1C
:105490008083E7EDF0E080818160808384E082BFDB
:1054A00081E0809346030E94012A0895E8EDF0E030
:1054B00080818E7F80831092E20008951092DA003E
:1054C0001092E10008951F920F920FB60F921124CF
:1054D0002F933F934F935F936F937F938F939F93FC
:1054E000AF93BF93EF93FF938091E10082FF0BC0D6
:1054F0008091E20082FF07C08091E1008B7F809362
:10550000E1000E94C22C8091DA0080FF19C08091D6
:10551000D80080FF15C08091DA008E7F8093DA007A
:105520008091D90080FF96C080E189BD82E189BD6C
:1055300009B400FEFDCF81E0809347030E94A326BB
:105540008091E10080FF19C08091E20080FF15C0CA
:105550008091E2008E7F8093E2008091E200806182
:105560008093E2008091D80080628093D80019BCBB
:1055700085E0809347030E94B7268091E10084FF75
:105580002BC08091E20084FF27C080E189BD82E1C9
:1055900089BD89B5982F917080FFFBCF8091D8008D
:1055A0008F7D8093D8008091E1008F7E8093E10011
:1055B0008091E2008F7E8093E2008091E200816022
:1055C0008093E20080914303882309F449C084E07A
:1055D000809347030E94C0268091E10083FF29C089
:1055E0008091E20083FF25C08091E100877F809356
:1055F000E10082E080934703109243038091E10031
:105600008E7F8093E1008091E2008E7F8093E200A4
:105610008091E20080618093E20042E060E080E0FF
:105620000E9463298091F00088608093F0000E94BE
:10563000B426FF91EF91BF91AF919F918F917F9190
:105640006F915F914F913F912F910F900FBE0F90EF
:105650001F90189519BC109247030E94B12670CF75
:105660008091E30087FD93E090934703B3CF1F92AF
:105670000F920FB60F9211242F933F934F935F9386
:105680006F937F938F939F93AF93BF93CF93DF934A
:10569000EF93FF93D091E900DF708091EC00C82F69
:1056A000C17080FDC0E81092E9008091F000877F12
:1056B0008093F00078940E947B2B1092E9008091F7
:1056C000F00088608093F000CD2BCF70C093E9008C
:1056D000FF91EF91DF91CF91BF91AF919F918F910A
:1056E0007F916F915F914F913F912F910F900FBEDE
:1056F0000F901F901895AAE2B0E0E1E8FBE20C944D
:10570000882D88E493E02091F100FC012193CF01E2
:10571000F3E080359F07B9F70E94E0268091E8000A
:1057200083FF1EC180914803909149039A3008F08D
:1057300017C1E92FF0E0E85DF04D0C94422D803860
:1057400099F0823809F00CC180914C038F7087303A
:1057500008F006C18093E9008091EB0085FB882763
:1057600080F91092E90006C08091440390914503AE
:10577000911182609091E800977F9093E800809368
:10578000F1001092F1008091E8008E77E5C0882347
:1057900009F4D3C0823009F0E3C080914A0381113B
:1057A000D6C080914C038F702FEF280F263008F061
:1057B000D7C08093E9002091EB0020FFC8C0933050
:1057C00031F48091EB0080628093EB00C0C0909137
:1057D000EB0090619093EB0021E030E001C0220FDC
:1057E0008A95EAF72093EA001092EA008091EB0094
:1057F0008860EACF8111B4C010914A031F7780916D
:10580000E3008078812B8093E3008091E800877F1C
:105810008093E8000E9497298091E80080FFFCCFE8
:105820008091E30080688093E30082E0111183E0BF
:105830008093470395C08058823008F091C08091D2
:105840004A0390914B038C3D23E09207A1F583E03E
:105850008A838AE289834FB7F894DE01139620E0A9
:105860003EE051E2E32FF0E050935700E49120FF37
:1058700003C0E295EF703F5FEF708E2F90E0EA304B
:10588000C0F0C7968D939D932F5F243159F74FBF7A
:105890008091E800877F8093E8006AE270E0CE01A3
:1058A00001960E94A6288091E8008B778093E800FB
:1058B00057C0C096E7CF60914C0370914D03AE0185
:1058C0004F5F5F4F0E94E127BC01892B09F448C05C
:1058D0009091E800977F9093E80089819A810E94D7
:1058E0000429E1CF8038E1F58091E800877F80933B
:1058F000E800809143038093F10045CF811130C0CF
:1059000090914A03923060F58091E800877F809300
:10591000E800909343030E949729809143038823D2
:1059200011F084E005C08091E30087FDFACF81E0AB
:10593000809347030E94CB2613C080914A03813095
:1059400079F481E0933009F080E080934503109270
:10595000E9008091E800877F8093E8000E94972902
:105960008091E80083FF0AC08091E800877F8093E0
:10597000E8008091EB0080628093EB00AA96E3E060
:105980000C94A42D0895CF93809147038823A1F010
:10599000C091E900CF709091EC00892F817090FD4B
:1059A00080E8C82B1092E9008091E80083FD0E94F6
:1059B0007B2BCF70C093E900CF910895991B79E0BC
:1059C00004C0991F961708F0961B881F7A95C9F78F
:1059D0008095089587FB082E062687FD819567FD33
:1059E00061950E94DE2C0EF4919507FC8195089537
:1059F000AA1BBB1B51E107C0AA1FBB1FA617B707F5
:105A000010F0A61BB70B881F991F5A95A9F7809510
:105A10009095BC01CD01089597FB072E16F40094D4
:105A200007D077FD09D00E94F82C07FC05D03EF482
:105A3000909581959F4F0895709561957F4F08953A
:105A4000A1E21A2EAA1BBB1BFD010DC0AA1FBB1F82
:105A5000EE1FFF1FA217B307E407F50720F0A21BF4
:105A6000B30BE40BF50B661F771F881F991F1A9461
:105A700069F760957095809590959B01AC01BD018B
:105A8000CF010895EE0FFF1F0590F491E02D0994CA
:105A90000E94502D332312F48A1B9B0B0C94612D12
:105AA000A29FB001B39FC001A39F700D811D11245F
:105AB000911DB29F700D811D1124911D08950E94AA
:105AC000502DB7FF0895821B930B08950E94502D0F
:105AD000A59F900DB49F900DA49F800D911D112442
