:10000000CEC2000004C3000002C3000000C3000011
:10001000FEC20000FCC20000FAC20000F8C20000EC
:10002000F6C20000F4C200000C94F8260C94C42719
:100030000C944D22ECC20000EAC20000E8C20000AD
:10004000E6C20000E4C20000E2C20000E0C200001C
:10005000DEC200000C94D322DAC20000D8C2000035
:10006000D6C20000D4C20000D2C20000D0C200003C
:10007000CEC20000CCC20000CAC20000C8C200004C
:10008000C6C20000C4C20000C2C20000C0C200005C
:10009000BEC20000BCC20000BAC20000B8C200006C
:1000A000B6C20000B4C20000B2C2000035001400A5
:1000B0001A0008001500170029210421162407281A
:1000C00009220A2FE1001D001B000600190005008F
:1000D0001C0018000C001200130031000B2F0D2221
:1000E0000E280F2433213441110010003600370050
:1000F0003800E40028412B422C222A432C430000E4
:1001000001001E001F002000210022000100A1525A
:10011000A452A852A252AF5201004400450001006F
:1001200001002900230024002500260027000100EB
:100130002D002100220023003400010027001E00B2
:100140001F0020002D0201000100010029004C4485
:100150002700000001001E021F02200221022202CD
:100160000100A152A452A852A252AF520100310084
:1001700031023502350029002302240225022E0215
:100180002E0001002D0026022F022F003400010056
:100190002D0227023002300034020100010001006C
:1001A00028004C44290000000100AC00AB00AA006C
:1001B000A900AE000100A152A452A852A252AF520F
:1001C0000100010001000100010029002F0A2F0891
:1001D0003008300A010001005000510052004F0069
:1001E000340001004A004E004B004D003402010073
:1001F00029002452010001000100000001003A0022
:100200003B003C003D003E00010044004500D3009F
:10021000D100D2000100A152A452A852A252AF5262
:100220003F0040004100420043000100CF00CE00EB
:10023000CD00D00001000100DB00DA00D900DC00B5
:10024000007C01000100010001000100010000002C
:100250001E0F0500047F3F1F643214643214783C83
:100260001E1E140A052223252628292A2C2D2F306C
:1002700032333536383A3B3D3E4042434547494AA2
:100280004C4E5051535557595A5C5E6062646668D3
:10029000696B6D6F71737577797B7D7F81838587DE
:1002A000898A8C8E90929496989A9C9E9FA1A3A5E1
:1002B000A7A8AAACAEAFB1B3B4B6B8B9BBBCBEBF09
:1002C000C1C2C3C5C6C7C9CACBCCCDCED0D1D2D28C
:1002D000D3D4D5D6D7D7D8D9D9DADADBDBDBDCDC97
:1002E000DCDCDCDDDDDDDDDCDCDCDCDCDBDBDBDA4F
:1002F000DAD9D9D8D7D7D6D5D4D3D2D2D1D0CECDBA
:10030000CCCBCAC9C7C6C5C3C2C1BFBEBCBBB9B8C6
:10031000B6B4B3B1AFAEACAAA8A7A5A3A19F9E9C4B
:100320009A98969492908E8C8A89878583817F7D16
:100330007B79777573716F6D6B6968666462605EF7
:100340005C5A5957555351504E4C4A4947454342C0
:10035000403E3D3B3A3836353332302F2D2C2A295A
:100360002826252322FFAA7F554000010101010113
:10037000010101010202020202020202020303035E
:10038000030303030304040404040404050505052E
:1003900005060606060607070707070808080809EE
:1003A0000909090A0A0A0B0B0B0C0C0C0D0D0D0E9A
:1003B0000E0E0F0F0F10101111111212131314142F
:1003C000151516161717181819191A1A1B1B1C1DA4
:1003D0001D1E1E1F202021222223242425262627FD
:1003E0002829292A2B2C2D2D2E2F3031323233342F
:1003F00035363738393A3B3C3D3E3F404142434435
:1004000045464748494A4C4D4E4F50515354555616
:1004100058595A5B5D5E5F616264656668696B6CC2
:100420006D6F7072737577787A7B7D7E808283853D
:1004300087888A8C8E8F91939596989A9C9EA0A27D
:10044000A3A5A7A9ABADAFB1B3B5B7BABCBEC0C287
:10045000C4C6C9CBCDCFD1D4D6D8DBDDDFE2E4E74B
:10046000E9EBEEF0F3F5F8FAFDFF14037200650016
:100470007600690075006E006700340031000000EE
:100480000C0367007400690070007300000004032F
:10049000090409023B00020100A0FA09040000015E
:1004A0000301010009211101000122440007058117
:1004B00003080001090401000103000000092111E3
:1004C000010001227B0007058203200001120100C8
:1004D00002000000080778CBDC01000102000105E2
:1004E000010902A10185020901A1000509190129DB
:1004F00008150025019508750181020501093009DB
:10050000311581257F9502750881060938158125E9
:100510007F950175088106050C0A38021581257F33
:10052000950175088106C0C005010980A1018503F8
:1005300019012AB700150126B70095017510810031
:10054000C0050C0901A101850419012AA0021501A9
:1005500026A002950175108100C005010906A101C0
:10056000050719E029E715002501950875018102A5
:100570009501750881010507190029FF150026FF5F
:100580000095067508810005081901290515002543
:1005900001950575019102950175039101C0112422
:1005A0001FBECFEFDAE0DEBFCDBF04B603FE18C03A
:1005B0008091490390914A03A0914B03B0914C0361
:1005C0008730904BA740B04B59F4109249031092DA
:1005D0004A0310924B0310924C03E0E0F8E30995B4
:1005E00011E0A0E0B1E0E4E3F7E502C005900D9270
:1005F000AE3DB107D9F723E0AEEDB1E001C01D92E9
:10060000A934B207E1F70E9493120C944E2BF8CC58
:100610008530B8F46730A8F4463098F4E42FF0E061
:1006200096E0699FE00DF11D11249AE2899FE00D8B
:10063000F11D1124EE0FFF1FE455FF4F859194919A
:10064000089581E090E00895E3CF08959C019A9584
:1006500081159F4150F5D901AA27B170F901EE2704
:10066000F270B90166277470A9014427587034FFED
:100670000EC080E1AB2B09F480E0EF2B09F0806223
:10068000672B09F08064452B89F08068089581E02C
:10069000AB2B09F480E0EF2B09F08260672B09F0A7
:1006A0008460452B19F08860089580E00895CF9309
:1006B000DF93EB01CBDFFE010995DF91CF91089528
:1006C000CF93DF93EC01805E9109089720F069EFEA
:1006D00077E0209711F463EF75E0CE01E8DF8C2F0F
:1006E0008ED1DF91CF910895CF93DF93EC010DD29E
:1006F000CE01805E9109089720F06EEF77E0209799
:1007000011F468EF75E0CE01D2DFDF91CF9108954B
:1007100081E00895FDCF0895FBCF0895F9CF0895A6
:10072000F7CF0895FDCF089508950895FDCF08955A
:1007300008950895A6E0B0E0E0EAF3E00C94002A02
:1007400049835A839E833091E50189819A813111D1
:1007500017C03E81332389F0222379F099D5182FD1
:10076000682F89819A8173D569817A81812F0E944E
:10077000450F2696E3E00C941C2A7AD5182FF4CF67
:1007800087D569817A81F3CFFC01262F4081518181
:100790006281738184819581CDCFCF93DF93D82FF0
:1007A000C92F61E0F1DF6D2F7C2FB4DF882359F072
:1007B00061E08D2F9C2FE8DF6D2F7C2FADDF8170E6
:1007C000DF91CF91089580E0FACF0F931F93CF93DD
:1007D000DF93D82FC92F60E0D7DF8C016D2F7C2FDE
:1007E000A4DF6D2F7C2FC801A1DFDF91CF911F9176
:1007F0000F9108950F931F93CF93DF93EC0161E066
:10080000C3DF8C018D8181110E943619BE01C801A0
:1008100085DF811106C080E0DF91CF911F910F919C
:100820000895BE01C8017EDF8823A9F3BE01C80177
:100830000E948F1B882379F3BE01C8010E94B91A58
:10084000882349F3BE01C8010E942220882319F39E
:10085000BE01C8010E947E1C8823E9F2BE01C801C6
:100860000E94561C8823B9F2BE01C8010E94A91239
:10087000882389F2BE01C8010E944510882359F2DD
:10088000BE01C8010E945710882329F2BE01C80189
:100890000E947010C1CF21E030E0A90102C0440FD6
:1008A000551F8A95E2F7CA010AC4CF93C82F81E089
:1008B00090E00C2E02C0880F991F0A94E2F70E9464
:1008C000500D8C2FE8DFCF91089581E00895FDCF82
:1008D0000895FBCF0895CF93C82FA6D38C2FF7DFB1
:1008E0008C2FF7DF2FEF84E39CE021508040904075
:1008F000E1F700C00000CF91089581E0ECDF0C9497
:10090000F72280E0E8DF0C941B2312DF0E942522EF
:100910001BD00C94DE171AD00E9490180ADF0C949A
:10092000292281E008950895CF93DF93D82FF9DF2E
:10093000C82F882311F08D2FF6DF8C2FDF91CF91F8
:1009400008950895F1CF089580E0FCCF0E946920BA
:10095000F9CFCF930E946920C82F8091E0018C17B6
:1009600071F0C093E0010E94B8226093E10170939E
:10097000E2018093E3019093E4018C2FE3DFCF91B8
:100980000895ADE0B0E0E7ECF4E00C94012A48876C
:1009900059876A877B878C879D87911188D71F82AB
:1009A00086E0FE013896DE01119601900D928A953F
:1009B000E1F78D8181110CC029813A814B815C81E5
:1009C0006D817E818F81C0D62D96E2E00C941D2A28
:1009D000CE010196E2DE8111EFCFF6CFFC018481DA
:1009E000813019F48081918184C40895662321F0B7
:1009F0000E94DB1D0C94A61E0E942D1EFBCFCF93E0
:100A0000C82F8823B9F08238B9F40E94782081FD7C
:100A100011C089E30E943C21C1D72FEF37EE83E05C
:100A2000215030408040E1F700C0000089E30E947F
:100A30004221B4D7CF910895833899F40E94782049
:100A400080FDF8CF83E50E943C21A8D79FEF21EEDF
:100A500034E0915020403040E1F700C0000083E5D1
:100A6000E6CF843899F40E94782082FDE3CF87E4B2
:100A70000E943C2193D78FEF91EE24E0815090406B
:100A80002040E1F700C0000087E4D1CF8CEF8C0F4D
:100A9000813A68F48C2F0E94FF20882321F08C2F4C
:100AA0000E9442217BD78C2F0E943C21C2CF80E242
:100AB0008C0F883040F4C77081E001C0880FCA9560
:100AC000EAF7D6D6B6CF8BE58C0F833038F42C2FCF
:100AD0002452330BC9010E949A20ACCFE8E5EC0FF9
:100AE000EB3150F4F0E0EE0FFF1FEE5CFE4F808123
:100AF00091810E94C2209ECF83E38C0F833108F046
:100B000099CF61E08C2F72DF95CF882309F44DC017
:100B1000823861F40E94782081FF47C089E30E94F7
:100B20003C213CD789E30E94422138C7833851F4E5
:100B30000E94782080FF39C083E50E943C212ED797
:100B400083E5F1CF843851F40E94782082FF2DC0D4
:100B500087E40E943C2122D787E4E5CF9CEF980FE1
:100B6000913A08F390E2980F983048F4877091E03A
:100B700001C0990F8A95EAF7892F80D6D6CF9BE5D9
:100B8000980F933020F490E080E00C949A2098E540
:100B9000980F9B3120F490E080E00C94C22093E306
:100BA000980F933110F460E021CF08951F93CF93F5
:100BB000DF93182FEB0123DF209731F4812FA5DF7E
:100BC000DF91CF911F9108958FE99FE00197F1F791
:100BD00000C000002197F0CF70E060E0893311F48D
:100BE00060E570E0E3CF882311F042D6D7C60895C0
:100BF000882311F043D6D2C60895B0E0A0E0E3E028
:100C0000F6E00C94F9296C01D62FC72FFC01158151
:100C1000068102950F7022D6E82E8823E9F0E12E96
:100C20001123D1F08C2F807F803461F080E28D0F12
:100C30008830F0F08C2F807E803221F4D230C0F0EA
:100C40000023B1F08091000382FF12C082E0C2D67F
:100C500005D691E0E82EE9268C2F82958F70A82E7C
:100C6000B12C8C3078F5F501E05BF44D0C94C02983
:100C7000E12CF2CF0C2F0F70C07F11F00295007F96
:100C8000112381F0002349F080E28D0F883010F0AD
:100C9000D11105C0802FECD581D68D2F42C0802F79
:100CA000F8D5FACF8D2F31DF002361F080E28D0F70
:100CB000883010F0D11103C0802FE0D502C0802F02
:100CC000EED56CD688E0A81AB10894E0A916B10454
:100CD00008F04EC10E94692035DECDB7DEB7EAE0EC
:100CE0000C94152AFC2FFF70FF2EC07FC03219F024
:100CF000F29480EFF822DD2341F0D13081F111230D
:100D000009F439C00023C9F0C8CF8091000382FDE7
:100D100010C0112341F0FF2019F08F2DA9D53ED628
:100D200080E06DDECFCF80E0F0DEFF2059F28F2D26
:100D3000C4CF112359F0011103C08F2D54DFC2CF4E
:100D4000013009F0BFCF8F2DC9D5BCCF0111BACF6B
:100D50008F2D4EDF8F2DCDD58F2DB2D5B3CF112353
:100D600021F0063008F0AECFE8CF053008F0AACF6A
:100D70008F2D3EDFA7CF0023D9F3D93349F42FEFCE
:100D800087EE93E0215080409040E1F700C00000E2
:100D90008D2FBBDE97CF8C2F86958695837069F05B
:100DA000813009F08FCF8D2F9C2F9370111102C0CD
:100DB00080E090E00E94C22085CF8D2F9C2F937001
:100DC000111102C080E090E00E949A207BCF612F39
:100DD0008D2F0CDE77CF8C2F837089F5111172CF98
:100DE0004D2F429546954770440F440F2D2F2F707D
:100DF00030E0042E02C0220F331F0A94E2F790E085
:100E000080E0D4FF09C08FE090E002C0880F991FF6
:100E10004A95E2F780959095C695C695C370822B4A
:100E2000932BC23041F0C33041F0C13011F050D1AA
:100E300049CF47D147CF53D145CF41D143CF8695F5
:100E4000112311F08C2F8170882309F43BCF4D2F93
:100E5000429546954770440F440F2D2F2F7030E078
:100E6000042E02C0220F331F0A94E2F790E080E0C4
:100E7000D4FF09C08FE090E002C0880F991F4A9507
:100E8000E2F780959095C695C695C370822B932BFB
:100E9000C23041F0C33041F0C13011F074D112CFF3
:100EA0006BD110CF77D10ECF27D10CCFCF701123BC
:100EB00021F08C2F35D18D2F41CF8D2F99DE8C2FA6
:100EC0003DD100CFD23F39F160F4D03FB9F0D13FEE
:100ED00081F0112309F43CC00111DFCE8C2F8F71FA
:100EE0001EC0D33FF1F0D43FA1F78091000382FDF3
:100EF00020C08C2F8F71112319F311C0112339F0E9
:100F0000053008F0DFCE8C2F8F7128D1DBCE063074
:100F100008F0D8CEF8CF8C2F8F711111D1CF00D11E
:100F2000D1CE112321F08C2F8F71F0D0CBCEEBD00E
:100F3000C9CE112329F063E08C2F8F7134D5C2CE36
:100F400081E048D5023008F4BDCE82E043D5BACE68
:100F5000002359F0D93309F01BCFEFEFF7EE23E070
:100F6000E150F0402040E1F711CF8C2F8F71A8CFD6
:100F7000EE2009F4B2CE6ED480FDAFCEF60115821C
:100F800063D4CED0C60117D05FD4D8D0A6CE0F93ED
:100F90001F93CF93DF93EC01688179818D81B4D168
:100FA0008C01FFD08BD0B801CE0127DEDF91CF912D
:100FB0001F910F910895CF93DF93EC018C818823CB
:100FC00081F0CE0117DC81110FC048D4882349F08D
:100FD0008D81882331F08091000382FF02C082E07E
:100FE000F9D4DF91CF910895CE01D1DFCE01EDDBB1
:100FF000F8CF882311F04DD4D1C40895882311F07F
:101000004ED4CCC4089590E080E00E949A2090E0F5
:1010100080E00E94C2204BD4C1D40E94BE1E0C941A
:10102000A61E0E944821EFCF31D4FBCF282F9295E6
:101030009F70963091F060F4925F9F70923030F420
:1010400081E0203F81F030F4283E30F080E00895C8
:101050009A5FF3CF243FD1F7089581E0283EE0F373
:10106000213FA1F7F9CF0895FC018481882321F065
:10107000808191813ED1DACF80E00895A6E0B0E092
:10108000E4E4F8E00C94012A2696E2E00C941D2A90
:10109000A7E0B0E0EEE4F8E00C94012A2796E2E045
:1010A0000C941D2A0895FECF0895FDCF0895FADF10
:1010B000FCDF909301028093000208950895F7CF1A
:1010C00008952091000230910102822B932BEFCFE3
:1010D000209100023091010282239323E8CF2091D6
:1010E00000023091010282279327E1CFDBCF0895E0
:1010F000FDCF0895D7CF0895FDDFFADF9093FF016C
:101100008093FE01089590E080E0F6CF21E030E08A
:10111000A90102C0440F551F8A95E2F7CA01ECCF1E
:1011200021E030E002C0220F331F8A95E2F7809160
:10113000FE019091FF01822B932BDECF21E030E066
:1011400002C0220F331F8A95E2F7209530958091D7
:10115000FE019091FF0182239323CECF21E030E066
:1011600002C0220F331F8A95E2F78091FE01909111
:10117000FF0182279327C0CF2091FE013091FF010C
:10118000822B932BB9CF2091FE013091FF01822356
:101190009323B2CF2091FE013091FF018227932744
:1011A000ABCF08959B01677091E001C0990F6A95DC
:1011B000EAF763E0369527956A95E1F7220F331F2A
:1011C000220F331FFA01E20FF31F50E040E0682FB7
:1011D00070E08191DF0111979B01042E02C03695CA
:1011E00027950A94E2F7217021952827292328279B
:1011F0002C934F5F5F4F4430510559F708959C0180
:10120000982F977083E0369527958A95E1F7220FFE
:10121000331F220F331FFB01E20FF31F50E040E0AA
:1012200080E0219130E0092E02C0369527950A947E
:10123000E2F721703327042E01C0220F0A94EAF747
:10124000822B4F5F5F4F4430510559F70895282F87
:10125000862F973060F4263050F4622F70E026E03D
:10126000929F600D711D112446EE51E09BCF0895B1
:10127000292F973058F4863048F490E066EE71E0FC
:1012800036E0239F800D911D1124B9CF80E0089591
:10129000B0E0A0E0EEE4F9E00C94FA298C01E090D3
:1012A000FE01F090FF018091000290910102E82A76
:1012B000F92ACFE0D0E0CC24C394D12CBC2EC601B7
:1012C0000C2E02C0880F991F0A94E2F78E219F21ED
:1012D000892B49F4219790F7B12C8B2DCDB7DEB730
:1012E000E9E00C94162AB8018C2FDAD5019791F316
:1012F000F4CFCF93DF93D82FC92FCADF6D2F7C2F68
:10130000CFD5DF91CF9108951F93CF93DF93162F01
:10131000D72F9091E501992339F0862F972FE9DF98
:10132000DF91CF911F910895882369F0862F972F21
:10133000AFDFC82F682F812F9D2F89DF612F7D2F71
:101340008C2FAED5EDCF862F972F92DFC82FF6CFFB
:101350001F93CF93DF93E091020217E08091030285
:101360008E1304C0DF91CF911F910895CE2FD0E04E
:101370001E9FF0011124EC5FFD4F208131814281DD
:10138000538164817581868183DEFE013196E77029
:10139000E5CF20913C0230913D0240913E025091B8
:1013A0003F0260914002709141028091420270CEF2
:1013B000CF93DF9380914202807F09F04BC08091F0
:1013C0004102882309F446C0E091020250910302D1
:1013D000C0913D02D0913C0260913E0270913F026B
:1013E00047E05E17B9F18E2F90E0E49FF0011124E1
:1013F000EC5FFD4F2481222381F1489FF001499F3A
:10140000F00D1124DF01AC5FBD4F11962C911197A7
:101410002C1323C02C912D1320C015962C911597B9
:1014200021111BC012962D913C91261B370B2F3A90
:10143000310598F4809142028F708061809342025E
:10144000E65FFD4F80818F70806180838CE392E046
:10145000B2DD7EDFDF91CF910895FC013196E77018
:10146000C0CF982FE09102024091030257E0E413AD
:1014700002C080E008952E2F30E05E9FF00111241D
:10148000EC5FFD4F8181681306C08081981303C013
:1014900085818111EFCFF9013196E770E8CFADE09A
:1014A000B0E0E5E5FAE00C94F7298C0186E0F8015C
:1014B000DE01189601900D928A95E1F7F80184817A
:1014C000E5809CE3A92E92E0B92E90914002911103
:1014D0001AC08823A9F0EE2089F0C801C5DDF82ED6
:1014E000882361F087E0F801D50101900D928A957B
:1014F000E1F7C50173DA5CDF4CDF59C0C8015BDD81
:10150000FF24F39454C0C080D18082809380F090F7
:10151000410220913E0230913F02A401421B530B35
:10152000FF2009F4CCC04F3A510508F09CC0882335
:1015300009F43DC090913D0280914202282F207F06
:1015400009F056C0D91214C090913C02C91210C0C3
:10155000E11048C08F708061809342021ADF8CE3F3
:1015600092E029DD80914202F8018683F12C1FC0B0
:10157000E11038C06D2D8C2D74DF6D2D8C2D71DF39
:10158000E82E8111F3CFC886D98688859985B1DE8A
:10159000292F22952F70903478F49F702230A0F07C
:1015A0009923B1F0F8019681907F91F4FE2C8F2D54
:1015B0002D96ECE00C94132A2A5F2F70223060F0F5
:1015C000C801F9DCEF2CF2CF992311F0882371F3D5
:1015D000805E883058F3F4CF803F40F3815F8330E2
:1015E00028F3EECF80914202816080934202BECF09
:1015F000D91212C090913C02C9120EC0E1100CC069
:101600008683C801D8DC87E0F801ACE3B2E0019042
:101610000D928A95E1F770CFC80126DD882309F481
:101620006DCFEE2009F46ACF80914202803280F0C3
:1016300020913C0230913D023A8329839C828B8227
:10164000909140029D831E828F83CE010196B3DC70
:1016500087E0F801ACE3B2E001900D928A95E1F7E2
:10166000A7DE97DE4DCF90914202292F207F89F48B
:10167000682D9B868A86A6017B859E2DFFDC8CE3E8
:1016800092E099DC87E0F50111928A95E9F781DE15
:101690006DCF882309F48BCF80913D028D11BCCF93
:1016A00080913C02C812B8CFE110B6CF9683C80132
:1016B00082DC87E0F50111928A95E9F778CF4F3AFD
:1016C0005105A8F5882309F41BCFFE2CEE2009F460
:1016D00015CF80913D028D111EC080913C02C81231
:1016E0001AC08091420280FD0DC0982F907F51F06A
:1016F0008683903F09F485CF982F907F905F8F70FD
:10170000892B7ECF87E0F801ACE3B2E001900D9227
:101710008A95E1F74CCFC801A7DC811199CF809160
:101720004202816080934202C80145DC40CF682DAF
:101730009B868A86A6017B859E2DA0DC87E0F5012D
:1017400011928A95E9F7D8CEAEE0B0E0EAEAFBE084
:101750000C94002A288739874A875B876C877D87A6
:101760008E87CE0108969BDE8823A9F06C856623C0
:1017700039F0288539854A855B857D858E8588DCAD
:1017800017E0809102029091030289133CC02E96CB
:10179000E3E00C941C2A87E0FE013896DE011196E6
:1017A00001900D928A95E1F74C85442349F32091ED
:1017B000030230E0C9010196877099275091020217
:1017C0005817190699F04D8397E0929FD001939F87
:1017D000B00D1124AC5FBD4FFE01319601900D920A
:1017E0009A95E1F780930302B3DDCACF1DDC109216
:1017F00003021092020287E0ECE3F2E0DF011D92A7
:101800008A95E9F7BDCF819FC00111248C5F9D4F60
:1018100046DE882309F4BBCFE09102021E9FF0014F
:101820001124EC5FFD4F208131814281538164811D
:10183000758186812DDC8091020290E0019687708F
:101840009927809302029DCF80914B0286958695C1
:101850008695089580914B028770089590914B0270
:10186000977081E009F480E008958091570208950F
:1018700090915702982B909357020895982F909526
:10188000809157028923809357020895109257023E
:10189000089590915602982B909356020895982F90
:1018A0009095809156028923809356020895109254
:1018B0005602089580914D0208950895FECF08952F
:1018C00090914C02292F282329F080958923809319
:1018D0004C02F4CF08950895FECF089590914D02E3
:1018E000292F2823281721F0982B90934D02F4CF0D
:1018F000089590914D02292F282329F0809589235E
:1019000080934D02E9CF08959091000392FF07C0A4
:1019100090914D02981719F080934D02DDCF0895F4
:1019200080914D02882321F010924D0280E0D4CFA7
:1019300008950F931F93CF93DF93009104011091AB
:101940000501C091570280915602C82B80914D022B
:10195000882329F0C82B0E94EA208111E1DFF801D9
:10196000C083C0910401D091050148E050E063E4D8
:1019700072E0CE010E94DC2A892B59F088E0FE013A
:10198000A3E4B2E001900D928A95E1F7CE010E94A6
:101990007A20DF91CF911F910F910895CACF0895BA
:1019A0000895FECF08959091000392FF0EC098E035
:1019B000899F90011124622B60934B02B1DB8091CF
:1019C0004B02869586958695ECCFAACB10924B025A
:1019D00080E0E7CF90914B028095892380934B0262
:1019E000282F277059F4891749F09091000392FF2E
:1019F00005C0869586958695A1DBE8CF08959091E0
:101A0000000392FB222720F9281749F080FB92F966
:101A1000909300038FEF92E047D082E0DBCF0895F0
:101A20008091000382FB882780F991E08927E7CF26
:101A300081E0E5CF80E0E3CF60E070E0CB0135C42A
:101A400060E070E0CB012BD4F7CFA3E0B0E0EBE295
:101A5000FDE00C94012A5ED369D31B82CE0103966C
:101A60007CD381E090E0909301028093000281D3C7
:101A70001A8219828A8184618A83CE0101968AD36F
:101A80007DD6DEDF2396E2E00C941D2ADECF08959A
:101A900053C3089540C3089555C3089564C308957A
:101AA00068C308956BC3089575C308957AC30895F4
:101AB000D6C3089500C40895A6E0B0E0E2E6FDE0D4
:101AC0000C94FF290E94AC228C01809158029091C5
:101AD00059028017910781F019821A820E94AC2264
:101AE000682F49815A81792F80E090E00E94C104DB
:101AF00010935902009358022696E4E00C941B2A96
:101B00000E94B82260936502709366028093670218
:101B10009093680260936102709362028093630203
:101B200090936402089508950895FDCF089508954F
:101B3000FEDFFBCF0895FECF08950895FEDFFBCFB3
:101B400083E490E101D5F0DFF3CF81E00895FDCF8C
:101B50000895FBCF0895089508950895FCDFFCDFF4
:101B6000FCCF98DF811101C091DF89E692E094DF1C
:101B70008FEF92E097DF92DFA2DA8091FE019091E1
:101B8000FF01B6CA0E94A3223DD4EBDF0E94A1044C
:101B90000E946418D3CF0E94891A0C94401CA6E0BE
:101BA000B0E0E5EDFDE00C94F829D1DF81110CC027
:101BB00083DFF1DF0E9437190E94DF1E0E94A90413
:101BC0002696EBE00C94142A2FD48AE5A82E82E006
:101BD000B82E750110E0F70101917F01812F76D3B6
:101BE0001F5F173009F43DC00817A9F380916902FF
:101BF00081FD72D3AEDFC82E00E099249394802F2C
:101C000065D3182FF50191915F01891729F1D82E1D
:101C1000D926F12CEE24E3948D2D8E21A9F0CC2031
:101C200099F0F9820A830E94AC229C838B839D8267
:101C300091E0812F8E2109F490E049815A816B81D6
:101C40007C818D810E94C104F394EE0CF6E0FF12BA
:101C5000E3CFF501319710830F5F073081F650DF36
:101C6000A8CF0813C3CFA4CF1F93CF93DF931AD16C
:101C7000EC018115924508F05CC0C11580E5D807DC
:101C800008F0D9C0C03ED10538F5CD3CD10508F0EB
:101C9000ABC0C83AD10580F4C53AD10508F0A1C05F
:101CA000C130D10509F440C0CE010497813A9105B5
:101CB000D8F1D0E0C0E038C0CE01885A91094B97E6
:101CC000C0F7C85AD0E0CC0FDD1FC859DE4F0990CD
:101CD000D881C02DD46428C0C11590E4D907E0F4A0
:101CE000C11520E2D20708F0C0C0C83ED105E0F01F
:101CF000CE019A9581159F41E0F68D2F75D1182F51
:101D0000CE019927CFD0C12FD0E0DC2FCC27CC2714
:101D1000DF71C82BD92B08C0CE019927C3D0CC279F
:101D2000DF70C82BD92BD06ACE01DF91CF911F91E4
:101D30000895C03882E5D807B8F5C03692E5D907CE
:101D400008F05BC0C03422E5D207C8F4C03282E597
:101D5000D80708F04BC02C2F2695269590E2299F96
:101D6000900111248C2F8370C1E0D0E002C0CC0F11
:101D7000DD1F8A95E2F7C22BD32BDD68D5CF2C2F40
:101D800026952695277080E2289F900111248C2F9C
:101D90008370C1E0D0E002C0CC0FDD1F8A95E2F76E
:101DA000C22BD32BDC68C0CFC03C92E5D90760F4CE
:101DB0008C2F8F71C03AD245A8F5C82FD0E0DC2F08
:101DC000CC27C46FD06AB0CFCE01805C924580979B
:101DD00008F06FCFDC2FCC27CC27DF71C06FD06A23
:101DE000A3CFA497D064A0CFD0659ECFCF71D0E011
:101DF000DC2FCC27C16FD06A97CF2C2F2695269544
:101E0000277080E2289F900111248C2F8370C1E0FD
:101E1000D0E002C0CC0FDD1F8A95E2F7C22BD32B96
:101E2000DA6882CFE1D0C82FD0E0DC2FCC27CC27D6
:101E3000DF71D06279CF8C2F8F71D6D055E0D695D7
:101E4000C7955A95E1F7CF70D0E0DC2FCC27282F2B
:101E500030E084FF06C044E0220F331F4A95E1F7CB
:101E60003327C22BD32BD0695FCF8D2F8F71BCD07E
:101E7000182FCE01992716D0C12FD0E0DC2FCC2708
:101E8000CC27DF71C82BD92BD4CF462F672F7730C3
:101E900020F4463010F40C94240380E090E0089580
:101EA000F4DFE2CE803E9105C1F1C8F481339105A3
:101EB00009F47DC048F48932910509F46DC08A3275
:101EC000910509F47BC0089589339105D1F08238DA
:101ED0009105B9F08533910509F459C00895843E00
:101EE0009105C1F138F4823E910521F1833E9105BF
:101EF00031F10895863E9105C1F1873E9105E1F1EA
:101F000008952091FF02237009F065C0209100031D
:101F100023FF14C089E290E008952091FF0220FD84
:101F200043C03091000330FF09C024FF4EC090E051
:101F300080E008952091FF0222FDF7CF08952091BF
:101F4000FF0222FD45C03091000330FD44C024FF54
:101F5000F5CFEDCF2091000321FFF0CF8091FF025C
:101F600084FDE5CF87EE90E008952091FF0223FFE6
:101F7000E5CF24FDDCCFF6CF2091FF0223FD2EC05C
:101F80003091000331FFE3CF84EE90E0089520917B
:101F9000FF0225FFD3CFBECF2091FF0225FD21C038
:101FA0002091000323FFCACF89E390E0C7CF20919F
:101FB000FF0226FFC3CF8AE290E008952091FF023E
:101FC00026FFBCCF81E390E0089583EE90E0089572
:101FD00082EE90E0089580EE90E0089586EE90E025
:101FE000089585E390E008959091FF0292FF10C05C
:101FF00041E0282F2471243009F040E031E0282FFF
:102000002871283009F030E0431711F02CE08227C6
:1020100093FF10C041E0282F2471243109F040E0E3
:1020200031E0282F2871283109F030E0431711F0F2
:102030002CE082273091000330FF10C051E0282FA0
:102040002171213009F050E041E0282F287128301B
:1020500009F040E0541711F029E0822731FF10C049
:1020600041E0282F2171213109F040E031E0282F93
:102070002871283109F030E0431711F029E0822758
:1020800094FD877E089580E00895CF939C01FB0125
:10209000805E9245C1E0809738F4C581C11104C0CB
:1020A000822F8F710E9455048C2FCF9108959C012F
:1020B000FB018581882391F02B35FCE73F0761F018
:1020C0002C359CE7390729F02A353C4741F4B0DC30
:1020D00001C0A6DC80E00895ADDCFCCF81E008956E
:1020E0009C01FB018581882399F02130FCE73F07A3
:1020F00061F023309CE7390739F021153C4749F45A
:102100000E947D0480E00895C3DC0E948104FACF20
:1021100081E00895089590E080E00E94FF2A9C01EC
:1021200081E0233E3E4F09F080E0089563EE7EEFAC
:1021300090E080E00C941E2B6FEF7FEF90E080E04A
:102140000C941E2BCF93DF93EC0182E090E00E9471
:10215000F22A8883DF91CF910895FC01608182E0AB
:1021600090E00C94042B83E090E00E94F22A90E02F
:102170000895682F83E090E00C94042BCF93DF93B5
:10218000EC0184E090E00E94FF2A99838883DF912C
:10219000CF910895FC016081718184E090E00C94FE
:1021A0001E2B4F925F926F927F928F929F92AF926F
:1021B000BF920F93CF93DF9300D000D000D0CDB764
:1021C000DEB78D839E8388E090E00E94FA2A2B017F
:1021D0003C01AD81BE816C9311965C921197129671
:1021E0008C93129713967C92139714961C921497C3
:1021F00015961C92159716961C92169717961C9278
:1022000083E290E00E94F22A282F30E040E050E084
:1022100060E070E080E090E000E20E94282A24293B
:10222000352946295729ED81FE8120833183428358
:102230005383648375838683978326960FB6F894B9
:10224000DEBF0FBECDBFDF91CF910F91BF90AF909A
:102250009F908F907F906F905F904F9008950F9315
:10226000CF93DF93EC01488159816A817B8188E0BB
:1022700090E00E94162B288139814A815B816C8114
:102280007D818E819F8100E20E94432A622F83E23A
:1022900090E00E94042BDF91CF910F910895AB0144
:1022A000BC018FE090E00C94162BAB01BC0183E1E4
:1022B00090E00C94162B682F8EE090E00C94042B89
:1022C0000895FECF08950895FECF0895E82FF0E019
:1022D000E85FFC4F80810895089580EA8A95F1F7C0
:1022E000089500C00895F9CF0895F894E82FE29575
:1022F000EF70F0E041A18F7021E030E0B90102C041
:10230000660F771F8A95E2F7CB01962F909594235D
:1023100091A392A1892B82A378940895CF93DF9300
:10232000C4EAD1E089918F3F09F0DFDF81E0CB3A49
:10233000D807C1F7CEE9D1E089918F3F09F0D5DF09
:1023400081E0C43AD807C1F7DF91CF910895B0E09A
:10235000A0E0EDEAF1E10C94FB29EC01D62E062F6A
:1023600010E0C8018C559E4F7C01FC0120812F3F5D
:1023700009F441C0F894E22FE295EF70F0E031A14A
:102380002F7081E090E001C0880F2A95EAF7932F23
:10239000982B91A392A18095892382A37894A1DFA1
:1023A000EEE9F1E031E0C12C21912F3F49F1A22F5C
:1023B000A295AF70B0E090968C9190E02F7002C023
:1023C000959587952A95E2F780FD1AC0832FC82A34
:1023D000330F81E0E43AF80739F7F70180818F3F46
:1023E00009F083DF61E0C11001C060E08D2D7BDF6B
:1023F000C00FD11FC882CDB7DEB7E8E00C94172A12
:1024000080E0E5CF8BDF87E0E8E0F3E0DF01982FA5
:102410001D929A95E9F7E1E0F3E0DF011D928A95BC
:10242000E9F787E03ED04DCFA7E0B0E0EAE1F2E186
:102430000C94002A1A821982FE01339685E0DF018E
:102440001D928A95E9F710E0612FCE0101967FDF9A
:102450001F5F1730C9F747E050E0BE016F5F7F4F45
:1024600081E093E00E94DC2AAC0121E0892B09F491
:1024700020E0452B49F087E0FE013196A1E0B3E072
:1024800001900D928A95E1F747E068E073E081E002
:1024900093E008D0182F18DF812F2796E3E00C94E3
:1024A0001C2A0895B0E0A0E0E8E5F2E10C94FB29D5
:1024B000D82EE92EF62ED72F042FC22F222379F003
:1024C00081E080936C020E94AC2290936B02809317
:1024D0006A0280E0CDB7DEB7E8E00C94172AC0901E
:1024E0006C02CC20B1F380916A0290916B020E9441
:1024F0003D22059770F310E0A8016D2D7E2D8F2DE4
:102500009D2F0E94DC2A892B41F0A8016D2D7E2D84
:102510008F2D9D2F0E94E92ACC2D10926C028C2FBA
:10252000D9CF3DCB08950E9446220E944C2408DB5F
:102530000E94642427DB0E946D240E947024F1DF36
:102540000E9486240BDBF9CF9093DF018093DE019C
:1025500008950F931F93CF938C01FB01C581CC236A
:1025600009F43BC082D98272F801E052F847EB309F
:10257000F10530F4E45AF44D0C94C0299DD5C0E027
:102580008C2FCF911F910F910895882321F088D52A
:10259000F6CF8823E1F377D5F2CF882321F02DD22F
:1025A000EECF8823E1F31FD2EACF882321F03FD278
:1025B000E6CF8823E1F32ED2E2CF882321F051D257
:1025C000DECF8823E1F340D2DACF882321F0FDD09B
:1025D000D6CF8823E1F3EAD0D2CFC1E0D1CFB0E0AB
:1025E000A0E0E5EFF2E10C94F929D62FC72F982F40
:1025F00071110FC0442329F0E82FF0E0E659FC4F99
:102600009491692F792F892FCDB7DEB7EAE00C942A
:10261000152A272F30E0E82FF0E0442321F0E65977
:10262000FC4FE491F0E066E0D69F80011124EE2497
:10263000EA94F12CC801B7010E947729AB018D2FD4
:1026400090E0880F991FA5E5A49FB001A59F700D8C
:102650001124861B970B682F660F680FC701821B1A
:10266000930B8E9FD0018F9FB00D9E9FB00D1124B4
:102670007B2F6C9FE0011124CD2FDD27C7018C1B20
:102680009D0B8E9FE0018F9FD00D9E9FD00D11243A
:102690008D2F5701A61AB108A29E6001A39ED00CEF
:1026A000B29ED00C1124CD2CDD24EC18FD08EE9E3A
:1026B0009001EF9E300DFE9E300D11249E2F433071
:1026C0005105C1F00C3F63E0160760F4413051053D
:1026D000A9F042305105B1F00F3F110548F48B2F9E
:1026E000732F06C04430510581F046305105B9F3CF
:1026F000692F8ACF9B2F7D2F8E2FFACF9D2F8B2F67
:102700007E2FF6CF832F9B2FFBCF8E2F932FF0CFD3
:1027100041E065CF0895FCCF089590910901291BF0
:10272000922FE091D801F091D901242F462F682FE4
:10273000892F90E009950895CF93DF93982F762FF6
:10274000842FD22FC32F692FE6DF962F672F482FB4
:102750002D2F3C2F892FE1DFDF91CF9108958091BC
:102760000F03982F9C7F29F48370846080930F035C
:1027700008958C3AE8F38370886AF8CFEFE0F3E0CD
:1027800085E0808311828FEF828383831482CF015F
:102790008FC990911303933018F49F5F90931303A4
:1027A000882319F08FE093E083C9089581E0F1CF89
:1027B00090911303992319F0915090931303882358
:1027C00019F08FE093E074C9089581E0F1CF0F9381
:1027D0001F93CF9380910F0380FF09C0E091DC012C
:1027E000F091DD010995CF911F910F910895C0914E
:1027F0000B010091D8011091D90180910C01C817EB
:1028000068F7809109019C2F981B892F20E040E0F8
:1028100060E090E0F8010995CF5FEFCFEF92FF9273
:102820000F931F93CF93DF93D82F162F042F8091F0
:102830000F0380FF0BC0C0910B01E090D801F09016
:10284000D90180910C01C81730F0C1DFCDB7DEB7D8
:10285000E6E00C94192A809109019C2F981B892F7E
:10286000202F412F6D2F90E0F7010995CF5FE9CF21
:10287000982F762F842F20910F0320FF07C0692FF8
:102880004ADF962F672F482F892FC8CF0895CF93FF
:10289000DF93EC01EC81F0E0EB59FD4F4491EFE068
:1028A000F3E062818181E4DF8C818F5F8C83DF9133
:1028B000CF910895CF93DF93EC01EFE0F3E04381F4
:1028C00062818C81D5DF8C818F5F8C83DF91CF918A
:1028D0000895CF93DF93EC01409112039C81892FDF
:1028E000817090FD842F692F627091FD642F92FF9B
:1028F00040E094DF8C8190E00196877099278C836B
:10290000DF91CF910895B0E0A0E0E9E8F4E10C9404
:10291000FC29D82F062F142FE22E90910F0390FF41
:1029200021C0E92FE695E695AE2FB0E0A555BE4F44
:102930008C918093AF029C7F9430C9F46D2F702FDF
:10294000842FE9DE962F672F482F892F67DFD093DA
:1029500010030093110310931203EE2019F08FE07F
:1029600093E0A6D8CDB7DEB7E7E00C94182A823002
:1029700019F410911203EBCF863019F4D0911003A3
:10298000E6CF8930D9F3893111F7E9518E2F817063
:10299000D82EE695F0E0EB59FC4FC491F12C6091F4
:1029A0000D01F61610F013DFD2CFFC9EC0011124EA
:1029B00070E00E9477298D2FD1100BC0860F2091D7
:1029C0000B012F0D3327331F412F602FB5DEF394FA
:1029D000E6CF861BF4CF282FEFE0F3E0818143811F
:1029E0006281805F90CF81E0F6CF282FEFE0F3E0A7
:1029F000818143816281805186CF81E0F6CF282F8B
:102A0000EFE0F3E0628130E1630F08F46FEF4381A0
:102A1000818179CF81E0F3CF282FEFE0F3E062816D
:102A200030E1631B08F460E0438181816CCF81E079
:102A3000F3CF282FEFE0F3E0438130E1430F08F4B8
:102A40004FEF628181815FCF81E0F3CF282FEFE0EC
:102A5000F3E0438130E1431B08F440E0628181816F
:102A600052CF81E0F3CF20E04ECFEF92FF921F9341
:102A7000CF93DF93EC0110E0EE24EA94F12C609107
:102A80000D01161768F0A3DE9A818C8190FF1DC09E
:102A90008F5F8C83DF91CF911F91FF90EF9008950E
:102AA00020910B01210F3327331F70E0C7010E94D3
:102AB0008B29962F8C814091120360911103199FED
:102AC000800D112439DE1F5FDACF8150E2CFB0E0F4
:102AD000A0E0EDE6F5E10C94FA29FC018281DFEF3C
:102AE00080FFD1E0C0E00091D8011091D901809120
:102AF0000D01C81790F06BDE80916E02D13009F0A5
:102B00004FC0811102C080910D01815080936E02EF
:102B1000CDB7DEB7E9E00C94162A80910B019091B5
:102B20000901891B8C0F20E040E060E090E0F80193
:102B3000099594E0E92EF12CB12CCC2ED12C80916A
:102B40006E028B0D8C3034F16BE00E946A29892F64
:102B5000082E000C990BC816D906A9F420910B0178
:102B60002C0D3D2D311D809112038E9DA0018F9D56
:102B7000500D112455954795559547956091110332
:102B800080911003D9DDBD0EF1E0EF1AF108B9F61E
:102B9000CF5FADCF87FFDCCF90910D01890FD8CFEC
:102BA00090E0019660910D0170E00E948B29AECFFC
:102BB0000F931F93CF93C0910B010091D8011091F7
:102BC000D90180910C01C81748F1C0E00091D801EB
:102BD0001091D90160910D01C61768F1F8DD2091BF
:102BE000070180916D02820F80936D029091080120
:102BF000920F90930801191654F4082E000C990BAB
:102C000040910D014150550B841795071CF02195FB
:102C100020930701CF911F910F9108958091090191
:102C20009C2F981B892F20E040E060E090E0F801A5
:102C30000995CF5FC6CFEC2FF0E070E0CF010E9486
:102C40008B2920910B01820F20916D02022E000C26
:102C5000330BE217F3079CF020910801022E000CC1
:102C6000330B2E173F075CF0282F30E04091120302
:102C700060911103809110035FDDCF5FABCF909126
:102C80000901891B20E040E060E090E0F80109952F
:102C9000F4CFAEE0B0E0EFE4F6E10C94FD298D87CF
:102CA0009E87AD85BE8514961C91212F30E0D901F9
:102CB0000E94CC299B01AC010E94E12969837A839F
:102CC0008B839C83E0E2F0E0E11BF109A5E5B0E035
:102CD0009B01AC010E94E12969877A878B879C87D9
:102CE0009F01DF010E94C6299B01AC010E94EB29D4
:102CF0006D837E838F8398879B01AC0189819A8144
:102D0000AB81BC81280F391F4A1F5B1F69857A85FB
:102D10008B859C850E949E29F22E822F90E0A9E24D
:102D2000A21738F1B3E02B9F900111243595279518
:102D3000122F109500E085E5E82EEF1880910D0127
:102D4000081730F144DDAD85BE8514969C9181E075
:102D5000992319F0903219F48FEF80930601809136
:102D60000601890FED85FE8584832E96E6E00C949E
:102D7000192A25E530E0F901E81BF90B9F01220F24
:102D8000331F2E0F3F1F37FFD1CF2F5F3F4FCECFC7
:102D90008E2D01FD8F2D20910B01200F3327331F26
:102DA000412F60911103C8DC0F5FC8CF0F931F93B1
:102DB000CF93DF93EC0110E000E090910D019017AC
:102DC000110609F064F403DD8C8190E001968170B6
:102DD00099278C83DF91CF911F910F9108954C819A
:102DE00020910B01200F312F311D60911103809133
:102DF000100396959017110649F044F0442341F0D2
:102E00004091120399DC0F5F1F4FD7CF4423C1F3CA
:102E100040E0F8CFB0E0A0E0E0E1F7E10C94F32966
:102E2000FC016280448081E08483E5E6F2E07490F6
:102E3000E4EEF2E0E491C0911203C695C158D0E0EF
:102E4000CC0FDD1FCD2FDD27812C25E0922EAA246B
:102E5000AA94B12C55245A94E719EE2EF12C8091A6
:102E60000D01881630F0B3DCCDB7DEB7E0E10C948D
:102E70000F2AC82CD12C82E0861568F09C9CF001AA
:102E80009D9CF00D1124E159FD4F8091100380832A
:102E900080911103818341101BC09C9CF0019D9C7B
:102EA000F00D1124E159FD4F1382128220910B0184
:102EB0002C0D3D2D311D9C9CF0019D9CF00D11248D
:102EC000E159FD4F42816181808136DC8394C7CF17
:102ED0009C9C80019D9C100D112401591D4FF801EF
:102EE00083818823F1F081508383859DC001112463
:102EF000648170E00E947729FB01FF27EB59FD4FA9
:102F00008491E82FE719E59DC0011124B7010E94C3
:102F1000772980911203689FB0011124F801728310
:102F2000C5CF0E94C12AB5010E948B298C179D072D
:102F30000CF0BCCFF2E0F61598F40E94C12AB5015E
:102F40000E948B29F80180830E94C12A20911103DD
:102F50002695622F70E00E948B29280FF8012183AB
:102F60009C9CF0019D9CF00D1124E159FD4F1282B3
:102F700080911203893C58F088EC9C9CF0019D9C48
:102F8000F00D1124E159FD4F848383838FCF843169
:102F9000A0F784E1F2CFEFE0F3E080818E7F8083C1
:102FA000CF010E94580D1092B00211CCEFE0F3E077
:102FB00080818E7F80831092B00209CC1092B00283
:102FC0008091AD02811109C081E08093AD028091B2
:102FD0000F0381708093AC02E9CF089560910F03D5
:102FE0006695669570E04BE050E08EE091E00E94BF
:102FF000CF2A892B19F481E08093B0020E94AC2281
:103000009093A7028093A602089590910F0390FFDA
:1030100025C09370811123C0946090930F036623A1
:1030200021F08FE093E00E94580D60910F036695A8
:10303000669570E04BE050E08EE091E00E94CF2A70
:10304000892BA9F01092B00281E08093A9024091EF
:103050001203609111038091100305CD08958B3206
:1030600010F0986ADACF880F880F982BD6CFB6DF8A
:10307000EBCF682F80910F03869586958F5F8B32FB
:1030800008F081E0C2CF81E0F4CF682F90910F0368
:10309000969596958FEF890F913009F48AE2B5CF16
:1030A00081E0F3CF61E0B1CFEFE0F3E080818160B8
:1030B000808386958695F6CF80910F0380FF01C0AF
:1030C0006ACFF2CF60E0A1CF8091AE0281111FC024
:1030D0008FE093E00E94560D80910F038C7F29F4BE
:1030E0004DDB8FE093E00E94560D39DB1092B00269
:1030F000E091D601F091D701099580910F0380FFEF
:1031000003C086958695DEDF81E08093AE02089548
:10311000EFE0F3E080818160808386958695D2CF51
:103120001092AD028091AC028111F2DF57CF0F9364
:103130001F93CF93DF938091B0028823C1F18091D8
:10314000AF02E0910F03E695E695E81BE093A80235
:10315000823091F5F0E0EF59FD4FE491CE2FD0E0B1
:1031600007E414E18091A902882361F01092A9027A
:103170000E94AC229093A7028093A6021092AB0209
:103180001092AA020E94AC22E091A602F091A7023E
:103190008E1B9F0B8F3F9F4750F4EC0FFD1FF0934A
:1031A000A702E093A60286EA92E0F8010995DF9172
:1031B000CF911F910F910895863049F4F0E0E25AC3
:1031C000FD4FE491CE2FD0E00AE514E1CBCF89305A
:1031D00051F4E695F0E0E55AFD4FE491CE2FD0E0B2
:1031E00005E315E1BFCF8F3051F4E695F0E0E85AE2
:1031F000FD4FE491CE2FD0E007E615E1B3CF853146
:1032000049F4F0E0EB5AFD4FE491CE2FD0E008ED09
:1032100015E1A8CFC8E2D0E009E416E1883109F44D
:10322000A1CF833239F4E3E5F2E0C591D49109E608
:1032300014E198CFC4EFD1E006ED16E1843209F431
:1032400091CFC0EDD7E00AE813E1853209F08ACFCB
:103250008E2F63E00E945E29E92FF0E0E05BFD4FD6
:10326000E491CE2FD0E00AE017E17CCF08955FCF44
:103270000895539A0895FC01EE0FFF1FE80FF91F00
:10328000E95EFC4F6183408322830895E7E1F3E028
:10329000818360834283339693E0E833F907C1F773
:1032A00008953BB1377F2BB128604FB7F89487E181
:1032B00093E0FC010196508168E02BB9000000C04A
:1032C00057FF3BB9550F000000C000C000C03BB91C
:1032D00000C06A9591F753E08833950751F74FBFC7
:1032E0008FE594E00197F1F700C000000895809108
:1032F0001901877F80931901A5D2811103C082E053
:103300000E944F0C8091190184FF06C08F7E80932C
:10331000190182E00E94380C8091190185FF06C0D6
:103320008F7D8093190180E20E94380C0C94CE0CA2
:1033300080E008958933910578F48D32910530F459
:103340008832910528F48E31910528F081E00895A6
:103350008B329105D9F3ECCF84369105B9F3FBCFCD
:10336000CF93DF93EC01662319F082E00E94490CB1
:10337000CE0190528115904308F4DD27CE010E94C2
:103380006003DF91CF9108959C01305221153043A5
:1033900008F499270C9474039C01FC0183E0F695D2
:1033A000E7958A95E1F7EE71FF27EF54FD4F4081D5
:1033B00051812F70332781E090E002C0880F991F60
:1033C0002A95E2F7662329F0842B952B918380833D
:1033D00008958095909584239523F8CF9C01FC0156
:1033E00083E0F695E7958A95E1F7EE71FF27EF54B4
:1033F000FD4F2F70332781E090E0AC0102C0440FF5
:10340000551F2A95E2F79A0180819181282339235B
:1034100081E0232B09F480E00895EF92FF920F934F
:103420001F93CF93DF93EC017B018A0180911901F7
:1034300082FF59C02091D8023091D9022C173D0744
:1034400019F0209709F04FC0909119019B7F90933C
:10345000190161E091FD10C08091DA029091DB02C8
:10346000A701481B590B61E080911A0190911B0143
:103470004817590708F460E061708091190160FBFA
:1034800081F980931901C90187DF0E94350C81FF02
:1034900008C08091190180618093190182E00E9427
:1034A0003E0C0E94350C85FF08C080911901806296
:1034B0008093190180E20E943E0C6091190166958B
:1034C0006170A8018091D8029091D90249DF609182
:1034D000190166956170A8018091D8029091D90276
:1034E00053DF05DF0DC0CE0179DF682FA801CE01C3
:1034F0004BDF8091D8029091D902C817D90789F380
:10350000F092DB02E092DA02CDB7DEB7E6E00C948F
:10351000192A8091190182FF18C00E94AC22BC01B7
:103520008091DA029091DB029B01281B390B80917C
:103530001A0190911B012817390738F041ED52E02C
:103540008091D8029091D90268CF08959091190185
:10355000892F8E7F90FF816080931901C8CE809162
:1035600019018E7F80931901C2CE8091190181705B
:103570000895B0E0A0E0EFEBFAE10C94FC29EC0137
:103580007B01EAD7D82E092FF7018581882381F1A5
:103590008091190182FF07C041ED52E06D2D792F16
:1035A00090E080E03ADFC431FCE7DF07F9F0C53195
:1035B0002CE7D20751F0C3318CE7D80739F480915A
:1035C000190181608093190101C0C0DFCE019052C2
:1035D00081159043D8F41092D9021092D80211E0CC
:1035E000812FCDB7DEB7E7E00C94182AB8DFEECF15
:1035F000809119018F7EC13ED10531F0C53ED105C4
:1036000089F5809119018F7D8093190180911901AD
:1036100080FFE5CFB701CE018DDEF701158188234C
:1036200009F457C0112309F44EC00E94350C182F1D
:103630000E945A0C182B1D7FD9F01092D9021092BB
:10364000D80260E0CE01A8DEA70160E0CE0188DEEE
:103650000E945A0C8D7F0E94840C82E00E94EA0C2A
:1036600010E0BECFCE0190528115904378F6B7CFCF
:1036700087E0F701A1EDB2E001900D928A95E1F7A4
:103680001092D4021092D3020E94350C182F0E947F
:103690005A0C182B8091190111FB81F980931901A3
:1036A0000E945A0C8D7F0E94840CD093D902C09343
:1036B000D802D092DA020093DB0280911901846073
:1036C00080931901CACFA7016D2D702FCE01A5DE01
:1036D00087CF111180CF83CF9C018D329105D1F01E
:1036E00088F48832910548F44E97B8F42450310993
:1036F0002A31310578F080E0089581E02A323105E1
:10370000D1F7089581E02C343105D9F32D323240C0
:1037100091F7F7CF82E00E94490C81E00895B0E074
:10372000A0E0E5E9FBE10C94FC29EC017B01833787
:103730009C4761F4FB011581112311F0B1D010E019
:10374000812FCDB7DEB7E7E00C94182A0E94350C24
:10375000082F0E945A0CD82E75D0811102C011E09A
:10376000EFCF68D0F70115811123C9F30D290D7929
:1037700009F04EC0C115F0E5DF0798F4C11520E44B
:10378000D20708F04CC0C63ED105D1F2CE0190520E
:1037900081159042A0F4F7018681807F69F1DD27D1
:1037A0000EC0C43BF2E5DF0759F200F5C03482E5F4
:1037B000D807A0F4C115E2E5DE0708F0C1CFD5DED9
:1037C000811136C08FEF0E944F0CCE0185DFC82FCC
:1037D0008823F1F00E94CE0C1C2FB2CFCE01805670
:1037E00092458034910508F4ABCFE9CFCE01805CDF
:1037F0009245809720F7A4CF8D2F8F71843109F4E3
:103800009FCF40F4823089F0C5EED0E08231B9F22A
:103810002BD096CFC6EED2E1863189F2F9CFF701EF
:103820008681807F09F0BBCF9ACFC1EED0E0C7CFB1
:103830008DEFC9CF91D688579C4E9093DD0280932F
:10384000DC0208958091DE02089508958091DE02E1
:10385000811109C00E94460C0E94900CEBDF81E0B0
:103860008093DE02F2CF08958091DE02882339F042
:1038700082E20E94FE071092DE0280E0E6CF089509
:103880008091DE02882359F067D62091DC023091C6
:10389000DD02821B930B8F3F9F4708F4E5CF08950D
:1038A0008091DE02882309F0DFCFD0CFCF93DF9362
:1038B000EB0186319C4701F50E94350C9D819923CF
:1038C00091F08A7A91E009F490E09093DF028111FF
:1038D00008C089E2D1D40E94CE0C80E0DF91CF9164
:1038E000089585E3F7CF8091DF02811103C089E25B
:1038F000C9D4F1CF85E3FCCF81E0F0CFCF93DF9344
:10390000EC01FB018581882309F4CEC09E0130576C
:103910002332310508F0AEC08FEF92E00E94520DC5
:10392000FE01E150F047E232F10520F4E959F44D8F
:103930000C94C0298091FF0281608093FF0293C0A4
:10394000809100038860809300038DC08091FF0206
:103950008260F3CF8091FF028460EFCF8091FF02FD
:103960008860EBCF809100038160EDCF80910003F0
:103970008260E9CF8091FF028061DFCF8091FF02FA
:103980008062DBCF8091FF028064D7CF0E94140851
:103990008091FF028068D1CF8091FF028C60CDCFF3
:1039A000809100038360CFCF8091FF028E7FC5CFCF
:1039B00080910003877FC7CF8091FF028D7FBDCFAD
:1039C0008091FF028B7FB9CF8091FF02877FB5CFB7
:1039D000809100038E7FB7CF809100038D7FB3CF9E
:1039E0008091FF028F7EA9CF8091FF028F7DA5CFAE
:1039F0008091FF028F7BA1CF0E9414088091FF026B
:103A00008F779BCF8091FF02837F97CF80910003B8
:103A10008C7F99CF8091FF0282FB992790F921E05A
:103A2000922790FB82F990FB83F987CF8091000366
:103A3000982F909591708E7F892B90FB81F983CF81
:103A40009091FF02892F8F7B96FF806476CF0E9432
:103A500014089091FF02892F97FB87F980586DCF4A
:103A600081E00E945A0D8FEF92E00E94540D0E9457
:103A7000140880E0DF91CF91089580E0F2CF90911B
:103A8000FF02892F8F7E94FF806157CF9091FF02B4
:103A9000892F8E7F90FF816050CF90910003892FF6
:103AA000877F93FF88604FCF81E0E4CF282F35EBED
:103AB0002303C001112497FF04C080589109892F66
:103AC000089580589F4FFBCF8091E60280FF0DC084
:103AD0006091210170E0660F771F6038710570F505
:103AE0006115710569F1862F089581FF07C0609106
:103AF000210184E0689FB0011124EFCF6091210182
:103B000082FD0AC08091E5028823A9F0209120015E
:103B100060912101821710F088E0ECCF869FC001F0
:103B2000112433E0880F991F3A95E1F7622F70E076
:103B30000E948B29D2CF68E070E0D5CF8FE708953F
:103B400081E008958091E60280FF0CC060911D0124
:103B500070E075956795759567956115710549F1E3
:103B6000862F089581FF06C060911D0170E0759554
:103B70006795F3CF60911D0182FD0BC09091E40227
:103B80009923A1F060911C0180911D01961738F0D6
:103B9000682F70E06038710500F38FE70895899F02
:103BA000C001112470E00E948B29F4CF61E070E025
:103BB000D7CF81E008958D3C29F486DF81958093ED
:103BC000EA0208958E3C11F47FDFF9CF8F3C29F48F
:103BD0007BDF81958093E9020895803D11F474DFC5
:103BE000F9CF893D21F4AEDF8093EB0208958A3D41
:103BF00019F4A8DF8195F8CF8B3D29F4A3DF8195D7
:103C00008093EC0208958C3D11F49CDFF9CF9FE284
:103C1000980F983070F4815D990B21E030E001C07D
:103C2000220F8A95EAF78091E802822B8093E802BE
:103C300008958D3D31F48091E60281608093E60223
:103C400008958E3D21F48091E6028260F7CF8F3D8A
:103C5000B9F78091E6028460F1CF4091E9028D3C92
:103C600059F48091EA0287FF0DC01092EA024111D7
:103C70000BC01092E50208C08E3C81F48091EA02EC
:103C800018169CF3442381F08091EB029091EC0292
:103C9000892B09F05AC01092E40208958F3C49F430
:103CA00047FFF0CF1092E9028091EA028111ECCF38
:103CB000E0CF803D19F41416ACF3E4CF9091EB0201
:103CC000893D29F41916F4F61092EB02DBCF8A3DF8
:103CD00019F497FFD7CFF8CF9091EC028B3D29F4E0
:103CE00097FFD0CF1092EC02CDCF8C3D19F419166E
:103CF000CCF3C8CF9FE2980F983090F4815D990B78
:103D000021E030E0B90102C0660F771F8A95E2F723
:103D1000CB0180959091E80289238093E802B2CF8D
:103D20008D3D31F48091E6028E7F8093E602AACF2A
:103D30008E3D21F48091E6028D7FF7CF8F3D09F013
:103D4000A1CF8091E6028B7FF0CF089505D420911A
:103D5000E9023091EA02232B21F08093E202909352
:103D6000E3022091EB023091EC02232B21F08093AF
:103D7000E0029093E10287EE92E0C9C186E0E7EEAF
:103D8000F2E0DF011D928A95E9F71092E5021092A8
:103D9000E4021092E6020895FC01828181110DC0B7
:103DA000838181110AC08481811107C081E09581DE
:103DB000911101C080E08170089581E0FCCFA6E000
:103DC000B0E0E5EEFEE10C94002A86E0E7EEF2E0DA
:103DD000DE01119601900D928A95E1F71092E902A9
:103DE0001092EA021092EB021092EC028B819C81FD
:103DF000892B81F08091E2029091E3023ED39C01F5
:103E00008091E5028823A9F190912201921713066F
:103E100008F43CC08D819E81892B89F08091E0025D
:103E20009091E1022AD39C018091E402882309F455
:103E300063C090911E019217130608F46BC0BE0177
:103E40006F5F7F4F87EE92E02ED2811104C087EE24
:103E500092E0A2DF81117ADF86E0FE013196A7EEC3
:103E6000B2E001900D928A95E1F72696E3E00C947A
:103E70001C2A409123019AE0499FA0011124421776
:103E8000530740F68F5F8093E50202C08F3FD1F762
:103E90001B81112351F018DE9FEF11160CF491E0F5
:103EA000899F802D11248093E9021C81112351F0F8
:103EB0000BDE9FEF11160CF491E0899F802D1124E9
:103EC0008093EA028091E902882309F4A3CF10913C
:103ED000EA02112309F49ECFE9DD882349F080939B
:103EE000E902812FE3DD882329F08093EA0292CF53
:103EF00081E0F5CF81E0F9CF40911F019AE0499F21
:103F0000A00111244217530708F099CF8F5F8093C7
:103F1000E40202C08F3FD1F71D81112351F012DE60
:103F20009FEF11160CF491E0899F802D112480934E
:103F3000EB021E81112351F005DE9FEF11160CF4E8
:103F400091E0899F802D11248093EC028091EB02F7
:103F5000882309F474CF1091EC02112309F46FCF78
:103F6000A5DD882349F08093EB02812F9FDD882314
:103F700029F08093EC0263CF81E0F5CF81E0F9CFA7
:103F80000F931F93CF93DF93C42FD22FFC01858112
:103F90008823C1F04093EF02DFD29093EE0280932A
:103FA000ED0280E28C0F883040F4C77081E001C0E0
:103FB000880FCA95EAF70E94F305DF91CF911F9110
:103FC0000F9108951091EF02141331C08091ED020A
:103FD0009091EE0252D28F3A910548F5C0E2CD0F92
:103FE0001D17B9F080E2810F883040F4177081E02E
:103FF00001C0880F1A95EAF70E94F805C83048F406
:1040000081E09D2F977001C0880F9A95EAF70E9472
:10401000F305802F0E94EC05C83078F6D77081E058
:1040200001C0880FDA95EAF70E94F805C6CF80E252
:104030008C0F883010F6C77081E001C0880FCA95D8
:10404000EAF7F2CF0F93FC01CB01E851FC47E730D0
:10405000F10588F5E757F44D0C94C02906E221EEEE
:1040600041EE6AE17CE78CDF80E00F91089507E282
:1040700025EE45EE6BE17CE7F6CF06E221EE40EE61
:1040800068E17CE7F0CF07E225EE44EE69E17CE7EA
:10409000EACF06E221EE42EE6CE17CE7E4CF07E2F4
:1040A00025EE46EE6DE17CE7DECF08E221E045EE4D
:1040B0006EE17CE7D8CFFB018581882319F010924F
:1040C000EF02D3CF81E0D1CF9093F5028093F40239
:1040D0000895E091F402F091F502309739F00190E3
:1040E000F081E02D309711F00995089580E0089552
:1040F000F0CF0895E091F402F091F502309731F09D
:104100000280F381E02D309709F009950895DC01D4
:10411000E091F402F091F502309759F08681978191
:10412000892B39F082E08C930680F781E02DCD0158
:1041300009950895A3E0B0E0E0EAF0E20C94012ACA
:104140009C018091F2029091F30282179307B1F0E3
:104150003093F3022093F202E091F402F091F50221
:10416000309761F00084F185E02D309739F083E0DD
:1041700089833B832A83CE01019609952396E2E049
:104180000C941D2AA3E0B0E0E8ECF0E20C94012AC4
:104190009C018091F0029091F10282179307B1F097
:1041A0003093F1022093F002E091F402F091F502D5
:1041B000309761F00084F185E02D309739F084E08C
:1041C00089833B832A83CE01019609952396E2E0F9
:1041D0000C941D2A40910401509105019A012E5F13
:1041E0003F4F485F5F4F80E02417350709F408957B
:1041F000F90191919F019923B9F38F5FF5CF88233E
:1042000071F02091040130910501F9013296285F87
:104210003F4F9191981729F0E217F307D1F780E00B
:10422000089581E008959C01FC0132968FEF90E0A3
:104230004191461751F08F3F19F4411101C0892F68
:104240009F5F9630A9F78F3F09F40895280F311D1D
:1042500087FD3A95F901628308959C01FC0132962D
:10426000285F3F4F8191861303C0DF0111971C9295
:10427000E217F307B9F70895682F80910401909130
:104280000501D1CF682F8091040190910501E5CF00
:10429000E0910401F0910501329686E0DF011D9264
:1042A0008A95E9F70895DC01FB0111969C9111971D
:1042B0008181981322C012968C911297882319F04D
:1042C000928189131AC013968C911397882319F041
:1042D0009381891312C015968C911597882319F034
:1042E000958189130AC014969C91992321F081E04D
:1042F0002481291303C080E001C081E0817008950A
:104300000895FECF0895A4E0B0E0E9E8F1E20C944E
:10431000012A811112C081E080932701809124013C
:1043200090912501A0912601B0912701BC01CD01FA
:10433000E8DF2496E2E00C941D2A82E0EDCFA4E0B1
:10434000B0E0E5EAF1E20C94012A83E080932701D2
:104350008091240190912501A0912601B09127011F
:10436000BC01CD01CEDF2496E2E00C941D2ACBCF18
:104370000895A4E0B0E0EFEBF1E20C94012A81E0B3
:10438000809327018091240190912501A09126011D
:10439000B0912701BC01CD01B4DF2496E2E00C947A
:1043A0001D2AE7CF0895A4E0B0E0E9EDF1E20C9416
:1043B000012A91E0811101C090E090932601809143
:1043C000240190912501A0912601B0912701BC0103
:1043D000CD0197DF2496E2E00C941D2A80912601FE
:1043E0000895A4E0B0E0E7EFF1E20C94012A809395
:1043F00025018091240190912501A0912601B09181
:104400002701BC01CD017DDF2496E2E00C941D2A3A
:10441000809125010895A4E0B0E0E0E1F2E2F1C767
:10442000809324018091240190912501A09126017F
:10443000B0912701BC01CD0164DF2496E2E0FDC705
:1044400080912401089508950895FECF0895089558
:104450000895F9CF0895CF93FADF0E941412F8DF80
:10446000C0E08C2F0E946611811105C0CF5FC7305C
:10447000C1F7CF91089581E0FCCFCF93DF93EC019A
:104480006BD08C1B9D0BDF91CF91089585B7806811
:1044900085BF85B7806885BF08951F921FB61F929C
:1044A00011248F939F93AF93BF938091F602811154
:1044B00013C08091380390913903A0913A03B091D1
:1044C0003B034196A11DB11D80933803909339039E
:1044D000A0933A03B0933B03BF91AF919F918F910B
:1044E0001F901FBE1F90189580914003843031F1BA
:1044F0000E9485041092F60288E190E020E40FB655
:10450000F894A895809360000FBE2093600083B755
:10451000817F846083BF83B7816083BF78948895EF
:1045200083B78E7F83BF0FB6F894A8958091600003
:10453000886180936000109260000FBE08950E9411
:1045400014080C948B0482E084BD93E095BD9AEF2F
:1045500097BD80936E0008952FB7F894809138032B
:1045600090913903A0913A03B0913B032FBF089576
:10457000A4E0B0E0EDEBF2E244C78FB7F8942091ED
:1045800038033091390340913A0350913B0329831A
:104590003A834B835C838FBF69817A818B819C8155
:1045A0002496E2E04AC778941F921FB61F92112406
:1045B0008F939F93AF93BF9380913803909139036A
:1045C000A0913A03B0913B030196A11DB11D8093C8
:1045D000380390933903A0933A03B0933B03BF9100
:1045E000AF919F918F911F901FBE1F90189581E0F2
:1045F0008093E00080E28093D8001092C9008FE1A0
:104600009EE40197F1F700C0000087E090EBDC0129
:104610008093490390934A03A0934B03B0934C03B8
:1046200088E19CE00FB6F894A895809360000FBED7
:1046300090936000FFCF88E19CE00FB6F894A895B6
:10464000809360000FBE90936000FFCF0895282FE5
:10465000CB01BA01309140033430D9F42F7020934C
:10466000E9002FEF3091E800215035FD06C035ED0F
:104670003A95F1F700002111F5CF2091E80025FFD0
:1046800008C050E040E0B9D18091E8008E77809377
:10469000E8000895BC0143E050E082E0D8CFBC01BF
:1046A00046E050E082E0D3CFCF93DF93D82FC92FDD
:1046B00095DE48E050E06D2F7C2F81E0C8DF88E078
:1046C000ED2FFC2FA7EFB2E001900D928A95E1F754
:1046D000DF91CF91089580913F03811107C013D3DB
:1046E0006AD38091E20084608093E2000895109282
:1046F0003F0308953EDE81E056CE60913C0381E0A9
:10470000611101C080E01BCE9091400381E09430A4
:1047100009F080E060913C032ACE42E061EC81E048
:104720006ED242E261EC82E06AD29091400381E075
:10473000943009F080E060913C03E5CD8091420324
:10474000893081F148F4823009F496C0833009F44D
:1047500057C0813041F008958A3009F480C08B3011
:1047600009F468C0089580914103813A09F047C077
:104770008091E800877F8093E800809145039091C5
:104780004603892B59F468E087EF92E070E082D10C
:104790008091E8008B778093E800089560E090E0D6
:1047A00080E0F4CF80914103813249F58091450347
:1047B00090914603029718F58091E800877F8093D7
:1047C000E8008091E80082FF16C09091F30080918C
:1047D000F200029731F48091F100813011F08630BF
:1047E00019F48091F100FDDD8091E8008B778093D2
:1047F000E80039D204C0809140038111E2CF0895CE
:1048000080914103813AD9F7809145039091460305
:10481000892BA9F78091E800877F8093E800809139
:10482000E80080FFFCCFDADD8093F1008091E800A2
:104830008E77DDCF80914103813209F78091450366
:1048400090914603892BD9F68091E800877F809369
:10485000E80009D280914303A6DD0C9414088091EE
:104860004103813261F68091E800877F8093E80000
:10487000FAD180914403CFCD80914103813A09F070
:10488000BECF8091E800877F8093E8008091E800A8
:1048900080FFFCCFD5DDC8CF84B7877F84BF0FB63C
:1048A000F894A895809160008861809360001092D0
:1048B00060000FBE80E890E00FB6F894809361002E
:1048C000909361000FBE6DCD1ED275D2E2EEF0E086
:1048D0008081846080837894D7C488E291E0F4CBAF
:1048E00080914003853029F480914003853011F098
:1048F00026CE0895F9DDAFDD8823B1F380913E0324
:10490000882391F364D00E941408EECF08959A0191
:10491000409147035091480300C0AC01CB01D9013D
:10492000252F332723303105D1F070F421303105A4
:1049300009F43EC02230310569F48BE390E022E9AE
:1049400034E02D933C93089521323105E9F0223271
:10495000310521F190E080E030E020E0F2CFCA01A3
:104960009927413059F08230910559F0EEE8F4E092
:10497000892B81F7849190E09F01E3CFE0E8F4E098
:10498000F9CFEAE6F4E0F6CF892BB9F06130710592
:1049900009F789E090E02DEB34E0D3CF892B91F03B
:1049A00061307105B9F68BE790E02FED34E0C9CFA7
:1049B00082E190E02DEC34E0C4CF89E090E024EA7D
:1049C00034E0BFCF84E490E02AE535E0BACF80E15F
:1049D00089BD82E189BD09B400FEFDCF8091D80078
:1049E0008F7D8093D8008091E00082608093E0000A
:1049F0008091E00081FDFCCF0895AF92BF92CF92ED
:104A0000DF92FF920F931F93CF93DF936C01EB0123
:104A10008A0148D1F82E811123C00115110539F002
:104A2000F80180819181C81BD90BC80ED91EB12C09
:104A3000A12C2097A9F08091E80085FD21C08091EC
:104A4000E8008E778093E80001151105A1F0F801C8
:104A500080819181A80EB91EB182A08285E0F82ED6
:104A60008F2DDF91CF911F910F91FF90DF90CF900D
:104A7000BF90AF90089516D18823D9F2F82EF0CFC9
:104A8000F60181916F018093F1002197FFEFAF1A3A
:104A9000BF0ACFCFFC01CB012091470330914803DF
:104AA0002617370790F0009729F42091E8002E7719
:104AB0002093E80040E0009751F4411108C0809134
:104AC000E80082FF31C080E00895C901F3CF209152
:104AD00040032223A9F12530A9F12091E80023FD0C
:104AE0002DC02091E80022FDEACF2091E80020FFB0
:104AF000E2CF3091F3002091F200009719F02830B6
:104B0000310558F041E02830310509F040E02091AE
:104B1000E8002E772093E800CECF41914093F1003A
:104B200001972F5F3F4FE9CF80914003882341F0E9
:104B3000853041F08091E80083FFC1CF81E0089586
:104B400082E0089583E00895FC01CB0120914703A2
:104B5000309148032617370790F0009729F42091E9
:104B6000E8002E772093E80040E0009751F44111CF
:104B700008C08091E80082FF32C080E00895C9013A
:104B8000F3CF209140032223B1F12530B1F12091E0
:104B9000E80023FD2EC02091E80022FDEACF2091FD
:104BA000E80020FFE2CF3091F3002091F20000975F
:104BB00019F02830310558F041E02830310509F06E
:104BC00040E02091E8002E772093E800CECF44917A
:104BD0004093F100319601972F5F3F4FE8CF8091CE
:104BE0004003882341F0853041F08091E80083FF45
:104BF000C0CF81E0089582E0089583E00895982F62
:104C0000973028F08F708093E90081E008959093A9
:104C1000E900242F762F50E0981731F07091EC00C6
:104C20002091ED005091F00021FD02C09F5FE8CF80
:104C30003091EB003E7F3093EB003091ED003D7FF3
:104C40003093ED003091EB0031603093EB007093C6
:104C5000EC002093ED005093F0002091EE0027FD32
:104C6000E5CF80E008958091410387FF13C08091D4
:104C7000E80082FF06C08091E8008B778093E8000F
:104C800004C0809140038111F2CF089580914003C8
:104C90008823D9F38091E80080FFF8CF8091E80065
:104CA0008E77ECCF2091E4003091E50095E6A901E4
:104CB0002091EC00822F817020FF06C08091E800D7
:104CC00080FF06C080E008952091E80022FD1AC010
:104CD00080914003882389F0853089F08091EB0032
:104CE00085FD0FC02091E4003091E5004217530785
:104CF000F9F29150E1F684E0089582E0089583E0AE
:104D0000089581E0089567D06ED0E0EEF0E08081F4
:104D100081608083E8EDF0E080818F77808319BC2B
:104D2000A7EDB0E08C918E7F8C9380818F7E808305
:104D300010923F0308950F931F93CF93DF934BD0AF
:104D400052D0C8EDD0E088818F77888388818068D1
:104D5000888388818F7D888319BC109240031092CC
:104D60003C0310923E0310923D0300EE10E0F80168
:104D700080818B7F808388818160888342E060E0CE
:104D800080E03DDFE1EEF0E080818E7F8083E2EE27
:104D9000F0E0808181608083808188608083F80179
:104DA00080818E7F8083888180618883DF91CF912D
:104DB0001F910F910895E8EDF0E080818F7E808350
:104DC000E7EDF0E080818160808384E082BF81E054
:104DD00080933F03B0CFE8EDF0E080818E7F808349
:104DE0001092E20008951092DA001092E100089506
:104DF0001F920F920FB60F9211242F933F934F9350
:104E00005F936F937F938F939F93AF93BF93EF9332
:104E1000FF938091E10082FF0AC08091E20082FF4F
:104E200006C08091E1008B7F8093E1002CD28091BD
:104E3000DA0080FF18C08091D80080FF14C08091F4
:104E4000DA008E7F8093DA008091D90080FF8FC0D6
:104E500080E189BD82E189BD09B400FEFDCF81E01A
:104E60008093400338DC8091E10080FF18C080917E
:104E7000E20080FF14C08091E2008E7F8093E20008
:104E80008091E20080618093E2008091D80080628E
:104E90008093D80019BC85E0809340032EDC80917C
:104EA000E10084FF28C08091E20084FF24C080E1FB
:104EB00089BD82E189BD09B400FEFDCF8091D80093
:104EC0008F7D8093D8008091E1008F7E8093E100F8
:104ED0008091E2008F7E8093E2008091E200816009
:104EE0008093E20080913C03882309F445C084E06C
:104EF0008093400309DC8091E10083FF27C080910B
:104F0000E20083FF23C08091E100877F8093E1006E
:104F100082E08093400310923C038091E1008E7FF9
:104F20008093E1008091E2008E7F8093E200809187
:104F3000E20080618093E20042E060E080E05FDEBA
:104F40008091F00088608093F000D4DBFF91EF91B6
:104F5000BF91AF919F918F917F916F915F914F9191
:104F60003F912F910F900FBE0F901F90189519BC75
:104F700010924003BCDB77CF8091E30087FD02C035
:104F800081E0B6CF83E0B4CF1F920F920FB60F929D
:104F900011242F933F934F935F936F937F938F933E
:104FA0009F93AF93BF93CF93DF93EF93FF93D091F2
:104FB000E900DF708091EC00C82FC17080FDC0E86F
:104FC0001092E9008091F000877F8093F000789440
:104FD0001ED01092E9008091F00088608093F0006C
:104FE000CD2BCF70C093E900FF91EF91DF91CF916E
:104FF000BF91AF919F918F917F916F915F914F91F1
:105000003F912F910F900FBE0F901F901895AAE21D
:10501000B0E0ECE0F8E2F4C181E493E0FC01019639
:105020002091F100208323E089349207B9F786DBD1
:105030008091E80083FF16C1809141039091420363
:105040009A3008F00FC1E92FF0E0E057F44D98C115
:10505000803899F0823809F005C1809145038F703E
:10506000873008F0FFC08093E9008091EB0085FB5A
:10507000882780F91092E90006C080913D03909145
:105080003E03911182609091E800977F9093E80031
:105090008093F1001092F1008091E8008E77DFC0DC
:1050A000882309F4CDC0823009F0DCC0809143032D
:1050B0008111D0C0809145038F702FEF280F2630CB
:1050C00008F0D0C08093E9002091EB0020FFC2C01F
:1050D000933031F48091EB0080628093EB00BAC092
:1050E0009091EB0090619093EB0021E030E001C0E3
:1050F000220F8A95EAF72093EA001092EA00809145
:10510000EB008860EACF8111ADC0109143031F7797
:105110008091E3008078812B8093E3008091E80008
:10512000877F8093E8009FDD8091E80080FFFCCFBF
:105130008091E30080688093E30082E0111183E0B6
:10514000809340038FC08058823008F08BC08091DC
:105150004303909144038C3D23E0920799F583E04B
:105160008A838AE289834FB7F894DE01139620E0A0
:105170003EE051E2E32FF0E050935700E49120FF2E
:1051800003C0E295EF703F5FEF708E2F90E0EA3042
:10519000B8F0C7968D939D932F5F243159F74FBF79
:1051A0008091E800877F8093E8006AE270E0CE019A
:1051B000019670DC8091E8008B778093E80052C004
:1051C000C096E8CF6091450370914603AE014F5FF2
:1051D0005F4F9DDBBC01892B09F444C08091E8003E
:1051E000877F8093E80089819A81AEDCE3CF8038A5
:1051F000C9F58091E800877F8093E80080913C03A7
:105200008093F10049CF81112DC0909143039230DA
:1052100048F58091E800877F8093E80090933C03F5
:1052200022DD80913C03882311F084E005C0809149
:10523000E30087FDFACF81E0809340036EDA12C06D
:1052400080914303813071F481E0933009F080E074
:1052500080933E031092E9008091E800877F80935D
:10526000E80001DD8091E80083FF0AC08091E8003A
:10527000877F8093E8008091EB0080628093EB0051
:10528000AA96E3E0D9C00895CF9380914003882384
:1052900099F0C091E900CF709091EC00892F817056
:1052A00090FD80E8C82B1092E9008091E80083FD12
:1052B000AEDECF70C093E900CF910895991B79E0DD
:1052C00004C0991F961708F0961B881F7A95C9F796
:1052D0008095089587FB082E062687FD819567FD3A
:1052E0006195ECDF0EF4919507FC81950895AA1B5A
:1052F000BB1B51E107C0AA1FBB1FA617B70710F0C1
:10530000A61BB70B881F991F5A95A9F780959095F2
:10531000BC01CD01089597FB072E16F4009406D02A
:1053200077FD08D0E4DF07FC05D03EF49095819529
:105330009F4F0895709561957F4F0895A1E21A2EB1
:10534000AA1BBB1BFD010DC0AA1FBB1FEE1FFF1F29
:10535000A217B307E407F50720F0A21BB30BE40B79
:10536000F50B661F771F881F991F1A9469F76095C0
:105370007095809590959B01AC01BD01CF0108957A
:10538000EE0FFF1F0590F491E02D099405D0332313
:1053900012F48A1B9B0B10C0A29FB001B39FC001E7
:1053A000A39F700D811D1124911DB29F700D811D51
:1053B0001124911D0895F0DFB7FF0895821B930B10
:1053C0000895EADFA59F900DB49F900DA49F800DD6
:1053D000911D11240895B7FFF4CFF3DF821B930BC7
:1053E00008952F923F924F925F926F927F928F9289
:1053F0009F92AF92BF92CF92DF92EF92FF920F9364
:105400001F93CF93DF93CDB7DEB7CA1BDB0B0FB66D
:10541000F894DEBF0FBECDBF09942A88398848882A
:105420005F846E847D848C849B84AA84B984C884C0
:10543000DF80EE80FD800C811B81AA81B981CE0FB7
:10544000D11D0FB6F894DEBF0FBECDBFED0108959C
:10545000002E083090F0982F872F762F652F542F2D
:10546000432F322F22270850F4CF220F331F441F1F
:10547000551F661F771F881F991F0A95B2F7002DC9
:10548000089597FD1094002E083098F00850232FAF
:10549000342F452F562F672F782F892F912DF4CF3A
:1054A000159497958795779567955795479537956F
:1054B00027950A95AAF71124002D0895CF92DF921F
:1054C000EF92FF92CF93DF93CDB7DEB72A970FB657
:1054D000F894DEBF0FBECDBF89879A87A985BA85AC
:1054E0002D913D914D915C9129833A834B835C834F
:1054F000232B242B252B41F424E239ED4BE557E0F7
:1055000029833A834B835C8369817A818B819C8177
:105510002DE133EF41E050E0A5D069017A01A7EA1F
:10552000B1E49B01AC014DDF69837A838B839C835B
:10553000ACEEB4EFA701960150DF9B01AC0189816D
:105540009A81AB81BC81820F931FA41FB51FB7FF47
:1055500003C00197A109B048E985FA85808391834A
:10556000A283B3839F772A960FB6F894DEBF0FBE4F
:10557000CDBFDF91CF91FF90EF90DF90CF90089556
:105580009DCF80E091E09ACFB0E0A0E08093000151
:1055900090930101A0930201B09303010895FC01CF
:1055A0004150504030F001900616D1F73197CF01AD
:1055B0000895882799270895FB01DC0104C08D9187
:1055C0000190801921F441505040C8F7881B990B75
:1055D0000895FB01DC0102C001900D924150504042
:1055E000D8F70895F999FECF92BD81BDF89A992711
:1055F00080B50895A6E1B0E044E050E025C0A8E100
:10560000B0E042E050E020C0262FF999FECF92BDD5
:1056100081BDF89A019700B4021639F01FBA20BD77
:105620000FB6F894FA9AF99A0FBE08950396272FA9
:10563000ECDFEADF252FE9DF242FE7CF0196272FC4
:10564000E4DFE2CFDC01CB01FC01F999FECF06C01B
:10565000F2BDE1BDF89A319600B40D924150504030
:10566000B8F70895052E97FB16F400940FD057FD58
:1056700005D064DE07FC02D046F408C05095409582
:10568000309521953F4F4F4F5F4F089590958095EE
:10569000709561957F4F8F4F9F4F0895F894FFCF7E
:1056A0003A063A0672067206CB06E70662066206FC
:1056B000EB06560762076207BE12C512C912CD1269
:1056C000D112D512D912DD12E112E512E912D41C61
:1056D000461DDC1CA61CAA1CE01CAE1CE41CF01C15
:1056E000BA1C3F1DBE1CF41CC21CF81C201DC61C8D
:1056F000FC1C271DCC1C021D0A1DB21CE81CB61C7C
:10570000EC1CD01C061D161D301D3D1DA01CD81CF8
:105710004D1D3D2043202E20372049204F2055206D
:10572000282850283229502832298328A3283229B2
:04573000F72803292A
:10573400010000004E02010102000B000B0B0119D5
:105744001A1B1C1D1E1F202122019600280850012F
:105754001E0A1401000001000822542326234F23AB
:105764004A23E200E900EA00B500B600B700CD0024
:105774008301CC008A0192019401210223022402B4
:105784002502260227022A02B300B4006F0070002B
:105794009F01CB019F02A002E200E900EA00B500EC
:1057A400B600B700CD008301CC008A0192019401B8
:1057B4002102230224022502260227022A02B30020
:1057C400B4006F0070009F01CB019F02A002946699
:1057D40097C63435F4F5F6F731333200010202028C
:1057E400020606060909090909090F0F0F0F0F0F11
:1057F400151515181919191919191919191923240D
:0E58040025252525252539193B194619511949
:00000001FF
