:100000000C94A3020C94DB020C94DB020C94DB0234
:100010000C94DB020C94DB020C94DB020C94DB02EC
:100020000C94DB020C94DB020C9463270C943728AD
:100030000C9480220C94DB020C94DB020C94DB0207
:100040000C94DB020C94DB020C94DB020C94DB02BC
:100050000C94DB020C9407230C94DB020C94DB025F
:100060000C94DB020C94DB020C94DB020C94DB029C
:100070000C94DB020C94DB020C94DB020C94DB028C
:100080000C94DB020C94DB020C94DB020C94DB027C
:100090000C94DB020C94DB020C94DB020C94DB026C
:1000A0000C94DB020C94DB020C94DB022B2F14006B
:1000B0001A00080015001700292104001600070087
:1000C00009000A00E1001D001B00060019000500E0
:1000D0001C0018000C00120013002A000B000D0079
:1000E0000E000F00330034001100100036003700FE
:1000F00038001E7CE30021522C002252E600000052
:100100000100DA00CD00D900000000000100CF009E
:10011000CE00D0005200000001000000000050009E
:1001200051004F00D300D100D2002D002E004C0012
:100130005000510052004F00000001004A004E00E4
:100140004B004D00000001000100010028000100EB
:100150000100000035001E001F00200021002200C9
:1001600001003A003B003C003D003E000100400021
:1001700041004200430044002300240025002600E3
:10018000270031003F002D002E002F0030003102EB
:1001900045002D022E022F02300201000100010055
:1001A0002A0001000100000044003A003B003C002E
:1001B0003D003E00000000000000D300D100D2004E
:1001C0002078217827782378257829783F00400007
:1001D0004100420043004500CF00CE00CD00D000DA
:1001E000AB00007CDB00DA00D900DC00AE000100CF
:1001F0000100010001000100010000001E0F0500C8
:10020000047F3F1F643214643214783C1E1E140AAB
:10021000052223252628292A2C2D2F303233353646
:10022000383A3B3D3E4042434547494A4C4E505187
:10023000535557595A5C5E6062646668696B6D6FAE
:1002400071737577797B7D7F81838587898A8C8EB1
:1002500090929496989A9C9E9FA1A3A5A7A8AAACB9
:10026000AEAFB1B3B4B6B8B9BBBCBEBFC1C2C3C5F3
:10027000C6C7C9CACBCCCDCED0D1D2D2D3D4D5D695
:10028000D7D7D8D9D9DADADBDBDBDCDCDCDCDCDDC8
:10029000DDDDDDDCDCDCDCDCDBDBDBDADAD9D9D8AC
:1002A000D7D7D6D5D4D3D2D2D1D0CECDCCCBCAC944
:1002B000C7C6C5C3C2C1BFBEBCBBB9B8B6B4B3B173
:1002C000AFAEACAAA8A7A5A3A19F9E9C9A9896940E
:1002D00092908E8C8A89878583817F7D7B797775E3
:1002E00073716F6D6B6968666462605E5C5A5957C2
:1002F000555351504E4C4A4947454342403E3D3B81
:100300003A3836353332302F2D2C2A29282625230A
:1003100022FFAA7F554000010101010101010101F5
:1003200002020202020202020203030303030303A6
:100330000304040404040404050505050506060673
:100340000606070707070708080808090909090A30
:100350000A0A0B0B0B0C0C0C0D0D0D0E0E0E0F0FD5
:100360000F10101111111212131314141515161663
:100370001717181819191A1A1B1B1C1D1D1E1E1FD2
:100380002020212222232424252626272829292A21
:100390002B2C2D2D2E2F3031323233343536373849
:1003A000393A3B3C3D3E3F40414243444546474845
:1003B000494A4C4D4E4F50515354555658595A5B1B
:1003C0005D5E5F616264656668696B6C6D6F7072BB
:1003D000737577787A7B7D7E8082838587888A8C27
:1003E0008E8F91939596989A9C9EA0A2A3A5A7A95B
:1003F000ABADAFB1B3B5B7BABCBEC0C2C4C6C9CB52
:10040000CDCFD1D4D6D8DBDDDFE2E4E7E9EBEEF007
:10041000F3F5F8FAFDFF1403720065007600690039
:1004200075006E0067003400310000000C036700A7
:1004300074006900700073000000040309040902DD
:100440003B00020100A0FA090400000103010100C1
:100450000921110100012240000705810308000164
:10046000090401000103000000092111010001221B
:100470007B0007058203200001120100020000003A
:10048000080778CBDC01000102000105010902A187
:100490000185020901A10005091901290815002596
:1004A0000195087501810205010930093115812581
:1004B0007F95027508810609381581257F9501759C
:1004C000088106050C0A38021581257F95017508FB
:1004D0008106C0C005010980A101850319012AB761
:1004E00000150126B700950175108100C0050C09A3
:1004F00001A101850419012AA002150126A0029577
:100500000175108100C005010906A101050719E068
:1005100029E71500250195087501810295017508E7
:1005200081010507190029FF150026FF00950675B2
:1005300008810005081901290595057501910295A5
:100540000175039101C011241FBECFEFDAE0DEBFB9
:10055000CDBF04B603FE18C08091440390914503BB
:10056000A0914603B09147038730904BA740B04B12
:1005700059F41092440310924503109246031092CE
:100580004703E0E0F8E3099511E0A0E0B1E0E4E61C
:10059000F8E502C005900D92A83DB107D9F723E018
:1005A000A8EDB1E001C01D92A434B207E1F70E94AA
:1005B00003130C94DC2B0C94000023E042E061E078
:1005C0000E94F10908958430B8F46730A8F44630E9
:1005D00098F450E096E0699F400D511D1124FA01F6
:1005E0009AE2899FE00DF11D1124EE0FFF1FE455E3
:1005F000FF4F85919491089581E090E008950E94C5
:10060000E30208959C013A9521153F4150F5FC0104
:10061000EE27F170BC0166277270AC01442754705C
:100620009C012227387094FF0EC080E1EF2B09F463
:1006300080E0672B09F08062452B09F08064232B52
:1006400089F08068089581E0EF2B09F480E0672B42
:1006500009F08260452B09F08460232B19F0886033
:10066000089580E00895CF93DF93EB010E94020389
:10067000FE010995DF91CF910895CF93DF93EC01AF
:10068000805E9109089720F061E278E0209711F4EC
:1006900063EE75E0CE010E9433038C2F0E94D604D6
:1006A000DF91CF910895CF93DF93EC010E9468050D
:1006B000CE01805E9109089720F068E278E02097EB
:1006C00011F46AEE75E0CE010E943303DF91CF9101
:1006D000089581E008950E946903089581E00895D6
:1006E0000E94690308950E947003089508950E946E
:1006F00076030895A6E0B0E0E0E8F3E00C94882AE1
:1007000049835A839E833091DF0189819A81311117
:100710001AC03E81332399F0222389F00E94910967
:10072000182F682F89819A810E946D0969817A81C9
:10073000812F0E94A6102696E3E00C94A42A0E9422
:100740007F09182FF3CF0E94910969817A81F1CF37
:10075000FC01262F408151816281738184819581C2
:100760000E947A030895CF93DF93EC0161E00E9429
:10077000A803BE010E946B03DF91CF910895CF9330
:10078000DF93EC0160E00E94A803BE010E947703A2
:10079000DF91CF91089508950E9445080E94CB03F0
:1007A0002FEF84E39CE0215080409040E1F700C0AF
:1007B000000008950E94CC030E942B2308950E94FC
:1007C000CC030E944F2308950F931F93CF93DF9381
:1007D0008C0161E00E94A803EC01B8010E94730340
:1007E000811106C080E0DF91CF911F910F91089594
:1007F000B801CE010E94D21F8823A1F3B801CE0117
:100800000E941E21882371F3B801CE010E94AF1D02
:10081000882341F3B801CE010E949020882311F370
:10082000B801CE010E94111D8823E1F2F8018581F3
:10083000882361F0C330FCE7DF07E9F058F4C11505
:10084000ECE7DE07A9F0C130DC47B9F0C8010E942F
:100850006E03C9CFCB358CE7D807A9F0CC35ECE7D0
:10086000DE0771F0CA35DC4789F70E94FC0DEECF38
:100870000E94DA03B7CF0E94040E0E94DF03B2CFBA
:100880000E94F20DE3CF0E94000EE0CF0E945D2295
:100890000E9471040E945F1B08950E9475040E94CB
:1008A0004E1C0E9462220895089581E008950895E3
:1008B000CF93DF93D82F0E945504C82F882319F0B7
:1008C0008D2F0E9457048C2FDF91CF9108950895AA
:1008D000CF93C82F0E9454048C2F0E945804CF91AC
:1008E000089580E00E94680408950E946C210E948F
:1008F00068040895CF930E946C21C82F8091DA017B
:100900008C1779F0C093DA010E94EC226093DB012E
:100910007093DC018093DD019093DE018C2F0E94A7
:100920006804CF910895ADE0B0E0E9E9F4E00C94FB
:10093000892A488759876A877B878C879D87911189
:100940000E941A0D1F8286E0FE013896DE01119684
:1009500001900D928A95E1F78D8181110DC0298159
:100960003A814B815C816D817E818F810E944D0C2B
:100970002D96E2E00C94A52ACE0101960E94B303C5
:100980008111EDCFF5CFFC012481213021F480814C
:1009900091810E94C3090895662329F00E9487135C
:1009A0000E945A1408950E94E113FACFCF93C82FE2
:1009B0008823C9F08238C9F40E946C2181FD13C0DC
:1009C00089E30E94D20C0E94630D2FEF87EE93E023
:1009D000215080409040E1F700C0000089E30E9470
:1009E000DA0C0E94630DCF9108958338A1F40E9420
:1009F0006C2180FDF8CF83E50E94D20C0E94630D2C
:100A00002FEF81EE94E0215080409040E1F700C04C
:100A1000000083E5E4CF8438A1F40E946C2182FDBC
:100A2000E2CF87E40E94D20C0E94630D2FEF81EE8B
:100A300094E0215080409040E1F700C0000087E43E
:100A4000CECF8CEF8C0F813A90F46C2F8091040103
:100A5000909105010E94EE21882329F08C2F0E949D
:100A6000DA0C0E94630D8C2F0E94D20CBACF80E268
:100A70008C0F883048F4C77081E001C0880FCA9598
:100A8000EAF70E94FD0CADCFEBE5EC0FE33040F44C
:100A9000F0E0ED59FE4F808190E00E949221A3CFBB
:100AA000E8E5EC0FEB3150F4F0E0EE0FFF1FE35DF3
:100AB000FE4F808191810E94B72195CF83E38C0FF7
:100AC000833108F090CF61E08C2F0E94CC048BCF53
:100AD000882309F456C0823879F40E946C2181FF82
:100AE00050C089E30E94D20C0E94630D89E30E94EA
:100AF000DA0C0E94630D0895833859F40E946C212A
:100B000080FF3FC083E50E94D20C0E94630D83E505
:100B1000EECF843859F40E946C2182FF32C087E402
:100B20000E94D20C0E94630D87E4E1CF9CEF980FE6
:100B3000913AE8F290E2980F983050F4877091E083
:100B400001C0990F8A95EAF7892F0E94030DD1CF32
:100B50009BE5980F933028F490E080E00E9492216A
:100B6000089598E5980F9B3128F490E080E00E946A
:100B7000B721089593E3980F933118F460E00E9431
:100B8000CC0408951F93CF93DF93182FEB010E949D
:100B9000D604209739F4812F0E946805DF91CF9108
:100BA0001F9108958FE99FE00197F1F700C00000C1
:100BB0002197EFCF70E060E0893311F460E570E0D9
:100BC0000E94C2050895882321F00E94FD0C0E9416
:100BD000630D0895882321F00E94030D0E94630D88
:100BE0000895B0E0A0E0E7EFF5E00C94822A6C01F4
:100BF000D62FC72FFC011581068102950F700E9428
:100C0000F30CE82E8823E9F0E12E1123D1F08C2F8C
:100C1000807F803451F080E28D0F8830F8F0011130
:100C200004C08C2F807E8032C9F08091FB0282FF4D
:100C300015C082E00E94C60D0E94F30C91E0E82EE0
:100C4000E926BC2EB2949FE0B922FBE0FB15B8F177
:100C5000EB2DF0E0E252F44D0C94422AE12CF1CF5E
:100C60000C2F0F70C07F11F00295007F112399F0B7
:100C7000002359F080E28D0F883010F0D11107C0A9
:100C8000802F0E94FD0C0E94630D8D2F5AC0802F73
:100C90000E940D0DF8CF8D2F0E946805002379F07A
:100CA00080E28D0F883010F0D11104C0802F0E9497
:100CB000030D03C0802F0E94130D0E94630DEB2DC6
:100CC000E850FF0B349720F40E946C210E946804C6
:100CD000EE2089F00E94EF0C80FD0DC0F601158218
:100CE0000E94E90C0E94CB08C6010E94FE070E94E8
:100CF000E90C0E94DB08CDB7DEB7E9E00C949E2A30
:100D00002C2F2F70F22EC07FC03219F0F29480EF9A
:100D1000F822DD2341F0D130D1F1112309F444C090
:100D20000023F1F0B2CF8091FB0282FD15C01123A8
:100D300059F0FF2029F08F2D0E94FD0C0E94630DB9
:100D400080E00E94D604BBCF80E00E946805FF20AF
:100D500009F4B5CF8F2DABCF112369F0011104C079
:100D60008F2D0E94E305ABCF013009F0A8CF8F2D66
:100D70000E94340DA4CF0111A2CF8F2D0E94EA054D
:100D80008F2D0E94400D8F2D0E94240D98CF11238E
:100D900021F0063008F093CFE3CF053008F08FCF75
:100DA0008F2D0E94EA058BCF0023D1F3D93349F46C
:100DB0003FEF87EE93E0315080409040E1F700C074
:100DC00000008D2F0E9468057ACF8C2F869586951E
:100DD000837069F0813009F072CF8D2F9C2F937052
:100DE000111102C080E090E00E94B72168CF8D2FE2
:100DF0009C2F9370111102C080E090E00E9492211C
:100E00005ECF612F8D2F0E94CC0459CF8C2F837021
:100E1000A1F5111154CF4D2F429546954770440FBF
:100E2000440F2D2F2F7030E0042E02C0220F331FED
:100E30000A94E2F790E080E0D4FF09C08FE090E0F0
:100E400002C0880F991F4A95E2F780959095C69544
:100E5000C695C370822B932BC23049F058F4C13031
:100E600019F00E949E082BCF0E94950828CF0E945F
:100E7000A70825CF0E94920822CF8695112311F052
:100E80008C2F8170882309F41ACF4D2F42954695F7
:100E90004770440F440F2D2F2F7030E0042E02C0F6
:100EA000220F331F0A94E2F790E080E0D4FF09C0DC
:100EB0008FE090E002C0880F991F4A95E2F7809575
:100EC0009095C695C695C370822B932BC23049F07E
:100ED00058F4C13019F00E940609F1CE0E94FD08B5
:100EE000EECE0E940F09EBCE0E94B308E8CECF7081
:100EF000112329F08C2F0E94CB088D2F32CF8D2FFC
:100F00000E94EA058C2F0E94DB08D9CED23F41F126
:100F100060F4D03FB9F0D13F81F0112309F446C00D
:100F20000111B3CE8C2F8F711FC0D33F01F1D43F7D
:100F3000A1F78091FB0282FD24C08C2F8F711123B9
:100F400011F312C0112341F0053008F0B8CE8C2FF8
:100F50008F710E94ED08B3CE063008F0B0CEF7CF07
:100F60008C2F8F711111CFCF0E94CB08A8CE1123E7
:100F700029F08C2F8F710E94BF08A1CE0E94BA0861
:100F80009ECE112349F0CF718C2F0E94CB0863E0D5
:100F90008C2F0E94A80D93CE81E00E94C60D0230D6
:100FA00008F48DCE82E00E94C60D89CE002359F050
:100FB000D93309F006CFEFEFF7EE23E0E150F04030
:100FC0002040E1F7FCCE8C2F8F719DCF0F931F93A4
:100FD000CF93DF93EC01688179818D810E94CE09E6
:100FE0008C010E9418090E949108B801CE010E944C
:100FF000F105DF91CF911F910F910895CF93DF936A
:10100000EC018C81882399F0CE010E94E4038111C8
:1010100011C00E94F30C882351F08D81882339F090
:101020008091FB0282FF03C082E00E94C60DDF9127
:10103000CF910895CE010E94E607CE010E94BF0322
:10104000F6CF882321F00E940D0D0E94630D0895B4
:10105000882321F00E94130D0E94630D089590E0F3
:1010600080E00E94922190E080E00E94B7210E94DF
:101070001A0D0E94630D0E9476140E945A1408955E
:101080000E94E20C0E942F0808950E940A0D0E94FF
:101090004008089592959F70963091F058F4925FB1
:1010A0009F70923058F4803F19F030F4883E30F44D
:1010B00081E008959A5FF4CF843FD1F380E00895F2
:1010C000883EB0F3813FD1F7F3CFFC012481222386
:1010D00039F0808191810E94C3090E944A080895D5
:1010E00080E00895A6E0B0E0E8E7F8E00C94892AF3
:1010F0002696E2E00C94A52AA7E0B0E0E2E8F8E04A
:101100000C94892A2796E2E00C94A52A08950E945F
:10111000860808950E9487089093FB018093FA0146
:10112000089508950E948A0808952091FA01309147
:10113000FB01822B932B0E948A0808952091FA01CB
:101140003091FB01822393230E948A080895209105
:10115000FA013091FB01822793270E948A080895A3
:101160000E94DD0208950E94B0089093F9018093D7
:10117000F801089590E080E00E94B308089521E00E
:1011800030E0A90102C0440F551F8A95E2F7CA0159
:101190000E94B308089521E030E002C0220F331FFF
:1011A0008A95E2F78091F8019091F901822B932BB7
:1011B0000E94B308089521E030E002C0220F331FDF
:1011C0008A95E2F7209530958091F8019091F90188
:1011D000822393230E94B308089521E030E002C0E7
:1011E000220F331F8A95E2F78091F8019091F9015F
:1011F000822793270E94B30808952091F801309127
:10120000F901822B932B0E94B30808952091F801D5
:101210003091F901822393230E94B308089520910D
:10122000F8013091F901822793270E94B3080895AD
:101230000895262F277091E001C0990F2A95EAF7AB
:1012400023E0769567952A95E1F7660F771F660F7D
:10125000771FFA01E60FF71F50E040E0682F70E0BB
:101260008191DF0111979B01042E02C036952795CD
:101270000A94E2F7217021952827292328272C9307
:101280004F5F5F4F4430510559F70895A82FA7705D
:1012900023E0969587952A95E1F7880F991F880F87
:1012A000991FFB01E80FF91F50E040E080E0219119
:1012B00030E00A2E02C0369527950A94E2F7217095
:1012C0003327042E01C0220F0A94EAF7822B4F5FC6
:1012D0005F4F4430510559F70895262F973070F429
:1012E000863060F4682F70E086E0989F600D711D75
:1012F000112440EE51E0822F0E9419090895292FF0
:10130000973068F4863058F490E060EE71E036E093
:10131000239F800D911D11240E944609089580E0AD
:101320000895B0E0A0E0E7E9F9E00C94822A7C019E
:101330000091F8011091F9018091FA019091FB015F
:10134000082B192BCFE0D0E0CC24C394D12CBC2E99
:10135000C6010C2E02C0880F991F0A94E2F7802361
:101360009123892B49F4219790F7B12C8B2DCDB780
:10137000DEB7E9E00C949E2AB7018C2F0E94B210D0
:10138000019789F3F3CFCF93DF93EC010E9491098A
:10139000BE010E94B210DF91CF9108951F93CF93A9
:1013A000DF93EB019091DF01992339F0CB010E948B
:1013B000C309DF91CF911F910895882369F0CB0174
:1013C0000E949109182F682FCE010E946D09BE015D
:1013D000812F0E94B210EDCFCB010E947F09182F00
:1013E000F6CFE1E0F0E0DF0102C0AA0FBB1F6A9573
:1013F000E2F7BD01DF0102C0AA0FBB1F4A95E2F769
:10140000AD01462B572B02C0EE0FFF1F2A95E2F7C6
:101410009A01282339232417350719F48E2B9F2B83
:101420000895E095F0958E239F2308951F93CF9301
:10143000DF93C091FC0117E08091FD018C1304C083
:10144000DF91CF911F910895D0E01C9FF0011D9F67
:10145000F00D1124E250FE4F2081318142815381F1
:101460006481758186810E947C082196C770E4CFD3
:101470002091360230913702409138025091390262
:1014800060913A0270913B0280913C020E947C087C
:101490000895CF93DF9380913C02807F09F04DC087
:1014A00080913B02882309F448C0E091FC015091EF
:1014B000FD01C0913702D0913602609138027091DF
:1014C000390247E05E17C9F18E2F90E0E49FF001EA
:1014D0001124E250FE4F2481222391F1489FF00114
:1014E000499FF00D1124DF01A250BE4F11962C919F
:1014F00011972C1325C02C912D1322C015962C91D9
:10150000159721111DC012962D913C91261B370B6A
:101510002F3A3105A8F480913C028F70806180934E
:101520003C02EC5FFD4F80818F708061808386E399
:1015300092E00E94FE070E94160ADF91CF91089563
:10154000FC013196E770BECF482F2091FC019091AD
:10155000FD0157E0291302C080E0089530E0529F5A
:10156000F001539FF00D1124E250FE4F818168136A
:1015700006C08081481303C085818111EECF2F5FA3
:101580003F4F2770E7CFA4E1B0E0E9ECFAE00C941C
:101590007F2A8C0186E0F801DE011F9601900D92F2
:1015A0008A95E1F7F8018481E58096E3A92E92E01F
:1015B000B92E90913A0291111FC08823D1F0EE20EC
:1015C000A9F0C8010E946508F82E882379F087E009
:1015D000F801D50101900D928A95E1F7C5010E94AD
:1015E000C3040E94490A0E94380A5FC0C8010E94D1
:1015F000FE07FF24F39459C0C080D180828093807D
:10160000F0903B022091380230913902A401421B34
:10161000530BFF2009F4F9C04F3A510508F0A7C059
:10162000882309F442C09091370280913C02282F10
:10163000207F09F05CC09D1116C090913602C9123E
:1016400012C0E1104EC08F70806180933C020E94F6
:10165000380A86E392E00E94FE0780913C02F8017E
:101660008683F12C22C0E1103CC06D2D8C2D0E9490
:10167000A40A6D2D8C2D0E94A40AE82E8111F1CFB1
:10168000CF86D88A8F8598890E94C309292F2295F1
:101690002F70243078F49F702230A8F09923B9F08D
:1016A000F8019681907F99F4FE2C8F2D6496ECE0E2
:1016B0000C949B2A2A5F2F70223068F0C8010E9488
:1016C000FE07EF2CF1CF992311F0882369F3805E98
:1016D000883050F3F3CF803F38F3815F833070F769
:1016E000E3CF80913C02816080933C02BACF9D1190
:1016F00013C090913602C9120FC0E1100DC086834D
:10170000C8010E94FE0787E0F801A6E3B2E001905D
:101710000D928A95E1F767CFC8010E94650888237A
:1017200009F464CFEE2009F461CF80913C0280324D
:1017300088F02091360230913702398728879B86BE
:101740008A8690913A029C871D868E87CE010896E4
:101750000E94FE0787E0F801A6E3B2E001900D9237
:101760008A95E1F70E94490A0E94380A42CF909177
:101770003C02292F207FA1F4682D9A8A898AA6012C
:101780007A899E2D0E94720886E392E00E94FE07ED
:1017900087E0F50111928A95E9F70E94380A61CF36
:1017A000882309F482CF809137028D1110C0809177
:1017B0003602C8120CC0E1100AC09683C8010E940C
:1017C000FE0787E0F50111928A95E9F76ECFC8010F
:1017D0000E946508882309F409CFEE2009F406CF9A
:1017E00080913C02803208F4B5CF209136023091CE
:1017F00037023A8329839C828B8290913A029D839F
:101800001E828F83CE010196A3CF4F3A5105B8F5C2
:10181000882309F4EECEFE2CEE2009F4E7CE809169
:1018200037028D111EC080913602C8121AC08091F5
:101830003C0280FD0DC0982F907F51F08683903F31
:1018400009F45ECF982F907F905F8F70892B57CFD0
:1018500087E0F801A6E3B2E001900D928A95E1F7E6
:1018600024CFC8010E946508811174CF80913C0289
:10187000816080933C02C8010E94FE0716CF682D4C
:101880009A8A898AA6017A899E2D0E94720887E029
:10189000F50111928A95E9F7A6CEAEE0B0E0E3E556
:1018A000FCE00C94882A288739874A875B876C87F5
:1018B0007D878E87CE0108960E94C30A8823B1F0E7
:1018C0006C85662341F0288539854A855B857D8551
:1018D0008E850E947C0817E08091FC019091FD01AB
:1018E00089133DC02E96E3E00C94A42A87E0FE0104
:1018F0003896DE01119601900D928A95E1F78C855C
:10190000882349F32091FD0130E0C90101968770D9
:1019100099274091FC014817190699F097E0929F8A
:10192000D001939FB00D1124A250BE4FFE013196FD
:1019300001900D929A95E1F78093FD010E94160A9D
:10194000CACF0E9445081092FD011092FC0187E069
:10195000E6E3F2E0DF011D928A95E9F7BCCF819FB3
:10196000C001112482509E4F0E94C30A882309F4AB
:10197000B9CFE091FC011E9FF0011124E250FE4F0F
:1019800020813181428153816481758186810E94E9
:101990007C088091FC0190E00196877099278093E4
:1019A000FC019ACF682F80910401909105010E945B
:1019B00024220895682F80910401909105010E94CE
:1019C0002722089580910401909105010E942A2206
:1019D0000895809145028695869586950895809113
:1019E00045028770089590914502977081E009F44F
:1019F00080E0089580915102089590915102892BC1
:101A0000809351020895809590915102982390936C
:101A10005102089510925102089590915002892B1D
:101A2000809350020895809590915002982390934E
:101A3000500208951092500208958091470208952F
:101A400008950E94200D089590914602292F282381
:101A500031F080958923809346020E94210D0895DC
:101A600008950E94300D089590914702292F282350
:101A7000281729F0982B909347020E94310D089562
:101A800090914702292F282331F080958923809354
:101A900047020E94310D08959091FB0292FF08C009
:101AA00090914702981721F0809347020E94310DD0
:101AB000089580914702882329F01092470280E020
:101AC0000E94310D0895CF93DF93E0910401F091CE
:101AD0000501809151028083E0910401F09105019C
:101AE000808190915002892B8083909147029923A5
:101AF00081F0E0910401F09105018081892B8083C0
:101B000080910401909105010E94DC2181110E94C5
:101B1000590DC0910401D091050148E050E06DE3FA
:101B200072E0CE010E944F2B892B59F088E0FE0114
:101B3000ADE3B2E001900D928A95E1F7CE010E94EB
:101B40007921DF91CF91089508950E94A40D089501
:101B50009091FB0292FF11C098E0899F900111249F
:101B6000622B609345020E94CB08809145028695C6
:101B7000869586950E94A50D08950E94CB0808952C
:101B80001092450280E00E94A50D089590914502B3
:101B90008095892380934502282F277069F489173F
:101BA00059F09091FB0292FF07C086958695869525
:101BB0000E94DB080E94C00D08959091FB0292FBE9
:101BC000222720F9281769F080FB92F99093FB02F5
:101BD0008091FA029091FB020E94250E82E00E9401
:101BE000C60D08958091FB0282FB882780F991E061
:101BF00089270E94DD0D089581E00E94DD0D089582
:101C000080E00E94DD0D08956FEF7FEF90E080E0AF
:101C10000E94A72B089590E080E00E94732B21E0A2
:101C2000863E9E4F09F020E0822F089582E090E0EA
:101C30000E94652B089583E090E00E94652B089533
:101C400084E090E00E94732B0895BC0184E090E052
:101C50000E94A72B0895AB01BC018FE090E00E9489
:101C60009B2B0895AB01BC0183E190E00E949B2B6C
:101C7000089560E070E0CB010E94320E089560E0AC
:101C800070E0CB010E942B0E0E94390E0895A8E04F
:101C9000B0E0EDE4FEE00C94892A66EE7EEF90E081
:101CA00080E00E94A72B60E082E090E00E94892BF8
:101CB00060E083E090E00E94892B1092FB0110927B
:101CC000FA0160E074E184E090E00E94A72B60E0FC
:101CD00086E090E00E94892B6FEF87E090E00E9401
:101CE000892B40E050E0BA0188E090E00E949B2BF5
:101CF00060E084E290E00E94892B60E087E190E060
:101D00000E94892B60E08CE090E00E94892B60E0CB
:101D10008DE090E00E94892B19821A821B821C821E
:101D20001D821E821F82188648E050E068E170E044
:101D3000CE0101960E94792B40E050E0BA0180E28A
:101D400090E00E949B2B0E943F0E2896E2E00C94AC
:101D5000A52A0E94470E0895682F8EE090E00E9409
:101D6000892B0895A6E0B0E0E8EBFEE00C94872A0A
:101D70000E94E0228C0180915202909153028017C0
:101D8000910781F019821A820E94E022682F49810E
:101D90005A81792F80E090E00E94930410935302BF
:101DA000009352022696E4E00C94A32A0E94EC22AF
:101DB00060935F027093600280936102909362026D
:101DC00060935B0270935C0280935D0290935E026D
:101DD0000895089508950E94EA0E089508950E94B6
:101DE000EE0E089581E008958CE991E10E94622150
:101DF0000E94E90E0E94EB0E08950E94F20E0895D3
:101E00000E94FD0E0895089508950E94030F0E94F8
:101E1000040F08950E949F110E94670408950E9474
:101E2000D7220E9466120E940A0F0E94021C0E9482
:101E3000EF0E0895A6E0B0E0E0E2FFE00C94802A07
:101E40000E94F20E81110EC00E94B20E0E94A11FCC
:101E50000E94581C0E9498140E947A042696EBE077
:101E60000C949C2A0E947C1284E5A82E82E0B82E55
:101E7000750110E0F70101917F01812F0E94C511CA
:101E80001F5F173009F441C00817A1F38091630266
:101E900081FD0E94CB110E94000FC82E10E09924F2
:101EA0009394812F0E94C511082FF50181915F0144
:101EB000081729F1D02ED826F12CEE24E3948D2D8D
:101EC0008E21A9F0CC2099F0F9821A830E94E02299
:101ED0009C838B839D8291E0802F8E2109F490E07A
:101EE00049815A816B817C818D810E949304F39496
:101EF000EE0CF6E0FF12E3CFF501319700831F5F90
:101F0000173079F60E94D60EA1CF0813BFCF9CCF11
:101F10001F93CF93DF930E94B710EC01C11580E5AA
:101F2000D807F0F5C11580E4D80708F09CC0C03E82
:101F3000D10520F5CD3CD10508F082C0C83AD105C5
:101F400078F4C53AD10508F073C0C130D10519F154
:101F5000209709F1C430D105F0F4D0E0C0E01BC0F7
:101F6000C33CD105D0F7C85AD0E0CC0FDD1FCA5909
:101F7000DE4F0990D881C02DD4640DC0C11580E218
:101F8000D80708F0D1C0C11581E0D80708F05AC0C1
:101F9000C83ED10510F7CE01DF91CF911F91089572
:101FA000C03682E5D80718F5C03482E5D80708F0B6
:101FB0006BC0C03282E5D80708F05FC0C11582E56A
:101FC000D80708F497C02C2F2695269580E2289FE5
:101FD000900111248C2F8370C1E0D0E002C0CC0F9F
:101FE000DD1F8A95E2F7C22BD32BDD68D4CFC03A30
:101FF00082E5D80760F4C03882E5D80708F459C0F4
:10200000CF71D0E0DC2FCC27C46FD06AC4CFC03CE6
:1020100082E5D80708F462C0C03E82E5D80708F020
:102020009CCFDC2FCC27CC27DF71C06FD06AB3CF19
:10203000C55AD0E0C456DE4FC881D0E0D064ABCFE3
:10204000D065A9CF8D2F0E945911182FCE01992745
:102050000E94B710C12FD0E0DC2FCC27CC27DF7136
:10206000C82BD92B98CFCE0199270E94B710CC2727
:10207000DF70C82BD92BD06A8ECFCF71D0E0DC2F88
:10208000CC27C16FD06A87CF2C2F26952695277035
:1020900080E2289F900111248C2F8370C1E0D0E052
:1020A00002C0CC0FDD1F8A95E2F7C22BD32BDC6870
:1020B00072CF2C2F26952695277080E2289F9001BD
:1020C00011248C2F8370C1E0D0E002C0CC0FDD1F43
:1020D0008A95E2F7C22BD32BDA685DCF8C2F8F71F4
:1020E0000E945911C82FD0E0DC2FCC27CC27DF71FC
:1020F000D06251CF8C2F8F710E94591155E0D69527
:10210000C7955A95E1F7CF70D0E0DC2FCC27282F68
:1021100030E084FF05C044E0220F331F4A95E1F709
:10212000C22BD32BD06937CF8D2F8F710E945911BD
:10213000182FCE0199270E94B710C12FD0E0DC2FB5
:10214000CC27CC27DF71C82BD92BD2CF462F7730A5
:1021500030F4663020F4672F0E94FF02089590E06B
:1021600080E008950E94A6100E94880F089582388A
:102170009105B9F1B0F48133910509F47DC048F4BB
:102180008932910509F46DC08A32910509F47BC04A
:1021900008958533910509F45FC08933910509F1EC
:1021A0000895833E9105D9F138F4803E910529F1D7
:1021B000823E910579F10895863E9105D9F1873ED9
:1021C000910509F43EC0843E910541F52091FB0242
:1021D00021FF24C08091FA0284FD19C087EE90E0AF
:1021E00008952091FA02237009F05AC02091FB0251
:1021F00023FF14C089E290E008952091FA0220FDA7
:1022000038C03091FB0230FF09C024FF43C090E08A
:1022100080E008952091FA0222FDF7CF08952091E1
:10222000FA0222FD3AC03091FB0230FD39C024FF92
:10223000F5CFEDCF2091FA0223FFF0CF24FDE7CFB9
:10224000CDCF2091FA0223FD2EC03091FB0231FF49
:10225000EECF84EE90E008952091FA0225FFDECFC4
:10226000C9CF2091FA0225FD21C02091FB0223FF56
:10227000D5CF89E390E0D2CF2091FA0226FFCECFCE
:102280008AE290E008952091FA0226FFC7CF81E309
:1022900090E0089583EE90E0089582EE90E0089536
:1022A00080EE90E0089586EE90E0089585E390E05A
:1022B00008959091FA0292FF06C0282F28712830C5
:1022C000F9F4877F846093FF06C0282F2871283196
:1022D000F1F4877E84612091FB0220FF06C0382F35
:1022E00038713830D9F4877F816021FF06C0282FEC
:1022F00028712831D1F4877E816194FD877E08950D
:10230000282F24712430F9F68B7F8860DCCF282FAA
:102310002471243101F78B7E8861DDCF382F317134
:10232000313019F78E7F8860E0CF282F217121315D
:1023300021F78E7E8861E1CF80E0089508950E94A4
:102340000B0E811102C00E94A90E0E94160E8093EE
:1023500063020E94200E9093FB028093FA020E9477
:102360009E110E941B0E90E00E9492088091F8013D
:102370009091F9010E94B008089508950E94BD113E
:10238000089508950E94C1110895E82FF0E0ED5FCF
:10239000FC4F80810895089580EA8A95F1F70895A9
:1023A00000C008950E94CC110895F894E82FE2959A
:1023B000EF70F0E031A1282F2F7081E090E001C094
:1023C000880F2A95EAF7982F9095932391A392A1CD
:1023D000892B82A378940895CF93DF93C5EAD1E047
:1023E00089918F3F11F00E94D51181E0CC3AD80736
:1023F000B9F7CFE9D1E089918F3F11F00E94D51153
:1024000081E0C53AD807B9F7DF91CF910895B0E0E0
:10241000A0E0EDE0F2E10C94832AEC01D62E062F29
:1024200010E0C8018B559E4F7C01FC0180818F3FDD
:1024300009F445C0F894E82FE295EF70F0E091A11F
:102440008F7021E030E001C0220F8A95EAF7892FD2
:10245000822B81A382A12095282322A378940E9415
:10246000D011EFE9F1E045EA51E031E0C12C2191D2
:102470002F3F51F1A22FA295AF70B0E090968C91B2
:1024800090E02F7002C0959587952A95E2F780FD20
:102490001BC0832FC82A330F4E175F0741F7F70180
:1024A00080818F3F11F00E94D51161E0C11001C001
:1024B00060E08D2D0E94D211C00FD11FC882CDB710
:1024C000DEB7E8E00C949F2A80E0E4CF0E94EC1194
:1024D00087E0E3E0F3E0DF01982F1D929A95E9F79A
:1024E000ECEFF2E0DF011D928A95E9F787E00E94A8
:1024F000B7120E94BE110895A7E0B0E0E2E8F2E151
:102500000C94862A8E010F5F1F4F87E0F80111920D
:102510008A95E9F7F12C6F2DC8010E940712F394F8
:10252000F7E0FF12F8CF47E050E0B8018CEF92E0FF
:102530000E944F2B21E0009709F420E0892B41F005
:1025400087E0F801ACEFB2E001900D928A95E1F7D7
:1025500047E063E073E08CEF92E00E94B812182F1E
:102560000E94C211812F2796E5E00C94A22A0895BB
:10257000CF92DF92EF92FF920F931F93CF936C0154
:102580007B01042F222349F081E0809366020E94A0
:10259000E0229093650280936402C0916602C111AB
:1025A0000AC0C0E08C2FCF911F910F91FF90EF9048
:1025B000DF90CF90089580916402909165020E940F
:1025C000F822059770F310E0A801B601C7010E9438
:1025D0004F2B892B41F0A801B601C7010E945C2B4B
:1025E00010926602DFCFC0E0FBCF0E94B4240E94AD
:1025F0000F0F0E94C12408950E94C6240E941A0F42
:102600000E94E02408950E9479220E949A240E9448
:10261000F40E0E94F5120E94FC120E94050FFBCFDF
:1026200080916D0280FF0DC060910B0170E0660F1C
:10263000771F6038710570F56115710569F1862F96
:10264000089581FF07C060910B0184E0689FB0018D
:102650001124EFCF60910B0182FD0AC080916C02C2
:102660008823A9F020910A0160910B01821710F0D4
:1026700088E0ECCF869FC001112433E0880F991FBA
:102680003A95E1F7622F70E00E940C2AD2CF68E001
:1026900070E0D5CF8FE7089581E0089580916D02B5
:1026A00080FF0CC06091070170E075956795759586
:1026B00067956115710549F1862F089581FF06C060
:1026C0006091070170E075956795F3CF6091070100
:1026D00082FD0BC090916B029923A1F060910601DD
:1026E00080910701961738F0682F70E06038710507
:1026F00000F38FE70895899FC001112470E00E94C4
:102700000C2AF4CF61E070E0D7CF81E008958D3CD2
:1027100031F40E94101381958093710208958E3CCC
:1027200019F40E941013F8CF8F3C31F40E9410135B
:102730008195809370020895803D19F40E941013D2
:10274000F8CF893D29F40E944E13809372020895B8
:102750008A3D21F40E944E138195F7CF8B3D31F4D1
:102760000E944E1381958093730208958C3D19F455
:102770000E944E13F8CF9FE2980F983070F4815D5D
:10278000990B21E030E001C0220F8A95EAF7809191
:102790006F02822B80936F0208958D3D31F48091FA
:1027A0006D02816080936D0208958E3D21F48091C9
:1027B0006D028260F7CF8F3DB9F780916D02846022
:1027C000F1CF409170028D3C59F48091710287FFE6
:1027D0000DC01092710241110BC010926C0208C022
:1027E0008E3C81F48091710218169CF3442381F091
:1027F0008091720290917302892B09F05AC0109255
:102800006B0208958F3C49F447FFF0CF109270029D
:10281000809171028111ECCFE0CF803D19F4141644
:10282000ACF3E4CF90917202893D29F41916F4F6C5
:1028300010927202DBCF8A3D19F497FFD7CFF8CF01
:10284000909173028B3D29F497FFD0CF10927302C1
:10285000CDCF8C3D19F41916CCF3C8CF9FE2980F59
:10286000983090F4815D990B21E030E0B90102C00D
:10287000660F771F8A95E2F7CB01809590916F02E2
:10288000892380936F02B2CF8D3D31F480916D0228
:102890008E7F80936D02AACF8E3D21F480916D02D0
:1028A0008D7FF7CF8F3D09F0A1CF80916D028B7F97
:1028B000F0CF08950E94E0229C01909170028091D7
:1028C0007102982B21F030936A0220936902909153
:1028D000720280917302982B21F03093680220934A
:1028E00067028EE692E00E948421089586E0EEE67B
:1028F000F2E0DF011D928A95E9F710926C021092C6
:102900006B0210926D020895FC01828181110EC04C
:10291000838181110BC08481811108C091E0858180
:10292000811101C090E0892F8170089581E0FCCF72
:10293000A6E0B0E0EEE9F4E10C94882A86E0EEE649
:10294000F2E0DE01119601900D928A95E1F7109266
:1029500070021092710210927202109273028B81B7
:102960009C81892B89F08091690290916A020E9472
:10297000F822AC0190916C029923C9F180910C016D
:102980008417150608F440C08D819E81892B91F033
:1029900080916702909168020E94F822AC019091A8
:1029A0006B02992309F471C0809108018417150600
:1029B00008F479C0BE016F5F7F4F8EE692E00E94FF
:1029C0003122811105C08EE692E00E9484148111AB
:1029D0000E945A1486E0FE013196AEE6B2E0019004
:1029E0000D928A95E1F72696E3E00C94A42A2091B3
:1029F0000D018AE0289F900111242417350720F645
:102A00009F5F90936C0202C09F3FD1F71B811123FF
:102A100059F00E9410139FEF11160CF491E0899F5A
:102A2000802D1124809370021C81112359F00E9483
:102A300010139FEF11160CF491E0899F802D112443
:102A40008093710230917002332309F49DCF20915D
:102A50007102222309F498CF45EB3403C0011124FD
:102A6000992359F09093700245EB240390011124AF
:102A7000332339F03093710287CF81E08093700265
:102A8000F3CF81E0809371027FCF209109018AE02A
:102A9000289F900111242417350708F08BCF9F5FE2
:102AA00090936B0202C09F3FD1F71D81112359F013
:102AB0000E944E139FEF11160CF491E0899F802D18
:102AC0001124809372021E81112359F00E944E132B
:102AD0009FEF11160CF491E0899F802D11248093B3
:102AE000730230917202332309F464CF2091730290
:102AF000222309F45FCF45EB3403C001112499234D
:102B000059F09093720245EB240390011124332372
:102B100039F0309373024ECF81E080937202F3CF8D
:102B200081E08093730246CFEF92FF920F931F9341
:102B3000CF93DF93EB01E82FD1110EC0442321F096
:102B4000F0E0EA5EFC4FE4916E2F7E2F8E2FCDB722
:102B5000DEB7E6E00C94A12A0D2F10E0282F30E01C
:102B6000442329F02A5E3C4FF901249130E0F6E03D
:102B7000CF9FC0011124EFEFF0E0BF010E94F829C0
:102B8000AB018C2F90E0880F991FA5E5A49FB001A1
:102B9000A59F700D1124861B970B982F990F980FE6
:102BA000BF01601B710B629FD001639FB00D729FCC
:102BB000B00D11248B2F9D9FB0011124672F772713
:102BC000EF01C61BD70BBE01629FE001639FD00DD2
:102BD000729FD00D11247F01E91AF108E09EB00127
:102BE000E19E700DF09E700D1124672F7727E61B74
:102BF000F70BE29F8001E39F100DF29F100D11244F
:102C0000E12F722F4230510599F048F441155105DA
:102C100069F04130510581F0EB2F8D2F07C0443012
:102C2000510569F080F046305105B1F76E2F8FCF16
:102C3000E22F7B2F812FFACFE22F7D2FF7CFEB2FC3
:102C4000822F712FF3CF7B2F822FED2FEFCF41E01B
:102C50000E949415089508950E9427160895CF9311
:102C6000DF93762FE901682F842F0E942C16798339
:102C700068838A83DF91CF91089580910A03982F0A
:102C80009E7F29F48170826080930A0308958635BF
:102C9000E8F381708465F8CFB0E0A0E0E2E5F6E10A
:102CA0000C94832A88E090E00E946D2B6B017C01DC
:102CB00084E290E00E94652B282F30E040E050E055
:102CC00060E070E080E090E000E20E94B02AB22F65
:102CD000A32FF42FE52FD62FC72F97018601BC29EC
:102CE000A12BFE295E2F532B2B2F3A2F4F2F6D2F09
:102CF0007C2FCDB7DEB7E8E00C949F2AB0E0A0E0CF
:102D0000E4E8F6E10C947F2A49015A016B017C0149
:102D10000E943D168401A4016A2D7B2D88E090E07D
:102D20000E949B2B94014A2D5B2DB601C70100E246
:102D30000E94CB2A622F84E290E00E94892BCDB7BB
:102D4000DEB7ECE00C949B2AEAE0F3E083E08083BA
:102D500011828FEF828383831482758123E030E0B8
:102D60004FEF5FEF60E0868197810E947E160895A5
:102D700080910A0380FF02C08695089580E008953F
:102D800090910E03933018F49F5F90930E03882365
:102D900091F020910A0330910B0340910C03509164
:102DA0000D0360910E0370910F03809110039091B9
:102DB00011030E947E16089581E00E94C0160895B6
:102DC00090910E03992319F0915090930E0388234C
:102DD00091F020910A0330910B0340910C03509124
:102DE0000D0360910E0370910F0380911003909179
:102DF00011030E947E16089581E00E94E016089556
:102E000070E00E94831D08956091120180910A0371
:102E100080FF0BC08091110123E0829FC00111242B
:102E20008E5E9C4F0E94001708958091130190912F
:102E3000140123E0829FF0011124EE5EFC4F8917FC
:102E400048F71182108212828F5F3396F8CF9091EB
:102E50000A0390FF0EC0909113012091140133E0FA
:102E6000939FF0011124EE5EFC4F921718F00E9420
:102E7000041708958183608342839F5F3396F5CF63
:102E8000A3E0B0E0E6E4F7E10C94892A90910A030C
:102E900090FF0AC09E012F5F3F4F0E942F164B816B
:102EA00069818A810E9427172396E2E00C94A52A63
:102EB000CF93DF93EC01EC81F0E0EF5EFD4F4491A6
:102EC000EAE0F3E0628181810E9440178C818F5F8C
:102ED0008C83DF91CF910895CF93DF93EC01EAE0EB
:102EE000F3E0438162818C810E9440178C818F5F67
:102EF0008C83DF91CF910895A3E0B0E0E2E8F7E1A1
:102F00000C94872A8C018091740281110AC09E0161
:102F10002F5F3F4F4FEF6FEF0E942F168A818093F4
:102F20007402F8016481613069F08091740240E0BC
:102F3000662361F040E0623011F44091740280E059
:102F400060E004C06091740240E080E00E942717B6
:102F5000F801848190E0019663E070E00E940C2A01
:102F600084832396E4E00C94A32AA3E0B0E0EBEB87
:102F7000F7E10C94822A082FD62EF42EC22E9091BF
:102F80000A0390FF2EC0E92FE695AE2FB0E0A455BE
:102F9000BE4F8C918093B7029E7F923031F59E0197
:102FA0002F5F3F4F802F0E942F164B8169818A81AE
:102FB0000E94271700930B03D0920C03F0920D038D
:102FC000CC2079F020910A0360910E0370910F03D9
:102FD000302F4D2D5F2D80911003909111030E9491
:102FE0007E162396E9E00C949E2A823019F4F09024
:102FF0000D03E0CF863019F400910B03DBCF89304D
:10300000D9F38931B9F6E9516E2F6170B62EE69584
:10301000F0E0EF5EFC4F1491E12C60911501E61693
:1030200018F00E940417C6CFE19EC001112470E081
:103030000E94F829802FB11014C0860F209113012F
:10304000622F6E0D7727771F9B01220F331F260FEC
:10305000371F2E5E3C4F4F2D6D2D0E942F16E3948F
:10306000DCCF861BEBCFEAE0F3E09181282F438190
:10307000628180E1890F0E94B517089581E00E9466
:1030800033180895EAE0F3E09181282F43816281AB
:1030900080EF890F0E94B517089581E00E944218C1
:1030A0000895EAE0F3E0628120E1620F08F46FEF37
:1030B000282F438181810E94B517089581E00E94E5
:1030C00051180895EAE0F3E0628120E1621B08F400
:1030D00060E0282F438181810E94B517089581E027
:1030E0000E9462180895EAE0F3E0438120E1420F74
:1030F00008F44FEF282F628181810E94B51708954F
:1031000081E00E9473180895EAE0F3E0438120E132
:10311000421B08F440E0282F628181810E94B5178C
:10312000089581E00E948418089520E00E94B51758
:103130000895EF92FF921F93CF93DF93EC0110E07D
:10314000EE24EA94F12C60911501161770F00E949C
:1031500004179A818C8190FF27C08F5F8C83DF9149
:10316000CF911F91FF90EF90089520911301422F6E
:10317000410F5527551FCA019A01220F331F280FEF
:10318000391F2E5E3C4F70E0C7010E940C2A962F1B
:103190008C8140910D0360910C03199F800D1124C7
:1031A0000E942F161F5FCFCF8150D8CFB0E0A0E094
:1031B000ECEDF8E10C94812AFC0182810FEF80FF95
:1031C00001E010E04BE0A42E80911501181798F053
:1031D0000E94041780917602013009F04FC08111DE
:1031E00002C080911501815080937602CDB7DEB781
:1031F000EAE00C949D2AC0911301C12ED12CCC0D74
:10320000DD2DD11DCE01880F991FC80FD91FCE5EAD
:10321000DC4F198218821A8234E0E32EF12CB12C93
:10322000809176028B0D8C301CF16A2D0E94EA2968
:10323000892F082E000C990BC816D90691F480919D
:103240000D038E9DA0018F9D500D1124559547951E
:10325000559547959E0160910C0380910B030E9448
:103260002F16B00EF1E0EF1AF108D1F61F5FACCFC8
:1032700087FFDFCF90911501890FDBCF90E001969A
:103280006091150170E00E940C2AAECF0F931F933E
:10329000CF93DF93809113019091140123E0829FDB
:1032A000F0011124EE5EFC4F891740F1C0E0D3E03D
:1032B00060911501C61740F10E94041720910F017B
:1032C00080917502820F8093750290911001920F88
:1032D00090931001191654F4082E000C990B40918C
:1032E00015014150550B841795071CF0219520932B
:1032F0000F01DF91CF911F910F91089511821082DC
:1033000012828F5F3396D0CF0C2F10E070E0C8018F
:103310000E940C2A20911301820F482F50E0209127
:103320007502022E000C330B02171307BCF020911C
:103330001001022E000C330B201731077CF08D9FFB
:10334000900111242E5E3C4F40910D0360910C03BF
:1033500080910B030E942F16CF5FAACFFA01EE0FC8
:10336000FF1FE40FF51FEE5EFC4F118210821282E8
:10337000F3CFB0E0A0E0EFEBF9E10C947F2AEC0191
:103380004C81042F10E09801D8010E94502A9B0123
:10339000AC010E94662A4B015C01E0E2F0E0E01B18
:1033A000F10BA5E5B0E0AC019B010E94662A6B0120
:1033B0007C019F01DF010E94482A9B01AC010E9411
:1033C000712A9B01AC01280D391D4A1D5B1DC701E7
:1033D000B6010E94202AF22E822F90E039E23F159A
:1033E00020F143E0249F9001112435952795122F59
:1033F000109500E085E5E82EEF188091150108177B
:1034000018F10E9404179C8181E0992319F09032F1
:1034100019F48FEF80930E0180910E01890F8C8338
:10342000CDB7DEB7ECE00C949B2A25E530E0B9017E
:10343000681B790B9B01220F331F260F371F37FFA5
:10344000D4CF2F5F3F4FD1CF8E2D01FD8F2D2091F7
:103450001301622F600F7727771F9B01220F331F05
:10346000260F371F2E5E3C4F412F60910C030E94A8
:103470002F160F5FC2CF0F931F93CF93DF93EC01F3
:1034800010E000E0909115019017110609F06CF41E
:103490000E9404178C8190E00196817099278C839B
:1034A000DF91CF911F910F91089520911301A801F1
:1034B000420F511D9A01220F331F240F351F2E5E1C
:1034C0003C4F4C8160910C0380910B0396959017B3
:1034D000110651F04CF0442349F040910D030E9435
:1034E0002F160F5F1F4FCECF4423B9F340E0F7CF25
:1034F000B0E0A0E0EEE7FAE10C947B2AFC016280E8
:10350000448081E08483E1E1F2E07490E0E9F2E05C
:10351000E491C0910D03C695C158D0E0CC0FDD1FDA
:10352000CD2FDD27812C75E0972EAA24AA94B12CEB
:1035300055245A94E719EE2EF12C80911501881626
:1035400038F00E940417CDB7DEB7E0E10C94972A5B
:10355000C82CD12C82E0861568F09C9CF0019D9CC3
:10356000F00D1124E958FD4F80910B038083809169
:103570000C038183411023C09C9CF0019D9CF00DA5
:103580001124E958FD4F1382128220911301C601C4
:10359000820F911D9C01220F331F280F391F2E5EB1
:1035A0003C4F9C9CF0019D9CF00D1124E958FD4F6F
:1035B0004281618180810E942F168394BECF9C9CA2
:1035C00080019D9C100D112409581D4FF801838125
:1035D0008823F1F081508383859DC001112464818B
:1035E00070E00E94F829FB01FF27EF5EFD4F8491F8
:1035F000E82FE719E59DC0011124B7010E94F829C1
:1036000080910D03689FB0011124F8017283BDCF32
:103610000E94322BB5010E940C2A8C179D070CF0DA
:10362000B4CFF2E0F61598F40E94322BB5010E9457
:103630000C2AF80180830E94322B20910C032695DE
:10364000622F70E00E940C2A280FF80121839C9CB5
:10365000F0019D9CF00D1124E958FD4F12828091DC
:103660000D03893C58F088EC9C9CF0019D9CF00D6A
:103670001124E958FD4F8483838387CF8431A0F7D9
:1036800084E1F2CFEAE0F3E020812E7F20833181D4
:103690004281538164817581868197810E947E1663
:1036A0001092B8020E9404170895EAE0F3E08081C6
:1036B0008E7F80831092B8020E94041708951092A2
:1036C000B8028091B50281110AC081E08093B502F1
:1036D00080910A0381708093B4020E94551B089563
:1036E00060910A03669570E04BE050E086E191E05E
:1036F0000E94422B892B19F481E08093B8020E942A
:10370000E0229093AF028093AE02089590910A0355
:1037100090FF33C09170811131C0926090930A0381
:10372000662391F020910A0330910B0340910C0322
:1037300050910D0360910E0370910F03809110035F
:10374000909111030E947E1660910A03669570E0C5
:103750004BE050E086E191E00E94422B892BA9F0DA
:103760001092B80281E08093B10240910D03609104
:103770000C0380910B030E94951808958B3210F072
:103780009465CCCF880F982BC9CF0E94701BEACFCD
:10379000682F90910A03969581E0890F8B3208F08B
:1037A00081E00E94861B089581E00E94C81B089555
:1037B000682F90910A0396958FEF890F09F48AE29A
:1037C0000E94861B089581E00E94D81B089561E045
:1037D0000E94861B0895EAE0F3E080818160808387
:1037E00086950E94E71B089580910A0380FF03C01D
:1037F0000E94421B08950E94EB1B089560E00E9406
:10380000861B08958091B60281113EC00E940B0E66
:10381000811104C00E94A90E0E94A4160E944C1699
:1038200020930A0330930B0340930C0350930D0332
:1038300060930E0370930F03809310039093110312
:103840002E7FA1F40E94A4160E944C1620930A0316
:1038500030930B0340930C0350930D0360930E03BE
:1038600070930F0380931003909311030E943D16F1
:103870001092B80280910A0380FF03C086950E94CF
:10388000FE1B81E08093B6020895EAE0F3E08081B8
:103890008160808386950E94FE1B08951092B50278
:1038A0008091B40281110E94451C0E94701B0895F2
:1038B0000F931F93CF93DF938091B8028823B9F1C0
:1038C0008091B702E0910A03E695E81BE093B0020D
:1038D000823091F5F0E0E35FFD4FE491CE2FD0E030
:1038E00008E517E18091B102882361F01092B102DE
:1038F0000E94E0229093AF028093AE021092B30236
:103900001092B2020E94E022E091AE02F091AF026A
:103910008E1B9F0B8F3F9F4750F4EC0FFD1FF093C2
:10392000AF02E093AE028EEA92E0F8010995DF91D2
:10393000CF911F910F910895863049F4F0E0E65F32
:10394000FD4FE491CE2FD0E00CE617E1CBCF8930CC
:1039500051F4E695F0E0E95FFD4FE491CE2FD0E021
:1039600009E918E1BFCF8F3051F4E695F0E0EC5F44
:10397000FD4FE491CE2FD0E006ED18E1B3CF8531B5
:1039800049F4F0E0EF5FFD4FE491CE2FD0E006E484
:1039900019E1A8CFC8E2D0E009EB19E1883109F4B8
:1039A000A1CF833239F4EFEFF1E0C591D4910CE768
:1039B00017E198CFC4EFD1E00BE31AE1843209F4A8
:1039C00091CFC0EDD7E00BE216E1853209F08ACF46
:1039D0008E2F63E00E94DE29E92FF0E0E450FE4FD5
:1039E000E491CE2FD0E008E71AE17CCFFA018111F3
:1039F00001C0FB0109950895CF93DF93C82FD62FFF
:103A00000E94B8168C1748F00E94B8168D1728F43B
:103A10000E94D41BDF91CF9108958C2F0E94E71B49
:103A2000F9CF1F93CF93DF93EC01FB0115811111A7
:103A300010C00E94FA0C8272FE01E052F847E53194
:103A4000F10508F05EC0E651F44D0C94422A0E9444
:103A5000F41B812FDF91CF911F91089543EE5BE11D
:103A600064ED7BE10E94F61CF4CF44ED5BE163EE74
:103A70007BE1F8CF4DE458E16EE378E1F3CF4EE31C
:103A800058E16DE478E1EECF4FE658E16EE578E17C
:103A9000E9CF4EE558E16FE678E1E4CF41E958E13E
:103AA00060E878E1DFCF40E858E161E978E1DACF1A
:103AB0004CEF56E16CED76E1D5CF4CED56E16CEF75
:103AC00076E1D0CF81E00E94E71BC3CF65E082E0C2
:103AD0000E94FC1CBECF68E086E0FACF6EE089E071
:103AE000F7CF64E18FE0F4CF67E185E1F1CF88E1C2
:103AF000EACF62E289E1ECCF83E2E5CF6AE285E2D8
:103B0000E7CF11E0A6CF539A4BB1477F5BB1586026
:103B1000EFB7F8949B01220F331F260F371F280F92
:103B2000391F2817390741F4EFBF8FE594E001975B
:103B3000F1F700C000000895DC016D91CD0178E03F
:103B40005BB9000000C067FF4BB9660F000000C002
:103B500000C000C04BB900C07A9591F7E2CFCF9377
:103B6000DF93EC01FB018581882309F4D2C09E011B
:103B700030572332310508F0B2C00E94200E9093D6
:103B8000FB028093FA02FE01E150F047E232F105B8
:103B900020F4E150F44D0C94422A8091FA028160A5
:103BA0008093FA0293C08091FB0288608093FB02AD
:103BB0008DC08091FA028260F3CF8091FA02846016
:103BC000EFCF8091FA028860EBCF8091FB02816099
:103BD000EDCF8091FB028260E9CF8091FA02806193
:103BE000DFCF8091FA028062DBCF8091FA0280649D
:103BF000D7CF0E9445088091FA028068D1CF80918A
:103C0000FA028C60CDCF8091FB028360CFCF809190
:103C1000FA028E7FC5CF8091FB02877FC7CF80914C
:103C2000FA028D7FBDCF8091FA028B7FB9CF809150
:103C3000FA02877FB5CF8091FB028E7FB7CF80914C
:103C4000FB028D7FB3CF8091FA028F7EA9CF809146
:103C5000FA028F7DA5CF8091FA028F7BA1CF0E94BF
:103C600045088091FA028F779BCF8091FA02837F7B
:103C700097CF8091FB028C7F99CF8091FA0282FBD3
:103C8000992790F921E0922790FB82F990FB83F924
:103C900087CF8091FB02982F909591708E7F892B12
:103CA00090FB81F983CF9091FA02892F8F7B96FF49
:103CB000806476CF0E9445089091FA02892F97FB85
:103CC00087F980586DCF81E00E94AC0E8091FA0296
:103CD0009091FB020E94250E0E94450880E0DF9132
:103CE000CF91089580E0F0CF9091FA02892F8F7ED6
:103CF00094FF806155CF9091FA02892F8E7F90FFBB
:103D000081604ECF9091FB02892F877F93FF88605F
:103D10004DCF81E0E4CF80912101877F8093210105
:103D200082E00E94130D8091210184FF06C08F7EE6
:103D30008093210182E00E94FD0C8091210185FF8A
:103D400006C08F7D8093210180E20E94FD0C0E94BD
:103D5000630D089580E008958B32910539F040F4A9
:103D60009C012E5131092A30310558F481E0089523
:103D70008D32910530F089339105C0F38436910579
:103D8000A9F30E94AA1E0895CF93DF93EC01662346
:103D900019F082E00E940D0DCE01905281159043E2
:103DA00008F4DD27CE010E943D03DF91CF910895F5
:103DB0009C0130522115304308F499270E94530387
:103DC0000895FC0123E0F695E7952A95E1F7EE7159
:103DD000FF27E754FD4F20813181AC014F705527FB
:103DE00081E090E002C0880F991F4A95E2F76623B0
:103DF00029F0822B932B9183808308958095909551
:103E000082239323F8CFFC0123E0F695E7952A95CA
:103E1000E1F7EE71FF27E754FD4F8F70992721E0FE
:103E200030E002C0220F331F8A95E2F78081918132
:103E30002823392381E0232B09F480E00895EF92B1
:103E4000FF920F931F93CF93DF93EC017B018A01C5
:103E50008091210182FF5DC02091E0023091E1025A
:103E60002C173D0719F0209709F053C090912101BC
:103E70009B7F9093210161E091FD10C08091E2024F
:103E80009091E302A701481B590B61E08091220148
:103E9000909123014817590708F460E06170809100
:103EA000210160FB81F980932101C9010E94E11E7B
:103EB0000E94FA0C81FF08C08091210180618093EB
:103EC000210182E00E94030D0E94FA0C85FF08C0C8
:103ED0008091210180628093210180E20E94030D84
:103EE0006091210166956170A8018091E002909136
:103EF000E1020E94C41E6091210166956170A801D3
:103F00008091E0029091E1020E94D81E0E948B1ED7
:103F10000FC0CE010E94031FA801682FCE010E948E
:103F2000D81E8091E0029091E102C817D90771F381
:103F3000F092E302E092E202CDB7DEB7E6E00C9445
:103F4000A12A8091210182FF19C00E94E0222091C4
:103F5000E2023091E302AC01421B530B209122019B
:103F6000309123014217530748F049ED52E0BC015C
:103F70008091E0029091E1020E941F1F08959091AC
:103F80002101892F8E7F90FF8160809321010E9403
:103F90008B1E0895809121018E7F809321010E94C4
:103FA0008B1E0895CF92DF92EF92FF921F93CF93D3
:103FB000DF93EC017B010E94E0226C01F701858117
:103FC0008823A9F18091210182FF07C049ED52E0C9
:103FD000B60190E080E00E941F1FC431FCE7DF07BC
:103FE00019F1C5312CE7D20751F0C3318CE7D8075E
:103FF00041F48091210181608093210102C00E94DF
:10400000BF1FCE01905281159043F8F41092E10247
:104010001092E00211E0812FDF91CF911F91FF906C
:10402000EF90DF90CF9008950E94CA1FEACF809151
:1040300021018F7EC13ED10531F0C53ED105A1F5EC
:10404000809121018F7D809321018091210180FF4A
:10405000E1CFB701CE010E94AC1EF7011581882384
:1040600009F45BC0112309F452C00E94FA0C182F06
:104070000E941D0D812B8D7FE9F01092E1021092BC
:10408000E00260E0CE010E94E11EA70160E0CE01E7
:104090000E94C41E0E941D0D8D7F0E944C0D82E067
:1040A0000E94C60D10E0B7CFCE019052811590430B
:1040B00060F6B0CF87E0F701A9EDB2E001900D9274
:1040C0008A95E1F71092DE021092DC021092DB0278
:1040D0000E94FA0C182F0E941D0D812B9091210136
:1040E00081FB91F9909321010E941D0D8D7F0E940B
:1040F0004C0DD093E102C093E002D092E302C09253
:10410000E20280912101846080932101C8CFA70140
:10411000B601CE010E941F1F7ECF111177CF7ACF3B
:10412000CF93DF93EB0186319C4711F50E94FA0C87
:104130009D81992399F08A7A91E009F490E0909317
:10414000E402811109C089E20E94D20C0E94630D31
:1041500080E0DF91CF91089585E3F6CF8091E4026E
:10416000811104C089E20E94DA0CF0CF85E3FBCF15
:1041700081E0EFCF0F931F93CF93DF93C42FD22F04
:10418000FC0185818823C9F04093E7020E94E02268
:104190009093E6028093E50280E28C0F883040F431
:1041A000C77081E001C0880FCA95EAF70E94E30555
:1041B000DF91CF911F910F9108951091E702141391
:1041C00032C08091E5029091E6020E94F8228F3A77
:1041D000910548F5C0E2CD0F1D17B9F080E2810FBF
:1041E000883040F4177081E001C0880F1A95EAF713
:1041F0000E94EA05C83048F481E09D2F977001C005
:10420000880F9A95EAF70E94E305802F0E94DA054D
:10421000C83070F6D77081E001C0880FDA95EAF7F0
:104220000E94EA05C5CF80E28C0F883008F6C7707F
:1042300081E001C0880FCA95EAF7F2CF0F93DB0146
:1042400088519C4787309105A0F5FC01EF5DF34D47
:104250000C94422A06E221EE41EE6AE17CE7CD01B0
:104260000E94BA2080E00F91089507E225EE45EE06
:104270006BE17CE7F4CF06E221EE40EE68E17CE7FB
:10428000EECF07E225EE44EE69E17CE7E8CF06E2F7
:1042900021EE42EE6CE17CE7E2CF07E225EE46EE4E
:1042A0006DE17CE7DCCF08E221E045EE6EE17CE7E2
:1042B000D6CF15968C91882319F01092E702D3CFB0
:1042C00081E0D1CF9093D9018093D8010895909344
:1042D000ED028093EC020895E091EC02F091ED0282
:1042E000309729F00190F081E02D0995089580E044
:1042F0000895E091EC02F091ED02309721F00280F8
:10430000F381E02D09950895E091EC02F091ED0222
:10431000309739F022E0DC012C930480F581E02D08
:1043200009950895A3E0B0E0E8E9F1E20C94892A48
:104330002091EA023091EB0228173907A1F09093FF
:10434000EB028093EA02E091EC02F091ED023097EB
:1043500051F023E029839B838A830680F781E02D37
:10436000CE01019609952396E2E00C94A52AA3E0DC
:10437000B0E0EDEBF1E20C94892A2091E802309153
:10438000E90228173907A1F09093E9028093E80227
:10439000E091EC02F091ED02309751F024E0298396
:1043A0009B838A830680F781E02DCE0101960995D3
:1043B0002396E2E00C94A52A9C012E5F3F4FAC01AE
:1043C000485F5F4F80E02417350709F40895F9012D
:1043D00091919F019923B9F38F5FF5CF662349F03F
:1043E000FC01329608962191261729F0E817F90763
:1043F000D1F780E0089581E008959C01FC01329698
:104400009FEF80E04191461751F09F3F19F4411111
:1044100001C0982F8F5F8630A9F79F3F09F4089558
:10442000290F311D97FD3A95F90162830895FC012A
:10443000329608962191261303C0DF0111971C9232
:10444000E817F907B9F708950E94FD2108950E9421
:1044500017220895029626E0FC0111922A95E9F7A9
:10446000089546E050E00E944F2B21E0892B09F48B
:1044700020E0822F089508950E943B220895811123
:1044800006C081E08093EE020E943C22089582E003
:10449000F9CF83E08093EE020E943C2208950E94AF
:1044A0003F22089581E08093EE020E943C2208950D
:1044B0000E9452220895089508950E945C22089552
:1044C000089508950E945B220895CF930E94602270
:1044D0000E947C120E946122C0E08C2F0E94C511B4
:1044E000811105C0CF5FC730C1F7CF91089581E03A
:1044F000FCCF85B7806885BF85B7806885BF089584
:104500001F921FB61F9211248F939F93AF93BF9357
:104510008091EF02811113C0809133039091340395
:10452000A0913503B09136034196A11DB11D809332
:10453000330390933403A0933503B0933603BF91B4
:10454000AF919F918F911F901FBE1F9018958091E2
:104550003B03843031F10E9446041092EF0288E15F
:1045600090E020E40FB6F894A895809360000FBE09
:104570002093600083B7817F846083BF83B78160AD
:1045800083BF7894889583B78E7F83BF0FB6F894E6
:10459000A89580916000886180936000109260000F
:1045A0000FBE08950E9445080E944D04089582E0C0
:1045B00084BD93E095BD9AEF97BD80936E000895FA
:1045C0002FB7F8948091330390913403A091350371
:1045D000B09136032FBF08952FB7F894609133033D
:1045E0007091340380913503909136032FBF089565
:1045F0009C014FB7F8948091330390913403A091BC
:104600003503B09136034FBF821B930B0895789406
:104610001F921FB61F9211248F939F93AF93BF9346
:104620008091330390913403A0913503B091360308
:104630000196A11DB11D8093330390933403A09381
:104640003503B0933603BF91AF919F918F911F9027
:104650001FBE1F90189581E08093E00080E2809358
:10466000D8001092C9008FE19EE40197F1F700C0D5
:10467000000087E090EBDC018093440390934503B6
:10468000A0934603B093470388E19CE00FB6F894EB
:10469000A895809360000FBE90936000FFCF88E1E3
:1046A0009CE00FB6F894A895809360000FBE90939D
:1046B0006000FFCF8091F80208959B01BA019091AC
:1046C0003B039430E9F48F708093E9009FEF809171
:1046D000E800915085FD06C085ED8A95F1F7000050
:1046E0009111F5CF8091E80085FF0AC050E040E0CD
:1046F000C9010E9457258091E8008E778093E800D9
:10470000089543E050E0BC0182E00E945D230895DB
:1047100046E050E0BC0182E00E945D230895CF9303
:10472000DF93EC0148E050E0BC0181E00E945D2392
:1047300088E0FE01A0EFB2E001900D928A95E1F7CA
:10474000DF91CF91089580913A03811109C00E94B1
:10475000E7260E9444278091E20084608093E20073
:10476000089510923A0308950E945222089560918C
:10477000370381E0611101C080E00E944922089561
:1047800090913B0381E0943009F080E06091370321
:104790000E944F22089542E061EC81E00E9463266E
:1047A00042E261EC82E00E94632690913B0381E04B
:1047B000943009F080E0609137030E943F22089511
:1047C00080913D03833009F461C030F48130D1F130
:1047D000823009F49EC008958A3009F48AC08B3073
:1047E00009F46FC0893009F050C080913C038132D8
:1047F00009F04BC08091400390914103029708F06B
:1048000044C08091E800877F8093E8008091E800B1
:1048100082FF37C09091F3008091F200029731F44B
:104820008091F100813011F0863021F48091F10007
:104830008093F8028091E8008B778093E8000E94D3
:10484000972623C080913C03813AF9F48091E800D7
:10485000877F8093E8008091400390914103892BEA
:1048600061F468E080EF92E070E00E94A6258091FC
:10487000E8008B778093E800089560E090E080E0A6
:10488000F3CF80913B038111C1CF089580913C0308
:10489000813AD9F78091400390914103892BA9F780
:1048A0008091E800877F8093E8008091E80080FF96
:1048B000FCCF80912C018093F1008091E8008E77ED
:1048C000BCCF80913C03813201F7809140039091ED
:1048D0004103892BD1F68091E800877F8093E8001F
:1048E0000E94972680913E0380932C010E944508E8
:1048F000089580913C03813241F68091E800877FE2
:104900008093E8000E94972680913F038093F902EC
:10491000089580913C03813A09F0B7CF8091E80077
:10492000877F8093E8008091E80080FFFCCF809132
:10493000F902C1CF84B7877F84BF0FB6F894A895DA
:1049400080916000886180936000109260000FBECB
:1049500080E890E00FB6F894809361009093610036
:104960000FBE0E94582208950E94E7260E94442705
:10497000E2EEF0E080818460808378940E94C32915
:10498000089584E291E00E946721089580913B039D
:10499000853031F480913B03853019F00E94D2229A
:1049A00008950E94A72280913903882399F30E94D9
:1049B0006522882379F30E9441250E944508EACFA9
:1049C00008959A0140914203509143030E94E924C3
:1049D0000895492F55274330510519F168F44130A6
:1049E000510509F444C04230510509F445C090E036
:1049F00080E050E040E025C04132510549F14232AB
:104A00005105A9F780E490E046E055E06115710595
:104A1000C1F08BE790E04BE854E06130710589F01C
:104A2000E6CF99278130910581F0009729F0029710
:104A3000F1F6E6E1F4E002C0EAE3F4E0849190E00C
:104A4000AF01F901518340830895ECE2F4E0F6CF21
:104A500089E090E040E554E06115710591F389E04B
:104A600090E049E654E06130710559F3C0CF82E12E
:104A700090E049E754E0E5CF8BE390E04EE354E06B
:104A8000E0CF80E189BD82E189BD09B400FEFDCFA0
:104A90008091D8008F7D8093D8008091E000826063
:104AA0008093E0008091E00081FDFCCF0895AF92FB
:104AB000BF92CF92DF92FF920F931F93CF93DF931A
:104AC0006C01EB018A010E94B626F82E811123C0E9
:104AD0000115110539F0F80180819181C81BD90BAE
:104AE000C80ED91EB12CA12C2097A9F08091E80006
:104AF00085FD22C08091E8008E778093E800011543
:104B00001105A1F0F80180819181A80EB91EB18232
:104B1000A08285E0F82E8F2DDF91CF911F910F910C
:104B2000FF90DF90CF90BF90AF9008950E94B6267F
:104B30008823D1F2F82EEFCFF60181916F01809397
:104B4000F1002197FFEFAF1ABF0ACECFFC01809191
:104B500042039091430386179707A0F061157105F2
:104B600029F49091E8009E779093E80090E0611519
:104B7000710551F4911108C08091E80082FF34C0A2
:104B800080E00895BC01F2CF80913B038823C1F1FE
:104B90008530C1F18091E80083FD30C08091E8004C
:104BA00082FDEACF8091E80080FFE1CF8091F300A1
:104BB0002091F200382F6115710519F02830310568
:104BC00058F091E02830310509F090E02091E8009C
:104BD0002E772093E800CBCF81918093F100615034
:104BE00071092F5F3F4FE7CF80913B03882341F04E
:104BF000853041F08091E80083FFBECF81E00895C9
:104C000082E0089583E00895FC0180914203909131
:104C1000430386179707A0F06115710529F4809169
:104C2000E8008E778093E80090E06115710551F4FB
:104C3000911108C08091E80082FF35C080E008959E
:104C4000BC01F2CF80913B038823C9F18530C9F1C3
:104C50008091E80083FD31C08091E80082FDEACFB9
:104C60008091E80080FFE1CF8091F3002091F20075
:104C7000382F6115710519F02830310558F091E091
:104C80002830310509F090E08091E8008E7780931C
:104C9000E800CBCF84918093F10031966150710987
:104CA0002F5F3F4FE6CF80913B03882341F0853053
:104CB00041F08091E80083FFBDCF81E0089582E05C
:104CC000089583E00895982F973028F08F7080938F
:104CD000E90081E008959093E900242F762F50E0B9
:104CE000981731F07091EC002091ED005091F00098
:104CF00021FD02C09F5FE8CF3091EB003E7F3093F3
:104D0000EB003091ED003D7F3093ED003091EB00F2
:104D100031603093EB007093EC002093ED005093E2
:104D2000F0002091EE0027FDE5CF80E0089580910E
:104D30003C0387FF13C08091E80082FF06C080918A
:104D4000E8008B778093E80004C080913B038111D9
:104D5000F2CF089580913B038823D9F38091E80036
:104D600080FFF8CF8091E8008E77ECCF2091E400AF
:104D70003091E50095E6A9012091EC00822F817029
:104D800020FF06C08091E80080FF06C080E0089503
:104D90002091E80022FD1AC080913B03882389F00E
:104DA000853089F08091EB0085FD0FC02091E400F3
:104DB0003091E50042175307F9F29150E1F684E093
:104DC000089582E0089583E0089581E008950E94A7
:104DD00056270E945E27E0EEF0E0808181608083AC
:104DE000E8EDF0E080818F77808319BCA7EDB0E01B
:104DF0008C918E7F8C9380818F7E808310923A037A
:104E000008950F931F93CF93DF930E9456270E941C
:104E10005E27C8EDD0E088818F778883888180689D
:104E2000888388818F7D888319BC10923B03109200
:104E30003703109239031092380300EE10E0F801A6
:104E400080818B7F808388818160888342E060E0FD
:104E500080E00E946326E1EEF0E080818E7F808317
:104E6000E2EEF0E0808181608083808188608083D1
:104E7000F80180818E7F8083888180618883DF91C3
:104E8000CF911F910F910895E8EDF0E080818F7E22
:104E90008083E7EDF0E080818160808384E082BFE1
:104EA00081E080933A030E9401270895E8EDF0E045
:104EB00080818E7F80831092E20008951092DA0044
:104EC0001092E10008951F920F920FB60F921124D5
:104ED0002F933F934F935F936F937F938F939F9302
:104EE000AF93BF93EF93FF938091E10082FF0BC0DC
:104EF0008091E20082FF07C08091E1008B7F809368
:104F0000E1000E94C2298091DA0080FF19C08091DF
:104F1000D80080FF15C08091DA008E7F8093DA0080
:104F20008091D90080FF96C080E189BD82E189BD72
:104F300009B400FEFDCF81E080933B030E94A323D0
:104F40008091E10080FF19C08091E20080FF15C0D0
:104F50008091E2008E7F8093E2008091E200806188
:104F60008093E2008091D80080628093D80019BCC1
:104F700085E080933B030E94B7238091E10084FF8A
:104F80002BC08091E20084FF27C080E189BD82E1CF
:104F900089BD89B5982F917080FFFBCF8091D80093
:104FA0008F7D8093D8008091E1008F7E8093E10017
:104FB0008091E2008F7E8093E2008091E200816028
:104FC0008093E20080913703882309F449C084E08C
:104FD00080933B030E94C0238091E10083FF29C09E
:104FE0008091E20083FF25C08091E100877F80935C
:104FF000E10082E080933B03109237038091E1004F
:105000008E7F8093E1008091E2008E7F8093E200AA
:105010008091E20080618093E20042E060E080E005
:105020000E9463268091F00088608093F0000E94C7
:10503000B423FF91EF91BF91AF919F918F917F9199
:105040006F915F914F913F912F910F900FBE0F90F5
:105050001F90189519BC10923B030E94B12370CF8A
:105060008091E30087FD93E090933B03B3CF1F92C1
:105070000F920FB60F9211242F933F934F935F938C
:105080006F937F938F939F93AF93BF93CF93DF9350
:10509000EF93FF93D091E900DF708091EC00C82F6F
:1050A000C17080FDC0E81092E9008091F000877F18
:1050B0008093F00078940E947B281092E900809100
:1050C000F00088608093F000CD2BCF70C093E90092
:1050D000FF91EF91DF91CF91BF91AF919F918F9110
:1050E0007F916F915F914F913F912F910F900FBEE4
:1050F0000F901F901895AAE2B0E0E1E8F8E20C9456
:10510000882A8CE393E02091F100FC012193CF01E8
:10511000F3E084349F07B9F70E94E0238091E80010
:1051200083FF1EC180913C0390913D039A3008F0AB
:1051300017C1E92FF0E0E85DF34D0C94422A803866
:1051400099F0823809F00CC1809140038F7087304C
:1051500008F006C18093E9008091EB0085FB882769
:1051600080F91092E90006C08091380390913903CC
:10517000911182609091E800977F9093E80080936E
:10518000F1001092F1008091E8008E77E5C088234D
:1051900009F4D3C0823009F0E3C080913E0381114D
:1051A000D6C0809140038F702FEF280F263008F073
:1051B000D7C08093E9002091EB0020FFC8C0933056
:1051C00031F48091EB0080628093EB00C0C090913D
:1051D000EB0090619093EB0021E030E001C0220FE2
:1051E0008A95EAF72093EA001092EA008091EB009A
:1051F0008860EACF8111B4C010913E031F7780917F
:10520000E3008078812B8093E3008091E800877F22
:105210008093E8000E9497268091E80080FFFCCFF1
:105220008091E30080688093E30082E0111183E0C5
:1052300080933B0395C08058823008F091C08091E4
:105240003E0390913F038C3D23E09207A1F583E05C
:105250008A838AE289834FB7F894DE01139620E0AF
:105260003EE051E2E32FF0E050935700E49120FF3D
:1052700003C0E295EF703F5FEF708E2F90E0EA3051
:10528000C0F0C7968D939D932F5F243159F74FBF80
:105290008091E800877F8093E8006AE270E0CE01A9
:1052A00001960E94A6258091E8008B778093E80004
:1052B00057C0C096E7CF6091400370914103AE01A3
:1052C0004F5F5F4F0E94E124BC01892B09F448C065
:1052D0009091E800977F9093E80089819A810E94DD
:1052E0000426E1CF8038E1F58091E800877F809344
:1052F000E800809137038093F10045CF811130C0E1
:1053000090913E03923060F58091E800877F809312
:10531000E800909337030E949726809137038823F3
:1053200011F084E005C08091E30087FDFACF81E0B1
:1053300080933B030E94CB2313C080913E038130B6
:1053400079F481E0933009F080E080933903109282
:10535000E9008091E800877F8093E8000E9497260B
:105360008091E80083FF0AC08091E800877F8093E6
:10537000E8008091EB0080628093EB00AA96E3E066
:105380000C94A42A0895CF9380913B038823A1F025
:10539000C091E900CF709091EC00892F817090FD51
:1053A00080E8C82B1092E9008091E80083FD0E94FC
:1053B0007B28CF70C093E900CF910895991B79E0C5
:1053C00004C0991F961708F0961B881F7A95C9F795
:1053D0008095089587FB082E062687FD819567FD39
:1053E00061950E94DE290EF4919507FC8195089540
:1053F000AA1BBB1B51E107C0AA1FBB1FA617B707FB
:1054000010F0A61BB70B881F991F5A95A9F7809516
:105410009095BC01CD01089597FB072E16F40094DA
:1054200007D077FD09D00E94F82907FC05D03EF48B
:10543000909581959F4F0895709561957F4F089540
:10544000A1E21A2EAA1BBB1BFD010DC0AA1FBB1F88
:10545000EE1FFF1FA217B307E407F50720F0A21BFA
:10546000B30BE40BF50B661F771F881F991F1A9467
:1054700069F760957095809590959B01AC01BD0191
:10548000CF010895EE0FFF1F0590F491E02D0994D0
:105490000E94502A332312F48A1B9B0B0C94612A1E
:1054A000A29FB001B39FC001A39F700D811D112465
:1054B000911DB29F700D811D1124911D08950E94B0
:1054C000502AB7FF0895821B930B08950E94502A1B
:1054D000A59F900DB49F900DA49F800D911D112448
:1054E0000895B7FF0C94662A0E94662A821B930BCC
:1054F00008952F923F924F925F926F927F928F9278
:105500009F92AF92BF92CF92DF92EF92FF920F9352
:105510001F93CF93DF93CDB7DEB7CA1BDB0B0FB65C
:10552000F894DEBF0FBECDBF09942A883988488819
:105530005F846E847D848C849B84AA84B984C884AF
:10554000DF80EE80FD800C811B81AA81B981CE0FA6
:10555000D11D0FB6F894DEBF0FBECDBFED0108958B
:10556000002E083090F0982F872F762F652F542F1C
:10557000432F322F22270850F4CF220F331F441F0E
:10558000551F661F771F881F991F0A95B2F7002DB8
:10559000089597FD1094002E083098F00850232F9E
:1055A000342F452F562F672F782F892F912DF4CF29
:1055B000159497958795779567955795479537955E
:1055C00027950A95AAF71124002D08958F929F928E
:1055D000AF92BF92CF92DF92EF92FF92CF93DF9381
:1055E000EC01688179818A819B8161157105810552
:1055F000910521F464E279ED8BE597E02DE133EF3D
:1056000041E050E00E94BD2B49015A019B01AC01D1
:10561000A7EAB1E40E94662A6B017C01ACEEB4EF0C
:10562000A50194010E94742ADC01CB018C0D9D1D03
:10563000AE1DBF1DB7FF03C00197A109B048888305
:105640009983AA83BB839F77DF91CF91FF90EF90DF
:10565000DF90CF90BF90AF909F908F9008950E9461
:10566000E62A089580E091E00E94E62A0895B0E0DD
:10567000A0E08093000190930101A0930201B093F8
:1056800003010895FC014150504030F0019006168E
:10569000D1F73197CF010895882799270895FB0105
:1056A000DC0104C08D910190801921F441505040DB
:1056B000C8F7881B990B0895FB01DC0102C001901B
:1056C0000D9241505040D8F70895F999FECF92BD00
:1056D00081BDF89A992780B50895A6E1B0E044E02D
:1056E00050E00C94AF2BA8E1B0E042E050E00C9405
:1056F000AF2BDC01A40FB51F4150504048F0CB0147
:10570000840F951F2E910E948A2B41505040D0F754
:105710000895262FF999FECF92BD81BDF89A019781
:1057200000B4021639F01FBA20BD0FB6F894FA9AE9
:10573000F99A0FBE08950396272F0E948A2B0E9484
:10574000892B252F0E948A2B242F0C948A2B0196BB
:10575000272F0E948A2B0C94892BDC01CB01FC01A2
:10576000F999FECF06C0F2BDE1BDF89A319600B4BA
:105770000D9241505040B8F70895052E97FB1EF446
:1057800000940E94D42B57FD07D00E94202A07FCCA
:1057900003D04EF40C94D42B509540953095219520
:1057A0003F4F4F4F5F4F089590958095709561954D
:1057B0007F4F8F4F9F4F0895F894FFCF30063006EC
:1057C00080068006E50601075F065F060607770785
:1057D00086078607271D2E1D351D3A1D3F1D441DBA
:1057E000491D4E1D531D581D5D1D621D661D6B1DFF
:1057F0006E1D711D741D771D791D7C1D7E1D071E7C
:105800007B1E0F1ED91DDD1D131EE11D171E231E3D
:10581000ED1D741EF11D271EF51D2B1E531EF91DB7
:105820002F1E5A1EFF1D351E3D1EE51D1B1EE91DA8
:105830001F1E031E391E491E631E721ED31D0B1E22
:10584000821E3B2141212A21352147214D2153210F
:105850009F28C728B029C728B029FA281B29B029B2
:0458600072297E2902
:10586400010000004802280850011E0A1401010129
:1058740002000B000B0B01191A1B1C1D1E1F2021FB
:10588400220196005A238F238823812301E200E911
:1058940000EA00B500B600B700CD008301CC008A51
:1058A40001920194012102230224022502260227E7
:1058B400022A02B300B4006F0070009F01CB019F65
:1058C40002A002818283E200E900EA00B500B6008A
:1058D400B700CD008301CC008A019201940121021A
:1058E400230224022502260227022A02B300B4005E
:1058F4006F0070009F01CB019F02A00281828394FC
:105904006697C63435F4F5F6F731333200010202F6
:1059140002020606060909090909090F0F0F0F0FEC
:105924000F151515181919191919191919191923F0
:08593400242525252525250069
:00000001FF
