:100000000C94FD020C9435030C9435030C943503C9
:100010000C9435030C9435030C9435030C94350380
:100020000C9435030C9435030C94902A0C94642B97
:100030000C94AC250C9435030C9435030C943503C7
:100040000C9435030C9435030C9435030C94350350
:100050000C9435030C9433260C9435030C9435031F
:100060000C9435030C9435030C9435030C94350330
:100070000C9435030C9435030C9435030C94350320
:100080000C9435030C9435030C9435030C94350310
:100090000C9435030C9435030C9435030C94350300
:1000A0000C9435030C9435030C9435032B2F14005A
:1000B0001A0008001500170029210421162407281A
:1000C00009220A00E1001D001B00060019000500BE
:1000D0001C0018000C00120013002A000B000D2257
:1000E0000E280F2433213400110010003600370091
:1000F00038001E7CE30028412C222C42E200000044
:1001000035021E021F022002210222020100E0002D
:10011000E200E300E1002D0201002F0230022F0077
:1001200030002E02230224022502260227024C0060
:100130005000510052004F000000000050084E00D7
:100140004B004F0800000100010001002C050100D8
:100150000100000035001E001F00200021002200C9
:1001600001002F0230022D022E02310201002F0069
:1001700030002D002E003100230024002500260031
:1001800027004C002D00E100E300E200E10029001F
:100190002E00AB00AA00A900AE0001000100010082
:1001A0002C0901000100000044003A003B003C0023
:1001B0003D003E00010020780000D300D100D200B5
:1001C0000100217827782378257829783F0040009E
:1001D0004100420043004500CF00CE00CD00D000DA
:1001E0000000007CDB00DA00D900DC000000010028
:1001F0000100010001000100010000001E0F0500C8
:10020000047F3F1F643214643214783C1E1E140AAB
:10021000052223252628292A2C2D2F303233353646
:10022000383A3B3D3E4042434547494A4C4E505187
:10023000535557595A5C5E6062646668696B6D6FAE
:1002400071737577797B7D7F81838587898A8C8EB1
:1002500090929496989A9C9E9FA1A3A5A7A8AAACB9
:10026000AEAFB1B3B4B6B8B9BBBCBEBFC1C2C3C5F3
:10027000C6C7C9CACBCCCDCED0D1D2D2D3D4D5D695
:10028000D7D7D8D9D9DADADBDBDBDCDCDCDCDCDDC8
:10029000DDDDDDDCDCDCDCDCDBDBDBDADAD9D9D8AC
:1002A000D7D7D6D5D4D3D2D2D1D0CECDCCCBCAC944
:1002B000C7C6C5C3C2C1BFBEBCBBB9B8B6B4B3B173
:1002C000AFAEACAAA8A7A5A3A19F9E9C9A9896940E
:1002D00092908E8C8A89878583817F7D7B797775E3
:1002E00073716F6D6B6968666462605E5C5A5957C2
:1002F000555351504E4C4A4947454342403E3D3B81
:100300003A3836353332302F2D2C2A29282625230A
:1003100022FFAA7F554000010101010101010101F5
:1003200002020202020202020203030303030303A6
:100330000304040404040404050505050506060673
:100340000606070707070708080808090909090A30
:100350000A0A0B0B0B0C0C0C0D0D0D0E0E0E0F0FD5
:100360000F10101111111212131314141515161663
:100370001717181819191A1A1B1B1C1D1D1E1E1FD2
:100380002020212222232424252626272829292A21
:100390002B2C2D2D2E2F3031323233343536373849
:1003A000393A3B3C3D3E3F40414243444546474845
:1003B000494A4C4D4E4F50515354555658595A5B1B
:1003C0005D5E5F616264656668696B6C6D6F7072BB
:1003D000737577787A7B7D7E8082838587888A8C27
:1003E0008E8F91939596989A9C9EA0A2A3A5A7A95B
:1003F000ABADAFB1B3B5B7BABCBEC0C2C4C6C9CB52
:10040000CDCFD1D4D6D8DBDDDFE2E4E7E9EBEEF007
:10041000F3F5F8FAFDFF00000000000000002A2BB1
:1004200028000000000000000000000000000000A4
:100430000029000000002C1E34202122243426270D
:10044000252E362D3738271E1F202122232425262E
:100450003333362E37381F0405060708090A0B0CFC
:100460000D0E0F101112131415161718191A1B1C44
:100470001D2F3130232D350405060708090A0B0C02
:100480000D0E0F101112131415161718191A1B1C24
:100490001D2F3130354C000000000000000000002E
:1004A000000000000000000000000000000000004C
:1004B000000000000000000000007E0F00D4FFFFDD
:1004C000FFC7000000781403720065007600690021
:1004D00075006E0067003400310000000C036700F7
:1004E000740069007000730000000403090409022D
:1004F0003B00020100A0FA09040000010301010011
:1005000009211101000122440007058103080001AF
:10051000090401000103000000092111010001226A
:100520007B00070582032000011201000200000089
:10053000080778CBDC01000102000105010902A1D6
:100540000185020901A100050919012908150025E5
:1005500001950875018102050109300931158125D0
:100560007F95027508810609381581257F950175EB
:10057000088106050C0A38021581257F950175084A
:100580008106C0C005010980A101850319012AB7B0
:1005900000150126B700950175108100C0050C09F2
:1005A00001A101850419012AA002150126A00295C6
:1005B0000175108100C005010906A101050719E0B8
:1005C00029E7150025019508750181029501750837
:1005D00081010507190029FF150026FF0095067502
:1005E00008810005081901290515002501950575E3
:1005F000019102950175039101C011241FBECFEF37
:10060000DAE0DEBFCDBF04B603FE18C0809152030E
:1006100090915303A0915403B09155038730904BB0
:10062000A740B04B59F4109252031092530310920A
:10063000540310925503E0E0F8E3099511E0A0E0BF
:10064000B1E0EEEBFEE502C005900D92AC3DB107C6
:10065000D9F723E0ACEDB1E001C01D92A235B2079D
:10066000E1F70E94DA130C94092F0C94000023E0A8
:1006700042E061E00E94D80A08958430B8F46730FF
:10068000A8F4463098F450E096E0699F400D511D63
:100690001124FA019AE2899FE00DF11D1124EE0F59
:1006A000FF1FE455FF4F85919491089581E090E0FC
:1006B00008950E943D0308959C013A9521153F41FC
:1006C00050F5FC01EE27F170BC0166277270AC0199
:1006D000442754709C012227387094FF0EC080E19B
:1006E000EF2B09F480E0672B09F08062452B09F0BD
:1006F0008064232B89F08068089581E0EF2B09F452
:1007000080E0672B09F08260452B09F08460232B81
:1007100019F08860089580E00895CF93DF93EB018E
:100720000E945C03FE010995DF91CF910895CF935C
:10073000DF93EC01805E9109089720F068E079E092
:10074000209711F468EC76E0CE010E948D038C2F87
:100750000E94BF05DF91CF910895CF93DF93EC0105
:100760000E944D06CE01805E9109089720F06FE04F
:1007700079E0209711F46FEC76E0CE010E948D03B2
:10078000DF91CF91089581E008950E94C3030895F9
:1007900081E008950E94C30308950E94CA0308954A
:1007A00008950E94D0030895A6E0B0E0EAEDF3E0DA
:1007B0000C94B52D49835A839E833091EA01898137
:1007C0009A8131111AC03E81332399F0222389F096
:1007D0000E94780A182F682F89819A810E94540AF2
:1007E00069817A81812F0E9475112696E3E00C942D
:1007F000D12D0E94660A182FF3CF0E94780A6981D2
:100800007A81F1CFFC01262F408151816281738171
:10081000848195810E94D4030895CF93DF93EC01E6
:1008200061E00E940204BE010E94C503DF91CF91E6
:100830000895CF93DF93EC0160E00E940204BE01B3
:100840000E94D103DF91CF91089581E008950E9425
:1008500025040895CF93C82F0E942C098C2F0E9445
:1008600027042FEF84E39CE0215080409040E1F783
:1008700000C00000CF91089581E00E942A040E94E8
:100880005726089580E00E942A040E947B2608953E
:100890000F931F93CF93DF938C0161E00E940204BA
:1008A000EC01F801858181110E94591BB801CE012C
:1008B0000E94CD03811106C080E0DF91CF911F918E
:1008C0000F910895B801CE010E946C1E8823A1F3F8
:1008D000B801CE010E94751D882371F3B801CE01C5
:1008E0000E941324882341F3B801CE010E94761F91
:1008F000882311F3B801CE010E944C1F8823E1F236
:10090000B801CE010E94781B8823B1F2F8018581DD
:10091000882361F0C330FCE7DF07E9F058F4C11524
:10092000ECE7DE07A9F0C130DC47B9F0C8010E944E
:10093000C803C3CFCB358CE7D807A9F0CC35ECE79B
:10094000DE0771F0CA35DC4789F70E94C40EEECF8E
:100950000E943C04B1CF0E94CC0E0E944204ACCF56
:100960000E94BA0EE3CF0E94C80EE0CF0E948925F4
:100970000E945A050E94B91908950E945E050E94BE
:10098000B01A0E948E2508952F923F924F925F9247
:100990006F927F928F929F92AF92BF92CF92DF928F
:1009A000EF92FF920F93CF93DF931C0129013A013D
:1009B0006B0181E0C81AD108E101CC0DDD1D188260
:1009C000F12CE12C8AE0882E912CA12CB12CEC1476
:1009D000FD0498F0C101DF91CF910F91FF90EF904E
:1009E000DF90CF90BF90AF909F908F907F906F904F
:1009F0005F904F903F902F900895C301B201A501E1
:100A000094010E944D2D605D603319F4E114F104EE
:100A100031F0411451046104710409F4602F6A93A8
:100A2000C301B201A50194010E944D2D29013A0193
:100A30008FEFE81AF80ACBCF0F9320910401309181
:100A400005012817390721F42091E401261791F0B8
:100A500090930501809304016093E4019C0150E0B0
:100A600040E0062F66E070E08EED91E00E94C40445
:100A70000F9108958EED91E0FBCF089581E00895E8
:100A80000895CF93DF93D82F0E943E05C82F882367
:100A900019F08D2F0E9440058C2FDF91CF91089582
:100AA0000895CF93C82F0E943D058C2F0E944105C9
:100AB000CF91089580E00E94510508950E945C2422
:100AC0000E9451050895CF930E945C24C82F809105
:100AD000E5018C1779F0C093E5010E941826609318
:100AE000E6017093E7018093E8019093E9018C2F70
:100AF0000E945105CF910895ADE0B0E0E2E8F5E045
:100B00000C94B62D488759876A877B878C879D8789
:100B100091110E94EA0D1F8286E0FE013896DE01E7
:100B2000119601900D928A95E1F78D8181110DC08A
:100B300029813A814B815C816D817E818F810E9408
:100B4000340D2D96E2E00C94D22DCE0101960E9438
:100B50000D048111EDCFF5CFFC012481213021F46A
:100B6000808191810E94AA0A0895662329F00E943B
:100B7000D7200E94BC2108950E944321FACFCF9331
:100B8000C82F8823C9F08238C9F40E94692481FDE6
:100B900013C089E30E941F250E94690E2FEF87EE84
:100BA00093E0215080409040E1F700C0000089E3CD
:100BB0000E9427250E94690ECF9108958338A1F4E1
:100BC0000E94692480FDF8CF83E50E941F250E94C2
:100BD000690E2FEF81EE94E0215080409040E1F7C4
:100BE00000C0000083E5E4CF8438A1F40E946924AA
:100BF00082FDE2CF87E40E941F250E94690E2FEF3D
:100C000081EE94E0215080409040E1F700C0000068
:100C100087E4CECF8CEF8C0F813A70F48C2F0E943A
:100C2000E424882329F08C2F0E9427250E94690E36
:100C30008C2F0E941F25BECF80E28C0F883048F495
:100C4000C77081E001C0880FCA95EAF70E94CD0DF8
:100C5000B1CFEBE5EC0FE33040F4F0E0E959FE4FA3
:100C6000808190E00E948524A7CFE8E5EC0FEB316E
:100C700050F4F0E0EE0FFF1FEF5CFE4F808191819A
:100C80000E94AA2499CF83E38C0F833108F094CF7C
:100C900061E08C2F0E94B5058FCF882309F456C0E0
:100CA000823879F40E94692481FF50C089E30E9450
:100CB0001F250E94690E89E30E9427250E94690E64
:100CC0000895833859F40E94692480FF3FC083E56A
:100CD0000E941F250E94690E83E5EECF843859F4E7
:100CE0000E94692482FF32C087E40E941F250E946F
:100CF000690E87E4E1CF9CEF980F913AE8F290E219
:100D0000980F983050F4877091E001C0990F8A9540
:100D1000EAF7892F0E94D30DD1CF9BE5980F93302E
:100D200028F490E080E00E948524089598E5980FCB
:100D30009B3128F490E080E00E94AA24089593E378
:100D4000980F933118F460E00E94B50508951F9341
:100D5000CF93DF93182FEB010E94BF05209739F442
:100D6000812F0E944D06DF91CF911F9108958FE949
:100D70009FE00197F1F700C000002197EFCF70E0EE
:100D800060E0893311F460E570E00E94A7060895E1
:100D9000882321F00E94CD0D0E94690E08958823BA
:100DA00021F00E94D30D0E94690E0895B0E0A0E0EA
:100DB000ECEDF6E00C94AF2D6C01D62FC72FFC01A3
:100DC0001581068102950F700E94C30DE82E8823BD
:100DD000F9F0E12E1123E1F08C2F807F803461F057
:100DE00080E28D0F883008F18C2F807E803221F4D4
:100DF000D230D8F00023C9F08091090382FF15C0DA
:100E000082E00E948E0E0E94C30D91E0E82EE9263A
:100E1000BC2EB2949FE0B922FBE0FB15B8F1EB2D9C
:100E2000F0E0E55FF04D0C946F2DE12CF1CF0C2F2D
:100E30000F70C07F11F00295007F112399F00023FD
:100E400059F080E28D0F883010F0D11107C0802F4B
:100E50000E94CD0D0E94690E8D2F5AC0802F0E94D6
:100E6000DD0DF8CF8D2F0E944D06002379F080E232
:100E70008D0F883010F0D11104C0802F0E94D30D47
:100E800003C0802F0E94E30D0E94690EEB2DE850F5
:100E9000FF0B349720F40E945C240E945105EE2041
:100EA00089F00E94BF0D80FD0DC0F60115820E94E1
:100EB000B90D0E94B209C6010E94E5080E94B90D51
:100EC0000E94C209CDB7DEB7E9E00C94CB2D2C2FE0
:100ED0002F70F22EC07FC03219F0F29480EFF8220A
:100EE000DD2341F0D130D1F1112309F444C00023B6
:100EF000F1F0B2CF8091090382FD15C0112359F0A2
:100F0000FF2029F08F2D0E94CD0D0E94690E80E0F8
:100F10000E94BF05BBCF80E00E944D06FF2009F470
:100F2000B5CF8F2DABCF112369F0011104C08F2DE8
:100F30000E94C806ABCF013009F0A8CF8F2D0E94C8
:100F4000040EA4CF0111A2CF8F2D0E94CF068F2DAA
:100F50000E94100E8F2D0E94F40D98CF112321F0C6
:100F6000063008F093CFE3CF053008F08FCF8F2DF8
:100F70000E94CF068BCF0023D1F3D93349F43FEF42
:100F800087EE93E0315080409040E1F700C00000D0
:100F90008D2F0E944D067ACF8C2F86958695837073
:100FA00069F0813009F072CF8D2F9C2F9370111151
:100FB00002C080E090E00E94AA2468CF8D2F9C2F71
:100FC0009370111102C080E090E00E9485245ECFF2
:100FD000612F8D2F0E94B50559CF8C2F8370A1F5FD
:100FE000111154CF4D2F429546954770440F440F31
:100FF0002D2F2F7030E0042E02C0220F331F0A94D1
:10100000E2F790E080E0D4FF09C08FE090E002C0FA
:10101000880F991F4A95E2F780959095C695C695D9
:10102000C370822B932BC23049F058F4C13019F0B1
:101030000E9485092BCF0E947C0928CF0E948E092F
:1010400025CF0E94790922CF8695112311F08C2F8C
:101050008170882309F41ACF4D2F42954695477029
:10106000440F440F2D2F2F7030E0042E02C0220FAA
:10107000331F0A94E2F790E080E0D4FF09C08FE0CC
:1010800090E002C0880F991F4A95E2F780959095ED
:10109000C695C695C370822B932BC23049F058F485
:1010A000C13019F00E94ED09F1CE0E94E409EECEA4
:1010B0000E94F609EBCE0E949A09E8CECF70112368
:1010C00029F08C2F0E94B2098D2F32CF8D2F0E94D4
:1010D000CF068C2F0E94C209D9CED23F41F160F4D5
:1010E000D03FB9F0D13F81F0112309F446C001117E
:1010F000B3CE8C2F8F711FC0D33F01F1D43FA1F726
:101100008091090382FD24C08C2F8F71112311F36C
:1011100012C0112341F0053008F0B8CE8C2F8F712A
:101120000E94D409B3CE063008F0B0CEF7CF8C2F92
:101130008F711111CFCF0E94B209A8CE112329F0CF
:101140008C2F8F710E94A609A1CE0E94A1099ECE6C
:10115000112349F0CF718C2F0E94B20963E08C2FCC
:101160000E94700E93CE81E00E948E0E023008F431
:101170008DCE82E00E948E0E89CE002359F0D933A5
:1011800009F006CFEFEFF7EE23E0E150F04020400A
:10119000E1F7FCCE8C2F8F719DCF0F931F93CF93D0
:1011A000DF93EC01688179818D810E94B50A8C0101
:1011B0000E94FF090E947809B801CE010E94D6065C
:1011C000DF91CF911F910F910895CF93DF93EC01A1
:1011D0008C81882399F0CE010E944804811111C0AE
:1011E0000E94C30D882351F08D81882339F08091AE
:1011F000090382FF03C082E00E948E0EDF91CF912F
:101200000895CE010E94CD08CE010E941904F6CFA8
:10121000882321F00E94DD0D0E94690E0895882325
:1012200021F00E94E30D0E94690E089590E080E095
:101230000E94852490E080E00E94AA240E94EA0D8A
:101240000E94690E0E94D8210E94BC2108950E942C
:101250002F250E94160908950E94DA0D0E94270981
:10126000089592959F70963091F058F4925F9F7018
:10127000923058F4803F19F030F4883E30F481E029
:1012800008959A5FF4CF843FD1F380E00895883EBB
:10129000B0F3813FD1F7F3CFFC012481222339F051
:1012A000808191810E94AA0A0E943109089580E0FC
:1012B0000895A6E0B0E0EFE5F9E00C94B62D26968F
:1012C000E2E00C94D22DA7E0B0E0E9E6F9E00C945E
:1012D000B62D2796E2E00C94D22D08950E946D0958
:1012E00008950E946E099093060280930502089566
:1012F00008950E9471090895209105023091060217
:10130000822B932B0E947109089520910502309140
:101310000602822393230E947109089520910502F9
:1013200030910602822793270E94710908950E9436
:10133000370308950E949709909304028093030253
:10134000089590E080E00E949A09089521E030E03D
:10135000A90102C0440F551F8A95E2F7CA010E94F5
:101360009A09089521E030E002C0220F331F8A95C8
:10137000E2F78091030290910402822B932B0E944A
:101380009A09089521E030E002C0220F331F8A95A8
:10139000E2F7209530958091030290910402822318
:1013A00093230E949A09089521E030E002C0220FA1
:1013B000331F8A95E2F780910302909104028227FD
:1013C00093270E949A090895209103023091040204
:1013D000822B932B0E949A09089520910302309149
:1013E0000402822393230E949A0908952091030204
:1013F00030910402822793270E949A090895089544
:10140000262F277091E001C0990F2A95EAF723E073
:10141000769567952A95E1F7660F771F660F771F18
:10142000FA01E60FF71F50E040E0682F70E081916D
:10143000DF0111979B01042E02C0369527950A946F
:10144000E2F7217021952827292328272C934F5F25
:101450005F4F4430510559F70895A82FA77023E036
:10146000969587952A95E1F7880F991F880F991F00
:10147000FB01E80FF91F50E040E080E0219130E0EF
:101480000A2E02C0369527950A94E2F72170332779
:10149000042E01C0220F0A94EAF7822B4F5F5F4FA0
:1014A0004430510559F70895262F973070F486304F
:1014B00060F4682F70E086E0989F600D711D112424
:1014C0004BEE51E0822F0E94000A0895292F973099
:1014D00068F4863058F490E06BEE71E036E0239FBC
:1014E000800D911D11240E942D0A089580E0089519
:1014F000B0E0A0E0EEE7FAE00C94AF2D7C010091A3
:101500000302109104028091050290910602082BBB
:10151000192BCFE0D0E0CC24C394D12CBC2EC60133
:101520000C2E02C0880F991F0A94E2F780239123A2
:10153000892B49F4219790F7B12C8B2DCDB7DEB7CD
:10154000E9E00C94CB2DB7018C2F0E9481110197FB
:1015500089F3F3CFCF93DF93EC010E94780ABE01A9
:101560000E948111DF91CF9108951F93CF93DF9354
:10157000EB019091EA01992339F0CB010E94AA0A6C
:10158000DF91CF911F910895882369F0CB010E94CC
:10159000780A182F682FCE010E94540ABE01812FAD
:1015A0000E948111EDCFCB010E94660A182FF6CF61
:1015B000E1E0F0E0DF0102C0AA0FBB1F6A95E2F78D
:1015C000BD01DF0102C0AA0FBB1F4A95E2F7AD01C2
:1015D000462B572B02C0EE0FFF1F2A95E2F79A0108
:1015E000282339232417350719F48E2B9F2B0895B0
:1015F000E095F0958E239F2308951F93CF93DF935B
:10160000C091070217E0809108028C1304C0DF919B
:10161000CF911F910895D0E01C9FF0011D9FF00D08
:101620001124E75FFD4F2081318142815381648124
:10163000758186810E9463092196C770E4CF20914D
:101640004102309142024091430250914402609124
:10165000450270914602809147020E9463090895F5
:10166000CF93DF9380914702807F09F04DC0809136
:101670004602882309F448C0E0910702509108020D
:10168000C0914202D09141026091430270914402A4
:1016900047E05E17C9F18E2F90E0E49FF00111241E
:1016A000E75FFD4F2481222391F1489FF001499F7C
:1016B000F00D1124DF01A75FBD4F11962C911197FA
:1016C0002C1325C02C912D1322C015962C91159703
:1016D00021111DC012962D913C91261B370B2F3ADC
:1016E0003105A8F4809147028F7080618093470292
:1016F000E15FFD4F80818F708061808381E492E0A3
:101700000E94E5080E94FD0ADF91CF910895FC0137
:101710003196E770BECF482F2091070290910802C2
:1017200057E0291302C080E0089530E0529FF00195
:10173000539FF00D1124E75FFD4F8181681306C0B0
:101740008081481303C085818111EECF2F5F3F4F09
:101750002770E7CFA4E1B0E0E0EBFBE00C94AC2D08
:101760008C0186E0F801DE011F9601900D928A95AA
:10177000E1F7F8018481E58091E4A92E92E0B92E89
:101780009091450291111FC08823D1F0EE20A9F05D
:10179000C8010E944C09F82E882379F087E0F801EF
:1017A000D50101900D928A95E1F7C5010E94AC0523
:1017B0000E94300B0E941F0B5FC0C8010E94E50809
:1017C000FF24F39459C0C080D18082809380F09030
:1017D00046022091430230914402A401421B530B64
:1017E000FF2009F4F9C04F3A510508F0A7C088233B
:1017F00009F442C09091420280914702282F207F35
:1018000009F05CC09D1116C090914102C91212C02E
:10181000E1104EC08F708061809347020E941F0BC1
:1018200081E492E00E94E50880914702F8018683F6
:10183000F12C22C0E1103CC06D2D8C2D0E948B0B31
:101840006D2D8C2D0E948B0BE82E8111F1CFCF8650
:10185000D88A8F8598890E94AA0A292F22952F70ED
:10186000243078F49F702230A8F09923B9F0F80161
:101870009681907F99F4FE2C8F2D6496ECE00C9469
:10188000C82D2A5F2F70223068F0C8010E94E50839
:10189000EF2CF1CF992311F0882369F3805E883013
:1018A00050F3F3CF803F38F3815F833070F7E3CF9D
:1018B00080914702816080934702BACF9D1113C087
:1018C00090914102C9120FC0E1100DC08683C8017A
:1018D0000E94E50887E0F801A1E4B2E001900D92D2
:1018E0008A95E1F767CFC8010E944C09882309F463
:1018F00064CFEE2009F461CF80914702803288F0F6
:101900002091410230914202398728879B868A863E
:10191000909145029C871D868E87CE0108960E9475
:10192000E50887E0F801A1E4B2E001900D928A9504
:10193000E1F70E94300B0E941F0B42CF90914702AB
:10194000292F207FA1F4682D9A8A898AA6017A8995
:101950009E2D0E94590981E492E00E94E50887E0EB
:10196000F50111928A95E9F70E941F0B61CF882338
:1019700009F482CF809142028D1110C08091410202
:10198000C8120CC0E1100AC09683C8010E94E50885
:1019900087E0F50111928A95E9F76ECFC8010E94A0
:1019A0004C09882309F409CFEE2009F406CF809171
:1019B0004702803208F4B5CF2091410230914202B3
:1019C0003A8329839C828B82909145029D831E825B
:1019D0008F83CE010196A3CF4F3A5105B8F58823E6
:1019E00009F4EECEFE2CEE2009F4E7CE80914202FF
:1019F0008D111EC080914102C8121AC08091470209
:101A000080FD0DC0982F907F51F08683903F09F4A0
:101A10005ECF982F907F905F8F70892B57CF87E094
:101A2000F801A1E4B2E001900D928A95E1F724CF8C
:101A3000C8010E944C09811174CF809147028160D6
:101A400080934702C8010E94E50816CF682D9A8A44
:101A5000898AA6017A899E2D0E94590987E0F5019D
:101A600011928A95E9F7A6CEAEE0B0E0EAE3FDE098
:101A70000C94B52D288739874A875B876C877D87CB
:101A80008E87CE0108960E94AA0B8823B1F06C8540
:101A9000662341F0288539854A855B857D858E855D
:101AA0000E94630917E08091070290910802891350
:101AB0003DC02E96E3E00C94D12D87E0FE013896D0
:101AC000DE01119601900D928A95E1F78C858823AD
:101AD00049F32091080230E0C901019687709927E7
:101AE000409107024817190699F097E0929FD0019C
:101AF000939FB00D1124A75FBD4FFE013196019059
:101B00000D929A95E1F7809308020E94FD0ACACFD0
:101B10000E942C09109208021092070287E0E1E46B
:101B2000F2E0DF011D928A95E9F7BCCF819FC001E9
:101B30001124875F9D4F0E94AA0B882309F4B9CF17
:101B4000E09107021E9FF0011124E75FFD4F208105
:101B50003181428153816481758186810E9463094C
:101B60008091070290E00196877099278093070281
:101B70009ACF80915002869586958695089580919A
:101B800050028770089590915002977081E009F497
:101B900080E0089580915C02089590915C02892B09
:101BA00080935C020895809590915C0298239093B5
:101BB0005C02089510925C02089590915B02892B5B
:101BC00080935B020895809590915B029823909397
:101BD0005B02089510925B0208958091520208956D
:101BE00008950E94F00D089590915102292F282305
:101BF00031F080958923809351020E94F10D089560
:101C000008950E94000E089590915202292F2823D2
:101C1000281729F0982B909352020E94010E0895E4
:101C200090915202292F282331F0809589238093A7
:101C300052020E94010E08959091090392FF08C07C
:101C400090915202981721F0809352020E94010E47
:101C5000089580915202882329F01092520280E068
:101C60000E94010E08950F931F93CF93DF9300916D
:101C7000060110910701C0915C0280915B02C82BA4
:101C800080915202882331F0C82B0E94CF24811109
:101C90000E94290EF801C083C0910601D09107016E
:101CA00048E050E068E472E0CE010E947C2E892B6F
:101CB00059F088E0FE01A8E4B2E001900D928A9507
:101CC000E1F7CE010E946C24DF91CF911F910F911B
:101CD00008950E94330E089508950E946C0E089591
:101CE0009091090392FF11C098E0899F90011124FF
:101CF000622B609350020E94B20980915002869537
:101D0000869586950E946D0E08950E94B2090895E9
:101D10001092500280E00E946D0E08959091500242
:101D20008095892380935002282F277069F48917A2
:101D300059F09091090392FF07C086958695869584
:101D40000E94C2090E94880E08959091090392FB97
:101D5000222720F9281769F080FB92F99093090354
:101D600080910803909109030E94ED0E82E00E9489
:101D70008E0E08958091090382FB882780F991E0F7
:101D800089270E94A50E089581E00E94A50E08955E
:101D900080E00E94A50E08956FEF7FEF90E080E055
:101DA0000E94D42E089590E080E00E94A02E21E0B1
:101DB000863E9E4F09F020E0822F089582E090E059
:101DC0000E94922E089583E090E00E94922E089542
:101DD00084E090E00E94A02E0895BC0184E090E091
:101DE0000E94D42E0895AB01BC018FE090E00E94C8
:101DF000C82E0895AB01BC0183E190E00E94C82E7B
:101E0000089560E070E0CB010E94FA0E089560E052
:101E100070E0CB010E94F30E0E94010F0895A8E02C
:101E2000B0E0E5E1FFE00C94B62D66EE7EEF90E0C9
:101E300080E00E94D42E60E082E090E00E94B62E06
:101E400081E090E0909306028093050261E083E0D8
:101E500090E00E94B62E60E074E184E090E00E9481
:101E6000D42E60E086E090E00E94B62E6FEF87E00F
:101E700090E00E94B62E40E050E0BA0188E090E089
:101E80000E94C82E60E084E290E00E94B62E60E0DE
:101E900087E190E00E94B62E60E08CE090E00E9426
:101EA000B62E60E08DE090E00E94B62E19821A8274
:101EB0001B821C821D821E821F82188648E050E011
:101EC00068E170E0CE0101960E94A62E40E050E04D
:101ED000BA0180E290E00E94C82E0E94070F289667
:101EE000E2E00C94D22D0E940F0F0895682F8EE02F
:101EF00090E00E94B62E0895A6E0B0E0E2E8FFE090
:101F00000C94B42D0E940C268C0180915D0290915E
:101F10005E028017910781F019821A820E940C26B6
:101F2000682F49815A81792F80E090E00E947C05DA
:101F300010935E0200935D022696E4E00C94D02D8F
:101F40000E94182660936A0270936B0280936C0261
:101F500090936D02609366027093670280936802AB
:101F6000909369020895089508950E94B30F08950B
:101F700008950E94B80F089587E792E10E94E71341
:101F80000E94B40F0E94B50F089581E008950E9449
:101F9000C50F08950E94C50F0895089508950E94E1
:101FA000CD0F0E94CE0F08950E947A120E94500514
:101FB00008950E9403260E9441130E94D40F0E949C
:101FC000621A0E94B90F08950E94301D0E94301FAE
:101FD0000895A6E0B0E0EFEEFFE00C94AD2D0E9476
:101FE000C70F81110EC00E947C0F0E94E40F0E9457
:101FF0005A1B0E94FA210E9463052696EBE00C947E
:10200000C92D0E9457138FE5A82E82E0B82E7501C6
:1020100010E0F70101917F01812F0E94A0121F5F44
:10202000173009F441C00817A1F380916E0281FDB9
:102030000E94A6120E94CA0FC82E10E09924939401
:10204000812F0E94A012082FF50181915F010817CE
:1020500029F1D02ED826F12CEE24E3948D2D8E215B
:10206000A9F0CC2099F0F9821A830E940C269C8357
:102070008B839D8291E0802F8E2109F490E049812D
:102080005A816B817C818D810E947C05F394EE0CDA
:10209000F6E0FF12E3CFF501319700831F5F1730A1
:1020A00079F60E94A00FA1CF0813BFCF9CCF1F933A
:1020B000CF93DF930E948611EC01C11580E5D8070C
:1020C000F0F5C11580E4D80708F09CC0C03ED105EA
:1020D00020F5CD3CD10508F082C0C83AD10578F48E
:1020E000C53AD10508F073C0C130D10519F1209768
:1020F00009F1C430D105F0F4D0E0C0E01BC0C33C0E
:10210000D105D0F7C85AD0E0CC0FDD1FC659DE4F3D
:102110000990D881C02DD4640DC0C11580E2D807C4
:1021200008F0D1C0C11581E0D80708F05AC0C83EF8
:10213000D10510F7CE01DF91CF911F910895C036E0
:1021400082E5D80718F5C03482E5D80708F06BC0DF
:10215000C03282E5D80708F05FC0C11582E5D80714
:1021600008F497C02C2F2695269580E2289F900191
:1021700011248C2F8370C1E0D0E002C0CC0FDD1F92
:102180008A95E2F7C22BD32BDD68D4CFC03A82E523
:10219000D80760F4C03882E5D80708F459C0CF7179
:1021A000D0E0DC2FCC27C46FD06AC4CFC03C82E51E
:1021B000D80708F462C0C03E82E5D80708F09CCF7B
:1021C000DC2FCC27CC27DF71C06FD06AB3CFC55AC4
:1021D000D0E0C056DE4FC881D0E0D064ABCFD06530
:1021E000A9CF8D2F0E942812182FCE0199270E9467
:1021F0008611C12FD0E0DC2FCC27CC27DF71C82B74
:10220000D92B98CFCE0199270E948611CC27DF7059
:10221000C82BD92BD06A8ECFCF71D0E0DC2FCC2742
:10222000C16FD06A87CF2C2F26952695277080E224
:10223000289F900111248C2F8370C1E0D0E002C050
:10224000CC0FDD1F8A95E2F7C22BD32BDC6872CF4F
:102250002C2F26952695277080E2289F9001112427
:102260008C2F8370C1E0D0E002C0CC0FDD1F8A95B7
:10227000E2F7C22BD32BDA685DCF8C2F8F710E94CF
:102280002812C82FD0E0DC2FCC27CC27DF71D062FA
:1022900051CF8C2F8F710E94281255E0D695C7958B
:1022A0005A95E1F7CF70D0E0DC2FCC27282F30E013
:1022B00084FF05C044E0220F331F4A95E1F7C22B8B
:1022C000D32BD06937CF8D2F8F710E942812182FF2
:1022D000CE0199270E948611C12FD0E0DC2FCC2798
:1022E000CC27DF71C82BD92BD2CF462F773030F4D3
:1022F000663020F4672F0E945903089590E080E033
:1023000008950E9475110E94571008958238910512
:10231000B9F1B0F48133910509F47DC048F48932F4
:10232000910509F46DC08A32910509F47BC00895C6
:102330008533910509F45FC08933910509F108954A
:10234000833E9105D9F138F4803E910529F1823E12
:10235000910579F10895863E9105D9F1873E910561
:1023600009F43EC0843E910541F52091090321FF07
:1023700024C08091080384FD19C087EE90E0089581
:1023800020910803237009F05AC02091090323FF0C
:1023900014C089E290E008952091080320FD38C020
:1023A0003091090330FF09C024FF43C090E080E072
:1023B00008952091080322FDF7CF08952091080386
:1023C00022FD3AC03091090330FD39C024FFF5CF1A
:1023D000EDCF2091080323FFF0CF24FDE7CFCDCF31
:1023E0002091080323FD2EC03091090331FFEECF69
:1023F00084EE90E008952091080325FFDECFC9CF39
:102400002091080325FD21C02091090323FFD5CF8A
:1024100089E390E0D2CF2091080326FFCECF8AE255
:1024200090E008952091080326FFC7CF81E390E054
:10243000089583EE90E0089582EE90E0089580EE96
:1024400090E0089586EE90E0089585E390E0089589
:102450009091080392FF10C041E0282F247124308E
:1024600009F040E031E0282F2871283009F030E0F1
:10247000431711F02CE0822793FF10C041E0282F72
:102480002471243109F040E031E0282F28712831EF
:1024900009F030E0431711F02CE082273091090356
:1024A00030FF10C051E0282F2171213009F050E099
:1024B00041E0282F2871283009F040E0541711F02E
:1024C00029E0822731FF10C041E0282F21712131FE
:1024D00009F040E031E0282F2871283109F030E080
:1024E000431711F029E0822794FD877E089580E04C
:1024F000089508950E94D30E811102C00E94730FA7
:102500000E94DE0E80936E020E94E80E90930903F3
:10251000809308030E9479120E94E30E90E00E94CB
:10252000790980910302909104020E94970908950D
:1025300008950E949812089508950E949C1208958B
:10254000E82FF0E0EF5EFC4F80810895089580EA67
:102550008A95F1F7089500C008950E94A712089582
:10256000F894E82FE295EF70F0E031A1282F2F705A
:1025700081E090E001C0880F2A95EAF7982F9095A6
:10258000932391A392A1892B82A378940895CF934A
:10259000DF93C9EAD1E089918F3F11F00E94B01218
:1025A00081E0C03BD807B9F7C3EAD1E089918F3FFA
:1025B00011F00E94B01281E0C93AD807B9F7DF9153
:1025C000CF910895B0E0A0E0E8EEF2E10C94B02DD8
:1025D000EC01D62E062F10E0C80187559E4F7C01D6
:1025E000FC0180818F3F09F445C0F894E82FE29503
:1025F000EF70F0E091A18F7021E030E001C0220F78
:102600008A95EAF7892F822B81A382A1209528231E
:1026100022A378940E94AB12E3EAF1E049EA51E088
:1026200031E0C12C21912F3F51F1A22FA295AF7023
:10263000B0E090968C9190E02F7002C095958795B0
:102640002A95E2F780FD1BC0832FC82A330F4E174F
:102650005F0741F7F70180818F3F11F00E94B012B0
:1026600061E0C11001C060E08D2D0E94AD12C00F6D
:10267000D11FC882CDB7DEB7E8E00C94CC2D80E046
:10268000E4CF0E94C71287E0E1E1F3E0DF01982F79
:102690001D929A95E9F7EAE0F3E0DF011D928A9531
:1026A000E9F787E00E9492130E9499120895A7E02B
:1026B000B0E0EDE5F3E10C94B32D8E010F5F1F4FF9
:1026C00087E0F80111928A95E9F7F12C6F2DC80186
:1026D0000E94E212F394F7E0FF12F8CF47E050E0D7
:1026E000B8018AE093E00E947C2E21E0009709F473
:1026F00020E0892B41F087E0F801AAE0B3E00190E7
:102700000D928A95E1F747E061E173E08AE093E09A
:102710000E949313182F0E949D12812F2796E5E0A7
:102720000C94CF2D0895B0E0A0E0E9E9F3E10C941A
:10273000B02D6C017B01042FC22F222379F081E0A0
:10274000809371020E940C269093700280936F0216
:1027500080E0CDB7DEB7E8E00C94CC2DD0917102CB
:10276000DD23B1F380916F02909170020E942426C4
:10277000059770F310E0A801B601C7010E947C2EF6
:10278000892B31F0A801B601C7010E94892ECD2FF7
:10279000109271028C2FDDCF0E94E1270E94D90F89
:1027A0000E94EE2708950E94F3270E94E90F0E94DD
:1027B0000D2808950E94A5250E94C7270E94BC0FDE
:1027C0000E94CC130E94D3130E94CF0FFBCF909393
:1027D000DD018093DC010895EF92FF920F931F9328
:1027E000CF93DF93EB01E82FD1110EC0442321F0EA
:1027F000F0E0EA5EFC4FE4916E2F7E2F8E2FCDB776
:10280000DEB7E6E00C94CE2D0D2F10E0282F30E03F
:10281000442329F02A5E3C4FF901249130E0F6E090
:10282000CF9FC0011124EFEFF0E0BF010E94252DE2
:10283000AB018C2F90E0880F991FA5E5A49FB001F4
:10284000A59F700D1124861B970B982F990F980F39
:10285000BF01601B710B629FD001639FB00D729F1F
:10286000B00D11248B2F9D9FB0011124672F772766
:10287000EF01C61BD70BBE01629FE001639FD00D25
:10288000729FD00D11247F01E91AF108E09EB0017A
:10289000E19E700DF09E700D1124672F7727E61BC7
:1028A000F70BE29F8001E39F100DF29F100D1124A2
:1028B000E12F722F4230510599F048F4411551052E
:1028C00069F04130510581F0EB2F8D2F07C0443066
:1028D000510569F080F046305105B1F76E2F8FCF6A
:1028E000E22F7B2F812FFACFE22F7D2FF7CFEB2F17
:1028F000822F712FF3CF7B2F822FED2FEFCF41E06F
:102900000E94EC13089508950E947F140895CF93B8
:10291000DF93762FE901682F842F0E948414798336
:1029200068838A83DF91CF91089580911803982F4F
:102930009C7F29F4837084608093180308958C3AF7
:10294000E8F38370886AF8CFB0E0A0E0EAEAF4E147
:102950000C94B02D88E090E00E949A2E6B017C01CF
:1029600084E290E00E94922E282F30E040E050E078
:1029700060E070E080E090E000E20E94DD2DB22F88
:10298000A32FF42FE52FD62FC72F97018601BC293F
:10299000A12BFE295E2F532B2B2F3A2F4F2F6D2F5C
:1029A0007C2FCDB7DEB7E8E00C94CC2DB0E0A0E0F2
:1029B000ECEDF4E10C94AC2D49015A016B017C0162
:1029C0000E9495148401A4016A2D7B2D88E090E07B
:1029D0000E94C82E94014A2D5B2DB601C70100E26A
:1029E0000E94F82D622F84E290E00E94B62ECDB7AF
:1029F000DEB7ECE00C94C82DE8E1F3E085E08083DD
:102A000011828FEF828383831482758125E030E009
:102A10004FEF5FEF60E0868197810E94D6140895A2
:102A20008091180380FF03C086958695089580E005
:102A3000089590911C03933018F49F5F90931C03AA
:102A4000882391F0209118033091190340911A03C3
:102A500050911B0360911C0370911D0380911E0314
:102A600090911F030E94D614089581E00E941915C9
:102A7000089590911C03992319F0915090931C0391
:102A8000882391F0209118033091190340911A0383
:102A900050911B0360911C0370911D0380911E03D4
:102AA00090911F030E94D614089581E00E94391569
:102AB000089570E00E94EA1B089560910C018091D6
:102AC000180380FF0BC080910B0123E0829FC0019F
:102AD0001124805E9C4F0E945915089580910D012C
:102AE00090910E0123E0829FF0011124E05EFC4FE3
:102AF000891748F71182108212828F5F3396F8CFC0
:102B00009091180390FF0EC090910D0120910E013D
:102B100033E0939FF0011124E05EFC4F921718F010
:102B20000E945D1508958183608342839F5F339681
:102B3000F5CFA3E0B0E0EFE9F5E10C94B62D90916C
:102B4000180390FF0AC09E012F5F3F4F0E94871419
:102B50004B8169818A810E9480152396E2E00C9462
:102B6000D22DCF93DF93EC01EC81F0E0EF5EFD4FCF
:102B70004491E8E1F3E0628181810E9499158C81A2
:102B80008F5F8C83DF91CF910895CF93DF93EC011A
:102B9000E8E1F3E0438162818C810E9499158C8188
:102BA0008F5F8C83DF91CF910895A3E0B0E0EBEDD0
:102BB000F5E10C94B42D8C018091720281110AC050
:102BC0009E012F5F3F4F4FEF6FEF0E9487148A8166
:102BD00080937202F8016481613069F08091720221
:102BE00040E0662361F040E0623011F440917202EF
:102BF00080E060E004C06091720240E080E00E94EA
:102C00008015F801848190E0019663E070E00E94F5
:102C1000392D84832396E4E00C94D02DA3E0B0E01A
:102C2000E4E1F6E10C94AF2D082FD62EF42EC22E3F
:102C30009091180390FF2FC0E92FE695E695AE2FEF
:102C4000B0E0A055BE4F8C918093B5029C7F94302C
:102C500031F59E012F5F3F4F802F0E9487144B81DB
:102C600069818A810E94801500931903D0921A030A
:102C7000F0921B03CC2079F02091180360911C0383
:102C800070911D03302F4D2D5F2D80911E0390916B
:102C90001F030E94D6142396E9E00C94CB2D8230BA
:102CA00019F4F0901B03E0CF863019F4009119035A
:102CB000DBCF8930D9F38931B9F6E9516E2F6170D4
:102CC000B62EE695F0E0EF5EFC4F1491E12C60919A
:102CD0000F01E61618F00E945D15C6CFE19EC001F7
:102CE000112470E00E94252D802FB11014C0860F92
:102CF00020910D01622F6E0D7727771F9B01220F08
:102D0000331F260F371F205E3C4F4F2D6D2D0E9425
:102D10008714E394DCCF861BEBCFE8E1F3E09181ED
:102D2000282F4381628180E1890F0E940E16089549
:102D300081E00E948D160895E8E1F3E09181282F4B
:102D40004381628180EF890F0E940E16089581E011
:102D50000E949C160895E8E1F3E0628120E1620F91
:102D600008F46FEF282F438181810E940E16089589
:102D700081E00E94AB160895E8E1F3E0628120E172
:102D8000621B08F460E0282F438181810E940E16A7
:102D9000089581E00E94BC160895E8E1F3E04381C4
:102DA00020E1420F08F44FEF282F628181810E94B9
:102DB0000E16089581E00E94CD160895E8E1F3E033
:102DC000438120E1421B08F440E0282F6281818189
:102DD0000E940E16089581E00E94DE16089520E0FC
:102DE0000E940E160895EF92FF921F93CF93DF93E8
:102DF000EC0110E0EE24EA94F12C60910F0116171B
:102E000070F00E945D159A818C8190FF27C08F5FC2
:102E10008C83DF91CF911F91FF90EF9008952091C7
:102E20000D01422F410F5527551FCA019A01220F4C
:102E3000331F280F391F205E3C4F70E0C7010E94EE
:102E4000392D962F8C8140911B0360911A03199F95
:102E5000800D11240E9487141F5FCFCF8150D8CFDF
:102E6000B0E0A0E0E6E3F7E10C94AE2DFC01828136
:102E70000FEF80FF01E010E04BE0A42E80910F01E6
:102E8000181798F00E945D1580917402013009F0C6
:102E90004FC0811102C080910F0181508093740254
:102EA000CDB7DEB7EAE00C94CA2DC0910D01C12E5A
:102EB000D12CCC0DDD2DD11DCE01880F991FC80F4F
:102EC000D91FC05EDC4F198218821A8234E0E32ECB
:102ED000F12CB12C809174028B0D8C301CF16A2D79
:102EE0000E94172D892F082E000C990BC816D906A1
:102EF00091F480911B038E9DA0018F9D500D112494
:102F000055954795559547959E0160911A03809177
:102F100019030E948714B00EF1E0EF1AF108D1F600
:102F20001F5FACCF87FFDFCF90910F01890FDBCF01
:102F300090E0019660910F0170E00E94392DAECFB4
:102F40000F931F93CF93DF9380910D0190910E010A
:102F500023E0829FF0011124E05EFC4F891740F1CD
:102F6000C0E0D3E060910F01C61740F10E945D15EB
:102F70002091090180917302820F809373029091D6
:102F80000A01920F90930A01191654F4082E000CAE
:102F9000990B40910F014150550B841795071CF078
:102FA000219520930901DF91CF911F910F910895F1
:102FB0001182108212828F5F3396D0CF0C2F10E0D7
:102FC00070E0C8010E94392D20910D01820F482F19
:102FD00050E020917302022E000C330B02171307EE
:102FE000BCF020910A01022E000C330B2017310790
:102FF0007CF08D9F90011124205E3C4F40911B037B
:1030000060911A03809119030E948714CF5FAACFA1
:10301000FA01EE0FFF1FE40FF51FE05EFC4F118277
:1030200010821282F3CFB0E0A0E0E9E1F8E10C9465
:10303000AC2DEC014C81042F10E09801D8010E94C6
:103040007D2D9B01AC010E94932D4B015C01E0E2C0
:10305000F0E0E01BF10BA5E5B0E0AC019B010E94A4
:10306000932D6B017C019F01DF010E94752D9B0157
:10307000AC010E949E2D9B01AC01280D391D4A1DFB
:103080005B1DC701B6010E944D2DF22E822F90E0EC
:1030900039E23F1520F143E0249F9001112435953A
:1030A0002795122F109500E085E5E82EEF18809106
:1030B0000F01081718F10E945D159C8181E099238A
:1030C00019F0903219F48FEF809308018091080174
:1030D000890F8C83CDB7DEB7ECE00C94C82D25E5C5
:1030E00030E0B901681B790B9B01220F331F260FBB
:1030F000371F37FFD4CF2F5F3F4FD1CF8E2D01FD2C
:103100008F2D20910D01622F600F7727771F9B0174
:10311000220F331F260F371F205E3C4F412F609137
:103120001A030E9487140F5FC2CF0F931F93CF9390
:10313000DF93EC0110E000E090910F019017110671
:1031400009F06CF40E945D158C8190E0019681700D
:1031500099278C83DF91CF911F910F910895209132
:103160000D01A801420F511D9A01220F331F240F98
:10317000351F205E3C4F4C8160911A0380911903EA
:1031800096959017110651F04CF0442349F0409168
:103190001B030E9487140F5F1F4FCECF4423B9F348
:1031A00040E0F7CFB0E0A0E0E8EDF8E10C94A82D06
:1031B000FC016280448081E08483E1E1F2E074906C
:1031C000E0E9F2E0E491C0911B03C695C158D0E05C
:1031D000CC0FDD1FCD2FDD27812C75E0972EAA2483
:1031E000AA94B12C55245A94E719EE2EF12C809113
:1031F0000F01881638F00E945D15CDB7DEB7E0E10B
:103200000C94C42DC82CD12C82E0861568F09C9CAF
:10321000F0019D9CF00D1124EB58FD4F8091190396
:10322000808380911A038183411023C09C9CF0010C
:103230009D9CF00D1124EB58FD4F138212822091BA
:103240000D01C601820F911D9C01220F331F280F13
:10325000391F205E3C4F9C9CF0019D9CF00D112479
:10326000EB58FD4F4281618180810E9487148394D5
:10327000BECF9C9C80019D9C100D11240B581D4FAE
:10328000F80183818823F1F081508383859DC001FB
:103290001124648170E00E94252DFB01FF27EF5E61
:1032A000FD4F8491E82FE719E59DC0011124B70176
:1032B0000E94252D80911B03689FB0011124F80105
:1032C0007283BDCF0E945F2EB5010E94392D8C17ED
:1032D0009D070CF0B4CFF2E0F61598F40E945F2E33
:1032E000B5010E94392DF80180830E945F2E209144
:1032F0001A032695622F70E00E94392D280FF801DD
:1033000021839C9CF0019D9CF00D1124EB58FD4FF6
:10331000128280911B03893C58F088EC9C9CF00140
:103320009D9CF00D1124EB58FD4F8483838387CF40
:103330008431A0F784E1F2CFE8E1F3E020812E7F31
:103340002083318142815381648175818681978197
:103350000E94D6141092B6020E945D150895E8E10D
:10336000F3E080818E7F80831092B6020E945D150B
:1033700008951092B6028091B30281110AC081E0D3
:103380008093B3028091180381708093B2020E94EF
:10339000AF190895609118036695669570E04BE04B
:1033A00050E080E191E00E946F2E892B19F481E0BA
:1033B0008093B6020E940C269093AD028093AC02DB
:1033C00008959091180390FF34C09370811132C01A
:1033D000946090931803662391F020911803309124
:1033E000190340911A0350911B0360911C037091C3
:1033F0001D0380911E0390911F030E94D6146091BB
:1034000018036695669570E04BE050E080E191E02E
:103410000E946F2E892BB1F01092B60281E080934A
:10342000AF0240911B0360911A03809119030E941F
:10343000EF1608958B3210F0986ACBCF880F880F63
:10344000982BC7CF0E94CA19E9CF682F9091180313
:103450009695969581E0890F8B3208F081E00E9465
:10346000E119089581E00E94251A0895682F90912E
:103470001803969596958FEF890F09F48AE20E94BA
:10348000E119089581E00E94361A089561E00E94D2
:10349000E1190895E8E1F3E08081816080838695F9
:1034A00086950E94461A08958091180380FF03C0F4
:1034B0000E949C1908950E944A1A089560E00E9493
:1034C000E11908958091B40281113FC00E94D30E8A
:1034D000811104C00E94730F0E94FC140E94A41466
:1034E000209318033093190340931A0350931B033E
:1034F00060931C0370931D0380931E0390931F031E
:103500002C7FA1F40E94FC140E94A41420931803A1
:103510003093190340931A0350931B0360931C03C9
:1035200070931D0380931E0390931F030E949514B4
:103530001092B6028091180380FF04C0869586958C
:103540000E945E1A81E08093B4020895E8E1F3E0FE
:10355000808181608083869586950E945E1A089599
:103560001092B3028091B20281110E94A61A0E94A9
:10357000CA1908950F931F93CF93DF938091B602DA
:103580008823C1F18091B502E0911803E695E69594
:10359000E81BE093AE02823091F5F0E0E35FFD4F6F
:1035A000E491CE2FD0E001EB15E18091AF028823AA
:1035B00061F01092AF020E940C269093AD028093AE
:1035C000AC021092B1021092B0020E940C26E0915F
:1035D000AC02F091AD028E1B9F0B8F3F9F4750F4C2
:1035E000EC0FFD1FF093AD02E093AC028CEA92E089
:1035F000F8010995DF91CF911F910F9108958630C1
:1036000049F4F0E0E65FFD4FE491CE2FD0E005EC09
:1036100015E1CBCF893051F4E695F0E0E95FFD4F3D
:10362000E491CE2FD0E003EF16E1BFCF8F3051F4FD
:10363000E695F0E0EC5FFD4FE491CE2FD0E000E3A3
:1036400017E1B3CF853149F4F0E0EF5FFD4FE4912E
:10365000CE2FD0E000EA17E1A8CFC8E2D0E003E126
:1036600018E1883109F4A1CF833239F4EFEFF1E0AA
:10367000C591D49105ED15E198CFC4EFD1E005E9EE
:1036800018E1843209F491CFC0EDD7E003E814E1EA
:10369000853209F08ACF8E2F63E00E940B2DE92F2F
:1036A000F0E0E450FE4FE491CE2FD0E002ED18E1BF
:1036B0007CCF08950E94BA1A0895FA01811101C0C1
:1036C000FB0109950895CF93DF93C82FD62F0E9451
:1036D00010158C1748F00E9410158D1728F40E94C1
:1036E000321ADF91CF9108958C2F0E94461AF9CF9C
:1036F0001F93CF93DF93EC01FB011581111110C0D3
:103700000E94CA0D8272FE01E052F847E531F105D0
:1037100008F05EC0E95EF04D0C946F2D0E94541AC3
:10372000812FDF91CF911F91089542E45AE162E326
:103730007AE10E945D1BF4CF42E35AE162E47AE150
:10374000F8CF47EA56E168E976E1F3CF48E956E178
:1037500067EA76E1EECF49EC56E168EB76E1E9CF36
:1037600048EB56E169EC76E1E4CF4BEE56E16AEDC9
:1037700076E1DFCF4AED56E16BEE76E1DACF45E553
:1037800055E165E375E1D5CF45E355E165E575E1C3
:10379000D0CF81E00E94461AC3CF65E082E00E944C
:1037A000631BBECF68E086E0FACF6EE089E0F7CF1A
:1037B00064E18FE0F4CF67E185E1F1CF88E1EACF02
:1037C00062E289E1ECCF83E2E5CF6AE285E2E7CF0E
:1037D00011E0A6CF539A4BB1477F5BB15860EFB76A
:1037E000F8949B01220F331F260F371F280F391F14
:1037F0002817390741F4EFBF8FE594E00197F1F7FF
:1038000000C000000895DC016D91CD0178E05BB946
:10381000000000C067FF4BB9660F000000C000C089
:1038200000C04BB900C07A9591F7E2CF80911B019F
:10383000877F80931B010E940F1F811103C082E0CC
:103840000E94E30D80911B0184FF06C08F7E809350
:103850001B0182E00E94CD0D80911B0185FF06C0F7
:103860008F7D80931B0180E20E94CD0D0E94690E26
:10387000089580E008958B32910539F040F49C0161
:103880002E5131092A30310558F481E008958D32E6
:10389000910530F089339105C0F384369105A9F381
:1038A0000E94391C0895CF93DF93EC01662319F031
:1038B00082E00E94DD0DCE0190528115904308F404
:1038C000DD27CE010E949703DF91CF9108959C01DF
:1038D00030522115304308F499270E94AD03089512
:1038E000FC0123E0F695E7952A95E1F7EE71FF27B5
:1038F000E954FD4F20813181AC014F70552781E0A3
:1039000090E002C0880F991F4A95E2F7662329F0DC
:10391000822B932B918380830895809590958223A9
:103920009323F8CFFC0123E0F695E7952A95E1F77C
:10393000EE71FF27E954FD4F8F70992721E030E0A9
:1039400002C0220F331F8A95E2F7808191812823DC
:10395000392381E0232B09F480E00895EF92FF9250
:103960000F931F93CF93DF93EC017B018A0180912A
:103970001B0182FF5DC02091DE023091DF022C1717
:103980003D0719F0209709F053C090911B019B7FD0
:1039900090931B0161E091FD10C08091E002909135
:1039A000E102A701481B590B61E080911C01909135
:1039B0001D014817590708F460E0617080911B01F0
:1039C00060FB81F980931B01C9010E94701C0E9459
:1039D000CA0D81FF08C080911B01806180931B018B
:1039E00082E00E94D30D0E94CA0D85FF08C080911D
:1039F0001B01806280931B0180E20E94D30D6091C5
:103A00001B0166956170A8018091DE029091DF0232
:103A10000E94531C60911B0166956170A801809102
:103A2000DE029091DF020E94671C0E94161C0FC0EC
:103A3000CE010E94921CA801682FCE010E94671C33
:103A40008091DE029091DF02C817D90771F3F092DE
:103A5000E102E092E002CDB7DEB7E6E00C94CE2DB5
:103A600080911B0182FF19C00E940C262091E00268
:103A70003091E102AC01421B530B20911C013091AB
:103A80001D014217530748F047ED52E0BC018091F9
:103A9000DE029091DF020E94AE1C089590911B01FE
:103AA000892F8E7F90FF816080931B010E94161CDE
:103AB000089580911B018E7F80931B010E94161C2C
:103AC000089560E280911C0190911D010E941C05E7
:103AD000FC01019620812032D9F3CF010E94AB2353
:103AE000089580911B0181700895CF92DF92EF922B
:103AF000FF921F93CF93DF93EC017B010E940C2672
:103B00006C01F7018581882309F453C080911B0162
:103B100082FF07C047ED52E0B60190E080E00E94CE
:103B2000AE1CC231FCE7DF0709F440C000F5C0312C
:103B30008CE7D80789F180911C0190911D010596B1
:103B4000C131ECE7DE0769F1CE0190528115904357
:103B5000F0F51092DF021092DE0211E0812FDF916A
:103B6000CF911F91FF90EF90DF90CF900895C431D7
:103B7000FCE7DF0771F038F0C5318CE7D80721F793
:103B80000E944E1DE1CF80911B01816080931B013B
:103B9000DBCF0E94591DD8CF80911C0190911D014F
:103BA000059790931D0180931C01CECF0E94611D4B
:103BB000CBCF80911B018F7EC13ED10531F0C53E38
:103BC000D105A1F580911B018F7D80931B01809110
:103BD0001B0180FFC2CFB701CE010E943B1CF70141
:103BE0001581882309F459C0112309F450C00E949B
:103BF000CA0D182F0E94ED0D812B8D7FE9F01092D8
:103C0000DF021092DE0260E0CE010E94701CA7016C
:103C100060E0CE010E94531C0E94ED0D8D7F0E943A
:103C20001C0E82E00E948E0E10E098CFCE019052C2
:103C30008115904360F691CF87E0F701A7EDB2E0E0
:103C400001900D928A95E1F71092DA021092D90252
:103C50000E94CA0D182F0E94ED0D812B90911B011F
:103C600081FB91F990931B010E94ED0D8D7F0E94C5
:103C70001C0ED093DF02C093DE02D092E102C0920C
:103C8000E00280911B01846080931B01CACFA701D1
:103C9000B601CE010E94AE1C61CF11115ACF5DCF8B
:103CA0008832910548F48E319105A0F4049750F0C4
:103CB00082E00E94DD0D0EC08D329105C9F320F423
:103CC0008A9741F080E008958C34910519F08D3287
:103CD0009240C1F781E00895B0E0A0E0E2E7FEE1A4
:103CE0000C94B12DEC017B01C3378CE7D80769F444
:103CF000FB011581112319F00E94421F10E0812F52
:103D0000CDB7DEB7E7E00C94CD2D0E94CA0D082F89
:103D10000E94ED0DD82E0E940F1F811102C011E0EC
:103D2000EECF0E94061FF70115811123C1F30D2963
:103D30000D7909F05AC0C034F2E5DF0750F5C1151E
:103D400082E5D807E0F6C115E0E4DE07C0F4C1154E
:103D5000F0E2DF07E0F5C63ED10589F20E94711D51
:103D6000811152C08FEF0E94E30DCE010E94501EC0
:103D7000C82F8823D1F10E94690E1C2FC0CFC11516
:103D800080E5D80758F7F7018681807F41F2DD276B
:103D9000E5CFC03EE2E5DE07A0F4C03CF2E5DF0778
:103DA00008F0ADCFC03682E5D807C0F2C03AE2E5F0
:103DB000DE0708F4A4CFC43BF2E5DF0709F49FCF88
:103DC000CDCFCE0187579C47029740F698CFF70199
:103DD0008681807FE1F68D2F8F71823191F040F4E2
:103DE000C1EED0E0823009F4B9CF0E94231F87CF03
:103DF000843109F484CFC6EED2E1863109F4AECF26
:103E0000F4CFC5EED0E0AACF8DEFADCF0E940C2647
:103E100088579C4E9093E3028093E202089580912C
:103E2000E402089508958091E40281110BC00E947C
:103E3000DA0D0E94290E0E94061F81E08093E402A1
:103E40000E94121F08958091E402882341F082E2CB
:103E50000E940F091092E40280E00E94121F089550
:103E60008091E402882369F00E940C262091E202EE
:103E70003091E302821B930B8F3F9F4710F40E9407
:103E8000231F08958091E402882319F00E94231FC4
:103E900008950E94131F0895CF93DF93EB0186319D
:103EA0009C4711F50E94CA0D9D81992399F08A7A49
:103EB00091E009F490E09093E502811109C089E254
:103EC0000E941F250E94690E80E0DF91CF91089526
:103ED00085E3F6CF8091E502811104C089E20E945A
:103EE0002725F0CF85E3FBCF81E0EFCFCF93DF93A2
:103EF000EC01FB018581882309F4D2C09E01305773
:103F00002332310508F0B2C00E94E80E90930903F5
:103F100080930803FE01E150F047E232F10520F4FE
:103F2000E45DF04D0C946F2D8091080381608093C7
:103F3000080393C0809109038860809309038DC0B2
:103F4000809108038260F3CF809108038460EFCFF3
:103F5000809108038860EBCF809109038160EDCFE9
:103F6000809109038260E9CF809108038061DFCFEF
:103F7000809108038062DBCF809108038064D7CFF3
:103F80000E942C09809108038068D1CF809108039A
:103F90008C60CDCF809109038360CFCF80910803DF
:103FA0008E7FC5CF80910903877FC7CF809108039B
:103FB0008D7FBDCF809108038B7FB9CF809108039F
:103FC000877FB5CF809109038E7FB7CF809109039A
:103FD0008D7FB3CF809108038F7EA9CF8091080396
:103FE0008F7DA5CF809108038F7BA1CF0E942C09E4
:103FF000809108038F779BCF80910803837F97CFB1
:10400000809109038C7F99CF8091080382FB9927C7
:1040100090F921E0922790FB82F990FB83F987CFFA
:1040200080910903982F909591708E7F892B90FB3A
:1040300081F983CF90910803892F8F7B96FF80644D
:1040400076CF0E942C0990910803892F97FB87F95E
:1040500080586DCF81E00E94760F80910803909187
:1040600009030E94ED0E0E942C0980E0DF91CF91A0
:10407000089580E0F0CF90910803892F8F7E94FF00
:10408000806155CF90910803892F8E7F90FF8160CA
:104090004ECF90910903892F877F93FF88604DCF82
:1040A00081E0E4CF282F35EB2303C001112497FFD3
:1040B00004C080589109892F089580589F4FFBCFE5
:1040C0008091EC0280FF0DC06091230170E0660FCB
:1040D000771F6038710570F56115710569F1862FDC
:1040E000089581FF07C06091230184E0689FB001BB
:1040F0001124EFCF6091230182FD0AC08091EB0271
:104100008823A9F02091220160912301821710F0E9
:1041100088E0ECCF869FC001112433E0880F991FFF
:104120003A95E1F7622F70E00E94392DD2CF68E016
:1041300070E0D5CF8FE7089581E008958091EC027B
:1041400080FF0CC060911F0170E0759567957595B3
:1041500067956115710549F1862F089581FF06C0A5
:1041600060911F0170E075956795F3CF60911F0115
:1041700082FD0BC09091EA029923A1F060911E018B
:1041800080911F01961738F0682F70E06038710534
:1041900000F38FE70895899FC001112470E00E9409
:1041A000392DF4CF61E070E0D7CF81E00895909190
:1041B000EF022091F002922B2091F202922B20919B
:1041C000F102922B31F098E09093EB0291E0909302
:1041D000EA028D3C31F40E94602081958093F002C8
:1041E00008958E3C19F40E946020F8CF8F3C31F482
:1041F0000E94602081958093EF020895803D19F41C
:104200000E946020F8CF893D29F40E949E2080936F
:10421000F10208958A3D21F40E949E208195F7CFF6
:104220008B3D31F40E949E2081958093F202089587
:104230008C3D19F40E949E20F8CF9FE2980F983091
:1042400070F4815D990B21E030E001C0220F8A9566
:10425000EAF78091EE02822B8093EE0208958D3D65
:1042600031F48091EC0281608093EC0208958E3DE0
:1042700021F48091EC028260F7CF8F3DB9F78091F5
:10428000EC028460F1CF4091EF028D3C59F48091B3
:10429000F00287FF0DC01092F00241110BC0109286
:1042A000EB0208C08E3C81F48091F00218169CF35A
:1042B000442381F08091F1029091F202892B09F060
:1042C0005AC01092EA0208958F3C49F447FFF0CF9C
:1042D0001092EF028091F0028111ECCFE0CF803D8F
:1042E00019F41416ACF3E4CF9091F102893D29F44E
:1042F0001916F4F61092F102DBCF8A3D19F497FFFC
:10430000D7CFF8CF9091F2028B3D29F497FFD0CF11
:104310001092F202CDCF8C3D19F41916CCF3C8CF10
:104320009FE2980F983090F4815D990B21E030E086
:10433000B90102C0660F771F8A95E2F7CB0180951D
:104340009091EE0289238093EE02B2CF8D3D31F43D
:104350008091EC028E7F8093EC02AACF8E3D21F4F7
:104360008091EC028D7FF7CF8F3D09F0A1CF809136
:10437000EC028B7FF0CF08950E940C269C01909157
:10438000EF028091F002982B21F03093E902209304
:10439000E8029091F1028091F202982B21F0309383
:1043A000E7022093E6028DEE92E00E9477240895C2
:1043B00086E0EDEEF2E0DF011D928A95E9F71092BA
:1043C000EB021092EA021092EC020895FC01828145
:1043D00081110EC0838181110BC08481811108C0BD
:1043E00091E08581811101C090E0892F817008954D
:1043F00081E0FCCFA6E0B0E0E0E0F2E20C94B52D65
:1044000086E0EDEEF2E0DE01119601900D928A95C4
:10441000E1F71092EF021092F0021092F102109266
:10442000F2028B819C81892B89F08091E802909126
:10443000E9020E942426AC019091EB029923C9F174
:10444000809124018417150608F440C08D819E8157
:10445000892B91F08091E6029091E7020E94242638
:10446000AC019091EA02992309F46AC0809120017D
:104470008417150608F472C0BE016F5F7F4F8DEE82
:1044800092E00E943A25811105C08DEE92E00E94D3
:10449000E62181110E94BC2186E0FE013196ADEE3D
:1044A000B2E001900D928A95E1F72696E3E00C9434
:1044B000D12D209125018AE0289F900111242417F5
:1044C000350720F69F5F9093EB0202C09F3FD1F724
:1044D0001B81112359F00E9460209FEF11160CF4EC
:1044E00091E0899F802D11248093EF021C8111237C
:1044F00059F00E9460209FEF11160CF491E0899F03
:10450000802D11248093F0028091EF02882309F41A
:104510009DCF1091F002112309F498CF0E945220F0
:10452000882351F08093EF02812F0E94522088232C
:1045300029F08093F0028ACF81E0F4CF81E0F9CFB7
:10454000209121018AE0289F90011124241735072A
:1045500008F092CF9F5F9093EA0202C09F3FD1F78D
:104560001D81112359F00E949E209FEF11160CF41B
:1045700091E0899F802D11248093F1021E811123E7
:1045800059F00E949E209FEF11160CF491E0899F34
:10459000802D11248093F2028091F102882309F486
:1045A0006BCF1091F202112309F466CF0E945220C2
:1045B000882351F08093F102812F0E94522088239A
:1045C00029F08093F20258CF81E0F4CF81E0F9CF57
:1045D000B0E0A0E0EEEEF2E20C94B12DE82FF0E0B6
:1045E000EA5EFB4FD490282F26952695269530E03D
:1045F000F901EA54FB4F0491877010E0082E02C0C5
:10460000159507950A94E2F701701127F901EA550B
:10461000FB4FE490F12C082E02C0F594E7940A9425
:10462000E2F791E0E922FF24F901EA56FB4FC49139
:10463000D0E002C0D595C7958A95E2F7C170DD2715
:104640000115110519F081EE0E94BF05E114F10476
:1046500019F086EE0E94BF058D2D0E94BF06E11461
:10466000F10419F086EE0E944D060115110519F0AE
:1046700081EE0E944D06CD2B19F08CE20E94BF0600
:10468000CDB7DEB7E7E00C94CD2DEF92FF920F93FC
:104690001F93CF93DF93EC01162F0AE088818823C4
:1046A00009F454C0813009F04EC08981813099F4F9
:1046B0007E0122E0E20EF11C8A810E94BF06E70122
:1046C0002196812F815050F3EFE9FFE03197F1F708
:1046D00000C00000F7CF823041F47E0182E0E80E96
:1046E000F11C8A810E94BF05EACF833041F47E012C
:1046F000E2E0EE0EF11C8A810E944D06E0CF84308C
:1047000011F02196DDCF2A81229690E080E0AE0163
:104710004F5F5F4F2053330B2A30310548F001972C
:1047200078F2EFE9FFE03197F1F700C00000F7CF32
:10473000089FB001099F700D1124C901860F971FB2
:104740002981EA01E4CF0E94E822BACFCDB7DEB7D3
:10475000E6E00C94CE2D60E00E94452308950F936F
:104760001F93CF93DF93C42FD22FFC018581882321
:10477000C9F04093F5020E940C269093F4028093B6
:10478000F30280E28C0F883040F4C77081E001C0F2
:10479000880FCA95EAF70E94C806DF91CF911F9152
:1047A0000F9108951091F502141332C08091F30215
:1047B0009091F4020E9424268F3A910548F5C0E2B8
:1047C000CD0F1D17B9F080E2810F883040F41770CB
:1047D00081E001C0880F1A95EAF70E94CF06C83021
:1047E00048F481E09D2F977001C0880F9A95EAF7F1
:1047F0000E94C806802F0E94BF06C83070F6D7708E
:1048000081E001C0880FDA95EAF70E94CF06C5CF94
:1048100080E28C0F883008F6C77081E001C0880FF5
:10482000CA95EAF7F2CF0F93DB0188519C47873096
:104830009105A0F5FC01E25BF04D0C946F2D06E2B2
:1048400021EE41EE6AE17CE7CD010E94AF2380E0DA
:104850000F91089507E225EE45EE6BE17CE7F4CF7A
:1048600006E221EE40EE68E17CE7EECF07E225EEBE
:1048700044EE69E17CE7E8CF06E221EE42EE6CE12E
:104880007CE7E2CF07E225EE46EE6DE17CE7DCCF88
:1048900008E221E045EE6EE17CE7D6CF15968C91DB
:1048A000882319F01092F502D3CF81E0D1CF9093F5
:1048B000FB028093FA020895E091FA02F091FB0264
:1048C000309729F00190F081E02D0995089580E05E
:1048D00008950E945C240895E091FA02F091FB0291
:1048E000309721F00280F381E02D09950895E09141
:1048F000FA02F091FB02309739F022E0DC012C93B0
:104900000680F781E02D09950895A3E0B0E0EBE87B
:10491000F4E20C94B62D2091F8023091F902281798
:104920003907A1F09093F9028093F802E091FA021E
:10493000F091FB02309751F023E029839B838A8317
:104940000084F185E02DCE01019609952396E2E0E1
:104950000C94D22DA3E0B0E0E0EBF4E20C94B62D81
:104960002091F6023091F70228173907A1F09093B1
:10497000F7028093F602E091FA02F091FB02309781
:1049800051F024E029839B838A830084F185E02D04
:10499000CE01019609952396E2E00C94D22D409128
:1049A0000601509107019A012E5F3F4F485F5F4F0C
:1049B00080E02417350709F40895F90191919F01CA
:1049C0009923B9F38F5FF5CF882371F02091060109
:1049D00030910701F9013296285F3F4F9191981766
:1049E00029F0E217F307D1F780E0089581E00895F8
:1049F0009C01FC0132969FEF80E04191461751F0F7
:104A00009F3F19F4411101C0982F8F5F8630A9F79D
:104A10009F3F09F40895290F311D97FD3A95F9013B
:104A200062830895FC01329608962191261303C0F3
:104A3000DF0111971C92E817F907B9F70895682F5D
:104A400080910601909107010E94F8240895682F33
:104A500080910601909107010E9412250895E0912E
:104A60000601F0910701329686E0DF011D928A95DA
:104A7000E9F70895DC01FB0111969C911197818162
:104A8000981322C012968C911297882319F0928164
:104A900089131AC013968C911397882319F0938168
:104AA000891312C015968C911597882319F095815A
:104AB00089130AC014969C91992321F081E02481E6
:104AC000291303C080E001C081E08170089508953A
:104AD0000E9467250895811106C081E08093FC0241
:104AE0000E946825089582E0F9CF83E08093FC025C
:104AF0000E94682508950E946B25089581E08093A7
:104B0000FC020E94682508950E947E25089508955C
:104B100008950E9488250895089508950E94872584
:104B20000895CF930E948C250E9457130E948D25D3
:104B3000C0E08C2F0E94A012811105C0CF5FC7304A
:104B4000C1F7CF91089581E0FCCF85B7806885BF1C
:104B500085B7806885BF08951F921FB61F921124E4
:104B60008F939F93AF93BF938091FD02811113C0E8
:104B70008091410390914203A0914303B09144037B
:104B80004196A11DB11D8093410390934203A093D0
:104B90004303B0934403BF91AF919F918F911F90B6
:104BA0001FBE1F90189580914903843031F10E94F7
:104BB000B6041092FD0288E190E020E40FB6F8946C
:104BC000A895809360000FBE2093600083B7817F1B
:104BD000846083BF83B7816083BF7894889583B7EF
:104BE0008E7F83BF0FB6F894A8958091600088618E
:104BF00080936000109260000FBE08950E942C09FF
:104C00000E94BD04089582E084BD93E095BD9AEFB3
:104C100097BD80936E0008952FB7F894809141035B
:104C200090914203A0914303B09144032FBF089594
:104C30002FB7F89460914103709142038091430330
:104C4000909144032FBF08959C014FB7F894809131
:104C5000410390914203A0914303B09144034FBF9D
:104C6000821B930B089578941F921FB61F921124F4
:104C70008F939F93AF93BF93809141039091420391
:104C8000A0914303B09144030196A11DB11D8093EF
:104C9000410390934203A0934303B0934403BF9115
:104CA000AF919F918F911F901FBE1F90189581E02B
:104CB0008093E00080E28093D8001092C9008FE1D9
:104CC0009EE40197F1F700C0000087E090EBDC0163
:104CD0008093520390935303A0935403B0935503CE
:104CE00088E19CE00FB6F894A895809360000FBE11
:104CF00090936000FFCF88E19CE00FB6F894A895F0
:104D0000809360000FBE90936000FFCF80910603F8
:104D1000089508959B01BA01909149039430E9F4F4
:104D20008F708093E9009FEF8091E800915085FD9E
:104D300006C085ED8A95F1F700009111F5CF8091BD
:104D4000E80085FF0AC050E040E0C9010E948428C5
:104D50008091E8008E778093E800089543E050E06A
:104D6000BC0182E00E948A26089546E050E0BC0122
:104D700082E00E948A260895CF93DF93EC0148E0F9
:104D800050E0BC0181E00E948A2688E0FE01AEEF7F
:104D9000B2E001900D928A95E1F7DF91CF910895ED
:104DA00080914803811109C00E94142A0E94712A2F
:104DB0008091E20084608093E2000895109248039D
:104DC00008950E947E2508956091450381E0611158
:104DD00001C080E00E94752508959091490381E00B
:104DE000943009F080E0609145030E947B2508958E
:104DF00042E061EC81E00E94902942E261EC82E0B5
:104E00000E9490299091490381E0943009F080E05C
:104E1000609145030E946B25089580914B03833078
:104E200009F461C030F48130D1F1823009F49EC0C0
:104E300008958A3009F48AC08B3009F46FC0893034
:104E400009F050C080914A03813209F04BC0809133
:104E50004E0390914F03029708F044C08091E80000
:104E6000877F8093E8008091E80082FF37C09091AF
:104E7000F3008091F200029731F48091F1008130CB
:104E800011F0863021F48091F10080930603809127
:104E9000E8008B778093E8000E94C42923C08091AA
:104EA0004A03813AF9F48091E800877F8093E80013
:104EB00080914E0390914F03892B61F468E08EEF4F
:104EC00092E070E00E94D3288091E8008B77809375
:104ED000E800089560E090E080E0F3CF809149031E
:104EE0008111C1CF089580914A03813AD9F7809109
:104EF0004E0390914F03892BA9F78091E800877F9B
:104F00008093E8008091E80080FFFCCF8091300121
:104F10008093F1008091E8008E77BCCF80914A03A6
:104F2000813201F780914E0390914F03892BD1F686
:104F30008091E800877F8093E8000E94C4298091D7
:104F40004C03809330010E942C09089580914A03FC
:104F5000813241F68091E800877F8093E8000E94CB
:104F6000C42980914D0380930703089580914A03DB
:104F7000813A09F0B7CF8091E800877F8093E800FD
:104F80008091E80080FFFCCF80910703C1CF84B7F8
:104F9000877F84BF0FB6F894A895809160008861E0
:104FA00080936000109260000FBE80E890E00FB622
:104FB000F89480936100909361000FBE0E94842555
:104FC00008950E94142A0E94712AE2EEF0E0808186
:104FD0008460808378940E94F02C089586E291E0AA
:104FE0000E945724089580914903853031F48091BF
:104FF0004903853019F00E94FE2508950E94D325AB
:1050000080914703882399F30E949125882379F39F
:105010000E946E280E942C09EACF08959A014091BF
:105020005003509151030E9416280895492F552787
:105030004330510519F168F44130510509F444C079
:105040004230510509F445C090E080E050E040E076
:1050500025C04132510549F142325105A9F784E496
:1050600090E046EB55E061157105C1F08BE790E0EB
:105070004BE355E06130710589F0E6CF9927813027
:10508000910581F0009729F00297F1F6E6ECF4E043
:1050900002C0EAEEF4E0849190E0AF01F90151839F
:1050A00040830895ECEDF4E0F6CF89E090E040E035
:1050B00055E06115710591F389E090E049E155E013
:1050C0006130710559F3C0CF82E190E049E255E0CB
:1050D000E5CF8BE390E04EEE54E0E0CF80E189BD78
:1050E00082E189BD09B400FEFDCF8091D8008F7D9B
:1050F0008093D8008091E00082608093E0008091EE
:10510000E00081FDFCCF0895AF92BF92CF92DF9275
:10511000FF920F931F93CF93DF936C01EB018A01F2
:105120000E94E329F82E811123C00115110539F0E1
:10513000F80180819181C81BD90BC80ED91EB12CF2
:10514000A12C2097A9F08091E80085FD22C08091D4
:10515000E8008E778093E80001151105A1F0F801B1
:1051600080819181A80EB91EB182A08285E0F82EBF
:105170008F2DDF91CF911F910F91FF90DF90CF90F6
:10518000BF90AF9008950E94E3298823D1F2F82EB2
:10519000EFCFF60181916F018093F1002197FFEF2E
:1051A000AF1ABF0ACECFFC018091500390915103FA
:1051B00086179707A0F06115710529F49091E80012
:1051C0009E779093E80090E06115710551F491117C
:1051D00008C08091E80082FF34C080E00895BC01DF
:1051E000F2CF809149038823C1F18530C1F18091CC
:1051F000E80083FD30C08091E80082FDEACF809115
:10520000E80080FFE1CF8091F3002091F200382F79
:105210006115710519F02830310558F091E02830FA
:10522000310509F090E02091E8002E772093E80006
:10523000CBCF81918093F100615071092F5F3F4F77
:10524000E7CF80914903882341F0853041F0809178
:10525000E80083FFBECF81E0089582E0089583E0F7
:105260000895FC0180915003909151038617970790
:10527000A0F06115710529F48091E8008E77809384
:10528000E80090E06115710551F4911108C080911A
:10529000E80082FF35C080E00895BC01F2CF809124
:1052A00049038823C9F18530C9F18091E80083FD65
:1052B00031C08091E80082FDEACF8091E80080FF54
:1052C000E1CF8091F3002091F200382F6115710534
:1052D00019F02830310558F091E02830310509F0F7
:1052E00090E08091E8008E778093E800CBCF8491A6
:1052F0008093F1003196615071092F5F3F4FE6CFE7
:1053000080914903882341F0853041F08091E80085
:1053100083FFBDCF81E0089582E0089583E0089582
:10532000982F973028F08F708093E90081E00895DE
:105330009093E900242F762F50E0981731F0709168
:10534000EC002091ED005091F00021FD02C09F5F24
:10535000E8CF3091EB003E7F3093EB003091ED00D1
:105360003D7F3093ED003091EB0031603093EB00E6
:105370007093EC002093ED005093F0002091EE002C
:1053800027FDE5CF80E0089580914A0387FF13C091
:105390008091E80082FF06C08091E8008B778093BF
:1053A000E80004C0809149038111F2CF08958091F3
:1053B00049038823D9F38091E80080FFF8CF8091DA
:1053C000E8008E77ECCF2091E4003091E50095E67F
:1053D000A9012091EC00822F817020FF06C08091EE
:1053E000E80080FF06C080E008952091E80022FDDB
:1053F0001AC080914903882389F0853089F0809113
:10540000EB0085FD0FC02091E4003091E5004217CC
:105410005307F9F29150E1F684E0089582E008958F
:1054200083E0089581E008950E94832A0E948B2AD8
:10543000E0EEF0E0808181608083E8EDF0E0808143
:105440008F77808319BCA7EDB0E08C918E7F8C9311
:1054500080818F7E80831092480308950F931F935D
:10546000CF93DF930E94832A0E948B2AC8EDD0E05D
:1054700088818F77888388818068888388818F7D01
:10548000888319BC10924903109245031092470378
:105490001092460300EE10E0F80180818B7F80833C
:1054A00088818160888342E060E080E00E949029EA
:1054B000E1EEF0E080818E7F8083E2EEF0E080819B
:1054C00081608083808188608083F80180818E7F05
:1054D0008083888180618883DF91CF911F910F91B4
:1054E0000895E8EDF0E080818F7E8083E7EDF0E0C5
:1054F00080818160808384E082BF81E08093480363
:105500000E942E2A0895E8EDF0E080818E7F80834E
:105510001092E20008951092DA001092E1000895CE
:105520001F920F920FB60F9211242F933F934F9318
:105530005F936F937F938F939F93AF93BF93EF93FB
:10554000FF938091E10082FF0BC08091E20082FF17
:1055500007C08091E1008B7F8093E1000E94EF2CD7
:105560008091DA0080FF19C08091D80080FF15C0BB
:105570008091DA008E7F8093DA008091D90080FFDD
:1055800096C080E189BD82E189BD09B400FEFDCFEE
:1055900081E0809349030E94D0268091E10080FF42
:1055A00019C08091E20080FF15C08091E2008E7FDB
:1055B0008093E2008091E20080618093E20080911C
:1055C000D80080628093D80019BC85E0809349039D
:1055D0000E94E4268091E10084FF2BC08091E200CC
:1055E00084FF27C080E189BD82E189BD89B5982FFC
:1055F000917080FFFBCF8091D8008F7D8093D80081
:105600008091E1008F7E8093E1008091E2008F7EA7
:105610008093E2008091E20081608093E2008091BB
:105620004503882309F449C084E0809349030E941C
:10563000ED268091E10083FF29C08091E20083FF85
:1056400025C08091E100877F8093E10082E0809314
:105650004903109245038091E1008E7F8093E10021
:105660008091E2008E7F8093E2008091E200806171
:105670008093E20042E060E080E00E949029809107
:10568000F00088608093F0000E94E126FF91EF9186
:10569000BF91AF919F918F917F916F915F914F914A
:1056A0003F912F910F900FBE0F901F90189519BC2E
:1056B000109249030E94DE2670CF8091E30087FD9F
:1056C00093E090934903B3CF1F920F920FB60F92BE
:1056D00011242F933F934F935F936F937F938F93F7
:1056E0009F93AF93BF93CF93DF93EF93FF93D091AB
:1056F000E900DF708091EC00C82FC17080FDC0E828
:105700001092E9008091F000877F8093F0007894F8
:105710000E94A82B1092E9008091F000886080938D
:10572000F000CD2BCF70C093E900FF91EF91DF9196
:10573000CF91BF91AF919F918F917F916F915F9129
:105740004F913F912F910F900FBE0F901F90189582
:10575000AAE2B0E0EEEAFBE20C94B52D8AE493E015
:105760002091F100FC012193CF01F3E082359F07E6
:10577000B9F70E940D278091E80083FF1EC1809138
:105780004A0390914B039A3008F017C1E92FF0E0DB
:10579000EB5AF04D0C946F2D803899F0823809F057
:1057A0000CC180914E038F70873008F006C1809342
:1057B000E9008091EB0085FB882780F91092E900D1
:1057C00006C08091460390914703911182609091A9
:1057D000E800977F9093E8008093F1001092F10029
:1057E0008091E8008E77E5C0882309F4D3C0823029
:1057F00009F0E3C080914C038111D6C080914E0323
:105800008F702FEF280F263008F0D7C08093E90063
:105810002091EB0020FFC8C0933031F48091EB0061
:1058200080628093EB00C0C09091EB0090619093F8
:10583000EB0021E030E001C0220F8A95EAF72093C7
:10584000EA001092EA008091EB008860EACF8111B3
:10585000B4C010914C031F778091E3008078812BB6
:105860008093E3008091E800877F8093E8000E94A6
:10587000C4298091E80080FFFCCF8091E30080681C
:105880008093E30082E0111183E08093490395C087
:105890008058823008F091C080914C0390914D0364
:1058A0008C3D23E09207A1F583E08A838AE2898315
:1058B0004FB7F894DE01139620E03EE051E2E32F6B
:1058C000F0E050935700E49120FF03C0E295EF70A1
:1058D0003F5FEF708E2F90E0EA30C0F0C7968D9357
:1058E0009D932F5F243159F74FBF8091E800877F48
:1058F0008093E8006AE270E0CE0101960E94D3280E
:105900008091E8008B778093E80057C0C096E7CF7E
:1059100060914E0370914F03AE014F5F5F4F0E9445
:105920000E28BC01892B09F448C09091E800977FAC
:105930009093E80089819A810E943129E1CF8038D3
:10594000E1F58091E800877F8093E800809145032E
:105950008093F10045CF811130C090914C0392307B
:1059600060F58091E800877F8093E800909345037D
:105970000E94C42980914503882311F084E005C06A
:105980008091E30087FDFACF81E0809349030E9474
:10599000F82613C080914C03813079F481E0933074
:1059A00009F080E0809347031092E9008091E800BD
:1059B000877F8093E8000E94C4298091E80083FFDC
:1059C0000AC08091E800877F8093E8008091EB0017
:1059D00080628093EB00AA96E3E00C94D12D0895A9
:1059E000CF93809149038823A1F0C091E900CF7043
:1059F0009091EC00892F817090FD80E8C82B109267
:105A0000E9008091E80083FD0E94A82BCF70C0932D
:105A1000E900CF910895991B79E004C0991F96176A
:105A200008F0961B881F7A95C9F78095089587FB23
:105A3000082E062687FD819567FD61950E940B2D36
:105A40000EF4919507FC81950895AA1BBB1B51E1AB
:105A500007C0AA1FBB1FA617B70710F0A61BB70BDE
:105A6000881F991F5A95A9F780959095BC01CD0183
:105A7000089597FB072E16F4009407D077FD09D000
:105A80000E94252D07FC05D03EF4909581959F4FEF
:105A90000895709561957F4F0895A1E21A2EAA1B73
:105AA000BB1BFD010DC0AA1FBB1FEE1FFF1FA217CE
:105AB000B307E407F50720F0A21BB30BE40BF50BCB
:105AC000661F771F881F991F1A9469F76095709554
:105AD000809590959B01AC01BD01CF010895EE0F1B
