:100000000C94A2020C94DA020C94DA020C94DA0238
:100010000C94DA020C94DA020C94DA020C94DA02F0
:100020000C94DA020C94DA020C9418240C94EC244C
:100030000C94FC1E0C94DA020C94DA020C94DA0292
:100040000C94DA020C94DA020C94DA020C94DA02C0
:100050000C94DA020C94831F0C94DA020C94DA02EA
:100060000C94DA020C94DA020C94DA020C94DA02A0
:100070000C94DA020C94DA020C94DA020C94DA0290
:100080000C94DA020C94DA020C94DA020C94DA0280
:100090000C94DA020C94DA020C94DA020C94DA0270
:1000A0000C94DA020C94DA020C94DA022B6F14002E
:1000B0001A00080015001700296104001600070047
:1000C00009000A00E1001D001B00060019000500E0
:1000D0001C0018000C00120013002A000B000D0079
:1000E0000E000F00330034001100100036003700FE
:1000F00038002872E30001512C000251E200000098
:10010000010035003502260227021E0201002D00E3
:100110002E002F023002310201002D022E022F008C
:10012000300021022F0A300A2F08300801004C004D
:100130005000510052004F00016101684A004E001A
:100140004B004D0001002C7201000100280001004D
:100150000100000001001E021F02200221022202F3
:1001600001001E001F0020002100220044003A0070
:100170003B003C003D003E002302240225022602F3
:1001800027024C0023002400250026002700010040
:100190003F004000410042004300450001000100D3
:1001A0002A00010001000000CA5CC85CC65CCC5C8F
:1001B000C45CC35C0000FD00FE00FF00F100F20023
:1001C000CB5CC95CC75CCD5CC55CF3000000000083
:1001D000000000000000005CEF00EE00ED00F00009
:1001E00000000000FB00FA00F900FC000000000025
:1001F00001000100000001000100000000047F3F39
:100200001F643214643214783C1E1E140A05222323
:10021000252628292A2C2D2F3032333536383A3BE3
:100220003D3E4042434547494A4C4E505153555735
:10023000595A5C5E6062646668696B6D6F71737554
:1002400077797B7D7F81838587898A8C8E90929454
:1002500096989A9C9E9FA1A3A5A7A8AAACAEAFB161
:10026000B3B4B6B8B9BBBCBEBFC1C2C3C5C6C7C9AB
:10027000CACBCCCDCED0D1D2D2D3D4D5D6D7D7D865
:10028000D9D9DADADBDBDBDCDCDCDCDCDDDDDDDDB7
:10029000DCDCDCDCDCDBDBDBDADAD9D9D8D7D7D6BF
:1002A000D5D4D3D2D2D1D0CECDCCCBCAC9C7C6C576
:1002B000C3C2C1BFBEBCBBB9B8B6B4B3B1AFAEACBC
:1002C000AAA8A7A5A3A19F9E9C9A98969492908E67
:1002D0008C8A89878583817F7D7B79777573716F40
:1002E0006D6B6968666462605E5C5A59575553511C
:1002F000504E4C4A4947454342403E3D3B3A3836D2
:10030000353332302F2D2C2A292826252322FFAAE7
:100310007F554000010101010101010101020202BA
:1003200002020202020203030303030303030404A1
:10033000040404040405050505050606060606076B
:100340000707070708080808090909090A0A0A0B24
:100350000B0B0C0C0C0D0D0D0E0E0E0F0F0F1010C5
:10036000111111121213131414151516161717184C
:100370001819191A1A1B1B1C1D1D1E1E1F202021B7
:100380002222232424252626272829292A2B2C2DFE
:100390002D2E2F30313232333435363738393A3B1F
:1003A0003C3D3E3F404142434445464748494A4C14
:1003B0004D4E4F50515354555658595A5B5D5E5FE0
:1003C000616264656668696B6C6D6F707273757776
:1003D000787A7B7D7E8082838587888A8C8E8F91D8
:1003E000939596989A9C9EA0A2A3A5A7A9ABADAF02
:1003F000B1B3B5B7BABCBEC0C2C4C6C9CBCDCFD1EC
:10040000D4D6D8DBDDDFE2E4E7E9EBEEF0F3F5F894
:10041000FAFDFF1403720065007600690075006E36
:100420000067003400310000000C036700740069AD
:10043000007000730000000403090409023B00027D
:100440000100A0FA090400000103010100092111C3
:100450000100012240000705810308000109040191
:10046000000103000000092111010001227B0007A7
:100470000582032000011201000200000008077835
:10048000CBDC01000102000105010902A101850286
:100490000901A10005091901290815002501950880
:1004A000750181020501093009311581257F950209
:1004B0007508810609381581257F95017508810623
:1004C000050C0A38021581257F950175088106C043
:1004D000C005010980A101850319012AB700150192
:1004E00026B700950175108100C0050C0901A10116
:1004F000850419012AA002150126A0029501751094
:100500008100C005010906A101050719E029E715C9
:100510000025019508750181029501750881010585
:1005200007190029FF150026FF00950675088100B0
:1005300005081901290595057501910295017503B5
:100540009101C00011241FBECFEFDAE0DEBFCDBFA6
:1005500004B603FE18C08091BE029091BF02A09124
:10056000C002B091C1028730904BA740B04B59F404
:100570001092BE021092BF021092C0021092C102ED
:10058000E0E0F8E3099511E0A0E0B1E0E0EDFFE480
:1005900002C005900D92AE3BB107D9F722E0AEEB59
:1005A000B1E001C01D92AE3BB207E1F70E94E81135
:1005B0000C94D0270C94000023E042E061E00E94FC
:1005C0003103089581E0089581E008950E94E402D6
:1005D000089508950E94E9020895A5E0B0E0E3EFD0
:1005E000F2E00C94312749835A833091C501898107
:1005F0009A81311119C0662399F0222389F00E9453
:100600000C09182F682F89819A810E94E808698156
:100610007A81812F0E947C0F2596E3E00C944D2770
:100620000E94FA08182FF3CF0E940C0969817A8181
:10063000F1CFFC01262F4081518162817381848139
:100640000E94ED02089581E00895CF93DF93EC01BD
:1006500060E00E941903BE010E94EA02DF91CF917F
:100660000895E1E0F0E0DF0102C0AA0FBB1F6A9528
:10067000E2F7BD01DF0102C0AA0FBB1F4A95E2F7F6
:10068000AD01462B572B02C0EE0FFF1F2A95E2F754
:100690009A01282339232417350719F48E2B9F2B11
:1006A0000895E095F0958E239F2308950E94A3104E
:1006B00008950E94A710089508950E94B6070E9409
:1006C0005C032FEF84E39CE0215080409040E1F7F1
:1006D00000C0000008950E945D030E94A71F0895B6
:1006E0000E945D030E94CB1F08950F931F93CF9329
:1006F000DF938C0161E00E941903EC01B8010E94B4
:10070000E602811106C080E0DF91CF911F910F9129
:100710000895B801CE010E94AA1D8823A1F3B80153
:10072000CE010E94AE1B882371F3B801CE010E9456
:100730001C1D882341F3B801CE010E94BA1A8823F8
:1007400011F3F8018281882361F0CB35FDE5DF07E5
:1007500001F158F4C115ECE5DE0791F0CF3DDC4521
:1007600091F0C8010E94E202CFCFCD358DE5D807C8
:1007700069F090F0C83ADD45A1F70E947003C3CF3D
:100780000E946B03C0CF0E94BF0DF7CF0E94040DE3
:10079000E8CF0E940E0DE5CF0E94120DE2CF0E941D
:1007A000D91E0E94F0030E94301908950E94F4039C
:1007B0000E94071A0E94DE1E089508950E94DD031C
:1007C000089581E008950E94E10308950895CF936C
:1007D000C82F0E94DE038C2F0E94E303CF9108955F
:1007E00080E00E94E70308950E94061E0E94E7032E
:1007F0000895CF930E94061EC82F8091C0018C17C8
:1008000079F0C093C0010E94681F6093C10170938A
:10081000C2018093C3019093C4018C2F0E94E7030F
:10082000CF910895ABE0B0E0E8E1F4E00C9432271A
:100830004F83588769877A878B8761110E944F0C95
:100840001E821D8285E0FE013796DE011196019021
:100850000D928A95E1F78C819D81892B61F4498104
:100860005A816B817C818D819E810E94780B2B96B1
:10087000E2E00C944E2789819A8189238F3F79F396
:10088000CE0101960E9423038111E9CFF0CFFC0134
:10089000808191810E943E090895CF93C82F8823BB
:1008A000C9F08238C9F40E94061E81FD13C089E395
:1008B0000E94070C0E94700C2FEF87EE93E02150EE
:1008C00080409040E1F700C0000089E30E940F0CD7
:1008D0000E94700CCF9108958338A1F40E94061EE7
:1008E00080FDF8CF83E50E94070C0E94700C2FEF6B
:1008F00081EE94E0215080409040E1F700C000007C
:1009000083E5E4CF8438A1F40E94061E82FDE2CF85
:1009100087E40E94070C0E94700C2FEF81EE94E098
:10092000215080409040E1F700C0000087E4CECF26
:100930008CEF8C0F813A90F46C2F80910001909194
:1009400001010E946A1E882329F08C2F0E940F0C3F
:100950000E94700C8C2F0E94070CBACF80E28C0F83
:10096000883048F4C77081E001C0880FCA95EAF763
:100970000E94320CADCFEBE5EC0FE33040F4F0E039
:10098000E85AFE4F808190E00E942C1EA3CFE8E53C
:10099000EC0FE73150F4F0E0EE0FFF1FE65DFE4F85
:1009A000808191810E94421E95CFCD3E08F492CF66
:1009B0008C2F0E946C120E943F138CCF882309F465
:1009C00055C0823879F40E94061E81FF4FC089E32A
:1009D0000E94070C0E94700C89E30E940F0C0E9479
:1009E000700C0895833859F40E94061E80FF3EC0A3
:1009F00083E50E94070C0E94700C83E5EECF8438DB
:100A000059F40E94061E82FF31C087E40E94070C41
:100A10000E94700C87E4E1CF9CEF980F913AE8F2C6
:100A200090E2980F983050F4877091E001C0990FD0
:100A30008A95EAF7892F0E94380CD1CF9BE5980F51
:100A4000933028F490E080E00E942C1E089598E5F1
:100A5000980F973128F490E080E00E94421E08959C
:100A60008D3E20F00E94C6120E943F1308951F93EE
:100A7000CF93DF93182FEB010E944D04209739F498
:100A8000812F0E94DE04DF91CF911F9108958FE99D
:100A90009FE00197F1F700C000002197EFCF70E0D1
:100AA00060E0893311F460E570E00E943705089535
:100AB000882321F00E94320C0E94700C0895882334
:100AC00021F00E94380C0E94700C0895B0E0A0E064
:100AD000ECE6F5E00C942B276C01D62FC72FFC0118
:100AE0001281F580F2949FE0F9220E94280CE82EF2
:100AF0008823B9F0E12E1123A1F08C2F807F803460
:100B000021F080E28D0F8830D0F08091780282FF52
:100B100016C082E00E94D30C0E94280C91E0E82EBF
:100B2000E926BC2EB2948FE0B822FBE0FB1508F456
:100B300068C0EB2DF0E0EE52F84D0C94EB26E12C62
:100B4000F0CF0C2F0F70C07F11F00295007F1123A2
:100B500099F0002359F080E28D0F883010F0D11108
:100B600007C0802F0E94320C0E94700C8D2F41C054
:100B7000802F0E94420CF8CF8D2F0E94DE040023AC
:100B800009F43FC080E28D0F883010F0D11104C00D
:100B9000802F0E94380C03C0802F0E94480C0E94B6
:100BA000700C2FC00C2F0F70C07FC03211F0029557
:100BB000007FDD2381F0D13009F463C0112309F4F3
:100BC0006DC0FF2009F463C0F601858180FFCECFA0
:100BD0008F7085835CC08091780282FD33C01123C1
:100BE00059F0002329F0802F0E94320C0E94700CD3
:100BF00080E00E944D0405C080E00E94DE040111E7
:100C0000C7CFEB2DE850FF0B349720F40E94061E4F
:100C10000E94E703EE2089F00E94240C80FD0DC0A5
:100C2000F60112820E941E0C0E944608C6010E9414
:100C300076070E941E0C0E945608CDB7DEB7E9E089
:100C40000C944727112389F0F11006C00E94520C22
:100C5000802B0E945805D5CF21E0F212F7CF0E94D9
:100C6000520C802B0E94590CCCCFF11006C00E9470
:100C7000660C802F0E945F05C4CF31E0F31609F2A5
:100C8000F6CF112331F085E08F1508F4BACF802F0D
:100C9000E0CF94E09F1508F4B4CFEBCFFF2049F3E9
:100CA000D93349F4FFEF27EE33E0F15020403040D4
:100CB000E1F700C000008D2F0E94DE04A2CF8C2F30
:100CC00086958695837069F0813009F09ACF8D2FD3
:100CD0009C2F9370111102C090E080E00E94421E90
:100CE00090CF8D2F9C2F9370111102C090E080E067
:100CF0000E942C1E86CF8D2F112329F00E946C128A
:100D00000E943F137ECF0E94C612FACF8C2F8370B1
:100D1000A1F5111176CF4D2F429546954770440F9E
:100D2000440F2D2F2F7030E0042E02C0220F331FEE
:100D30000A94E2F790E080E0D4FF09C08FE090E0F1
:100D400002C0880F991F4A95E2F780959095C69545
:100D5000C695C370822B932BC23049F058F4C13032
:100D600019F00E9417084DCF0E940E084ACF0E942A
:100D7000200847CF0E940B0844CF8695112311F01D
:100D80008C2F8170882309F43CCF4D2F42954695D6
:100D90004770440F440F2D2F2F7030E0042E02C0F7
:100DA000220F331F0A94E2F790E080E0D4FF09C0DD
:100DB0008FE090E002C0880F991F4A95E2F7809576
:100DC0009095C695C695C370822B932BC23049F07F
:100DD00058F4C13019F00E94810813CF0E9478089E
:100DE00010CF0E948A080DCF0E942C080ACFCF7026
:100DF000112329F08C2F0E9446088D2F2ACF8D2F8A
:100E00000E945F058C2F0E945608FBCED23F51F105
:100E100060F4D03FB9F0D13F81F0112309F449C00B
:100E2000F110A4CE8C2F8F7121C0D33F11F1D43F8C
:100E3000A1F78091780282FD26C08C2F8F7111233B
:100E400011F314C0112349F084E08F1508F4D9CEB2
:100E50008C2F8F710E946808D4CE95E09F1508F4FE
:100E6000D0CEF6CF8C2F8F711111CDCF0E944608B6
:100E7000C8CE112329F08C2F8F710E943A08C1CE61
:100E80000E943508BECE112349F0CF718C2F0E94ED
:100E9000460863E08C2F0E94B50CB3CE81E00E941F
:100EA000D30CE1E0EF1508F0ACCE82E00E94D30C49
:100EB000A8CEF110F5CE8C2F8F71A5CF0F931F9375
:100EC000CF93DF93EC01688179818A810E9449097F
:100ED0008C010E9493080E940A08B801CE010E946A
:100EE0006605DF91CF911F910F910895CF93DF9306
:100EF000EC018B819C81892B29F088819981892340
:100F00008F3F51F4DF91CF910895CE010E945E078B
:100F1000CE010E942503F6CFCE010E9475038111F8
:100F2000F4CF0E94280C882369F38A81882351F327
:100F30008091780282FFE6CF82E00E94D30CE2CF5C
:100F400090E080E00E942C1E90E080E00E94421E13
:100F50000E944F0C0E94700C0E945B130E943F1372
:100F600008950E94170C0E94A00708950E943F0C4C
:100F70000E94B107089592959F70963091F058F4B1
:100F8000925F9F70923058F4803F19F030F4883EA1
:100F900030F481E008959A5FF4CF843FD1F380E08C
:100FA0000895883EB0F3813FD1F7F3CFFC018381F0
:100FB0009481892B29F08081918189238F3F11F4BD
:100FC00080E00895808191810E943E090E94BB07C4
:100FD0000895A5E0B0E0EFEEF7E00C9432272596F7
:100FE000E2E00C944E27A6E0B0E0E9EFF7E00C94C5
:100FF00032272696E2E00C944E2708950E94FD07C2
:1010000008950E94FE079093E1018093E0010E9401
:10101000A007089508950E94010808952091E00115
:101020003091E101822B932B0E94010808952091B9
:10103000E0013091E101822393230E940108089589
:101040002091E0013091E101822793270E9401085D
:1010500008950E94DC0208950E9429089093DF0100
:101060008093DE010E94A007089590E080E00E9436
:101070002C08089521E030E0A90102C0440F551F5B
:101080008A95E2F7CA010E942C08089521E030E019
:1010900002C0220F331F8A95E2F78091DE01909102
:1010A000DF01822B932B0E942C08089521E030E071
:1010B00002C0220F331F8A95E2F720953095809168
:1010C000DE019091DF01822393230E942C08089572
:1010D00021E030E002C0220F331F8A95E2F78091B1
:1010E000DE019091DF01822793270E942C0808954A
:1010F0002091DE013091DF01822B932B0E942C087E
:1011000008952091DE013091DF01822393230E9414
:101110002C0808952091DE013091DF01822793276A
:101120000E942C0808950895262F277091E001C091
:10113000990F2A95EAF723E0769567952A95E1F7C6
:10114000660F771F660F771FFA01E60FF71F50E053
:1011500040E0682F70E08191DF0111979B01042E20
:1011600002C0369527950A94E2F721702195282729
:10117000292328272C934F5F5F4F4430510559F79F
:101180000895A82FA77023E0969587952A95E1F7F3
:10119000880F991F880F991FFB01E80FF91F50E076
:1011A00040E080E0219130E00A2E02C0369527957C
:1011B0000A94E2F721703327042E01C0220F0A940B
:1011C000EAF7822B4F5F5F4F4430510559F708957E
:1011D000262F973070F4863060F4682F70E086E038
:1011E000989F600D711D112446EC51E0822F0E94E2
:1011F00094080895292F973068F4863058F490E0C9
:1012000066EC71E036E0239F800D911D11240E9451
:10121000C108089580E00895B0E0A0E0E2E1F9E0BF
:101220000C942B277C010091DE011091DF0180914D
:10123000E0019091E101082B192BCFE0D0E0CC2404
:10124000C394D12CBC2EC6010C2E02C0880F991F4E
:101250000A94E2F780239123892B49F4219790F790
:10126000B12C8B2DCDB7DEB7E9E00C944727B70141
:101270008C2F0E94970F019789F3F3CFCF93DF93C1
:10128000EC010E940C09BE010E94970FDF91CF91E3
:1012900008951F93CF93DF93EB019091C50199239C
:1012A00039F0CB010E943E09DF91CF911F91089543
:1012B000882369F0CB010E940C09182F682FCE01FA
:1012C0000E94E808BE01812F0E94970FEDCFCB014D
:1012D0000E94FA08182FF6CF1F93CF93DF93C09187
:1012E000E20116E08091E3018C1304C0DF91CF91FD
:1012F0001F910895D0E01C9FF0011D9FF00D112457
:10130000EC51FE4F408151816281738184819581CE
:101310000E94F3072196C770E5CF409114025091C7
:101320001502609116027091170280911802909137
:1013300019020E94F30708951F93CF93DF938091C2
:101340001902807F09F049C080911602882309F4B0
:1013500044C08091E201C091E30160911402709158
:101360001502A0911702B0911802D62FD72316E0CC
:10137000C81799F190E0109711F0DF3F19F401962A
:101380008770F6CF189F9001199F300D1124F90135
:10139000EC51FE4F41814713F2CF40814613EFCF0E
:1013A00042814111ECCF438154814A1B5B0B483C85
:1013B000510528F7809119028F708061809319027E
:1013C000F901E751FE4F80818F708061808384E155
:1013D00092E00E9476070E946C09DF91CF911F91E5
:1013E0000895A1E1B0E0E7EFF9E00C942A278C0121
:1013F00085E0F801DE011D9601900D928A95E1F7D6
:10140000F801E28084E1C82E82E0D82E60911702B4
:10141000709118026115710509F44EC19091140282
:1014200020911502892F82238F3F09F445C1408105
:101430005181A380B480F0901602F501E61BF70BF2
:10144000FF2009F4EAC080911902382F307FE83C70
:10145000F10508F0A3C031116DC0FE2C251316C094
:10146000941314C0E11012C08F7080618093190230
:101470000E948D09C6010E94760780911902F80129
:1014800085838F2D6196EAE00C944627A114B10460
:1014900029F0842F85238F3F09F027C180E0F82FA2
:1014A000F170DF2E80FF3CC08091E2012091E301CA
:1014B00036E0821315C04D875E878D859E850E941C
:1014C0003E09292F22952F702230F0F0243018F594
:1014D0009F70F1F0F8019581907FD1F4D12C1EC05E
:1014E00090E0389FF001399FF00D1124EC51FE4F30
:1014F0006181651306C06081641303C06281E612D6
:101500000FC001968770D5CF9F7011F0882331F3FB
:10151000805E883018F3C8010E947607FD2CB1CF99
:10152000EE2009F4AECF80911902816080931902F8
:10153000F12CA7CF251306C0941304C0F801EE20A8
:1015400009F487C0C8010E94D607882319F1EE204C
:1015500009F180911902803270F0209114023091CB
:10156000150238872F831986BB86AA868C87CE0101
:1015700007960E94760786E0F801A4E1B2E00190A8
:101580000D928A95E1F70E949C090E948D09FF2423
:10159000F39477CFC8010E947607F9CF311113C0B9
:1015A0007A2DB98AA88A6E2D89890E94E90784E17B
:1015B00092E00E94760786E0F60111928A95E9F79B
:1015C0000E948D09B5CF25130FC094130DC0E110F3
:1015D0000BC0F8018583C8010E94760786E0F601FA
:1015E00011928A95E9F74DCFC8010E94D60788234A
:1015F00089F2EE2079F280911902803208F4BBCF93
:1016000020911402309115023A8329831B82BD82F6
:10161000AC828E83CE010196ACCFE83CF10508F098
:101620003EC0FE2CEE2009F4B5CF25132AC094133A
:1016300028C08091190280FD1BC0982F907FC1F0B7
:10164000F8018583903F31F0982F907F905F8F70E5
:10165000892B8583C8010E94760786E0F801A4E102
:10166000B2E001900D928A95E1F70E948D0909CFB1
:1016700086E0F801A4E1B2E001900D928A95E1F7CD
:1016800000CFC8010E94D607811175CF8091190241
:10169000816080931902C8010E947607F2CE7A2DEC
:1016A000B98AA88A6E2D89890E94E90786E0F60129
:1016B00011928A95E9F7D9CFEE2009F46BCFC801D2
:1016C0000E94D607F82E882309F464CF86E0F8013B
:1016D000A4E1B2E001900D928A95E1F784E192E0F5
:1016E0000E9447040E949C09C0CF81E08E25D7CE7E
:1016F000ACE0B0E0EEE7FBE00C9431274F83588775
:1017000069877A878B879C87CE0107960E94F109AB
:10171000882369F08A859B85892B39F04F8158850C
:10172000842F85238F3F09F06BC016E05FC086E0F1
:10173000FE013796DE01119601900D928A95E1F730
:101740008A859B85892B89F38F81988589238F3F93
:1017500061F32091E30130E0C90101968770992778
:101760004091E2014817190671F40E94B6071092E1
:10177000E3011092E20186E0E4E1F2E0DF011D9274
:101780008A95E9F7D2CF96E0929FD001939FB00D52
:101790001124AC51BE4FFE01319601900D929A95E5
:1017A000E1F78093E3010E946C09BFCF819FC001E4
:1017B00011248C519E4F0E94F1098823E9F0E09199
:1017C000E2011E9FF0011124EC51FE4F4081518136
:1017D00062817381848195810E94F3078091E20187
:1017E00090E00196877099278093E2018091E20151
:1017F0009091E3018913DACF2C96E3E00C944D2706
:1018000069857A858B859C850E94F3078ECF682F2A
:1018100080910001909101010E94A01E0895682FFF
:1018200080910001909101010E94A31E0895809172
:101830000001909101010E94A61E0895809122024C
:1018400085958595859508958091220287700895E4
:1018500090912202977081E009F480E008958091D0
:101860002D02089590912D02892B80932D020895C9
:10187000809590912D02982390932D0208951092B7
:101880002D02089590912C02892B80932C020895AB
:10189000809590912C02982390932C020895109299
:1018A0002C02089580912302089508950E94550CFA
:1018B00008959091780292FF08C0909123029817A2
:1018C00021F0809323020E94560C089580912302F8
:1018D000882329F01092230280E00E94560C08957C
:1018E000CF93DF93E0910001F091010180912D02EF
:1018F0008083E0910001F0910101808190912C02A0
:10190000892B808390912302992381F0E09100013B
:10191000F09101018081892B808380910001909159
:1019200001010E94581E81110E94660CC0910001A5
:10193000D091010148E050E06AE172E0CE010E94DE
:101940007227892B59F088E0FE01AAE1B2E00190EC
:101950000D928A95E1F7CE010E94131EDF91CF917F
:10196000089508950E94B10C08959091780292FF15
:1019700011C098E0899F90011124622B609322028C
:101980000E944608809122028595859585950E9442
:10199000B20C08950E94460808951092220280E039
:1019A0000E94B20C08959091220280958923809321
:1019B0002202282F277091F4282F082E000C330BB9
:1019C0009217130659F09091780292FF07C08595FF
:1019D000859585950E9456080E94CD0C089590919A
:1019E000780292FB222720F9281769F080FB92F9F0
:1019F0009093780280917702909178020E94390D3D
:101A000082E00E94D30C08958091780282FB88279F
:101A100080F991E089270E94EF0C089581E00E94EF
:101A2000EF0C089580E00E94EF0C089590E080E0B4
:101A30000E94962721E0883E9E4F09F020E0822FE9
:101A4000089582E090E00E948827089583E090E066
:101A50000E9488270895CF9384E090E00E94882711
:101A6000C82F82E290E00E948827982F8C2FCF9178
:101A70000895CF93C92F682F84E090E00E949C279F
:101A80006C2F82E290E00E949C27CF910895AB01D9
:101A9000BC018FE090E00E94AE270895AB01BC012D
:101AA00083E190E00E94AE27089560E070E0CB01F2
:101AB0000E944E0D089560E070E0CB010E94470D3A
:101AC0000E94550D089568EE7EEF90E080E00E9440
:101AD000BA2760E082E090E00E949C2760E083E00B
:101AE00090E00E949C271092E1011092E00160E0DA
:101AF00084E090E00E949C2764E082E290E00E94F3
:101B00009C2760E085E090E00E949C2760E086E0F2
:101B100090E00E949C276FEF87E090E00E949C2756
:101B200040E050E0BA0188E090E00E94AE2760E01B
:101B30008DE090E00E949C2740E050E0BA0188E1EF
:101B400090E00E94AE2760E087E190E00E949C2731
:101B500040E050E0BA018CE190E00E94AE2770E0D6
:101B600060E080E290E00E94BA2740E050E0BA01D5
:101B700088E190E00E94AE270E945B0D08950E94CC
:101B8000630D0895682F8EE090E00E949C270895D1
:101B90000E94681F60933B0270933C0280933D0259
:101BA00090933E026093370270933802809339021B
:101BB00090933A020895089508950E94DC0D0895C7
:101BC00008950E94E00D089581E890E10E94FC1DB7
:101BD0000E94DB0D0E94DD0D089581E008950E94B2
:101BE000ED0D0895089508950E94F20D0E94F30DE1
:101BF00008950E9484100E94E60308950E94531FD6
:101C00000E944B110E94F90D0E94CB190E94E10D18
:101C10000895AAE0B0E0EFE0FEE00C942A270E94CD
:101C2000611180E3A82E82E0B82E750110E0F70163
:101C300001917F01812F0E94AA101F5F173009F4C4
:101C400040C00817A1F380913F0281FD0E94B010AF
:101C50000E94EF0DC82E10E0812F0E94AA10082FBD
:101C6000F50181915F01081731F1D02ED826F12CB2
:101C7000EE24E3948D2D8E21B1F0CC20A1F0FE82D4
:101C80001F8391E0802F8E2109F490E098870E94B5
:101C90005C1F8160782F9A8789874E815F81688574
:101CA0008A850E941204F394EE0CF6E0FF12E2CF54
:101CB000F501319700831F5F173071F60E94C80D40
:101CC00020C00813C0CF0E945C1F8C0180912E029F
:101CD00090912F0208171907A1F08FEF89838A834B
:101CE0001B820E945C1F8160782F9D838C834981B9
:101CF0005A816B818D810E94120410932F020093F0
:101D00002E020E94111A0E947D130E94F9032A9646
:101D1000EAE00C944627CF93DF930E949C0FEC01DE
:101D2000811521E5920708F042C0811530E593073F
:101D300008F09FC0883E910530F5803E910508F07F
:101D400094C0883A910588F4853A910508F086C0D8
:101D50008130910509F489C0009709F486C0049781
:101D600008F083C0D0E0C0E080C08F3B9105D0F781
:101D7000C85AD0E0CC0FDD1FC55ADE4F0990D8817C
:101D8000C02DD46472C0811540E2940750F4C1158F
:101D900081E0D80708F069C0CD3ED10518F3D065C1
:101DA00064C081159044F0F2DF70D06A5EC0811586
:101DB00035E5930718F5811544E5940708F085C0CB
:101DC000C11583E5D80708F06CC0C11522E5D2071C
:101DD00008F462C0CE018370992721E030E002C090
:101DE000220F331F8A95E2F7C695C69580E2C89FF9
:101DF000E0011124C22BD32BDC6837C0811539E5F3
:101E00009307A8F4811548E5940708F063C0C1154D
:101E100086E5D80708F0A6CF8C2F0E943E10C82F69
:101E2000D0E0DC2FCC27CC27DF71D0621EC081151B
:101E30002AE5920708F453C090568115904208F0A5
:101E400091CF8D2F8F710E943E1090E0982F8827A0
:101E500088279F719C012C2BE901E7CFC55AD0E060
:101E6000C757DE4FC881D0E0D064CE01DF91CF915B
:101E700008958370992721E030E002C0220F331FBC
:101E80008A95E2F7C695C69540E2C49FE001112409
:101E9000C22BD32BDD68E9CFDC2FCC27C16FD06AF2
:101EA000E4CFCE018370992721E030E002C0220FF9
:101EB000331F8A95E2F7C695C69540E2C49FE001BC
:101EC0001124C22BD32BDA68D0CFD82FCC27C46FE4
:101ED000D06ACBCFD82FCC27C06FD06AC6CF8F7037
:101EE0000E943E1034E0D695C7953A95E1F7CF7041
:101EF0009C2FEC01D069B9CF972F7730A8F46630CA
:101F000098F470E026E0929F600D711D1124FB0192
:101F10009AE2899FE00DF11D1124EE0FFF1FE45599
:101F2000FF4F85919491089580E090E008950E947C
:101F30007C0F0E948B0E089582389105B9F1B0F4A0
:101F40008133910509F47DC048F48932910509F483
:101F50006DC08A32910509F47BC0089585339105DF
:101F600009F45FC08933910509F10895833E910515
:101F7000D9F138F4803E910529F1823E910579F13D
:101F80000895863E9105D9F1873E910509F43EC03A
:101F9000843E910541F52091780221FF24C0809173
:101FA000770284FD19C087EE90E0089520917702B2
:101FB000237009F05AC02091780223FF14C089E2EF
:101FC00090E008952091770220FD38C0309178028A
:101FD00030FF09C024FF43C090E080E008952091C5
:101FE000770222FDF7CF08952091770222FD3AC0B3
:101FF0003091780230FD39C024FFF5CFEDCF20912C
:10200000770223FFF0CF24FDE7CFCDCF20917702D9
:1020100023FD2EC03091780231FFEECF84EE90E0A8
:1020200008952091770225FFDECFC9CF2091770256
:1020300025FD21C02091780223FFD5CF89E390E0D0
:10204000D2CF2091770226FFCECF8AE290E008958A
:102050002091770226FFC7CF81E390E0089583EEB9
:1020600090E0089582EE90E0089580EE90E008956B
:1020700086EE90E0089585E390E0089590917702D0
:1020800092FF06C0282F28712830F9F4877F8460DA
:1020900093FF06C0282F28712831F1F4877E8461D0
:1020A0002091780220FF06C0382F38713830D9F4DB
:1020B000877F816021FF06C0282F28712831D1F445
:1020C000877E816194FD877E0895282F24712430B6
:1020D000F9F68B7F8860DCCF282F2471243101F73B
:1020E0008B7E8861DDCF382F3171313019F78E7FCB
:1020F0008860E0CF282F2171213121F78E7E886101
:10210000E1CF80E0089508950E94160D811102C06C
:102110000E94BF0D0E94210D80933F020E942B0D53
:1021200090937802809377020E9483100E94260D7C
:1021300090E00E940B088091DE019091DF010E94E7
:102140002908089508950E94A210089508950E94F4
:10215000A6100895E82FF0E0E058FD4F8081089523
:10216000089580EA8A95F1F7089500C008950E94C5
:10217000B1100895F894E82FE295EF70F0E031A1E6
:10218000282F2F7081E090E001C0880F2A95EAF790
:10219000982F9095932391A392A1892B82A3789451
:1021A0000895CF93DF93C2E9D1E089918F3F11F079
:1021B0000E94BA1081E0C939D807B9F7CCE8D1E05C
:1021C00089918F3F11F00E94BA1081E0C239D8077F
:1021D000B9F7DF91CF910895B0E0A0E0E2EFF0E130
:1021E0000C942C27EC01D62E062F10E0C8018E5639
:1021F0009E4F7C01FC0180818F3F09F445C0F8941B
:10220000E82FE295EF70F0E091A18F7021E030E0CF
:1022100001C0220F8A95EAF7892F822B81A382A120
:102220002095282322A378940E94B510ECE8F1E0D1
:1022300042E951E031E0C12C21912F3F51F1A22F11
:10224000A295AF70B0E090968C9190E02F7002C094
:10225000959587952A95E2F780FD1BC0832FC82AA4
:10226000330F4E175F0741F7F70180818F3F11F061
:102270000E94BA1061E0C11001C060E08D2D0E9483
:10228000B710C00FD11FC882CDB7DEB7E8E00C94FD
:10229000482780E0E4CF0E94D11087E0E0E8F2E038
:1022A000DF01982F1D929A95E9F7E9E7F2E0DF0147
:1022B0001D928A95E9F787E00E949C110E945603BF
:1022C0000895A7E0B0E0E7E6F1E10C942F278E0136
:1022D0000F5F1F4F87E0F80111928A95E9F7F12C03
:1022E0006F2DC8010E94EC10F394F7E0FF12F8CFB5
:1022F00047E050E0B80189E792E00E94722721E0B0
:10230000009709F420E0892B41F087E0F801A9E764
:10231000B2E001900D928A95E1F747E060E872E043
:1023200089E792E00E949D11182F0E945903812F86
:102330002796E5E00C944B270895CF92DF92EF9219
:10234000FF920F931F93CF936C017B01042F2223E5
:1023500049F081E0809342020E945C1F9093410209
:1023600080934002C0914202C1110AC0C0E08C2F8C
:10237000CF911F910F91FF90EF90DF90CF90089534
:1023800080914002909141020E94741F059770F362
:1023900010E0A801B601C7010E947227892B41F005
:1023A000A801B601C7010E947F2710924202DFCF29
:1023B000C0E0FBCF0E946E210E94FE0D0E947B2197
:1023C00008950E9480210E94090E0E949A2108957A
:1023D0000E94F51E0E9454210E94E40D0E94DA1111
:1023E0000E94E1110E94F40DFBCF8091490280FF11
:1023F0000DC06091070170E0660F771F60387105AE
:1024000070F56115710569F1862F089581FF07C088
:102410006091070184E0689FB0011124EFCF6091C3
:10242000070182FD0AC0809148028823A9F020910B
:10243000060160910701821710F088E0ECCF869FBB
:10244000C001112433E0880F991F3A95E1F7622FFC
:1024500070E00E94B526D2CF68E070E0D5CF8FE75C
:10246000089581E008958091490280FF0CC0609139
:10247000030170E075956795759567956115710510
:1024800049F1862F089581FF06C06091030170E035
:1024900075956795F3CF6091030182FD0BC0909114
:1024A00047029923A1F060910201809103019617E0
:1024B00038F0682F70E06038710500F38FE70895F9
:1024C000899FC001112470E00E94B526F4CF61E01D
:1024D00070E0D7CF81E008958D3E31F40E94F51170
:1024E000819580934D0208958E3E19F40E94F51156
:1024F000F8CF8F3E31F40E94F511819580934C0204
:102500000895803F19F40E94F511F8CF893F29F40E
:102510000E94331280934E0208958A3F21F40E9454
:1025200033128195F7CF8B3F31F40E94331281959E
:1025300080934F0208958C3F19F40E943312F8CF14
:102540009FE0980F983070F4815F990B21E030E0A4
:1025500001C0220F8A95EAF780914B02822B80936B
:102560004B0208958D3F31F4809149028160809340
:10257000490208958E3F21F4809149028260F7CF8D
:102580008F3FB9F7809149028460F1CF40914C02AE
:102590008D3E59F480914D0287FF0DC010924D027F
:1025A00041110BC01092480208C08E3E81F4809108
:1025B0004D0218169CF3442381F080914E029091B5
:1025C0004F02892B09F05AC01092470208958F3E9E
:1025D00049F447FFF0CF10924C0280914D028111D7
:1025E000ECCFE0CF803F19F41416ACF3E4CF909118
:1025F0004E02893F29F41916F4F610924E02DBCFF1
:102600008A3F19F497FFD7CFF8CF90914F028B3FB5
:1026100029F497FFD0CF10924F02CDCF8C3F19F401
:102620001916CCF3C8CF9FE0980F983090F4815FD3
:10263000990B21E030E0B90102C0660F771F8A953F
:10264000E2F7CB01809590914B02892380934B0256
:10265000B2CF8D3F31F4809149028E7F8093490241
:10266000AACF8E3F21F4809149028D7FF7CF8F3F13
:1026700009F0A1CF809149028B7FF0CF08950E948D
:102680005C1F9C0190914C0280914D02982B21F08F
:10269000309346022093450290914E0280914F0262
:1026A000982B21F030934402209343028AE492E075
:1026B0000E941E1E089586E0EAE4F2E0DF011D920A
:1026C0008A95E9F710924802109247021092490247
:1026D0000895FC01828181110EC0838181110BC09C
:1026E0008481811108C091E08581811101C090E051
:1026F000892F8170089581E0FCCFA6E0B0E0E3E887
:10270000F3E10C94312786E0EAE4F2E0DE01119671
:1027100001900D928A95E1F710924C0210924D02B1
:1027200010924E0210924F028B819C81892B89F06E
:1027300080914502909146020E94741FAC019091D5
:1027400048029923C9F1809108018417150608F4FD
:1027500040C08D819E81892B91F0809143029091A0
:1027600044020E94741FAC0190914702992309F41E
:1027700071C0809104018417150608F479C0BE0168
:102780006F5F7F4F8AE492E00E94AD1E811105C009
:102790008AE492E00E94691381110E943F1386E04F
:1027A000FE013196AAE4B2E001900D928A95E1F71C
:1027B0002696E3E00C944D27209109018AE0289F9A
:1027C000900111242417350720F69F5F909348024B
:1027D00002C09F3FD1F71B81112359F00E94F511D0
:1027E0009FEF11160CF491E0899F802D11248093A6
:1027F0004C021C81112359F00E94F5119FEF111614
:102800000CF491E0899F802D112480934D0230912A
:102810004C02332309F49DCF20914D02222309F469
:1028200098CF45EB3403C0011124992359F09093BC
:102830004C0245EB240390011124332339F03093EB
:102840004D0287CF81E080934C02F3CF81E08093EB
:102850004D027FCF209105018AE0289F900111242D
:102860002417350708F08BCF9F5F9093470202C073
:102870009F3FD1F71D81112359F00E9433129FEF22
:1028800011160CF491E0899F802D112480934E0243
:102890001E81112359F00E9433129FEF11160CF480
:1028A00091E0899F802D112480934F0230914E0238
:1028B000332309F464CF20914F02222309F45FCF20
:1028C00045EB3403C0011124992359F090934E0233
:1028D00045EB240390011124332339F030934F0248
:1028E0004ECF81E080934E02F3CF81E080934F0280
:1028F00046CFEF92FF920F931F93CF93DF93EB019D
:10290000E82FD1110EC0442321F0F0E0ED5EFC4F22
:10291000E4916E2F7E2F8E2FCDB7DEB7E6E00C94BC
:102920004A270D2F10E0282F30E0442329F02D5E98
:102930003C4FF901249130E0F6E0CF9FC001112413
:10294000EFEFF0E0BF010E94A126AB018C2F90E0D9
:10295000880F991FA5E5A49FB001A59F700D1124B4
:10296000861B970B982F990F980FBF01601B710B57
:10297000629FD001639FB00D729FB00D11248B2F09
:102980009D9FB0011124672F7727EF01C61BD70B3E
:10299000BE01629FE001639FD00D729FD00D112494
:1029A0007F01E91AF108E09EB001E19E700DF09EF2
:1029B000700D1124672F7727E61BF70BE29F80012C
:1029C000E39F100DF29F100D1124E12F722F423062
:1029D000510599F048F44115510569F04130510510
:1029E00081F0EB2F8D2F07C04430510569F080F046
:1029F00046305105B1F76E2F8FCFE22F7B2F812FFD
:102A0000FACFE22F7D2FF7CFEB2F822F712FF3CF4D
:102A10007B2F822FED2FEFCF41E00E947914089594
:102A200008950E940C150895CF93DF93762FE90146
:102A3000682F842F0E941115798368838A83DF9120
:102A4000CF91089580918702982F9E7F29F48170FD
:102A500082608093870208958A34E8F381708864E5
:102A6000F8CF88E090E00E9490270895CF92DF92FF
:102A7000EF92FF926B017C010E942215B701A60123
:102A800088E090E00E94AE27FF90EF90DF90CF901B
:102A90000895E7E8F2E083E0808311828FEF82837C
:102AA0008383148260817181828193810E943615B3
:102AB00008958091870280FF02C08695089580E086
:102AC000089590918B02933018F49F5F90938B023E
:102AD000882351F060918702709188028091890269
:102AE00090918A020E943615089581E00E94611536
:102AF000089590918B02992319F0915090938B0235
:102B0000882351F060918702709188028091890238
:102B100090918A020E943615089581E00E947915ED
:102B2000089570E00E94821B089560910E018091CB
:102B3000870280FF0BC080910D0123E0829FC001BE
:102B4000112484579D4F0E949115089580910F0183
:102B50009091100123E0829FF0011124E457FD4F72
:102B6000891748F71182108212828F5F3396F8CF4F
:102B70009091870290FF0EC090910F01209110015B
:102B800033E0939FF0011124E457FD4F921718F0A2
:102B90000E94951508958183608342839F5F3396D9
:102BA000F5CFA3E0B0E0E7EDF5E10C94322790918A
:102BB000870290FF0AC09E012F5F3F4F0E941415AD
:102BC0004B8169818A810E94B8152396E2E00C94BA
:102BD0004E27CF93DF93EC01EC81F0E0E25FFD4FF5
:102BE0004491E7E8F2E0628181810E94D1158C81F5
:102BF0008F5F8C83DF91CF910895CF93DF93EC01AA
:102C0000E7E8F2E0438162818C810E94D1158C81DA
:102C10008F5F8C83DF91CF910895A3E0B0E0E3E173
:102C2000F6E10C9430278C018091500281110AC08A
:102C30009E012F5F3F4F4FEF6FEF0E9414158A8167
:102C400080935002F8016481613069F080915002F4
:102C500040E0662361F040E0623011F440915002A0
:102C600080E060E004C06091500240E080E00E949B
:102C7000B815F801848190E0019663E070E00E944D
:102C8000B52684832396E4E00C944C27A3E0B0E0BF
:102C9000ECE4F6E10C942B27082FD62EE42EC22E5E
:102CA0009091870290FF29C0E92FE695AE2FB0E002
:102CB000A756BE4F8C9180935C029E7F923009F59F
:102CC0009E012F5F3F4F802F0E9414154B81698119
:102CD0008A810E94B81500938802D0928902E092FE
:102CE0008A02CC2051F06091870270918802809115
:102CF000890290918A020E9436152396E9E00C948D
:102D00004727823019F4E0908A02E5CF863019F423
:102D100000918802E0CF8930D9F38931E1F6E95199
:102D20006E2F6170B62EE695F0E0E25FFC4F1491D5
:102D3000F12C60911101F61618F00E949515CBCF79
:102D4000F19EC001112470E00E94A126802FB110D5
:102D500014C0860F20910F01622F6F0D7727771F08
:102D60009B01220F331F260F371F24573D4F4E2D37
:102D70006D2D0E941415F394DCCF861BEBCFE7E892
:102D8000F2E09181282F4381628180E1890F0E94C6
:102D90004616089581E00E94BF160895E7E8F2E024
:102DA0009181282F4381628180EF890F0E9446160E
:102DB000089581E00E94CE160895E7E8F2E062816E
:102DC00020E1620F08F46FEF282F438181810E9478
:102DD0004616089581E00E94DD160895E7E8F2E0C6
:102DE000628120E1621B08F460E0282F4381818129
:102DF0000E944616089581E00E94EE160895E7E8C5
:102E0000F2E0438120E1420F08F44FEF282F628166
:102E100081810E944616089581E00E94FF16089560
:102E2000E7E8F2E0438120E1421B08F440E0282F6C
:102E3000628181810E944616089581E00E941017E8
:102E4000089520E00E9446160895EF92FF921F9386
:102E5000CF93DF93EC0110E0EE24EA94F12C609123
:102E60001101161770F00E9495159A818C8190FFC0
:102E700027C08F5F8C83DF91CF911F91FF90EF90E0
:102E8000089520910F01422F410F5527551FCA0168
:102E90009A01220F331F280F391F24573D4F70E02E
:102EA000C7010E94B526962F8C8140918A026091BD
:102EB0008902199F800D11240E9414151F5FCFCF26
:102EC0008150D8CFB0E0A0E0E8E6F7E10C942A27E3
:102ED000FC0182810FEF80FF01E010E04BE0A42EA7
:102EE00080911101181798F00E9495158091520257
:102EF000013009F04FC0811102C080911101815051
:102F000080935202CDB7DEB7EAE00C944627C09119
:102F10000F01C12ED12CCC0DDD2DD11DCE01880F7E
:102F2000991FC80FD91FC457DD4F198218821A8202
:102F300034E0E32EF12CB12C809152028B0D8C30B9
:102F40001CF16A2D0E949326892F082E000C990BE4
:102F5000C816D90691F480918A028E9DA0018F9D9A
:102F6000500D112455954795559547959E016091B3
:102F70008902809188020E941415B00EF1E0EF1AC8
:102F8000F108D1F61F5FACCF87FFDFCF9091110121
:102F9000890FDBCF90E001966091110170E00E94F3
:102FA000B526AECF0F931F93CF93DF9380910F0180
:102FB0009091100123E0829FF0011124E457FD4F0E
:102FC000891740F1C0E0D3E060911101C61740F1CC
:102FD0000E94951520910B0180915102820F8093E0
:102FE000510290910C01920F90930C01191654F418
:102FF000082E000C990B409111014150550B84177C
:1030000095071CF0219520930B01DF91CF911F9123
:103010000F9108951182108212828F5F3396D0CF64
:103020000C2F10E070E0C8010E94B52620910F011E
:10303000820F482F50E020915102022E000C330BDA
:1030400002171307BCF020910C01022E000C330B69
:10305000201731077CF08D9F9001112424573D4F9C
:1030600040918A0260918902809188020E94141521
:10307000CF5FAACFFA01EE0FFF1FE40FF51FE45751
:10308000FD4F118210821282F3CFB0E0A0E0EBE49A
:10309000F8E10C942827EC014C81042F10E09801F2
:1030A000D8010E94F9269B01AC010E940F274B0119
:1030B0005C01E0E2F0E0E01BF10BA5E5B0E0AC0163
:1030C0009B010E940F276B017C019F01DF010E9481
:1030D000F1269B01AC010E941A279B01AC01280D2F
:1030E000391D4A1D5B1DC701B6010E94C926F22E7B
:1030F000822F90E039E23F1520F143E0249F9001B8
:10310000112435952795122F109500E085E5E82EBE
:10311000EF1880911101081718F10E9495159C81F4
:1031200081E0992319F0903219F48FEF80930A010E
:1031300080910A01890F8C83CDB7DEB7ECE00C9447
:10314000442725E530E0B901681B790B9B01220F6C
:10315000331F260F371F37FFD4CF2F5F3F4FD1CFFD
:103160008E2D01FD8F2D20910F01622F600F77278B
:10317000771F9B01220F331F260F371F24573D4F08
:10318000412F609189020E9414150F5FC2CF0F93E7
:103190001F93CF93DF93EC0110E000E090911101B9
:1031A0009017110609F06CF40E9495158C8190E03F
:1031B0000196817099278C83DF91CF911F910F9198
:1031C000089520910F01A801420F511D9A01220F6D
:1031D000331F240F351F24573D4F4C8160918902C6
:1031E0008091880296959017110651F04CF0442377
:1031F00049F040918A020E9414150F5F1F4FCECFF5
:103200004423B9F340E0F7CFE7E8F2E080818E7F16
:10321000808360817181828193810E943615109232
:103220005D022FEF80E792E0215080409040E1F76F
:1032300000C000000E9495150895E7E8F2E0808143
:103240008E7F808310925D022FEF80E792E0215005
:1032500080409040E1F700C000000E94951508955D
:1032600010925D0280915A0281110AC081E0809320
:103270005A02809187028170809359020E941D1921
:10328000089560918702669570E04BE050E082E11E
:1032900091E00E946527892B19F481E080935D02FB
:1032A0000E945C1F90935402809353020895909162
:1032B000870290FF2BC09170811129C0926090937A
:1032C0008702662351F06091870270918802809195
:1032D000890290918A020E94361560918702669554
:1032E00070E04BE050E082E191E00E946527892B7D
:1032F000A9F010925D0281E08093560240918A020B
:1033000060918902809188020E9421170895853278
:1033100010F09864D4CF880F982BD1CF0E94411918
:10332000EACF682F90918702969581E0890F8532C8
:1033300008F081E00E945719089581E00E949119D8
:103340000895682F9091870296958FEF890F09F461
:1033500084E20E945719089581E00E94A1190895FE
:1033600061E00E9457190895E7E8F2E080818160EA
:10337000808386950E94B01908958091870280FF0E
:1033800003C00E94041908950E94B419089560E0D2
:103390000E945719089580915B0281112EC00E94EE
:1033A000160D811104C00E94BF0D0E9449150E9494
:1033B00031156093870270938802809389029093FD
:1033C0008A026E7F61F40E9449150E943115609354
:1033D0008702709388028093890290938A020E94E8
:1033E000221510925D028091870280FF03C08695AE
:1033F0000E94C71981E080935B020895E7E8F2E03C
:1034000080818160808386950E94C71908951092FB
:103410005A028091590281110E94FE190E9441199D
:1034200008950F931F93CF93DF9380915D028823BC
:10343000B9F180915C02E0918702E695E81BE09388
:103440005502823091F5F0E0E65FFD4FE491CE2F1A
:10345000D0E009EE15E180915602882361F01092C8
:1034600056020E945C1F9093540280935302109264
:103470005802109257020E945C1FE0915302F09193
:1034800054028E1B9F0B8F3F9F4750F4EC0FFD1F84
:10349000F0935402E093530283E592E0F80109951A
:1034A000DF91CF911F910F910895863049F4F0E09C
:1034B000E95FFD4FE491CE2FD0E00DEF15E1CBCFCA
:1034C000893051F4E695F0E0EC5FFD4FE491CE2FAA
:1034D000D0E005E217E1BFCF8F3051F4E695F0E080
:1034E000EF5FFD4FE491CE2FD0E002E617E1B3CFBE
:1034F000853149F4F0E0E250FE4FE491CE2FD0E068
:1035000002ED17E1A8CFC8E2D0E005E418E1883168
:1035100009F4A1CF833239F4ECEFF1E0C591D491F5
:103520000DE016E198CFC4EFD1E007EC18E184324A
:1035300009F491CFC0EDD7E000E115E18CCFFA019D
:10354000811101C0FB0109950895CF93DF93C82F26
:10355000D62F0E9459158C1748F00E9459158D17C7
:1035600028F40E949D19DF91CF9108958C2F0E941D
:10357000B019F9CF1F93CF93DF93EC01FB011281B8
:1035800011117EC00E942F0C8272CD3CFCE5DF073A
:1035900009F49CC008F041C0C73CECE5DE0709F423
:1035A00081C0D8F4C43C9CE5D90709F471C030F45B
:1035B000C33CDC4509F469C011E062C0C53C9CE530
:1035C000D90709F46AC049ED56E16AEC76E1C63CD8
:1035D000DC4591F70E949F1A53C0CA3CFCE5DF0707
:1035E00009F46AC068F4C83CECE5DE0709F45FC082
:1035F0004AEE56E16BEF76E1C93CDC4559F3DCCF8E
:10360000CB3C9CE5D90709F45CC04DE855E165E782
:1036100075E1CC3CDC45F1F2CFCFC23DFCE5DF07E4
:1036200009F465C098F4CF3C9CE5D90709F457C06C
:1036300008F451C0C03DFCE5DF0709F455C0C13DA9
:10364000DC4509F0B9CF6EE089E04BC0C53D9CE593
:10365000D90709F452C058F4C33DFCE5DF0709F46B
:1036600049C0C43DDC4509F0A7CF88E135C0C63D5F
:103670009CE5D90709F444C0CE35DD4509F09CCF5F
:10368000812FDF91CF911F9108950E94BD19F8CF2E
:103690004CEA59E16DE979E19DCF4DE959E16CEAD8
:1036A00079E198CF4AEC56E169ED76E193CF4BEFA3
:1036B00056E16AEE76E18ECF4DE157E16CE077E1BD
:1036C00089CF4CE057E16DE177E184CF45E755E1E3
:1036D0006DE875E17FCF81E00E94B019D1CF65E040
:1036E00082E00E94A51ACCCF68E086E0FACF64E1C0
:1036F0008FE0F7CF67E185E1F4CF62E289E1F1CFB6
:1037000083E2EACF539A4BB1477F5BB15860EFB782
:10371000F8949B01220F331F260F371F280F391FE4
:103720002817390741F4EFBF8FE594E00197F1F7CF
:1037300000C000000895DC016D91CD0178E05BB917
:10374000000000C067FF4BB9660F000000C000C05A
:1037500000C04BB900C07A9591F7E2CFCF93DF93C9
:10376000EC01FB018281882309F464C1C430FDE5CA
:10377000DF07E0F5CB3F9CE5D90730F49E012250EE
:103780003C4524313105D8F50E942B0D90937802E9
:1037900080937702C231ECE5DE0709F41FC108F01F
:1037A0006EC0C9308CE5D80709F4F2C008F03FC0FC
:1037B000C530ECE5DE0709F4DBC058F5C3308CE515
:1037C000D80709F4CDC008F0CFC08091770281609E
:1037D000C230DC4509F4AEC0809177029091780246
:1037E0000E94390D0E94B60780E009C0C63AEDE597
:1037F000DE0751F238F4C2369DE5D90729F2DF9190
:10380000CF9108959E012E5A3D4523303105B8F7DA
:10381000BBCF809177028062C730FCE5DF0709F4F7
:1038200089C008F4B1C080917702806483C0CD3034
:103830009CE5D90709F4BAC070F4809177028E7FB5
:10384000CB30FCE5DF0709F475C008F4A7C0809110
:1038500077028D7F6FC0CF309CE5D90709F4B6C0E1
:1038600008F4A8C0C031FCE5DF0709F4B3C0C131DA
:10387000DC4509F0B1CF809177028F7B5BC0C11529
:103880009DE5D90709F4B4C098F5CB3FFCE5DF0707
:1038900009F472C0B8F4C4319CE5D90709F4B6C084
:1038A00008F4A2C0C531DC4509F096CF80917702BB
:1038B00082FB992790F921E0922790FB82F990FBF7
:1038C00083F938C0CD3F8CE5D80709F477C008F4F8
:1038D00057C0CE3FECE5DE0709F474C08091780252
:1038E0008360CF3FDC4509F077CF8093780274CFB7
:1038F000C2368DE5D80709F496C068F4C230EDE50C
:10390000DE0709F48CC008F477C0C330DD4509F048
:1039100063CF80E085C0CE3A9DE5D907E9F068F431
:1039200090917702892F8E7F90FF8160C63ADD45A6
:1039300009F052CF809377024FCFCF3A8DE5D80769
:1039400089F1C03BDD4509F047CF90917802892F7E
:10395000877F93FF8860C9CF809178028860C5CF48
:10396000809177028260E6CF809177028460E2CF17
:10397000809177028860DECF809178028160B5CF38
:10398000809178028260B1CF809177028061D2CF3E
:103990000E94B607809177028068CCCF8091770231
:1039A0008C60C8CF80917802877F9FCF809177020B
:1039B0008B7FC0CF80917702877FBCCF80917802C8
:1039C0008E7F93CF809178028D7F8FCF8091770209
:1039D0008F7EB0CF809177028F7DACCF0E94B607EB
:1039E000809177028F77A6CF80917702837FA2CFD5
:1039F000809178028C7F79CF80917802982F909572
:103A000091708E7F892B90FB81F96FCF0E94B60752
:103A100090917702892F97FB87F980588BCF81E0AF
:103A20000E94C20DD9CE90917702892F8F7E94FF8C
:103A3000806180CF81E0E3CECF93DF93EB018631CD
:103A40009C4511F50E942F0C9A81992399F08A7A4E
:103A500091E009F490E090935E02811109C089E23F
:103A60000E94070C0E94700C80E0DF91CF910895B6
:103A700085E3F6CF80915E02811104C089E20E9445
:103A80000F0CF0CF85E3FBCF81E0EFCF0F931F93B7
:103A9000CF93DF93C42FD22FFC0182818823C9F0FA
:103AA000409361020E945C1F9093600280935F02CA
:103AB00080E28C0F883040F4C77081E001C0880F2D
:103AC000CA95EAF70E945805DF91CF911F910F9197
:103AD000089510916102141332C080915F02909199
:103AE00060020E94741F883C910548F5C0E2CD0F2A
:103AF0001D17B9F080E2810F883040F4177081E023
:103B000001C0880F1A95EAF70E945F05C83048F493
:103B100081E09D2F977001C0880F9A95EAF70E9467
:103B20005805802F0E944F05C83070F6D77081E08D
:103B300001C0880FDA95EAF70E945F05C5CF80E2E1
:103B40008C0F883008F6C77081E001C0880FCA95D5
:103B5000EAF7F2CF0F939C01CB01243F4CE53407E9
:103B600059F1A8F4293DFCE53F0701F12A3D4CE558
:103B70003407D1F1283D3C4591F406E221EE41EEB7
:103B800068ED7CE50E94461D80E00F910895263F78
:103B9000FCE53F07E9F0B0F0273F3C45F9F0FC01B8
:103BA0008281882339F110926102EFCF07E225EE7E
:103BB00045EE69ED7CE5E6CF06E221EE40EE64EFEE
:103BC0007CE5E0CF07E225EE44EE65EF7CE5DACF59
:103BD00006E221EE42EE66EF7CE5D4CF07E225EE69
:103BE00046EE67EF7CE5CECF08E221E045EE6AEDD8
:103BF0007CE5C8CF81E0C9CF9093BF018093BE011F
:103C0000089590936702809366020895E09166029A
:103C1000F0916702309729F00190F081E02D09952D
:103C2000089580E00895E0916602F0916702309770
:103C300021F00280F381E02D09950895E09166025C
:103C4000F0916702309739F022E0DC012C93048078
:103C5000F581E02D09950895209164023091650267
:103C60002817390771F09093650280936402E09100
:103C70006602F0916702309721F00680F781E02D0F
:103C8000099508952091620230916302281739073F
:103C900071F09093630280936202E0916602F0916A
:103CA0006702309721F00084F185E02D0995089591
:103CB0009C012E5F3F4FAC01485F5F4F80E02417AF
:103CC000350709F40895F90191919F019923B9F3FA
:103CD0008F5FF5CF662349F0FC013296089621915B
:103CE000261729F0E817F907D1F780E0089581E059
:103CF00008959C01FC0132969FEF80E041914617A8
:103D000051F09F3F19F4411101C0982F8F5F863009
:103D1000A9F79F3F09F40895290F311D97FD3A95A2
:103D2000F90162830895FC013296089621912613C9
:103D300003C0DF0111971C92E817F907B9F708953E
:103D40000E94791E08950E94931E0895029626E00F
:103D5000FC0111922A95E9F7089546E050E00E948F
:103D6000722721E0892B09F420E0822F089508951D
:103D70000E94B71E0895811106C081E080936802F9
:103D80000E94B81E089582E0F9CF83E08093680214
:103D90000E94B81E08950E94BB1E089581E0809382
:103DA00068020E94B81E08950E94CE1E08950895CC
:103DB00008950E94D81E0895089508950E94D71E60
:103DC0000895CF930E94DC1E0E9461110E94DD1EA7
:103DD000C0E08C2F0E94AA10811105C0CF5FC730B0
:103DE000C1F7CF91089581E0FCCF85B7806885BF8A
:103DF00085B7806885BF08951F921FB61F92112452
:103E00008F939F93AF93BF9380916902811113C0E9
:103E10008091AD029091AE02A091AF02B091B0023C
:103E20004196A11DB11D8093AD029093AE02A09367
:103E3000AF02B093B002BF91AF919F918F911F904D
:103E40001FBE1F9018958091B502843031F10E94F9
:103E5000CF031092690288E190E020E40FB6F89455
:103E6000A895809360000FBE2093600083B7817F88
:103E7000846083BF83B7816083BF7894889583B75C
:103E80008E7F83BF0FB6F894A895809160008861FB
:103E900080936000109260000FBE08950E94B607E4
:103EA0000E94D603089582E084BD93E095BD9AEF09
:103EB00097BD80936E0008952FB7F8948091AD025E
:103EC0009091AE02A091AF02B091B0022FBF0895C1
:103ED0002FB7F8946091AD027091AE028091AF025D
:103EE0009091B0022FBF08959C014FB7F894809134
:103EF000AD029091AE02A091AF02B091B0024FBF5F
:103F0000821B930B089578941F921FB61F92112461
:103F10008F939F93AF93BF938091AD029091AE0228
:103F2000A091AF02B091B0020196A11DB11D809386
:103F3000AD029093AE02A093AF02B093B002BF91D6
:103F4000AF919F918F911F901FBE1F90189581E098
:103F50008093E00080E28093D8001092C9008FE146
:103F60009EE40197F1F700C0000087E090EBDC01D0
:103F70008093BE029093BF02A093C002B093C1028F
:103F800088E19CE00FB6F894A895809360000FBE7E
:103F900090936000FFCF88E19CE00FB6F894A8955D
:103FA000809360000FBE90936000FFCF80917502F8
:103FB000089508959C0182E08093E9009FEF80912D
:103FC000E800915085FD06C085ED8A95F1F7000067
:103FD0009111F5CF8091E80085FF0CC050E040E0E2
:103FE00066E070E0C9010E940C228091E8008E77A3
:103FF0008093E8000895CF93DF93EC0181E08093F4
:10400000E9008FEF9091E800815095FD06C095ED95
:104010009A95F1F700008111F5CF8091E80085FFB6
:1040200014C050E040E068E070E0CE010E940C2235
:104030008091E8008E778093E80088E0FE01ADE68D
:10404000B2E001900D928A95E1F7DF91CF9108954A
:1040500080936A0270936C0260936B028091B50248
:10406000843001F582E08093E9008FEF9091E800C1
:10407000815095FD06C095ED9A95F1F700008111EC
:10408000F5CF8091E80085FF0DC050E040E063E08F
:1040900070E08AE692E00E940C228091E8008E7720
:1040A0008093E8000895BC0184E00E9428200895D0
:1040B000BC0183E00E94282008958091B402811100
:1040C00009C00E949C230E94F9238091E200846031
:1040D0008093E20008951092B40208950E94CE1ECB
:1040E00008956091B10281E0611101C080E00E94F9
:1040F000C51E08959091B50281E0943009F080E0EA
:104100006091B1020E94CB1E089542E061EC81E013
:104110000E94182342E261EC82E00E9418239091F1
:10412000B50281E0943009F080E06091B1020E9414
:10413000BB1E08958091B702833009F461C030F44A
:104140008130D1F1823009F49EC008958A3009F49B
:104150008AC08B3009F46FC0893009F050C080915B
:10416000B602813209F04BC08091BA029091BB0235
:10417000029708F044C08091E800877F8093E800B0
:104180008091E80082FF37C09091F3008091F200A7
:10419000029731F48091F100813011F0863021F4E2
:1041A0008091F100809375028091E8008B77809375
:1041B000E8000E944C2323C08091B602813AF9F4B2
:1041C0008091E800877F8093E8008091BA02909107
:1041D000BB02892B61F468E08DE692E070E00E94FA
:1041E0005B228091E8008B778093E800089560E07F
:1041F00090E080E0F3CF8091B5028111C1CF0895A6
:104200008091B602813AD9F78091BA029091BB02AF
:10421000892BA9F78091E800877F8093E80080913F
:10422000E80080FFFCCF809129018093F10080910C
:10423000E8008E77BCCF8091B602813201F7809181
:10424000BA029091BB02892BD1F68091E800877F5A
:104250008093E8000E944C238091B802809329014A
:104260000E94B60708958091B602813241F680918E
:10427000E800877F8093E8000E944C238091B90278
:104280008093760208958091B602813A09F0B7CF03
:104290008091E800877F8093E8008091E80080FFAC
:1042A000FCCF80917602C1CF84B7877F84BF0FB6E1
:1042B000F894A895809160008861809360001092C6
:1042C00060000FBE80E890E00FB6F8948093610024
:1042D000909361000FBE0E94D41E08950E949C23FB
:1042E0000E94F923E2EEF0E080818460808378947C
:1042F0000E94782608958DE191E00E94011E0895A4
:104300008091B502853031F48091B502853019F085
:104310000E944E1F08950E94231F8091B30288239C
:1043200099F30E94E11E882379F30E94F6210E94EE
:10433000B607EACF08950E949E210895292F3327BA
:104340002330310519F168F42130310509F444C0F6
:104350002230310509F445C090E080E030E020E0F3
:1043600025C02132310549F122323105A9F780E417
:1043700090E023E035E061157105C1F08BE790E036
:1043800028E834E06130710589F0E6CF9927813063
:10439000910581F0009729F00297F1F6E3E1F4E04E
:1043A00002C0E7E3F4E0849190E09F01FA013183D9
:1043B00020830895E9E2F4E0F6CF89E090E02DE46F
:1043C00034E06115710591F389E090E026E634E070
:1043D0006130710559F3C0CF82E190E026E734E007
:1043E000E5CF8BE390E02BE334E0E0CF80E189BDC3
:1043F00082E189BD09B400FEFDCF8091D8008F7D98
:104400008093D8008091E00082608093E0008091EA
:10441000E00081FDFCCF0895AF92BF92CF92DF9272
:10442000FF920F931F93CF93DF936C01EB018A01EF
:104430000E946B23F82E811123C00115110539F05C
:10444000F80180819181C81BD90BC80ED91EB12CEF
:10445000A12C2097A9F08091E80085FD22C08091D1
:10446000E8008E778093E80001151105A1F0F801AE
:1044700080819181A80EB91EB182A08285E0F82EBC
:104480008F2DDF91CF911F910F91FF90DF90CF90F3
:10449000BF90AF9008950E946B238823D1F2F82E2D
:1044A000EFCFF60181916F018093F1002197FFEF2B
:1044B000AF1ABF0ACECFFC018091BC029091BD0221
:1044C00086179707A0F06115710529F49091E8000F
:1044D0009E779093E80090E06115710551F4911179
:1044E00008C08091E80082FF34C080E00895BC01DC
:1044F000F2CF8091B5028823C1F18530C1F180915E
:10450000E80083FD30C08091E80082FDEACF809111
:10451000E80080FFE1CF8091F3002091F200382F76
:104520006115710519F02830310558F091E02830F7
:10453000310509F090E02091E8002E772093E80003
:10454000CBCF81918093F100615071092F5F3F4F74
:10455000E7CF8091B502882341F0853041F080910A
:10456000E80083FFBECF81E0089582E0089583E0F4
:104570000895FC018091BC029091BD0286179707B7
:10458000A0F06115710529F48091E8008E77809381
:10459000E80090E06115710551F4911108C0809117
:1045A000E80082FF35C080E00895BC01F2CF809121
:1045B000B5028823C9F18530C9F18091E80083FDF7
:1045C00031C08091E80082FDEACF8091E80080FF51
:1045D000E1CF8091F3002091F200382F6115710531
:1045E00019F02830310558F091E02830310509F0F4
:1045F00090E08091E8008E778093E800CBCF8491A3
:104600008093F1003196615071092F5F3F4FE6CFE3
:104610008091B502882341F0853041F08091E80017
:1046200083FFBDCF81E0089582E0089583E008957F
:10463000982F973028F08F708093E90081E00895DB
:104640009093E900242F762F50E0981731F0709165
:10465000EC002091ED005091F00021FD02C09F5F21
:10466000E8CF3091EB003E7F3093EB003091ED00CE
:104670003D7F3093ED003091EB0031603093EB00E3
:104680007093EC002093ED005093F0002091EE0029
:1046900027FDE5CF80E008958091B60287FF13C023
:1046A0008091E80082FF06C08091E8008B778093BC
:1046B000E80004C08091B5028111F2CF0895809185
:1046C000B5028823D9F38091E80080FFF8CF80916C
:1046D000E8008E77ECCF2091E4003091E50095E67C
:1046E000A9012091EC00822F817020FF06C08091EB
:1046F000E80080FF06C080E008952091E80022FDD8
:104700001AC08091B502882389F0853089F08091A4
:10471000EB0085FD0FC02091E4003091E5004217C9
:104720005307F9F29150E1F684E0089582E008958C
:1047300083E0089581E008950E940B240E941324D1
:10474000E0EEF0E0808181608083E8EDF0E0808140
:104750008F77808319BCA7EDB0E08C918E7F8C930E
:1047600080818F7E80831092B40208950F931F93EF
:10477000CF93DF930E940B240E941324C8EDD0E056
:1047800088818F77888388818068888388818F7DFE
:10479000888319BC1092B5021092B1021092B30234
:1047A0001092B20200EE10E0F80180818B7F8083CE
:1047B00088818160888342E060E080E00E94182365
:1047C000E1EEF0E080818E7F8083E2EEF0E0808198
:1047D00081608083808188608083F80180818E7F02
:1047E0008083888180618883DF91CF911F910F91B1
:1047F0000895E8EDF0E080818F7E8083E7EDF0E0C2
:1048000080818160808384E082BF81E08093B402F4
:104810000E94B6230895E8EDF0E080818E7F8083CA
:104820001092E20008951092DA001092E1000895CB
:104830001F920F920FB60F9211242F933F934F9315
:104840005F936F937F938F939F93AF93BF93EF93F8
:10485000FF938091E10082FF0BC08091E20082FF14
:1048600007C08091E1008B7F8093E1000E94772652
:104870008091DA0080FF19C08091D80080FF15C0B8
:104880008091DA008E7F8093DA008091D90080FFDA
:1048900096C080E189BD82E189BD09B400FEFDCFEB
:1048A00081E08093B5020E945D208091E10080FF4D
:1048B00019C08091E20080FF15C08091E2008E7FD8
:1048C0008093E2008091E20080618093E200809119
:1048D000D80080628093D80019BC85E08093B5022F
:1048E0000E9471208091E10084FF2BC08091E20042
:1048F00084FF27C080E189BD82E189BD89B5982FF9
:10490000917080FFFBCF8091D8008F7D8093D8007D
:104910008091E1008F7E8093E1008091E2008F7EA4
:104920008093E2008091E20081608093E2008091B8
:10493000B102882309F449C084E08093B5020E9443
:104940007A208091E10083FF29C08091E20083FFFB
:1049500025C08091E100877F8093E10082E0809311
:10496000B5021092B1028091E1008E7F8093E10048
:104970008091E2008E7F8093E2008091E20080616E
:104980008093E20042E060E080E00E941823809182
:10499000F00088608093F0000E946E20FF91EF91FC
:1049A000BF91AF919F918F917F916F915F914F9147
:1049B0003F912F910F900FBE0F901F90189519BC2B
:1049C0001092B5020E946B2070CF8091E30087FDAA
:1049D00093E09093B502B3CF1F920F920FB60F9250
:1049E00011242F933F934F935F936F937F938F93F4
:1049F0009F93AF93BF93CF93DF93EF93FF93D091A8
:104A0000E900DF708091EC00C82FC17080FDC0E824
:104A10001092E9008091F000877F8093F0007894F5
:104A20000E9430251092E9008091F0008860809308
:104A3000F000CD2BCF70C093E900FF91EF91DF9193
:104A4000CF91BF91AF919F918F917F916F915F9126
:104A50004F913F912F910F900FBE0F901F9018957F
:104A6000AAE2B0E0E6E3F5E20C94312786EB92E0AF
:104A70002091F100FC012193CF01F2E08E3B9F07D2
:104A8000B9F70E949A208091E80083FF1EC18091AF
:104A9000B6029091B7029A3008F017C1E92FF0E002
:104AA000E252F84D0C94EB26803899F0823809F0E8
:104AB0000CC18091BA028F70873008F006C18093D4
:104AC000E9008091EB0085FB882780F91092E900CE
:104AD00006C08091B2029091B302911182609091D0
:104AE000E800977F9093E8008093F1001092F10026
:104AF0008091E8008E77E5C0882309F4D3C0823026
:104B000009F0E3C08091B8028111D6C08091BA0249
:104B10008F702FEF280F263008F0D7C08093E90060
:104B20002091EB0020FFC8C0933031F48091EB005E
:104B300080628093EB00C0C09091EB0090619093F5
:104B4000EB0021E030E001C0220F8A95EAF72093C4
:104B5000EA001092EA008091EB008860EACF8111B0
:104B6000B4C01091B8021F778091E3008078812B48
:104B70008093E3008091E800877F8093E8000E94A3
:104B80004C238091E80080FFFCCF8091E300806897
:104B90008093E30082E0111183E08093B50295C019
:104BA0008058823008F091C08091B8029091B9028B
:104BB0008C3D23E09207A1F583E08A838AE2898312
:104BC0004FB7F894DE01139620E03EE051E2E32F68
:104BD000F0E050935700E49120FF03C0E295EF709E
:104BE0003F5FEF708E2F90E0EA30C0F0C7968D9354
:104BF0009D932F5F243159F74FBF8091E800877F45
:104C00008093E8006AE270E0CE0101960E945B2288
:104C10008091E8008B778093E80057C0C096E7CF7B
:104C20006091BA027091BB02AE014F5F5F4F0E946C
:104C30009B21BC01892B09F448C09091E800977F23
:104C40009093E80089819A810E94B922E1CF80384F
:104C5000E1F58091E800877F8093E8008091B102C0
:104C60008093F10045CF811130C09091B80292300D
:104C700060F58091E800877F8093E8009093B1020F
:104C80000E944C238091B102882311F084E005C07A
:104C90008091E30087FDFACF81E08093B5020E9406
:104CA000852013C08091B802813079F481E093307F
:104CB00009F080E08093B3021092E9008091E8004F
:104CC000877F8093E8000E944C238091E80083FF57
:104CD0000AC08091E800877F8093E8008091EB0014
:104CE00080628093EB00AA96E3E00C944D27089530
:104CF000CF938091B5028823A1F0C091E900CF70D5
:104D00009091EC00892F817090FD80E8C82B109263
:104D1000E9008091E80083FD0E943025CF70C093A8
:104D2000E900CF91089587FB082E062687FD81951F
:104D300067FD61950E9459270EF4919507FC8195B6
:104D40000895AA1BBB1B51E107C0AA1FBB1FA617D2
:104D5000B70710F0A61BB70B881F991F5A95A9F724
:104D600080959095BC01CD01089597FB072E16F410
:104D7000009407D077FD09D00E94A12607FC05D03A
:104D80003EF4909581959F4F0895709561957F4F62
:104D90000895A1E21A2EAA1BBB1BFD010DC0AA1F7C
:104DA000BB1FEE1FFF1FA217B307E407F50720F094
:104DB000A21BB30BE40BF50B661F771F881F991F0F
:104DC0001A9469F760957095809590959B01AC0158
:104DD000BD01CF010895EE0FFF1F0590F491E02D66
:104DE00009940E94F926332312F48A1B9B0B0C941E
:104DF0000A27A29FB001B39FC001A39F700D811D20
:104E00001124911DB29F700D811D1124911D0895D3
:104E10000E94F926B7FF0895821B930B08950E9404
:104E2000F926A59F900DB49F900DA49F800D911D14
:104E300011240895B7FF0C940F270E940F27821B9F
:104E4000930B08952F923F924F925F926F927F92B1
:104E50008F929F92AF92BF92CF92DF92EF92FF928A
:104E60000F931F93CF93DF93CDB7DEB7CA1BDB0B36
:104E70000FB6F894DEBF0FBECDBF09942A883988DB
:104E800048885F846E847D848C849B84AA84B984E2
:104E9000C884DF80EE80FD800C811B81AA81B981EE
:104EA000CE0FD11D0FB6F894DEBF0FBECDBFED0102
:104EB0000895991B79E004C0991F961708F0961B76
:104EC000881F7A95C9F780950895FC01415050409C
:104ED00030F001900616D1F73197CF010895882759
:104EE00099270895FB01DC0104C08D910190801980
:104EF00021F441505040C8F7881B990B0895FB01DD
:104F0000DC0102C001900D9241505040D8F7089545
:104F1000F999FECF92BD81BDF89A992780B5089581
:104F2000A6E1B0E044E050E00C94C227A8E1B0E074
:104F300042E050E00C94C227262FF999FECF92BD93
:104F400081BDF89A019700B4021639F01FBA20BD4E
:104F50000FB6F894FA9AF99A0FBE08950396272F80
:104F60000E949D270E949C27252F0E949D27242F69
:104F70000C949D270196272F0E949D270C949C2717
:104F8000DC01CB01FC01F999FECF06C0F2BDE1BD09
:104F9000F89A319600B40D9241505040B8F70895F8
:104FA000F894FFCFA105A105D205D2055F067B06C7
:104FB000010601068606F7060607060754257C2526
:104FC00065267C256526AF25D02565262726332630
:104FD0002402280850011E0A1401010102000B00DE
:104FE0000B0B01191A1B1C1D1E1F202122D61FFB93
:104FF0001FDA1F58205320D91F01E200E900EA0000
:10500000B500B600B700CD008301CC008A01920143
:1050100094012102230224022502260227022A02E9
:10502000B300B4006F007000818283E200E900EAFF
:1050300000B500B600B700CD008301CC008A019214
:105040000194012102230224022502260227022ABA
:1050500002B300B4006F007000818283946697C62B
:105060003435F4F5F6F7313332000102020202065C
:1050700006060909090909090F0F0F0F0F0F15156A
:0E5080001518191919191919191919192324B4
:00000001FF
